{
	"DEX.sol": {
		"DEX": {
			"abi": [
				{
					"inputs": [
						{
							"internalType": "address",
							"name": "addr",
							"type": "address"
						}
					],
					"stateMutability": "nonpayable",
					"type": "constructor"
				},
				{
					"anonymous": false,
					"inputs": [
						{
							"indexed": true,
							"internalType": "address",
							"name": "from",
							"type": "address"
						},
						{
							"indexed": false,
							"internalType": "uint256",
							"name": "Meme_amount",
							"type": "uint256"
						},
						{
							"indexed": false,
							"internalType": "uint256",
							"name": "eth_amount",
							"type": "uint256"
						}
					],
					"name": "Buy",
					"type": "event"
				},
				{
					"anonymous": false,
					"inputs": [
						{
							"indexed": true,
							"internalType": "address",
							"name": "previousOwner",
							"type": "address"
						},
						{
							"indexed": true,
							"internalType": "address",
							"name": "newOwner",
							"type": "address"
						}
					],
					"name": "OwnershipTransferred",
					"type": "event"
				},
				{
					"anonymous": false,
					"inputs": [
						{
							"indexed": false,
							"internalType": "address",
							"name": "account",
							"type": "address"
						}
					],
					"name": "Paused",
					"type": "event"
				},
				{
					"anonymous": false,
					"inputs": [
						{
							"indexed": true,
							"internalType": "address",
							"name": "from",
							"type": "address"
						},
						{
							"indexed": false,
							"internalType": "uint256",
							"name": "Meme_amount",
							"type": "uint256"
						},
						{
							"indexed": false,
							"internalType": "uint256",
							"name": "eth_amount",
							"type": "uint256"
						}
					],
					"name": "Sell",
					"type": "event"
				},
				{
					"anonymous": false,
					"inputs": [
						{
							"indexed": true,
							"internalType": "address",
							"name": "from",
							"type": "address"
						},
						{
							"indexed": false,
							"internalType": "uint256",
							"name": "Meme_amount",
							"type": "uint256"
						},
						{
							"indexed": false,
							"internalType": "uint256",
							"name": "eth_amount",
							"type": "uint256"
						}
					],
					"name": "Stack",
					"type": "event"
				},
				{
					"anonymous": false,
					"inputs": [
						{
							"indexed": true,
							"internalType": "address",
							"name": "from",
							"type": "address"
						},
						{
							"indexed": false,
							"internalType": "uint256",
							"name": "Meme_amount",
							"type": "uint256"
						},
						{
							"indexed": false,
							"internalType": "uint256",
							"name": "eth_amount",
							"type": "uint256"
						}
					],
					"name": "UnStack",
					"type": "event"
				},
				{
					"anonymous": false,
					"inputs": [
						{
							"indexed": false,
							"internalType": "address",
							"name": "account",
							"type": "address"
						}
					],
					"name": "Unpaused",
					"type": "event"
				},
				{
					"inputs": [
						{
							"internalType": "uint256",
							"name": "meme_amount",
							"type": "uint256"
						}
					],
					"name": "buy",
					"outputs": [],
					"stateMutability": "payable",
					"type": "function"
				},
				{
					"inputs": [
						{
							"internalType": "uint256",
							"name": "eth_amount",
							"type": "uint256"
						}
					],
					"name": "getETHPrice",
					"outputs": [
						{
							"internalType": "uint256",
							"name": "",
							"type": "uint256"
						}
					],
					"stateMutability": "view",
					"type": "function"
				},
				{
					"inputs": [
						{
							"internalType": "uint256",
							"name": "meme_amount",
							"type": "uint256"
						}
					],
					"name": "getMemePrice",
					"outputs": [
						{
							"internalType": "uint256",
							"name": "",
							"type": "uint256"
						}
					],
					"stateMutability": "view",
					"type": "function"
				},
				{
					"inputs": [],
					"name": "getStacks",
					"outputs": [
						{
							"components": [
								{
									"internalType": "uint256",
									"name": "meme_amount",
									"type": "uint256"
								},
								{
									"internalType": "uint256",
									"name": "eth_amount",
									"type": "uint256"
								},
								{
									"internalType": "uint256",
									"name": "time",
									"type": "uint256"
								}
							],
							"internalType": "struct DEX.Stack_Struct[]",
							"name": "",
							"type": "tuple[]"
						}
					],
					"stateMutability": "view",
					"type": "function"
				},
				{
					"inputs": [],
					"name": "owner",
					"outputs": [
						{
							"internalType": "address",
							"name": "",
							"type": "address"
						}
					],
					"stateMutability": "view",
					"type": "function"
				},
				{
					"inputs": [],
					"name": "pause",
					"outputs": [],
					"stateMutability": "nonpayable",
					"type": "function"
				},
				{
					"inputs": [],
					"name": "paused",
					"outputs": [
						{
							"internalType": "bool",
							"name": "",
							"type": "bool"
						}
					],
					"stateMutability": "view",
					"type": "function"
				},
				{
					"inputs": [],
					"name": "renounceOwnership",
					"outputs": [],
					"stateMutability": "nonpayable",
					"type": "function"
				},
				{
					"inputs": [
						{
							"internalType": "uint256",
							"name": "eth_amount",
							"type": "uint256"
						}
					],
					"name": "sell",
					"outputs": [],
					"stateMutability": "nonpayable",
					"type": "function"
				},
				{
					"inputs": [
						{
							"internalType": "uint256",
							"name": "meme_amount",
							"type": "uint256"
						}
					],
					"name": "stack",
					"outputs": [],
					"stateMutability": "payable",
					"type": "function"
				},
				{
					"inputs": [],
					"name": "stackingRate",
					"outputs": [
						{
							"internalType": "uint256",
							"name": "",
							"type": "uint256"
						}
					],
					"stateMutability": "view",
					"type": "function"
				},
				{
					"inputs": [
						{
							"internalType": "address",
							"name": "newOwner",
							"type": "address"
						}
					],
					"name": "transferOwnership",
					"outputs": [],
					"stateMutability": "nonpayable",
					"type": "function"
				},
				{
					"inputs": [],
					"name": "unpause",
					"outputs": [],
					"stateMutability": "nonpayable",
					"type": "function"
				},
				{
					"inputs": [
						{
							"internalType": "uint256",
							"name": "index",
							"type": "uint256"
						}
					],
					"name": "unstack",
					"outputs": [],
					"stateMutability": "nonpayable",
					"type": "function"
				}
			],
			"devdoc": {
				"events": {
					"Paused(address)": {
						"details": "Emitted when the pause is triggered by `account`."
					},
					"Unpaused(address)": {
						"details": "Emitted when the pause is lifted by `account`."
					}
				},
				"kind": "dev",
				"methods": {
					"owner()": {
						"details": "Returns the address of the current owner."
					},
					"paused()": {
						"details": "Returns true if the contract is paused, and false otherwise."
					},
					"renounceOwnership()": {
						"details": "Leaves the contract without owner. It will not be possible to call `onlyOwner` functions. Can only be called by the current owner. NOTE: Renouncing ownership will leave the contract without an owner, thereby disabling any functionality that is only available to the owner."
					},
					"transferOwnership(address)": {
						"details": "Transfers ownership of the contract to a new account (`newOwner`). Can only be called by the current owner."
					}
				},
				"version": 1
			},
			"evm": {
				"assembly": "    /* \"DEX.sol\":243:7791  contract DEX is Pausable, Ownable {... */\n  mstore(0x40, 0x80)\n    /* \"DEX.sol\":1010:1015  10e18 */\n  0x8ac7230489e80000\n    /* \"DEX.sol\":981:1015  uint256 internal precision = 10e18 */\n  0x08\n  sstore\n    /* \"DEX.sol\":1067:1069  10 */\n  0x0a\n    /* \"DEX.sol\":1054:1063  precision */\n  sload(0x08)\n    /* \"DEX.sol\":1050:1051  3 */\n  0x03\n    /* \"DEX.sol\":1050:1063  3 * precision */\n  tag_1\n  swap2\n  swap1\n  tag_2\n  jump\t// in\ntag_1:\n    /* \"DEX.sol\":1049:1069  (3 * precision) / 10 */\n  tag_3\n  swap2\n  swap1\n  tag_4\n  jump\t// in\ntag_3:\n    /* \"DEX.sol\":1022:1069  uint256 internal taxRate = (3 * precision) / 10 */\n  0x09\n  sstore\n    /* \"DEX.sol\":1076:1175  constructor(address addr) {... */\n  callvalue\n  dup1\n  iszero\n  tag_5\n  jumpi\n  0x00\n  dup1\n  revert\ntag_5:\n  pop\n  mload(0x40)\n  sub(codesize, bytecodeSize)\n  dup1\n  bytecodeSize\n  dup4\n  codecopy\n  dup2\n  add\n  0x40\n  dup2\n  swap1\n  mstore\n  tag_6\n  swap2\n  tag_7\n  jump\t// in\ntag_6:\n    /* \"@openzeppelin/contracts/security/Pausable.sol\":1006:1011  false */\n  0x00\n    /* \"@openzeppelin/contracts/security/Pausable.sol\":996:1011  _paused = false */\n  dup1\n  sload\n  not(0xff)\n  and\n  swap1\n  sstore\n    /* \"@openzeppelin/contracts/access/Ownable.sol\":936:968  _transferOwnership(_msgSender()) */\n  tag_13\n    /* \"@openzeppelin/contracts/utils/Context.sol\":719:729  msg.sender */\n  caller\n    /* \"@openzeppelin/contracts/access/Ownable.sol\":936:954  _transferOwnership */\n  tag_16\n    /* \"@openzeppelin/contracts/access/Ownable.sol\":936:968  _transferOwnership(_msgSender()) */\n  jump\t// in\ntag_13:\n    /* \"DEX.sol\":1112:1116  meme */\n  0x01\n    /* \"DEX.sol\":1112:1129  meme = MEME(addr) */\n  dup1\n  sload\n  not(sub(shl(0xa0, 0x01), 0x01))\n  and\n  sub(shl(0xa0, 0x01), 0x01)\n  swap3\n  swap1\n  swap3\n  and\n  swap2\n  swap1\n  swap2\n  or\n  swap1\n  sstore\n    /* \"DEX.sol\":243:7791  contract DEX is Pausable, Ownable {... */\n  jump(tag_21)\n    /* \"@openzeppelin/contracts/access/Ownable.sol\":2426:2613  function _transferOwnership(address newOwner) internal virtual {... */\ntag_16:\n    /* \"@openzeppelin/contracts/access/Ownable.sol\":2499:2515  address oldOwner */\n  0x00\n    /* \"@openzeppelin/contracts/access/Ownable.sol\":2518:2524  _owner */\n  dup1\n  sload\n  sub(shl(0xa0, 0x01), 0x01)\n    /* \"@openzeppelin/contracts/access/Ownable.sol\":2534:2551  _owner = newOwner */\n  dup4\n  dup2\n  and\n    /* \"@openzeppelin/contracts/access/Ownable.sol\":2518:2524  _owner */\n  0x0100\n    /* \"@openzeppelin/contracts/access/Ownable.sol\":2534:2551  _owner = newOwner */\n  dup2\n  dup2\n  mul\n  not(sub(shl(0xa8, 0x01), 0x0100))\n  dup6\n  and\n  or\n  dup6\n  sstore\n    /* \"@openzeppelin/contracts/access/Ownable.sol\":2566:2606  OwnershipTransferred(oldOwner, newOwner) */\n  mload(0x40)\n    /* \"@openzeppelin/contracts/access/Ownable.sol\":2518:2524  _owner */\n  swap4\n  div\n  swap2\n  swap1\n  swap2\n  and\n  swap3\n    /* \"@openzeppelin/contracts/access/Ownable.sol\":2534:2551  _owner = newOwner */\n  swap1\n  swap2\n    /* \"@openzeppelin/contracts/access/Ownable.sol\":2518:2524  _owner */\n  dup4\n  swap2\n    /* \"@openzeppelin/contracts/access/Ownable.sol\":2566:2606  OwnershipTransferred(oldOwner, newOwner) */\n  0x8be0079c531659141344cd1fd0a4f28419497f9722a3daafe3b4186f6b6457e0\n  swap2\n  log3\n    /* \"@openzeppelin/contracts/access/Ownable.sol\":2489:2613  {... */\n  pop\n    /* \"@openzeppelin/contracts/access/Ownable.sol\":2426:2613  function _transferOwnership(address newOwner) internal virtual {... */\n  pop\n  jump\t// out\n    /* \"#utility.yul\":14:279   */\ntag_2:\n    /* \"#utility.yul\":87:96   */\n  dup1\n  dup3\n  mul\n    /* \"#utility.yul\":118:127   */\n  dup2\n  iszero\n    /* \"#utility.yul\":135:150   */\n  dup3\n  dup3\n  div\n    /* \"#utility.yul\":129:151   */\n  dup5\n  eq\n    /* \"#utility.yul\":115:152   */\n  or\n    /* \"#utility.yul\":105:273   */\n  tag_23\n  jumpi\n    /* \"#utility.yul\":195:205   */\n  0x4e487b71\n    /* \"#utility.yul\":190:193   */\n  0xe0\n    /* \"#utility.yul\":186:206   */\n  shl\n    /* \"#utility.yul\":183:184   */\n  0x00\n    /* \"#utility.yul\":176:207   */\n  mstore\n    /* \"#utility.yul\":230:234   */\n  0x11\n    /* \"#utility.yul\":227:228   */\n  0x04\n    /* \"#utility.yul\":220:235   */\n  mstore\n    /* \"#utility.yul\":258:262   */\n  0x24\n    /* \"#utility.yul\":255:256   */\n  0x00\n    /* \"#utility.yul\":248:263   */\n  revert\n    /* \"#utility.yul\":105:273   */\ntag_23:\n    /* \"#utility.yul\":14:279   */\n  swap3\n  swap2\n  pop\n  pop\n  jump\t// out\n    /* \"#utility.yul\":284:501   */\ntag_4:\n    /* \"#utility.yul\":324:325   */\n  0x00\n    /* \"#utility.yul\":350:351   */\n  dup3\n    /* \"#utility.yul\":340:472   */\n  tag_25\n  jumpi\n    /* \"#utility.yul\":394:404   */\n  0x4e487b71\n    /* \"#utility.yul\":389:392   */\n  0xe0\n    /* \"#utility.yul\":385:405   */\n  shl\n    /* \"#utility.yul\":382:383   */\n  0x00\n    /* \"#utility.yul\":375:406   */\n  mstore\n    /* \"#utility.yul\":429:433   */\n  0x12\n    /* \"#utility.yul\":426:427   */\n  0x04\n    /* \"#utility.yul\":419:434   */\n  mstore\n    /* \"#utility.yul\":457:461   */\n  0x24\n    /* \"#utility.yul\":454:455   */\n  0x00\n    /* \"#utility.yul\":447:462   */\n  revert\n    /* \"#utility.yul\":340:472   */\ntag_25:\n  pop\n    /* \"#utility.yul\":486:495   */\n  div\n  swap1\n    /* \"#utility.yul\":284:501   */\n  jump\t// out\n    /* \"#utility.yul\":506:796   */\ntag_7:\n    /* \"#utility.yul\":576:582   */\n  0x00\n    /* \"#utility.yul\":629:631   */\n  0x20\n    /* \"#utility.yul\":617:626   */\n  dup3\n    /* \"#utility.yul\":608:615   */\n  dup5\n    /* \"#utility.yul\":604:627   */\n  sub\n    /* \"#utility.yul\":600:632   */\n  slt\n    /* \"#utility.yul\":597:649   */\n  iszero\n  tag_27\n  jumpi\n    /* \"#utility.yul\":645:646   */\n  0x00\n    /* \"#utility.yul\":642:643   */\n  dup1\n    /* \"#utility.yul\":635:647   */\n  revert\n    /* \"#utility.yul\":597:649   */\ntag_27:\n    /* \"#utility.yul\":671:687   */\n  dup2\n  mload\n  sub(shl(0xa0, 0x01), 0x01)\n    /* \"#utility.yul\":716:747   */\n  dup2\n  and\n    /* \"#utility.yul\":706:748   */\n  dup2\n  eq\n    /* \"#utility.yul\":696:766   */\n  tag_28\n  jumpi\n    /* \"#utility.yul\":762:763   */\n  0x00\n    /* \"#utility.yul\":759:760   */\n  dup1\n    /* \"#utility.yul\":752:764   */\n  revert\n    /* \"#utility.yul\":696:766   */\ntag_28:\n    /* \"#utility.yul\":785:790   */\n  swap4\n    /* \"#utility.yul\":506:796   */\n  swap3\n  pop\n  pop\n  pop\n  jump\t// out\ntag_21:\n    /* \"DEX.sol\":243:7791  contract DEX is Pausable, Ownable {... */\n  dataSize(sub_0)\n  dup1\n  dataOffset(sub_0)\n  0x00\n  codecopy\n  0x00\n  return\nstop\n\nsub_0: assembly {\n        /* \"DEX.sol\":243:7791  contract DEX is Pausable, Ownable {... */\n      mstore(0x40, 0x80)\n      jumpi(tag_1, lt(calldatasize, 0x04))\n      shr(0xe0, calldataload(0x00))\n      dup1\n      0x8da5cb5b\n      gt\n      tag_16\n      jumpi\n      dup1\n      0xdc9031c4\n      gt\n      tag_17\n      jumpi\n      dup1\n      0xdc9031c4\n      eq\n      tag_12\n      jumpi\n      dup1\n      0xe4849b32\n      eq\n      tag_13\n      jumpi\n      dup1\n      0xe8bca8b8\n      eq\n      tag_14\n      jumpi\n      dup1\n      0xf2fde38b\n      eq\n      tag_15\n      jumpi\n      0x00\n      dup1\n      revert\n    tag_17:\n      dup1\n      0x8da5cb5b\n      eq\n      tag_9\n      jumpi\n      dup1\n      0x9c74f05d\n      eq\n      tag_10\n      jumpi\n      dup1\n      0xd96a094a\n      eq\n      tag_11\n      jumpi\n      0x00\n      dup1\n      revert\n    tag_16:\n      dup1\n      0x5c572ed0\n      gt\n      tag_18\n      jumpi\n      dup1\n      0x5c572ed0\n      eq\n      tag_5\n      jumpi\n      dup1\n      0x5c975abb\n      eq\n      tag_6\n      jumpi\n      dup1\n      0x715018a6\n      eq\n      tag_7\n      jumpi\n      dup1\n      0x8456cb59\n      eq\n      tag_8\n      jumpi\n      0x00\n      dup1\n      revert\n    tag_18:\n      dup1\n      0x1a753fed\n      eq\n      tag_2\n      jumpi\n      dup1\n      0x200061df\n      eq\n      tag_3\n      jumpi\n      dup1\n      0x3f4ba83a\n      eq\n      tag_4\n      jumpi\n    tag_1:\n      0x00\n      dup1\n      revert\n        /* \"DEX.sol\":5519:6172  function getETHPrice(uint256 eth_amount) public whenNotPaused view returns (uint256) {... */\n    tag_2:\n      callvalue\n      dup1\n      iszero\n      tag_19\n      jumpi\n      0x00\n      dup1\n      revert\n    tag_19:\n      pop\n      tag_20\n      tag_21\n      calldatasize\n      0x04\n      tag_22\n      jump\t// in\n    tag_21:\n      tag_23\n      jump\t// in\n    tag_20:\n      mload(0x40)\n        /* \"#utility.yul\":345:370   */\n      swap1\n      dup2\n      mstore\n        /* \"#utility.yul\":333:335   */\n      0x20\n        /* \"#utility.yul\":318:336   */\n      add\n        /* \"DEX.sol\":5519:6172  function getETHPrice(uint256 eth_amount) public whenNotPaused view returns (uint256) {... */\n    tag_24:\n      mload(0x40)\n      dup1\n      swap2\n      sub\n      swap1\n      return\n        /* \"DEX.sol\":1842:1985  function unstack(uint256 index) public whenNotPaused{... */\n    tag_3:\n      callvalue\n      dup1\n      iszero\n      tag_26\n      jumpi\n      0x00\n      dup1\n      revert\n    tag_26:\n      pop\n      tag_27\n      tag_28\n      calldatasize\n      0x04\n      tag_22\n      jump\t// in\n    tag_28:\n      tag_29\n      jump\t// in\n    tag_27:\n      stop\n        /* \"DEX.sol\":1246:1309  function unpause() public onlyOwner {... */\n    tag_4:\n      callvalue\n      dup1\n      iszero\n      tag_30\n      jumpi\n      0x00\n      dup1\n      revert\n    tag_30:\n      pop\n      tag_27\n      tag_32\n      jump\t// in\n        /* \"DEX.sol\":4864:5513  function getMemePrice(uint256 meme_amount) public whenNotPaused view returns (uint256) {... */\n    tag_5:\n      callvalue\n      dup1\n      iszero\n      tag_33\n      jumpi\n      0x00\n      dup1\n      revert\n    tag_33:\n      pop\n      tag_20\n      tag_35\n      calldatasize\n      0x04\n      tag_22\n      jump\t// in\n    tag_35:\n      tag_36\n      jump\t// in\n        /* \"@openzeppelin/contracts/security/Pausable.sol\":1615:1699  function paused() public view virtual returns (bool) {... */\n    tag_6:\n      callvalue\n      dup1\n      iszero\n      tag_38\n      jumpi\n      0x00\n      dup1\n      revert\n    tag_38:\n      pop\n        /* \"@openzeppelin/contracts/security/Pausable.sol\":1662:1666  bool */\n      0x00\n        /* \"@openzeppelin/contracts/security/Pausable.sol\":1685:1692  _paused */\n      sload\n      0xff\n      and\n        /* \"@openzeppelin/contracts/security/Pausable.sol\":1615:1699  function paused() public view virtual returns (bool) {... */\n      mload(0x40)\n        /* \"#utility.yul\":546:560   */\n      swap1\n      iszero\n        /* \"#utility.yul\":539:561   */\n      iszero\n        /* \"#utility.yul\":521:562   */\n      dup2\n      mstore\n        /* \"#utility.yul\":509:511   */\n      0x20\n        /* \"#utility.yul\":494:512   */\n      add\n        /* \"@openzeppelin/contracts/security/Pausable.sol\":1615:1699  function paused() public view virtual returns (bool) {... */\n      tag_24\n        /* \"#utility.yul\":381:568   */\n      jump\n        /* \"@openzeppelin/contracts/access/Ownable.sol\":1824:1925  function renounceOwnership() public virtual onlyOwner {... */\n    tag_7:\n      callvalue\n      dup1\n      iszero\n      tag_43\n      jumpi\n      0x00\n      dup1\n      revert\n    tag_43:\n      pop\n      tag_27\n      tag_45\n      jump\t// in\n        /* \"DEX.sol\":1181:1240  function pause() public onlyOwner {... */\n    tag_8:\n      callvalue\n      dup1\n      iszero\n      tag_46\n      jumpi\n      0x00\n      dup1\n      revert\n    tag_46:\n      pop\n      tag_27\n      tag_48\n      jump\t// in\n        /* \"@openzeppelin/contracts/access/Ownable.sol\":1201:1286  function owner() public view virtual returns (address) {... */\n    tag_9:\n      callvalue\n      dup1\n      iszero\n      tag_49\n      jumpi\n      0x00\n      dup1\n      revert\n    tag_49:\n      pop\n        /* \"@openzeppelin/contracts/access/Ownable.sol\":1247:1254  address */\n      0x00\n        /* \"@openzeppelin/contracts/access/Ownable.sol\":1273:1279  _owner */\n      sload\n      0x0100\n      swap1\n      div\n      sub(shl(0xa0, 0x01), 0x01)\n      and\n        /* \"@openzeppelin/contracts/access/Ownable.sol\":1201:1286  function owner() public view virtual returns (address) {... */\n      mload(0x40)\n      sub(shl(0xa0, 0x01), 0x01)\n        /* \"#utility.yul\":737:769   */\n      swap1\n      swap2\n      and\n        /* \"#utility.yul\":719:770   */\n      dup2\n      mstore\n        /* \"#utility.yul\":707:709   */\n      0x20\n        /* \"#utility.yul\":692:710   */\n      add\n        /* \"@openzeppelin/contracts/access/Ownable.sol\":1201:1286  function owner() public view virtual returns (address) {... */\n      tag_24\n        /* \"#utility.yul\":573:776   */\n      jump\n        /* \"DEX.sol\":871:898  uint256 public stackingRate */\n    tag_10:\n      callvalue\n      dup1\n      iszero\n      tag_54\n      jumpi\n      0x00\n      dup1\n      revert\n    tag_54:\n      pop\n      tag_20\n      sload(0x04)\n      dup2\n      jump\n        /* \"DEX.sol\":6178:6756  function buy(uint256 meme_amount) public whenNotPaused payable {... */\n    tag_11:\n      tag_27\n      tag_59\n      calldatasize\n      0x04\n      tag_22\n      jump\t// in\n    tag_59:\n      tag_60\n      jump\t// in\n        /* \"DEX.sol\":1493:1836  function stack(uint256 meme_amount) public payable whenNotPaused{... */\n    tag_12:\n      tag_27\n      tag_62\n      calldatasize\n      0x04\n      tag_22\n      jump\t// in\n    tag_62:\n      tag_63\n      jump\t// in\n        /* \"DEX.sol\":6762:7356  function sell(uint256 eth_amount) public whenNotPaused{... */\n    tag_13:\n      callvalue\n      dup1\n      iszero\n      tag_64\n      jumpi\n      0x00\n      dup1\n      revert\n    tag_64:\n      pop\n      tag_27\n      tag_66\n      calldatasize\n      0x04\n      tag_22\n      jump\t// in\n    tag_66:\n      tag_67\n      jump\t// in\n        /* \"DEX.sol\":1379:1487  function getStacks() public view returns (Stack_Struct[] memory) {... */\n    tag_14:\n      callvalue\n      dup1\n      iszero\n      tag_68\n      jumpi\n      0x00\n      dup1\n      revert\n    tag_68:\n      pop\n      tag_69\n      tag_70\n      jump\t// in\n    tag_69:\n      mload(0x40)\n      tag_24\n      swap2\n      swap1\n      tag_72\n      jump\t// in\n        /* \"@openzeppelin/contracts/access/Ownable.sol\":2074:2272  function transferOwnership(address newOwner) public virtual onlyOwner {... */\n    tag_15:\n      callvalue\n      dup1\n      iszero\n      tag_73\n      jumpi\n      0x00\n      dup1\n      revert\n    tag_73:\n      pop\n      tag_27\n      tag_75\n      calldatasize\n      0x04\n      tag_76\n      jump\t// in\n    tag_75:\n      tag_77\n      jump\t// in\n        /* \"DEX.sol\":5519:6172  function getETHPrice(uint256 eth_amount) public whenNotPaused view returns (uint256) {... */\n    tag_23:\n        /* \"DEX.sol\":5595:5602  uint256 */\n      0x00\n        /* \"@openzeppelin/contracts/security/Pausable.sol\":1239:1258  _requireNotPaused() */\n      tag_79\n        /* \"@openzeppelin/contracts/security/Pausable.sol\":1239:1256  _requireNotPaused */\n      tag_80\n        /* \"@openzeppelin/contracts/security/Pausable.sol\":1239:1258  _requireNotPaused() */\n      jump\t// in\n    tag_79:\n        /* \"DEX.sol\":5627:5628  0 */\n      0x00\n        /* \"DEX.sol\":5622:5624  _k */\n      sload(0x05)\n        /* \"DEX.sol\":5622:5628  _k > 0 */\n      gt\n        /* \"DEX.sol\":5614:5653  require(_k > 0, \"Not enough liquidity\") */\n      tag_82\n      jumpi\n      mload(0x40)\n      shl(0xe5, 0x461bcd)\n      dup2\n      mstore\n        /* \"#utility.yul\":2130:2132   */\n      0x20\n        /* \"DEX.sol\":5614:5653  require(_k > 0, \"Not enough liquidity\") */\n      0x04\n      dup3\n      add\n        /* \"#utility.yul\":2112:2133   */\n      mstore\n        /* \"#utility.yul\":2169:2171   */\n      0x14\n        /* \"#utility.yul\":2149:2167   */\n      0x24\n      dup3\n      add\n        /* \"#utility.yul\":2142:2172   */\n      mstore\n      shl(0x60, 0x4e6f7420656e6f756768206c6971756964697479)\n        /* \"#utility.yul\":2188:2206   */\n      0x44\n      dup3\n      add\n        /* \"#utility.yul\":2181:2231   */\n      mstore\n        /* \"#utility.yul\":2248:2266   */\n      0x64\n      add\n        /* \"DEX.sol\":5614:5653  require(_k > 0, \"Not enough liquidity\") */\n    tag_83:\n      mload(0x40)\n      dup1\n      swap2\n      sub\n      swap1\n      revert\n    tag_82:\n        /* \"DEX.sol\":5663:5673  uint256 dx */\n      0x00\n        /* \"DEX.sol\":5687:5697  uint256 dy */\n      dup1\n        /* \"DEX.sol\":5715:5717  _x */\n      sload(0x06)\n        /* \"DEX.sol\":5721:5722  0 */\n      0x00\n        /* \"DEX.sol\":5715:5722  _x == 0 */\n      sub\n        /* \"DEX.sol\":5711:5829  if (_x == 0) {... */\n      tag_85\n      jumpi\n        /* \"DEX.sol\":5752:5762  eth_amount */\n      dup4\n        /* \"DEX.sol\":5748:5749  1 */\n      0x01\n        /* \"DEX.sol\":5743:5745  _k */\n      sload(0x05)\n        /* \"DEX.sol\":5743:5749  _k / 1 */\n      tag_86\n      swap2\n      swap1\n      tag_87\n      jump\t// in\n    tag_86:\n        /* \"DEX.sol\":5743:5762  _k / 1 - eth_amount */\n      tag_88\n      swap2\n      swap1\n      tag_89\n      jump\t// in\n    tag_88:\n        /* \"DEX.sol\":5738:5762  dy = _k / 1 - eth_amount */\n      swap1\n      pop\n        /* \"DEX.sol\":5711:5829  if (_x == 0) {... */\n      jump(tag_90)\n    tag_85:\n        /* \"DEX.sol\":5808:5818  eth_amount */\n      dup4\n        /* \"DEX.sol\":5803:5805  _x */\n      sload(0x06)\n        /* \"DEX.sol\":5798:5800  _k */\n      sload(0x05)\n        /* \"DEX.sol\":5798:5805  _k / _x */\n      tag_91\n      swap2\n      swap1\n      tag_87\n      jump\t// in\n    tag_91:\n        /* \"DEX.sol\":5798:5818  _k / _x - eth_amount */\n      tag_92\n      swap2\n      swap1\n      tag_89\n      jump\t// in\n    tag_92:\n        /* \"DEX.sol\":5793:5818  dy = _k / _x - eth_amount */\n      swap1\n      pop\n        /* \"DEX.sol\":5711:5829  if (_x == 0) {... */\n    tag_90:\n        /* \"DEX.sol\":5842:5844  dy */\n      dup1\n        /* \"DEX.sol\":5848:5849  0 */\n      0x00\n        /* \"DEX.sol\":5842:5849  dy == 0 */\n      sub\n        /* \"DEX.sol\":5838:5930  if (dy == 0) {... */\n      tag_93\n      jumpi\n        /* \"DEX.sol\":5875:5876  1 */\n      0x01\n        /* \"DEX.sol\":5870:5872  _k */\n      sload(0x05)\n        /* \"DEX.sol\":5870:5876  _k / 1 */\n      tag_94\n      swap2\n      swap1\n      tag_87\n      jump\t// in\n    tag_94:\n        /* \"DEX.sol\":5865:5876  dx = _k / 1 */\n      swap2\n      pop\n        /* \"DEX.sol\":5838:5930  if (dy == 0) {... */\n      jump(tag_95)\n    tag_93:\n        /* \"DEX.sol\":5917:5919  dy */\n      dup1\n        /* \"DEX.sol\":5912:5914  _k */\n      sload(0x05)\n        /* \"DEX.sol\":5912:5919  _k / dy */\n      tag_96\n      swap2\n      swap1\n      tag_87\n      jump\t// in\n    tag_96:\n        /* \"DEX.sol\":5907:5919  dx = _k / dy */\n      swap2\n      pop\n        /* \"DEX.sol\":5838:5930  if (dy == 0) {... */\n    tag_95:\n        /* \"DEX.sol\":5939:5969  uint256 meme_price_without_tax */\n      0x00\n        /* \"DEX.sol\":5977:5979  _x */\n      sload(0x06)\n        /* \"DEX.sol\":5972:5974  dx */\n      dup4\n        /* \"DEX.sol\":5972:5979  dx - _x */\n      tag_97\n      swap2\n      swap1\n      tag_89\n      jump\t// in\n    tag_97:\n        /* \"DEX.sol\":5939:5979  uint256 meme_price_without_tax = dx - _x */\n      swap1\n      pop\n        /* \"DEX.sol\":5989:6005  uint256 meme_tax */\n      0x00\n        /* \"DEX.sol\":6045:6054  precision */\n      sload(0x08)\n        /* \"DEX.sol\":6034:6041  taxRate */\n      sload(0x09)\n        /* \"DEX.sol\":6009:6031  meme_price_without_tax */\n      dup4\n        /* \"DEX.sol\":6009:6041  meme_price_without_tax * taxRate */\n      tag_98\n      swap2\n      swap1\n      tag_99\n      jump\t// in\n    tag_98:\n        /* \"DEX.sol\":6008:6054  (meme_price_without_tax * taxRate) / precision */\n      tag_100\n      swap2\n      swap1\n      tag_87\n      jump\t// in\n    tag_100:\n        /* \"DEX.sol\":5989:6054  uint256 meme_tax = (meme_price_without_tax * taxRate) / precision */\n      swap1\n      pop\n        /* \"DEX.sol\":6065:6092  uint256 meme_price_with_tax */\n      0x00\n        /* \"DEX.sol\":6095:6128  meme_price_without_tax + meme_tax */\n      tag_101\n        /* \"DEX.sol\":5989:6054  uint256 meme_tax = (meme_price_without_tax * taxRate) / precision */\n      dup3\n        /* \"DEX.sol\":6095:6117  meme_price_without_tax */\n      dup5\n        /* \"DEX.sol\":6095:6128  meme_price_without_tax + meme_tax */\n      tag_102\n      jump\t// in\n    tag_101:\n        /* \"DEX.sol\":6065:6128  uint256 meme_price_with_tax = meme_price_without_tax + meme_tax */\n      swap8\n        /* \"DEX.sol\":5519:6172  function getETHPrice(uint256 eth_amount) public whenNotPaused view returns (uint256) {... */\n      swap7\n      pop\n      pop\n      pop\n      pop\n      pop\n      pop\n      pop\n      jump\t// out\n        /* \"DEX.sol\":1842:1985  function unstack(uint256 index) public whenNotPaused{... */\n    tag_29:\n        /* \"@openzeppelin/contracts/security/Pausable.sol\":1239:1258  _requireNotPaused() */\n      tag_104\n        /* \"@openzeppelin/contracts/security/Pausable.sol\":1239:1256  _requireNotPaused */\n      tag_80\n        /* \"@openzeppelin/contracts/security/Pausable.sol\":1239:1258  _requireNotPaused() */\n      jump\t// in\n    tag_104:\n        /* \"DEX.sol\":1963:1978  _unstack(index) */\n      tag_109\n        /* \"DEX.sol\":1972:1977  index */\n      dup2\n        /* \"DEX.sol\":1963:1971  _unstack */\n      tag_110\n        /* \"DEX.sol\":1963:1978  _unstack(index) */\n      jump\t// in\n    tag_109:\n        /* \"DEX.sol\":1842:1985  function unstack(uint256 index) public whenNotPaused{... */\n      pop\n      jump\t// out\n        /* \"DEX.sol\":1246:1309  function unpause() public onlyOwner {... */\n    tag_32:\n        /* \"@openzeppelin/contracts/access/Ownable.sol\":1094:1107  _checkOwner() */\n      tag_112\n        /* \"@openzeppelin/contracts/access/Ownable.sol\":1094:1105  _checkOwner */\n      tag_113\n        /* \"@openzeppelin/contracts/access/Ownable.sol\":1094:1107  _checkOwner() */\n      jump\t// in\n    tag_112:\n        /* \"DEX.sol\":1292:1302  _unpause() */\n      tag_115\n        /* \"DEX.sol\":1292:1300  _unpause */\n      tag_116\n        /* \"DEX.sol\":1292:1302  _unpause() */\n      jump\t// in\n    tag_115:\n        /* \"DEX.sol\":1246:1309  function unpause() public onlyOwner {... */\n      jump\t// out\n        /* \"DEX.sol\":4864:5513  function getMemePrice(uint256 meme_amount) public whenNotPaused view returns (uint256) {... */\n    tag_36:\n        /* \"DEX.sol\":4942:4949  uint256 */\n      0x00\n        /* \"@openzeppelin/contracts/security/Pausable.sol\":1239:1258  _requireNotPaused() */\n      tag_118\n        /* \"@openzeppelin/contracts/security/Pausable.sol\":1239:1256  _requireNotPaused */\n      tag_80\n        /* \"@openzeppelin/contracts/security/Pausable.sol\":1239:1258  _requireNotPaused() */\n      jump\t// in\n    tag_118:\n        /* \"DEX.sol\":4974:4975  0 */\n      0x00\n        /* \"DEX.sol\":4969:4971  _k */\n      sload(0x05)\n        /* \"DEX.sol\":4969:4975  _k > 0 */\n      gt\n        /* \"DEX.sol\":4961:5000  require(_k > 0, \"Not enough liquidity\") */\n      tag_120\n      jumpi\n      mload(0x40)\n      shl(0xe5, 0x461bcd)\n      dup2\n      mstore\n        /* \"#utility.yul\":2130:2132   */\n      0x20\n        /* \"DEX.sol\":4961:5000  require(_k > 0, \"Not enough liquidity\") */\n      0x04\n      dup3\n      add\n        /* \"#utility.yul\":2112:2133   */\n      mstore\n        /* \"#utility.yul\":2169:2171   */\n      0x14\n        /* \"#utility.yul\":2149:2167   */\n      0x24\n      dup3\n      add\n        /* \"#utility.yul\":2142:2172   */\n      mstore\n      shl(0x60, 0x4e6f7420656e6f756768206c6971756964697479)\n        /* \"#utility.yul\":2188:2206   */\n      0x44\n      dup3\n      add\n        /* \"#utility.yul\":2181:2231   */\n      mstore\n        /* \"#utility.yul\":2248:2266   */\n      0x64\n      add\n        /* \"DEX.sol\":4961:5000  require(_k > 0, \"Not enough liquidity\") */\n      tag_83\n        /* \"#utility.yul\":1928:2272   */\n      jump\n        /* \"DEX.sol\":4961:5000  require(_k > 0, \"Not enough liquidity\") */\n    tag_120:\n        /* \"DEX.sol\":5010:5020  uint256 dx */\n      0x00\n        /* \"DEX.sol\":5034:5044  uint256 dy */\n      dup1\n        /* \"DEX.sol\":5062:5064  _y */\n      sload(0x07)\n        /* \"DEX.sol\":5068:5069  0 */\n      0x00\n        /* \"DEX.sol\":5062:5069  _y == 0 */\n      sub\n        /* \"DEX.sol\":5058:5178  if (_y == 0) {... */\n      tag_122\n      jumpi\n        /* \"DEX.sol\":5099:5110  meme_amount */\n      dup4\n        /* \"DEX.sol\":5095:5096  1 */\n      0x01\n        /* \"DEX.sol\":5090:5092  _k */\n      sload(0x05)\n        /* \"DEX.sol\":5090:5096  _k / 1 */\n      tag_123\n      swap2\n      swap1\n      tag_87\n      jump\t// in\n    tag_123:\n        /* \"DEX.sol\":5090:5110  _k / 1 - meme_amount */\n      tag_124\n      swap2\n      swap1\n      tag_89\n      jump\t// in\n    tag_124:\n        /* \"DEX.sol\":5085:5110  dx = _k / 1 - meme_amount */\n      swap2\n      pop\n        /* \"DEX.sol\":5058:5178  if (_y == 0) {... */\n      jump(tag_125)\n    tag_122:\n        /* \"DEX.sol\":5156:5167  meme_amount */\n      dup4\n        /* \"DEX.sol\":5151:5153  _y */\n      sload(0x07)\n        /* \"DEX.sol\":5146:5148  _k */\n      sload(0x05)\n        /* \"DEX.sol\":5146:5153  _k / _y */\n      tag_126\n      swap2\n      swap1\n      tag_87\n      jump\t// in\n    tag_126:\n        /* \"DEX.sol\":5146:5167  _k / _y - meme_amount */\n      tag_127\n      swap2\n      swap1\n      tag_89\n      jump\t// in\n    tag_127:\n        /* \"DEX.sol\":5141:5167  dx = _k / _y - meme_amount */\n      swap2\n      pop\n        /* \"DEX.sol\":5058:5178  if (_y == 0) {... */\n    tag_125:\n        /* \"DEX.sol\":5191:5193  dx */\n      dup2\n        /* \"DEX.sol\":5197:5198  0 */\n      0x00\n        /* \"DEX.sol\":5191:5198  dx == 0 */\n      sub\n        /* \"DEX.sol\":5187:5279  if (dx == 0) {... */\n      tag_128\n      jumpi\n        /* \"DEX.sol\":5224:5225  1 */\n      0x01\n        /* \"DEX.sol\":5219:5221  _k */\n      sload(0x05)\n        /* \"DEX.sol\":5219:5225  _k / 1 */\n      tag_129\n      swap2\n      swap1\n      tag_87\n      jump\t// in\n    tag_129:\n        /* \"DEX.sol\":5214:5225  dy = _k / 1 */\n      swap1\n      pop\n        /* \"DEX.sol\":5187:5279  if (dx == 0) {... */\n      jump(tag_130)\n    tag_128:\n        /* \"DEX.sol\":5266:5268  dx */\n      dup2\n        /* \"DEX.sol\":5261:5263  _k */\n      sload(0x05)\n        /* \"DEX.sol\":5261:5268  _k / dx */\n      tag_131\n      swap2\n      swap1\n      tag_87\n      jump\t// in\n    tag_131:\n        /* \"DEX.sol\":5256:5268  dy = _k / dx */\n      swap1\n      pop\n        /* \"DEX.sol\":5187:5279  if (dx == 0) {... */\n    tag_130:\n        /* \"DEX.sol\":5288:5317  uint256 eth_price_without_tax */\n      0x00\n        /* \"DEX.sol\":5325:5327  _y */\n      sload(0x07)\n        /* \"DEX.sol\":5320:5322  dy */\n      dup3\n        /* \"DEX.sol\":5320:5327  dy - _y */\n      tag_97\n      swap2\n      swap1\n      tag_89\n      jump\t// in\n        /* \"@openzeppelin/contracts/access/Ownable.sol\":1824:1925  function renounceOwnership() public virtual onlyOwner {... */\n    tag_45:\n        /* \"@openzeppelin/contracts/access/Ownable.sol\":1094:1107  _checkOwner() */\n      tag_138\n        /* \"@openzeppelin/contracts/access/Ownable.sol\":1094:1105  _checkOwner */\n      tag_113\n        /* \"@openzeppelin/contracts/access/Ownable.sol\":1094:1107  _checkOwner() */\n      jump\t// in\n    tag_138:\n        /* \"@openzeppelin/contracts/access/Ownable.sol\":1888:1918  _transferOwnership(address(0)) */\n      tag_115\n        /* \"@openzeppelin/contracts/access/Ownable.sol\":1915:1916  0 */\n      0x00\n        /* \"@openzeppelin/contracts/access/Ownable.sol\":1888:1906  _transferOwnership */\n      tag_141\n        /* \"@openzeppelin/contracts/access/Ownable.sol\":1888:1918  _transferOwnership(address(0)) */\n      jump\t// in\n        /* \"DEX.sol\":1181:1240  function pause() public onlyOwner {... */\n    tag_48:\n        /* \"@openzeppelin/contracts/access/Ownable.sol\":1094:1107  _checkOwner() */\n      tag_143\n        /* \"@openzeppelin/contracts/access/Ownable.sol\":1094:1105  _checkOwner */\n      tag_113\n        /* \"@openzeppelin/contracts/access/Ownable.sol\":1094:1107  _checkOwner() */\n      jump\t// in\n    tag_143:\n        /* \"DEX.sol\":1225:1233  _pause() */\n      tag_115\n        /* \"DEX.sol\":1225:1231  _pause */\n      tag_146\n        /* \"DEX.sol\":1225:1233  _pause() */\n      jump\t// in\n        /* \"DEX.sol\":6178:6756  function buy(uint256 meme_amount) public whenNotPaused payable {... */\n    tag_60:\n        /* \"@openzeppelin/contracts/security/Pausable.sol\":1239:1258  _requireNotPaused() */\n      tag_149\n        /* \"@openzeppelin/contracts/security/Pausable.sol\":1239:1256  _requireNotPaused */\n      tag_80\n        /* \"@openzeppelin/contracts/security/Pausable.sol\":1239:1258  _requireNotPaused() */\n      jump\t// in\n    tag_149:\n        /* \"DEX.sol\":6273:6274  0 */\n      0x00\n        /* \"DEX.sol\":6259:6270  meme_amount */\n      dup2\n        /* \"DEX.sol\":6259:6274  meme_amount > 0 */\n      gt\n        /* \"DEX.sol\":6251:6293  require(meme_amount > 0, \"Send Some Meme\") */\n      tag_151\n      jumpi\n      mload(0x40)\n      shl(0xe5, 0x461bcd)\n      dup2\n      mstore\n        /* \"#utility.yul\":3624:3626   */\n      0x20\n        /* \"DEX.sol\":6251:6293  require(meme_amount > 0, \"Send Some Meme\") */\n      0x04\n      dup3\n      add\n        /* \"#utility.yul\":3606:3627   */\n      mstore\n        /* \"#utility.yul\":3663:3665   */\n      0x0e\n        /* \"#utility.yul\":3643:3661   */\n      0x24\n      dup3\n      add\n        /* \"#utility.yul\":3636:3666   */\n      mstore\n      shl(0x90, 0x53656e6420536f6d65204d656d65)\n        /* \"#utility.yul\":3682:3700   */\n      0x44\n      dup3\n      add\n        /* \"#utility.yul\":3675:3719   */\n      mstore\n        /* \"#utility.yul\":3736:3754   */\n      0x64\n      add\n        /* \"DEX.sol\":6251:6293  require(meme_amount > 0, \"Send Some Meme\") */\n      tag_83\n        /* \"#utility.yul\":3422:3760   */\n      jump\n        /* \"DEX.sol\":6251:6293  require(meme_amount > 0, \"Send Some Meme\") */\n    tag_151:\n        /* \"DEX.sol\":6303:6321  uint256 meme_price */\n      0x00\n        /* \"DEX.sol\":6324:6349  getMemePrice(meme_amount) */\n      tag_154\n        /* \"DEX.sol\":6337:6348  meme_amount */\n      dup3\n        /* \"DEX.sol\":6324:6336  getMemePrice */\n      tag_36\n        /* \"DEX.sol\":6324:6349  getMemePrice(meme_amount) */\n      jump\t// in\n    tag_154:\n        /* \"DEX.sol\":6303:6349  uint256 meme_price = getMemePrice(meme_amount) */\n      swap1\n      pop\n        /* \"DEX.sol\":6381:6390  msg.value */\n      callvalue\n        /* \"DEX.sol\":6367:6377  meme_price */\n      dup2\n        /* \"DEX.sol\":6367:6390  meme_price <= msg.value */\n      gt\n      iszero\n        /* \"DEX.sol\":6359:6408  require(meme_price <= msg.value, \"Send More ETH\") */\n      tag_155\n      jumpi\n      mload(0x40)\n      shl(0xe5, 0x461bcd)\n      dup2\n      mstore\n        /* \"#utility.yul\":3967:3969   */\n      0x20\n        /* \"DEX.sol\":6359:6408  require(meme_price <= msg.value, \"Send More ETH\") */\n      0x04\n      dup3\n      add\n        /* \"#utility.yul\":3949:3970   */\n      mstore\n        /* \"#utility.yul\":4006:4008   */\n      0x0d\n        /* \"#utility.yul\":3986:4004   */\n      0x24\n      dup3\n      add\n        /* \"#utility.yul\":3979:4009   */\n      mstore\n      shl(0x9b, 0x0a6cadcc8409adee4ca408aa89)\n        /* \"#utility.yul\":4025:4043   */\n      0x44\n      dup3\n      add\n        /* \"#utility.yul\":4018:4061   */\n      mstore\n        /* \"#utility.yul\":4078:4096   */\n      0x64\n      add\n        /* \"DEX.sol\":6359:6408  require(meme_price <= msg.value, \"Send More ETH\") */\n      tag_83\n        /* \"#utility.yul\":3765:4102   */\n      jump\n        /* \"DEX.sol\":6359:6408  require(meme_price <= msg.value, \"Send More ETH\") */\n    tag_155:\n        /* \"DEX.sol\":6419:6423  meme */\n      sload(0x01)\n        /* \"DEX.sol\":6419:6457  meme.transfer(msg.sender, meme_amount) */\n      mload(0x40)\n      shl(0xe0, 0xa9059cbb)\n      dup2\n      mstore\n        /* \"DEX.sol\":6433:6443  msg.sender */\n      caller\n        /* \"DEX.sol\":6419:6457  meme.transfer(msg.sender, meme_amount) */\n      0x04\n      dup3\n      add\n        /* \"#utility.yul\":4281:4332   */\n      mstore\n        /* \"#utility.yul\":4348:4366   */\n      0x24\n      dup2\n      add\n        /* \"#utility.yul\":4341:4375   */\n      dup5\n      swap1\n      mstore\n      sub(shl(0xa0, 0x01), 0x01)\n        /* \"DEX.sol\":6419:6423  meme */\n      swap1\n      swap2\n      and\n      swap1\n        /* \"DEX.sol\":6419:6432  meme.transfer */\n      0xa9059cbb\n      swap1\n        /* \"#utility.yul\":4254:4272   */\n      0x44\n      add\n        /* \"DEX.sol\":6419:6457  meme.transfer(msg.sender, meme_amount) */\n      0x20\n      mload(0x40)\n      dup1\n      dup4\n      sub\n      dup2\n      0x00\n      dup8\n      gas\n      call\n      iszero\n      dup1\n      iszero\n      tag_161\n      jumpi\n      returndatasize\n      0x00\n      dup1\n      returndatacopy\n      revert(0x00, returndatasize)\n    tag_161:\n      pop\n      pop\n      pop\n      pop\n      mload(0x40)\n      returndatasize\n      not(0x1f)\n      0x1f\n      dup3\n      add\n      and\n      dup3\n      add\n      dup1\n      0x40\n      mstore\n      pop\n      dup2\n      add\n      swap1\n      tag_162\n      swap2\n      swap1\n      tag_163\n      jump\t// in\n    tag_162:\n      pop\n        /* \"DEX.sol\":6475:6485  msg.sender */\n      caller\n        /* \"DEX.sol\":6467:6519  payable(msg.sender).transfer(msg.value - meme_price) */\n      0x08fc\n        /* \"DEX.sol\":6496:6518  msg.value - meme_price */\n      tag_164\n        /* \"DEX.sol\":6508:6518  meme_price */\n      dup4\n        /* \"DEX.sol\":6496:6505  msg.value */\n      callvalue\n        /* \"DEX.sol\":6496:6518  msg.value - meme_price */\n      tag_89\n      jump\t// in\n    tag_164:\n        /* \"DEX.sol\":6467:6519  payable(msg.sender).transfer(msg.value - meme_price) */\n      mload(0x40)\n      dup2\n      iszero\n      swap1\n      swap3\n      mul\n      swap2\n      0x00\n      dup2\n      dup2\n      dup2\n      dup6\n      dup9\n      dup9\n      call\n      swap4\n      pop\n      pop\n      pop\n      pop\n      iszero\n      dup1\n      iszero\n      tag_166\n      jumpi\n      returndatasize\n      0x00\n      dup1\n      returndatacopy\n      revert(0x00, returndatasize)\n    tag_166:\n      pop\n        /* \"DEX.sol\":6632:6641  precision */\n      sload(0x08)\n        /* \"DEX.sol\":6608:6615  taxRate */\n      sload(0x09)\n        /* \"DEX.sol\":6596:6615  precision + taxRate */\n      tag_167\n      swap1\n        /* \"DEX.sol\":6632:6641  precision */\n      dup3\n        /* \"DEX.sol\":6596:6615  precision + taxRate */\n      tag_102\n      jump\t// in\n    tag_167:\n        /* \"DEX.sol\":6581:6616  meme_amount * (precision + taxRate) */\n      tag_168\n      swap1\n        /* \"DEX.sol\":6581:6592  meme_amount */\n      dup5\n        /* \"DEX.sol\":6581:6616  meme_amount * (precision + taxRate) */\n      tag_99\n      jump\t// in\n    tag_168:\n        /* \"DEX.sol\":6580:6641  (meme_amount * (precision + taxRate)) /... */\n      tag_169\n      swap2\n      swap1\n      tag_87\n      jump\t// in\n    tag_169:\n        /* \"DEX.sol\":6530:6538  dailyTax */\n      0x03\n        /* \"DEX.sol\":6530:6564  dailyTax[block.timestamp / 1 days] */\n      0x00\n        /* \"DEX.sol\":6539:6563  block.timestamp / 1 days */\n      tag_170\n        /* \"DEX.sol\":6557:6563  1 days */\n      0x015180\n        /* \"DEX.sol\":6539:6554  block.timestamp */\n      timestamp\n        /* \"DEX.sol\":6539:6563  block.timestamp / 1 days */\n      tag_87\n      jump\t// in\n    tag_170:\n        /* \"DEX.sol\":6530:6564  dailyTax[block.timestamp / 1 days] */\n      dup2\n      mstore\n      0x20\n      add\n      swap1\n      dup2\n      mstore\n      0x20\n      add\n      0x00\n      keccak256\n      0x00\n        /* \"DEX.sol\":6530:6641  dailyTax[block.timestamp / 1 days] +=... */\n      dup3\n      dup3\n      sload\n      tag_171\n      swap2\n      swap1\n      tag_102\n      jump\t// in\n    tag_171:\n      swap3\n      pop\n      pop\n      dup2\n      swap1\n      sstore\n      pop\n        /* \"DEX.sol\":6658:6669  meme_amount */\n      dup2\n        /* \"DEX.sol\":6652:6654  _x */\n      0x06\n      0x00\n        /* \"DEX.sol\":6652:6669  _x -= meme_amount */\n      dup3\n      dup3\n      sload\n      tag_172\n      swap2\n      swap1\n      tag_89\n      jump\t// in\n    tag_172:\n      swap1\n      swap2\n      sstore\n      pop\n      pop\n        /* \"DEX.sol\":6690:6692  _x */\n      sload(0x06)\n        /* \"DEX.sol\":6685:6687  _k */\n      sload(0x05)\n        /* \"DEX.sol\":6685:6692  _k / _x */\n      tag_173\n      swap2\n        /* \"DEX.sol\":6690:6692  _x */\n      swap1\n        /* \"DEX.sol\":6685:6692  _k / _x */\n      tag_87\n      jump\t// in\n    tag_173:\n        /* \"DEX.sol\":6679:6681  _y */\n      0x07\n        /* \"DEX.sol\":6679:6693  _y = (_k / _x) */\n      sstore\n        /* \"DEX.sol\":6709:6749  Buy(msg.sender, meme_amount, meme_price) */\n      0x40\n      dup1\n      mload\n        /* \"#utility.yul\":4842:4867   */\n      dup4\n      dup2\n      mstore\n        /* \"#utility.yul\":4898:4900   */\n      0x20\n        /* \"#utility.yul\":4883:4901   */\n      dup2\n      add\n        /* \"#utility.yul\":4876:4910   */\n      dup4\n      swap1\n      mstore\n        /* \"DEX.sol\":6713:6723  msg.sender */\n      caller\n      swap2\n        /* \"DEX.sol\":6709:6749  Buy(msg.sender, meme_amount, meme_price) */\n      0x1cbc5ab135991bd2b6a4b034a04aa2aa086dac1371cb9b16b8b5e2ed6b036bed\n      swap2\n        /* \"#utility.yul\":4815:4833   */\n      add\n        /* \"DEX.sol\":6709:6749  Buy(msg.sender, meme_amount, meme_price) */\n    tag_174:\n      mload(0x40)\n      dup1\n      swap2\n      sub\n      swap1\n      log2\n        /* \"DEX.sol\":6241:6756  {... */\n      pop\n        /* \"DEX.sol\":6178:6756  function buy(uint256 meme_amount) public whenNotPaused payable {... */\n      pop\n      jump\t// out\n        /* \"DEX.sol\":1493:1836  function stack(uint256 meme_amount) public payable whenNotPaused{... */\n    tag_63:\n        /* \"@openzeppelin/contracts/security/Pausable.sol\":1239:1258  _requireNotPaused() */\n      tag_177\n        /* \"@openzeppelin/contracts/security/Pausable.sol\":1239:1256  _requireNotPaused */\n      tag_80\n        /* \"@openzeppelin/contracts/security/Pausable.sol\":1239:1258  _requireNotPaused() */\n      jump\t// in\n    tag_177:\n        /* \"DEX.sol\":1589:1590  0 */\n      0x00\n        /* \"DEX.sol\":1575:1586  meme_amount */\n      dup2\n        /* \"DEX.sol\":1575:1590  meme_amount > 0 */\n      gt\n        /* \"DEX.sol\":1567:1609  require(meme_amount > 0, \"Send more MEME\") */\n      tag_179\n      jumpi\n      mload(0x40)\n      shl(0xe5, 0x461bcd)\n      dup2\n      mstore\n        /* \"#utility.yul\":5123:5125   */\n      0x20\n        /* \"DEX.sol\":1567:1609  require(meme_amount > 0, \"Send more MEME\") */\n      0x04\n      dup3\n      add\n        /* \"#utility.yul\":5105:5126   */\n      mstore\n        /* \"#utility.yul\":5162:5164   */\n      0x0e\n        /* \"#utility.yul\":5142:5160   */\n      0x24\n      dup3\n      add\n        /* \"#utility.yul\":5135:5165   */\n      mstore\n      shl(0x90, 0x53656e64206d6f7265204d454d45)\n        /* \"#utility.yul\":5181:5199   */\n      0x44\n      dup3\n      add\n        /* \"#utility.yul\":5174:5218   */\n      mstore\n        /* \"#utility.yul\":5235:5253   */\n      0x64\n      add\n        /* \"DEX.sol\":1567:1609  require(meme_amount > 0, \"Send more MEME\") */\n      tag_83\n        /* \"#utility.yul\":4921:5259   */\n      jump\n        /* \"DEX.sol\":1567:1609  require(meme_amount > 0, \"Send more MEME\") */\n    tag_179:\n        /* \"DEX.sol\":1639:1640  0 */\n      0x00\n        /* \"DEX.sol\":1627:1636  msg.value */\n      callvalue\n        /* \"DEX.sol\":1627:1640  msg.value > 0 */\n      gt\n        /* \"DEX.sol\":1619:1658  require(msg.value > 0, \"Send more ETH\") */\n      tag_182\n      jumpi\n      mload(0x40)\n      shl(0xe5, 0x461bcd)\n      dup2\n      mstore\n        /* \"#utility.yul\":5466:5468   */\n      0x20\n        /* \"DEX.sol\":1619:1658  require(msg.value > 0, \"Send more ETH\") */\n      0x04\n      dup3\n      add\n        /* \"#utility.yul\":5448:5469   */\n      mstore\n        /* \"#utility.yul\":5505:5507   */\n      0x0d\n        /* \"#utility.yul\":5485:5503   */\n      0x24\n      dup3\n      add\n        /* \"#utility.yul\":5478:5508   */\n      mstore\n      shl(0x9b, 0x0a6cadcc840dadee4ca408aa89)\n        /* \"#utility.yul\":5524:5542   */\n      0x44\n      dup3\n      add\n        /* \"#utility.yul\":5517:5560   */\n      mstore\n        /* \"#utility.yul\":5577:5595   */\n      0x64\n      add\n        /* \"DEX.sol\":1619:1658  require(msg.value > 0, \"Send more ETH\") */\n      tag_83\n        /* \"#utility.yul\":5264:5601   */\n      jump\n        /* \"DEX.sol\":1619:1658  require(msg.value > 0, \"Send more ETH\") */\n    tag_182:\n        /* \"DEX.sol\":1731:1742  meme_amount */\n      dup1\n        /* \"DEX.sol\":1718:1727  precision */\n      sload(0x08)\n        /* \"DEX.sol\":1706:1715  msg.value */\n      callvalue\n        /* \"DEX.sol\":1706:1727  msg.value * precision */\n      tag_185\n      swap2\n      swap1\n      tag_99\n      jump\t// in\n    tag_185:\n        /* \"DEX.sol\":1705:1742  (msg.value * precision) / meme_amount */\n      tag_186\n      swap2\n      swap1\n      tag_87\n      jump\t// in\n    tag_186:\n        /* \"DEX.sol\":1689:1701  stackingRate */\n      sload(0x04)\n        /* \"DEX.sol\":1689:1742  stackingRate <= (msg.value * precision) / meme_amount */\n      gt\n      iszero\n        /* \"DEX.sol\":1668:1789  require(... */\n      tag_187\n      jumpi\n      mload(0x40)\n      shl(0xe5, 0x461bcd)\n      dup2\n      mstore\n        /* \"#utility.yul\":5808:5810   */\n      0x20\n        /* \"DEX.sol\":1668:1789  require(... */\n      0x04\n      dup3\n      add\n        /* \"#utility.yul\":5790:5811   */\n      mstore\n        /* \"#utility.yul\":5847:5849   */\n      0x15\n        /* \"#utility.yul\":5827:5845   */\n      0x24\n      dup3\n      add\n        /* \"#utility.yul\":5820:5850   */\n      mstore\n      shl(0x5a, 0x14dd1858dada5b99c814985d19481b9bdd081b595d)\n        /* \"#utility.yul\":5866:5884   */\n      0x44\n      dup3\n      add\n        /* \"#utility.yul\":5859:5910   */\n      mstore\n        /* \"#utility.yul\":5927:5945   */\n      0x64\n      add\n        /* \"DEX.sol\":1668:1789  require(... */\n      tag_83\n        /* \"#utility.yul\":5606:5951   */\n      jump\n        /* \"DEX.sol\":1668:1789  require(... */\n    tag_187:\n        /* \"DEX.sol\":1799:1829  _stack(meme_amount, msg.value) */\n      tag_109\n        /* \"DEX.sol\":1806:1817  meme_amount */\n      dup2\n        /* \"DEX.sol\":1819:1828  msg.value */\n      callvalue\n        /* \"DEX.sol\":1799:1805  _stack */\n      tag_191\n        /* \"DEX.sol\":1799:1829  _stack(meme_amount, msg.value) */\n      jump\t// in\n        /* \"DEX.sol\":6762:7356  function sell(uint256 eth_amount) public whenNotPaused{... */\n    tag_67:\n        /* \"@openzeppelin/contracts/security/Pausable.sol\":1239:1258  _requireNotPaused() */\n      tag_193\n        /* \"@openzeppelin/contracts/security/Pausable.sol\":1239:1256  _requireNotPaused */\n      tag_80\n        /* \"@openzeppelin/contracts/security/Pausable.sol\":1239:1258  _requireNotPaused() */\n      jump\t// in\n    tag_193:\n        /* \"DEX.sol\":6847:6848  0 */\n      0x00\n        /* \"DEX.sol\":6834:6844  eth_amount */\n      dup2\n        /* \"DEX.sol\":6834:6848  eth_amount > 0 */\n      gt\n        /* \"DEX.sol\":6826:6866  require(eth_amount > 0, \"Send Some ETH\") */\n      tag_195\n      jumpi\n      mload(0x40)\n      shl(0xe5, 0x461bcd)\n      dup2\n      mstore\n        /* \"#utility.yul\":6158:6160   */\n      0x20\n        /* \"DEX.sol\":6826:6866  require(eth_amount > 0, \"Send Some ETH\") */\n      0x04\n      dup3\n      add\n        /* \"#utility.yul\":6140:6161   */\n      mstore\n        /* \"#utility.yul\":6197:6199   */\n      0x0d\n        /* \"#utility.yul\":6177:6195   */\n      0x24\n      dup3\n      add\n        /* \"#utility.yul\":6170:6200   */\n      mstore\n      shl(0x9b, 0x0a6cadcc840a6dedaca408aa89)\n        /* \"#utility.yul\":6216:6234   */\n      0x44\n      dup3\n      add\n        /* \"#utility.yul\":6209:6252   */\n      mstore\n        /* \"#utility.yul\":6269:6287   */\n      0x64\n      add\n        /* \"DEX.sol\":6826:6866  require(eth_amount > 0, \"Send Some ETH\") */\n      tag_83\n        /* \"#utility.yul\":5956:6293   */\n      jump\n        /* \"DEX.sol\":6826:6866  require(eth_amount > 0, \"Send Some ETH\") */\n    tag_195:\n        /* \"DEX.sol\":6876:6893  uint256 eth_price */\n      0x00\n        /* \"DEX.sol\":6896:6919  getETHPrice(eth_amount) */\n      tag_198\n        /* \"DEX.sol\":6908:6918  eth_amount */\n      dup3\n        /* \"DEX.sol\":6896:6907  getETHPrice */\n      tag_23\n        /* \"DEX.sol\":6896:6919  getETHPrice(eth_amount) */\n      jump\t// in\n    tag_198:\n        /* \"DEX.sol\":6951:6955  meme */\n      sload(0x01)\n        /* \"DEX.sol\":6951:6977  meme.balanceOf(msg.sender) */\n      mload(0x40)\n      shl(0xe0, 0x70a08231)\n      dup2\n      mstore\n        /* \"DEX.sol\":6966:6976  msg.sender */\n      caller\n        /* \"DEX.sol\":6951:6977  meme.balanceOf(msg.sender) */\n      0x04\n      dup3\n      add\n        /* \"#utility.yul\":719:770   */\n      mstore\n        /* \"DEX.sol\":6876:6919  uint256 eth_price = getETHPrice(eth_amount) */\n      swap2\n      swap3\n      pop\n      sub(shl(0xa0, 0x01), 0x01)\n        /* \"DEX.sol\":6951:6955  meme */\n      and\n      swap1\n        /* \"DEX.sol\":6951:6965  meme.balanceOf */\n      0x70a08231\n      swap1\n        /* \"#utility.yul\":692:710   */\n      0x24\n      add\n        /* \"DEX.sol\":6951:6977  meme.balanceOf(msg.sender) */\n      0x20\n      mload(0x40)\n      dup1\n      dup4\n      sub\n      dup2\n      dup7\n      gas\n      staticcall\n      iszero\n      dup1\n      iszero\n      tag_201\n      jumpi\n      returndatasize\n      0x00\n      dup1\n      returndatacopy\n      revert(0x00, returndatasize)\n    tag_201:\n      pop\n      pop\n      pop\n      pop\n      mload(0x40)\n      returndatasize\n      not(0x1f)\n      0x1f\n      dup3\n      add\n      and\n      dup3\n      add\n      dup1\n      0x40\n      mstore\n      pop\n      dup2\n      add\n      swap1\n      tag_202\n      swap2\n      swap1\n      tag_203\n      jump\t// in\n    tag_202:\n        /* \"DEX.sol\":6938:6947  eth_price */\n      dup2\n        /* \"DEX.sol\":6938:6977  eth_price <= meme.balanceOf(msg.sender) */\n      gt\n      iszero\n        /* \"DEX.sol\":6930:7008  require(eth_price <= meme.balanceOf(msg.sender), \"You don't have enough meme\") */\n      tag_204\n      jumpi\n      mload(0x40)\n      shl(0xe5, 0x461bcd)\n      dup2\n      mstore\n        /* \"#utility.yul\":6689:6691   */\n      0x20\n        /* \"DEX.sol\":6930:7008  require(eth_price <= meme.balanceOf(msg.sender), \"You don't have enough meme\") */\n      0x04\n      dup3\n      add\n        /* \"#utility.yul\":6671:6692   */\n      mstore\n        /* \"#utility.yul\":6728:6730   */\n      0x1a\n        /* \"#utility.yul\":6708:6726   */\n      0x24\n      dup3\n      add\n        /* \"#utility.yul\":6701:6731   */\n      mstore\n        /* \"#utility.yul\":6767:6795   */\n      0x596f7520646f6e2774206861766520656e6f756768206d656d65000000000000\n        /* \"#utility.yul\":6747:6765   */\n      0x44\n      dup3\n      add\n        /* \"#utility.yul\":6740:6796   */\n      mstore\n        /* \"#utility.yul\":6813:6831   */\n      0x64\n      add\n        /* \"DEX.sol\":6930:7008  require(eth_price <= meme.balanceOf(msg.sender), \"You don't have enough meme\") */\n      tag_83\n        /* \"#utility.yul\":6487:6837   */\n      jump\n        /* \"DEX.sol\":6930:7008  require(eth_price <= meme.balanceOf(msg.sender), \"You don't have enough meme\") */\n    tag_204:\n        /* \"DEX.sol\":7018:7022  meme */\n      sload(0x01)\n        /* \"DEX.sol\":7018:7073  meme.transferFrom(msg.sender, address(this), eth_price) */\n      mload(0x40)\n      shl(0xe0, 0x23b872dd)\n      dup2\n      mstore\n        /* \"DEX.sol\":7036:7046  msg.sender */\n      caller\n        /* \"DEX.sol\":7018:7073  meme.transferFrom(msg.sender, address(this), eth_price) */\n      0x04\n      dup3\n      add\n        /* \"#utility.yul\":7082:7116   */\n      mstore\n        /* \"DEX.sol\":7056:7060  this */\n      address\n        /* \"#utility.yul\":7132:7150   */\n      0x24\n      dup3\n      add\n        /* \"#utility.yul\":7125:7168   */\n      mstore\n        /* \"#utility.yul\":7184:7202   */\n      0x44\n      dup2\n      add\n        /* \"#utility.yul\":7177:7211   */\n      dup4\n      swap1\n      mstore\n      sub(shl(0xa0, 0x01), 0x01)\n        /* \"DEX.sol\":7018:7022  meme */\n      swap1\n      swap2\n      and\n      swap1\n        /* \"DEX.sol\":7018:7035  meme.transferFrom */\n      0x23b872dd\n      swap1\n        /* \"#utility.yul\":7017:7035   */\n      0x64\n      add\n        /* \"DEX.sol\":7018:7073  meme.transferFrom(msg.sender, address(this), eth_price) */\n      0x20\n      mload(0x40)\n      dup1\n      dup4\n      sub\n      dup2\n      0x00\n      dup8\n      gas\n      call\n      iszero\n      dup1\n      iszero\n      tag_210\n      jumpi\n      returndatasize\n      0x00\n      dup1\n      returndatacopy\n      revert(0x00, returndatasize)\n    tag_210:\n      pop\n      pop\n      pop\n      pop\n      mload(0x40)\n      returndatasize\n      not(0x1f)\n      0x1f\n      dup3\n      add\n      and\n      dup3\n      add\n      dup1\n      0x40\n      mstore\n      pop\n      dup2\n      add\n      swap1\n      tag_211\n      swap2\n      swap1\n      tag_163\n      jump\t// in\n    tag_211:\n      pop\n        /* \"DEX.sol\":7083:7123  payable(msg.sender).transfer(eth_amount) */\n      mload(0x40)\n        /* \"DEX.sol\":7091:7101  msg.sender */\n      caller\n      swap1\n        /* \"DEX.sol\":7083:7123  payable(msg.sender).transfer(eth_amount) */\n      dup4\n      iszero\n      0x08fc\n      mul\n      swap1\n        /* \"DEX.sol\":7112:7122  eth_amount */\n      dup5\n      swap1\n        /* \"DEX.sol\":7083:7123  payable(msg.sender).transfer(eth_amount) */\n      0x00\n      dup2\n      dup2\n      dup2\n        /* \"DEX.sol\":7112:7122  eth_amount */\n      dup6\n        /* \"DEX.sol\":7091:7101  msg.sender */\n      dup9\n        /* \"DEX.sol\":7083:7123  payable(msg.sender).transfer(eth_amount) */\n      dup9\n      call\n      swap4\n      pop\n      pop\n      pop\n      pop\n      iszero\n      dup1\n      iszero\n      tag_213\n      jumpi\n      returndatasize\n      0x00\n      dup1\n      returndatacopy\n      revert(0x00, returndatasize)\n    tag_213:\n      pop\n        /* \"DEX.sol\":7234:7243  precision */\n      sload(0x08)\n        /* \"DEX.sol\":7210:7217  taxRate */\n      sload(0x09)\n        /* \"DEX.sol\":7198:7217  precision + taxRate */\n      tag_214\n      swap1\n        /* \"DEX.sol\":7234:7243  precision */\n      dup3\n        /* \"DEX.sol\":7198:7217  precision + taxRate */\n      tag_102\n      jump\t// in\n    tag_214:\n        /* \"DEX.sol\":7185:7218  eth_price * (precision + taxRate) */\n      tag_215\n      swap1\n        /* \"DEX.sol\":7185:7194  eth_price */\n      dup4\n        /* \"DEX.sol\":7185:7218  eth_price * (precision + taxRate) */\n      tag_99\n      jump\t// in\n    tag_215:\n        /* \"DEX.sol\":7184:7243  (eth_price * (precision + taxRate)) /... */\n      tag_216\n      swap2\n      swap1\n      tag_87\n      jump\t// in\n    tag_216:\n        /* \"DEX.sol\":7134:7142  dailyTax */\n      0x03\n        /* \"DEX.sol\":7134:7168  dailyTax[block.timestamp / 1 days] */\n      0x00\n        /* \"DEX.sol\":7143:7167  block.timestamp / 1 days */\n      tag_217\n        /* \"DEX.sol\":7161:7167  1 days */\n      0x015180\n        /* \"DEX.sol\":7143:7158  block.timestamp */\n      timestamp\n        /* \"DEX.sol\":7143:7167  block.timestamp / 1 days */\n      tag_87\n      jump\t// in\n    tag_217:\n        /* \"DEX.sol\":7134:7168  dailyTax[block.timestamp / 1 days] */\n      dup2\n      mstore\n      0x20\n      add\n      swap1\n      dup2\n      mstore\n      0x20\n      add\n      0x00\n      keccak256\n      0x00\n        /* \"DEX.sol\":7134:7243  dailyTax[block.timestamp / 1 days] +=... */\n      dup3\n      dup3\n      sload\n      tag_218\n      swap2\n      swap1\n      tag_102\n      jump\t// in\n    tag_218:\n      swap3\n      pop\n      pop\n      dup2\n      swap1\n      sstore\n      pop\n        /* \"DEX.sol\":7260:7270  eth_amount */\n      dup2\n        /* \"DEX.sol\":7254:7256  _y */\n      0x07\n      0x00\n        /* \"DEX.sol\":7254:7270  _y -= eth_amount */\n      dup3\n      dup3\n      sload\n      tag_219\n      swap2\n      swap1\n      tag_89\n      jump\t// in\n    tag_219:\n      swap1\n      swap2\n      sstore\n      pop\n      pop\n        /* \"DEX.sol\":7291:7293  _y */\n      sload(0x07)\n        /* \"DEX.sol\":7286:7288  _k */\n      sload(0x05)\n        /* \"DEX.sol\":7286:7293  _k / _y */\n      tag_220\n      swap2\n        /* \"DEX.sol\":7291:7293  _y */\n      swap1\n        /* \"DEX.sol\":7286:7293  _k / _y */\n      tag_87\n      jump\t// in\n    tag_220:\n        /* \"DEX.sol\":7280:7282  _x */\n      0x06\n        /* \"DEX.sol\":7280:7294  _x = (_k / _y) */\n      sstore\n        /* \"DEX.sol\":7310:7349  Sell(msg.sender, eth_price, eth_amount) */\n      0x40\n      dup1\n      mload\n        /* \"#utility.yul\":4842:4867   */\n      dup3\n      dup2\n      mstore\n        /* \"#utility.yul\":4898:4900   */\n      0x20\n        /* \"#utility.yul\":4883:4901   */\n      dup2\n      add\n        /* \"#utility.yul\":4876:4910   */\n      dup5\n      swap1\n      mstore\n        /* \"DEX.sol\":7315:7325  msg.sender */\n      caller\n      swap2\n        /* \"DEX.sol\":7310:7349  Sell(msg.sender, eth_price, eth_amount) */\n      0xed7a144fad14804d5c249145e3e0e2b63a9eb455b76aee5bc92d711e9bba3e4a\n      swap2\n        /* \"#utility.yul\":4815:4833   */\n      add\n        /* \"DEX.sol\":7310:7349  Sell(msg.sender, eth_price, eth_amount) */\n      tag_174\n        /* \"#utility.yul\":4668:4916   */\n      jump\n        /* \"DEX.sol\":1379:1487  function getStacks() public view returns (Stack_Struct[] memory) {... */\n    tag_70:\n        /* \"DEX.sol\":1469:1479  msg.sender */\n      caller\n        /* \"DEX.sol\":1461:1480  Stacked[msg.sender] */\n      0x00\n      swap1\n      dup2\n      mstore\n        /* \"DEX.sol\":1461:1468  Stacked */\n      0x02\n        /* \"DEX.sol\":1461:1480  Stacked[msg.sender] */\n      0x20\n      swap1\n      dup2\n      mstore\n      0x40\n      dup1\n      dup4\n      keccak256\n        /* \"DEX.sol\":1454:1480  return Stacked[msg.sender] */\n      dup1\n      sload\n      dup3\n      mload\n      dup2\n      dup6\n      mul\n      dup2\n      add\n      dup6\n      add\n      swap1\n      swap4\n      mstore\n      dup1\n      dup4\n      mstore\n        /* \"DEX.sol\":1421:1442  Stack_Struct[] memory */\n      0x60\n      swap5\n        /* \"DEX.sol\":1454:1480  return Stacked[msg.sender] */\n      swap3\n      swap4\n        /* \"DEX.sol\":1461:1480  Stacked[msg.sender] */\n      swap2\n      swap3\n        /* \"DEX.sol\":1454:1480  return Stacked[msg.sender] */\n      swap1\n      swap2\n      dup5\n      add\n    tag_223:\n      dup3\n      dup3\n      lt\n      iszero\n      tag_224\n      jumpi\n      dup4\n      dup3\n      swap1\n      0x00\n      mstore\n      keccak256(0x00, 0x20)\n      swap1\n      0x03\n      mul\n      add\n      mload(0x40)\n      dup1\n      0x60\n      add\n      0x40\n      mstore\n      swap1\n      dup2\n      0x00\n      dup3\n      add\n      sload\n      dup2\n      mstore\n      0x20\n      add\n      0x01\n      dup3\n      add\n      sload\n      dup2\n      mstore\n      0x20\n      add\n      0x02\n      dup3\n      add\n      sload\n      dup2\n      mstore\n      pop\n      pop\n      dup2\n      mstore\n      0x20\n      add\n      swap1\n      0x01\n      add\n      swap1\n      jump(tag_223)\n    tag_224:\n      pop\n      pop\n      pop\n      pop\n      swap1\n      pop\n        /* \"DEX.sol\":1379:1487  function getStacks() public view returns (Stack_Struct[] memory) {... */\n      swap1\n      jump\t// out\n        /* \"@openzeppelin/contracts/access/Ownable.sol\":2074:2272  function transferOwnership(address newOwner) public virtual onlyOwner {... */\n    tag_77:\n        /* \"@openzeppelin/contracts/access/Ownable.sol\":1094:1107  _checkOwner() */\n      tag_227\n        /* \"@openzeppelin/contracts/access/Ownable.sol\":1094:1105  _checkOwner */\n      tag_113\n        /* \"@openzeppelin/contracts/access/Ownable.sol\":1094:1107  _checkOwner() */\n      jump\t// in\n    tag_227:\n      sub(shl(0xa0, 0x01), 0x01)\n        /* \"@openzeppelin/contracts/access/Ownable.sol\":2162:2184  newOwner != address(0) */\n      dup2\n      and\n        /* \"@openzeppelin/contracts/access/Ownable.sol\":2154:2227  require(newOwner != address(0), \"Ownable: new owner is the zero address\") */\n      tag_229\n      jumpi\n      mload(0x40)\n      shl(0xe5, 0x461bcd)\n      dup2\n      mstore\n        /* \"#utility.yul\":7424:7426   */\n      0x20\n        /* \"@openzeppelin/contracts/access/Ownable.sol\":2154:2227  require(newOwner != address(0), \"Ownable: new owner is the zero address\") */\n      0x04\n      dup3\n      add\n        /* \"#utility.yul\":7406:7427   */\n      mstore\n        /* \"#utility.yul\":7463:7465   */\n      0x26\n        /* \"#utility.yul\":7443:7461   */\n      0x24\n      dup3\n      add\n        /* \"#utility.yul\":7436:7466   */\n      mstore\n        /* \"#utility.yul\":7502:7536   */\n      0x4f776e61626c653a206e6577206f776e657220697320746865207a65726f2061\n        /* \"#utility.yul\":7482:7500   */\n      0x44\n      dup3\n      add\n        /* \"#utility.yul\":7475:7537   */\n      mstore\n      shl(0xd0, 0x646472657373)\n        /* \"#utility.yul\":7553:7571   */\n      0x64\n      dup3\n      add\n        /* \"#utility.yul\":7546:7582   */\n      mstore\n        /* \"#utility.yul\":7599:7618   */\n      0x84\n      add\n        /* \"@openzeppelin/contracts/access/Ownable.sol\":2154:2227  require(newOwner != address(0), \"Ownable: new owner is the zero address\") */\n      tag_83\n        /* \"#utility.yul\":7222:7624   */\n      jump\n        /* \"@openzeppelin/contracts/access/Ownable.sol\":2154:2227  require(newOwner != address(0), \"Ownable: new owner is the zero address\") */\n    tag_229:\n        /* \"@openzeppelin/contracts/access/Ownable.sol\":2237:2265  _transferOwnership(newOwner) */\n      tag_109\n        /* \"@openzeppelin/contracts/access/Ownable.sol\":2256:2264  newOwner */\n      dup2\n        /* \"@openzeppelin/contracts/access/Ownable.sol\":2237:2255  _transferOwnership */\n      tag_141\n        /* \"@openzeppelin/contracts/access/Ownable.sol\":2237:2265  _transferOwnership(newOwner) */\n      jump\t// in\n        /* \"@openzeppelin/contracts/security/Pausable.sol\":1767:1873  function _requireNotPaused() internal view virtual {... */\n    tag_80:\n        /* \"@openzeppelin/contracts/security/Pausable.sol\":1662:1666  bool */\n      0x00\n        /* \"@openzeppelin/contracts/security/Pausable.sol\":1685:1692  _paused */\n      sload\n      0xff\n      and\n        /* \"@openzeppelin/contracts/security/Pausable.sol\":1836:1845  !paused() */\n      iszero\n        /* \"@openzeppelin/contracts/security/Pausable.sol\":1828:1866  require(!paused(), \"Pausable: paused\") */\n      tag_115\n      jumpi\n      mload(0x40)\n      shl(0xe5, 0x461bcd)\n      dup2\n      mstore\n        /* \"#utility.yul\":7831:7833   */\n      0x20\n        /* \"@openzeppelin/contracts/security/Pausable.sol\":1828:1866  require(!paused(), \"Pausable: paused\") */\n      0x04\n      dup3\n      add\n        /* \"#utility.yul\":7813:7834   */\n      mstore\n        /* \"#utility.yul\":7870:7872   */\n      0x10\n        /* \"#utility.yul\":7850:7868   */\n      0x24\n      dup3\n      add\n        /* \"#utility.yul\":7843:7873   */\n      mstore\n      shl(0x82, 0x14185d5cd8589b194e881c185d5cd959)\n        /* \"#utility.yul\":7889:7907   */\n      0x44\n      dup3\n      add\n        /* \"#utility.yul\":7882:7928   */\n      mstore\n        /* \"#utility.yul\":7945:7963   */\n      0x64\n      add\n        /* \"@openzeppelin/contracts/security/Pausable.sol\":1828:1866  require(!paused(), \"Pausable: paused\") */\n      tag_83\n        /* \"#utility.yul\":7629:7969   */\n      jump\n        /* \"DEX.sol\":2490:3504  function _unstack(uint256 index) internal {... */\n    tag_110:\n        /* \"DEX.sol\":2575:2585  msg.sender */\n      caller\n        /* \"DEX.sol\":2542:2564  Stack_Struct memory ss */\n      0x00\n        /* \"DEX.sol\":2567:2586  Stacked[msg.sender] */\n      swap1\n      dup2\n      mstore\n        /* \"DEX.sol\":2567:2574  Stacked */\n      0x02\n        /* \"DEX.sol\":2567:2586  Stacked[msg.sender] */\n      0x20\n      mstore\n      0x40\n      dup2\n      keccak256\n        /* \"DEX.sol\":2567:2593  Stacked[msg.sender][index] */\n      dup1\n      sload\n        /* \"DEX.sol\":2587:2592  index */\n      dup4\n      swap1\n        /* \"DEX.sol\":2567:2593  Stacked[msg.sender][index] */\n      dup2\n      lt\n      tag_240\n      jumpi\n      tag_240\n      tag_241\n      jump\t// in\n    tag_240:\n      swap1\n      0x00\n      mstore\n      keccak256(0x00, 0x20)\n      swap1\n      0x03\n      mul\n      add\n        /* \"DEX.sol\":2542:2593  Stack_Struct memory ss = Stacked[msg.sender][index] */\n      mload(0x40)\n      dup1\n      0x60\n      add\n      0x40\n      mstore\n      swap1\n      dup2\n      0x00\n      dup3\n      add\n      sload\n      dup2\n      mstore\n      0x20\n      add\n      0x01\n      dup3\n      add\n      sload\n      dup2\n      mstore\n      0x20\n      add\n      0x02\n      dup3\n      add\n      sload\n      dup2\n      mstore\n      pop\n      pop\n      swap1\n      pop\n        /* \"DEX.sol\":2604:2615  uint256 tax */\n      0x00\n        /* \"DEX.sol\":2618:2634  _distributeTax() */\n      tag_243\n        /* \"DEX.sol\":2618:2632  _distributeTax */\n      tag_244\n        /* \"DEX.sol\":2618:2634  _distributeTax() */\n      jump\t// in\n    tag_243:\n        /* \"DEX.sol\":2670:2684  ss.meme_amount */\n      dup3\n      mload\n        /* \"DEX.sol\":2718:2731  ss.eth_amount */\n      0x20\n      dup5\n      add\n      mload\n        /* \"DEX.sol\":2604:2634  uint256 tax = _distributeTax() */\n      swap2\n      swap3\n      pop\n        /* \"DEX.sol\":2670:2684  ss.meme_amount */\n      swap1\n        /* \"DEX.sol\":2645:2667  uint256 meme_to_return */\n      0x00\n      swap1\n        /* \"DEX.sol\":2718:2737  ss.eth_amount + tax */\n      tag_245\n      swap1\n        /* \"DEX.sol\":2604:2634  uint256 tax = _distributeTax() */\n      dup5\n      swap1\n        /* \"DEX.sol\":2718:2737  ss.eth_amount + tax */\n      tag_102\n      jump\t// in\n    tag_245:\n        /* \"DEX.sol\":2769:2773  meme */\n      sload(0x01)\n        /* \"DEX.sol\":2769:2798  meme.balanceOf(address(this)) */\n      mload(0x40)\n      shl(0xe0, 0x70a08231)\n      dup2\n      mstore\n        /* \"DEX.sol\":2792:2796  this */\n      address\n        /* \"DEX.sol\":2769:2798  meme.balanceOf(address(this)) */\n      0x04\n      dup3\n      add\n        /* \"#utility.yul\":719:770   */\n      mstore\n        /* \"DEX.sol\":2694:2737  uint256 eth_to_return = ss.eth_amount + tax */\n      swap2\n      swap3\n      pop\n        /* \"DEX.sol\":2802:2816  meme_to_return */\n      dup4\n      swap2\n      sub(shl(0xa0, 0x01), 0x01)\n        /* \"DEX.sol\":2769:2773  meme */\n      swap1\n      swap2\n      and\n      swap1\n        /* \"DEX.sol\":2769:2783  meme.balanceOf */\n      0x70a08231\n      swap1\n        /* \"#utility.yul\":692:710   */\n      0x24\n      add\n        /* \"DEX.sol\":2769:2798  meme.balanceOf(address(this)) */\n      0x20\n      mload(0x40)\n      dup1\n      dup4\n      sub\n      dup2\n      dup7\n      gas\n      staticcall\n      iszero\n      dup1\n      iszero\n      tag_248\n      jumpi\n      returndatasize\n      0x00\n      dup1\n      returndatacopy\n      revert(0x00, returndatasize)\n    tag_248:\n      pop\n      pop\n      pop\n      pop\n      mload(0x40)\n      returndatasize\n      not(0x1f)\n      0x1f\n      dup3\n      add\n      and\n      dup3\n      add\n      dup1\n      0x40\n      mstore\n      pop\n      dup2\n      add\n      swap1\n      tag_249\n      swap2\n      swap1\n      tag_203\n      jump\t// in\n    tag_249:\n        /* \"DEX.sol\":2769:2816  meme.balanceOf(address(this)) >= meme_to_return */\n      lt\n      iszero\n        /* \"DEX.sol\":2748:2917  require(... */\n      tag_250\n      jumpi\n      mload(0x40)\n      shl(0xe5, 0x461bcd)\n      dup2\n      mstore\n        /* \"#utility.yul\":8308:8310   */\n      0x20\n        /* \"DEX.sol\":2748:2917  require(... */\n      0x04\n      dup3\n      add\n        /* \"#utility.yul\":8290:8311   */\n      mstore\n        /* \"#utility.yul\":8347:8349   */\n      0x4b\n        /* \"#utility.yul\":8327:8345   */\n      0x24\n      dup3\n      add\n        /* \"#utility.yul\":8320:8350   */\n      mstore\n        /* \"#utility.yul\":8386:8420   */\n      0x536f7272792043757272656e746c79207468697320636f6e747261637420646f\n        /* \"#utility.yul\":8366:8384   */\n      0x44\n      dup3\n      add\n        /* \"#utility.yul\":8359:8421   */\n      mstore\n        /* \"#utility.yul\":8457:8491   */\n      0x65736e27742068617665204d656d6520746f2072657475726e2c20436865636b\n        /* \"#utility.yul\":8437:8455   */\n      0x64\n      dup3\n      add\n        /* \"#utility.yul\":8430:8492   */\n      mstore\n      shl(0xa8, 0x206261636b20536f6f6e21)\n        /* \"#utility.yul\":8508:8527   */\n      0x84\n      dup3\n      add\n        /* \"#utility.yul\":8501:8543   */\n      mstore\n        /* \"#utility.yul\":8560:8579   */\n      0xa4\n      add\n        /* \"DEX.sol\":2748:2917  require(... */\n      tag_83\n        /* \"#utility.yul\":8106:8585   */\n      jump\n        /* \"DEX.sol\":2748:2917  require(... */\n    tag_250:\n        /* \"DEX.sol\":2973:2986  eth_to_return */\n      dup1\n        /* \"DEX.sol\":2948:2969  address(this).balance */\n      selfbalance\n        /* \"DEX.sol\":2948:2986  address(this).balance >= eth_to_return */\n      lt\n      iszero\n        /* \"DEX.sol\":2927:3086  require(... */\n      tag_253\n      jumpi\n      mload(0x40)\n      shl(0xe5, 0x461bcd)\n      dup2\n      mstore\n        /* \"#utility.yul\":8792:8794   */\n      0x20\n        /* \"DEX.sol\":2927:3086  require(... */\n      0x04\n      dup3\n      add\n        /* \"#utility.yul\":8774:8795   */\n      mstore\n        /* \"#utility.yul\":8831:8833   */\n      0x4a\n        /* \"#utility.yul\":8811:8829   */\n      0x24\n      dup3\n      add\n        /* \"#utility.yul\":8804:8834   */\n      mstore\n        /* \"#utility.yul\":8870:8904   */\n      0x536f7272792043757272656e746c79207468697320636f6e747261637420646f\n        /* \"#utility.yul\":8850:8868   */\n      0x44\n      dup3\n      add\n        /* \"#utility.yul\":8843:8905   */\n      mstore\n        /* \"#utility.yul\":8941:8975   */\n      0x65736e277420686176652045746820746f2072657475726e2c20436865636b20\n        /* \"#utility.yul\":8921:8939   */\n      0x64\n      dup3\n      add\n        /* \"#utility.yul\":8914:8976   */\n      mstore\n      shl(0xb0, 0x6261636b20536f6f6e21)\n        /* \"#utility.yul\":8992:9011   */\n      0x84\n      dup3\n      add\n        /* \"#utility.yul\":8985:9026   */\n      mstore\n        /* \"#utility.yul\":9043:9062   */\n      0xa4\n      add\n        /* \"DEX.sol\":2927:3086  require(... */\n      tag_83\n        /* \"#utility.yul\":8590:9068   */\n      jump\n        /* \"DEX.sol\":2927:3086  require(... */\n    tag_253:\n        /* \"DEX.sol\":3104:3118  meme_to_return */\n      dup2\n        /* \"DEX.sol\":3098:3100  _x */\n      0x06\n      0x00\n        /* \"DEX.sol\":3098:3118  _x -= meme_to_return */\n      dup3\n      dup3\n      sload\n      tag_256\n      swap2\n      swap1\n      tag_89\n      jump\t// in\n    tag_256:\n      swap3\n      pop\n      pop\n      dup2\n      swap1\n      sstore\n      pop\n        /* \"DEX.sol\":3134:3147  eth_to_return */\n      dup1\n        /* \"DEX.sol\":3128:3130  _y */\n      0x07\n      0x00\n        /* \"DEX.sol\":3128:3147  _y -= eth_to_return */\n      dup3\n      dup3\n      sload\n      tag_257\n      swap2\n      swap1\n      tag_89\n      jump\t// in\n    tag_257:\n      swap1\n      swap2\n      sstore\n      pop\n      pop\n        /* \"DEX.sol\":3158:3162  meme */\n      sload(0x01)\n        /* \"DEX.sol\":3158:3199  meme.transfer(msg.sender, meme_to_return) */\n      mload(0x40)\n      shl(0xe0, 0xa9059cbb)\n      dup2\n      mstore\n        /* \"DEX.sol\":3172:3182  msg.sender */\n      caller\n        /* \"DEX.sol\":3158:3199  meme.transfer(msg.sender, meme_to_return) */\n      0x04\n      dup3\n      add\n        /* \"#utility.yul\":4281:4332   */\n      mstore\n        /* \"#utility.yul\":4348:4366   */\n      0x24\n      dup2\n      add\n        /* \"#utility.yul\":4341:4375   */\n      dup5\n      swap1\n      mstore\n      sub(shl(0xa0, 0x01), 0x01)\n        /* \"DEX.sol\":3158:3162  meme */\n      swap1\n      swap2\n      and\n      swap1\n        /* \"DEX.sol\":3158:3171  meme.transfer */\n      0xa9059cbb\n      swap1\n        /* \"#utility.yul\":4254:4272   */\n      0x44\n      add\n        /* \"DEX.sol\":3158:3199  meme.transfer(msg.sender, meme_to_return) */\n      0x20\n      mload(0x40)\n      dup1\n      dup4\n      sub\n      dup2\n      0x00\n      dup8\n      gas\n      call\n      iszero\n      dup1\n      iszero\n      tag_260\n      jumpi\n      returndatasize\n      0x00\n      dup1\n      returndatacopy\n      revert(0x00, returndatasize)\n    tag_260:\n      pop\n      pop\n      pop\n      pop\n      mload(0x40)\n      returndatasize\n      not(0x1f)\n      0x1f\n      dup3\n      add\n      and\n      dup3\n      add\n      dup1\n      0x40\n      mstore\n      pop\n      dup2\n      add\n      swap1\n      tag_261\n      swap2\n      swap1\n      tag_163\n      jump\t// in\n    tag_261:\n      pop\n        /* \"DEX.sol\":3209:3252  payable(msg.sender).transfer(eth_to_return) */\n      mload(0x40)\n        /* \"DEX.sol\":3217:3227  msg.sender */\n      caller\n      swap1\n        /* \"DEX.sol\":3209:3252  payable(msg.sender).transfer(eth_to_return) */\n      dup3\n      iszero\n      0x08fc\n      mul\n      swap1\n        /* \"DEX.sol\":3238:3251  eth_to_return */\n      dup4\n      swap1\n        /* \"DEX.sol\":3209:3252  payable(msg.sender).transfer(eth_to_return) */\n      0x00\n      dup2\n      dup2\n      dup2\n        /* \"DEX.sol\":3238:3251  eth_to_return */\n      dup6\n        /* \"DEX.sol\":3217:3227  msg.sender */\n      dup9\n        /* \"DEX.sol\":3209:3252  payable(msg.sender).transfer(eth_to_return) */\n      dup9\n      call\n      swap4\n      pop\n      pop\n      pop\n      pop\n      iszero\n      dup1\n      iszero\n      tag_263\n      jumpi\n      returndatasize\n      0x00\n      dup1\n      returndatacopy\n      revert(0x00, returndatasize)\n    tag_263:\n      pop\n        /* \"DEX.sol\":3267:3269  _x */\n      sload(0x06)\n        /* \"DEX.sol\":3273:3274  0 */\n      0x00\n        /* \"DEX.sol\":3267:3274  _x == 0 */\n      sub\n        /* \"DEX.sol\":3263:3384  if (_x == 0) {... */\n      tag_264\n      jumpi\n        /* \"DEX.sol\":3305:3306  0 */\n      0x00\n        /* \"DEX.sol\":3290:3302  stackingRate */\n      0x04\n        /* \"DEX.sol\":3290:3306  stackingRate = 0 */\n      sstore\n        /* \"DEX.sol\":3263:3384  if (_x == 0) {... */\n      jump(tag_265)\n    tag_264:\n        /* \"DEX.sol\":3371:3373  _x */\n      sload(0x06)\n        /* \"DEX.sol\":3358:3367  precision */\n      sload(0x08)\n        /* \"DEX.sol\":3353:3355  _y */\n      sload(0x07)\n        /* \"DEX.sol\":3353:3367  _y * precision */\n      tag_266\n      swap2\n      swap1\n      tag_99\n      jump\t// in\n    tag_266:\n        /* \"DEX.sol\":3352:3373  (_y * precision) / _x */\n      tag_267\n      swap2\n      swap1\n      tag_87\n      jump\t// in\n    tag_267:\n        /* \"DEX.sol\":3337:3349  stackingRate */\n      0x04\n        /* \"DEX.sol\":3337:3373  stackingRate = (_y * precision) / _x */\n      sstore\n        /* \"DEX.sol\":3263:3384  if (_x == 0) {... */\n    tag_265:\n        /* \"DEX.sol\":3394:3411  _removeArr(index) */\n      tag_268\n        /* \"DEX.sol\":3405:3410  index */\n      dup6\n        /* \"DEX.sol\":3394:3404  _removeArr */\n      tag_269\n        /* \"DEX.sol\":3394:3411  _removeArr(index) */\n      jump\t// in\n    tag_268:\n        /* \"DEX.sol\":3422:3432  _updateK() */\n      tag_270\n        /* \"DEX.sol\":3422:3430  _updateK */\n      tag_271\n        /* \"DEX.sol\":3422:3432  _updateK() */\n      jump\t// in\n    tag_270:\n        /* \"DEX.sol\":3447:3497  UnStack(msg.sender, meme_to_return, eth_to_return) */\n      0x40\n      dup1\n      mload\n        /* \"#utility.yul\":4842:4867   */\n      dup4\n      dup2\n      mstore\n        /* \"#utility.yul\":4898:4900   */\n      0x20\n        /* \"#utility.yul\":4883:4901   */\n      dup2\n      add\n        /* \"#utility.yul\":4876:4910   */\n      dup4\n      swap1\n      mstore\n        /* \"DEX.sol\":3455:3465  msg.sender */\n      caller\n      swap2\n        /* \"DEX.sol\":3447:3497  UnStack(msg.sender, meme_to_return, eth_to_return) */\n      0xbb564df1f5d4ebb97b073adcab505c7796a37035ac5d14f51269660939c39cf4\n      swap2\n        /* \"#utility.yul\":4815:4833   */\n      add\n        /* \"DEX.sol\":3447:3497  UnStack(msg.sender, meme_to_return, eth_to_return) */\n      mload(0x40)\n      dup1\n      swap2\n      sub\n      swap1\n      log2\n        /* \"DEX.sol\":2532:3504  {... */\n      pop\n      pop\n      pop\n      pop\n        /* \"DEX.sol\":2490:3504  function _unstack(uint256 index) internal {... */\n      pop\n      jump\t// out\n        /* \"@openzeppelin/contracts/access/Ownable.sol\":1359:1489  function _checkOwner() internal view virtual {... */\n    tag_113:\n        /* \"@openzeppelin/contracts/access/Ownable.sol\":1247:1254  address */\n      0x00\n        /* \"@openzeppelin/contracts/access/Ownable.sol\":1273:1279  _owner */\n      sload\n      sub(shl(0xa0, 0x01), 0x01)\n      0x0100\n      swap1\n      swap2\n      div\n      and\n        /* \"@openzeppelin/contracts/utils/Context.sol\":719:729  msg.sender */\n      caller\n        /* \"@openzeppelin/contracts/access/Ownable.sol\":1422:1445  owner() == _msgSender() */\n      eq\n        /* \"@openzeppelin/contracts/access/Ownable.sol\":1414:1482  require(owner() == _msgSender(), \"Ownable: caller is not the owner\") */\n      tag_115\n      jumpi\n      mload(0x40)\n      shl(0xe5, 0x461bcd)\n      dup2\n      mstore\n        /* \"#utility.yul\":9275:9277   */\n      0x20\n        /* \"@openzeppelin/contracts/access/Ownable.sol\":1414:1482  require(owner() == _msgSender(), \"Ownable: caller is not the owner\") */\n      0x04\n      dup3\n      add\n        /* \"#utility.yul\":9257:9278   */\n      dup2\n      swap1\n      mstore\n        /* \"#utility.yul\":9294:9312   */\n      0x24\n      dup3\n      add\n        /* \"#utility.yul\":9287:9317   */\n      mstore\n        /* \"#utility.yul\":9353:9387   */\n      0x4f776e61626c653a2063616c6c6572206973206e6f7420746865206f776e6572\n        /* \"#utility.yul\":9333:9351   */\n      0x44\n      dup3\n      add\n        /* \"#utility.yul\":9326:9388   */\n      mstore\n        /* \"#utility.yul\":9405:9423   */\n      0x64\n      add\n        /* \"@openzeppelin/contracts/access/Ownable.sol\":1414:1482  require(owner() == _msgSender(), \"Ownable: caller is not the owner\") */\n      tag_83\n        /* \"#utility.yul\":9073:9429   */\n      jump\n        /* \"@openzeppelin/contracts/security/Pausable.sol\":2433:2550  function _unpause() internal virtual whenPaused {... */\n    tag_116:\n        /* \"@openzeppelin/contracts/security/Pausable.sol\":1486:1502  _requirePaused() */\n      tag_281\n        /* \"@openzeppelin/contracts/security/Pausable.sol\":1486:1500  _requirePaused */\n      tag_282\n        /* \"@openzeppelin/contracts/security/Pausable.sol\":1486:1502  _requirePaused() */\n      jump\t// in\n    tag_281:\n        /* \"@openzeppelin/contracts/security/Pausable.sol\":2501:2506  false */\n      0x00\n        /* \"@openzeppelin/contracts/security/Pausable.sol\":2491:2506  _paused = false */\n      dup1\n      sload\n      not(0xff)\n      and\n      swap1\n      sstore\n        /* \"@openzeppelin/contracts/security/Pausable.sol\":2521:2543  Unpaused(_msgSender()) */\n      0x5db9ee0a495bf2e6ff9c91a7834c1ba4fdd244a5e8aa4e537bd38aeae4b073aa\n        /* \"@openzeppelin/contracts/utils/Context.sol\":719:729  msg.sender */\n      caller\n        /* \"@openzeppelin/contracts/security/Pausable.sol\":2530:2542  _msgSender() */\n    tag_284:\n        /* \"@openzeppelin/contracts/security/Pausable.sol\":2521:2543  Unpaused(_msgSender()) */\n      mload(0x40)\n      sub(shl(0xa0, 0x01), 0x01)\n        /* \"#utility.yul\":737:769   */\n      swap1\n      swap2\n      and\n        /* \"#utility.yul\":719:770   */\n      dup2\n      mstore\n        /* \"#utility.yul\":707:709   */\n      0x20\n        /* \"#utility.yul\":692:710   */\n      add\n        /* \"@openzeppelin/contracts/security/Pausable.sol\":2521:2543  Unpaused(_msgSender()) */\n      mload(0x40)\n      dup1\n      swap2\n      sub\n      swap1\n      log1\n        /* \"@openzeppelin/contracts/security/Pausable.sol\":2433:2550  function _unpause() internal virtual whenPaused {... */\n      jump\t// out\n        /* \"@openzeppelin/contracts/access/Ownable.sol\":2426:2613  function _transferOwnership(address newOwner) internal virtual {... */\n    tag_141:\n        /* \"@openzeppelin/contracts/access/Ownable.sol\":2499:2515  address oldOwner */\n      0x00\n        /* \"@openzeppelin/contracts/access/Ownable.sol\":2518:2524  _owner */\n      dup1\n      sload\n      sub(shl(0xa0, 0x01), 0x01)\n        /* \"@openzeppelin/contracts/access/Ownable.sol\":2534:2551  _owner = newOwner */\n      dup4\n      dup2\n      and\n        /* \"@openzeppelin/contracts/access/Ownable.sol\":2518:2524  _owner */\n      0x0100\n        /* \"@openzeppelin/contracts/access/Ownable.sol\":2534:2551  _owner = newOwner */\n      dup2\n      dup2\n      mul\n      not(sub(shl(0xa8, 0x01), 0x0100))\n      dup6\n      and\n      or\n      dup6\n      sstore\n        /* \"@openzeppelin/contracts/access/Ownable.sol\":2566:2606  OwnershipTransferred(oldOwner, newOwner) */\n      mload(0x40)\n        /* \"@openzeppelin/contracts/access/Ownable.sol\":2518:2524  _owner */\n      swap4\n      div\n      swap2\n      swap1\n      swap2\n      and\n      swap3\n        /* \"@openzeppelin/contracts/access/Ownable.sol\":2534:2551  _owner = newOwner */\n      swap1\n      swap2\n        /* \"@openzeppelin/contracts/access/Ownable.sol\":2518:2524  _owner */\n      dup4\n      swap2\n        /* \"@openzeppelin/contracts/access/Ownable.sol\":2566:2606  OwnershipTransferred(oldOwner, newOwner) */\n      0x8be0079c531659141344cd1fd0a4f28419497f9722a3daafe3b4186f6b6457e0\n      swap2\n      log3\n        /* \"@openzeppelin/contracts/access/Ownable.sol\":2489:2613  {... */\n      pop\n        /* \"@openzeppelin/contracts/access/Ownable.sol\":2426:2613  function _transferOwnership(address newOwner) internal virtual {... */\n      pop\n      jump\t// out\n        /* \"@openzeppelin/contracts/security/Pausable.sol\":2186:2301  function _pause() internal virtual whenNotPaused {... */\n    tag_146:\n        /* \"@openzeppelin/contracts/security/Pausable.sol\":1239:1258  _requireNotPaused() */\n      tag_288\n        /* \"@openzeppelin/contracts/security/Pausable.sol\":1239:1256  _requireNotPaused */\n      tag_80\n        /* \"@openzeppelin/contracts/security/Pausable.sol\":1239:1258  _requireNotPaused() */\n      jump\t// in\n    tag_288:\n        /* \"@openzeppelin/contracts/security/Pausable.sol\":2245:2252  _paused */\n      0x00\n        /* \"@openzeppelin/contracts/security/Pausable.sol\":2245:2259  _paused = true */\n      dup1\n      sload\n      not(0xff)\n      and\n        /* \"@openzeppelin/contracts/security/Pausable.sol\":2255:2259  true */\n      0x01\n        /* \"@openzeppelin/contracts/security/Pausable.sol\":2245:2259  _paused = true */\n      or\n      swap1\n      sstore\n        /* \"@openzeppelin/contracts/security/Pausable.sol\":2274:2294  Paused(_msgSender()) */\n      0x62e78cea01bee320cd4e420270b5ea74000d11b0c9f74754ebdbfc544b05a258\n        /* \"@openzeppelin/contracts/security/Pausable.sol\":2281:2293  _msgSender() */\n      tag_284\n        /* \"@openzeppelin/contracts/utils/Context.sol\":719:729  msg.sender */\n      caller\n      swap1\n        /* \"@openzeppelin/contracts/utils/Context.sol\":640:736  function _msgSender() internal view virtual returns (address) {... */\n      jump\n        /* \"DEX.sol\":1991:2484  function _stack(uint256 meme_amount, uint256 eth_amount) internal {... */\n    tag_191:\n        /* \"DEX.sol\":2067:2071  meme */\n      sload(0x01)\n        /* \"DEX.sol\":2067:2124  meme.transferFrom(msg.sender, address(this), meme_amount) */\n      mload(0x40)\n      shl(0xe0, 0x23b872dd)\n      dup2\n      mstore\n        /* \"DEX.sol\":2085:2095  msg.sender */\n      caller\n        /* \"DEX.sol\":2067:2124  meme.transferFrom(msg.sender, address(this), meme_amount) */\n      0x04\n      dup3\n      add\n        /* \"#utility.yul\":7082:7116   */\n      mstore\n        /* \"DEX.sol\":2105:2109  this */\n      address\n        /* \"#utility.yul\":7132:7150   */\n      0x24\n      dup3\n      add\n        /* \"#utility.yul\":7125:7168   */\n      mstore\n        /* \"#utility.yul\":7184:7202   */\n      0x44\n      dup2\n      add\n        /* \"#utility.yul\":7177:7211   */\n      dup5\n      swap1\n      mstore\n      sub(shl(0xa0, 0x01), 0x01)\n        /* \"DEX.sol\":2067:2071  meme */\n      swap1\n      swap2\n      and\n      swap1\n        /* \"DEX.sol\":2067:2084  meme.transferFrom */\n      0x23b872dd\n      swap1\n        /* \"#utility.yul\":7017:7035   */\n      0x64\n      add\n        /* \"DEX.sol\":2067:2124  meme.transferFrom(msg.sender, address(this), meme_amount) */\n      0x20\n      mload(0x40)\n      dup1\n      dup4\n      sub\n      dup2\n      0x00\n      dup8\n      gas\n      call\n      iszero\n      dup1\n      iszero\n      tag_295\n      jumpi\n      returndatasize\n      0x00\n      dup1\n      returndatacopy\n      revert(0x00, returndatasize)\n    tag_295:\n      pop\n      pop\n      pop\n      pop\n      mload(0x40)\n      returndatasize\n      not(0x1f)\n      0x1f\n      dup3\n      add\n      and\n      dup3\n      add\n      dup1\n      0x40\n      mstore\n      pop\n      dup2\n      add\n      swap1\n      tag_296\n      swap2\n      swap1\n      tag_163\n      jump\t// in\n    tag_296:\n      pop\n        /* \"DEX.sol\":2140:2151  meme_amount */\n      dup2\n        /* \"DEX.sol\":2134:2136  _x */\n      0x06\n      0x00\n        /* \"DEX.sol\":2134:2151  _x += meme_amount */\n      dup3\n      dup3\n      sload\n      tag_297\n      swap2\n      swap1\n      tag_102\n      jump\t// in\n    tag_297:\n      swap3\n      pop\n      pop\n      dup2\n      swap1\n      sstore\n      pop\n        /* \"DEX.sol\":2167:2177  eth_amount */\n      dup1\n        /* \"DEX.sol\":2161:2163  _y */\n      0x07\n      0x00\n        /* \"DEX.sol\":2161:2177  _y += eth_amount */\n      dup3\n      dup3\n      sload\n      tag_298\n      swap2\n      swap1\n      tag_102\n      jump\t// in\n    tag_298:\n      swap1\n      swap2\n      sstore\n      pop\n      pop\n        /* \"DEX.sol\":2213:2313  Stack_Struct(... */\n      0x40\n      dup1\n      mload\n      0x60\n      dup2\n      add\n      dup3\n      mstore\n      dup4\n      dup2\n      mstore\n      0x20\n      dup1\n      dup3\n      add\n      dup5\n      dup2\n      mstore\n        /* \"DEX.sol\":2288:2303  block.timestamp */\n      timestamp\n        /* \"DEX.sol\":2213:2313  Stack_Struct(... */\n      dup4\n      dup6\n      add\n      swap1\n      dup2\n      mstore\n        /* \"DEX.sol\":2331:2341  msg.sender */\n      caller\n        /* \"DEX.sol\":2188:2210  Stack_Struct memory ss */\n      0x00\n        /* \"DEX.sol\":2323:2342  Stacked[msg.sender] */\n      swap1\n      dup2\n      mstore\n        /* \"DEX.sol\":2323:2330  Stacked */\n      0x02\n        /* \"DEX.sol\":2323:2342  Stacked[msg.sender] */\n      dup1\n      dup6\n      mstore\n      swap6\n      dup2\n      keccak256\n        /* \"DEX.sol\":2323:2351  Stacked[msg.sender].push(ss) */\n      dup1\n      sload\n      0x01\n      dup2\n      dup2\n      add\n      dup4\n      sstore\n      swap2\n      dup4\n      mstore\n      swap5\n      swap1\n      swap2\n      keccak256\n      dup6\n      mload\n      0x03\n      swap1\n      swap6\n      mul\n      add\n      swap4\n      dup5\n      sstore\n      swap2\n      mload\n      swap2\n      dup4\n      add\n      swap2\n      swap1\n      swap2\n      sstore\n      mload\n      swap3\n      add\n      swap2\n      swap1\n      swap2\n      sstore\n        /* \"DEX.sol\":2397:2399  _x */\n      sload(0x06)\n        /* \"DEX.sol\":2384:2393  precision */\n      sload(0x08)\n        /* \"DEX.sol\":2379:2381  _y */\n      sload(0x07)\n        /* \"DEX.sol\":2379:2393  _y * precision */\n      tag_300\n      swap2\n        /* \"DEX.sol\":2384:2393  precision */\n      swap1\n        /* \"DEX.sol\":2379:2393  _y * precision */\n      tag_99\n      jump\t// in\n    tag_300:\n        /* \"DEX.sol\":2378:2399  (_y * precision) / _x */\n      tag_301\n      swap2\n      swap1\n      tag_87\n      jump\t// in\n    tag_301:\n        /* \"DEX.sol\":2362:2374  stackingRate */\n      0x04\n        /* \"DEX.sol\":2362:2400  stackingRate = ((_y * precision) / _x) */\n      sstore\n        /* \"DEX.sol\":2411:2421  _updateK() */\n      tag_302\n        /* \"DEX.sol\":2411:2419  _updateK */\n      tag_271\n        /* \"DEX.sol\":2411:2421  _updateK() */\n      jump\t// in\n    tag_302:\n        /* \"DEX.sol\":2436:2477  Stack(msg.sender, meme_amount, msg.value) */\n      0x40\n      dup1\n      mload\n        /* \"#utility.yul\":4842:4867   */\n      dup5\n      dup2\n      mstore\n        /* \"DEX.sol\":2467:2476  msg.value */\n      callvalue\n        /* \"#utility.yul\":4898:4900   */\n      0x20\n        /* \"#utility.yul\":4883:4901   */\n      dup3\n      add\n        /* \"#utility.yul\":4876:4910   */\n      mstore\n        /* \"DEX.sol\":2442:2452  msg.sender */\n      caller\n      swap2\n        /* \"DEX.sol\":2436:2477  Stack(msg.sender, meme_amount, msg.value) */\n      0x5caad8f5613b6f1d592fc8c69d8f0999453740f0806c754f20cc92f3d4b2b1b6\n      swap2\n        /* \"#utility.yul\":4815:4833   */\n      add\n        /* \"DEX.sol\":2436:2477  Stack(msg.sender, meme_amount, msg.value) */\n      mload(0x40)\n      dup1\n      swap2\n      sub\n      swap1\n      log2\n        /* \"DEX.sol\":2057:2484  {... */\n      pop\n        /* \"DEX.sol\":1991:2484  function _stack(uint256 meme_amount, uint256 eth_amount) internal {... */\n      pop\n      pop\n      jump\t// out\n        /* \"DEX.sol\":3828:4858  function _distributeTax() internal view returns (uint256) {... */\n    tag_244:\n        /* \"DEX.sol\":3877:3884  uint256 */\n      0x00\n      dup1\n      dup1\n        /* \"DEX.sol\":3930:3938  dailyTax */\n      0x03\n        /* \"DEX.sol\":3877:3884  uint256 */\n      dup2\n        /* \"DEX.sol\":3939:3963  block.timestamp / 1 days */\n      tag_305\n        /* \"DEX.sol\":3957:3963  1 days */\n      0x015180\n        /* \"DEX.sol\":3939:3954  block.timestamp */\n      timestamp\n        /* \"DEX.sol\":3939:3963  block.timestamp / 1 days */\n      tag_87\n      jump\t// in\n    tag_305:\n        /* \"DEX.sol\":3930:3964  dailyTax[block.timestamp / 1 days] */\n      dup2\n      mstore\n      0x20\n      add\n      swap1\n      dup2\n      mstore\n      0x20\n      add\n      0x00\n      keccak256\n      sload\n        /* \"DEX.sol\":3930:3968  dailyTax[block.timestamp / 1 days] > 0 */\n      gt\n        /* \"DEX.sol\":3926:4827  if (dailyTax[block.timestamp / 1 days] > 0) {... */\n      iszero\n      tag_306\n      jumpi\n        /* \"DEX.sol\":4024:4034  msg.sender */\n      caller\n        /* \"DEX.sol\":3984:4013  Stack_Struct[] storage stacks */\n      0x00\n        /* \"DEX.sol\":4016:4035  Stacked[msg.sender] */\n      swap1\n      dup2\n      mstore\n        /* \"DEX.sol\":4016:4023  Stacked */\n      0x02\n        /* \"DEX.sol\":4016:4035  Stacked[msg.sender] */\n      0x20\n      mstore\n      0x40\n      dup2\n      keccak256\n        /* \"DEX.sol\":4069:4082  stacks.length */\n      dup1\n      sload\n        /* \"DEX.sol\":4016:4035  Stacked[msg.sender] */\n      swap1\n      swap2\n        /* \"DEX.sol\":3984:4013  Stack_Struct[] storage stacks */\n      dup1\n        /* \"DEX.sol\":4136:4307  for (uint256 i = 0; i <= numStacks; i++) {... */\n    tag_307:\n        /* \"DEX.sol\":4161:4170  numStacks */\n      dup3\n        /* \"DEX.sol\":4156:4157  i */\n      dup2\n        /* \"DEX.sol\":4156:4170  i <= numStacks */\n      gt\n        /* \"DEX.sol\":4136:4307  for (uint256 i = 0; i <= numStacks; i++) {... */\n      tag_308\n      jumpi\n        /* \"DEX.sol\":4195:4217  Stack_Struct memory ss */\n      0x00\n        /* \"DEX.sol\":4220:4226  stacks */\n      dup5\n        /* \"DEX.sol\":4227:4228  i */\n      dup3\n        /* \"DEX.sol\":4220:4229  stacks[i] */\n      dup2\n      sload\n      dup2\n      lt\n      tag_311\n      jumpi\n      tag_311\n      tag_241\n      jump\t// in\n    tag_311:\n      swap1\n      0x00\n      mstore\n      keccak256(0x00, 0x20)\n      swap1\n      0x03\n      mul\n      add\n        /* \"DEX.sol\":4195:4229  Stack_Struct memory ss = stacks[i] */\n      mload(0x40)\n      dup1\n      0x60\n      add\n      0x40\n      mstore\n      swap1\n      dup2\n      0x00\n      dup3\n      add\n      sload\n      dup2\n      mstore\n      0x20\n      add\n      0x01\n      dup3\n      add\n      sload\n      dup2\n      mstore\n      0x20\n      add\n      0x02\n      dup3\n      add\n      sload\n      dup2\n      mstore\n      pop\n      pop\n      swap1\n      pop\n        /* \"DEX.sol\":4284:4286  ss */\n      dup1\n        /* \"DEX.sol\":4284:4291  ss.time */\n      0x40\n      add\n      mload\n        /* \"DEX.sol\":4266:4281  block.timestamp */\n      timestamp\n        /* \"DEX.sol\":4266:4291  block.timestamp - ss.time */\n      tag_313\n      swap2\n      swap1\n      tag_89\n      jump\t// in\n    tag_313:\n        /* \"DEX.sol\":4247:4292  totalStackTime += (block.timestamp - ss.time) */\n      tag_314\n      swap1\n      dup5\n      tag_102\n      jump\t// in\n    tag_314:\n      swap3\n      pop\n        /* \"DEX.sol\":4177:4307  {... */\n      pop\n        /* \"DEX.sol\":4172:4175  i++ */\n      dup1\n      dup1\n      tag_315\n      swap1\n      tag_316\n      jump\t// in\n    tag_315:\n      swap2\n      pop\n      pop\n        /* \"DEX.sol\":4136:4307  for (uint256 i = 0; i <= numStacks; i++) {... */\n      jump(tag_307)\n    tag_308:\n      pop\n        /* \"DEX.sol\":4325:4334  uint256 i */\n      0x00\n        /* \"DEX.sol\":4320:4817  for (uint256 i = 0; i <= numStacks; i++) {... */\n    tag_317:\n        /* \"DEX.sol\":4345:4354  numStacks */\n      dup3\n        /* \"DEX.sol\":4340:4341  i */\n      dup2\n        /* \"DEX.sol\":4340:4354  i <= numStacks */\n      gt\n        /* \"DEX.sol\":4320:4817  for (uint256 i = 0; i <= numStacks; i++) {... */\n      tag_318\n      jumpi\n        /* \"DEX.sol\":4379:4401  Stack_Struct memory ss */\n      0x00\n        /* \"DEX.sol\":4404:4410  stacks */\n      dup5\n        /* \"DEX.sol\":4411:4412  i */\n      dup3\n        /* \"DEX.sol\":4404:4413  stacks[i] */\n      dup2\n      sload\n      dup2\n      lt\n      tag_321\n      jumpi\n      tag_321\n      tag_241\n      jump\t// in\n    tag_321:\n      0x00\n      swap2\n      dup3\n      mstore\n      0x20\n      dup1\n      dup4\n      keccak256\n        /* \"DEX.sol\":4379:4413  Stack_Struct memory ss = stacks[i] */\n      0x40\n      dup1\n      mload\n      0x60\n      dup2\n      add\n      dup3\n      mstore\n        /* \"DEX.sol\":4404:4413  stacks[i] */\n      0x03\n      swap1\n      swap5\n      mul\n      swap1\n      swap2\n      add\n        /* \"DEX.sol\":4379:4413  Stack_Struct memory ss = stacks[i] */\n      dup1\n      sload\n      dup1\n      dup6\n      mstore\n      0x01\n      dup3\n      add\n      sload\n      swap4\n      dup6\n      add\n      swap4\n      swap1\n      swap4\n      mstore\n      0x02\n      add\n      sload\n      swap1\n      dup4\n      add\n      mstore\n        /* \"DEX.sol\":4483:4485  _x */\n      sload(0x06)\n        /* \"DEX.sol\":4470:4479  precision */\n      sload(0x08)\n        /* \"DEX.sol\":4379:4413  Stack_Struct memory ss = stacks[i] */\n      swap3\n      swap5\n      pop\n        /* \"DEX.sol\":4483:4485  _x */\n      swap2\n        /* \"DEX.sol\":4453:4479  ss.meme_amount * precision */\n      tag_323\n      swap2\n      tag_99\n      jump\t// in\n    tag_323:\n        /* \"DEX.sol\":4452:4485  (ss.meme_amount * precision) / _x */\n      tag_324\n      swap2\n      swap1\n      tag_87\n      jump\t// in\n    tag_324:\n        /* \"DEX.sol\":4431:4486  uint256 poolShare = ((ss.meme_amount * precision) / _x) */\n      swap1\n      pop\n        /* \"DEX.sol\":4504:4521  uint256 stackTime */\n      0x00\n        /* \"DEX.sol\":4543:4545  ss */\n      dup3\n        /* \"DEX.sol\":4543:4550  ss.time */\n      0x40\n      add\n      mload\n        /* \"DEX.sol\":4525:4540  block.timestamp */\n      timestamp\n        /* \"DEX.sol\":4525:4550  block.timestamp - ss.time */\n      tag_325\n      swap2\n      swap1\n      tag_89\n      jump\t// in\n    tag_325:\n        /* \"DEX.sol\":4504:4551  uint256 stackTime = (block.timestamp - ss.time) */\n      swap1\n      pop\n        /* \"DEX.sol\":4569:4588  uint256 stackWeight */\n      0x00\n        /* \"DEX.sol\":4591:4617  stackTime / totalStackTime */\n      tag_326\n        /* \"DEX.sol\":4603:4617  totalStackTime */\n      dup7\n        /* \"DEX.sol\":4504:4551  uint256 stackTime = (block.timestamp - ss.time) */\n      dup4\n        /* \"DEX.sol\":4591:4617  stackTime / totalStackTime */\n      tag_87\n      jump\t// in\n    tag_326:\n        /* \"DEX.sol\":4800:4802  _k */\n      sload(0x05)\n        /* \"DEX.sol\":4569:4617  uint256 stackWeight = stackTime / totalStackTime */\n      swap1\n      swap2\n      pop\n      dup2\n        /* \"DEX.sol\":4704:4712  dailyTax */\n      0x03\n        /* \"DEX.sol\":4704:4738  dailyTax[block.timestamp / 1 days] */\n      0x00\n        /* \"DEX.sol\":4713:4737  block.timestamp / 1 days */\n      tag_327\n        /* \"DEX.sol\":4731:4737  1 days */\n      0x015180\n        /* \"DEX.sol\":4713:4728  block.timestamp */\n      timestamp\n        /* \"DEX.sol\":4713:4737  block.timestamp / 1 days */\n      tag_87\n      jump\t// in\n    tag_327:\n        /* \"DEX.sol\":4704:4738  dailyTax[block.timestamp / 1 days] */\n      dup2\n      mstore\n      0x20\n      add\n      swap1\n      dup2\n      mstore\n      0x20\n      add\n      0x00\n      keccak256\n      sload\n        /* \"DEX.sol\":4668:4677  poolShare */\n      dup6\n        /* \"DEX.sol\":4668:4738  poolShare *... */\n      tag_328\n      swap2\n      swap1\n      tag_99\n      jump\t// in\n    tag_328:\n        /* \"DEX.sol\":4668:4776  poolShare *... */\n      tag_329\n      swap2\n      swap1\n      tag_99\n      jump\t// in\n    tag_329:\n        /* \"DEX.sol\":4667:4802  (poolShare *... */\n      tag_330\n      swap2\n      swap1\n      tag_87\n      jump\t// in\n    tag_330:\n        /* \"DEX.sol\":4635:4802  taxShare +=... */\n      tag_331\n      swap1\n      dup11\n      tag_102\n      jump\t// in\n    tag_331:\n      swap9\n      pop\n        /* \"DEX.sol\":4361:4817  {... */\n      pop\n      pop\n      pop\n      pop\n        /* \"DEX.sol\":4356:4359  i++ */\n      dup1\n      dup1\n      tag_332\n      swap1\n      tag_316\n      jump\t// in\n    tag_332:\n      swap2\n      pop\n      pop\n        /* \"DEX.sol\":4320:4817  for (uint256 i = 0; i <= numStacks; i++) {... */\n      jump(tag_317)\n    tag_318:\n      pop\n        /* \"DEX.sol\":3970:4827  {... */\n      pop\n      pop\n      pop\n        /* \"DEX.sol\":3926:4827  if (dailyTax[block.timestamp / 1 days] > 0) {... */\n    tag_306:\n        /* \"DEX.sol\":4843:4851  taxShare */\n      swap2\n        /* \"DEX.sol\":3828:4858  function _distributeTax() internal view returns (uint256) {... */\n      swap1\n      pop\n      jump\t// out\n        /* \"DEX.sol\":3510:3822  function _removeArr(uint256 index) internal {... */\n    tag_269:\n        /* \"DEX.sol\":3588:3598  msg.sender */\n      caller\n        /* \"DEX.sol\":3580:3599  Stacked[msg.sender] */\n      0x00\n      swap1\n      dup2\n      mstore\n        /* \"DEX.sol\":3580:3587  Stacked */\n      0x02\n        /* \"DEX.sol\":3580:3599  Stacked[msg.sender] */\n      0x20\n      mstore\n      0x40\n      swap1\n      keccak256\n        /* \"DEX.sol\":3580:3606  Stacked[msg.sender].length */\n      sload\n        /* \"DEX.sol\":3572:3606  index < Stacked[msg.sender].length */\n      dup2\n      lt\n        /* \"DEX.sol\":3564:3630  require(index < Stacked[msg.sender].length, \"Index out of bounds\") */\n      tag_334\n      jumpi\n      mload(0x40)\n      shl(0xe5, 0x461bcd)\n      dup2\n      mstore\n        /* \"#utility.yul\":9776:9778   */\n      0x20\n        /* \"DEX.sol\":3564:3630  require(index < Stacked[msg.sender].length, \"Index out of bounds\") */\n      0x04\n      dup3\n      add\n        /* \"#utility.yul\":9758:9779   */\n      mstore\n        /* \"#utility.yul\":9815:9817   */\n      0x13\n        /* \"#utility.yul\":9795:9813   */\n      0x24\n      dup3\n      add\n        /* \"#utility.yul\":9788:9818   */\n      mstore\n      shl(0x68, 0x496e646578206f7574206f6620626f756e6473)\n        /* \"#utility.yul\":9834:9852   */\n      0x44\n      dup3\n      add\n        /* \"#utility.yul\":9827:9876   */\n      mstore\n        /* \"#utility.yul\":9893:9911   */\n      0x64\n      add\n        /* \"DEX.sol\":3564:3630  require(index < Stacked[msg.sender].length, \"Index out of bounds\") */\n      tag_83\n        /* \"#utility.yul\":9574:9917   */\n      jump\n        /* \"DEX.sol\":3564:3630  require(index < Stacked[msg.sender].length, \"Index out of bounds\") */\n    tag_334:\n        /* \"DEX.sol\":3657:3662  index */\n      dup1\n        /* \"DEX.sol\":3640:3781  for (uint256 i = index; i < Stacked[msg.sender].length - 1; i++) {... */\n    tag_337:\n        /* \"DEX.sol\":3676:3686  msg.sender */\n      caller\n        /* \"DEX.sol\":3668:3687  Stacked[msg.sender] */\n      0x00\n      swap1\n      dup2\n      mstore\n        /* \"DEX.sol\":3668:3675  Stacked */\n      0x02\n        /* \"DEX.sol\":3668:3687  Stacked[msg.sender] */\n      0x20\n      mstore\n      0x40\n      swap1\n      keccak256\n        /* \"DEX.sol\":3668:3694  Stacked[msg.sender].length */\n      sload\n        /* \"DEX.sol\":3668:3698  Stacked[msg.sender].length - 1 */\n      tag_340\n      swap1\n        /* \"DEX.sol\":3697:3698  1 */\n      0x01\n      swap1\n        /* \"DEX.sol\":3668:3698  Stacked[msg.sender].length - 1 */\n      tag_89\n      jump\t// in\n    tag_340:\n        /* \"DEX.sol\":3664:3665  i */\n      dup2\n        /* \"DEX.sol\":3664:3698  i < Stacked[msg.sender].length - 1 */\n      lt\n        /* \"DEX.sol\":3640:3781  for (uint256 i = index; i < Stacked[msg.sender].length - 1; i++) {... */\n      iszero\n      tag_338\n      jumpi\n        /* \"DEX.sol\":3752:3762  msg.sender */\n      caller\n        /* \"DEX.sol\":3744:3763  Stacked[msg.sender] */\n      0x00\n      swap1\n      dup2\n      mstore\n        /* \"DEX.sol\":3744:3751  Stacked */\n      0x02\n        /* \"DEX.sol\":3744:3763  Stacked[msg.sender] */\n      0x20\n      mstore\n      0x40\n      swap1\n      keccak256\n        /* \"DEX.sol\":3764:3769  i + 1 */\n      tag_341\n        /* \"DEX.sol\":3764:3765  i */\n      dup3\n        /* \"DEX.sol\":3768:3769  1 */\n      0x01\n        /* \"DEX.sol\":3764:3769  i + 1 */\n      tag_102\n      jump\t// in\n    tag_341:\n        /* \"DEX.sol\":3744:3770  Stacked[msg.sender][i + 1] */\n      dup2\n      sload\n      dup2\n      lt\n      tag_343\n      jumpi\n      tag_343\n      tag_241\n      jump\t// in\n    tag_343:\n      swap1\n      0x00\n      mstore\n      keccak256(0x00, 0x20)\n      swap1\n      0x03\n      mul\n      add\n        /* \"DEX.sol\":3719:3726  Stacked */\n      0x02\n        /* \"DEX.sol\":3719:3738  Stacked[msg.sender] */\n      0x00\n        /* \"DEX.sol\":3727:3737  msg.sender */\n      caller\n      sub(shl(0xa0, 0x01), 0x01)\n        /* \"DEX.sol\":3719:3738  Stacked[msg.sender] */\n      and\n      sub(shl(0xa0, 0x01), 0x01)\n      and\n      dup2\n      mstore\n      0x20\n      add\n      swap1\n      dup2\n      mstore\n      0x20\n      add\n      0x00\n      keccak256\n        /* \"DEX.sol\":3739:3740  i */\n      dup3\n        /* \"DEX.sol\":3719:3741  Stacked[msg.sender][i] */\n      dup2\n      sload\n      dup2\n      lt\n      tag_346\n      jumpi\n      tag_346\n      tag_241\n      jump\t// in\n    tag_346:\n      0x00\n      swap2\n      dup3\n      mstore\n      0x20\n      swap1\n      swap2\n      keccak256\n        /* \"DEX.sol\":3719:3770  Stacked[msg.sender][i] = Stacked[msg.sender][i + 1] */\n      dup3\n      sload\n        /* \"DEX.sol\":3719:3741  Stacked[msg.sender][i] */\n      0x03\n      swap1\n      swap3\n      mul\n      add\n        /* \"DEX.sol\":3719:3770  Stacked[msg.sender][i] = Stacked[msg.sender][i + 1] */\n      swap1\n      dup2\n      sstore\n      0x01\n      dup1\n      dup4\n      add\n      sload\n      swap1\n      dup3\n      add\n      sstore\n      0x02\n      swap2\n      dup3\n      add\n      sload\n      swap2\n      add\n      sstore\n        /* \"DEX.sol\":3700:3703  i++ */\n      dup1\n      tag_348\n      dup2\n      tag_316\n      jump\t// in\n    tag_348:\n      swap2\n      pop\n      pop\n        /* \"DEX.sol\":3640:3781  for (uint256 i = index; i < Stacked[msg.sender].length - 1; i++) {... */\n      jump(tag_337)\n    tag_338:\n      pop\n        /* \"DEX.sol\":3798:3808  msg.sender */\n      caller\n        /* \"DEX.sol\":3790:3809  Stacked[msg.sender] */\n      0x00\n      swap1\n      dup2\n      mstore\n        /* \"DEX.sol\":3790:3797  Stacked */\n      0x02\n        /* \"DEX.sol\":3790:3809  Stacked[msg.sender] */\n      0x20\n      mstore\n      0x40\n      swap1\n      keccak256\n        /* \"DEX.sol\":3790:3815  Stacked[msg.sender].pop() */\n      dup1\n      sload\n      dup1\n      tag_350\n      jumpi\n      tag_350\n      tag_351\n      jump\t// in\n    tag_350:\n      0x00\n      dup3\n      dup2\n      mstore\n      0x20\n      dup2\n      keccak256\n      0x03\n      not(0x00)\n      swap1\n      swap4\n      add\n      swap3\n      dup4\n      mul\n      add\n      dup2\n      dup2\n      sstore\n      0x01\n      dup2\n      add\n      dup3\n      swap1\n      sstore\n      0x02\n      add\n      sstore\n      swap1\n      sstore\n      pop\n        /* \"DEX.sol\":3510:3822  function _removeArr(uint256 index) internal {... */\n      jump\t// out\n        /* \"DEX.sol\":1315:1373  function _updateK() internal {... */\n    tag_271:\n        /* \"DEX.sol\":1364:1366  _y */\n      sload(0x07)\n        /* \"DEX.sol\":1359:1361  _x */\n      sload(0x06)\n        /* \"DEX.sol\":1359:1366  _x * _y */\n      tag_354\n      swap2\n      swap1\n      tag_99\n      jump\t// in\n    tag_354:\n        /* \"DEX.sol\":1354:1356  _k */\n      0x05\n        /* \"DEX.sol\":1354:1366  _k = _x * _y */\n      sstore\n        /* \"DEX.sol\":1315:1373  function _updateK() internal {... */\n      jump\t// out\n        /* \"@openzeppelin/contracts/security/Pausable.sol\":1945:2051  function _requirePaused() internal view virtual {... */\n    tag_282:\n        /* \"@openzeppelin/contracts/security/Pausable.sol\":1662:1666  bool */\n      0x00\n        /* \"@openzeppelin/contracts/security/Pausable.sol\":1685:1692  _paused */\n      sload\n      0xff\n      and\n        /* \"@openzeppelin/contracts/security/Pausable.sol\":2003:2044  require(paused(), \"Pausable: not paused\") */\n      tag_115\n      jumpi\n      mload(0x40)\n      shl(0xe5, 0x461bcd)\n      dup2\n      mstore\n        /* \"#utility.yul\":10256:10258   */\n      0x20\n        /* \"@openzeppelin/contracts/security/Pausable.sol\":2003:2044  require(paused(), \"Pausable: not paused\") */\n      0x04\n      dup3\n      add\n        /* \"#utility.yul\":10238:10259   */\n      mstore\n        /* \"#utility.yul\":10295:10297   */\n      0x14\n        /* \"#utility.yul\":10275:10293   */\n      0x24\n      dup3\n      add\n        /* \"#utility.yul\":10268:10298   */\n      mstore\n      shl(0x62, 0x14185d5cd8589b194e881b9bdd081c185d5cd959)\n        /* \"#utility.yul\":10314:10332   */\n      0x44\n      dup3\n      add\n        /* \"#utility.yul\":10307:10357   */\n      mstore\n        /* \"#utility.yul\":10374:10392   */\n      0x64\n      add\n        /* \"@openzeppelin/contracts/security/Pausable.sol\":2003:2044  require(paused(), \"Pausable: not paused\") */\n      tag_83\n        /* \"#utility.yul\":10054:10398   */\n      jump\n        /* \"#utility.yul\":14:194   */\n    tag_22:\n        /* \"#utility.yul\":73:79   */\n      0x00\n        /* \"#utility.yul\":126:128   */\n      0x20\n        /* \"#utility.yul\":114:123   */\n      dup3\n        /* \"#utility.yul\":105:112   */\n      dup5\n        /* \"#utility.yul\":101:124   */\n      sub\n        /* \"#utility.yul\":97:129   */\n      slt\n        /* \"#utility.yul\":94:146   */\n      iszero\n      tag_364\n      jumpi\n        /* \"#utility.yul\":142:143   */\n      0x00\n        /* \"#utility.yul\":139:140   */\n      dup1\n        /* \"#utility.yul\":132:144   */\n      revert\n        /* \"#utility.yul\":94:146   */\n    tag_364:\n      pop\n        /* \"#utility.yul\":165:188   */\n      calldataload\n      swap2\n        /* \"#utility.yul\":14:194   */\n      swap1\n      pop\n      jump\t// out\n        /* \"#utility.yul\":781:1632   */\n    tag_72:\n        /* \"#utility.yul\":1010:1012   */\n      0x20\n        /* \"#utility.yul\":1062:1083   */\n      dup1\n      dup3\n      mstore\n        /* \"#utility.yul\":1132:1145   */\n      dup3\n      mload\n        /* \"#utility.yul\":1035:1053   */\n      dup3\n      dup3\n      add\n        /* \"#utility.yul\":1154:1176   */\n      dup2\n      swap1\n      mstore\n        /* \"#utility.yul\":981:985   */\n      0x00\n      swap2\n        /* \"#utility.yul\":1010:1012   */\n      swap1\n        /* \"#utility.yul\":1195:1197   */\n      0x40\n      swap1\n        /* \"#utility.yul\":1213:1231   */\n      dup2\n      dup6\n      add\n      swap1\n        /* \"#utility.yul\":1254:1269   */\n      dup7\n      dup5\n      add\n        /* \"#utility.yul\":981:985   */\n      dup6\n        /* \"#utility.yul\":1297:1606   */\n    tag_369:\n        /* \"#utility.yul\":1311:1317   */\n      dup3\n        /* \"#utility.yul\":1308:1309   */\n      dup2\n        /* \"#utility.yul\":1305:1318   */\n      lt\n        /* \"#utility.yul\":1297:1606   */\n      iszero\n      tag_371\n      jumpi\n        /* \"#utility.yul\":1370:1383   */\n      dup2\n      mload\n        /* \"#utility.yul\":1408:1417   */\n      dup1\n      mload\n        /* \"#utility.yul\":1396:1418   */\n      dup6\n      mstore\n        /* \"#utility.yul\":1458:1469   */\n      dup7\n      dup2\n      add\n        /* \"#utility.yul\":1452:1470   */\n      mload\n        /* \"#utility.yul\":1438:1450   */\n      dup8\n      dup7\n      add\n        /* \"#utility.yul\":1431:1471   */\n      mstore\n        /* \"#utility.yul\":1511:1522   */\n      dup6\n      add\n        /* \"#utility.yul\":1505:1523   */\n      mload\n        /* \"#utility.yul\":1491:1503   */\n      dup6\n      dup6\n      add\n        /* \"#utility.yul\":1484:1524   */\n      mstore\n        /* \"#utility.yul\":1553:1557   */\n      0x60\n        /* \"#utility.yul\":1544:1558   */\n      swap1\n      swap4\n      add\n      swap3\n        /* \"#utility.yul\":1581:1596   */\n      swap1\n      dup6\n      add\n      swap1\n        /* \"#utility.yul\":1333:1334   */\n      0x01\n        /* \"#utility.yul\":1326:1335   */\n      add\n        /* \"#utility.yul\":1297:1606   */\n      jump(tag_369)\n    tag_371:\n      pop\n        /* \"#utility.yul\":1623:1626   */\n      swap2\n      swap8\n        /* \"#utility.yul\":781:1632   */\n      swap7\n      pop\n      pop\n      pop\n      pop\n      pop\n      pop\n      pop\n      jump\t// out\n        /* \"#utility.yul\":1637:1923   */\n    tag_76:\n        /* \"#utility.yul\":1696:1702   */\n      0x00\n        /* \"#utility.yul\":1749:1751   */\n      0x20\n        /* \"#utility.yul\":1737:1746   */\n      dup3\n        /* \"#utility.yul\":1728:1735   */\n      dup5\n        /* \"#utility.yul\":1724:1747   */\n      sub\n        /* \"#utility.yul\":1720:1752   */\n      slt\n        /* \"#utility.yul\":1717:1769   */\n      iszero\n      tag_373\n      jumpi\n        /* \"#utility.yul\":1765:1766   */\n      0x00\n        /* \"#utility.yul\":1762:1763   */\n      dup1\n        /* \"#utility.yul\":1755:1767   */\n      revert\n        /* \"#utility.yul\":1717:1769   */\n    tag_373:\n        /* \"#utility.yul\":1791:1814   */\n      dup2\n      calldataload\n      sub(shl(0xa0, 0x01), 0x01)\n        /* \"#utility.yul\":1843:1874   */\n      dup2\n      and\n        /* \"#utility.yul\":1833:1875   */\n      dup2\n      eq\n        /* \"#utility.yul\":1823:1893   */\n      tag_374\n      jumpi\n        /* \"#utility.yul\":1889:1890   */\n      0x00\n        /* \"#utility.yul\":1886:1887   */\n      dup1\n        /* \"#utility.yul\":1879:1891   */\n      revert\n        /* \"#utility.yul\":1823:1893   */\n    tag_374:\n        /* \"#utility.yul\":1912:1917   */\n      swap4\n        /* \"#utility.yul\":1637:1923   */\n      swap3\n      pop\n      pop\n      pop\n      jump\t// out\n        /* \"#utility.yul\":2277:2404   */\n    tag_361:\n        /* \"#utility.yul\":2338:2348   */\n      0x4e487b71\n        /* \"#utility.yul\":2333:2336   */\n      0xe0\n        /* \"#utility.yul\":2329:2349   */\n      shl\n        /* \"#utility.yul\":2326:2327   */\n      0x00\n        /* \"#utility.yul\":2319:2350   */\n      mstore\n        /* \"#utility.yul\":2369:2373   */\n      0x11\n        /* \"#utility.yul\":2366:2367   */\n      0x04\n        /* \"#utility.yul\":2359:2374   */\n      mstore\n        /* \"#utility.yul\":2393:2397   */\n      0x24\n        /* \"#utility.yul\":2390:2391   */\n      0x00\n        /* \"#utility.yul\":2383:2398   */\n      revert\n        /* \"#utility.yul\":2409:2626   */\n    tag_87:\n        /* \"#utility.yul\":2449:2450   */\n      0x00\n        /* \"#utility.yul\":2475:2476   */\n      dup3\n        /* \"#utility.yul\":2465:2597   */\n      tag_378\n      jumpi\n        /* \"#utility.yul\":2519:2529   */\n      0x4e487b71\n        /* \"#utility.yul\":2514:2517   */\n      0xe0\n        /* \"#utility.yul\":2510:2530   */\n      shl\n        /* \"#utility.yul\":2507:2508   */\n      0x00\n        /* \"#utility.yul\":2500:2531   */\n      mstore\n        /* \"#utility.yul\":2554:2558   */\n      0x12\n        /* \"#utility.yul\":2551:2552   */\n      0x04\n        /* \"#utility.yul\":2544:2559   */\n      mstore\n        /* \"#utility.yul\":2582:2586   */\n      0x24\n        /* \"#utility.yul\":2579:2580   */\n      0x00\n        /* \"#utility.yul\":2572:2587   */\n      revert\n        /* \"#utility.yul\":2465:2597   */\n    tag_378:\n      pop\n        /* \"#utility.yul\":2611:2620   */\n      div\n      swap1\n        /* \"#utility.yul\":2409:2626   */\n      jump\t// out\n        /* \"#utility.yul\":2631:2759   */\n    tag_89:\n        /* \"#utility.yul\":2698:2707   */\n      dup2\n      dup2\n      sub\n        /* \"#utility.yul\":2719:2730   */\n      dup2\n      dup2\n      gt\n        /* \"#utility.yul\":2716:2753   */\n      iszero\n      tag_381\n      jumpi\n        /* \"#utility.yul\":2733:2751   */\n      tag_381\n      tag_361\n      jump\t// in\n    tag_381:\n        /* \"#utility.yul\":2631:2759   */\n      swap3\n      swap2\n      pop\n      pop\n      jump\t// out\n        /* \"#utility.yul\":2764:2932   */\n    tag_99:\n        /* \"#utility.yul\":2837:2846   */\n      dup1\n      dup3\n      mul\n        /* \"#utility.yul\":2868:2877   */\n      dup2\n      iszero\n        /* \"#utility.yul\":2885:2900   */\n      dup3\n      dup3\n      div\n        /* \"#utility.yul\":2879:2901   */\n      dup5\n      eq\n        /* \"#utility.yul\":2865:2902   */\n      or\n        /* \"#utility.yul\":2855:2926   */\n      tag_381\n      jumpi\n        /* \"#utility.yul\":2906:2924   */\n      tag_381\n      tag_361\n      jump\t// in\n        /* \"#utility.yul\":2937:3062   */\n    tag_102:\n        /* \"#utility.yul\":3002:3011   */\n      dup1\n      dup3\n      add\n        /* \"#utility.yul\":3023:3033   */\n      dup1\n      dup3\n      gt\n        /* \"#utility.yul\":3020:3056   */\n      iszero\n      tag_381\n      jumpi\n        /* \"#utility.yul\":3036:3054   */\n      tag_381\n      tag_361\n      jump\t// in\n        /* \"#utility.yul\":4386:4663   */\n    tag_163:\n        /* \"#utility.yul\":4453:4459   */\n      0x00\n        /* \"#utility.yul\":4506:4508   */\n      0x20\n        /* \"#utility.yul\":4494:4503   */\n      dup3\n        /* \"#utility.yul\":4485:4492   */\n      dup5\n        /* \"#utility.yul\":4481:4504   */\n      sub\n        /* \"#utility.yul\":4477:4509   */\n      slt\n        /* \"#utility.yul\":4474:4526   */\n      iszero\n      tag_393\n      jumpi\n        /* \"#utility.yul\":4522:4523   */\n      0x00\n        /* \"#utility.yul\":4519:4520   */\n      dup1\n        /* \"#utility.yul\":4512:4524   */\n      revert\n        /* \"#utility.yul\":4474:4526   */\n    tag_393:\n        /* \"#utility.yul\":4554:4563   */\n      dup2\n        /* \"#utility.yul\":4548:4564   */\n      mload\n        /* \"#utility.yul\":4607:4612   */\n      dup1\n        /* \"#utility.yul\":4600:4613   */\n      iszero\n        /* \"#utility.yul\":4593:4614   */\n      iszero\n        /* \"#utility.yul\":4586:4591   */\n      dup2\n        /* \"#utility.yul\":4583:4615   */\n      eq\n        /* \"#utility.yul\":4573:4633   */\n      tag_374\n      jumpi\n        /* \"#utility.yul\":4629:4630   */\n      0x00\n        /* \"#utility.yul\":4626:4627   */\n      dup1\n        /* \"#utility.yul\":4619:4631   */\n      revert\n        /* \"#utility.yul\":6298:6482   */\n    tag_203:\n        /* \"#utility.yul\":6368:6374   */\n      0x00\n        /* \"#utility.yul\":6421:6423   */\n      0x20\n        /* \"#utility.yul\":6409:6418   */\n      dup3\n        /* \"#utility.yul\":6400:6407   */\n      dup5\n        /* \"#utility.yul\":6396:6419   */\n      sub\n        /* \"#utility.yul\":6392:6424   */\n      slt\n        /* \"#utility.yul\":6389:6441   */\n      iszero\n      tag_401\n      jumpi\n        /* \"#utility.yul\":6437:6438   */\n      0x00\n        /* \"#utility.yul\":6434:6435   */\n      dup1\n        /* \"#utility.yul\":6427:6439   */\n      revert\n        /* \"#utility.yul\":6389:6441   */\n    tag_401:\n      pop\n        /* \"#utility.yul\":6460:6476   */\n      mload\n      swap2\n        /* \"#utility.yul\":6298:6482   */\n      swap1\n      pop\n      jump\t// out\n        /* \"#utility.yul\":7974:8101   */\n    tag_241:\n        /* \"#utility.yul\":8035:8045   */\n      0x4e487b71\n        /* \"#utility.yul\":8030:8033   */\n      0xe0\n        /* \"#utility.yul\":8026:8046   */\n      shl\n        /* \"#utility.yul\":8023:8024   */\n      0x00\n        /* \"#utility.yul\":8016:8047   */\n      mstore\n        /* \"#utility.yul\":8066:8070   */\n      0x32\n        /* \"#utility.yul\":8063:8064   */\n      0x04\n        /* \"#utility.yul\":8056:8071   */\n      mstore\n        /* \"#utility.yul\":8090:8094   */\n      0x24\n        /* \"#utility.yul\":8087:8088   */\n      0x00\n        /* \"#utility.yul\":8080:8095   */\n      revert\n        /* \"#utility.yul\":9434:9569   */\n    tag_316:\n        /* \"#utility.yul\":9473:9476   */\n      0x00\n        /* \"#utility.yul\":9494:9511   */\n      0x01\n      dup3\n      add\n        /* \"#utility.yul\":9491:9534   */\n      tag_412\n      jumpi\n        /* \"#utility.yul\":9514:9532   */\n      tag_412\n      tag_361\n      jump\t// in\n    tag_412:\n      pop\n        /* \"#utility.yul\":9561:9562   */\n      0x01\n        /* \"#utility.yul\":9550:9563   */\n      add\n      swap1\n        /* \"#utility.yul\":9434:9569   */\n      jump\t// out\n        /* \"#utility.yul\":9922:10049   */\n    tag_351:\n        /* \"#utility.yul\":9983:9993   */\n      0x4e487b71\n        /* \"#utility.yul\":9978:9981   */\n      0xe0\n        /* \"#utility.yul\":9974:9994   */\n      shl\n        /* \"#utility.yul\":9971:9972   */\n      0x00\n        /* \"#utility.yul\":9964:9995   */\n      mstore\n        /* \"#utility.yul\":10014:10018   */\n      0x31\n        /* \"#utility.yul\":10011:10012   */\n      0x04\n        /* \"#utility.yul\":10004:10019   */\n      mstore\n        /* \"#utility.yul\":10038:10042   */\n      0x24\n        /* \"#utility.yul\":10035:10036   */\n      0x00\n        /* \"#utility.yul\":10028:10043   */\n      revert\n\n    auxdata: 0xa2646970667358221220c72032e6ecbf6c4ac3929d7553730789b0ff574d3ec0cd0e3262f9ab8aac6e7664736f6c63430008140033\n}\n",
				"bytecode": {
					"linkReferences": {},
					"object": "6080604052678ac7230489e80000600855600a6008546003620000239190620000f3565b6200002f91906200011d565b6009553480156200003e575f80fd5b50604051620017d9380380620017d983398101604081905262000061916200013d565b5f805460ff1916905562000075336200009b565b600180546001600160a01b0319166001600160a01b03929092169190911790556200016c565b5f80546001600160a01b03838116610100818102610100600160a81b0319851617855560405193049190911692909183917f8be0079c531659141344cd1fd0a4f28419497f9722a3daafe3b4186f6b6457e091a35050565b80820281158282048414176200011757634e487b7160e01b5f52601160045260245ffd5b92915050565b5f826200013857634e487b7160e01b5f52601260045260245ffd5b500490565b5f602082840312156200014e575f80fd5b81516001600160a01b038116811462000165575f80fd5b9392505050565b61165f806200017a5f395ff3fe6080604052600436106100d9575f3560e01c80638da5cb5b1161007c578063dc9031c411610057578063dc9031c414610208578063e4849b321461021b578063e8bca8b81461023a578063f2fde38b1461025b575f80fd5b80638da5cb5b146101ac5780639c74f05d146101e0578063d96a094a146101f5575f80fd5b80635c572ed0116100b75780635c572ed0146101445780635c975abb14610163578063715018a6146101845780638456cb5914610198575f80fd5b80631a753fed146100dd578063200061df1461010f5780633f4ba83a14610130575b5f80fd5b3480156100e8575f80fd5b506100fc6100f73660046114a1565b61027a565b6040519081526020015b60405180910390f35b34801561011a575f80fd5b5061012e6101293660046114a1565b61038d565b005b34801561013b575f80fd5b5061012e6103a1565b34801561014f575f80fd5b506100fc61015e3660046114a1565b6103b3565b34801561016e575f80fd5b505f5460ff166040519015158152602001610106565b34801561018f575f80fd5b5061012e61048b565b3480156101a3575f80fd5b5061012e61049c565b3480156101b7575f80fd5b505f5461010090046001600160a01b03166040516001600160a01b039091168152602001610106565b3480156101eb575f80fd5b506100fc60045481565b61012e6102033660046114a1565b6104ac565b61012e6102163660046114a1565b6106a6565b348015610226575f80fd5b5061012e6102353660046114a1565b610799565b348015610245575f80fd5b5061024e6109ff565b60405161010691906114b8565b348015610266575f80fd5b5061012e610275366004611510565b610a83565b5f610283610af9565b5f600554116102d05760405162461bcd60e51b81526020600482015260146024820152734e6f7420656e6f756768206c697175696469747960601b60448201526064015b60405180910390fd5b5f806006545f036102fc578360016005546102eb9190611551565b6102f59190611570565b905061031a565b8360065460055461030d9190611551565b6103179190611570565b90505b805f036103375760016005546103309190611551565b9150610348565b806005546103459190611551565b91505b5f600654836103579190611570565b90505f6008546009548361036b9190611589565b6103759190611551565b90505f61038282846115a0565b979650505050505050565b610395610af9565b61039e81610b3e565b50565b6103a9610e87565b6103b1610ee6565b565b5f6103bc610af9565b5f600554116104045760405162461bcd60e51b81526020600482015260146024820152734e6f7420656e6f756768206c697175696469747960601b60448201526064016102c7565b5f806007545f036104305783600160055461041f9190611551565b6104299190611570565b915061044e565b836007546005546104419190611551565b61044b9190611570565b91505b815f0361046b5760016005546104649190611551565b905061047c565b816005546104799190611551565b90505b5f600754826103579190611570565b610493610e87565b6103b15f610f37565b6104a4610e87565b6103b1610f8f565b6104b4610af9565b5f81116104f45760405162461bcd60e51b815260206004820152600e60248201526d53656e6420536f6d65204d656d6560901b60448201526064016102c7565b5f6104fe826103b3565b9050348111156105405760405162461bcd60e51b815260206004820152600d60248201526c0a6cadcc8409adee4ca408aa89609b1b60448201526064016102c7565b60015460405163a9059cbb60e01b8152336004820152602481018490526001600160a01b039091169063a9059cbb906044016020604051808303815f875af115801561058e573d5f803e3d5ffd5b505050506040513d601f19601f820116820180604052508101906105b291906115b3565b50336108fc6105c18334611570565b6040518115909202915f818181858888f193505050501580156105e6573d5f803e3d5ffd5b506008546009546105f790826115a0565b6106019084611589565b61060b9190611551565b60035f61061b6201518042611551565b81526020019081526020015f205f82825461063691906115a0565b925050819055508160065f82825461064e9190611570565b90915550506006546005546106639190611551565b600755604080518381526020810183905233917f1cbc5ab135991bd2b6a4b034a04aa2aa086dac1371cb9b16b8b5e2ed6b036bed91015b60405180910390a25050565b6106ae610af9565b5f81116106ee5760405162461bcd60e51b815260206004820152600e60248201526d53656e64206d6f7265204d454d4560901b60448201526064016102c7565b5f341161072d5760405162461bcd60e51b815260206004820152600d60248201526c0a6cadcc840dadee4ca408aa89609b1b60448201526064016102c7565b806008543461073c9190611589565b6107469190611551565b600454111561078f5760405162461bcd60e51b815260206004820152601560248201527414dd1858dada5b99c814985d19481b9bdd081b595d605a1b60448201526064016102c7565b61039e8134610fcb565b6107a1610af9565b5f81116107e05760405162461bcd60e51b815260206004820152600d60248201526c0a6cadcc840a6dedaca408aa89609b1b60448201526064016102c7565b5f6107ea8261027a565b6001546040516370a0823160e01b81523360048201529192506001600160a01b0316906370a0823190602401602060405180830381865afa158015610831573d5f803e3d5ffd5b505050506040513d601f19601f8201168201806040525081019061085591906115d2565b8111156108a45760405162461bcd60e51b815260206004820152601a60248201527f596f7520646f6e2774206861766520656e6f756768206d656d6500000000000060448201526064016102c7565b6001546040516323b872dd60e01b8152336004820152306024820152604481018390526001600160a01b03909116906323b872dd906064016020604051808303815f875af11580156108f8573d5f803e3d5ffd5b505050506040513d601f19601f8201168201806040525081019061091c91906115b3565b50604051339083156108fc029084905f818181858888f19350505050158015610947573d5f803e3d5ffd5b5060085460095461095890826115a0565b6109629083611589565b61096c9190611551565b60035f61097c6201518042611551565b81526020019081526020015f205f82825461099791906115a0565b925050819055508160075f8282546109af9190611570565b90915550506007546005546109c49190611551565b600655604080518281526020810184905233917fed7a144fad14804d5c249145e3e0e2b63a9eb455b76aee5bc92d711e9bba3e4a910161069a565b335f908152600260209081526040808320805482518185028101850190935280835260609492939192909184015b82821015610a7a578382905f5260205f2090600302016040518060600160405290815f82015481526020016001820154815260200160028201548152505081526020019060010190610a2d565b50505050905090565b610a8b610e87565b6001600160a01b038116610af05760405162461bcd60e51b815260206004820152602660248201527f4f776e61626c653a206e6577206f776e657220697320746865207a65726f206160448201526564647265737360d01b60648201526084016102c7565b61039e81610f37565b5f5460ff16156103b15760405162461bcd60e51b815260206004820152601060248201526f14185d5cd8589b194e881c185d5cd95960821b60448201526064016102c7565b335f908152600260205260408120805483908110610b5e57610b5e6115e9565b905f5260205f2090600302016040518060600160405290815f82015481526020016001820154815260200160028201548152505090505f610b9d61112d565b82516020840151919250905f90610bb59084906115a0565b6001546040516370a0823160e01b815230600482015291925083916001600160a01b03909116906370a0823190602401602060405180830381865afa158015610c00573d5f803e3d5ffd5b505050506040513d601f19601f82011682018060405250810190610c2491906115d2565b1015610cac5760405162461bcd60e51b815260206004820152604b60248201527f536f7272792043757272656e746c79207468697320636f6e747261637420646f60448201527f65736e27742068617665204d656d6520746f2072657475726e2c20436865636b60648201526a206261636b20536f6f6e2160a81b608482015260a4016102c7565b80471015610d355760405162461bcd60e51b815260206004820152604a60248201527f536f7272792043757272656e746c79207468697320636f6e747261637420646f60448201527f65736e277420686176652045746820746f2072657475726e2c20436865636b206064820152696261636b20536f6f6e2160b01b608482015260a4016102c7565b8160065f828254610d469190611570565b925050819055508060075f828254610d5e9190611570565b909155505060015460405163a9059cbb60e01b8152336004820152602481018490526001600160a01b039091169063a9059cbb906044016020604051808303815f875af1158015610db1573d5f803e3d5ffd5b505050506040513d601f19601f82011682018060405250810190610dd591906115b3565b50604051339082156108fc029083905f818181858888f19350505050158015610e00573d5f803e3d5ffd5b506006545f03610e13575f600455610e34565b600654600854600754610e269190611589565b610e309190611551565b6004555b610e3d856112e7565b610e45611444565b604080518381526020810183905233917fbb564df1f5d4ebb97b073adcab505c7796a37035ac5d14f51269660939c39cf4910160405180910390a25050505050565b5f546001600160a01b036101009091041633146103b15760405162461bcd60e51b815260206004820181905260248201527f4f776e61626c653a2063616c6c6572206973206e6f7420746865206f776e657260448201526064016102c7565b610eee611459565b5f805460ff191690557f5db9ee0a495bf2e6ff9c91a7834c1ba4fdd244a5e8aa4e537bd38aeae4b073aa335b6040516001600160a01b03909116815260200160405180910390a1565b5f80546001600160a01b03838116610100818102610100600160a81b0319851617855560405193049190911692909183917f8be0079c531659141344cd1fd0a4f28419497f9722a3daafe3b4186f6b6457e091a35050565b610f97610af9565b5f805460ff191660011790557f62e78cea01bee320cd4e420270b5ea74000d11b0c9f74754ebdbfc544b05a258610f1a3390565b6001546040516323b872dd60e01b8152336004820152306024820152604481018490526001600160a01b03909116906323b872dd906064016020604051808303815f875af115801561101f573d5f803e3d5ffd5b505050506040513d601f19601f8201168201806040525081019061104391906115b3565b508160065f82825461105591906115a0565b925050819055508060075f82825461106d91906115a0565b909155505060408051606081018252838152602080820184815242838501908152335f9081526002808552958120805460018181018355918352949091208551600390950201938455915191830191909155519201919091556006546008546007546110d99190611589565b6110e39190611551565b6004556110ee611444565b6040805184815234602082015233917f5caad8f5613b6f1d592fc8c69d8f0999453740f0806c754f20cc92f3d4b2b1b6910160405180910390a2505050565b5f80806003816111406201518042611551565b81526020019081526020015f205411156112e257335f90815260026020526040812080549091805b8281116111e8575f848281548110611182576111826115e9565b905f5260205f2090600302016040518060600160405290815f82015481526020016001820154815260200160028201548152505090508060400151426111c89190611570565b6111d290846115a0565b92505080806111e0906115fd565b915050611168565b505f5b8281116112dd575f848281548110611205576112056115e9565b5f9182526020808320604080516060810182526003909402909101805480855260018201549385019390935260020154908301526006546008549294509161124c91611589565b6112569190611551565b90505f8260400151426112699190611570565b90505f6112768683611551565b6005549091508160035f61128d6201518042611551565b81526020019081526020015f2054856112a69190611589565b6112b09190611589565b6112ba9190611551565b6112c4908a6115a0565b98505050505080806112d5906115fd565b9150506111eb565b505050505b919050565b335f90815260026020526040902054811061133a5760405162461bcd60e51b8152602060048201526013602482015272496e646578206f7574206f6620626f756e647360681b60448201526064016102c7565b805b335f9081526002602052604090205461135790600190611570565b81101561140057335f9081526002602052604090206113778260016115a0565b81548110611387576113876115e9565b905f5260205f20906003020160025f336001600160a01b03166001600160a01b031681526020019081526020015f2082815481106113c7576113c76115e9565b5f9182526020909120825460039092020190815560018083015490820155600291820154910155806113f8816115fd565b91505061133c565b50335f90815260026020526040902080548061141e5761141e611615565b5f8281526020812060035f19909301928302018181556001810182905560020155905550565b6007546006546114549190611589565b600555565b5f5460ff166103b15760405162461bcd60e51b815260206004820152601460248201527314185d5cd8589b194e881b9bdd081c185d5cd95960621b60448201526064016102c7565b5f602082840312156114b1575f80fd5b5035919050565b602080825282518282018190525f919060409081850190868401855b8281101561150357815180518552868101518786015285015185850152606090930192908501906001016114d4565b5091979650505050505050565b5f60208284031215611520575f80fd5b81356001600160a01b0381168114611536575f80fd5b9392505050565b634e487b7160e01b5f52601160045260245ffd5b5f8261156b57634e487b7160e01b5f52601260045260245ffd5b500490565b818103818111156115835761158361153d565b92915050565b80820281158282048414176115835761158361153d565b808201808211156115835761158361153d565b5f602082840312156115c3575f80fd5b81518015158114611536575f80fd5b5f602082840312156115e2575f80fd5b5051919050565b634e487b7160e01b5f52603260045260245ffd5b5f6001820161160e5761160e61153d565b5060010190565b634e487b7160e01b5f52603160045260245ffdfea2646970667358221220c72032e6ecbf6c4ac3929d7553730789b0ff574d3ec0cd0e3262f9ab8aac6e7664736f6c63430008140033",
					"opcodes": "PUSH1 0x80 PUSH1 0x40 MSTORE PUSH8 0x8AC7230489E80000 PUSH1 0x8 SSTORE PUSH1 0xA PUSH1 0x8 SLOAD PUSH1 0x3 PUSH3 0x23 SWAP2 SWAP1 PUSH3 0xF3 JUMP JUMPDEST PUSH3 0x2F SWAP2 SWAP1 PUSH3 0x11D JUMP JUMPDEST PUSH1 0x9 SSTORE CALLVALUE DUP1 ISZERO PUSH3 0x3E JUMPI PUSH0 DUP1 REVERT JUMPDEST POP PUSH1 0x40 MLOAD PUSH3 0x17D9 CODESIZE SUB DUP1 PUSH3 0x17D9 DUP4 CODECOPY DUP2 ADD PUSH1 0x40 DUP2 SWAP1 MSTORE PUSH3 0x61 SWAP2 PUSH3 0x13D JUMP JUMPDEST PUSH0 DUP1 SLOAD PUSH1 0xFF NOT AND SWAP1 SSTORE PUSH3 0x75 CALLER PUSH3 0x9B JUMP JUMPDEST PUSH1 0x1 DUP1 SLOAD PUSH1 0x1 PUSH1 0x1 PUSH1 0xA0 SHL SUB NOT AND PUSH1 0x1 PUSH1 0x1 PUSH1 0xA0 SHL SUB SWAP3 SWAP1 SWAP3 AND SWAP2 SWAP1 SWAP2 OR SWAP1 SSTORE PUSH3 0x16C JUMP JUMPDEST PUSH0 DUP1 SLOAD PUSH1 0x1 PUSH1 0x1 PUSH1 0xA0 SHL SUB DUP4 DUP2 AND PUSH2 0x100 DUP2 DUP2 MUL PUSH2 0x100 PUSH1 0x1 PUSH1 0xA8 SHL SUB NOT DUP6 AND OR DUP6 SSTORE PUSH1 0x40 MLOAD SWAP4 DIV SWAP2 SWAP1 SWAP2 AND SWAP3 SWAP1 SWAP2 DUP4 SWAP2 PUSH32 0x8BE0079C531659141344CD1FD0A4F28419497F9722A3DAAFE3B4186F6B6457E0 SWAP2 LOG3 POP POP JUMP JUMPDEST DUP1 DUP3 MUL DUP2 ISZERO DUP3 DUP3 DIV DUP5 EQ OR PUSH3 0x117 JUMPI PUSH4 0x4E487B71 PUSH1 0xE0 SHL PUSH0 MSTORE PUSH1 0x11 PUSH1 0x4 MSTORE PUSH1 0x24 PUSH0 REVERT JUMPDEST SWAP3 SWAP2 POP POP JUMP JUMPDEST PUSH0 DUP3 PUSH3 0x138 JUMPI PUSH4 0x4E487B71 PUSH1 0xE0 SHL PUSH0 MSTORE PUSH1 0x12 PUSH1 0x4 MSTORE PUSH1 0x24 PUSH0 REVERT JUMPDEST POP DIV SWAP1 JUMP JUMPDEST PUSH0 PUSH1 0x20 DUP3 DUP5 SUB SLT ISZERO PUSH3 0x14E JUMPI PUSH0 DUP1 REVERT JUMPDEST DUP2 MLOAD PUSH1 0x1 PUSH1 0x1 PUSH1 0xA0 SHL SUB DUP2 AND DUP2 EQ PUSH3 0x165 JUMPI PUSH0 DUP1 REVERT JUMPDEST SWAP4 SWAP3 POP POP POP JUMP JUMPDEST PUSH2 0x165F DUP1 PUSH3 0x17A PUSH0 CODECOPY PUSH0 RETURN INVALID PUSH1 0x80 PUSH1 0x40 MSTORE PUSH1 0x4 CALLDATASIZE LT PUSH2 0xD9 JUMPI PUSH0 CALLDATALOAD PUSH1 0xE0 SHR DUP1 PUSH4 0x8DA5CB5B GT PUSH2 0x7C JUMPI DUP1 PUSH4 0xDC9031C4 GT PUSH2 0x57 JUMPI DUP1 PUSH4 0xDC9031C4 EQ PUSH2 0x208 JUMPI DUP1 PUSH4 0xE4849B32 EQ PUSH2 0x21B JUMPI DUP1 PUSH4 0xE8BCA8B8 EQ PUSH2 0x23A JUMPI DUP1 PUSH4 0xF2FDE38B EQ PUSH2 0x25B JUMPI PUSH0 DUP1 REVERT JUMPDEST DUP1 PUSH4 0x8DA5CB5B EQ PUSH2 0x1AC JUMPI DUP1 PUSH4 0x9C74F05D EQ PUSH2 0x1E0 JUMPI DUP1 PUSH4 0xD96A094A EQ PUSH2 0x1F5 JUMPI PUSH0 DUP1 REVERT JUMPDEST DUP1 PUSH4 0x5C572ED0 GT PUSH2 0xB7 JUMPI DUP1 PUSH4 0x5C572ED0 EQ PUSH2 0x144 JUMPI DUP1 PUSH4 0x5C975ABB EQ PUSH2 0x163 JUMPI DUP1 PUSH4 0x715018A6 EQ PUSH2 0x184 JUMPI DUP1 PUSH4 0x8456CB59 EQ PUSH2 0x198 JUMPI PUSH0 DUP1 REVERT JUMPDEST DUP1 PUSH4 0x1A753FED EQ PUSH2 0xDD JUMPI DUP1 PUSH4 0x200061DF EQ PUSH2 0x10F JUMPI DUP1 PUSH4 0x3F4BA83A EQ PUSH2 0x130 JUMPI JUMPDEST PUSH0 DUP1 REVERT JUMPDEST CALLVALUE DUP1 ISZERO PUSH2 0xE8 JUMPI PUSH0 DUP1 REVERT JUMPDEST POP PUSH2 0xFC PUSH2 0xF7 CALLDATASIZE PUSH1 0x4 PUSH2 0x14A1 JUMP JUMPDEST PUSH2 0x27A JUMP JUMPDEST PUSH1 0x40 MLOAD SWAP1 DUP2 MSTORE PUSH1 0x20 ADD JUMPDEST PUSH1 0x40 MLOAD DUP1 SWAP2 SUB SWAP1 RETURN JUMPDEST CALLVALUE DUP1 ISZERO PUSH2 0x11A JUMPI PUSH0 DUP1 REVERT JUMPDEST POP PUSH2 0x12E PUSH2 0x129 CALLDATASIZE PUSH1 0x4 PUSH2 0x14A1 JUMP JUMPDEST PUSH2 0x38D JUMP JUMPDEST STOP JUMPDEST CALLVALUE DUP1 ISZERO PUSH2 0x13B JUMPI PUSH0 DUP1 REVERT JUMPDEST POP PUSH2 0x12E PUSH2 0x3A1 JUMP JUMPDEST CALLVALUE DUP1 ISZERO PUSH2 0x14F JUMPI PUSH0 DUP1 REVERT JUMPDEST POP PUSH2 0xFC PUSH2 0x15E CALLDATASIZE PUSH1 0x4 PUSH2 0x14A1 JUMP JUMPDEST PUSH2 0x3B3 JUMP JUMPDEST CALLVALUE DUP1 ISZERO PUSH2 0x16E JUMPI PUSH0 DUP1 REVERT JUMPDEST POP PUSH0 SLOAD PUSH1 0xFF AND PUSH1 0x40 MLOAD SWAP1 ISZERO ISZERO DUP2 MSTORE PUSH1 0x20 ADD PUSH2 0x106 JUMP JUMPDEST CALLVALUE DUP1 ISZERO PUSH2 0x18F JUMPI PUSH0 DUP1 REVERT JUMPDEST POP PUSH2 0x12E PUSH2 0x48B JUMP JUMPDEST CALLVALUE DUP1 ISZERO PUSH2 0x1A3 JUMPI PUSH0 DUP1 REVERT JUMPDEST POP PUSH2 0x12E PUSH2 0x49C JUMP JUMPDEST CALLVALUE DUP1 ISZERO PUSH2 0x1B7 JUMPI PUSH0 DUP1 REVERT JUMPDEST POP PUSH0 SLOAD PUSH2 0x100 SWAP1 DIV PUSH1 0x1 PUSH1 0x1 PUSH1 0xA0 SHL SUB AND PUSH1 0x40 MLOAD PUSH1 0x1 PUSH1 0x1 PUSH1 0xA0 SHL SUB SWAP1 SWAP2 AND DUP2 MSTORE PUSH1 0x20 ADD PUSH2 0x106 JUMP JUMPDEST CALLVALUE DUP1 ISZERO PUSH2 0x1EB JUMPI PUSH0 DUP1 REVERT JUMPDEST POP PUSH2 0xFC PUSH1 0x4 SLOAD DUP2 JUMP JUMPDEST PUSH2 0x12E PUSH2 0x203 CALLDATASIZE PUSH1 0x4 PUSH2 0x14A1 JUMP JUMPDEST PUSH2 0x4AC JUMP JUMPDEST PUSH2 0x12E PUSH2 0x216 CALLDATASIZE PUSH1 0x4 PUSH2 0x14A1 JUMP JUMPDEST PUSH2 0x6A6 JUMP JUMPDEST CALLVALUE DUP1 ISZERO PUSH2 0x226 JUMPI PUSH0 DUP1 REVERT JUMPDEST POP PUSH2 0x12E PUSH2 0x235 CALLDATASIZE PUSH1 0x4 PUSH2 0x14A1 JUMP JUMPDEST PUSH2 0x799 JUMP JUMPDEST CALLVALUE DUP1 ISZERO PUSH2 0x245 JUMPI PUSH0 DUP1 REVERT JUMPDEST POP PUSH2 0x24E PUSH2 0x9FF JUMP JUMPDEST PUSH1 0x40 MLOAD PUSH2 0x106 SWAP2 SWAP1 PUSH2 0x14B8 JUMP JUMPDEST CALLVALUE DUP1 ISZERO PUSH2 0x266 JUMPI PUSH0 DUP1 REVERT JUMPDEST POP PUSH2 0x12E PUSH2 0x275 CALLDATASIZE PUSH1 0x4 PUSH2 0x1510 JUMP JUMPDEST PUSH2 0xA83 JUMP JUMPDEST PUSH0 PUSH2 0x283 PUSH2 0xAF9 JUMP JUMPDEST PUSH0 PUSH1 0x5 SLOAD GT PUSH2 0x2D0 JUMPI PUSH1 0x40 MLOAD PUSH3 0x461BCD PUSH1 0xE5 SHL DUP2 MSTORE PUSH1 0x20 PUSH1 0x4 DUP3 ADD MSTORE PUSH1 0x14 PUSH1 0x24 DUP3 ADD MSTORE PUSH20 0x4E6F7420656E6F756768206C6971756964697479 PUSH1 0x60 SHL PUSH1 0x44 DUP3 ADD MSTORE PUSH1 0x64 ADD JUMPDEST PUSH1 0x40 MLOAD DUP1 SWAP2 SUB SWAP1 REVERT JUMPDEST PUSH0 DUP1 PUSH1 0x6 SLOAD PUSH0 SUB PUSH2 0x2FC JUMPI DUP4 PUSH1 0x1 PUSH1 0x5 SLOAD PUSH2 0x2EB SWAP2 SWAP1 PUSH2 0x1551 JUMP JUMPDEST PUSH2 0x2F5 SWAP2 SWAP1 PUSH2 0x1570 JUMP JUMPDEST SWAP1 POP PUSH2 0x31A JUMP JUMPDEST DUP4 PUSH1 0x6 SLOAD PUSH1 0x5 SLOAD PUSH2 0x30D SWAP2 SWAP1 PUSH2 0x1551 JUMP JUMPDEST PUSH2 0x317 SWAP2 SWAP1 PUSH2 0x1570 JUMP JUMPDEST SWAP1 POP JUMPDEST DUP1 PUSH0 SUB PUSH2 0x337 JUMPI PUSH1 0x1 PUSH1 0x5 SLOAD PUSH2 0x330 SWAP2 SWAP1 PUSH2 0x1551 JUMP JUMPDEST SWAP2 POP PUSH2 0x348 JUMP JUMPDEST DUP1 PUSH1 0x5 SLOAD PUSH2 0x345 SWAP2 SWAP1 PUSH2 0x1551 JUMP JUMPDEST SWAP2 POP JUMPDEST PUSH0 PUSH1 0x6 SLOAD DUP4 PUSH2 0x357 SWAP2 SWAP1 PUSH2 0x1570 JUMP JUMPDEST SWAP1 POP PUSH0 PUSH1 0x8 SLOAD PUSH1 0x9 SLOAD DUP4 PUSH2 0x36B SWAP2 SWAP1 PUSH2 0x1589 JUMP JUMPDEST PUSH2 0x375 SWAP2 SWAP1 PUSH2 0x1551 JUMP JUMPDEST SWAP1 POP PUSH0 PUSH2 0x382 DUP3 DUP5 PUSH2 0x15A0 JUMP JUMPDEST SWAP8 SWAP7 POP POP POP POP POP POP POP JUMP JUMPDEST PUSH2 0x395 PUSH2 0xAF9 JUMP JUMPDEST PUSH2 0x39E DUP2 PUSH2 0xB3E JUMP JUMPDEST POP JUMP JUMPDEST PUSH2 0x3A9 PUSH2 0xE87 JUMP JUMPDEST PUSH2 0x3B1 PUSH2 0xEE6 JUMP JUMPDEST JUMP JUMPDEST PUSH0 PUSH2 0x3BC PUSH2 0xAF9 JUMP JUMPDEST PUSH0 PUSH1 0x5 SLOAD GT PUSH2 0x404 JUMPI PUSH1 0x40 MLOAD PUSH3 0x461BCD PUSH1 0xE5 SHL DUP2 MSTORE PUSH1 0x20 PUSH1 0x4 DUP3 ADD MSTORE PUSH1 0x14 PUSH1 0x24 DUP3 ADD MSTORE PUSH20 0x4E6F7420656E6F756768206C6971756964697479 PUSH1 0x60 SHL PUSH1 0x44 DUP3 ADD MSTORE PUSH1 0x64 ADD PUSH2 0x2C7 JUMP JUMPDEST PUSH0 DUP1 PUSH1 0x7 SLOAD PUSH0 SUB PUSH2 0x430 JUMPI DUP4 PUSH1 0x1 PUSH1 0x5 SLOAD PUSH2 0x41F SWAP2 SWAP1 PUSH2 0x1551 JUMP JUMPDEST PUSH2 0x429 SWAP2 SWAP1 PUSH2 0x1570 JUMP JUMPDEST SWAP2 POP PUSH2 0x44E JUMP JUMPDEST DUP4 PUSH1 0x7 SLOAD PUSH1 0x5 SLOAD PUSH2 0x441 SWAP2 SWAP1 PUSH2 0x1551 JUMP JUMPDEST PUSH2 0x44B SWAP2 SWAP1 PUSH2 0x1570 JUMP JUMPDEST SWAP2 POP JUMPDEST DUP2 PUSH0 SUB PUSH2 0x46B JUMPI PUSH1 0x1 PUSH1 0x5 SLOAD PUSH2 0x464 SWAP2 SWAP1 PUSH2 0x1551 JUMP JUMPDEST SWAP1 POP PUSH2 0x47C JUMP JUMPDEST DUP2 PUSH1 0x5 SLOAD PUSH2 0x479 SWAP2 SWAP1 PUSH2 0x1551 JUMP JUMPDEST SWAP1 POP JUMPDEST PUSH0 PUSH1 0x7 SLOAD DUP3 PUSH2 0x357 SWAP2 SWAP1 PUSH2 0x1570 JUMP JUMPDEST PUSH2 0x493 PUSH2 0xE87 JUMP JUMPDEST PUSH2 0x3B1 PUSH0 PUSH2 0xF37 JUMP JUMPDEST PUSH2 0x4A4 PUSH2 0xE87 JUMP JUMPDEST PUSH2 0x3B1 PUSH2 0xF8F JUMP JUMPDEST PUSH2 0x4B4 PUSH2 0xAF9 JUMP JUMPDEST PUSH0 DUP2 GT PUSH2 0x4F4 JUMPI PUSH1 0x40 MLOAD PUSH3 0x461BCD PUSH1 0xE5 SHL DUP2 MSTORE PUSH1 0x20 PUSH1 0x4 DUP3 ADD MSTORE PUSH1 0xE PUSH1 0x24 DUP3 ADD MSTORE PUSH14 0x53656E6420536F6D65204D656D65 PUSH1 0x90 SHL PUSH1 0x44 DUP3 ADD MSTORE PUSH1 0x64 ADD PUSH2 0x2C7 JUMP JUMPDEST PUSH0 PUSH2 0x4FE DUP3 PUSH2 0x3B3 JUMP JUMPDEST SWAP1 POP CALLVALUE DUP2 GT ISZERO PUSH2 0x540 JUMPI PUSH1 0x40 MLOAD PUSH3 0x461BCD PUSH1 0xE5 SHL DUP2 MSTORE PUSH1 0x20 PUSH1 0x4 DUP3 ADD MSTORE PUSH1 0xD PUSH1 0x24 DUP3 ADD MSTORE PUSH13 0xA6CADCC8409ADEE4CA408AA89 PUSH1 0x9B SHL PUSH1 0x44 DUP3 ADD MSTORE PUSH1 0x64 ADD PUSH2 0x2C7 JUMP JUMPDEST PUSH1 0x1 SLOAD PUSH1 0x40 MLOAD PUSH4 0xA9059CBB PUSH1 0xE0 SHL DUP2 MSTORE CALLER PUSH1 0x4 DUP3 ADD MSTORE PUSH1 0x24 DUP2 ADD DUP5 SWAP1 MSTORE PUSH1 0x1 PUSH1 0x1 PUSH1 0xA0 SHL SUB SWAP1 SWAP2 AND SWAP1 PUSH4 0xA9059CBB SWAP1 PUSH1 0x44 ADD PUSH1 0x20 PUSH1 0x40 MLOAD DUP1 DUP4 SUB DUP2 PUSH0 DUP8 GAS CALL ISZERO DUP1 ISZERO PUSH2 0x58E JUMPI RETURNDATASIZE PUSH0 DUP1 RETURNDATACOPY RETURNDATASIZE PUSH0 REVERT JUMPDEST POP POP POP POP PUSH1 0x40 MLOAD RETURNDATASIZE PUSH1 0x1F NOT PUSH1 0x1F DUP3 ADD AND DUP3 ADD DUP1 PUSH1 0x40 MSTORE POP DUP2 ADD SWAP1 PUSH2 0x5B2 SWAP2 SWAP1 PUSH2 0x15B3 JUMP JUMPDEST POP CALLER PUSH2 0x8FC PUSH2 0x5C1 DUP4 CALLVALUE PUSH2 0x1570 JUMP JUMPDEST PUSH1 0x40 MLOAD DUP2 ISZERO SWAP1 SWAP3 MUL SWAP2 PUSH0 DUP2 DUP2 DUP2 DUP6 DUP9 DUP9 CALL SWAP4 POP POP POP POP ISZERO DUP1 ISZERO PUSH2 0x5E6 JUMPI RETURNDATASIZE PUSH0 DUP1 RETURNDATACOPY RETURNDATASIZE PUSH0 REVERT JUMPDEST POP PUSH1 0x8 SLOAD PUSH1 0x9 SLOAD PUSH2 0x5F7 SWAP1 DUP3 PUSH2 0x15A0 JUMP JUMPDEST PUSH2 0x601 SWAP1 DUP5 PUSH2 0x1589 JUMP JUMPDEST PUSH2 0x60B SWAP2 SWAP1 PUSH2 0x1551 JUMP JUMPDEST PUSH1 0x3 PUSH0 PUSH2 0x61B PUSH3 0x15180 TIMESTAMP PUSH2 0x1551 JUMP JUMPDEST DUP2 MSTORE PUSH1 0x20 ADD SWAP1 DUP2 MSTORE PUSH1 0x20 ADD PUSH0 KECCAK256 PUSH0 DUP3 DUP3 SLOAD PUSH2 0x636 SWAP2 SWAP1 PUSH2 0x15A0 JUMP JUMPDEST SWAP3 POP POP DUP2 SWAP1 SSTORE POP DUP2 PUSH1 0x6 PUSH0 DUP3 DUP3 SLOAD PUSH2 0x64E SWAP2 SWAP1 PUSH2 0x1570 JUMP JUMPDEST SWAP1 SWAP2 SSTORE POP POP PUSH1 0x6 SLOAD PUSH1 0x5 SLOAD PUSH2 0x663 SWAP2 SWAP1 PUSH2 0x1551 JUMP JUMPDEST PUSH1 0x7 SSTORE PUSH1 0x40 DUP1 MLOAD DUP4 DUP2 MSTORE PUSH1 0x20 DUP2 ADD DUP4 SWAP1 MSTORE CALLER SWAP2 PUSH32 0x1CBC5AB135991BD2B6A4B034A04AA2AA086DAC1371CB9B16B8B5E2ED6B036BED SWAP2 ADD JUMPDEST PUSH1 0x40 MLOAD DUP1 SWAP2 SUB SWAP1 LOG2 POP POP JUMP JUMPDEST PUSH2 0x6AE PUSH2 0xAF9 JUMP JUMPDEST PUSH0 DUP2 GT PUSH2 0x6EE JUMPI PUSH1 0x40 MLOAD PUSH3 0x461BCD PUSH1 0xE5 SHL DUP2 MSTORE PUSH1 0x20 PUSH1 0x4 DUP3 ADD MSTORE PUSH1 0xE PUSH1 0x24 DUP3 ADD MSTORE PUSH14 0x53656E64206D6F7265204D454D45 PUSH1 0x90 SHL PUSH1 0x44 DUP3 ADD MSTORE PUSH1 0x64 ADD PUSH2 0x2C7 JUMP JUMPDEST PUSH0 CALLVALUE GT PUSH2 0x72D JUMPI PUSH1 0x40 MLOAD PUSH3 0x461BCD PUSH1 0xE5 SHL DUP2 MSTORE PUSH1 0x20 PUSH1 0x4 DUP3 ADD MSTORE PUSH1 0xD PUSH1 0x24 DUP3 ADD MSTORE PUSH13 0xA6CADCC840DADEE4CA408AA89 PUSH1 0x9B SHL PUSH1 0x44 DUP3 ADD MSTORE PUSH1 0x64 ADD PUSH2 0x2C7 JUMP JUMPDEST DUP1 PUSH1 0x8 SLOAD CALLVALUE PUSH2 0x73C SWAP2 SWAP1 PUSH2 0x1589 JUMP JUMPDEST PUSH2 0x746 SWAP2 SWAP1 PUSH2 0x1551 JUMP JUMPDEST PUSH1 0x4 SLOAD GT ISZERO PUSH2 0x78F JUMPI PUSH1 0x40 MLOAD PUSH3 0x461BCD PUSH1 0xE5 SHL DUP2 MSTORE PUSH1 0x20 PUSH1 0x4 DUP3 ADD MSTORE PUSH1 0x15 PUSH1 0x24 DUP3 ADD MSTORE PUSH21 0x14DD1858DADA5B99C814985D19481B9BDD081B595D PUSH1 0x5A SHL PUSH1 0x44 DUP3 ADD MSTORE PUSH1 0x64 ADD PUSH2 0x2C7 JUMP JUMPDEST PUSH2 0x39E DUP2 CALLVALUE PUSH2 0xFCB JUMP JUMPDEST PUSH2 0x7A1 PUSH2 0xAF9 JUMP JUMPDEST PUSH0 DUP2 GT PUSH2 0x7E0 JUMPI PUSH1 0x40 MLOAD PUSH3 0x461BCD PUSH1 0xE5 SHL DUP2 MSTORE PUSH1 0x20 PUSH1 0x4 DUP3 ADD MSTORE PUSH1 0xD PUSH1 0x24 DUP3 ADD MSTORE PUSH13 0xA6CADCC840A6DEDACA408AA89 PUSH1 0x9B SHL PUSH1 0x44 DUP3 ADD MSTORE PUSH1 0x64 ADD PUSH2 0x2C7 JUMP JUMPDEST PUSH0 PUSH2 0x7EA DUP3 PUSH2 0x27A JUMP JUMPDEST PUSH1 0x1 SLOAD PUSH1 0x40 MLOAD PUSH4 0x70A08231 PUSH1 0xE0 SHL DUP2 MSTORE CALLER PUSH1 0x4 DUP3 ADD MSTORE SWAP2 SWAP3 POP PUSH1 0x1 PUSH1 0x1 PUSH1 0xA0 SHL SUB AND SWAP1 PUSH4 0x70A08231 SWAP1 PUSH1 0x24 ADD PUSH1 0x20 PUSH1 0x40 MLOAD DUP1 DUP4 SUB DUP2 DUP7 GAS STATICCALL ISZERO DUP1 ISZERO PUSH2 0x831 JUMPI RETURNDATASIZE PUSH0 DUP1 RETURNDATACOPY RETURNDATASIZE PUSH0 REVERT JUMPDEST POP POP POP POP PUSH1 0x40 MLOAD RETURNDATASIZE PUSH1 0x1F NOT PUSH1 0x1F DUP3 ADD AND DUP3 ADD DUP1 PUSH1 0x40 MSTORE POP DUP2 ADD SWAP1 PUSH2 0x855 SWAP2 SWAP1 PUSH2 0x15D2 JUMP JUMPDEST DUP2 GT ISZERO PUSH2 0x8A4 JUMPI PUSH1 0x40 MLOAD PUSH3 0x461BCD PUSH1 0xE5 SHL DUP2 MSTORE PUSH1 0x20 PUSH1 0x4 DUP3 ADD MSTORE PUSH1 0x1A PUSH1 0x24 DUP3 ADD MSTORE PUSH32 0x596F7520646F6E2774206861766520656E6F756768206D656D65000000000000 PUSH1 0x44 DUP3 ADD MSTORE PUSH1 0x64 ADD PUSH2 0x2C7 JUMP JUMPDEST PUSH1 0x1 SLOAD PUSH1 0x40 MLOAD PUSH4 0x23B872DD PUSH1 0xE0 SHL DUP2 MSTORE CALLER PUSH1 0x4 DUP3 ADD MSTORE ADDRESS PUSH1 0x24 DUP3 ADD MSTORE PUSH1 0x44 DUP2 ADD DUP4 SWAP1 MSTORE PUSH1 0x1 PUSH1 0x1 PUSH1 0xA0 SHL SUB SWAP1 SWAP2 AND SWAP1 PUSH4 0x23B872DD SWAP1 PUSH1 0x64 ADD PUSH1 0x20 PUSH1 0x40 MLOAD DUP1 DUP4 SUB DUP2 PUSH0 DUP8 GAS CALL ISZERO DUP1 ISZERO PUSH2 0x8F8 JUMPI RETURNDATASIZE PUSH0 DUP1 RETURNDATACOPY RETURNDATASIZE PUSH0 REVERT JUMPDEST POP POP POP POP PUSH1 0x40 MLOAD RETURNDATASIZE PUSH1 0x1F NOT PUSH1 0x1F DUP3 ADD AND DUP3 ADD DUP1 PUSH1 0x40 MSTORE POP DUP2 ADD SWAP1 PUSH2 0x91C SWAP2 SWAP1 PUSH2 0x15B3 JUMP JUMPDEST POP PUSH1 0x40 MLOAD CALLER SWAP1 DUP4 ISZERO PUSH2 0x8FC MUL SWAP1 DUP5 SWAP1 PUSH0 DUP2 DUP2 DUP2 DUP6 DUP9 DUP9 CALL SWAP4 POP POP POP POP ISZERO DUP1 ISZERO PUSH2 0x947 JUMPI RETURNDATASIZE PUSH0 DUP1 RETURNDATACOPY RETURNDATASIZE PUSH0 REVERT JUMPDEST POP PUSH1 0x8 SLOAD PUSH1 0x9 SLOAD PUSH2 0x958 SWAP1 DUP3 PUSH2 0x15A0 JUMP JUMPDEST PUSH2 0x962 SWAP1 DUP4 PUSH2 0x1589 JUMP JUMPDEST PUSH2 0x96C SWAP2 SWAP1 PUSH2 0x1551 JUMP JUMPDEST PUSH1 0x3 PUSH0 PUSH2 0x97C PUSH3 0x15180 TIMESTAMP PUSH2 0x1551 JUMP JUMPDEST DUP2 MSTORE PUSH1 0x20 ADD SWAP1 DUP2 MSTORE PUSH1 0x20 ADD PUSH0 KECCAK256 PUSH0 DUP3 DUP3 SLOAD PUSH2 0x997 SWAP2 SWAP1 PUSH2 0x15A0 JUMP JUMPDEST SWAP3 POP POP DUP2 SWAP1 SSTORE POP DUP2 PUSH1 0x7 PUSH0 DUP3 DUP3 SLOAD PUSH2 0x9AF SWAP2 SWAP1 PUSH2 0x1570 JUMP JUMPDEST SWAP1 SWAP2 SSTORE POP POP PUSH1 0x7 SLOAD PUSH1 0x5 SLOAD PUSH2 0x9C4 SWAP2 SWAP1 PUSH2 0x1551 JUMP JUMPDEST PUSH1 0x6 SSTORE PUSH1 0x40 DUP1 MLOAD DUP3 DUP2 MSTORE PUSH1 0x20 DUP2 ADD DUP5 SWAP1 MSTORE CALLER SWAP2 PUSH32 0xED7A144FAD14804D5C249145E3E0E2B63A9EB455B76AEE5BC92D711E9BBA3E4A SWAP2 ADD PUSH2 0x69A JUMP JUMPDEST CALLER PUSH0 SWAP1 DUP2 MSTORE PUSH1 0x2 PUSH1 0x20 SWAP1 DUP2 MSTORE PUSH1 0x40 DUP1 DUP4 KECCAK256 DUP1 SLOAD DUP3 MLOAD DUP2 DUP6 MUL DUP2 ADD DUP6 ADD SWAP1 SWAP4 MSTORE DUP1 DUP4 MSTORE PUSH1 0x60 SWAP5 SWAP3 SWAP4 SWAP2 SWAP3 SWAP1 SWAP2 DUP5 ADD JUMPDEST DUP3 DUP3 LT ISZERO PUSH2 0xA7A JUMPI DUP4 DUP3 SWAP1 PUSH0 MSTORE PUSH1 0x20 PUSH0 KECCAK256 SWAP1 PUSH1 0x3 MUL ADD PUSH1 0x40 MLOAD DUP1 PUSH1 0x60 ADD PUSH1 0x40 MSTORE SWAP1 DUP2 PUSH0 DUP3 ADD SLOAD DUP2 MSTORE PUSH1 0x20 ADD PUSH1 0x1 DUP3 ADD SLOAD DUP2 MSTORE PUSH1 0x20 ADD PUSH1 0x2 DUP3 ADD SLOAD DUP2 MSTORE POP POP DUP2 MSTORE PUSH1 0x20 ADD SWAP1 PUSH1 0x1 ADD SWAP1 PUSH2 0xA2D JUMP JUMPDEST POP POP POP POP SWAP1 POP SWAP1 JUMP JUMPDEST PUSH2 0xA8B PUSH2 0xE87 JUMP JUMPDEST PUSH1 0x1 PUSH1 0x1 PUSH1 0xA0 SHL SUB DUP2 AND PUSH2 0xAF0 JUMPI PUSH1 0x40 MLOAD PUSH3 0x461BCD PUSH1 0xE5 SHL DUP2 MSTORE PUSH1 0x20 PUSH1 0x4 DUP3 ADD MSTORE PUSH1 0x26 PUSH1 0x24 DUP3 ADD MSTORE PUSH32 0x4F776E61626C653A206E6577206F776E657220697320746865207A65726F2061 PUSH1 0x44 DUP3 ADD MSTORE PUSH6 0x646472657373 PUSH1 0xD0 SHL PUSH1 0x64 DUP3 ADD MSTORE PUSH1 0x84 ADD PUSH2 0x2C7 JUMP JUMPDEST PUSH2 0x39E DUP2 PUSH2 0xF37 JUMP JUMPDEST PUSH0 SLOAD PUSH1 0xFF AND ISZERO PUSH2 0x3B1 JUMPI PUSH1 0x40 MLOAD PUSH3 0x461BCD PUSH1 0xE5 SHL DUP2 MSTORE PUSH1 0x20 PUSH1 0x4 DUP3 ADD MSTORE PUSH1 0x10 PUSH1 0x24 DUP3 ADD MSTORE PUSH16 0x14185D5CD8589B194E881C185D5CD959 PUSH1 0x82 SHL PUSH1 0x44 DUP3 ADD MSTORE PUSH1 0x64 ADD PUSH2 0x2C7 JUMP JUMPDEST CALLER PUSH0 SWAP1 DUP2 MSTORE PUSH1 0x2 PUSH1 0x20 MSTORE PUSH1 0x40 DUP2 KECCAK256 DUP1 SLOAD DUP4 SWAP1 DUP2 LT PUSH2 0xB5E JUMPI PUSH2 0xB5E PUSH2 0x15E9 JUMP JUMPDEST SWAP1 PUSH0 MSTORE PUSH1 0x20 PUSH0 KECCAK256 SWAP1 PUSH1 0x3 MUL ADD PUSH1 0x40 MLOAD DUP1 PUSH1 0x60 ADD PUSH1 0x40 MSTORE SWAP1 DUP2 PUSH0 DUP3 ADD SLOAD DUP2 MSTORE PUSH1 0x20 ADD PUSH1 0x1 DUP3 ADD SLOAD DUP2 MSTORE PUSH1 0x20 ADD PUSH1 0x2 DUP3 ADD SLOAD DUP2 MSTORE POP POP SWAP1 POP PUSH0 PUSH2 0xB9D PUSH2 0x112D JUMP JUMPDEST DUP3 MLOAD PUSH1 0x20 DUP5 ADD MLOAD SWAP2 SWAP3 POP SWAP1 PUSH0 SWAP1 PUSH2 0xBB5 SWAP1 DUP5 SWAP1 PUSH2 0x15A0 JUMP JUMPDEST PUSH1 0x1 SLOAD PUSH1 0x40 MLOAD PUSH4 0x70A08231 PUSH1 0xE0 SHL DUP2 MSTORE ADDRESS PUSH1 0x4 DUP3 ADD MSTORE SWAP2 SWAP3 POP DUP4 SWAP2 PUSH1 0x1 PUSH1 0x1 PUSH1 0xA0 SHL SUB SWAP1 SWAP2 AND SWAP1 PUSH4 0x70A08231 SWAP1 PUSH1 0x24 ADD PUSH1 0x20 PUSH1 0x40 MLOAD DUP1 DUP4 SUB DUP2 DUP7 GAS STATICCALL ISZERO DUP1 ISZERO PUSH2 0xC00 JUMPI RETURNDATASIZE PUSH0 DUP1 RETURNDATACOPY RETURNDATASIZE PUSH0 REVERT JUMPDEST POP POP POP POP PUSH1 0x40 MLOAD RETURNDATASIZE PUSH1 0x1F NOT PUSH1 0x1F DUP3 ADD AND DUP3 ADD DUP1 PUSH1 0x40 MSTORE POP DUP2 ADD SWAP1 PUSH2 0xC24 SWAP2 SWAP1 PUSH2 0x15D2 JUMP JUMPDEST LT ISZERO PUSH2 0xCAC JUMPI PUSH1 0x40 MLOAD PUSH3 0x461BCD PUSH1 0xE5 SHL DUP2 MSTORE PUSH1 0x20 PUSH1 0x4 DUP3 ADD MSTORE PUSH1 0x4B PUSH1 0x24 DUP3 ADD MSTORE PUSH32 0x536F7272792043757272656E746C79207468697320636F6E747261637420646F PUSH1 0x44 DUP3 ADD MSTORE PUSH32 0x65736E27742068617665204D656D6520746F2072657475726E2C20436865636B PUSH1 0x64 DUP3 ADD MSTORE PUSH11 0x206261636B20536F6F6E21 PUSH1 0xA8 SHL PUSH1 0x84 DUP3 ADD MSTORE PUSH1 0xA4 ADD PUSH2 0x2C7 JUMP JUMPDEST DUP1 SELFBALANCE LT ISZERO PUSH2 0xD35 JUMPI PUSH1 0x40 MLOAD PUSH3 0x461BCD PUSH1 0xE5 SHL DUP2 MSTORE PUSH1 0x20 PUSH1 0x4 DUP3 ADD MSTORE PUSH1 0x4A PUSH1 0x24 DUP3 ADD MSTORE PUSH32 0x536F7272792043757272656E746C79207468697320636F6E747261637420646F PUSH1 0x44 DUP3 ADD MSTORE PUSH32 0x65736E277420686176652045746820746F2072657475726E2C20436865636B20 PUSH1 0x64 DUP3 ADD MSTORE PUSH10 0x6261636B20536F6F6E21 PUSH1 0xB0 SHL PUSH1 0x84 DUP3 ADD MSTORE PUSH1 0xA4 ADD PUSH2 0x2C7 JUMP JUMPDEST DUP2 PUSH1 0x6 PUSH0 DUP3 DUP3 SLOAD PUSH2 0xD46 SWAP2 SWAP1 PUSH2 0x1570 JUMP JUMPDEST SWAP3 POP POP DUP2 SWAP1 SSTORE POP DUP1 PUSH1 0x7 PUSH0 DUP3 DUP3 SLOAD PUSH2 0xD5E SWAP2 SWAP1 PUSH2 0x1570 JUMP JUMPDEST SWAP1 SWAP2 SSTORE POP POP PUSH1 0x1 SLOAD PUSH1 0x40 MLOAD PUSH4 0xA9059CBB PUSH1 0xE0 SHL DUP2 MSTORE CALLER PUSH1 0x4 DUP3 ADD MSTORE PUSH1 0x24 DUP2 ADD DUP5 SWAP1 MSTORE PUSH1 0x1 PUSH1 0x1 PUSH1 0xA0 SHL SUB SWAP1 SWAP2 AND SWAP1 PUSH4 0xA9059CBB SWAP1 PUSH1 0x44 ADD PUSH1 0x20 PUSH1 0x40 MLOAD DUP1 DUP4 SUB DUP2 PUSH0 DUP8 GAS CALL ISZERO DUP1 ISZERO PUSH2 0xDB1 JUMPI RETURNDATASIZE PUSH0 DUP1 RETURNDATACOPY RETURNDATASIZE PUSH0 REVERT JUMPDEST POP POP POP POP PUSH1 0x40 MLOAD RETURNDATASIZE PUSH1 0x1F NOT PUSH1 0x1F DUP3 ADD AND DUP3 ADD DUP1 PUSH1 0x40 MSTORE POP DUP2 ADD SWAP1 PUSH2 0xDD5 SWAP2 SWAP1 PUSH2 0x15B3 JUMP JUMPDEST POP PUSH1 0x40 MLOAD CALLER SWAP1 DUP3 ISZERO PUSH2 0x8FC MUL SWAP1 DUP4 SWAP1 PUSH0 DUP2 DUP2 DUP2 DUP6 DUP9 DUP9 CALL SWAP4 POP POP POP POP ISZERO DUP1 ISZERO PUSH2 0xE00 JUMPI RETURNDATASIZE PUSH0 DUP1 RETURNDATACOPY RETURNDATASIZE PUSH0 REVERT JUMPDEST POP PUSH1 0x6 SLOAD PUSH0 SUB PUSH2 0xE13 JUMPI PUSH0 PUSH1 0x4 SSTORE PUSH2 0xE34 JUMP JUMPDEST PUSH1 0x6 SLOAD PUSH1 0x8 SLOAD PUSH1 0x7 SLOAD PUSH2 0xE26 SWAP2 SWAP1 PUSH2 0x1589 JUMP JUMPDEST PUSH2 0xE30 SWAP2 SWAP1 PUSH2 0x1551 JUMP JUMPDEST PUSH1 0x4 SSTORE JUMPDEST PUSH2 0xE3D DUP6 PUSH2 0x12E7 JUMP JUMPDEST PUSH2 0xE45 PUSH2 0x1444 JUMP JUMPDEST PUSH1 0x40 DUP1 MLOAD DUP4 DUP2 MSTORE PUSH1 0x20 DUP2 ADD DUP4 SWAP1 MSTORE CALLER SWAP2 PUSH32 0xBB564DF1F5D4EBB97B073ADCAB505C7796A37035AC5D14F51269660939C39CF4 SWAP2 ADD PUSH1 0x40 MLOAD DUP1 SWAP2 SUB SWAP1 LOG2 POP POP POP POP POP JUMP JUMPDEST PUSH0 SLOAD PUSH1 0x1 PUSH1 0x1 PUSH1 0xA0 SHL SUB PUSH2 0x100 SWAP1 SWAP2 DIV AND CALLER EQ PUSH2 0x3B1 JUMPI PUSH1 0x40 MLOAD PUSH3 0x461BCD PUSH1 0xE5 SHL DUP2 MSTORE PUSH1 0x20 PUSH1 0x4 DUP3 ADD DUP2 SWAP1 MSTORE PUSH1 0x24 DUP3 ADD MSTORE PUSH32 0x4F776E61626C653A2063616C6C6572206973206E6F7420746865206F776E6572 PUSH1 0x44 DUP3 ADD MSTORE PUSH1 0x64 ADD PUSH2 0x2C7 JUMP JUMPDEST PUSH2 0xEEE PUSH2 0x1459 JUMP JUMPDEST PUSH0 DUP1 SLOAD PUSH1 0xFF NOT AND SWAP1 SSTORE PUSH32 0x5DB9EE0A495BF2E6FF9C91A7834C1BA4FDD244A5E8AA4E537BD38AEAE4B073AA CALLER JUMPDEST PUSH1 0x40 MLOAD PUSH1 0x1 PUSH1 0x1 PUSH1 0xA0 SHL SUB SWAP1 SWAP2 AND DUP2 MSTORE PUSH1 0x20 ADD PUSH1 0x40 MLOAD DUP1 SWAP2 SUB SWAP1 LOG1 JUMP JUMPDEST PUSH0 DUP1 SLOAD PUSH1 0x1 PUSH1 0x1 PUSH1 0xA0 SHL SUB DUP4 DUP2 AND PUSH2 0x100 DUP2 DUP2 MUL PUSH2 0x100 PUSH1 0x1 PUSH1 0xA8 SHL SUB NOT DUP6 AND OR DUP6 SSTORE PUSH1 0x40 MLOAD SWAP4 DIV SWAP2 SWAP1 SWAP2 AND SWAP3 SWAP1 SWAP2 DUP4 SWAP2 PUSH32 0x8BE0079C531659141344CD1FD0A4F28419497F9722A3DAAFE3B4186F6B6457E0 SWAP2 LOG3 POP POP JUMP JUMPDEST PUSH2 0xF97 PUSH2 0xAF9 JUMP JUMPDEST PUSH0 DUP1 SLOAD PUSH1 0xFF NOT AND PUSH1 0x1 OR SWAP1 SSTORE PUSH32 0x62E78CEA01BEE320CD4E420270B5EA74000D11B0C9F74754EBDBFC544B05A258 PUSH2 0xF1A CALLER SWAP1 JUMP JUMPDEST PUSH1 0x1 SLOAD PUSH1 0x40 MLOAD PUSH4 0x23B872DD PUSH1 0xE0 SHL DUP2 MSTORE CALLER PUSH1 0x4 DUP3 ADD MSTORE ADDRESS PUSH1 0x24 DUP3 ADD MSTORE PUSH1 0x44 DUP2 ADD DUP5 SWAP1 MSTORE PUSH1 0x1 PUSH1 0x1 PUSH1 0xA0 SHL SUB SWAP1 SWAP2 AND SWAP1 PUSH4 0x23B872DD SWAP1 PUSH1 0x64 ADD PUSH1 0x20 PUSH1 0x40 MLOAD DUP1 DUP4 SUB DUP2 PUSH0 DUP8 GAS CALL ISZERO DUP1 ISZERO PUSH2 0x101F JUMPI RETURNDATASIZE PUSH0 DUP1 RETURNDATACOPY RETURNDATASIZE PUSH0 REVERT JUMPDEST POP POP POP POP PUSH1 0x40 MLOAD RETURNDATASIZE PUSH1 0x1F NOT PUSH1 0x1F DUP3 ADD AND DUP3 ADD DUP1 PUSH1 0x40 MSTORE POP DUP2 ADD SWAP1 PUSH2 0x1043 SWAP2 SWAP1 PUSH2 0x15B3 JUMP JUMPDEST POP DUP2 PUSH1 0x6 PUSH0 DUP3 DUP3 SLOAD PUSH2 0x1055 SWAP2 SWAP1 PUSH2 0x15A0 JUMP JUMPDEST SWAP3 POP POP DUP2 SWAP1 SSTORE POP DUP1 PUSH1 0x7 PUSH0 DUP3 DUP3 SLOAD PUSH2 0x106D SWAP2 SWAP1 PUSH2 0x15A0 JUMP JUMPDEST SWAP1 SWAP2 SSTORE POP POP PUSH1 0x40 DUP1 MLOAD PUSH1 0x60 DUP2 ADD DUP3 MSTORE DUP4 DUP2 MSTORE PUSH1 0x20 DUP1 DUP3 ADD DUP5 DUP2 MSTORE TIMESTAMP DUP4 DUP6 ADD SWAP1 DUP2 MSTORE CALLER PUSH0 SWAP1 DUP2 MSTORE PUSH1 0x2 DUP1 DUP6 MSTORE SWAP6 DUP2 KECCAK256 DUP1 SLOAD PUSH1 0x1 DUP2 DUP2 ADD DUP4 SSTORE SWAP2 DUP4 MSTORE SWAP5 SWAP1 SWAP2 KECCAK256 DUP6 MLOAD PUSH1 0x3 SWAP1 SWAP6 MUL ADD SWAP4 DUP5 SSTORE SWAP2 MLOAD SWAP2 DUP4 ADD SWAP2 SWAP1 SWAP2 SSTORE MLOAD SWAP3 ADD SWAP2 SWAP1 SWAP2 SSTORE PUSH1 0x6 SLOAD PUSH1 0x8 SLOAD PUSH1 0x7 SLOAD PUSH2 0x10D9 SWAP2 SWAP1 PUSH2 0x1589 JUMP JUMPDEST PUSH2 0x10E3 SWAP2 SWAP1 PUSH2 0x1551 JUMP JUMPDEST PUSH1 0x4 SSTORE PUSH2 0x10EE PUSH2 0x1444 JUMP JUMPDEST PUSH1 0x40 DUP1 MLOAD DUP5 DUP2 MSTORE CALLVALUE PUSH1 0x20 DUP3 ADD MSTORE CALLER SWAP2 PUSH32 0x5CAAD8F5613B6F1D592FC8C69D8F0999453740F0806C754F20CC92F3D4B2B1B6 SWAP2 ADD PUSH1 0x40 MLOAD DUP1 SWAP2 SUB SWAP1 LOG2 POP POP POP JUMP JUMPDEST PUSH0 DUP1 DUP1 PUSH1 0x3 DUP2 PUSH2 0x1140 PUSH3 0x15180 TIMESTAMP PUSH2 0x1551 JUMP JUMPDEST DUP2 MSTORE PUSH1 0x20 ADD SWAP1 DUP2 MSTORE PUSH1 0x20 ADD PUSH0 KECCAK256 SLOAD GT ISZERO PUSH2 0x12E2 JUMPI CALLER PUSH0 SWAP1 DUP2 MSTORE PUSH1 0x2 PUSH1 0x20 MSTORE PUSH1 0x40 DUP2 KECCAK256 DUP1 SLOAD SWAP1 SWAP2 DUP1 JUMPDEST DUP3 DUP2 GT PUSH2 0x11E8 JUMPI PUSH0 DUP5 DUP3 DUP2 SLOAD DUP2 LT PUSH2 0x1182 JUMPI PUSH2 0x1182 PUSH2 0x15E9 JUMP JUMPDEST SWAP1 PUSH0 MSTORE PUSH1 0x20 PUSH0 KECCAK256 SWAP1 PUSH1 0x3 MUL ADD PUSH1 0x40 MLOAD DUP1 PUSH1 0x60 ADD PUSH1 0x40 MSTORE SWAP1 DUP2 PUSH0 DUP3 ADD SLOAD DUP2 MSTORE PUSH1 0x20 ADD PUSH1 0x1 DUP3 ADD SLOAD DUP2 MSTORE PUSH1 0x20 ADD PUSH1 0x2 DUP3 ADD SLOAD DUP2 MSTORE POP POP SWAP1 POP DUP1 PUSH1 0x40 ADD MLOAD TIMESTAMP PUSH2 0x11C8 SWAP2 SWAP1 PUSH2 0x1570 JUMP JUMPDEST PUSH2 0x11D2 SWAP1 DUP5 PUSH2 0x15A0 JUMP JUMPDEST SWAP3 POP POP DUP1 DUP1 PUSH2 0x11E0 SWAP1 PUSH2 0x15FD JUMP JUMPDEST SWAP2 POP POP PUSH2 0x1168 JUMP JUMPDEST POP PUSH0 JUMPDEST DUP3 DUP2 GT PUSH2 0x12DD JUMPI PUSH0 DUP5 DUP3 DUP2 SLOAD DUP2 LT PUSH2 0x1205 JUMPI PUSH2 0x1205 PUSH2 0x15E9 JUMP JUMPDEST PUSH0 SWAP2 DUP3 MSTORE PUSH1 0x20 DUP1 DUP4 KECCAK256 PUSH1 0x40 DUP1 MLOAD PUSH1 0x60 DUP2 ADD DUP3 MSTORE PUSH1 0x3 SWAP1 SWAP5 MUL SWAP1 SWAP2 ADD DUP1 SLOAD DUP1 DUP6 MSTORE PUSH1 0x1 DUP3 ADD SLOAD SWAP4 DUP6 ADD SWAP4 SWAP1 SWAP4 MSTORE PUSH1 0x2 ADD SLOAD SWAP1 DUP4 ADD MSTORE PUSH1 0x6 SLOAD PUSH1 0x8 SLOAD SWAP3 SWAP5 POP SWAP2 PUSH2 0x124C SWAP2 PUSH2 0x1589 JUMP JUMPDEST PUSH2 0x1256 SWAP2 SWAP1 PUSH2 0x1551 JUMP JUMPDEST SWAP1 POP PUSH0 DUP3 PUSH1 0x40 ADD MLOAD TIMESTAMP PUSH2 0x1269 SWAP2 SWAP1 PUSH2 0x1570 JUMP JUMPDEST SWAP1 POP PUSH0 PUSH2 0x1276 DUP7 DUP4 PUSH2 0x1551 JUMP JUMPDEST PUSH1 0x5 SLOAD SWAP1 SWAP2 POP DUP2 PUSH1 0x3 PUSH0 PUSH2 0x128D PUSH3 0x15180 TIMESTAMP PUSH2 0x1551 JUMP JUMPDEST DUP2 MSTORE PUSH1 0x20 ADD SWAP1 DUP2 MSTORE PUSH1 0x20 ADD PUSH0 KECCAK256 SLOAD DUP6 PUSH2 0x12A6 SWAP2 SWAP1 PUSH2 0x1589 JUMP JUMPDEST PUSH2 0x12B0 SWAP2 SWAP1 PUSH2 0x1589 JUMP JUMPDEST PUSH2 0x12BA SWAP2 SWAP1 PUSH2 0x1551 JUMP JUMPDEST PUSH2 0x12C4 SWAP1 DUP11 PUSH2 0x15A0 JUMP JUMPDEST SWAP9 POP POP POP POP POP DUP1 DUP1 PUSH2 0x12D5 SWAP1 PUSH2 0x15FD JUMP JUMPDEST SWAP2 POP POP PUSH2 0x11EB JUMP JUMPDEST POP POP POP POP JUMPDEST SWAP2 SWAP1 POP JUMP JUMPDEST CALLER PUSH0 SWAP1 DUP2 MSTORE PUSH1 0x2 PUSH1 0x20 MSTORE PUSH1 0x40 SWAP1 KECCAK256 SLOAD DUP2 LT PUSH2 0x133A JUMPI PUSH1 0x40 MLOAD PUSH3 0x461BCD PUSH1 0xE5 SHL DUP2 MSTORE PUSH1 0x20 PUSH1 0x4 DUP3 ADD MSTORE PUSH1 0x13 PUSH1 0x24 DUP3 ADD MSTORE PUSH19 0x496E646578206F7574206F6620626F756E6473 PUSH1 0x68 SHL PUSH1 0x44 DUP3 ADD MSTORE PUSH1 0x64 ADD PUSH2 0x2C7 JUMP JUMPDEST DUP1 JUMPDEST CALLER PUSH0 SWAP1 DUP2 MSTORE PUSH1 0x2 PUSH1 0x20 MSTORE PUSH1 0x40 SWAP1 KECCAK256 SLOAD PUSH2 0x1357 SWAP1 PUSH1 0x1 SWAP1 PUSH2 0x1570 JUMP JUMPDEST DUP2 LT ISZERO PUSH2 0x1400 JUMPI CALLER PUSH0 SWAP1 DUP2 MSTORE PUSH1 0x2 PUSH1 0x20 MSTORE PUSH1 0x40 SWAP1 KECCAK256 PUSH2 0x1377 DUP3 PUSH1 0x1 PUSH2 0x15A0 JUMP JUMPDEST DUP2 SLOAD DUP2 LT PUSH2 0x1387 JUMPI PUSH2 0x1387 PUSH2 0x15E9 JUMP JUMPDEST SWAP1 PUSH0 MSTORE PUSH1 0x20 PUSH0 KECCAK256 SWAP1 PUSH1 0x3 MUL ADD PUSH1 0x2 PUSH0 CALLER PUSH1 0x1 PUSH1 0x1 PUSH1 0xA0 SHL SUB AND PUSH1 0x1 PUSH1 0x1 PUSH1 0xA0 SHL SUB AND DUP2 MSTORE PUSH1 0x20 ADD SWAP1 DUP2 MSTORE PUSH1 0x20 ADD PUSH0 KECCAK256 DUP3 DUP2 SLOAD DUP2 LT PUSH2 0x13C7 JUMPI PUSH2 0x13C7 PUSH2 0x15E9 JUMP JUMPDEST PUSH0 SWAP2 DUP3 MSTORE PUSH1 0x20 SWAP1 SWAP2 KECCAK256 DUP3 SLOAD PUSH1 0x3 SWAP1 SWAP3 MUL ADD SWAP1 DUP2 SSTORE PUSH1 0x1 DUP1 DUP4 ADD SLOAD SWAP1 DUP3 ADD SSTORE PUSH1 0x2 SWAP2 DUP3 ADD SLOAD SWAP2 ADD SSTORE DUP1 PUSH2 0x13F8 DUP2 PUSH2 0x15FD JUMP JUMPDEST SWAP2 POP POP PUSH2 0x133C JUMP JUMPDEST POP CALLER PUSH0 SWAP1 DUP2 MSTORE PUSH1 0x2 PUSH1 0x20 MSTORE PUSH1 0x40 SWAP1 KECCAK256 DUP1 SLOAD DUP1 PUSH2 0x141E JUMPI PUSH2 0x141E PUSH2 0x1615 JUMP JUMPDEST PUSH0 DUP3 DUP2 MSTORE PUSH1 0x20 DUP2 KECCAK256 PUSH1 0x3 PUSH0 NOT SWAP1 SWAP4 ADD SWAP3 DUP4 MUL ADD DUP2 DUP2 SSTORE PUSH1 0x1 DUP2 ADD DUP3 SWAP1 SSTORE PUSH1 0x2 ADD SSTORE SWAP1 SSTORE POP JUMP JUMPDEST PUSH1 0x7 SLOAD PUSH1 0x6 SLOAD PUSH2 0x1454 SWAP2 SWAP1 PUSH2 0x1589 JUMP JUMPDEST PUSH1 0x5 SSTORE JUMP JUMPDEST PUSH0 SLOAD PUSH1 0xFF AND PUSH2 0x3B1 JUMPI PUSH1 0x40 MLOAD PUSH3 0x461BCD PUSH1 0xE5 SHL DUP2 MSTORE PUSH1 0x20 PUSH1 0x4 DUP3 ADD MSTORE PUSH1 0x14 PUSH1 0x24 DUP3 ADD MSTORE PUSH20 0x14185D5CD8589B194E881B9BDD081C185D5CD959 PUSH1 0x62 SHL PUSH1 0x44 DUP3 ADD MSTORE PUSH1 0x64 ADD PUSH2 0x2C7 JUMP JUMPDEST PUSH0 PUSH1 0x20 DUP3 DUP5 SUB SLT ISZERO PUSH2 0x14B1 JUMPI PUSH0 DUP1 REVERT JUMPDEST POP CALLDATALOAD SWAP2 SWAP1 POP JUMP JUMPDEST PUSH1 0x20 DUP1 DUP3 MSTORE DUP3 MLOAD DUP3 DUP3 ADD DUP2 SWAP1 MSTORE PUSH0 SWAP2 SWAP1 PUSH1 0x40 SWAP1 DUP2 DUP6 ADD SWAP1 DUP7 DUP5 ADD DUP6 JUMPDEST DUP3 DUP2 LT ISZERO PUSH2 0x1503 JUMPI DUP2 MLOAD DUP1 MLOAD DUP6 MSTORE DUP7 DUP2 ADD MLOAD DUP8 DUP7 ADD MSTORE DUP6 ADD MLOAD DUP6 DUP6 ADD MSTORE PUSH1 0x60 SWAP1 SWAP4 ADD SWAP3 SWAP1 DUP6 ADD SWAP1 PUSH1 0x1 ADD PUSH2 0x14D4 JUMP JUMPDEST POP SWAP2 SWAP8 SWAP7 POP POP POP POP POP POP POP JUMP JUMPDEST PUSH0 PUSH1 0x20 DUP3 DUP5 SUB SLT ISZERO PUSH2 0x1520 JUMPI PUSH0 DUP1 REVERT JUMPDEST DUP2 CALLDATALOAD PUSH1 0x1 PUSH1 0x1 PUSH1 0xA0 SHL SUB DUP2 AND DUP2 EQ PUSH2 0x1536 JUMPI PUSH0 DUP1 REVERT JUMPDEST SWAP4 SWAP3 POP POP POP JUMP JUMPDEST PUSH4 0x4E487B71 PUSH1 0xE0 SHL PUSH0 MSTORE PUSH1 0x11 PUSH1 0x4 MSTORE PUSH1 0x24 PUSH0 REVERT JUMPDEST PUSH0 DUP3 PUSH2 0x156B JUMPI PUSH4 0x4E487B71 PUSH1 0xE0 SHL PUSH0 MSTORE PUSH1 0x12 PUSH1 0x4 MSTORE PUSH1 0x24 PUSH0 REVERT JUMPDEST POP DIV SWAP1 JUMP JUMPDEST DUP2 DUP2 SUB DUP2 DUP2 GT ISZERO PUSH2 0x1583 JUMPI PUSH2 0x1583 PUSH2 0x153D JUMP JUMPDEST SWAP3 SWAP2 POP POP JUMP JUMPDEST DUP1 DUP3 MUL DUP2 ISZERO DUP3 DUP3 DIV DUP5 EQ OR PUSH2 0x1583 JUMPI PUSH2 0x1583 PUSH2 0x153D JUMP JUMPDEST DUP1 DUP3 ADD DUP1 DUP3 GT ISZERO PUSH2 0x1583 JUMPI PUSH2 0x1583 PUSH2 0x153D JUMP JUMPDEST PUSH0 PUSH1 0x20 DUP3 DUP5 SUB SLT ISZERO PUSH2 0x15C3 JUMPI PUSH0 DUP1 REVERT JUMPDEST DUP2 MLOAD DUP1 ISZERO ISZERO DUP2 EQ PUSH2 0x1536 JUMPI PUSH0 DUP1 REVERT JUMPDEST PUSH0 PUSH1 0x20 DUP3 DUP5 SUB SLT ISZERO PUSH2 0x15E2 JUMPI PUSH0 DUP1 REVERT JUMPDEST POP MLOAD SWAP2 SWAP1 POP JUMP JUMPDEST PUSH4 0x4E487B71 PUSH1 0xE0 SHL PUSH0 MSTORE PUSH1 0x32 PUSH1 0x4 MSTORE PUSH1 0x24 PUSH0 REVERT JUMPDEST PUSH0 PUSH1 0x1 DUP3 ADD PUSH2 0x160E JUMPI PUSH2 0x160E PUSH2 0x153D JUMP JUMPDEST POP PUSH1 0x1 ADD SWAP1 JUMP JUMPDEST PUSH4 0x4E487B71 PUSH1 0xE0 SHL PUSH0 MSTORE PUSH1 0x31 PUSH1 0x4 MSTORE PUSH1 0x24 PUSH0 REVERT INVALID LOG2 PUSH5 0x6970667358 0x22 SLT KECCAK256 0xC7 KECCAK256 ORIGIN 0xE6 0xEC 0xBF PUSH13 0x4AC3929D7553730789B0FF574D RETURNDATACOPY 0xC0 0xCD 0xE ORIGIN PUSH3 0xF9AB8A 0xAC PUSH15 0x7664736F6C63430008140033000000 "
				},
				"gasEstimates": {
					"creation": {
						"codeDepositCost": "1145400",
						"executionCost": "infinite",
						"totalCost": "infinite"
					},
					"external": {
						"buy(uint256)": "infinite",
						"getETHPrice(uint256)": "infinite",
						"getMemePrice(uint256)": "infinite",
						"getStacks()": "infinite",
						"owner()": "2351",
						"pause()": "infinite",
						"paused()": "2335",
						"renounceOwnership()": "infinite",
						"sell(uint256)": "infinite",
						"stack(uint256)": "infinite",
						"stackingRate()": "2328",
						"transferOwnership(address)": "28418",
						"unpause()": "infinite",
						"unstack(uint256)": "infinite"
					},
					"internal": {
						"_distributeTax()": "infinite",
						"_removeArr(uint256)": "infinite",
						"_stack(uint256,uint256)": "infinite",
						"_unstack(uint256)": "infinite",
						"_updateK()": "26409"
					}
				},
				"methodIdentifiers": {
					"buy(uint256)": "d96a094a",
					"getETHPrice(uint256)": "1a753fed",
					"getMemePrice(uint256)": "5c572ed0",
					"getStacks()": "e8bca8b8",
					"owner()": "8da5cb5b",
					"pause()": "8456cb59",
					"paused()": "5c975abb",
					"renounceOwnership()": "715018a6",
					"sell(uint256)": "e4849b32",
					"stack(uint256)": "dc9031c4",
					"stackingRate()": "9c74f05d",
					"transferOwnership(address)": "f2fde38b",
					"unpause()": "3f4ba83a",
					"unstack(uint256)": "200061df"
				}
			},
			"storageLayout": {
				"storage": [
					{
						"astId": 130,
						"contract": "DEX.sol:DEX",
						"label": "_paused",
						"offset": 0,
						"slot": "0",
						"type": "t_bool"
					},
					{
						"astId": 7,
						"contract": "DEX.sol:DEX",
						"label": "_owner",
						"offset": 1,
						"slot": "0",
						"type": "t_address"
					},
					{
						"astId": 996,
						"contract": "DEX.sol:DEX",
						"label": "meme",
						"offset": 0,
						"slot": "1",
						"type": "t_contract(ERC20)807"
					},
					{
						"astId": 1034,
						"contract": "DEX.sol:DEX",
						"label": "Stacked",
						"offset": 0,
						"slot": "2",
						"type": "t_mapping(t_address,t_array(t_struct(Stack_Struct)993_storage)dyn_storage)"
					},
					{
						"astId": 1038,
						"contract": "DEX.sol:DEX",
						"label": "dailyTax",
						"offset": 0,
						"slot": "3",
						"type": "t_mapping(t_uint256,t_uint256)"
					},
					{
						"astId": 1040,
						"contract": "DEX.sol:DEX",
						"label": "stackingRate",
						"offset": 0,
						"slot": "4",
						"type": "t_uint256"
					},
					{
						"astId": 1042,
						"contract": "DEX.sol:DEX",
						"label": "_k",
						"offset": 0,
						"slot": "5",
						"type": "t_uint256"
					},
					{
						"astId": 1044,
						"contract": "DEX.sol:DEX",
						"label": "_x",
						"offset": 0,
						"slot": "6",
						"type": "t_uint256"
					},
					{
						"astId": 1046,
						"contract": "DEX.sol:DEX",
						"label": "_y",
						"offset": 0,
						"slot": "7",
						"type": "t_uint256"
					},
					{
						"astId": 1049,
						"contract": "DEX.sol:DEX",
						"label": "precision",
						"offset": 0,
						"slot": "8",
						"type": "t_uint256"
					},
					{
						"astId": 1057,
						"contract": "DEX.sol:DEX",
						"label": "taxRate",
						"offset": 0,
						"slot": "9",
						"type": "t_uint256"
					}
				],
				"types": {
					"t_address": {
						"encoding": "inplace",
						"label": "address",
						"numberOfBytes": "20"
					},
					"t_array(t_struct(Stack_Struct)993_storage)dyn_storage": {
						"base": "t_struct(Stack_Struct)993_storage",
						"encoding": "dynamic_array",
						"label": "struct DEX.Stack_Struct[]",
						"numberOfBytes": "32"
					},
					"t_bool": {
						"encoding": "inplace",
						"label": "bool",
						"numberOfBytes": "1"
					},
					"t_contract(ERC20)807": {
						"encoding": "inplace",
						"label": "contract ERC20",
						"numberOfBytes": "20"
					},
					"t_mapping(t_address,t_array(t_struct(Stack_Struct)993_storage)dyn_storage)": {
						"encoding": "mapping",
						"key": "t_address",
						"label": "mapping(address => struct DEX.Stack_Struct[])",
						"numberOfBytes": "32",
						"value": "t_array(t_struct(Stack_Struct)993_storage)dyn_storage"
					},
					"t_mapping(t_uint256,t_uint256)": {
						"encoding": "mapping",
						"key": "t_uint256",
						"label": "mapping(uint256 => uint256)",
						"numberOfBytes": "32",
						"value": "t_uint256"
					},
					"t_struct(Stack_Struct)993_storage": {
						"encoding": "inplace",
						"label": "struct DEX.Stack_Struct",
						"members": [
							{
								"astId": 988,
								"contract": "DEX.sol:DEX",
								"label": "meme_amount",
								"offset": 0,
								"slot": "0",
								"type": "t_uint256"
							},
							{
								"astId": 990,
								"contract": "DEX.sol:DEX",
								"label": "eth_amount",
								"offset": 0,
								"slot": "1",
								"type": "t_uint256"
							},
							{
								"astId": 992,
								"contract": "DEX.sol:DEX",
								"label": "time",
								"offset": 0,
								"slot": "2",
								"type": "t_uint256"
							}
						],
						"numberOfBytes": "96"
					},
					"t_uint256": {
						"encoding": "inplace",
						"label": "uint256",
						"numberOfBytes": "32"
					}
				}
			},
			"userdoc": {
				"kind": "user",
				"methods": {},
				"version": 1
			}
		}
	}
}