{
	"DEX.sol": {
		"DEX": {
			"abi": [
				{
					"inputs": [
						{
							"internalType": "address",
							"name": "addr",
							"type": "address"
						},
						{
							"internalType": "uint256",
							"name": "_taxrate",
							"type": "uint256"
						}
					],
					"stateMutability": "nonpayable",
					"type": "constructor"
				},
				{
					"anonymous": false,
					"inputs": [
						{
							"indexed": true,
							"internalType": "address",
							"name": "from",
							"type": "address"
						},
						{
							"indexed": false,
							"internalType": "uint256",
							"name": "Meme_amount",
							"type": "uint256"
						},
						{
							"indexed": false,
							"internalType": "uint256",
							"name": "eth_amount",
							"type": "uint256"
						}
					],
					"name": "Buy",
					"type": "event"
				},
				{
					"anonymous": false,
					"inputs": [
						{
							"indexed": true,
							"internalType": "address",
							"name": "previousOwner",
							"type": "address"
						},
						{
							"indexed": true,
							"internalType": "address",
							"name": "newOwner",
							"type": "address"
						}
					],
					"name": "OwnershipTransferred",
					"type": "event"
				},
				{
					"anonymous": false,
					"inputs": [
						{
							"indexed": false,
							"internalType": "address",
							"name": "account",
							"type": "address"
						}
					],
					"name": "Paused",
					"type": "event"
				},
				{
					"anonymous": false,
					"inputs": [
						{
							"indexed": true,
							"internalType": "address",
							"name": "from",
							"type": "address"
						},
						{
							"indexed": false,
							"internalType": "uint256",
							"name": "Meme_amount",
							"type": "uint256"
						},
						{
							"indexed": false,
							"internalType": "uint256",
							"name": "eth_amount",
							"type": "uint256"
						}
					],
					"name": "Sell",
					"type": "event"
				},
				{
					"anonymous": false,
					"inputs": [
						{
							"indexed": true,
							"internalType": "address",
							"name": "from",
							"type": "address"
						},
						{
							"indexed": false,
							"internalType": "uint256",
							"name": "Meme_amount",
							"type": "uint256"
						},
						{
							"indexed": false,
							"internalType": "uint256",
							"name": "eth_amount",
							"type": "uint256"
						}
					],
					"name": "Stack",
					"type": "event"
				},
				{
					"anonymous": false,
					"inputs": [
						{
							"indexed": true,
							"internalType": "address",
							"name": "from",
							"type": "address"
						},
						{
							"indexed": false,
							"internalType": "uint256",
							"name": "Meme_amount",
							"type": "uint256"
						},
						{
							"indexed": false,
							"internalType": "uint256",
							"name": "eth_amount",
							"type": "uint256"
						}
					],
					"name": "UnStack",
					"type": "event"
				},
				{
					"anonymous": false,
					"inputs": [
						{
							"indexed": false,
							"internalType": "address",
							"name": "account",
							"type": "address"
						}
					],
					"name": "Unpaused",
					"type": "event"
				},
				{
					"inputs": [
						{
							"internalType": "uint256",
							"name": "poolIndex",
							"type": "uint256"
						}
					],
					"name": "_distributeTax",
					"outputs": [
						{
							"internalType": "uint256",
							"name": "",
							"type": "uint256"
						}
					],
					"stateMutability": "view",
					"type": "function"
				},
				{
					"inputs": [
						{
							"internalType": "uint256",
							"name": "meme_amount",
							"type": "uint256"
						},
						{
							"internalType": "address",
							"name": "ownerAddress",
							"type": "address"
						},
						{
							"internalType": "uint256",
							"name": "msgValue",
							"type": "uint256"
						}
					],
					"name": "buy",
					"outputs": [],
					"stateMutability": "payable",
					"type": "function"
				},
				{
					"inputs": [
						{
							"internalType": "uint256",
							"name": "meme_amount",
							"type": "uint256"
						}
					],
					"name": "buy",
					"outputs": [],
					"stateMutability": "payable",
					"type": "function"
				},
				{
					"inputs": [
						{
							"internalType": "uint256",
							"name": "",
							"type": "uint256"
						}
					],
					"name": "dailyTax",
					"outputs": [
						{
							"internalType": "uint256",
							"name": "",
							"type": "uint256"
						}
					],
					"stateMutability": "view",
					"type": "function"
				},
				{
					"inputs": [
						{
							"internalType": "uint256",
							"name": "eth_amount",
							"type": "uint256"
						}
					],
					"name": "getETHPrice",
					"outputs": [
						{
							"internalType": "uint256",
							"name": "",
							"type": "uint256"
						}
					],
					"stateMutability": "view",
					"type": "function"
				},
				{
					"inputs": [
						{
							"internalType": "uint256",
							"name": "meme_amount",
							"type": "uint256"
						}
					],
					"name": "getMemePrice",
					"outputs": [
						{
							"internalType": "uint256",
							"name": "",
							"type": "uint256"
						}
					],
					"stateMutability": "view",
					"type": "function"
				},
				{
					"inputs": [],
					"name": "getStacks",
					"outputs": [
						{
							"components": [
								{
									"internalType": "uint256",
									"name": "meme_amount",
									"type": "uint256"
								},
								{
									"internalType": "uint256",
									"name": "eth_amount",
									"type": "uint256"
								},
								{
									"internalType": "uint256",
									"name": "time",
									"type": "uint256"
								}
							],
							"internalType": "struct DEX.Stack_Struct[]",
							"name": "",
							"type": "tuple[]"
						}
					],
					"stateMutability": "view",
					"type": "function"
				},
				{
					"inputs": [],
					"name": "owner",
					"outputs": [
						{
							"internalType": "address",
							"name": "",
							"type": "address"
						}
					],
					"stateMutability": "view",
					"type": "function"
				},
				{
					"inputs": [],
					"name": "pause",
					"outputs": [],
					"stateMutability": "nonpayable",
					"type": "function"
				},
				{
					"inputs": [],
					"name": "paused",
					"outputs": [
						{
							"internalType": "bool",
							"name": "",
							"type": "bool"
						}
					],
					"stateMutability": "view",
					"type": "function"
				},
				{
					"inputs": [],
					"name": "renounceOwnership",
					"outputs": [],
					"stateMutability": "nonpayable",
					"type": "function"
				},
				{
					"inputs": [
						{
							"internalType": "uint256",
							"name": "eth_amount",
							"type": "uint256"
						},
						{
							"internalType": "address",
							"name": "ownerAddress",
							"type": "address"
						}
					],
					"name": "sell",
					"outputs": [],
					"stateMutability": "nonpayable",
					"type": "function"
				},
				{
					"inputs": [
						{
							"internalType": "uint256",
							"name": "eth_amount",
							"type": "uint256"
						}
					],
					"name": "sell",
					"outputs": [],
					"stateMutability": "nonpayable",
					"type": "function"
				},
				{
					"inputs": [
						{
							"internalType": "uint256",
							"name": "meme_amount",
							"type": "uint256"
						}
					],
					"name": "stack",
					"outputs": [],
					"stateMutability": "payable",
					"type": "function"
				},
				{
					"inputs": [],
					"name": "stackingRate",
					"outputs": [
						{
							"internalType": "uint256",
							"name": "",
							"type": "uint256"
						}
					],
					"stateMutability": "view",
					"type": "function"
				},
				{
					"inputs": [
						{
							"internalType": "address",
							"name": "newOwner",
							"type": "address"
						}
					],
					"name": "transferOwnership",
					"outputs": [],
					"stateMutability": "nonpayable",
					"type": "function"
				},
				{
					"inputs": [],
					"name": "unpause",
					"outputs": [],
					"stateMutability": "nonpayable",
					"type": "function"
				},
				{
					"inputs": [
						{
							"internalType": "uint256",
							"name": "index",
							"type": "uint256"
						}
					],
					"name": "unstack",
					"outputs": [],
					"stateMutability": "nonpayable",
					"type": "function"
				},
				{
					"stateMutability": "payable",
					"type": "receive"
				}
			],
			"devdoc": {
				"events": {
					"Paused(address)": {
						"details": "Emitted when the pause is triggered by `account`."
					},
					"Unpaused(address)": {
						"details": "Emitted when the pause is lifted by `account`."
					}
				},
				"kind": "dev",
				"methods": {
					"owner()": {
						"details": "Returns the address of the current owner."
					},
					"paused()": {
						"details": "Returns true if the contract is paused, and false otherwise."
					},
					"renounceOwnership()": {
						"details": "Leaves the contract without owner. It will not be possible to call `onlyOwner` functions. Can only be called by the current owner. NOTE: Renouncing ownership will leave the contract without an owner, thereby disabling any functionality that is only available to the owner."
					},
					"transferOwnership(address)": {
						"details": "Transfers ownership of the contract to a new account (`newOwner`). Can only be called by the current owner."
					}
				},
				"version": 1
			},
			"evm": {
				"assembly": "    /* \"DEX.sol\":243:12123  contract DEX is Pausable, Ownable {... */\n  mstore(0x40, 0x80)\n    /* \"DEX.sol\":1008:1013  10e18 */\n  0x8ac7230489e80000\n    /* \"DEX.sol\":979:1013  uint256 internal precision = 10e18 */\n  0x08\n  sstore\n    /* \"DEX.sol\":1065:1069  1000 */\n  0x03e8\n    /* \"DEX.sol\":1052:1061  precision */\n  sload(0x08)\n    /* \"DEX.sol\":1048:1049  3 */\n  0x03\n    /* \"DEX.sol\":1048:1061  3 * precision */\n  tag_1\n  swap2\n  swap1\n  tag_2\n  jump\t// in\ntag_1:\n    /* \"DEX.sol\":1047:1069  (3 * precision) / 1000 */\n  tag_3\n  swap2\n  swap1\n  tag_4\n  jump\t// in\ntag_3:\n    /* \"DEX.sol\":1020:1069  uint256 internal taxRate = (3 * precision) / 1000 */\n  0x09\n  sstore\n    /* \"DEX.sol\":2619:2621  _x */\n  sload(0x06)\n    /* \"DEX.sol\":2590:2621  uint256 internal originalX = _x */\n  0x0a\n  sstore\n    /* \"DEX.sol\":1076:1241  constructor(address addr, uint256 _taxrate) {... */\n  callvalue\n  dup1\n  iszero\n  tag_5\n  jumpi\n  0x00\n  dup1\n  revert\ntag_5:\n  pop\n  mload(0x40)\n  sub(codesize, bytecodeSize)\n  dup1\n  bytecodeSize\n  dup4\n  codecopy\n  dup2\n  add\n  0x40\n  dup2\n  swap1\n  mstore\n  tag_6\n  swap2\n  tag_7\n  jump\t// in\ntag_6:\n    /* \"@openzeppelin/contracts/security/Pausable.sol\":1006:1011  false */\n  0x00\n    /* \"@openzeppelin/contracts/security/Pausable.sol\":996:1011  _paused = false */\n  dup1\n  sload\n  not(0xff)\n  and\n  swap1\n  sstore\n    /* \"@openzeppelin/contracts/access/Ownable.sol\":936:968  _transferOwnership(_msgSender()) */\n  tag_13\n    /* \"@openzeppelin/contracts/utils/Context.sol\":719:729  msg.sender */\n  caller\n    /* \"@openzeppelin/contracts/access/Ownable.sol\":936:954  _transferOwnership */\n  tag_16\n    /* \"@openzeppelin/contracts/access/Ownable.sol\":936:968  _transferOwnership(_msgSender()) */\n  jump\t// in\ntag_13:\n    /* \"DEX.sol\":1130:1134  meme */\n  0x01\n    /* \"DEX.sol\":1130:1147  meme = MEME(addr) */\n  dup1\n  sload\n  not(sub(shl(0xa0, 0x01), 0x01))\n  and\n  sub(shl(0xa0, 0x01), 0x01)\n  dup5\n  and\n  or\n  swap1\n  sstore\n    /* \"DEX.sol\":1179:1188  precision */\n  sload(0x08)\n    /* \"DEX.sol\":1192:1196  1000 */\n  0x03e8\n  swap1\n    /* \"DEX.sol\":1168:1188  _taxrate * precision */\n  tag_18\n  swap1\n    /* \"DEX.sol\":1168:1176  _taxrate */\n  dup4\n    /* \"DEX.sol\":1168:1188  _taxrate * precision */\n  tag_2\n  jump\t// in\ntag_18:\n    /* \"DEX.sol\":1167:1196  (_taxrate * precision) / 1000 */\n  tag_19\n  swap2\n  swap1\n  tag_4\n  jump\t// in\ntag_19:\n    /* \"DEX.sol\":1157:1164  taxRate */\n  0x09\n    /* \"DEX.sol\":1157:1196  taxRate = (_taxrate * precision) / 1000 */\n  sstore\n  pop\n    /* \"DEX.sol\":243:12123  contract DEX is Pausable, Ownable {... */\n  tag_23\n  swap1\n  pop\n  jump\n    /* \"@openzeppelin/contracts/access/Ownable.sol\":2426:2613  function _transferOwnership(address newOwner) internal virtual {... */\ntag_16:\n    /* \"@openzeppelin/contracts/access/Ownable.sol\":2499:2515  address oldOwner */\n  0x00\n    /* \"@openzeppelin/contracts/access/Ownable.sol\":2518:2524  _owner */\n  dup1\n  sload\n  sub(shl(0xa0, 0x01), 0x01)\n    /* \"@openzeppelin/contracts/access/Ownable.sol\":2534:2551  _owner = newOwner */\n  dup4\n  dup2\n  and\n    /* \"@openzeppelin/contracts/access/Ownable.sol\":2518:2524  _owner */\n  0x0100\n    /* \"@openzeppelin/contracts/access/Ownable.sol\":2534:2551  _owner = newOwner */\n  dup2\n  dup2\n  mul\n  not(sub(shl(0xa8, 0x01), 0x0100))\n  dup6\n  and\n  or\n  dup6\n  sstore\n    /* \"@openzeppelin/contracts/access/Ownable.sol\":2566:2606  OwnershipTransferred(oldOwner, newOwner) */\n  mload(0x40)\n    /* \"@openzeppelin/contracts/access/Ownable.sol\":2518:2524  _owner */\n  swap4\n  div\n  swap2\n  swap1\n  swap2\n  and\n  swap3\n    /* \"@openzeppelin/contracts/access/Ownable.sol\":2534:2551  _owner = newOwner */\n  swap1\n  swap2\n    /* \"@openzeppelin/contracts/access/Ownable.sol\":2518:2524  _owner */\n  dup4\n  swap2\n    /* \"@openzeppelin/contracts/access/Ownable.sol\":2566:2606  OwnershipTransferred(oldOwner, newOwner) */\n  0x8be0079c531659141344cd1fd0a4f28419497f9722a3daafe3b4186f6b6457e0\n  swap2\n  log3\n    /* \"@openzeppelin/contracts/access/Ownable.sol\":2489:2613  {... */\n  pop\n    /* \"@openzeppelin/contracts/access/Ownable.sol\":2426:2613  function _transferOwnership(address newOwner) internal virtual {... */\n  pop\n  jump\t// out\n    /* \"#utility.yul\":14:279   */\ntag_2:\n    /* \"#utility.yul\":87:96   */\n  dup1\n  dup3\n  mul\n    /* \"#utility.yul\":118:127   */\n  dup2\n  iszero\n    /* \"#utility.yul\":135:150   */\n  dup3\n  dup3\n  div\n    /* \"#utility.yul\":129:151   */\n  dup5\n  eq\n    /* \"#utility.yul\":115:152   */\n  or\n    /* \"#utility.yul\":105:273   */\n  tag_25\n  jumpi\n    /* \"#utility.yul\":195:205   */\n  0x4e487b71\n    /* \"#utility.yul\":190:193   */\n  0xe0\n    /* \"#utility.yul\":186:206   */\n  shl\n    /* \"#utility.yul\":183:184   */\n  0x00\n    /* \"#utility.yul\":176:207   */\n  mstore\n    /* \"#utility.yul\":230:234   */\n  0x11\n    /* \"#utility.yul\":227:228   */\n  0x04\n    /* \"#utility.yul\":220:235   */\n  mstore\n    /* \"#utility.yul\":258:262   */\n  0x24\n    /* \"#utility.yul\":255:256   */\n  0x00\n    /* \"#utility.yul\":248:263   */\n  revert\n    /* \"#utility.yul\":105:273   */\ntag_25:\n    /* \"#utility.yul\":14:279   */\n  swap3\n  swap2\n  pop\n  pop\n  jump\t// out\n    /* \"#utility.yul\":284:501   */\ntag_4:\n    /* \"#utility.yul\":324:325   */\n  0x00\n    /* \"#utility.yul\":350:351   */\n  dup3\n    /* \"#utility.yul\":340:472   */\n  tag_27\n  jumpi\n    /* \"#utility.yul\":394:404   */\n  0x4e487b71\n    /* \"#utility.yul\":389:392   */\n  0xe0\n    /* \"#utility.yul\":385:405   */\n  shl\n    /* \"#utility.yul\":382:383   */\n  0x00\n    /* \"#utility.yul\":375:406   */\n  mstore\n    /* \"#utility.yul\":429:433   */\n  0x12\n    /* \"#utility.yul\":426:427   */\n  0x04\n    /* \"#utility.yul\":419:434   */\n  mstore\n    /* \"#utility.yul\":457:461   */\n  0x24\n    /* \"#utility.yul\":454:455   */\n  0x00\n    /* \"#utility.yul\":447:462   */\n  revert\n    /* \"#utility.yul\":340:472   */\ntag_27:\n  pop\n    /* \"#utility.yul\":486:495   */\n  div\n  swap1\n    /* \"#utility.yul\":284:501   */\n  jump\t// out\n    /* \"#utility.yul\":506:857   */\ntag_7:\n    /* \"#utility.yul\":585:591   */\n  0x00\n    /* \"#utility.yul\":593:599   */\n  dup1\n    /* \"#utility.yul\":646:648   */\n  0x40\n    /* \"#utility.yul\":634:643   */\n  dup4\n    /* \"#utility.yul\":625:632   */\n  dup6\n    /* \"#utility.yul\":621:644   */\n  sub\n    /* \"#utility.yul\":617:649   */\n  slt\n    /* \"#utility.yul\":614:666   */\n  iszero\n  tag_29\n  jumpi\n    /* \"#utility.yul\":662:663   */\n  0x00\n    /* \"#utility.yul\":659:660   */\n  dup1\n    /* \"#utility.yul\":652:664   */\n  revert\n    /* \"#utility.yul\":614:666   */\ntag_29:\n    /* \"#utility.yul\":688:704   */\n  dup3\n  mload\n  sub(shl(0xa0, 0x01), 0x01)\n    /* \"#utility.yul\":733:764   */\n  dup2\n  and\n    /* \"#utility.yul\":723:765   */\n  dup2\n  eq\n    /* \"#utility.yul\":713:783   */\n  tag_30\n  jumpi\n    /* \"#utility.yul\":779:780   */\n  0x00\n    /* \"#utility.yul\":776:777   */\n  dup1\n    /* \"#utility.yul\":769:781   */\n  revert\n    /* \"#utility.yul\":713:783   */\ntag_30:\n    /* \"#utility.yul\":847:849   */\n  0x20\n    /* \"#utility.yul\":832:850   */\n  swap4\n  swap1\n  swap4\n  add\n    /* \"#utility.yul\":826:851   */\n  mload\n    /* \"#utility.yul\":802:807   */\n  swap3\n  swap5\n    /* \"#utility.yul\":826:851   */\n  swap3\n  swap4\n  pop\n  pop\n  pop\n    /* \"#utility.yul\":506:857   */\n  jump\t// out\ntag_23:\n    /* \"DEX.sol\":243:12123  contract DEX is Pausable, Ownable {... */\n  dataSize(sub_0)\n  dup1\n  dataOffset(sub_0)\n  0x00\n  codecopy\n  0x00\n  return\nstop\n\nsub_0: assembly {\n        /* \"DEX.sol\":243:12123  contract DEX is Pausable, Ownable {... */\n      mstore(0x40, 0x80)\n      jumpi(tag_1, lt(calldatasize, 0x04))\n      shr(0xe0, calldataload(0x00))\n      dup1\n      0x8456cb59\n      gt\n      tag_21\n      jumpi\n      dup1\n      0xd96a094a\n      gt\n      tag_22\n      jumpi\n      dup1\n      0xd96a094a\n      eq\n      tag_16\n      jumpi\n      dup1\n      0xdc9031c4\n      eq\n      tag_17\n      jumpi\n      dup1\n      0xe4849b32\n      eq\n      tag_18\n      jumpi\n      dup1\n      0xe8bca8b8\n      eq\n      tag_19\n      jumpi\n      dup1\n      0xf2fde38b\n      eq\n      tag_20\n      jumpi\n      0x00\n      dup1\n      revert\n    tag_22:\n      dup1\n      0x8456cb59\n      eq\n      tag_12\n      jumpi\n      dup1\n      0x8da5cb5b\n      eq\n      tag_13\n      jumpi\n      dup1\n      0x9c74f05d\n      eq\n      tag_14\n      jumpi\n      dup1\n      0xd37a389b\n      eq\n      tag_15\n      jumpi\n      0x00\n      dup1\n      revert\n    tag_21:\n      dup1\n      0x3f4ba83a\n      gt\n      tag_23\n      jumpi\n      dup1\n      0x3f4ba83a\n      eq\n      tag_7\n      jumpi\n      dup1\n      0x4189a68e\n      eq\n      tag_8\n      jumpi\n      dup1\n      0x5c572ed0\n      eq\n      tag_9\n      jumpi\n      dup1\n      0x5c975abb\n      eq\n      tag_10\n      jumpi\n      dup1\n      0x715018a6\n      eq\n      tag_11\n      jumpi\n      0x00\n      dup1\n      revert\n    tag_23:\n      dup1\n      0x1a753fed\n      eq\n      tag_3\n      jumpi\n      dup1\n      0x200061df\n      eq\n      tag_4\n      jumpi\n      dup1\n      0x2ad9d559\n      eq\n      tag_5\n      jumpi\n      dup1\n      0x2afaca20\n      eq\n      tag_6\n      jumpi\n      0x00\n      dup1\n      revert\n    tag_1:\n      jumpi(tag_2, calldatasize)\n      stop\n    tag_2:\n      0x00\n      dup1\n      revert\n        /* \"DEX.sol\":8402:9160  function getETHPrice(uint256 eth_amount)... */\n    tag_3:\n      callvalue\n      dup1\n      iszero\n      tag_26\n      jumpi\n      0x00\n      dup1\n      revert\n    tag_26:\n      pop\n      tag_27\n      tag_28\n      calldatasize\n      0x04\n      tag_29\n      jump\t// in\n    tag_28:\n      tag_30\n      jump\t// in\n    tag_27:\n      mload(0x40)\n        /* \"#utility.yul\":345:370   */\n      swap1\n      dup2\n      mstore\n        /* \"#utility.yul\":333:335   */\n      0x20\n        /* \"#utility.yul\":318:336   */\n      add\n        /* \"DEX.sol\":8402:9160  function getETHPrice(uint256 eth_amount)... */\n    tag_31:\n      mload(0x40)\n      dup1\n      swap2\n      sub\n      swap1\n      return\n        /* \"DEX.sol\":1913:2060  function unstack(uint256 index) public whenNotPaused {... */\n    tag_4:\n      callvalue\n      dup1\n      iszero\n      tag_33\n      jumpi\n      0x00\n      dup1\n      revert\n    tag_33:\n      pop\n      tag_34\n      tag_35\n      calldatasize\n      0x04\n      tag_29\n      jump\t// in\n    tag_35:\n      tag_36\n      jump\t// in\n    tag_34:\n      stop\n        /* \"DEX.sol\":819:862  mapping(uint256 => uint256) public dailyTax */\n    tag_5:\n      callvalue\n      dup1\n      iszero\n      tag_37\n      jumpi\n      0x00\n      dup1\n      revert\n    tag_37:\n      pop\n      tag_27\n      tag_39\n      calldatasize\n      0x04\n      tag_29\n      jump\t// in\n    tag_39:\n      mstore(0x20, 0x03)\n      0x00\n      swap1\n      dup2\n      mstore\n      0x40\n      swap1\n      keccak256\n      sload\n      dup2\n      jump\n        /* \"DEX.sol\":9210:9814  function buy(... */\n    tag_6:\n      tag_34\n      tag_43\n      calldatasize\n      0x04\n      tag_44\n      jump\t// in\n    tag_43:\n      tag_45\n      jump\t// in\n        /* \"DEX.sol\":1314:1379  function unpause() external onlyOwner {... */\n    tag_7:\n      callvalue\n      dup1\n      iszero\n      tag_46\n      jumpi\n      0x00\n      dup1\n      revert\n    tag_46:\n      pop\n      tag_34\n      tag_48\n      jump\t// in\n        /* \"DEX.sol\":10356:11044  function sell(uint256 eth_amount, address ownerAddress)... */\n    tag_8:\n      callvalue\n      dup1\n      iszero\n      tag_49\n      jumpi\n      0x00\n      dup1\n      revert\n    tag_49:\n      pop\n      tag_34\n      tag_51\n      calldatasize\n      0x04\n      tag_52\n      jump\t// in\n    tag_51:\n      tag_53\n      jump\t// in\n        /* \"DEX.sol\":7145:7834  function getMemePrice(uint256 meme_amount)... */\n    tag_9:\n      callvalue\n      dup1\n      iszero\n      tag_54\n      jumpi\n      0x00\n      dup1\n      revert\n    tag_54:\n      pop\n      tag_27\n      tag_56\n      calldatasize\n      0x04\n      tag_29\n      jump\t// in\n    tag_56:\n      tag_57\n      jump\t// in\n        /* \"@openzeppelin/contracts/security/Pausable.sol\":1615:1699  function paused() public view virtual returns (bool) {... */\n    tag_10:\n      callvalue\n      dup1\n      iszero\n      tag_59\n      jumpi\n      0x00\n      dup1\n      revert\n    tag_59:\n      pop\n        /* \"@openzeppelin/contracts/security/Pausable.sol\":1662:1666  bool */\n      0x00\n        /* \"@openzeppelin/contracts/security/Pausable.sol\":1685:1692  _paused */\n      sload\n      0xff\n      and\n        /* \"@openzeppelin/contracts/security/Pausable.sol\":1615:1699  function paused() public view virtual returns (bool) {... */\n      mload(0x40)\n        /* \"#utility.yul\":1310:1324   */\n      swap1\n      iszero\n        /* \"#utility.yul\":1303:1325   */\n      iszero\n        /* \"#utility.yul\":1285:1326   */\n      dup2\n      mstore\n        /* \"#utility.yul\":1273:1275   */\n      0x20\n        /* \"#utility.yul\":1258:1276   */\n      add\n        /* \"@openzeppelin/contracts/security/Pausable.sol\":1615:1699  function paused() public view virtual returns (bool) {... */\n      tag_31\n        /* \"#utility.yul\":1145:1332   */\n      jump\n        /* \"@openzeppelin/contracts/access/Ownable.sol\":1824:1925  function renounceOwnership() public virtual onlyOwner {... */\n    tag_11:\n      callvalue\n      dup1\n      iszero\n      tag_64\n      jumpi\n      0x00\n      dup1\n      revert\n    tag_64:\n      pop\n      tag_34\n      tag_66\n      jump\t// in\n        /* \"DEX.sol\":1247:1308  function pause() external onlyOwner {... */\n    tag_12:\n      callvalue\n      dup1\n      iszero\n      tag_67\n      jumpi\n      0x00\n      dup1\n      revert\n    tag_67:\n      pop\n      tag_34\n      tag_69\n      jump\t// in\n        /* \"@openzeppelin/contracts/access/Ownable.sol\":1201:1286  function owner() public view virtual returns (address) {... */\n    tag_13:\n      callvalue\n      dup1\n      iszero\n      tag_70\n      jumpi\n      0x00\n      dup1\n      revert\n    tag_70:\n      pop\n        /* \"@openzeppelin/contracts/access/Ownable.sol\":1247:1254  address */\n      0x00\n        /* \"@openzeppelin/contracts/access/Ownable.sol\":1273:1279  _owner */\n      sload\n      0x0100\n      swap1\n      div\n      sub(shl(0xa0, 0x01), 0x01)\n      and\n        /* \"@openzeppelin/contracts/access/Ownable.sol\":1201:1286  function owner() public view virtual returns (address) {... */\n      mload(0x40)\n      sub(shl(0xa0, 0x01), 0x01)\n        /* \"#utility.yul\":1501:1533   */\n      swap1\n      swap2\n      and\n        /* \"#utility.yul\":1483:1534   */\n      dup2\n      mstore\n        /* \"#utility.yul\":1471:1473   */\n      0x20\n        /* \"#utility.yul\":1456:1474   */\n      add\n        /* \"@openzeppelin/contracts/access/Ownable.sol\":1201:1286  function owner() public view virtual returns (address) {... */\n      tag_31\n        /* \"#utility.yul\":1337:1540   */\n      jump\n        /* \"DEX.sol\":869:896  uint256 public stackingRate */\n    tag_14:\n      callvalue\n      dup1\n      iszero\n      tag_75\n      jumpi\n      0x00\n      dup1\n      revert\n    tag_75:\n      pop\n      tag_27\n      sload(0x04)\n      dup2\n      jump\n        /* \"DEX.sol\":5380:6176  function _distributeTax(uint256 poolIndex) public view returns (uint256) {... */\n    tag_15:\n      callvalue\n      dup1\n      iszero\n      tag_79\n      jumpi\n      0x00\n      dup1\n      revert\n    tag_79:\n      pop\n      tag_27\n      tag_81\n      calldatasize\n      0x04\n      tag_29\n      jump\t// in\n    tag_81:\n      tag_82\n      jump\t// in\n        /* \"DEX.sol\":9820:10350  function buy(uint256 meme_amount) public payable whenNotPaused {... */\n    tag_16:\n      tag_34\n      tag_85\n      calldatasize\n      0x04\n      tag_29\n      jump\t// in\n    tag_85:\n      tag_86\n      jump\t// in\n        /* \"DEX.sol\":1563:1907  function stack(uint256 meme_amount) public payable whenNotPaused {... */\n    tag_17:\n      tag_34\n      tag_88\n      calldatasize\n      0x04\n      tag_29\n      jump\t// in\n    tag_88:\n      tag_89\n      jump\t// in\n        /* \"DEX.sol\":11050:11688  function sell(uint256 eth_amount) public whenNotPaused {... */\n    tag_18:\n      callvalue\n      dup1\n      iszero\n      tag_90\n      jumpi\n      0x00\n      dup1\n      revert\n    tag_90:\n      pop\n      tag_34\n      tag_92\n      calldatasize\n      0x04\n      tag_29\n      jump\t// in\n    tag_92:\n      tag_93\n      jump\t// in\n        /* \"DEX.sol\":1449:1557  function getStacks() public view returns (Stack_Struct[] memory) {... */\n    tag_19:\n      callvalue\n      dup1\n      iszero\n      tag_94\n      jumpi\n      0x00\n      dup1\n      revert\n    tag_94:\n      pop\n      tag_95\n      tag_96\n      jump\t// in\n    tag_95:\n      mload(0x40)\n      tag_31\n      swap2\n      swap1\n      tag_98\n      jump\t// in\n        /* \"@openzeppelin/contracts/access/Ownable.sol\":2074:2272  function transferOwnership(address newOwner) public virtual onlyOwner {... */\n    tag_20:\n      callvalue\n      dup1\n      iszero\n      tag_99\n      jumpi\n      0x00\n      dup1\n      revert\n    tag_99:\n      pop\n      tag_34\n      tag_101\n      calldatasize\n      0x04\n      tag_102\n      jump\t// in\n    tag_101:\n      tag_103\n      jump\t// in\n        /* \"DEX.sol\":8402:9160  function getETHPrice(uint256 eth_amount)... */\n    tag_30:\n        /* \"DEX.sol\":8510:8517  uint256 */\n      0x00\n        /* \"@openzeppelin/contracts/security/Pausable.sol\":1239:1258  _requireNotPaused() */\n      tag_105\n        /* \"@openzeppelin/contracts/security/Pausable.sol\":1239:1256  _requireNotPaused */\n      tag_106\n        /* \"@openzeppelin/contracts/security/Pausable.sol\":1239:1258  _requireNotPaused() */\n      jump\t// in\n    tag_105:\n        /* \"DEX.sol\":8546:8547  0 */\n      0x00\n        /* \"DEX.sol\":8541:8543  _k */\n      sload(0x05)\n        /* \"DEX.sol\":8541:8547  _k > 0 */\n      gt\n        /* \"DEX.sol\":8533:8572  require(_k > 0, \"Not enough liquidity\") */\n      tag_108\n      jumpi\n      mload(0x40)\n      shl(0xe5, 0x461bcd)\n      dup2\n      mstore\n      0x04\n      add\n      tag_109\n      swap1\n      tag_110\n      jump\t// in\n    tag_109:\n      mload(0x40)\n      dup1\n      swap2\n      sub\n      swap1\n      revert\n    tag_108:\n        /* \"DEX.sol\":8582:8592  uint256 dx */\n      0x00\n        /* \"DEX.sol\":8606:8616  uint256 dy */\n      dup1\n        /* \"DEX.sol\":8634:8636  _x */\n      sload(0x06)\n        /* \"DEX.sol\":8640:8641  0 */\n      0x00\n        /* \"DEX.sol\":8634:8641  _x == 0 */\n      sub\n        /* \"DEX.sol\":8630:8748  if (_x == 0) {... */\n      tag_111\n      jumpi\n        /* \"DEX.sol\":8671:8681  eth_amount */\n      dup4\n        /* \"DEX.sol\":8667:8668  1 */\n      0x01\n        /* \"DEX.sol\":8662:8664  _k */\n      sload(0x05)\n        /* \"DEX.sol\":8662:8668  _k / 1 */\n      tag_112\n      swap2\n      swap1\n      tag_113\n      jump\t// in\n    tag_112:\n        /* \"DEX.sol\":8662:8681  _k / 1 - eth_amount */\n      tag_114\n      swap2\n      swap1\n      tag_115\n      jump\t// in\n    tag_114:\n        /* \"DEX.sol\":8657:8681  dy = _k / 1 - eth_amount */\n      swap1\n      pop\n        /* \"DEX.sol\":8630:8748  if (_x == 0) {... */\n      jump(tag_116)\n    tag_111:\n        /* \"DEX.sol\":8727:8737  eth_amount */\n      dup4\n        /* \"DEX.sol\":8722:8724  _x */\n      sload(0x06)\n        /* \"DEX.sol\":8717:8719  _k */\n      sload(0x05)\n        /* \"DEX.sol\":8717:8724  _k / _x */\n      tag_117\n      swap2\n      swap1\n      tag_113\n      jump\t// in\n    tag_117:\n        /* \"DEX.sol\":8717:8737  _k / _x - eth_amount */\n      tag_118\n      swap2\n      swap1\n      tag_115\n      jump\t// in\n    tag_118:\n        /* \"DEX.sol\":8712:8737  dy = _k / _x - eth_amount */\n      swap1\n      pop\n        /* \"DEX.sol\":8630:8748  if (_x == 0) {... */\n    tag_116:\n        /* \"DEX.sol\":8761:8763  dy */\n      dup1\n        /* \"DEX.sol\":8767:8768  0 */\n      0x00\n        /* \"DEX.sol\":8761:8768  dy == 0 */\n      sub\n        /* \"DEX.sol\":8757:8849  if (dy == 0) {... */\n      tag_119\n      jumpi\n        /* \"DEX.sol\":8794:8795  1 */\n      0x01\n        /* \"DEX.sol\":8789:8791  _k */\n      sload(0x05)\n        /* \"DEX.sol\":8789:8795  _k / 1 */\n      tag_120\n      swap2\n      swap1\n      tag_113\n      jump\t// in\n    tag_120:\n        /* \"DEX.sol\":8784:8795  dx = _k / 1 */\n      swap2\n      pop\n        /* \"DEX.sol\":8757:8849  if (dy == 0) {... */\n      jump(tag_121)\n    tag_119:\n        /* \"DEX.sol\":8836:8838  dy */\n      dup1\n        /* \"DEX.sol\":8831:8833  _k */\n      sload(0x05)\n        /* \"DEX.sol\":8831:8838  _k / dy */\n      tag_122\n      swap2\n      swap1\n      tag_113\n      jump\t// in\n    tag_122:\n        /* \"DEX.sol\":8826:8838  dx = _k / dy */\n      swap2\n      pop\n        /* \"DEX.sol\":8757:8849  if (dy == 0) {... */\n    tag_121:\n        /* \"DEX.sol\":8858:8888  uint256 meme_price_without_tax */\n      0x00\n        /* \"DEX.sol\":8896:8898  _x */\n      sload(0x06)\n        /* \"DEX.sol\":8891:8893  dx */\n      dup4\n        /* \"DEX.sol\":8891:8898  dx - _x */\n      tag_123\n      swap2\n      swap1\n      tag_115\n      jump\t// in\n    tag_123:\n        /* \"DEX.sol\":8858:8898  uint256 meme_price_without_tax = dx - _x */\n      swap1\n      pop\n        /* \"DEX.sol\":8908:8924  uint256 meme_tax */\n      0x00\n        /* \"DEX.sol\":8964:8973  precision */\n      sload(0x08)\n        /* \"DEX.sol\":8953:8960  taxRate */\n      sload(0x09)\n        /* \"DEX.sol\":8928:8950  meme_price_without_tax */\n      dup4\n        /* \"DEX.sol\":8928:8960  meme_price_without_tax * taxRate */\n      tag_124\n      swap2\n      swap1\n      tag_125\n      jump\t// in\n    tag_124:\n        /* \"DEX.sol\":8927:8973  (meme_price_without_tax * taxRate) / precision */\n      tag_126\n      swap2\n      swap1\n      tag_113\n      jump\t// in\n    tag_126:\n        /* \"DEX.sol\":8908:8973  uint256 meme_tax = (meme_price_without_tax * taxRate) / precision */\n      swap1\n      pop\n        /* \"DEX.sol\":9090:9112  meme_price_without_tax */\n      dup2\n        /* \"DEX.sol\":9130:9153  meme_price_with_tax + 1 */\n      tag_127\n        /* \"DEX.sol\":9090:9112  meme_price_without_tax */\n      dup2\n        /* \"DEX.sol\":9152:9153  1 */\n      0x01\n        /* \"DEX.sol\":9130:9153  meme_price_with_tax + 1 */\n      tag_128\n      jump\t// in\n    tag_127:\n        /* \"DEX.sol\":9123:9153  return meme_price_with_tax + 1 */\n      swap6\n      pop\n      pop\n      pop\n      pop\n      pop\n      pop\n        /* \"@openzeppelin/contracts/security/Pausable.sol\":1268:1269  _ */\n    tag_107:\n        /* \"DEX.sol\":8402:9160  function getETHPrice(uint256 eth_amount)... */\n      swap2\n      swap1\n      pop\n      jump\t// out\n        /* \"DEX.sol\":1913:2060  function unstack(uint256 index) public whenNotPaused {... */\n    tag_36:\n        /* \"@openzeppelin/contracts/security/Pausable.sol\":1239:1258  _requireNotPaused() */\n      tag_130\n        /* \"@openzeppelin/contracts/security/Pausable.sol\":1239:1256  _requireNotPaused */\n      tag_106\n        /* \"@openzeppelin/contracts/security/Pausable.sol\":1239:1258  _requireNotPaused() */\n      jump\t// in\n    tag_130:\n        /* \"DEX.sol\":2038:2053  _unstack(index) */\n      tag_132\n        /* \"DEX.sol\":2047:2052  index */\n      dup2\n        /* \"DEX.sol\":2038:2046  _unstack */\n      tag_133\n        /* \"DEX.sol\":2038:2053  _unstack(index) */\n      jump\t// in\n    tag_132:\n        /* \"DEX.sol\":1913:2060  function unstack(uint256 index) public whenNotPaused {... */\n      pop\n      jump\t// out\n        /* \"DEX.sol\":9210:9814  function buy(... */\n    tag_45:\n        /* \"@openzeppelin/contracts/security/Pausable.sol\":1239:1258  _requireNotPaused() */\n      tag_135\n        /* \"@openzeppelin/contracts/security/Pausable.sol\":1239:1256  _requireNotPaused */\n      tag_106\n        /* \"@openzeppelin/contracts/security/Pausable.sol\":1239:1258  _requireNotPaused() */\n      jump\t// in\n    tag_135:\n        /* \"DEX.sol\":9375:9376  0 */\n      0x00\n        /* \"DEX.sol\":9361:9372  meme_amount */\n      dup4\n        /* \"DEX.sol\":9361:9376  meme_amount > 0 */\n      gt\n        /* \"DEX.sol\":9353:9395  require(meme_amount > 0, \"Send Some Meme\") */\n      tag_137\n      jumpi\n      mload(0x40)\n      shl(0xe5, 0x461bcd)\n      dup2\n      mstore\n        /* \"#utility.yul\":3933:3935   */\n      0x20\n        /* \"DEX.sol\":9353:9395  require(meme_amount > 0, \"Send Some Meme\") */\n      0x04\n      dup3\n      add\n        /* \"#utility.yul\":3915:3936   */\n      mstore\n        /* \"#utility.yul\":3972:3974   */\n      0x0e\n        /* \"#utility.yul\":3952:3970   */\n      0x24\n      dup3\n      add\n        /* \"#utility.yul\":3945:3975   */\n      mstore\n      shl(0x90, 0x53656e6420536f6d65204d656d65)\n        /* \"#utility.yul\":3991:4009   */\n      0x44\n      dup3\n      add\n        /* \"#utility.yul\":3984:4028   */\n      mstore\n        /* \"#utility.yul\":4045:4063   */\n      0x64\n      add\n        /* \"DEX.sol\":9353:9395  require(meme_amount > 0, \"Send Some Meme\") */\n      tag_109\n        /* \"#utility.yul\":3731:4069   */\n      jump\n        /* \"DEX.sol\":9353:9395  require(meme_amount > 0, \"Send Some Meme\") */\n    tag_137:\n        /* \"DEX.sol\":9405:9423  uint256 meme_price */\n      0x00\n        /* \"DEX.sol\":9426:9451  getMemePrice(meme_amount) */\n      tag_140\n        /* \"DEX.sol\":9439:9450  meme_amount */\n      dup5\n        /* \"DEX.sol\":9426:9438  getMemePrice */\n      tag_57\n        /* \"DEX.sol\":9426:9451  getMemePrice(meme_amount) */\n      jump\t// in\n    tag_140:\n        /* \"DEX.sol\":9405:9451  uint256 meme_price = getMemePrice(meme_amount) */\n      swap1\n      pop\n        /* \"DEX.sol\":9483:9491  msgValue */\n      dup2\n        /* \"DEX.sol\":9469:9479  meme_price */\n      dup2\n        /* \"DEX.sol\":9469:9491  meme_price <= msgValue */\n      gt\n      iszero\n        /* \"DEX.sol\":9461:9509  require(meme_price <= msgValue, \"Send More ETH\") */\n      tag_141\n      jumpi\n      mload(0x40)\n      shl(0xe5, 0x461bcd)\n      dup2\n      mstore\n        /* \"#utility.yul\":4276:4278   */\n      0x20\n        /* \"DEX.sol\":9461:9509  require(meme_price <= msgValue, \"Send More ETH\") */\n      0x04\n      dup3\n      add\n        /* \"#utility.yul\":4258:4279   */\n      mstore\n        /* \"#utility.yul\":4315:4317   */\n      0x0d\n        /* \"#utility.yul\":4295:4313   */\n      0x24\n      dup3\n      add\n        /* \"#utility.yul\":4288:4318   */\n      mstore\n      shl(0x9b, 0x0a6cadcc8409adee4ca408aa89)\n        /* \"#utility.yul\":4334:4352   */\n      0x44\n      dup3\n      add\n        /* \"#utility.yul\":4327:4370   */\n      mstore\n        /* \"#utility.yul\":4387:4405   */\n      0x64\n      add\n        /* \"DEX.sol\":9461:9509  require(meme_price <= msgValue, \"Send More ETH\") */\n      tag_109\n        /* \"#utility.yul\":4074:4411   */\n      jump\n        /* \"DEX.sol\":9461:9509  require(meme_price <= msgValue, \"Send More ETH\") */\n    tag_141:\n        /* \"DEX.sol\":9520:9524  meme */\n      sload(0x01)\n        /* \"DEX.sol\":9520:9560  meme.transfer(ownerAddress, meme_amount) */\n      mload(0x40)\n      shl(0xe0, 0xa9059cbb)\n      dup2\n      mstore\n      sub(shl(0xa0, 0x01), 0x01)\n        /* \"#utility.yul\":4608:4640   */\n      dup6\n      dup2\n      and\n        /* \"DEX.sol\":9520:9560  meme.transfer(ownerAddress, meme_amount) */\n      0x04\n      dup4\n      add\n        /* \"#utility.yul\":4590:4641   */\n      mstore\n        /* \"#utility.yul\":4657:4675   */\n      0x24\n      dup3\n      add\n        /* \"#utility.yul\":4650:4684   */\n      dup8\n      swap1\n      mstore\n        /* \"DEX.sol\":9520:9524  meme */\n      swap1\n      swap2\n      and\n      swap1\n        /* \"DEX.sol\":9520:9533  meme.transfer */\n      0xa9059cbb\n      swap1\n        /* \"#utility.yul\":4563:4581   */\n      0x44\n      add\n        /* \"DEX.sol\":9520:9560  meme.transfer(ownerAddress, meme_amount) */\n      0x20\n      mload(0x40)\n      dup1\n      dup4\n      sub\n      dup2\n      0x00\n      dup8\n      gas\n      call\n      iszero\n      dup1\n      iszero\n      tag_147\n      jumpi\n      returndatasize\n      0x00\n      dup1\n      returndatacopy\n      revert(0x00, returndatasize)\n    tag_147:\n      pop\n      pop\n      pop\n      pop\n      mload(0x40)\n      returndatasize\n      not(0x1f)\n      0x1f\n      dup3\n      add\n      and\n      dup3\n      add\n      dup1\n      0x40\n      mstore\n      pop\n      dup2\n      add\n      swap1\n      tag_148\n      swap2\n      swap1\n      tag_149\n      jump\t// in\n    tag_148:\n      pop\n      sub(shl(0xa0, 0x01), 0x01)\n        /* \"DEX.sol\":9570:9600  payable(ownerAddress).transfer */\n      dup4\n      and\n        /* \"DEX.sol\":9570:9623  payable(ownerAddress).transfer(msgValue - meme_price) */\n      0x08fc\n        /* \"DEX.sol\":9601:9622  msgValue - meme_price */\n      tag_150\n        /* \"DEX.sol\":9612:9622  meme_price */\n      dup4\n        /* \"DEX.sol\":9601:9609  msgValue */\n      dup6\n        /* \"DEX.sol\":9601:9622  msgValue - meme_price */\n      tag_115\n      jump\t// in\n    tag_150:\n        /* \"DEX.sol\":9570:9623  payable(ownerAddress).transfer(msgValue - meme_price) */\n      mload(0x40)\n      dup2\n      iszero\n      swap1\n      swap3\n      mul\n      swap2\n      0x00\n      dup2\n      dup2\n      dup2\n      dup6\n      dup9\n      dup9\n      call\n      swap4\n      pop\n      pop\n      pop\n      pop\n      iszero\n      dup1\n      iszero\n      tag_152\n      jumpi\n      returndatasize\n      0x00\n      dup1\n      returndatacopy\n      revert(0x00, returndatasize)\n    tag_152:\n      pop\n        /* \"DEX.sol\":9672:9697  calculateTax(meme_amount) */\n      tag_153\n        /* \"DEX.sol\":9685:9696  meme_amount */\n      dup5\n        /* \"DEX.sol\":9672:9684  calculateTax */\n      tag_154\n        /* \"DEX.sol\":9672:9697  calculateTax(meme_amount) */\n      jump\t// in\n    tag_153:\n        /* \"DEX.sol\":9634:9642  dailyTax */\n      0x03\n        /* \"DEX.sol\":9634:9668  dailyTax[block.timestamp / 1 days] */\n      0x00\n        /* \"DEX.sol\":9643:9667  block.timestamp / 1 days */\n      tag_155\n        /* \"DEX.sol\":9661:9667  1 days */\n      0x015180\n        /* \"DEX.sol\":9643:9658  block.timestamp */\n      timestamp\n        /* \"DEX.sol\":9643:9667  block.timestamp / 1 days */\n      tag_113\n      jump\t// in\n    tag_155:\n        /* \"DEX.sol\":9634:9668  dailyTax[block.timestamp / 1 days] */\n      dup2\n      mstore\n      0x20\n      add\n      swap1\n      dup2\n      mstore\n      0x20\n      add\n      0x00\n      keccak256\n      0x00\n        /* \"DEX.sol\":9634:9697  dailyTax[block.timestamp / 1 days] += calculateTax(meme_amount) */\n      dup3\n      dup3\n      sload\n      tag_156\n      swap2\n      swap1\n      tag_128\n      jump\t// in\n    tag_156:\n      swap3\n      pop\n      pop\n      dup2\n      swap1\n      sstore\n      pop\n        /* \"DEX.sol\":9714:9725  meme_amount */\n      dup4\n        /* \"DEX.sol\":9708:9710  _x */\n      0x06\n      0x00\n        /* \"DEX.sol\":9708:9725  _x -= meme_amount */\n      dup3\n      dup3\n      sload\n      tag_157\n      swap2\n      swap1\n      tag_115\n      jump\t// in\n    tag_157:\n      swap1\n      swap2\n      sstore\n      pop\n      pop\n        /* \"DEX.sol\":9746:9748  _x */\n      sload(0x06)\n        /* \"DEX.sol\":9741:9743  _k */\n      sload(0x05)\n        /* \"DEX.sol\":9741:9748  _k / _x */\n      tag_158\n      swap2\n        /* \"DEX.sol\":9746:9748  _x */\n      swap1\n        /* \"DEX.sol\":9741:9748  _k / _x */\n      tag_113\n      jump\t// in\n    tag_158:\n        /* \"DEX.sol\":9735:9737  _y */\n      0x07\n        /* \"DEX.sol\":9735:9749  _y = (_k / _x) */\n      sstore\n        /* \"DEX.sol\":9765:9807  Buy(ownerAddress, meme_amount, meme_price) */\n      0x40\n      dup1\n      mload\n        /* \"#utility.yul\":5151:5176   */\n      dup6\n      dup2\n      mstore\n        /* \"#utility.yul\":5207:5209   */\n      0x20\n        /* \"#utility.yul\":5192:5210   */\n      dup2\n      add\n        /* \"#utility.yul\":5185:5219   */\n      dup4\n      swap1\n      mstore\n      sub(shl(0xa0, 0x01), 0x01)\n        /* \"DEX.sol\":9765:9807  Buy(ownerAddress, meme_amount, meme_price) */\n      dup6\n      and\n      swap2\n      0x1cbc5ab135991bd2b6a4b034a04aa2aa086dac1371cb9b16b8b5e2ed6b036bed\n      swap2\n        /* \"#utility.yul\":5124:5142   */\n      add\n        /* \"DEX.sol\":9765:9807  Buy(ownerAddress, meme_amount, meme_price) */\n      mload(0x40)\n      dup1\n      swap2\n      sub\n      swap1\n      log2\n        /* \"DEX.sol\":9343:9814  {... */\n      pop\n        /* \"DEX.sol\":9210:9814  function buy(... */\n      pop\n      pop\n      pop\n      jump\t// out\n        /* \"DEX.sol\":1314:1379  function unpause() external onlyOwner {... */\n    tag_48:\n        /* \"@openzeppelin/contracts/access/Ownable.sol\":1094:1107  _checkOwner() */\n      tag_162\n        /* \"@openzeppelin/contracts/access/Ownable.sol\":1094:1105  _checkOwner */\n      tag_163\n        /* \"@openzeppelin/contracts/access/Ownable.sol\":1094:1107  _checkOwner() */\n      jump\t// in\n    tag_162:\n        /* \"DEX.sol\":1362:1372  _unpause() */\n      tag_165\n        /* \"DEX.sol\":1362:1370  _unpause */\n      tag_166\n        /* \"DEX.sol\":1362:1372  _unpause() */\n      jump\t// in\n    tag_165:\n        /* \"DEX.sol\":1314:1379  function unpause() external onlyOwner {... */\n      jump\t// out\n        /* \"DEX.sol\":10356:11044  function sell(uint256 eth_amount, address ownerAddress)... */\n    tag_53:\n        /* \"@openzeppelin/contracts/security/Pausable.sol\":1239:1258  _requireNotPaused() */\n      tag_168\n        /* \"@openzeppelin/contracts/security/Pausable.sol\":1239:1256  _requireNotPaused */\n      tag_106\n        /* \"@openzeppelin/contracts/security/Pausable.sol\":1239:1258  _requireNotPaused() */\n      jump\t// in\n    tag_168:\n        /* \"DEX.sol\":10484:10485  0 */\n      0x00\n        /* \"DEX.sol\":10471:10481  eth_amount */\n      dup3\n        /* \"DEX.sol\":10471:10485  eth_amount > 0 */\n      gt\n        /* \"DEX.sol\":10463:10503  require(eth_amount > 0, \"Send Some ETH\") */\n      tag_170\n      jumpi\n      mload(0x40)\n      shl(0xe5, 0x461bcd)\n      dup2\n      mstore\n        /* \"#utility.yul\":5432:5434   */\n      0x20\n        /* \"DEX.sol\":10463:10503  require(eth_amount > 0, \"Send Some ETH\") */\n      0x04\n      dup3\n      add\n        /* \"#utility.yul\":5414:5435   */\n      mstore\n        /* \"#utility.yul\":5471:5473   */\n      0x0d\n        /* \"#utility.yul\":5451:5469   */\n      0x24\n      dup3\n      add\n        /* \"#utility.yul\":5444:5474   */\n      mstore\n      shl(0x9b, 0x0a6cadcc840a6dedaca408aa89)\n        /* \"#utility.yul\":5490:5508   */\n      0x44\n      dup3\n      add\n        /* \"#utility.yul\":5483:5526   */\n      mstore\n        /* \"#utility.yul\":5543:5561   */\n      0x64\n      add\n        /* \"DEX.sol\":10463:10503  require(eth_amount > 0, \"Send Some ETH\") */\n      tag_109\n        /* \"#utility.yul\":5230:5567   */\n      jump\n        /* \"DEX.sol\":10463:10503  require(eth_amount > 0, \"Send Some ETH\") */\n    tag_170:\n        /* \"DEX.sol\":10513:10530  uint256 eth_price */\n      0x00\n        /* \"DEX.sol\":10533:10556  getETHPrice(eth_amount) */\n      tag_173\n        /* \"DEX.sol\":10545:10555  eth_amount */\n      dup4\n        /* \"DEX.sol\":10533:10544  getETHPrice */\n      tag_30\n        /* \"DEX.sol\":10533:10556  getETHPrice(eth_amount) */\n      jump\t// in\n    tag_173:\n        /* \"DEX.sol\":10601:10605  meme */\n      sload(0x01)\n        /* \"DEX.sol\":10601:10629  meme.balanceOf(ownerAddress) */\n      mload(0x40)\n      shl(0xe0, 0x70a08231)\n      dup2\n      mstore\n      sub(shl(0xa0, 0x01), 0x01)\n        /* \"#utility.yul\":1501:1533   */\n      dup6\n      dup2\n      and\n        /* \"DEX.sol\":10601:10629  meme.balanceOf(ownerAddress) */\n      0x04\n      dup4\n      add\n        /* \"#utility.yul\":1483:1534   */\n      mstore\n        /* \"DEX.sol\":10513:10556  uint256 eth_price = getETHPrice(eth_amount) */\n      swap3\n      swap4\n      pop\n        /* \"DEX.sol\":10601:10605  meme */\n      swap2\n      and\n      swap1\n        /* \"DEX.sol\":10601:10615  meme.balanceOf */\n      0x70a08231\n      swap1\n        /* \"#utility.yul\":1456:1474   */\n      0x24\n      add\n        /* \"DEX.sol\":10601:10629  meme.balanceOf(ownerAddress) */\n      0x20\n      mload(0x40)\n      dup1\n      dup4\n      sub\n      dup2\n      dup7\n      gas\n      staticcall\n      iszero\n      dup1\n      iszero\n      tag_176\n      jumpi\n      returndatasize\n      0x00\n      dup1\n      returndatacopy\n      revert(0x00, returndatasize)\n    tag_176:\n      pop\n      pop\n      pop\n      pop\n      mload(0x40)\n      returndatasize\n      not(0x1f)\n      0x1f\n      dup3\n      add\n      and\n      dup3\n      add\n      dup1\n      0x40\n      mstore\n      pop\n      dup2\n      add\n      swap1\n      tag_177\n      swap2\n      swap1\n      tag_178\n      jump\t// in\n    tag_177:\n        /* \"DEX.sol\":10588:10597  eth_price */\n      dup2\n        /* \"DEX.sol\":10588:10629  eth_price <= meme.balanceOf(ownerAddress) */\n      gt\n      iszero\n        /* \"DEX.sol\":10567:10681  require(... */\n      tag_179\n      jumpi\n      mload(0x40)\n      shl(0xe5, 0x461bcd)\n      dup2\n      mstore\n        /* \"#utility.yul\":5963:5965   */\n      0x20\n        /* \"DEX.sol\":10567:10681  require(... */\n      0x04\n      dup3\n      add\n        /* \"#utility.yul\":5945:5966   */\n      mstore\n        /* \"#utility.yul\":6002:6004   */\n      0x1a\n        /* \"#utility.yul\":5982:6000   */\n      0x24\n      dup3\n      add\n        /* \"#utility.yul\":5975:6005   */\n      mstore\n        /* \"#utility.yul\":6041:6069   */\n      0x596f7520646f6e2774206861766520656e6f756768206d656d65000000000000\n        /* \"#utility.yul\":6021:6039   */\n      0x44\n      dup3\n      add\n        /* \"#utility.yul\":6014:6070   */\n      mstore\n        /* \"#utility.yul\":6087:6105   */\n      0x64\n      add\n        /* \"DEX.sol\":10567:10681  require(... */\n      tag_109\n        /* \"#utility.yul\":5761:6111   */\n      jump\n        /* \"DEX.sol\":10567:10681  require(... */\n    tag_179:\n        /* \"DEX.sol\":10691:10695  meme */\n      sload(0x01)\n        /* \"DEX.sol\":10691:10748  meme.transferFrom(ownerAddress, address(this), eth_price) */\n      mload(0x40)\n      shl(0xe0, 0x23b872dd)\n      dup2\n      mstore\n      sub(shl(0xa0, 0x01), 0x01)\n        /* \"#utility.yul\":6374:6389   */\n      dup5\n      dup2\n      and\n        /* \"DEX.sol\":10691:10748  meme.transferFrom(ownerAddress, address(this), eth_price) */\n      0x04\n      dup4\n      add\n        /* \"#utility.yul\":6356:6390   */\n      mstore\n        /* \"DEX.sol\":10731:10735  this */\n      address\n        /* \"#utility.yul\":6406:6424   */\n      0x24\n      dup4\n      add\n        /* \"#utility.yul\":6399:6442   */\n      mstore\n        /* \"#utility.yul\":6458:6476   */\n      0x44\n      dup3\n      add\n        /* \"#utility.yul\":6451:6485   */\n      dup5\n      swap1\n      mstore\n        /* \"DEX.sol\":10691:10695  meme */\n      swap1\n      swap2\n      and\n      swap1\n        /* \"DEX.sol\":10691:10708  meme.transferFrom */\n      0x23b872dd\n      swap1\n        /* \"#utility.yul\":6291:6309   */\n      0x64\n      add\n        /* \"DEX.sol\":10691:10748  meme.transferFrom(ownerAddress, address(this), eth_price) */\n      0x20\n      mload(0x40)\n      dup1\n      dup4\n      sub\n      dup2\n      0x00\n      dup8\n      gas\n      call\n      iszero\n      dup1\n      iszero\n      tag_185\n      jumpi\n      returndatasize\n      0x00\n      dup1\n      returndatacopy\n      revert(0x00, returndatasize)\n    tag_185:\n      pop\n      pop\n      pop\n      pop\n      mload(0x40)\n      returndatasize\n      not(0x1f)\n      0x1f\n      dup3\n      add\n      and\n      dup3\n      add\n      dup1\n      0x40\n      mstore\n      pop\n      dup2\n      add\n      swap1\n      tag_186\n      swap2\n      swap1\n      tag_149\n      jump\t// in\n    tag_186:\n      pop\n        /* \"DEX.sol\":10758:10800  payable(ownerAddress).transfer(eth_amount) */\n      mload(0x40)\n      sub(shl(0xa0, 0x01), 0x01)\n        /* \"DEX.sol\":10758:10788  payable(ownerAddress).transfer */\n      dup4\n      and\n      swap1\n        /* \"DEX.sol\":10758:10800  payable(ownerAddress).transfer(eth_amount) */\n      dup5\n      iszero\n      0x08fc\n      mul\n      swap1\n        /* \"DEX.sol\":10789:10799  eth_amount */\n      dup6\n      swap1\n        /* \"DEX.sol\":10758:10800  payable(ownerAddress).transfer(eth_amount) */\n      0x00\n      dup2\n      dup2\n      dup2\n        /* \"DEX.sol\":10789:10799  eth_amount */\n      dup6\n        /* \"DEX.sol\":10758:10788  payable(ownerAddress).transfer */\n      dup9\n        /* \"DEX.sol\":10758:10800  payable(ownerAddress).transfer(eth_amount) */\n      dup9\n      call\n      swap4\n      pop\n      pop\n      pop\n      pop\n      iszero\n      dup1\n      iszero\n      tag_188\n      jumpi\n      returndatasize\n      0x00\n      dup1\n      returndatacopy\n      revert(0x00, returndatasize)\n    tag_188:\n      pop\n        /* \"DEX.sol\":10946:10956  eth_amount */\n      dup3\n        /* \"DEX.sol\":10940:10942  _y */\n      0x07\n      0x00\n        /* \"DEX.sol\":10940:10956  _y -= eth_amount */\n      dup3\n      dup3\n      sload\n      tag_189\n      swap2\n      swap1\n      tag_115\n      jump\t// in\n    tag_189:\n      swap1\n      swap2\n      sstore\n      pop\n      pop\n        /* \"DEX.sol\":10977:10979  _y */\n      sload(0x07)\n        /* \"DEX.sol\":10972:10974  _k */\n      sload(0x05)\n        /* \"DEX.sol\":10972:10979  _k / _y */\n      tag_190\n      swap2\n        /* \"DEX.sol\":10977:10979  _y */\n      swap1\n        /* \"DEX.sol\":10972:10979  _k / _y */\n      tag_113\n      jump\t// in\n    tag_190:\n        /* \"DEX.sol\":10966:10968  _x */\n      0x06\n        /* \"DEX.sol\":10966:10980  _x = (_k / _y) */\n      sstore\n        /* \"DEX.sol\":10996:11037  Sell(ownerAddress, eth_price, eth_amount) */\n      0x40\n      dup1\n      mload\n        /* \"#utility.yul\":5151:5176   */\n      dup3\n      dup2\n      mstore\n        /* \"#utility.yul\":5207:5209   */\n      0x20\n        /* \"#utility.yul\":5192:5210   */\n      dup2\n      add\n        /* \"#utility.yul\":5185:5219   */\n      dup6\n      swap1\n      mstore\n      sub(shl(0xa0, 0x01), 0x01)\n        /* \"DEX.sol\":10996:11037  Sell(ownerAddress, eth_price, eth_amount) */\n      dup5\n      and\n      swap2\n      0xed7a144fad14804d5c249145e3e0e2b63a9eb455b76aee5bc92d711e9bba3e4a\n      swap2\n        /* \"#utility.yul\":5124:5142   */\n      add\n        /* \"DEX.sol\":10996:11037  Sell(ownerAddress, eth_price, eth_amount) */\n    tag_191:\n      mload(0x40)\n      dup1\n      swap2\n      sub\n      swap1\n      log2\n        /* \"DEX.sol\":10453:11044  {... */\n      pop\n        /* \"DEX.sol\":10356:11044  function sell(uint256 eth_amount, address ownerAddress)... */\n      pop\n      pop\n      jump\t// out\n        /* \"DEX.sol\":7145:7834  function getMemePrice(uint256 meme_amount)... */\n    tag_57:\n        /* \"DEX.sol\":7255:7262  uint256 */\n      0x00\n        /* \"@openzeppelin/contracts/security/Pausable.sol\":1239:1258  _requireNotPaused() */\n      tag_193\n        /* \"@openzeppelin/contracts/security/Pausable.sol\":1239:1256  _requireNotPaused */\n      tag_106\n        /* \"@openzeppelin/contracts/security/Pausable.sol\":1239:1258  _requireNotPaused() */\n      jump\t// in\n    tag_193:\n        /* \"DEX.sol\":7291:7292  0 */\n      0x00\n        /* \"DEX.sol\":7286:7288  _k */\n      sload(0x05)\n        /* \"DEX.sol\":7286:7292  _k > 0 */\n      gt\n        /* \"DEX.sol\":7278:7317  require(_k > 0, \"Not enough liquidity\") */\n      tag_195\n      jumpi\n      mload(0x40)\n      shl(0xe5, 0x461bcd)\n      dup2\n      mstore\n      0x04\n      add\n      tag_109\n      swap1\n      tag_110\n      jump\t// in\n    tag_195:\n        /* \"DEX.sol\":7327:7337  uint256 dx */\n      0x00\n        /* \"DEX.sol\":7351:7361  uint256 dy */\n      dup1\n        /* \"DEX.sol\":7379:7381  _y */\n      sload(0x07)\n        /* \"DEX.sol\":7385:7386  0 */\n      0x00\n        /* \"DEX.sol\":7379:7386  _y == 0 */\n      sub\n        /* \"DEX.sol\":7375:7495  if (_y == 0) {... */\n      tag_197\n      jumpi\n        /* \"DEX.sol\":7416:7427  meme_amount */\n      dup4\n        /* \"DEX.sol\":7412:7413  1 */\n      0x01\n        /* \"DEX.sol\":7407:7409  _k */\n      sload(0x05)\n        /* \"DEX.sol\":7407:7413  _k / 1 */\n      tag_198\n      swap2\n      swap1\n      tag_113\n      jump\t// in\n    tag_198:\n        /* \"DEX.sol\":7407:7427  _k / 1 - meme_amount */\n      tag_199\n      swap2\n      swap1\n      tag_115\n      jump\t// in\n    tag_199:\n        /* \"DEX.sol\":7402:7427  dx = _k / 1 - meme_amount */\n      swap2\n      pop\n        /* \"DEX.sol\":7375:7495  if (_y == 0) {... */\n      jump(tag_200)\n    tag_197:\n        /* \"DEX.sol\":7473:7484  meme_amount */\n      dup4\n        /* \"DEX.sol\":7468:7470  _y */\n      sload(0x07)\n        /* \"DEX.sol\":7463:7465  _k */\n      sload(0x05)\n        /* \"DEX.sol\":7463:7470  _k / _y */\n      tag_201\n      swap2\n      swap1\n      tag_113\n      jump\t// in\n    tag_201:\n        /* \"DEX.sol\":7463:7484  _k / _y - meme_amount */\n      tag_202\n      swap2\n      swap1\n      tag_115\n      jump\t// in\n    tag_202:\n        /* \"DEX.sol\":7458:7484  dx = _k / _y - meme_amount */\n      swap2\n      pop\n        /* \"DEX.sol\":7375:7495  if (_y == 0) {... */\n    tag_200:\n        /* \"DEX.sol\":7508:7510  dx */\n      dup2\n        /* \"DEX.sol\":7514:7515  0 */\n      0x00\n        /* \"DEX.sol\":7508:7515  dx == 0 */\n      sub\n        /* \"DEX.sol\":7504:7596  if (dx == 0) {... */\n      tag_203\n      jumpi\n        /* \"DEX.sol\":7541:7542  1 */\n      0x01\n        /* \"DEX.sol\":7536:7538  _k */\n      sload(0x05)\n        /* \"DEX.sol\":7536:7542  _k / 1 */\n      tag_204\n      swap2\n      swap1\n      tag_113\n      jump\t// in\n    tag_204:\n        /* \"DEX.sol\":7531:7542  dy = _k / 1 */\n      swap1\n      pop\n        /* \"DEX.sol\":7504:7596  if (dx == 0) {... */\n      jump(tag_205)\n    tag_203:\n        /* \"DEX.sol\":7583:7585  dx */\n      dup2\n        /* \"DEX.sol\":7578:7580  _k */\n      sload(0x05)\n        /* \"DEX.sol\":7578:7585  _k / dx */\n      tag_206\n      swap2\n      swap1\n      tag_113\n      jump\t// in\n    tag_206:\n        /* \"DEX.sol\":7573:7585  dy = _k / dx */\n      swap1\n      pop\n        /* \"DEX.sol\":7504:7596  if (dx == 0) {... */\n    tag_205:\n        /* \"DEX.sol\":7605:7634  uint256 eth_price_without_tax */\n      0x00\n        /* \"DEX.sol\":7642:7644  _y */\n      sload(0x07)\n        /* \"DEX.sol\":7637:7639  dy */\n      dup3\n        /* \"DEX.sol\":7637:7644  dy - _y */\n      tag_207\n      swap2\n      swap1\n      tag_115\n      jump\t// in\n    tag_207:\n        /* \"DEX.sol\":7605:7644  uint256 eth_price_without_tax = dy - _y */\n      swap1\n      pop\n        /* \"DEX.sol\":7654:7669  uint256 eth_tax */\n      0x00\n        /* \"DEX.sol\":7708:7717  precision */\n      sload(0x08)\n        /* \"DEX.sol\":7697:7704  taxRate */\n      sload(0x09)\n        /* \"DEX.sol\":7673:7694  eth_price_without_tax */\n      dup4\n        /* \"DEX.sol\":7673:7704  eth_price_without_tax * taxRate */\n      tag_208\n      swap2\n      swap1\n      tag_125\n      jump\t// in\n    tag_208:\n        /* \"DEX.sol\":7672:7717  (eth_price_without_tax * taxRate) / precision */\n      tag_209\n      swap2\n      swap1\n      tag_113\n      jump\t// in\n    tag_209:\n        /* \"DEX.sol\":7654:7717  uint256 eth_tax = (eth_price_without_tax * taxRate) / precision */\n      swap1\n      pop\n        /* \"DEX.sol\":7728:7754  uint256 eth_price_with_tax */\n      0x00\n        /* \"DEX.sol\":7757:7788  eth_price_without_tax + eth_tax */\n      tag_210\n        /* \"DEX.sol\":7654:7717  uint256 eth_tax = (eth_price_without_tax * taxRate) / precision */\n      dup3\n        /* \"DEX.sol\":7757:7778  eth_price_without_tax */\n      dup5\n        /* \"DEX.sol\":7757:7788  eth_price_without_tax + eth_tax */\n      tag_128\n      jump\t// in\n    tag_210:\n        /* \"DEX.sol\":7728:7788  uint256 eth_price_with_tax = eth_price_without_tax + eth_tax */\n      swap1\n      pop\n        /* \"DEX.sol\":7805:7827  eth_price_with_tax + 1 */\n      tag_127\n        /* \"DEX.sol\":7728:7788  uint256 eth_price_with_tax = eth_price_without_tax + eth_tax */\n      dup2\n        /* \"DEX.sol\":7826:7827  1 */\n      0x01\n        /* \"DEX.sol\":7805:7827  eth_price_with_tax + 1 */\n      tag_128\n      jump\t// in\n        /* \"@openzeppelin/contracts/access/Ownable.sol\":1824:1925  function renounceOwnership() public virtual onlyOwner {... */\n    tag_66:\n        /* \"@openzeppelin/contracts/access/Ownable.sol\":1094:1107  _checkOwner() */\n      tag_214\n        /* \"@openzeppelin/contracts/access/Ownable.sol\":1094:1105  _checkOwner */\n      tag_163\n        /* \"@openzeppelin/contracts/access/Ownable.sol\":1094:1107  _checkOwner() */\n      jump\t// in\n    tag_214:\n        /* \"@openzeppelin/contracts/access/Ownable.sol\":1888:1918  _transferOwnership(address(0)) */\n      tag_165\n        /* \"@openzeppelin/contracts/access/Ownable.sol\":1915:1916  0 */\n      0x00\n        /* \"@openzeppelin/contracts/access/Ownable.sol\":1888:1906  _transferOwnership */\n      tag_217\n        /* \"@openzeppelin/contracts/access/Ownable.sol\":1888:1918  _transferOwnership(address(0)) */\n      jump\t// in\n        /* \"DEX.sol\":1247:1308  function pause() external onlyOwner {... */\n    tag_69:\n        /* \"@openzeppelin/contracts/access/Ownable.sol\":1094:1107  _checkOwner() */\n      tag_219\n        /* \"@openzeppelin/contracts/access/Ownable.sol\":1094:1105  _checkOwner */\n      tag_163\n        /* \"@openzeppelin/contracts/access/Ownable.sol\":1094:1107  _checkOwner() */\n      jump\t// in\n    tag_219:\n        /* \"DEX.sol\":1293:1301  _pause() */\n      tag_165\n        /* \"DEX.sol\":1293:1299  _pause */\n      tag_222\n        /* \"DEX.sol\":1293:1301  _pause() */\n      jump\t// in\n        /* \"DEX.sol\":5380:6176  function _distributeTax(uint256 poolIndex) public view returns (uint256) {... */\n    tag_82:\n        /* \"DEX.sol\":5444:5451  uint256 */\n      0x00\n      dup1\n      dup1\n        /* \"DEX.sol\":5497:5505  dailyTax */\n      0x03\n        /* \"DEX.sol\":5444:5451  uint256 */\n      dup2\n        /* \"DEX.sol\":5506:5530  block.timestamp / 1 days */\n      tag_225\n        /* \"DEX.sol\":5524:5530  1 days */\n      0x015180\n        /* \"DEX.sol\":5506:5521  block.timestamp */\n      timestamp\n        /* \"DEX.sol\":5506:5530  block.timestamp / 1 days */\n      tag_113\n      jump\t// in\n    tag_225:\n        /* \"DEX.sol\":5497:5531  dailyTax[block.timestamp / 1 days] */\n      dup2\n      mstore\n      0x20\n      add\n      swap1\n      dup2\n      mstore\n      0x20\n      add\n      0x00\n      keccak256\n      sload\n        /* \"DEX.sol\":5497:5535  dailyTax[block.timestamp / 1 days] > 0 */\n      gt\n        /* \"DEX.sol\":5493:6145  if (dailyTax[block.timestamp / 1 days] > 0) {... */\n      iszero\n      tag_226\n      jumpi\n        /* \"DEX.sol\":5590:5600  msg.sender */\n      caller\n        /* \"DEX.sol\":5551:5579  Stack_Struct[] memory stacks */\n      0x00\n        /* \"DEX.sol\":5582:5601  Stacked[msg.sender] */\n      swap1\n      dup2\n      mstore\n        /* \"DEX.sol\":5582:5589  Stacked */\n      0x02\n        /* \"DEX.sol\":5582:5601  Stacked[msg.sender] */\n      0x20\n      swap1\n      dup2\n      mstore\n      0x40\n      dup1\n      dup4\n      keccak256\n        /* \"DEX.sol\":5551:5601  Stack_Struct[] memory stacks = Stacked[msg.sender] */\n      dup1\n      sload\n      dup3\n      mload\n      dup2\n      dup6\n      mul\n      dup2\n      add\n      dup6\n      add\n      swap1\n      swap4\n      mstore\n      dup1\n      dup4\n      mstore\n      swap2\n      swap3\n        /* \"DEX.sol\":5582:5601  Stacked[msg.sender] */\n      swap1\n      swap2\n        /* \"DEX.sol\":5551:5601  Stack_Struct[] memory stacks = Stacked[msg.sender] */\n      swap1\n        /* \"DEX.sol\":5551:5579  Stack_Struct[] memory stacks */\n      dup5\n      swap1\n        /* \"DEX.sol\":5551:5601  Stack_Struct[] memory stacks = Stacked[msg.sender] */\n      dup5\n      add\n    tag_227:\n      dup3\n      dup3\n      lt\n      iszero\n      tag_228\n      jumpi\n      dup4\n      dup3\n      swap1\n      0x00\n      mstore\n      keccak256(0x00, 0x20)\n      swap1\n      0x03\n      mul\n      add\n      mload(0x40)\n      dup1\n      0x60\n      add\n      0x40\n      mstore\n      swap1\n      dup2\n      0x00\n      dup3\n      add\n      sload\n      dup2\n      mstore\n      0x20\n      add\n      0x01\n      dup3\n      add\n      sload\n      dup2\n      mstore\n      0x20\n      add\n      0x02\n      dup3\n      add\n      sload\n      dup2\n      mstore\n      pop\n      pop\n      dup2\n      mstore\n      0x20\n      add\n      swap1\n      0x01\n      add\n      swap1\n      jump(tag_227)\n    tag_228:\n      pop\n      pop\n      pop\n      pop\n      swap1\n      pop\n        /* \"DEX.sol\":5635:5641  stacks */\n      dup1\n        /* \"DEX.sol\":5635:5648  stacks.length */\n      mload\n        /* \"DEX.sol\":5623:5632  poolIndex */\n      dup5\n        /* \"DEX.sol\":5623:5648  poolIndex < stacks.length */\n      lt\n        /* \"DEX.sol\":5615:5671  require(poolIndex < stacks.length, \"Invalid pool index\") */\n      tag_230\n      jumpi\n      mload(0x40)\n      shl(0xe5, 0x461bcd)\n      dup2\n      mstore\n        /* \"#utility.yul\":6698:6700   */\n      0x20\n        /* \"DEX.sol\":5615:5671  require(poolIndex < stacks.length, \"Invalid pool index\") */\n      0x04\n      dup3\n      add\n        /* \"#utility.yul\":6680:6701   */\n      mstore\n        /* \"#utility.yul\":6737:6739   */\n      0x12\n        /* \"#utility.yul\":6717:6735   */\n      0x24\n      dup3\n      add\n        /* \"#utility.yul\":6710:6740   */\n      mstore\n      shl(0x73, 0x092dcecc2d8d2c840e0deded840d2dcc8caf)\n        /* \"#utility.yul\":6756:6774   */\n      0x44\n      dup3\n      add\n        /* \"#utility.yul\":6749:6797   */\n      mstore\n        /* \"#utility.yul\":6814:6832   */\n      0x64\n      add\n        /* \"DEX.sol\":5615:5671  require(poolIndex < stacks.length, \"Invalid pool index\") */\n      tag_109\n        /* \"#utility.yul\":6496:6838   */\n      jump\n        /* \"DEX.sol\":5615:5671  require(poolIndex < stacks.length, \"Invalid pool index\") */\n    tag_230:\n        /* \"DEX.sol\":5686:5708  Stack_Struct memory ss */\n      0x00\n        /* \"DEX.sol\":5711:5717  stacks */\n      dup2\n        /* \"DEX.sol\":5718:5727  poolIndex */\n      dup6\n        /* \"DEX.sol\":5711:5728  stacks[poolIndex] */\n      dup2\n      mload\n      dup2\n      lt\n      tag_234\n      jumpi\n      tag_234\n      tag_235\n      jump\t// in\n    tag_234:\n      0x20\n      mul\n      0x20\n      add\n      add\n      mload\n        /* \"DEX.sol\":5686:5728  Stack_Struct memory ss = stacks[poolIndex] */\n      swap1\n      pop\n        /* \"DEX.sol\":5742:5759  uint256 poolShare */\n      0x00\n        /* \"DEX.sol\":5793:5802  originalX */\n      sload(0x0a)\n        /* \"DEX.sol\":5780:5789  precision */\n      sload(0x08)\n        /* \"DEX.sol\":5763:5765  ss */\n      dup4\n        /* \"DEX.sol\":5763:5777  ss.meme_amount */\n      0x00\n      add\n      mload\n        /* \"DEX.sol\":5763:5789  ss.meme_amount * precision */\n      tag_236\n      swap2\n      swap1\n      tag_125\n      jump\t// in\n    tag_236:\n        /* \"DEX.sol\":5762:5802  (ss.meme_amount * precision) / originalX */\n      tag_237\n      swap2\n      swap1\n      tag_113\n      jump\t// in\n    tag_237:\n        /* \"DEX.sol\":5840:5847  ss.time */\n      0x40\n      dup4\n      add\n      mload\n        /* \"DEX.sol\":5742:5802  uint256 poolShare = (ss.meme_amount * precision) / originalX */\n      swap1\n      swap2\n      pop\n        /* \"DEX.sol\":5817:5837  uint256 creationTime */\n      0x00\n        /* \"DEX.sol\":5882:5906  block.timestamp / 1 days */\n      tag_238\n        /* \"DEX.sol\":5900:5906  1 days */\n      0x015180\n        /* \"DEX.sol\":5882:5897  block.timestamp */\n      timestamp\n        /* \"DEX.sol\":5882:5906  block.timestamp / 1 days */\n      tag_113\n      jump\t// in\n    tag_238:\n        /* \"DEX.sol\":5861:5906  uint256 currentDay = block.timestamp / 1 days */\n      swap1\n      pop\n        /* \"DEX.sol\":5943:5954  uint256 day */\n      0x00\n        /* \"DEX.sol\":5957:5978  creationTime / 1 days */\n      tag_242\n        /* \"DEX.sol\":5972:5978  1 days */\n      0x015180\n        /* \"DEX.sol\":5957:5969  creationTime */\n      dup5\n        /* \"DEX.sol\":5957:5978  creationTime / 1 days */\n      tag_113\n      jump\t// in\n    tag_242:\n        /* \"DEX.sol\":5943:5978  uint256 day = creationTime / 1 days */\n      swap1\n      pop\n        /* \"DEX.sol\":5921:6135  for (... */\n    tag_239:\n        /* \"DEX.sol\":6003:6013  currentDay */\n      dup2\n        /* \"DEX.sol\":5996:5999  day */\n      dup2\n        /* \"DEX.sol\":5996:6013  day <= currentDay */\n      gt\n        /* \"DEX.sol\":5921:6135  for (... */\n      tag_240\n      jumpi\n        /* \"DEX.sol\":6111:6120  precision */\n      sload(0x08)\n        /* \"DEX.sol\":6094:6107  dailyTax[day] */\n      0x00\n      dup3\n      dup2\n      mstore\n        /* \"DEX.sol\":6094:6102  dailyTax */\n      0x03\n        /* \"DEX.sol\":6094:6107  dailyTax[day] */\n      0x20\n      mstore\n      0x40\n      swap1\n      keccak256\n      sload\n        /* \"DEX.sol\":6082:6107  poolShare * dailyTax[day] */\n      tag_243\n      swap1\n        /* \"DEX.sol\":6082:6091  poolShare */\n      dup7\n        /* \"DEX.sol\":6082:6107  poolShare * dailyTax[day] */\n      tag_125\n      jump\t// in\n    tag_243:\n        /* \"DEX.sol\":6081:6120  (poolShare * dailyTax[day]) / precision */\n      tag_244\n      swap2\n      swap1\n      tag_113\n      jump\t// in\n    tag_244:\n        /* \"DEX.sol\":6069:6120  taxShare += (poolShare * dailyTax[day]) / precision */\n      tag_245\n      swap1\n      dup9\n      tag_128\n      jump\t// in\n    tag_245:\n      swap7\n      pop\n        /* \"DEX.sol\":6031:6036  day++ */\n      dup1\n      tag_246\n      dup2\n      tag_247\n      jump\t// in\n    tag_246:\n      swap2\n      pop\n      pop\n        /* \"DEX.sol\":5921:6135  for (... */\n      jump(tag_239)\n    tag_240:\n      pop\n        /* \"DEX.sol\":5537:6145  {... */\n      pop\n      pop\n      pop\n      pop\n      pop\n        /* \"DEX.sol\":5493:6145  if (dailyTax[block.timestamp / 1 days] > 0) {... */\n    tag_226:\n        /* \"DEX.sol\":6161:6169  taxShare */\n      swap3\n        /* \"DEX.sol\":5380:6176  function _distributeTax(uint256 poolIndex) public view returns (uint256) {... */\n      swap2\n      pop\n      pop\n      jump\t// out\n        /* \"DEX.sol\":9820:10350  function buy(uint256 meme_amount) public payable whenNotPaused {... */\n    tag_86:\n        /* \"@openzeppelin/contracts/security/Pausable.sol\":1239:1258  _requireNotPaused() */\n      tag_249\n        /* \"@openzeppelin/contracts/security/Pausable.sol\":1239:1256  _requireNotPaused */\n      tag_106\n        /* \"@openzeppelin/contracts/security/Pausable.sol\":1239:1258  _requireNotPaused() */\n      jump\t// in\n    tag_249:\n        /* \"DEX.sol\":9915:9916  0 */\n      0x00\n        /* \"DEX.sol\":9901:9912  meme_amount */\n      dup2\n        /* \"DEX.sol\":9901:9916  meme_amount > 0 */\n      gt\n        /* \"DEX.sol\":9893:9935  require(meme_amount > 0, \"Send Some Meme\") */\n      tag_251\n      jumpi\n      mload(0x40)\n      shl(0xe5, 0x461bcd)\n      dup2\n      mstore\n        /* \"#utility.yul\":3933:3935   */\n      0x20\n        /* \"DEX.sol\":9893:9935  require(meme_amount > 0, \"Send Some Meme\") */\n      0x04\n      dup3\n      add\n        /* \"#utility.yul\":3915:3936   */\n      mstore\n        /* \"#utility.yul\":3972:3974   */\n      0x0e\n        /* \"#utility.yul\":3952:3970   */\n      0x24\n      dup3\n      add\n        /* \"#utility.yul\":3945:3975   */\n      mstore\n      shl(0x90, 0x53656e6420536f6d65204d656d65)\n        /* \"#utility.yul\":3991:4009   */\n      0x44\n      dup3\n      add\n        /* \"#utility.yul\":3984:4028   */\n      mstore\n        /* \"#utility.yul\":4045:4063   */\n      0x64\n      add\n        /* \"DEX.sol\":9893:9935  require(meme_amount > 0, \"Send Some Meme\") */\n      tag_109\n        /* \"#utility.yul\":3731:4069   */\n      jump\n        /* \"DEX.sol\":9893:9935  require(meme_amount > 0, \"Send Some Meme\") */\n    tag_251:\n        /* \"DEX.sol\":9945:9963  uint256 meme_price */\n      0x00\n        /* \"DEX.sol\":9966:9991  getMemePrice(meme_amount) */\n      tag_253\n        /* \"DEX.sol\":9979:9990  meme_amount */\n      dup3\n        /* \"DEX.sol\":9966:9978  getMemePrice */\n      tag_57\n        /* \"DEX.sol\":9966:9991  getMemePrice(meme_amount) */\n      jump\t// in\n    tag_253:\n        /* \"DEX.sol\":9945:9991  uint256 meme_price = getMemePrice(meme_amount) */\n      swap1\n      pop\n        /* \"DEX.sol\":10023:10032  msg.value */\n      callvalue\n        /* \"DEX.sol\":10009:10019  meme_price */\n      dup2\n        /* \"DEX.sol\":10009:10032  meme_price <= msg.value */\n      gt\n      iszero\n        /* \"DEX.sol\":10001:10050  require(meme_price <= msg.value, \"Send More ETH\") */\n      tag_254\n      jumpi\n      mload(0x40)\n      shl(0xe5, 0x461bcd)\n      dup2\n      mstore\n        /* \"#utility.yul\":4276:4278   */\n      0x20\n        /* \"DEX.sol\":10001:10050  require(meme_price <= msg.value, \"Send More ETH\") */\n      0x04\n      dup3\n      add\n        /* \"#utility.yul\":4258:4279   */\n      mstore\n        /* \"#utility.yul\":4315:4317   */\n      0x0d\n        /* \"#utility.yul\":4295:4313   */\n      0x24\n      dup3\n      add\n        /* \"#utility.yul\":4288:4318   */\n      mstore\n      shl(0x9b, 0x0a6cadcc8409adee4ca408aa89)\n        /* \"#utility.yul\":4334:4352   */\n      0x44\n      dup3\n      add\n        /* \"#utility.yul\":4327:4370   */\n      mstore\n        /* \"#utility.yul\":4387:4405   */\n      0x64\n      add\n        /* \"DEX.sol\":10001:10050  require(meme_price <= msg.value, \"Send More ETH\") */\n      tag_109\n        /* \"#utility.yul\":4074:4411   */\n      jump\n        /* \"DEX.sol\":10001:10050  require(meme_price <= msg.value, \"Send More ETH\") */\n    tag_254:\n        /* \"DEX.sol\":10061:10065  meme */\n      sload(0x01)\n        /* \"DEX.sol\":10061:10099  meme.transfer(msg.sender, meme_amount) */\n      mload(0x40)\n      shl(0xe0, 0xa9059cbb)\n      dup2\n      mstore\n        /* \"DEX.sol\":10075:10085  msg.sender */\n      caller\n        /* \"DEX.sol\":10061:10099  meme.transfer(msg.sender, meme_amount) */\n      0x04\n      dup3\n      add\n        /* \"#utility.yul\":4590:4641   */\n      mstore\n        /* \"#utility.yul\":4657:4675   */\n      0x24\n      dup2\n      add\n        /* \"#utility.yul\":4650:4684   */\n      dup5\n      swap1\n      mstore\n      sub(shl(0xa0, 0x01), 0x01)\n        /* \"DEX.sol\":10061:10065  meme */\n      swap1\n      swap2\n      and\n      swap1\n        /* \"DEX.sol\":10061:10074  meme.transfer */\n      0xa9059cbb\n      swap1\n        /* \"#utility.yul\":4563:4581   */\n      0x44\n      add\n        /* \"DEX.sol\":10061:10099  meme.transfer(msg.sender, meme_amount) */\n      0x20\n      mload(0x40)\n      dup1\n      dup4\n      sub\n      dup2\n      0x00\n      dup8\n      gas\n      call\n      iszero\n      dup1\n      iszero\n      tag_258\n      jumpi\n      returndatasize\n      0x00\n      dup1\n      returndatacopy\n      revert(0x00, returndatasize)\n    tag_258:\n      pop\n      pop\n      pop\n      pop\n      mload(0x40)\n      returndatasize\n      not(0x1f)\n      0x1f\n      dup3\n      add\n      and\n      dup3\n      add\n      dup1\n      0x40\n      mstore\n      pop\n      dup2\n      add\n      swap1\n      tag_259\n      swap2\n      swap1\n      tag_149\n      jump\t// in\n    tag_259:\n      pop\n        /* \"DEX.sol\":10117:10127  msg.sender */\n      caller\n        /* \"DEX.sol\":10109:10161  payable(msg.sender).transfer(msg.value - meme_price) */\n      0x08fc\n        /* \"DEX.sol\":10138:10160  msg.value - meme_price */\n      tag_260\n        /* \"DEX.sol\":10150:10160  meme_price */\n      dup4\n        /* \"DEX.sol\":10138:10147  msg.value */\n      callvalue\n        /* \"DEX.sol\":10138:10160  msg.value - meme_price */\n      tag_115\n      jump\t// in\n    tag_260:\n        /* \"DEX.sol\":10109:10161  payable(msg.sender).transfer(msg.value - meme_price) */\n      mload(0x40)\n      dup2\n      iszero\n      swap1\n      swap3\n      mul\n      swap2\n      0x00\n      dup2\n      dup2\n      dup2\n      dup6\n      dup9\n      dup9\n      call\n      swap4\n      pop\n      pop\n      pop\n      pop\n      iszero\n      dup1\n      iszero\n      tag_262\n      jumpi\n      returndatasize\n      0x00\n      dup1\n      returndatacopy\n      revert(0x00, returndatasize)\n    tag_262:\n      pop\n        /* \"DEX.sol\":10210:10235  calculateTax(meme_amount) */\n      tag_263\n        /* \"DEX.sol\":10223:10234  meme_amount */\n      dup3\n        /* \"DEX.sol\":10210:10222  calculateTax */\n      tag_154\n        /* \"DEX.sol\":10210:10235  calculateTax(meme_amount) */\n      jump\t// in\n    tag_263:\n        /* \"DEX.sol\":10172:10180  dailyTax */\n      0x03\n        /* \"DEX.sol\":10172:10206  dailyTax[block.timestamp / 1 days] */\n      0x00\n        /* \"DEX.sol\":10181:10205  block.timestamp / 1 days */\n      tag_264\n        /* \"DEX.sol\":10199:10205  1 days */\n      0x015180\n        /* \"DEX.sol\":10181:10196  block.timestamp */\n      timestamp\n        /* \"DEX.sol\":10181:10205  block.timestamp / 1 days */\n      tag_113\n      jump\t// in\n    tag_264:\n        /* \"DEX.sol\":10172:10206  dailyTax[block.timestamp / 1 days] */\n      dup2\n      mstore\n      0x20\n      add\n      swap1\n      dup2\n      mstore\n      0x20\n      add\n      0x00\n      keccak256\n      0x00\n        /* \"DEX.sol\":10172:10235  dailyTax[block.timestamp / 1 days] += calculateTax(meme_amount) */\n      dup3\n      dup3\n      sload\n      tag_265\n      swap2\n      swap1\n      tag_128\n      jump\t// in\n    tag_265:\n      swap3\n      pop\n      pop\n      dup2\n      swap1\n      sstore\n      pop\n        /* \"DEX.sol\":10252:10263  meme_amount */\n      dup2\n        /* \"DEX.sol\":10246:10248  _x */\n      0x06\n      0x00\n        /* \"DEX.sol\":10246:10263  _x -= meme_amount */\n      dup3\n      dup3\n      sload\n      tag_266\n      swap2\n      swap1\n      tag_115\n      jump\t// in\n    tag_266:\n      swap1\n      swap2\n      sstore\n      pop\n      pop\n        /* \"DEX.sol\":10284:10286  _x */\n      sload(0x06)\n        /* \"DEX.sol\":10279:10281  _k */\n      sload(0x05)\n        /* \"DEX.sol\":10279:10286  _k / _x */\n      tag_267\n      swap2\n        /* \"DEX.sol\":10284:10286  _x */\n      swap1\n        /* \"DEX.sol\":10279:10286  _k / _x */\n      tag_113\n      jump\t// in\n    tag_267:\n        /* \"DEX.sol\":10273:10275  _y */\n      0x07\n        /* \"DEX.sol\":10273:10287  _y = (_k / _x) */\n      sstore\n        /* \"DEX.sol\":10303:10343  Buy(msg.sender, meme_amount, meme_price) */\n      0x40\n      dup1\n      mload\n        /* \"#utility.yul\":5151:5176   */\n      dup4\n      dup2\n      mstore\n        /* \"#utility.yul\":5207:5209   */\n      0x20\n        /* \"#utility.yul\":5192:5210   */\n      dup2\n      add\n        /* \"#utility.yul\":5185:5219   */\n      dup4\n      swap1\n      mstore\n        /* \"DEX.sol\":10307:10317  msg.sender */\n      caller\n      swap2\n        /* \"DEX.sol\":10303:10343  Buy(msg.sender, meme_amount, meme_price) */\n      0x1cbc5ab135991bd2b6a4b034a04aa2aa086dac1371cb9b16b8b5e2ed6b036bed\n      swap2\n        /* \"#utility.yul\":5124:5142   */\n      add\n        /* \"DEX.sol\":10303:10343  Buy(msg.sender, meme_amount, meme_price) */\n    tag_268:\n      mload(0x40)\n      dup1\n      swap2\n      sub\n      swap1\n      log2\n        /* \"DEX.sol\":9883:10350  {... */\n      pop\n        /* \"DEX.sol\":9820:10350  function buy(uint256 meme_amount) public payable whenNotPaused {... */\n      pop\n      jump\t// out\n        /* \"DEX.sol\":1563:1907  function stack(uint256 meme_amount) public payable whenNotPaused {... */\n    tag_89:\n        /* \"@openzeppelin/contracts/security/Pausable.sol\":1239:1258  _requireNotPaused() */\n      tag_270\n        /* \"@openzeppelin/contracts/security/Pausable.sol\":1239:1256  _requireNotPaused */\n      tag_106\n        /* \"@openzeppelin/contracts/security/Pausable.sol\":1239:1258  _requireNotPaused() */\n      jump\t// in\n    tag_270:\n        /* \"DEX.sol\":1660:1661  0 */\n      0x00\n        /* \"DEX.sol\":1646:1657  meme_amount */\n      dup2\n        /* \"DEX.sol\":1646:1661  meme_amount > 0 */\n      gt\n        /* \"DEX.sol\":1638:1680  require(meme_amount > 0, \"Send more MEME\") */\n      tag_272\n      jumpi\n      mload(0x40)\n      shl(0xe5, 0x461bcd)\n      dup2\n      mstore\n        /* \"#utility.yul\":7317:7319   */\n      0x20\n        /* \"DEX.sol\":1638:1680  require(meme_amount > 0, \"Send more MEME\") */\n      0x04\n      dup3\n      add\n        /* \"#utility.yul\":7299:7320   */\n      mstore\n        /* \"#utility.yul\":7356:7358   */\n      0x0e\n        /* \"#utility.yul\":7336:7354   */\n      0x24\n      dup3\n      add\n        /* \"#utility.yul\":7329:7359   */\n      mstore\n      shl(0x90, 0x53656e64206d6f7265204d454d45)\n        /* \"#utility.yul\":7375:7393   */\n      0x44\n      dup3\n      add\n        /* \"#utility.yul\":7368:7412   */\n      mstore\n        /* \"#utility.yul\":7429:7447   */\n      0x64\n      add\n        /* \"DEX.sol\":1638:1680  require(meme_amount > 0, \"Send more MEME\") */\n      tag_109\n        /* \"#utility.yul\":7115:7453   */\n      jump\n        /* \"DEX.sol\":1638:1680  require(meme_amount > 0, \"Send more MEME\") */\n    tag_272:\n        /* \"DEX.sol\":1710:1711  0 */\n      0x00\n        /* \"DEX.sol\":1698:1707  msg.value */\n      callvalue\n        /* \"DEX.sol\":1698:1711  msg.value > 0 */\n      gt\n        /* \"DEX.sol\":1690:1729  require(msg.value > 0, \"Send more ETH\") */\n      tag_275\n      jumpi\n      mload(0x40)\n      shl(0xe5, 0x461bcd)\n      dup2\n      mstore\n        /* \"#utility.yul\":7660:7662   */\n      0x20\n        /* \"DEX.sol\":1690:1729  require(msg.value > 0, \"Send more ETH\") */\n      0x04\n      dup3\n      add\n        /* \"#utility.yul\":7642:7663   */\n      mstore\n        /* \"#utility.yul\":7699:7701   */\n      0x0d\n        /* \"#utility.yul\":7679:7697   */\n      0x24\n      dup3\n      add\n        /* \"#utility.yul\":7672:7702   */\n      mstore\n      shl(0x9b, 0x0a6cadcc840dadee4ca408aa89)\n        /* \"#utility.yul\":7718:7736   */\n      0x44\n      dup3\n      add\n        /* \"#utility.yul\":7711:7754   */\n      mstore\n        /* \"#utility.yul\":7771:7789   */\n      0x64\n      add\n        /* \"DEX.sol\":1690:1729  require(msg.value > 0, \"Send more ETH\") */\n      tag_109\n        /* \"#utility.yul\":7458:7795   */\n      jump\n        /* \"DEX.sol\":1690:1729  require(msg.value > 0, \"Send more ETH\") */\n    tag_275:\n        /* \"DEX.sol\":1802:1813  meme_amount */\n      dup1\n        /* \"DEX.sol\":1789:1798  precision */\n      sload(0x08)\n        /* \"DEX.sol\":1777:1786  msg.value */\n      callvalue\n        /* \"DEX.sol\":1777:1798  msg.value * precision */\n      tag_278\n      swap2\n      swap1\n      tag_125\n      jump\t// in\n    tag_278:\n        /* \"DEX.sol\":1776:1813  (msg.value * precision) / meme_amount */\n      tag_279\n      swap2\n      swap1\n      tag_113\n      jump\t// in\n    tag_279:\n        /* \"DEX.sol\":1760:1772  stackingRate */\n      sload(0x04)\n        /* \"DEX.sol\":1760:1813  stackingRate <= (msg.value * precision) / meme_amount */\n      gt\n      iszero\n        /* \"DEX.sol\":1739:1860  require(... */\n      tag_280\n      jumpi\n      mload(0x40)\n      shl(0xe5, 0x461bcd)\n      dup2\n      mstore\n        /* \"#utility.yul\":8002:8004   */\n      0x20\n        /* \"DEX.sol\":1739:1860  require(... */\n      0x04\n      dup3\n      add\n        /* \"#utility.yul\":7984:8005   */\n      mstore\n        /* \"#utility.yul\":8041:8043   */\n      0x15\n        /* \"#utility.yul\":8021:8039   */\n      0x24\n      dup3\n      add\n        /* \"#utility.yul\":8014:8044   */\n      mstore\n      shl(0x5a, 0x14dd1858dada5b99c814985d19481b9bdd081b595d)\n        /* \"#utility.yul\":8060:8078   */\n      0x44\n      dup3\n      add\n        /* \"#utility.yul\":8053:8104   */\n      mstore\n        /* \"#utility.yul\":8121:8139   */\n      0x64\n      add\n        /* \"DEX.sol\":1739:1860  require(... */\n      tag_109\n        /* \"#utility.yul\":7800:8145   */\n      jump\n        /* \"DEX.sol\":1739:1860  require(... */\n    tag_280:\n        /* \"DEX.sol\":1870:1900  _stack(meme_amount, msg.value) */\n      tag_132\n        /* \"DEX.sol\":1877:1888  meme_amount */\n      dup2\n        /* \"DEX.sol\":1890:1899  msg.value */\n      callvalue\n        /* \"DEX.sol\":1870:1876  _stack */\n      tag_284\n        /* \"DEX.sol\":1870:1900  _stack(meme_amount, msg.value) */\n      jump\t// in\n        /* \"DEX.sol\":11050:11688  function sell(uint256 eth_amount) public whenNotPaused {... */\n    tag_93:\n        /* \"@openzeppelin/contracts/security/Pausable.sol\":1239:1258  _requireNotPaused() */\n      tag_286\n        /* \"@openzeppelin/contracts/security/Pausable.sol\":1239:1256  _requireNotPaused */\n      tag_106\n        /* \"@openzeppelin/contracts/security/Pausable.sol\":1239:1258  _requireNotPaused() */\n      jump\t// in\n    tag_286:\n        /* \"DEX.sol\":11136:11137  0 */\n      0x00\n        /* \"DEX.sol\":11123:11133  eth_amount */\n      dup2\n        /* \"DEX.sol\":11123:11137  eth_amount > 0 */\n      gt\n        /* \"DEX.sol\":11115:11155  require(eth_amount > 0, \"Send Some ETH\") */\n      tag_288\n      jumpi\n      mload(0x40)\n      shl(0xe5, 0x461bcd)\n      dup2\n      mstore\n        /* \"#utility.yul\":5432:5434   */\n      0x20\n        /* \"DEX.sol\":11115:11155  require(eth_amount > 0, \"Send Some ETH\") */\n      0x04\n      dup3\n      add\n        /* \"#utility.yul\":5414:5435   */\n      mstore\n        /* \"#utility.yul\":5471:5473   */\n      0x0d\n        /* \"#utility.yul\":5451:5469   */\n      0x24\n      dup3\n      add\n        /* \"#utility.yul\":5444:5474   */\n      mstore\n      shl(0x9b, 0x0a6cadcc840a6dedaca408aa89)\n        /* \"#utility.yul\":5490:5508   */\n      0x44\n      dup3\n      add\n        /* \"#utility.yul\":5483:5526   */\n      mstore\n        /* \"#utility.yul\":5543:5561   */\n      0x64\n      add\n        /* \"DEX.sol\":11115:11155  require(eth_amount > 0, \"Send Some ETH\") */\n      tag_109\n        /* \"#utility.yul\":5230:5567   */\n      jump\n        /* \"DEX.sol\":11115:11155  require(eth_amount > 0, \"Send Some ETH\") */\n    tag_288:\n        /* \"DEX.sol\":11165:11182  uint256 eth_price */\n      0x00\n        /* \"DEX.sol\":11185:11208  getETHPrice(eth_amount) */\n      tag_290\n        /* \"DEX.sol\":11197:11207  eth_amount */\n      dup3\n        /* \"DEX.sol\":11185:11196  getETHPrice */\n      tag_30\n        /* \"DEX.sol\":11185:11208  getETHPrice(eth_amount) */\n      jump\t// in\n    tag_290:\n        /* \"DEX.sol\":11253:11257  meme */\n      sload(0x01)\n        /* \"DEX.sol\":11253:11279  meme.balanceOf(msg.sender) */\n      mload(0x40)\n      shl(0xe0, 0x70a08231)\n      dup2\n      mstore\n        /* \"DEX.sol\":11268:11278  msg.sender */\n      caller\n        /* \"DEX.sol\":11253:11279  meme.balanceOf(msg.sender) */\n      0x04\n      dup3\n      add\n        /* \"#utility.yul\":1483:1534   */\n      mstore\n        /* \"DEX.sol\":11165:11208  uint256 eth_price = getETHPrice(eth_amount) */\n      swap2\n      swap3\n      pop\n      sub(shl(0xa0, 0x01), 0x01)\n        /* \"DEX.sol\":11253:11257  meme */\n      and\n      swap1\n        /* \"DEX.sol\":11253:11267  meme.balanceOf */\n      0x70a08231\n      swap1\n        /* \"#utility.yul\":1456:1474   */\n      0x24\n      add\n        /* \"DEX.sol\":11253:11279  meme.balanceOf(msg.sender) */\n      0x20\n      mload(0x40)\n      dup1\n      dup4\n      sub\n      dup2\n      dup7\n      gas\n      staticcall\n      iszero\n      dup1\n      iszero\n      tag_293\n      jumpi\n      returndatasize\n      0x00\n      dup1\n      returndatacopy\n      revert(0x00, returndatasize)\n    tag_293:\n      pop\n      pop\n      pop\n      pop\n      mload(0x40)\n      returndatasize\n      not(0x1f)\n      0x1f\n      dup3\n      add\n      and\n      dup3\n      add\n      dup1\n      0x40\n      mstore\n      pop\n      dup2\n      add\n      swap1\n      tag_294\n      swap2\n      swap1\n      tag_178\n      jump\t// in\n    tag_294:\n        /* \"DEX.sol\":11240:11249  eth_price */\n      dup2\n        /* \"DEX.sol\":11240:11279  eth_price <= meme.balanceOf(msg.sender) */\n      gt\n      iszero\n        /* \"DEX.sol\":11219:11331  require(... */\n      tag_295\n      jumpi\n      mload(0x40)\n      shl(0xe5, 0x461bcd)\n      dup2\n      mstore\n        /* \"#utility.yul\":5963:5965   */\n      0x20\n        /* \"DEX.sol\":11219:11331  require(... */\n      0x04\n      dup3\n      add\n        /* \"#utility.yul\":5945:5966   */\n      mstore\n        /* \"#utility.yul\":6002:6004   */\n      0x1a\n        /* \"#utility.yul\":5982:6000   */\n      0x24\n      dup3\n      add\n        /* \"#utility.yul\":5975:6005   */\n      mstore\n        /* \"#utility.yul\":6041:6069   */\n      0x596f7520646f6e2774206861766520656e6f756768206d656d65000000000000\n        /* \"#utility.yul\":6021:6039   */\n      0x44\n      dup3\n      add\n        /* \"#utility.yul\":6014:6070   */\n      mstore\n        /* \"#utility.yul\":6087:6105   */\n      0x64\n      add\n        /* \"DEX.sol\":11219:11331  require(... */\n      tag_109\n        /* \"#utility.yul\":5761:6111   */\n      jump\n        /* \"DEX.sol\":11219:11331  require(... */\n    tag_295:\n        /* \"DEX.sol\":11341:11345  meme */\n      sload(0x01)\n        /* \"DEX.sol\":11341:11396  meme.transferFrom(msg.sender, address(this), eth_price) */\n      mload(0x40)\n      shl(0xe0, 0x23b872dd)\n      dup2\n      mstore\n        /* \"DEX.sol\":11359:11369  msg.sender */\n      caller\n        /* \"DEX.sol\":11341:11396  meme.transferFrom(msg.sender, address(this), eth_price) */\n      0x04\n      dup3\n      add\n        /* \"#utility.yul\":6356:6390   */\n      mstore\n        /* \"DEX.sol\":11379:11383  this */\n      address\n        /* \"#utility.yul\":6406:6424   */\n      0x24\n      dup3\n      add\n        /* \"#utility.yul\":6399:6442   */\n      mstore\n        /* \"#utility.yul\":6458:6476   */\n      0x44\n      dup2\n      add\n        /* \"#utility.yul\":6451:6485   */\n      dup4\n      swap1\n      mstore\n      sub(shl(0xa0, 0x01), 0x01)\n        /* \"DEX.sol\":11341:11345  meme */\n      swap1\n      swap2\n      and\n      swap1\n        /* \"DEX.sol\":11341:11358  meme.transferFrom */\n      0x23b872dd\n      swap1\n        /* \"#utility.yul\":6291:6309   */\n      0x64\n      add\n        /* \"DEX.sol\":11341:11396  meme.transferFrom(msg.sender, address(this), eth_price) */\n      0x20\n      mload(0x40)\n      dup1\n      dup4\n      sub\n      dup2\n      0x00\n      dup8\n      gas\n      call\n      iszero\n      dup1\n      iszero\n      tag_299\n      jumpi\n      returndatasize\n      0x00\n      dup1\n      returndatacopy\n      revert(0x00, returndatasize)\n    tag_299:\n      pop\n      pop\n      pop\n      pop\n      mload(0x40)\n      returndatasize\n      not(0x1f)\n      0x1f\n      dup3\n      add\n      and\n      dup3\n      add\n      dup1\n      0x40\n      mstore\n      pop\n      dup2\n      add\n      swap1\n      tag_300\n      swap2\n      swap1\n      tag_149\n      jump\t// in\n    tag_300:\n      pop\n        /* \"DEX.sol\":11406:11446  payable(msg.sender).transfer(eth_amount) */\n      mload(0x40)\n        /* \"DEX.sol\":11414:11424  msg.sender */\n      caller\n      swap1\n        /* \"DEX.sol\":11406:11446  payable(msg.sender).transfer(eth_amount) */\n      dup4\n      iszero\n      0x08fc\n      mul\n      swap1\n        /* \"DEX.sol\":11435:11445  eth_amount */\n      dup5\n      swap1\n        /* \"DEX.sol\":11406:11446  payable(msg.sender).transfer(eth_amount) */\n      0x00\n      dup2\n      dup2\n      dup2\n        /* \"DEX.sol\":11435:11445  eth_amount */\n      dup6\n        /* \"DEX.sol\":11414:11424  msg.sender */\n      dup9\n        /* \"DEX.sol\":11406:11446  payable(msg.sender).transfer(eth_amount) */\n      dup9\n      call\n      swap4\n      pop\n      pop\n      pop\n      pop\n      iszero\n      dup1\n      iszero\n      tag_302\n      jumpi\n      returndatasize\n      0x00\n      dup1\n      returndatacopy\n      revert(0x00, returndatasize)\n    tag_302:\n      pop\n        /* \"DEX.sol\":11592:11602  eth_amount */\n      dup2\n        /* \"DEX.sol\":11586:11588  _y */\n      0x07\n      0x00\n        /* \"DEX.sol\":11586:11602  _y -= eth_amount */\n      dup3\n      dup3\n      sload\n      tag_303\n      swap2\n      swap1\n      tag_115\n      jump\t// in\n    tag_303:\n      swap1\n      swap2\n      sstore\n      pop\n      pop\n        /* \"DEX.sol\":11623:11625  _y */\n      sload(0x07)\n        /* \"DEX.sol\":11618:11620  _k */\n      sload(0x05)\n        /* \"DEX.sol\":11618:11625  _k / _y */\n      tag_304\n      swap2\n        /* \"DEX.sol\":11623:11625  _y */\n      swap1\n        /* \"DEX.sol\":11618:11625  _k / _y */\n      tag_113\n      jump\t// in\n    tag_304:\n        /* \"DEX.sol\":11612:11614  _x */\n      0x06\n        /* \"DEX.sol\":11612:11626  _x = (_k / _y) */\n      sstore\n        /* \"DEX.sol\":11642:11681  Sell(msg.sender, eth_price, eth_amount) */\n      0x40\n      dup1\n      mload\n        /* \"#utility.yul\":5151:5176   */\n      dup3\n      dup2\n      mstore\n        /* \"#utility.yul\":5207:5209   */\n      0x20\n        /* \"#utility.yul\":5192:5210   */\n      dup2\n      add\n        /* \"#utility.yul\":5185:5219   */\n      dup5\n      swap1\n      mstore\n        /* \"DEX.sol\":11647:11657  msg.sender */\n      caller\n      swap2\n        /* \"DEX.sol\":11642:11681  Sell(msg.sender, eth_price, eth_amount) */\n      0xed7a144fad14804d5c249145e3e0e2b63a9eb455b76aee5bc92d711e9bba3e4a\n      swap2\n        /* \"#utility.yul\":5124:5142   */\n      add\n        /* \"DEX.sol\":11642:11681  Sell(msg.sender, eth_price, eth_amount) */\n      tag_268\n        /* \"#utility.yul\":4977:5225   */\n      jump\n        /* \"DEX.sol\":1449:1557  function getStacks() public view returns (Stack_Struct[] memory) {... */\n    tag_96:\n        /* \"DEX.sol\":1539:1549  msg.sender */\n      caller\n        /* \"DEX.sol\":1531:1550  Stacked[msg.sender] */\n      0x00\n      swap1\n      dup2\n      mstore\n        /* \"DEX.sol\":1531:1538  Stacked */\n      0x02\n        /* \"DEX.sol\":1531:1550  Stacked[msg.sender] */\n      0x20\n      swap1\n      dup2\n      mstore\n      0x40\n      dup1\n      dup4\n      keccak256\n        /* \"DEX.sol\":1524:1550  return Stacked[msg.sender] */\n      dup1\n      sload\n      dup3\n      mload\n      dup2\n      dup6\n      mul\n      dup2\n      add\n      dup6\n      add\n      swap1\n      swap4\n      mstore\n      dup1\n      dup4\n      mstore\n        /* \"DEX.sol\":1491:1512  Stack_Struct[] memory */\n      0x60\n      swap5\n        /* \"DEX.sol\":1524:1550  return Stacked[msg.sender] */\n      swap3\n      swap4\n        /* \"DEX.sol\":1531:1550  Stacked[msg.sender] */\n      swap2\n      swap3\n        /* \"DEX.sol\":1524:1550  return Stacked[msg.sender] */\n      swap1\n      swap2\n      dup5\n      add\n    tag_307:\n      dup3\n      dup3\n      lt\n      iszero\n      tag_308\n      jumpi\n      dup4\n      dup3\n      swap1\n      0x00\n      mstore\n      keccak256(0x00, 0x20)\n      swap1\n      0x03\n      mul\n      add\n      mload(0x40)\n      dup1\n      0x60\n      add\n      0x40\n      mstore\n      swap1\n      dup2\n      0x00\n      dup3\n      add\n      sload\n      dup2\n      mstore\n      0x20\n      add\n      0x01\n      dup3\n      add\n      sload\n      dup2\n      mstore\n      0x20\n      add\n      0x02\n      dup3\n      add\n      sload\n      dup2\n      mstore\n      pop\n      pop\n      dup2\n      mstore\n      0x20\n      add\n      swap1\n      0x01\n      add\n      swap1\n      jump(tag_307)\n    tag_308:\n      pop\n      pop\n      pop\n      pop\n      swap1\n      pop\n        /* \"DEX.sol\":1449:1557  function getStacks() public view returns (Stack_Struct[] memory) {... */\n      swap1\n      jump\t// out\n        /* \"@openzeppelin/contracts/access/Ownable.sol\":2074:2272  function transferOwnership(address newOwner) public virtual onlyOwner {... */\n    tag_103:\n        /* \"@openzeppelin/contracts/access/Ownable.sol\":1094:1107  _checkOwner() */\n      tag_311\n        /* \"@openzeppelin/contracts/access/Ownable.sol\":1094:1105  _checkOwner */\n      tag_163\n        /* \"@openzeppelin/contracts/access/Ownable.sol\":1094:1107  _checkOwner() */\n      jump\t// in\n    tag_311:\n      sub(shl(0xa0, 0x01), 0x01)\n        /* \"@openzeppelin/contracts/access/Ownable.sol\":2162:2184  newOwner != address(0) */\n      dup2\n      and\n        /* \"@openzeppelin/contracts/access/Ownable.sol\":2154:2227  require(newOwner != address(0), \"Ownable: new owner is the zero address\") */\n      tag_313\n      jumpi\n      mload(0x40)\n      shl(0xe5, 0x461bcd)\n      dup2\n      mstore\n        /* \"#utility.yul\":8352:8354   */\n      0x20\n        /* \"@openzeppelin/contracts/access/Ownable.sol\":2154:2227  require(newOwner != address(0), \"Ownable: new owner is the zero address\") */\n      0x04\n      dup3\n      add\n        /* \"#utility.yul\":8334:8355   */\n      mstore\n        /* \"#utility.yul\":8391:8393   */\n      0x26\n        /* \"#utility.yul\":8371:8389   */\n      0x24\n      dup3\n      add\n        /* \"#utility.yul\":8364:8394   */\n      mstore\n        /* \"#utility.yul\":8430:8464   */\n      0x4f776e61626c653a206e6577206f776e657220697320746865207a65726f2061\n        /* \"#utility.yul\":8410:8428   */\n      0x44\n      dup3\n      add\n        /* \"#utility.yul\":8403:8465   */\n      mstore\n      shl(0xd0, 0x646472657373)\n        /* \"#utility.yul\":8481:8499   */\n      0x64\n      dup3\n      add\n        /* \"#utility.yul\":8474:8510   */\n      mstore\n        /* \"#utility.yul\":8527:8546   */\n      0x84\n      add\n        /* \"@openzeppelin/contracts/access/Ownable.sol\":2154:2227  require(newOwner != address(0), \"Ownable: new owner is the zero address\") */\n      tag_109\n        /* \"#utility.yul\":8150:8552   */\n      jump\n        /* \"@openzeppelin/contracts/access/Ownable.sol\":2154:2227  require(newOwner != address(0), \"Ownable: new owner is the zero address\") */\n    tag_313:\n        /* \"@openzeppelin/contracts/access/Ownable.sol\":2237:2265  _transferOwnership(newOwner) */\n      tag_132\n        /* \"@openzeppelin/contracts/access/Ownable.sol\":2256:2264  newOwner */\n      dup2\n        /* \"@openzeppelin/contracts/access/Ownable.sol\":2237:2255  _transferOwnership */\n      tag_217\n        /* \"@openzeppelin/contracts/access/Ownable.sol\":2237:2265  _transferOwnership(newOwner) */\n      jump\t// in\n        /* \"@openzeppelin/contracts/security/Pausable.sol\":1767:1873  function _requireNotPaused() internal view virtual {... */\n    tag_106:\n        /* \"@openzeppelin/contracts/security/Pausable.sol\":1662:1666  bool */\n      0x00\n        /* \"@openzeppelin/contracts/security/Pausable.sol\":1685:1692  _paused */\n      sload\n      0xff\n      and\n        /* \"@openzeppelin/contracts/security/Pausable.sol\":1836:1845  !paused() */\n      iszero\n        /* \"@openzeppelin/contracts/security/Pausable.sol\":1828:1866  require(!paused(), \"Pausable: paused\") */\n      tag_165\n      jumpi\n      mload(0x40)\n      shl(0xe5, 0x461bcd)\n      dup2\n      mstore\n        /* \"#utility.yul\":8759:8761   */\n      0x20\n        /* \"@openzeppelin/contracts/security/Pausable.sol\":1828:1866  require(!paused(), \"Pausable: paused\") */\n      0x04\n      dup3\n      add\n        /* \"#utility.yul\":8741:8762   */\n      mstore\n        /* \"#utility.yul\":8798:8800   */\n      0x10\n        /* \"#utility.yul\":8778:8796   */\n      0x24\n      dup3\n      add\n        /* \"#utility.yul\":8771:8801   */\n      mstore\n      shl(0x82, 0x14185d5cd8589b194e881c185d5cd959)\n        /* \"#utility.yul\":8817:8835   */\n      0x44\n      dup3\n      add\n        /* \"#utility.yul\":8810:8856   */\n      mstore\n        /* \"#utility.yul\":8873:8891   */\n      0x64\n      add\n        /* \"@openzeppelin/contracts/security/Pausable.sol\":1828:1866  require(!paused(), \"Pausable: paused\") */\n      tag_109\n        /* \"#utility.yul\":8557:8897   */\n      jump\n        /* \"DEX.sol\":2628:3814  function _unstack(uint256 index) internal {... */\n    tag_133:\n        /* \"DEX.sol\":2704:2714  msg.sender */\n      caller\n        /* \"DEX.sol\":2696:2715  Stacked[msg.sender] */\n      0x00\n      swap1\n      dup2\n      mstore\n        /* \"DEX.sol\":2696:2703  Stacked */\n      0x02\n        /* \"DEX.sol\":2696:2715  Stacked[msg.sender] */\n      0x20\n      mstore\n      0x40\n      swap1\n      keccak256\n        /* \"DEX.sol\":2696:2722  Stacked[msg.sender].length */\n      sload\n        /* \"DEX.sol\":2688:2722  index < Stacked[msg.sender].length */\n      dup2\n      lt\n        /* \"DEX.sol\":2680:2746  require(index < Stacked[msg.sender].length, \"Index out of bounds\") */\n      tag_323\n      jumpi\n      mload(0x40)\n      shl(0xe5, 0x461bcd)\n      dup2\n      mstore\n        /* \"#utility.yul\":9104:9106   */\n      0x20\n        /* \"DEX.sol\":2680:2746  require(index < Stacked[msg.sender].length, \"Index out of bounds\") */\n      0x04\n      dup3\n      add\n        /* \"#utility.yul\":9086:9107   */\n      mstore\n        /* \"#utility.yul\":9143:9145   */\n      0x13\n        /* \"#utility.yul\":9123:9141   */\n      0x24\n      dup3\n      add\n        /* \"#utility.yul\":9116:9146   */\n      mstore\n      shl(0x68, 0x496e646578206f7574206f6620626f756e6473)\n        /* \"#utility.yul\":9162:9180   */\n      0x44\n      dup3\n      add\n        /* \"#utility.yul\":9155:9204   */\n      mstore\n        /* \"#utility.yul\":9221:9239   */\n      0x64\n      add\n        /* \"DEX.sol\":2680:2746  require(index < Stacked[msg.sender].length, \"Index out of bounds\") */\n      tag_109\n        /* \"#utility.yul\":8902:9245   */\n      jump\n        /* \"DEX.sol\":2680:2746  require(index < Stacked[msg.sender].length, \"Index out of bounds\") */\n    tag_323:\n        /* \"DEX.sol\":2790:2800  msg.sender */\n      caller\n        /* \"DEX.sol\":2757:2779  Stack_Struct memory ss */\n      0x00\n        /* \"DEX.sol\":2782:2801  Stacked[msg.sender] */\n      swap1\n      dup2\n      mstore\n        /* \"DEX.sol\":2782:2789  Stacked */\n      0x02\n        /* \"DEX.sol\":2782:2801  Stacked[msg.sender] */\n      0x20\n      mstore\n      0x40\n      dup2\n      keccak256\n        /* \"DEX.sol\":2782:2808  Stacked[msg.sender][index] */\n      dup1\n      sload\n        /* \"DEX.sol\":2802:2807  index */\n      dup4\n      swap1\n        /* \"DEX.sol\":2782:2808  Stacked[msg.sender][index] */\n      dup2\n      lt\n      tag_327\n      jumpi\n      tag_327\n      tag_235\n      jump\t// in\n    tag_327:\n      swap1\n      0x00\n      mstore\n      keccak256(0x00, 0x20)\n      swap1\n      0x03\n      mul\n      add\n        /* \"DEX.sol\":2757:2808  Stack_Struct memory ss = Stacked[msg.sender][index] */\n      mload(0x40)\n      dup1\n      0x60\n      add\n      0x40\n      mstore\n      swap1\n      dup2\n      0x00\n      dup3\n      add\n      sload\n      dup2\n      mstore\n      0x20\n      add\n      0x01\n      dup3\n      add\n      sload\n      dup2\n      mstore\n      0x20\n      add\n      0x02\n      dup3\n      add\n      sload\n      dup2\n      mstore\n      pop\n      pop\n      swap1\n      pop\n        /* \"DEX.sol\":2819:2830  uint256 tax */\n      0x00\n        /* \"DEX.sol\":2833:2854  _distributeTax(index) */\n      tag_329\n        /* \"DEX.sol\":2848:2853  index */\n      dup4\n        /* \"DEX.sol\":2833:2847  _distributeTax */\n      tag_82\n        /* \"DEX.sol\":2833:2854  _distributeTax(index) */\n      jump\t// in\n    tag_329:\n        /* \"DEX.sol\":2889:2903  ss.meme_amount */\n      dup3\n      mload\n        /* \"DEX.sol\":2937:2950  ss.eth_amount */\n      0x20\n      dup5\n      add\n      mload\n        /* \"DEX.sol\":2819:2854  uint256 tax = _distributeTax(index) */\n      swap2\n      swap3\n      pop\n        /* \"DEX.sol\":2889:2903  ss.meme_amount */\n      swap1\n        /* \"DEX.sol\":2864:2886  uint256 meme_to_return */\n      0x00\n      swap1\n        /* \"DEX.sol\":2937:2956  ss.eth_amount + tax */\n      tag_330\n      swap1\n        /* \"DEX.sol\":2819:2854  uint256 tax = _distributeTax(index) */\n      dup5\n      swap1\n        /* \"DEX.sol\":2937:2956  ss.eth_amount + tax */\n      tag_128\n      jump\t// in\n    tag_330:\n        /* \"DEX.sol\":2978:2980  _x */\n      sload(0x06)\n        /* \"DEX.sol\":2966:2975  originalX */\n      0x0a\n        /* \"DEX.sol\":2966:2980  originalX = _x */\n      sstore\n        /* \"DEX.sol\":3030:3034  meme */\n      sload(0x01)\n        /* \"DEX.sol\":3030:3059  meme.balanceOf(address(this)) */\n      mload(0x40)\n      shl(0xe0, 0x70a08231)\n      dup2\n      mstore\n        /* \"DEX.sol\":3053:3057  this */\n      address\n        /* \"DEX.sol\":3030:3059  meme.balanceOf(address(this)) */\n      0x04\n      dup3\n      add\n        /* \"#utility.yul\":1483:1534   */\n      mstore\n        /* \"DEX.sol\":2913:2956  uint256 eth_to_return = ss.eth_amount + tax */\n      swap2\n      swap3\n      pop\n      sub(shl(0xa0, 0x01), 0x01)\n        /* \"DEX.sol\":3030:3034  meme */\n      and\n      swap1\n        /* \"DEX.sol\":3030:3044  meme.balanceOf */\n      0x70a08231\n      swap1\n        /* \"#utility.yul\":1456:1474   */\n      0x24\n      add\n        /* \"DEX.sol\":3030:3059  meme.balanceOf(address(this)) */\n      0x20\n      mload(0x40)\n      dup1\n      dup4\n      sub\n      dup2\n      dup7\n      gas\n      staticcall\n      iszero\n      dup1\n      iszero\n      tag_333\n      jumpi\n      returndatasize\n      0x00\n      dup1\n      returndatacopy\n      revert(0x00, returndatasize)\n    tag_333:\n      pop\n      pop\n      pop\n      pop\n      mload(0x40)\n      returndatasize\n      not(0x1f)\n      0x1f\n      dup3\n      add\n      and\n      dup3\n      add\n      dup1\n      0x40\n      mstore\n      pop\n      dup2\n      add\n      swap1\n      tag_334\n      swap2\n      swap1\n      tag_178\n      jump\t// in\n    tag_334:\n        /* \"DEX.sol\":3012:3026  meme_to_return */\n      dup3\n        /* \"DEX.sol\":3012:3059  meme_to_return <= meme.balanceOf(address(this)) */\n      gt\n      iszero\n        /* \"DEX.sol\":2991:3160  require(... */\n      tag_335\n      jumpi\n      mload(0x40)\n      shl(0xe5, 0x461bcd)\n      dup2\n      mstore\n        /* \"#utility.yul\":9452:9454   */\n      0x20\n        /* \"DEX.sol\":2991:3160  require(... */\n      0x04\n      dup3\n      add\n        /* \"#utility.yul\":9434:9455   */\n      mstore\n        /* \"#utility.yul\":9491:9493   */\n      0x4b\n        /* \"#utility.yul\":9471:9489   */\n      0x24\n      dup3\n      add\n        /* \"#utility.yul\":9464:9494   */\n      mstore\n        /* \"#utility.yul\":9530:9564   */\n      0x536f7272792043757272656e746c79207468697320636f6e747261637420646f\n        /* \"#utility.yul\":9510:9528   */\n      0x44\n      dup3\n      add\n        /* \"#utility.yul\":9503:9565   */\n      mstore\n        /* \"#utility.yul\":9601:9635   */\n      0x65736e27742068617665204d656d6520746f2072657475726e2c20436865636b\n        /* \"#utility.yul\":9581:9599   */\n      0x64\n      dup3\n      add\n        /* \"#utility.yul\":9574:9636   */\n      mstore\n      shl(0xa8, 0x206261636b20536f6f6e21)\n        /* \"#utility.yul\":9652:9671   */\n      0x84\n      dup3\n      add\n        /* \"#utility.yul\":9645:9687   */\n      mstore\n        /* \"#utility.yul\":9704:9723   */\n      0xa4\n      add\n        /* \"DEX.sol\":2991:3160  require(... */\n      tag_109\n        /* \"#utility.yul\":9250:9729   */\n      jump\n        /* \"DEX.sol\":2991:3160  require(... */\n    tag_335:\n        /* \"DEX.sol\":3208:3229  address(this).balance */\n      selfbalance\n        /* \"DEX.sol\":3191:3204  eth_to_return */\n      dup2\n        /* \"DEX.sol\":3191:3229  eth_to_return <= address(this).balance */\n      gt\n      iszero\n        /* \"DEX.sol\":3170:3329  require(... */\n      tag_338\n      jumpi\n      mload(0x40)\n      shl(0xe5, 0x461bcd)\n      dup2\n      mstore\n        /* \"#utility.yul\":9936:9938   */\n      0x20\n        /* \"DEX.sol\":3170:3329  require(... */\n      0x04\n      dup3\n      add\n        /* \"#utility.yul\":9918:9939   */\n      mstore\n        /* \"#utility.yul\":9975:9977   */\n      0x4a\n        /* \"#utility.yul\":9955:9973   */\n      0x24\n      dup3\n      add\n        /* \"#utility.yul\":9948:9978   */\n      mstore\n        /* \"#utility.yul\":10014:10048   */\n      0x536f7272792043757272656e746c79207468697320636f6e747261637420646f\n        /* \"#utility.yul\":9994:10012   */\n      0x44\n      dup3\n      add\n        /* \"#utility.yul\":9987:10049   */\n      mstore\n        /* \"#utility.yul\":10085:10119   */\n      0x65736e277420686176652045746820746f2072657475726e2c20436865636b20\n        /* \"#utility.yul\":10065:10083   */\n      0x64\n      dup3\n      add\n        /* \"#utility.yul\":10058:10120   */\n      mstore\n      shl(0xb0, 0x6261636b20536f6f6e21)\n        /* \"#utility.yul\":10136:10155   */\n      0x84\n      dup3\n      add\n        /* \"#utility.yul\":10129:10170   */\n      mstore\n        /* \"#utility.yul\":10187:10206   */\n      0xa4\n      add\n        /* \"DEX.sol\":3170:3329  require(... */\n      tag_109\n        /* \"#utility.yul\":9734:10212   */\n      jump\n        /* \"DEX.sol\":3170:3329  require(... */\n    tag_338:\n        /* \"DEX.sol\":3339:3343  meme */\n      sload(0x01)\n        /* \"DEX.sol\":3339:3380  meme.transfer(msg.sender, meme_to_return) */\n      mload(0x40)\n      shl(0xe0, 0xa9059cbb)\n      dup2\n      mstore\n        /* \"DEX.sol\":3353:3363  msg.sender */\n      caller\n        /* \"DEX.sol\":3339:3380  meme.transfer(msg.sender, meme_to_return) */\n      0x04\n      dup3\n      add\n        /* \"#utility.yul\":4590:4641   */\n      mstore\n        /* \"#utility.yul\":4657:4675   */\n      0x24\n      dup2\n      add\n        /* \"#utility.yul\":4650:4684   */\n      dup5\n      swap1\n      mstore\n      sub(shl(0xa0, 0x01), 0x01)\n        /* \"DEX.sol\":3339:3343  meme */\n      swap1\n      swap2\n      and\n      swap1\n        /* \"DEX.sol\":3339:3352  meme.transfer */\n      0xa9059cbb\n      swap1\n        /* \"#utility.yul\":4563:4581   */\n      0x44\n      add\n        /* \"DEX.sol\":3339:3380  meme.transfer(msg.sender, meme_to_return) */\n      0x20\n      mload(0x40)\n      dup1\n      dup4\n      sub\n      dup2\n      0x00\n      dup8\n      gas\n      call\n      iszero\n      dup1\n      iszero\n      tag_343\n      jumpi\n      returndatasize\n      0x00\n      dup1\n      returndatacopy\n      revert(0x00, returndatasize)\n    tag_343:\n      pop\n      pop\n      pop\n      pop\n      mload(0x40)\n      returndatasize\n      not(0x1f)\n      0x1f\n      dup3\n      add\n      and\n      dup3\n      add\n      dup1\n      0x40\n      mstore\n      pop\n      dup2\n      add\n      swap1\n      tag_344\n      swap2\n      swap1\n      tag_149\n      jump\t// in\n    tag_344:\n      pop\n        /* \"DEX.sol\":3390:3433  payable(msg.sender).transfer(eth_to_return) */\n      mload(0x40)\n        /* \"DEX.sol\":3398:3408  msg.sender */\n      caller\n      swap1\n        /* \"DEX.sol\":3390:3433  payable(msg.sender).transfer(eth_to_return) */\n      dup3\n      iszero\n      0x08fc\n      mul\n      swap1\n        /* \"DEX.sol\":3419:3432  eth_to_return */\n      dup4\n      swap1\n        /* \"DEX.sol\":3390:3433  payable(msg.sender).transfer(eth_to_return) */\n      0x00\n      dup2\n      dup2\n      dup2\n        /* \"DEX.sol\":3419:3432  eth_to_return */\n      dup6\n        /* \"DEX.sol\":3398:3408  msg.sender */\n      dup9\n        /* \"DEX.sol\":3390:3433  payable(msg.sender).transfer(eth_to_return) */\n      dup9\n      call\n      swap4\n      pop\n      pop\n      pop\n      pop\n      iszero\n      dup1\n      iszero\n      tag_346\n      jumpi\n      returndatasize\n      0x00\n      dup1\n      returndatacopy\n      revert(0x00, returndatasize)\n    tag_346:\n      pop\n        /* \"DEX.sol\":3456:3470  meme_to_return */\n      dup2\n        /* \"DEX.sol\":3450:3452  _x */\n      sload(0x06)\n        /* \"DEX.sol\":3450:3470  _x >= meme_to_return */\n      lt\n      iszero\n        /* \"DEX.sol\":3449:3499  (_x >= meme_to_return) ? (_x - meme_to_return) : 0 */\n      tag_347\n      jumpi\n        /* \"DEX.sol\":3498:3499  0 */\n      0x00\n        /* \"DEX.sol\":3449:3499  (_x >= meme_to_return) ? (_x - meme_to_return) : 0 */\n      jump(tag_349)\n    tag_347:\n        /* \"DEX.sol\":3480:3494  meme_to_return */\n      dup2\n        /* \"DEX.sol\":3475:3477  _x */\n      sload(0x06)\n        /* \"DEX.sol\":3475:3494  _x - meme_to_return */\n      tag_349\n      swap2\n      swap1\n      tag_115\n      jump\t// in\n    tag_349:\n        /* \"DEX.sol\":3444:3446  _x */\n      0x06\n        /* \"DEX.sol\":3444:3499  _x = (_x >= meme_to_return) ? (_x - meme_to_return) : 0 */\n      sstore\n        /* \"DEX.sol\":3515:3517  _y */\n      sload(0x07)\n        /* \"DEX.sol\":3515:3534  _y >= eth_to_return */\n      dup2\n      gt\n      iszero\n        /* \"DEX.sol\":3514:3562  (_y >= eth_to_return) ? (_y - eth_to_return) : 0 */\n      tag_350\n      jumpi\n        /* \"DEX.sol\":3561:3562  0 */\n      0x00\n        /* \"DEX.sol\":3514:3562  (_y >= eth_to_return) ? (_y - eth_to_return) : 0 */\n      jump(tag_352)\n    tag_350:\n        /* \"DEX.sol\":3544:3557  eth_to_return */\n      dup1\n        /* \"DEX.sol\":3539:3541  _y */\n      sload(0x07)\n        /* \"DEX.sol\":3539:3557  _y - eth_to_return */\n      tag_352\n      swap2\n      swap1\n      tag_115\n      jump\t// in\n    tag_352:\n        /* \"DEX.sol\":3509:3511  _y */\n      0x07\n        /* \"DEX.sol\":3509:3562  _y = (_y >= eth_to_return) ? (_y - eth_to_return) : 0 */\n      sstore\n        /* \"DEX.sol\":3577:3579  _x */\n      sload(0x06)\n        /* \"DEX.sol\":3583:3584  0 */\n      0x00\n        /* \"DEX.sol\":3577:3584  _x == 0 */\n      sub\n        /* \"DEX.sol\":3573:3694  if (_x == 0) {... */\n      tag_353\n      jumpi\n        /* \"DEX.sol\":3615:3616  0 */\n      0x00\n        /* \"DEX.sol\":3600:3612  stackingRate */\n      0x04\n        /* \"DEX.sol\":3600:3616  stackingRate = 0 */\n      sstore\n        /* \"DEX.sol\":3573:3694  if (_x == 0) {... */\n      jump(tag_354)\n    tag_353:\n        /* \"DEX.sol\":3681:3683  _x */\n      sload(0x06)\n        /* \"DEX.sol\":3668:3677  precision */\n      sload(0x08)\n        /* \"DEX.sol\":3663:3665  _y */\n      sload(0x07)\n        /* \"DEX.sol\":3663:3677  _y * precision */\n      tag_355\n      swap2\n      swap1\n      tag_125\n      jump\t// in\n    tag_355:\n        /* \"DEX.sol\":3662:3683  (_y * precision) / _x */\n      tag_356\n      swap2\n      swap1\n      tag_113\n      jump\t// in\n    tag_356:\n        /* \"DEX.sol\":3647:3659  stackingRate */\n      0x04\n        /* \"DEX.sol\":3647:3683  stackingRate = (_y * precision) / _x */\n      sstore\n        /* \"DEX.sol\":3573:3694  if (_x == 0) {... */\n    tag_354:\n        /* \"DEX.sol\":3704:3721  _removeArr(index) */\n      tag_357\n        /* \"DEX.sol\":3715:3720  index */\n      dup6\n        /* \"DEX.sol\":3704:3714  _removeArr */\n      tag_358\n        /* \"DEX.sol\":3704:3721  _removeArr(index) */\n      jump\t// in\n    tag_357:\n        /* \"DEX.sol\":3732:3742  _updateK() */\n      tag_359\n        /* \"DEX.sol\":3732:3740  _updateK */\n      tag_360\n        /* \"DEX.sol\":3732:3742  _updateK() */\n      jump\t// in\n    tag_359:\n        /* \"DEX.sol\":3757:3807  UnStack(msg.sender, meme_to_return, eth_to_return) */\n      0x40\n      dup1\n      mload\n        /* \"#utility.yul\":5151:5176   */\n      dup4\n      dup2\n      mstore\n        /* \"#utility.yul\":5207:5209   */\n      0x20\n        /* \"#utility.yul\":5192:5210   */\n      dup2\n      add\n        /* \"#utility.yul\":5185:5219   */\n      dup4\n      swap1\n      mstore\n        /* \"DEX.sol\":3765:3775  msg.sender */\n      caller\n      swap2\n        /* \"DEX.sol\":3757:3807  UnStack(msg.sender, meme_to_return, eth_to_return) */\n      0xbb564df1f5d4ebb97b073adcab505c7796a37035ac5d14f51269660939c39cf4\n      swap2\n        /* \"#utility.yul\":5124:5142   */\n      add\n        /* \"DEX.sol\":3757:3807  UnStack(msg.sender, meme_to_return, eth_to_return) */\n      mload(0x40)\n      dup1\n      swap2\n      sub\n      swap1\n      log2\n        /* \"DEX.sol\":2670:3814  {... */\n      pop\n      pop\n      pop\n      pop\n        /* \"DEX.sol\":2628:3814  function _unstack(uint256 index) internal {... */\n      pop\n      jump\t// out\n        /* \"DEX.sol\":7840:8396  function calculateTax(uint256 meme_amount) internal view returns (uint256) {... */\n    tag_154:\n        /* \"DEX.sol\":7906:7913  uint256 */\n      0x00\n        /* \"DEX.sol\":7938:7939  0 */\n      dup1\n        /* \"DEX.sol\":7933:7935  _k */\n      sload(0x05)\n        /* \"DEX.sol\":7933:7939  _k > 0 */\n      gt\n        /* \"DEX.sol\":7925:7964  require(_k > 0, \"Not enough liquidity\") */\n      tag_363\n      jumpi\n      mload(0x40)\n      shl(0xe5, 0x461bcd)\n      dup2\n      mstore\n      0x04\n      add\n      tag_109\n      swap1\n      tag_110\n      jump\t// in\n    tag_363:\n        /* \"DEX.sol\":7974:7984  uint256 dx */\n      0x00\n        /* \"DEX.sol\":7998:8008  uint256 dy */\n      dup1\n        /* \"DEX.sol\":8026:8028  _y */\n      sload(0x07)\n        /* \"DEX.sol\":8032:8033  0 */\n      0x00\n        /* \"DEX.sol\":8026:8033  _y == 0 */\n      sub\n        /* \"DEX.sol\":8022:8142  if (_y == 0) {... */\n      tag_365\n      jumpi\n        /* \"DEX.sol\":8063:8074  meme_amount */\n      dup4\n        /* \"DEX.sol\":8059:8060  1 */\n      0x01\n        /* \"DEX.sol\":8054:8056  _k */\n      sload(0x05)\n        /* \"DEX.sol\":8054:8060  _k / 1 */\n      tag_366\n      swap2\n      swap1\n      tag_113\n      jump\t// in\n    tag_366:\n        /* \"DEX.sol\":8054:8074  _k / 1 - meme_amount */\n      tag_367\n      swap2\n      swap1\n      tag_115\n      jump\t// in\n    tag_367:\n        /* \"DEX.sol\":8049:8074  dx = _k / 1 - meme_amount */\n      swap2\n      pop\n        /* \"DEX.sol\":8022:8142  if (_y == 0) {... */\n      jump(tag_368)\n    tag_365:\n        /* \"DEX.sol\":8120:8131  meme_amount */\n      dup4\n        /* \"DEX.sol\":8115:8117  _y */\n      sload(0x07)\n        /* \"DEX.sol\":8110:8112  _k */\n      sload(0x05)\n        /* \"DEX.sol\":8110:8117  _k / _y */\n      tag_369\n      swap2\n      swap1\n      tag_113\n      jump\t// in\n    tag_369:\n        /* \"DEX.sol\":8110:8131  _k / _y - meme_amount */\n      tag_370\n      swap2\n      swap1\n      tag_115\n      jump\t// in\n    tag_370:\n        /* \"DEX.sol\":8105:8131  dx = _k / _y - meme_amount */\n      swap2\n      pop\n        /* \"DEX.sol\":8022:8142  if (_y == 0) {... */\n    tag_368:\n        /* \"DEX.sol\":8155:8157  dx */\n      dup2\n        /* \"DEX.sol\":8161:8162  0 */\n      0x00\n        /* \"DEX.sol\":8155:8162  dx == 0 */\n      sub\n        /* \"DEX.sol\":8151:8243  if (dx == 0) {... */\n      tag_371\n      jumpi\n        /* \"DEX.sol\":8188:8189  1 */\n      0x01\n        /* \"DEX.sol\":8183:8185  _k */\n      sload(0x05)\n        /* \"DEX.sol\":8183:8189  _k / 1 */\n      tag_372\n      swap2\n      swap1\n      tag_113\n      jump\t// in\n    tag_372:\n        /* \"DEX.sol\":8178:8189  dy = _k / 1 */\n      swap1\n      pop\n        /* \"DEX.sol\":8151:8243  if (dx == 0) {... */\n      jump(tag_373)\n    tag_371:\n        /* \"DEX.sol\":8230:8232  dx */\n      dup2\n        /* \"DEX.sol\":8225:8227  _k */\n      sload(0x05)\n        /* \"DEX.sol\":8225:8232  _k / dx */\n      tag_374\n      swap2\n      swap1\n      tag_113\n      jump\t// in\n    tag_374:\n        /* \"DEX.sol\":8220:8232  dy = _k / dx */\n      swap1\n      pop\n        /* \"DEX.sol\":8151:8243  if (dx == 0) {... */\n    tag_373:\n        /* \"DEX.sol\":8252:8281  uint256 eth_price_without_tax */\n      0x00\n        /* \"DEX.sol\":8289:8291  _y */\n      sload(0x07)\n        /* \"DEX.sol\":8284:8286  dy */\n      dup3\n        /* \"DEX.sol\":8284:8291  dy - _y */\n      tag_375\n      swap2\n      swap1\n      tag_115\n      jump\t// in\n    tag_375:\n        /* \"DEX.sol\":8252:8291  uint256 eth_price_without_tax = dy - _y */\n      swap1\n      pop\n        /* \"DEX.sol\":8301:8316  uint256 eth_tax */\n      0x00\n        /* \"DEX.sol\":8355:8364  precision */\n      sload(0x08)\n        /* \"DEX.sol\":8344:8351  taxRate */\n      sload(0x09)\n        /* \"DEX.sol\":8320:8341  eth_price_without_tax */\n      dup4\n        /* \"DEX.sol\":8320:8351  eth_price_without_tax * taxRate */\n      tag_376\n      swap2\n      swap1\n      tag_125\n      jump\t// in\n    tag_376:\n        /* \"DEX.sol\":8319:8364  (eth_price_without_tax * taxRate) / precision */\n      tag_377\n      swap2\n      swap1\n      tag_113\n      jump\t// in\n    tag_377:\n        /* \"DEX.sol\":8301:8364  uint256 eth_tax = (eth_price_without_tax * taxRate) / precision */\n      swap7\n        /* \"DEX.sol\":7840:8396  function calculateTax(uint256 meme_amount) internal view returns (uint256) {... */\n      swap6\n      pop\n      pop\n      pop\n      pop\n      pop\n      pop\n      jump\t// out\n        /* \"@openzeppelin/contracts/access/Ownable.sol\":1359:1489  function _checkOwner() internal view virtual {... */\n    tag_163:\n        /* \"@openzeppelin/contracts/access/Ownable.sol\":1247:1254  address */\n      0x00\n        /* \"@openzeppelin/contracts/access/Ownable.sol\":1273:1279  _owner */\n      sload\n      sub(shl(0xa0, 0x01), 0x01)\n      0x0100\n      swap1\n      swap2\n      div\n      and\n        /* \"@openzeppelin/contracts/utils/Context.sol\":719:729  msg.sender */\n      caller\n        /* \"@openzeppelin/contracts/access/Ownable.sol\":1422:1445  owner() == _msgSender() */\n      eq\n        /* \"@openzeppelin/contracts/access/Ownable.sol\":1414:1482  require(owner() == _msgSender(), \"Ownable: caller is not the owner\") */\n      tag_165\n      jumpi\n      mload(0x40)\n      shl(0xe5, 0x461bcd)\n      dup2\n      mstore\n        /* \"#utility.yul\":10419:10421   */\n      0x20\n        /* \"@openzeppelin/contracts/access/Ownable.sol\":1414:1482  require(owner() == _msgSender(), \"Ownable: caller is not the owner\") */\n      0x04\n      dup3\n      add\n        /* \"#utility.yul\":10401:10422   */\n      dup2\n      swap1\n      mstore\n        /* \"#utility.yul\":10438:10456   */\n      0x24\n      dup3\n      add\n        /* \"#utility.yul\":10431:10461   */\n      mstore\n        /* \"#utility.yul\":10497:10531   */\n      0x4f776e61626c653a2063616c6c6572206973206e6f7420746865206f776e6572\n        /* \"#utility.yul\":10477:10495   */\n      0x44\n      dup3\n      add\n        /* \"#utility.yul\":10470:10532   */\n      mstore\n        /* \"#utility.yul\":10549:10567   */\n      0x64\n      add\n        /* \"@openzeppelin/contracts/access/Ownable.sol\":1414:1482  require(owner() == _msgSender(), \"Ownable: caller is not the owner\") */\n      tag_109\n        /* \"#utility.yul\":10217:10573   */\n      jump\n        /* \"@openzeppelin/contracts/security/Pausable.sol\":2433:2550  function _unpause() internal virtual whenPaused {... */\n    tag_166:\n        /* \"@openzeppelin/contracts/security/Pausable.sol\":1486:1502  _requirePaused() */\n      tag_386\n        /* \"@openzeppelin/contracts/security/Pausable.sol\":1486:1500  _requirePaused */\n      tag_387\n        /* \"@openzeppelin/contracts/security/Pausable.sol\":1486:1502  _requirePaused() */\n      jump\t// in\n    tag_386:\n        /* \"@openzeppelin/contracts/security/Pausable.sol\":2501:2506  false */\n      0x00\n        /* \"@openzeppelin/contracts/security/Pausable.sol\":2491:2506  _paused = false */\n      dup1\n      sload\n      not(0xff)\n      and\n      swap1\n      sstore\n        /* \"@openzeppelin/contracts/security/Pausable.sol\":2521:2543  Unpaused(_msgSender()) */\n      0x5db9ee0a495bf2e6ff9c91a7834c1ba4fdd244a5e8aa4e537bd38aeae4b073aa\n        /* \"@openzeppelin/contracts/utils/Context.sol\":719:729  msg.sender */\n      caller\n        /* \"@openzeppelin/contracts/security/Pausable.sol\":2530:2542  _msgSender() */\n    tag_389:\n        /* \"@openzeppelin/contracts/security/Pausable.sol\":2521:2543  Unpaused(_msgSender()) */\n      mload(0x40)\n      sub(shl(0xa0, 0x01), 0x01)\n        /* \"#utility.yul\":1501:1533   */\n      swap1\n      swap2\n      and\n        /* \"#utility.yul\":1483:1534   */\n      dup2\n      mstore\n        /* \"#utility.yul\":1471:1473   */\n      0x20\n        /* \"#utility.yul\":1456:1474   */\n      add\n        /* \"@openzeppelin/contracts/security/Pausable.sol\":2521:2543  Unpaused(_msgSender()) */\n      mload(0x40)\n      dup1\n      swap2\n      sub\n      swap1\n      log1\n        /* \"@openzeppelin/contracts/security/Pausable.sol\":2433:2550  function _unpause() internal virtual whenPaused {... */\n      jump\t// out\n        /* \"@openzeppelin/contracts/access/Ownable.sol\":2426:2613  function _transferOwnership(address newOwner) internal virtual {... */\n    tag_217:\n        /* \"@openzeppelin/contracts/access/Ownable.sol\":2499:2515  address oldOwner */\n      0x00\n        /* \"@openzeppelin/contracts/access/Ownable.sol\":2518:2524  _owner */\n      dup1\n      sload\n      sub(shl(0xa0, 0x01), 0x01)\n        /* \"@openzeppelin/contracts/access/Ownable.sol\":2534:2551  _owner = newOwner */\n      dup4\n      dup2\n      and\n        /* \"@openzeppelin/contracts/access/Ownable.sol\":2518:2524  _owner */\n      0x0100\n        /* \"@openzeppelin/contracts/access/Ownable.sol\":2534:2551  _owner = newOwner */\n      dup2\n      dup2\n      mul\n      not(sub(shl(0xa8, 0x01), 0x0100))\n      dup6\n      and\n      or\n      dup6\n      sstore\n        /* \"@openzeppelin/contracts/access/Ownable.sol\":2566:2606  OwnershipTransferred(oldOwner, newOwner) */\n      mload(0x40)\n        /* \"@openzeppelin/contracts/access/Ownable.sol\":2518:2524  _owner */\n      swap4\n      div\n      swap2\n      swap1\n      swap2\n      and\n      swap3\n        /* \"@openzeppelin/contracts/access/Ownable.sol\":2534:2551  _owner = newOwner */\n      swap1\n      swap2\n        /* \"@openzeppelin/contracts/access/Ownable.sol\":2518:2524  _owner */\n      dup4\n      swap2\n        /* \"@openzeppelin/contracts/access/Ownable.sol\":2566:2606  OwnershipTransferred(oldOwner, newOwner) */\n      0x8be0079c531659141344cd1fd0a4f28419497f9722a3daafe3b4186f6b6457e0\n      swap2\n      log3\n        /* \"@openzeppelin/contracts/access/Ownable.sol\":2489:2613  {... */\n      pop\n        /* \"@openzeppelin/contracts/access/Ownable.sol\":2426:2613  function _transferOwnership(address newOwner) internal virtual {... */\n      pop\n      jump\t// out\n        /* \"@openzeppelin/contracts/security/Pausable.sol\":2186:2301  function _pause() internal virtual whenNotPaused {... */\n    tag_222:\n        /* \"@openzeppelin/contracts/security/Pausable.sol\":1239:1258  _requireNotPaused() */\n      tag_393\n        /* \"@openzeppelin/contracts/security/Pausable.sol\":1239:1256  _requireNotPaused */\n      tag_106\n        /* \"@openzeppelin/contracts/security/Pausable.sol\":1239:1258  _requireNotPaused() */\n      jump\t// in\n    tag_393:\n        /* \"@openzeppelin/contracts/security/Pausable.sol\":2245:2252  _paused */\n      0x00\n        /* \"@openzeppelin/contracts/security/Pausable.sol\":2245:2259  _paused = true */\n      dup1\n      sload\n      not(0xff)\n      and\n        /* \"@openzeppelin/contracts/security/Pausable.sol\":2255:2259  true */\n      0x01\n        /* \"@openzeppelin/contracts/security/Pausable.sol\":2245:2259  _paused = true */\n      or\n      swap1\n      sstore\n        /* \"@openzeppelin/contracts/security/Pausable.sol\":2274:2294  Paused(_msgSender()) */\n      0x62e78cea01bee320cd4e420270b5ea74000d11b0c9f74754ebdbfc544b05a258\n        /* \"@openzeppelin/contracts/security/Pausable.sol\":2281:2293  _msgSender() */\n      tag_389\n        /* \"@openzeppelin/contracts/utils/Context.sol\":719:729  msg.sender */\n      caller\n      swap1\n        /* \"@openzeppelin/contracts/utils/Context.sol\":640:736  function _msgSender() internal view virtual returns (address) {... */\n      jump\n        /* \"DEX.sol\":2066:2584  function _stack(uint256 meme_amount, uint256 eth_amount) internal {... */\n    tag_284:\n        /* \"DEX.sol\":2142:2146  meme */\n      sload(0x01)\n        /* \"DEX.sol\":2142:2199  meme.transferFrom(msg.sender, address(this), meme_amount) */\n      mload(0x40)\n      shl(0xe0, 0x23b872dd)\n      dup2\n      mstore\n        /* \"DEX.sol\":2160:2170  msg.sender */\n      caller\n        /* \"DEX.sol\":2142:2199  meme.transferFrom(msg.sender, address(this), meme_amount) */\n      0x04\n      dup3\n      add\n        /* \"#utility.yul\":6356:6390   */\n      mstore\n        /* \"DEX.sol\":2180:2184  this */\n      address\n        /* \"#utility.yul\":6406:6424   */\n      0x24\n      dup3\n      add\n        /* \"#utility.yul\":6399:6442   */\n      mstore\n        /* \"#utility.yul\":6458:6476   */\n      0x44\n      dup2\n      add\n        /* \"#utility.yul\":6451:6485   */\n      dup5\n      swap1\n      mstore\n      sub(shl(0xa0, 0x01), 0x01)\n        /* \"DEX.sol\":2142:2146  meme */\n      swap1\n      swap2\n      and\n      swap1\n        /* \"DEX.sol\":2142:2159  meme.transferFrom */\n      0x23b872dd\n      swap1\n        /* \"#utility.yul\":6291:6309   */\n      0x64\n      add\n        /* \"DEX.sol\":2142:2199  meme.transferFrom(msg.sender, address(this), meme_amount) */\n      0x20\n      mload(0x40)\n      dup1\n      dup4\n      sub\n      dup2\n      0x00\n      dup8\n      gas\n      call\n      iszero\n      dup1\n      iszero\n      tag_400\n      jumpi\n      returndatasize\n      0x00\n      dup1\n      returndatacopy\n      revert(0x00, returndatasize)\n    tag_400:\n      pop\n      pop\n      pop\n      pop\n      mload(0x40)\n      returndatasize\n      not(0x1f)\n      0x1f\n      dup3\n      add\n      and\n      dup3\n      add\n      dup1\n      0x40\n      mstore\n      pop\n      dup2\n      add\n      swap1\n      tag_401\n      swap2\n      swap1\n      tag_149\n      jump\t// in\n    tag_401:\n      pop\n        /* \"DEX.sol\":2215:2226  meme_amount */\n      dup2\n        /* \"DEX.sol\":2209:2211  _x */\n      0x06\n      0x00\n        /* \"DEX.sol\":2209:2226  _x += meme_amount */\n      dup3\n      dup3\n      sload\n      tag_402\n      swap2\n      swap1\n      tag_128\n      jump\t// in\n    tag_402:\n      swap3\n      pop\n      pop\n      dup2\n      swap1\n      sstore\n      pop\n        /* \"DEX.sol\":2242:2252  eth_amount */\n      dup1\n        /* \"DEX.sol\":2236:2238  _y */\n      0x07\n      0x00\n        /* \"DEX.sol\":2236:2252  _y += eth_amount */\n      dup3\n      dup3\n      sload\n      tag_403\n      swap2\n      swap1\n      tag_128\n      jump\t// in\n    tag_403:\n      swap1\n      swap2\n      sstore\n      pop\n      pop\n        /* \"DEX.sol\":2288:2388  Stack_Struct(... */\n      0x40\n      dup1\n      mload\n      0x60\n      dup2\n      add\n      dup3\n      mstore\n      dup4\n      dup2\n      mstore\n      0x20\n      dup1\n      dup3\n      add\n      dup5\n      dup2\n      mstore\n        /* \"DEX.sol\":2363:2378  block.timestamp */\n      timestamp\n        /* \"DEX.sol\":2288:2388  Stack_Struct(... */\n      dup4\n      dup6\n      add\n      swap1\n      dup2\n      mstore\n        /* \"DEX.sol\":2406:2416  msg.sender */\n      caller\n        /* \"DEX.sol\":2263:2285  Stack_Struct memory ss */\n      0x00\n        /* \"DEX.sol\":2398:2417  Stacked[msg.sender] */\n      swap1\n      dup2\n      mstore\n        /* \"DEX.sol\":2398:2405  Stacked */\n      0x02\n        /* \"DEX.sol\":2398:2417  Stacked[msg.sender] */\n      dup1\n      dup6\n      mstore\n      swap6\n      dup2\n      keccak256\n        /* \"DEX.sol\":2398:2426  Stacked[msg.sender].push(ss) */\n      dup1\n      sload\n      0x01\n      dup2\n      dup2\n      add\n      dup4\n      sstore\n      swap2\n      dup4\n      mstore\n      swap5\n      swap1\n      swap2\n      keccak256\n      dup6\n      mload\n      0x03\n      swap1\n      swap6\n      mul\n      add\n      swap4\n      dup5\n      sstore\n      swap2\n      mload\n      swap2\n      dup4\n      add\n      swap2\n      swap1\n      swap2\n      sstore\n      mload\n      swap3\n      add\n      swap2\n      swap1\n      swap2\n      sstore\n        /* \"DEX.sol\":2472:2474  _x */\n      sload(0x06)\n        /* \"DEX.sol\":2459:2468  precision */\n      sload(0x08)\n        /* \"DEX.sol\":2454:2456  _y */\n      sload(0x07)\n        /* \"DEX.sol\":2454:2468  _y * precision */\n      tag_405\n      swap2\n        /* \"DEX.sol\":2459:2468  precision */\n      swap1\n        /* \"DEX.sol\":2454:2468  _y * precision */\n      tag_125\n      jump\t// in\n    tag_405:\n        /* \"DEX.sol\":2453:2474  (_y * precision) / _x */\n      tag_406\n      swap2\n      swap1\n      tag_113\n      jump\t// in\n    tag_406:\n        /* \"DEX.sol\":2437:2449  stackingRate */\n      0x04\n        /* \"DEX.sol\":2437:2475  stackingRate = ((_y * precision) / _x) */\n      sstore\n        /* \"DEX.sol\":2498:2500  _x */\n      sload(0x06)\n        /* \"DEX.sol\":2486:2495  originalX */\n      0x0a\n        /* \"DEX.sol\":2486:2500  originalX = _x */\n      sstore\n        /* \"DEX.sol\":2511:2521  _updateK() */\n      tag_407\n        /* \"DEX.sol\":2511:2519  _updateK */\n      tag_360\n        /* \"DEX.sol\":2511:2521  _updateK() */\n      jump\t// in\n    tag_407:\n        /* \"DEX.sol\":2536:2577  Stack(msg.sender, meme_amount, msg.value) */\n      0x40\n      dup1\n      mload\n        /* \"#utility.yul\":5151:5176   */\n      dup5\n      dup2\n      mstore\n        /* \"DEX.sol\":2567:2576  msg.value */\n      callvalue\n        /* \"#utility.yul\":5207:5209   */\n      0x20\n        /* \"#utility.yul\":5192:5210   */\n      dup3\n      add\n        /* \"#utility.yul\":5185:5219   */\n      mstore\n        /* \"DEX.sol\":2542:2552  msg.sender */\n      caller\n      swap2\n        /* \"DEX.sol\":2536:2577  Stack(msg.sender, meme_amount, msg.value) */\n      0x5caad8f5613b6f1d592fc8c69d8f0999453740f0806c754f20cc92f3d4b2b1b6\n      swap2\n        /* \"#utility.yul\":5124:5142   */\n      add\n        /* \"DEX.sol\":2536:2577  Stack(msg.sender, meme_amount, msg.value) */\n      tag_191\n        /* \"#utility.yul\":4977:5225   */\n      jump\n        /* \"DEX.sol\":3820:4132  function _removeArr(uint256 index) internal {... */\n    tag_358:\n        /* \"DEX.sol\":3898:3908  msg.sender */\n      caller\n        /* \"DEX.sol\":3890:3909  Stacked[msg.sender] */\n      0x00\n      swap1\n      dup2\n      mstore\n        /* \"DEX.sol\":3890:3897  Stacked */\n      0x02\n        /* \"DEX.sol\":3890:3909  Stacked[msg.sender] */\n      0x20\n      mstore\n      0x40\n      swap1\n      keccak256\n        /* \"DEX.sol\":3890:3916  Stacked[msg.sender].length */\n      sload\n        /* \"DEX.sol\":3882:3916  index < Stacked[msg.sender].length */\n      dup2\n      lt\n        /* \"DEX.sol\":3874:3940  require(index < Stacked[msg.sender].length, \"Index out of bounds\") */\n      tag_410\n      jumpi\n      mload(0x40)\n      shl(0xe5, 0x461bcd)\n      dup2\n      mstore\n        /* \"#utility.yul\":9104:9106   */\n      0x20\n        /* \"DEX.sol\":3874:3940  require(index < Stacked[msg.sender].length, \"Index out of bounds\") */\n      0x04\n      dup3\n      add\n        /* \"#utility.yul\":9086:9107   */\n      mstore\n        /* \"#utility.yul\":9143:9145   */\n      0x13\n        /* \"#utility.yul\":9123:9141   */\n      0x24\n      dup3\n      add\n        /* \"#utility.yul\":9116:9146   */\n      mstore\n      shl(0x68, 0x496e646578206f7574206f6620626f756e6473)\n        /* \"#utility.yul\":9162:9180   */\n      0x44\n      dup3\n      add\n        /* \"#utility.yul\":9155:9204   */\n      mstore\n        /* \"#utility.yul\":9221:9239   */\n      0x64\n      add\n        /* \"DEX.sol\":3874:3940  require(index < Stacked[msg.sender].length, \"Index out of bounds\") */\n      tag_109\n        /* \"#utility.yul\":8902:9245   */\n      jump\n        /* \"DEX.sol\":3874:3940  require(index < Stacked[msg.sender].length, \"Index out of bounds\") */\n    tag_410:\n        /* \"DEX.sol\":3967:3972  index */\n      dup1\n        /* \"DEX.sol\":3950:4091  for (uint256 i = index; i < Stacked[msg.sender].length - 1; i++) {... */\n    tag_412:\n        /* \"DEX.sol\":3986:3996  msg.sender */\n      caller\n        /* \"DEX.sol\":3978:3997  Stacked[msg.sender] */\n      0x00\n      swap1\n      dup2\n      mstore\n        /* \"DEX.sol\":3978:3985  Stacked */\n      0x02\n        /* \"DEX.sol\":3978:3997  Stacked[msg.sender] */\n      0x20\n      mstore\n      0x40\n      swap1\n      keccak256\n        /* \"DEX.sol\":3978:4004  Stacked[msg.sender].length */\n      sload\n        /* \"DEX.sol\":3978:4008  Stacked[msg.sender].length - 1 */\n      tag_415\n      swap1\n        /* \"DEX.sol\":4007:4008  1 */\n      0x01\n      swap1\n        /* \"DEX.sol\":3978:4008  Stacked[msg.sender].length - 1 */\n      tag_115\n      jump\t// in\n    tag_415:\n        /* \"DEX.sol\":3974:3975  i */\n      dup2\n        /* \"DEX.sol\":3974:4008  i < Stacked[msg.sender].length - 1 */\n      lt\n        /* \"DEX.sol\":3950:4091  for (uint256 i = index; i < Stacked[msg.sender].length - 1; i++) {... */\n      iszero\n      tag_413\n      jumpi\n        /* \"DEX.sol\":4062:4072  msg.sender */\n      caller\n        /* \"DEX.sol\":4054:4073  Stacked[msg.sender] */\n      0x00\n      swap1\n      dup2\n      mstore\n        /* \"DEX.sol\":4054:4061  Stacked */\n      0x02\n        /* \"DEX.sol\":4054:4073  Stacked[msg.sender] */\n      0x20\n      mstore\n      0x40\n      swap1\n      keccak256\n        /* \"DEX.sol\":4074:4079  i + 1 */\n      tag_416\n        /* \"DEX.sol\":4074:4075  i */\n      dup3\n        /* \"DEX.sol\":4078:4079  1 */\n      0x01\n        /* \"DEX.sol\":4074:4079  i + 1 */\n      tag_128\n      jump\t// in\n    tag_416:\n        /* \"DEX.sol\":4054:4080  Stacked[msg.sender][i + 1] */\n      dup2\n      sload\n      dup2\n      lt\n      tag_418\n      jumpi\n      tag_418\n      tag_235\n      jump\t// in\n    tag_418:\n      swap1\n      0x00\n      mstore\n      keccak256(0x00, 0x20)\n      swap1\n      0x03\n      mul\n      add\n        /* \"DEX.sol\":4029:4036  Stacked */\n      0x02\n        /* \"DEX.sol\":4029:4048  Stacked[msg.sender] */\n      0x00\n        /* \"DEX.sol\":4037:4047  msg.sender */\n      caller\n      sub(shl(0xa0, 0x01), 0x01)\n        /* \"DEX.sol\":4029:4048  Stacked[msg.sender] */\n      and\n      sub(shl(0xa0, 0x01), 0x01)\n      and\n      dup2\n      mstore\n      0x20\n      add\n      swap1\n      dup2\n      mstore\n      0x20\n      add\n      0x00\n      keccak256\n        /* \"DEX.sol\":4049:4050  i */\n      dup3\n        /* \"DEX.sol\":4029:4051  Stacked[msg.sender][i] */\n      dup2\n      sload\n      dup2\n      lt\n      tag_421\n      jumpi\n      tag_421\n      tag_235\n      jump\t// in\n    tag_421:\n      0x00\n      swap2\n      dup3\n      mstore\n      0x20\n      swap1\n      swap2\n      keccak256\n        /* \"DEX.sol\":4029:4080  Stacked[msg.sender][i] = Stacked[msg.sender][i + 1] */\n      dup3\n      sload\n        /* \"DEX.sol\":4029:4051  Stacked[msg.sender][i] */\n      0x03\n      swap1\n      swap3\n      mul\n      add\n        /* \"DEX.sol\":4029:4080  Stacked[msg.sender][i] = Stacked[msg.sender][i + 1] */\n      swap1\n      dup2\n      sstore\n      0x01\n      dup1\n      dup4\n      add\n      sload\n      swap1\n      dup3\n      add\n      sstore\n      0x02\n      swap2\n      dup3\n      add\n      sload\n      swap2\n      add\n      sstore\n        /* \"DEX.sol\":4010:4013  i++ */\n      dup1\n      tag_423\n      dup2\n      tag_247\n      jump\t// in\n    tag_423:\n      swap2\n      pop\n      pop\n        /* \"DEX.sol\":3950:4091  for (uint256 i = index; i < Stacked[msg.sender].length - 1; i++) {... */\n      jump(tag_412)\n    tag_413:\n      pop\n        /* \"DEX.sol\":4108:4118  msg.sender */\n      caller\n        /* \"DEX.sol\":4100:4119  Stacked[msg.sender] */\n      0x00\n      swap1\n      dup2\n      mstore\n        /* \"DEX.sol\":4100:4107  Stacked */\n      0x02\n        /* \"DEX.sol\":4100:4119  Stacked[msg.sender] */\n      0x20\n      mstore\n      0x40\n      swap1\n      keccak256\n        /* \"DEX.sol\":4100:4125  Stacked[msg.sender].pop() */\n      dup1\n      sload\n      dup1\n      tag_425\n      jumpi\n      tag_425\n      tag_426\n      jump\t// in\n    tag_425:\n      0x00\n      dup3\n      dup2\n      mstore\n      0x20\n      dup2\n      keccak256\n      0x03\n      not(0x00)\n      swap1\n      swap4\n      add\n      swap3\n      dup4\n      mul\n      add\n      dup2\n      dup2\n      sstore\n      0x01\n      dup2\n      add\n      dup3\n      swap1\n      sstore\n      0x02\n      add\n      sstore\n      swap1\n      sstore\n      pop\n        /* \"DEX.sol\":3820:4132  function _removeArr(uint256 index) internal {... */\n      jump\t// out\n        /* \"DEX.sol\":1385:1443  function _updateK() internal {... */\n    tag_360:\n        /* \"DEX.sol\":1434:1436  _y */\n      sload(0x07)\n        /* \"DEX.sol\":1429:1431  _x */\n      sload(0x06)\n        /* \"DEX.sol\":1429:1436  _x * _y */\n      tag_429\n      swap2\n      swap1\n      tag_125\n      jump\t// in\n    tag_429:\n        /* \"DEX.sol\":1424:1426  _k */\n      0x05\n        /* \"DEX.sol\":1424:1436  _k = _x * _y */\n      sstore\n        /* \"DEX.sol\":1385:1443  function _updateK() internal {... */\n      jump\t// out\n        /* \"@openzeppelin/contracts/security/Pausable.sol\":1945:2051  function _requirePaused() internal view virtual {... */\n    tag_387:\n        /* \"@openzeppelin/contracts/security/Pausable.sol\":1662:1666  bool */\n      0x00\n        /* \"@openzeppelin/contracts/security/Pausable.sol\":1685:1692  _paused */\n      sload\n      0xff\n      and\n        /* \"@openzeppelin/contracts/security/Pausable.sol\":2003:2044  require(paused(), \"Pausable: not paused\") */\n      tag_165\n      jumpi\n      mload(0x40)\n      shl(0xe5, 0x461bcd)\n      dup2\n      mstore\n        /* \"#utility.yul\":10912:10914   */\n      0x20\n        /* \"@openzeppelin/contracts/security/Pausable.sol\":2003:2044  require(paused(), \"Pausable: not paused\") */\n      0x04\n      dup3\n      add\n        /* \"#utility.yul\":10894:10915   */\n      mstore\n        /* \"#utility.yul\":10951:10953   */\n      0x14\n        /* \"#utility.yul\":10931:10949   */\n      0x24\n      dup3\n      add\n        /* \"#utility.yul\":10924:10954   */\n      mstore\n      shl(0x62, 0x14185d5cd8589b194e881b9bdd081c185d5cd959)\n        /* \"#utility.yul\":10970:10988   */\n      0x44\n      dup3\n      add\n        /* \"#utility.yul\":10963:11013   */\n      mstore\n        /* \"#utility.yul\":11030:11048   */\n      0x64\n      add\n        /* \"@openzeppelin/contracts/security/Pausable.sol\":2003:2044  require(paused(), \"Pausable: not paused\") */\n      tag_109\n        /* \"#utility.yul\":10710:11054   */\n      jump\n        /* \"#utility.yul\":14:194   */\n    tag_29:\n        /* \"#utility.yul\":73:79   */\n      0x00\n        /* \"#utility.yul\":126:128   */\n      0x20\n        /* \"#utility.yul\":114:123   */\n      dup3\n        /* \"#utility.yul\":105:112   */\n      dup5\n        /* \"#utility.yul\":101:124   */\n      sub\n        /* \"#utility.yul\":97:129   */\n      slt\n        /* \"#utility.yul\":94:146   */\n      iszero\n      tag_440\n      jumpi\n        /* \"#utility.yul\":142:143   */\n      0x00\n        /* \"#utility.yul\":139:140   */\n      dup1\n        /* \"#utility.yul\":132:144   */\n      revert\n        /* \"#utility.yul\":94:146   */\n    tag_440:\n      pop\n        /* \"#utility.yul\":165:188   */\n      calldataload\n      swap2\n        /* \"#utility.yul\":14:194   */\n      swap1\n      pop\n      jump\t// out\n        /* \"#utility.yul\":381:554   */\n    tag_436:\n        /* \"#utility.yul\":449:469   */\n      dup1\n      calldataload\n      sub(shl(0xa0, 0x01), 0x01)\n        /* \"#utility.yul\":498:529   */\n      dup2\n      and\n        /* \"#utility.yul\":488:530   */\n      dup2\n      eq\n        /* \"#utility.yul\":478:548   */\n      tag_107\n      jumpi\n        /* \"#utility.yul\":544:545   */\n      0x00\n        /* \"#utility.yul\":541:542   */\n      dup1\n        /* \"#utility.yul\":534:546   */\n      revert\n        /* \"#utility.yul\":559:881   */\n    tag_44:\n        /* \"#utility.yul\":636:642   */\n      0x00\n        /* \"#utility.yul\":644:650   */\n      dup1\n        /* \"#utility.yul\":652:658   */\n      0x00\n        /* \"#utility.yul\":705:707   */\n      0x60\n        /* \"#utility.yul\":693:702   */\n      dup5\n        /* \"#utility.yul\":684:691   */\n      dup7\n        /* \"#utility.yul\":680:703   */\n      sub\n        /* \"#utility.yul\":676:708   */\n      slt\n        /* \"#utility.yul\":673:725   */\n      iszero\n      tag_445\n      jumpi\n        /* \"#utility.yul\":721:722   */\n      0x00\n        /* \"#utility.yul\":718:719   */\n      dup1\n        /* \"#utility.yul\":711:723   */\n      revert\n        /* \"#utility.yul\":673:725   */\n    tag_445:\n        /* \"#utility.yul\":757:766   */\n      dup4\n        /* \"#utility.yul\":744:767   */\n      calldataload\n        /* \"#utility.yul\":734:767   */\n      swap3\n      pop\n        /* \"#utility.yul\":786:824   */\n      tag_446\n        /* \"#utility.yul\":820:822   */\n      0x20\n        /* \"#utility.yul\":809:818   */\n      dup6\n        /* \"#utility.yul\":805:823   */\n      add\n        /* \"#utility.yul\":786:824   */\n      tag_436\n      jump\t// in\n    tag_446:\n        /* \"#utility.yul\":776:824   */\n      swap2\n      pop\n        /* \"#utility.yul\":871:873   */\n      0x40\n        /* \"#utility.yul\":860:869   */\n      dup5\n        /* \"#utility.yul\":856:874   */\n      add\n        /* \"#utility.yul\":843:875   */\n      calldataload\n        /* \"#utility.yul\":833:875   */\n      swap1\n      pop\n        /* \"#utility.yul\":559:881   */\n      swap3\n      pop\n      swap3\n      pop\n      swap3\n      jump\t// out\n        /* \"#utility.yul\":886:1140   */\n    tag_52:\n        /* \"#utility.yul\":954:960   */\n      0x00\n        /* \"#utility.yul\":962:968   */\n      dup1\n        /* \"#utility.yul\":1015:1017   */\n      0x40\n        /* \"#utility.yul\":1003:1012   */\n      dup4\n        /* \"#utility.yul\":994:1001   */\n      dup6\n        /* \"#utility.yul\":990:1013   */\n      sub\n        /* \"#utility.yul\":986:1018   */\n      slt\n        /* \"#utility.yul\":983:1035   */\n      iszero\n      tag_448\n      jumpi\n        /* \"#utility.yul\":1031:1032   */\n      0x00\n        /* \"#utility.yul\":1028:1029   */\n      dup1\n        /* \"#utility.yul\":1021:1033   */\n      revert\n        /* \"#utility.yul\":983:1035   */\n    tag_448:\n        /* \"#utility.yul\":1067:1076   */\n      dup3\n        /* \"#utility.yul\":1054:1077   */\n      calldataload\n        /* \"#utility.yul\":1044:1077   */\n      swap2\n      pop\n        /* \"#utility.yul\":1096:1134   */\n      tag_449\n        /* \"#utility.yul\":1130:1132   */\n      0x20\n        /* \"#utility.yul\":1119:1128   */\n      dup5\n        /* \"#utility.yul\":1115:1133   */\n      add\n        /* \"#utility.yul\":1096:1134   */\n      tag_436\n      jump\t// in\n    tag_449:\n        /* \"#utility.yul\":1086:1134   */\n      swap1\n      pop\n        /* \"#utility.yul\":886:1140   */\n      swap3\n      pop\n      swap3\n      swap1\n      pop\n      jump\t// out\n        /* \"#utility.yul\":1545:2396   */\n    tag_98:\n        /* \"#utility.yul\":1774:1776   */\n      0x20\n        /* \"#utility.yul\":1826:1847   */\n      dup1\n      dup3\n      mstore\n        /* \"#utility.yul\":1896:1909   */\n      dup3\n      mload\n        /* \"#utility.yul\":1799:1817   */\n      dup3\n      dup3\n      add\n        /* \"#utility.yul\":1918:1940   */\n      dup2\n      swap1\n      mstore\n        /* \"#utility.yul\":1745:1749   */\n      0x00\n      swap2\n        /* \"#utility.yul\":1774:1776   */\n      swap1\n        /* \"#utility.yul\":1959:1961   */\n      0x40\n      swap1\n        /* \"#utility.yul\":1977:1995   */\n      dup2\n      dup6\n      add\n      swap1\n        /* \"#utility.yul\":2018:2033   */\n      dup7\n      dup5\n      add\n        /* \"#utility.yul\":1745:1749   */\n      dup6\n        /* \"#utility.yul\":2061:2370   */\n    tag_453:\n        /* \"#utility.yul\":2075:2081   */\n      dup3\n        /* \"#utility.yul\":2072:2073   */\n      dup2\n        /* \"#utility.yul\":2069:2082   */\n      lt\n        /* \"#utility.yul\":2061:2370   */\n      iszero\n      tag_455\n      jumpi\n        /* \"#utility.yul\":2134:2147   */\n      dup2\n      mload\n        /* \"#utility.yul\":2172:2181   */\n      dup1\n      mload\n        /* \"#utility.yul\":2160:2182   */\n      dup6\n      mstore\n        /* \"#utility.yul\":2222:2233   */\n      dup7\n      dup2\n      add\n        /* \"#utility.yul\":2216:2234   */\n      mload\n        /* \"#utility.yul\":2202:2214   */\n      dup8\n      dup7\n      add\n        /* \"#utility.yul\":2195:2235   */\n      mstore\n        /* \"#utility.yul\":2275:2286   */\n      dup6\n      add\n        /* \"#utility.yul\":2269:2287   */\n      mload\n        /* \"#utility.yul\":2255:2267   */\n      dup6\n      dup6\n      add\n        /* \"#utility.yul\":2248:2288   */\n      mstore\n        /* \"#utility.yul\":2317:2321   */\n      0x60\n        /* \"#utility.yul\":2308:2322   */\n      swap1\n      swap4\n      add\n      swap3\n        /* \"#utility.yul\":2345:2360   */\n      swap1\n      dup6\n      add\n      swap1\n        /* \"#utility.yul\":2097:2098   */\n      0x01\n        /* \"#utility.yul\":2090:2099   */\n      add\n        /* \"#utility.yul\":2061:2370   */\n      jump(tag_453)\n    tag_455:\n      pop\n        /* \"#utility.yul\":2387:2390   */\n      swap2\n      swap8\n        /* \"#utility.yul\":1545:2396   */\n      swap7\n      pop\n      pop\n      pop\n      pop\n      pop\n      pop\n      pop\n      jump\t// out\n        /* \"#utility.yul\":2401:2587   */\n    tag_102:\n        /* \"#utility.yul\":2460:2466   */\n      0x00\n        /* \"#utility.yul\":2513:2515   */\n      0x20\n        /* \"#utility.yul\":2501:2510   */\n      dup3\n        /* \"#utility.yul\":2492:2499   */\n      dup5\n        /* \"#utility.yul\":2488:2511   */\n      sub\n        /* \"#utility.yul\":2484:2516   */\n      slt\n        /* \"#utility.yul\":2481:2533   */\n      iszero\n      tag_457\n      jumpi\n        /* \"#utility.yul\":2529:2530   */\n      0x00\n        /* \"#utility.yul\":2526:2527   */\n      dup1\n        /* \"#utility.yul\":2519:2531   */\n      revert\n        /* \"#utility.yul\":2481:2533   */\n    tag_457:\n        /* \"#utility.yul\":2552:2581   */\n      tag_458\n        /* \"#utility.yul\":2571:2580   */\n      dup3\n        /* \"#utility.yul\":2552:2581   */\n      tag_436\n      jump\t// in\n    tag_458:\n        /* \"#utility.yul\":2542:2581   */\n      swap4\n        /* \"#utility.yul\":2401:2587   */\n      swap3\n      pop\n      pop\n      pop\n      jump\t// out\n        /* \"#utility.yul\":2592:2936   */\n    tag_110:\n        /* \"#utility.yul\":2794:2796   */\n      0x20\n        /* \"#utility.yul\":2776:2797   */\n      dup1\n      dup3\n      mstore\n        /* \"#utility.yul\":2833:2835   */\n      0x14\n        /* \"#utility.yul\":2813:2831   */\n      swap1\n      dup3\n      add\n        /* \"#utility.yul\":2806:2836   */\n      mstore\n      shl(0x60, 0x4e6f7420656e6f756768206c6971756964697479)\n        /* \"#utility.yul\":2867:2869   */\n      0x40\n        /* \"#utility.yul\":2852:2870   */\n      dup3\n      add\n        /* \"#utility.yul\":2845:2895   */\n      mstore\n        /* \"#utility.yul\":2927:2929   */\n      0x60\n        /* \"#utility.yul\":2912:2930   */\n      add\n      swap1\n        /* \"#utility.yul\":2592:2936   */\n      jump\t// out\n        /* \"#utility.yul\":2941:3068   */\n    tag_437:\n        /* \"#utility.yul\":3002:3012   */\n      0x4e487b71\n        /* \"#utility.yul\":2997:3000   */\n      0xe0\n        /* \"#utility.yul\":2993:3013   */\n      shl\n        /* \"#utility.yul\":2990:2991   */\n      0x00\n        /* \"#utility.yul\":2983:3014   */\n      mstore\n        /* \"#utility.yul\":3033:3037   */\n      0x11\n        /* \"#utility.yul\":3030:3031   */\n      0x04\n        /* \"#utility.yul\":3023:3038   */\n      mstore\n        /* \"#utility.yul\":3057:3061   */\n      0x24\n        /* \"#utility.yul\":3054:3055   */\n      0x00\n        /* \"#utility.yul\":3047:3062   */\n      revert\n        /* \"#utility.yul\":3073:3290   */\n    tag_113:\n        /* \"#utility.yul\":3113:3114   */\n      0x00\n        /* \"#utility.yul\":3139:3140   */\n      dup3\n        /* \"#utility.yul\":3129:3261   */\n      tag_462\n      jumpi\n        /* \"#utility.yul\":3183:3193   */\n      0x4e487b71\n        /* \"#utility.yul\":3178:3181   */\n      0xe0\n        /* \"#utility.yul\":3174:3194   */\n      shl\n        /* \"#utility.yul\":3171:3172   */\n      0x00\n        /* \"#utility.yul\":3164:3195   */\n      mstore\n        /* \"#utility.yul\":3218:3222   */\n      0x12\n        /* \"#utility.yul\":3215:3216   */\n      0x04\n        /* \"#utility.yul\":3208:3223   */\n      mstore\n        /* \"#utility.yul\":3246:3250   */\n      0x24\n        /* \"#utility.yul\":3243:3244   */\n      0x00\n        /* \"#utility.yul\":3236:3251   */\n      revert\n        /* \"#utility.yul\":3129:3261   */\n    tag_462:\n      pop\n        /* \"#utility.yul\":3275:3284   */\n      div\n      swap1\n        /* \"#utility.yul\":3073:3290   */\n      jump\t// out\n        /* \"#utility.yul\":3295:3423   */\n    tag_115:\n        /* \"#utility.yul\":3362:3371   */\n      dup2\n      dup2\n      sub\n        /* \"#utility.yul\":3383:3394   */\n      dup2\n      dup2\n      gt\n        /* \"#utility.yul\":3380:3417   */\n      iszero\n      tag_226\n      jumpi\n        /* \"#utility.yul\":3397:3415   */\n      tag_226\n      tag_437\n      jump\t// in\n        /* \"#utility.yul\":3428:3596   */\n    tag_125:\n        /* \"#utility.yul\":3501:3510   */\n      dup1\n      dup3\n      mul\n        /* \"#utility.yul\":3532:3541   */\n      dup2\n      iszero\n        /* \"#utility.yul\":3549:3564   */\n      dup3\n      dup3\n      div\n        /* \"#utility.yul\":3543:3565   */\n      dup5\n      eq\n        /* \"#utility.yul\":3529:3566   */\n      or\n        /* \"#utility.yul\":3519:3590   */\n      tag_226\n      jumpi\n        /* \"#utility.yul\":3570:3588   */\n      tag_226\n      tag_437\n      jump\t// in\n        /* \"#utility.yul\":3601:3726   */\n    tag_128:\n        /* \"#utility.yul\":3666:3675   */\n      dup1\n      dup3\n      add\n        /* \"#utility.yul\":3687:3697   */\n      dup1\n      dup3\n      gt\n        /* \"#utility.yul\":3684:3720   */\n      iszero\n      tag_226\n      jumpi\n        /* \"#utility.yul\":3700:3718   */\n      tag_226\n      tag_437\n      jump\t// in\n        /* \"#utility.yul\":4695:4972   */\n    tag_149:\n        /* \"#utility.yul\":4762:4768   */\n      0x00\n        /* \"#utility.yul\":4815:4817   */\n      0x20\n        /* \"#utility.yul\":4803:4812   */\n      dup3\n        /* \"#utility.yul\":4794:4801   */\n      dup5\n        /* \"#utility.yul\":4790:4813   */\n      sub\n        /* \"#utility.yul\":4786:4818   */\n      slt\n        /* \"#utility.yul\":4783:4835   */\n      iszero\n      tag_476\n      jumpi\n        /* \"#utility.yul\":4831:4832   */\n      0x00\n        /* \"#utility.yul\":4828:4829   */\n      dup1\n        /* \"#utility.yul\":4821:4833   */\n      revert\n        /* \"#utility.yul\":4783:4835   */\n    tag_476:\n        /* \"#utility.yul\":4863:4872   */\n      dup2\n        /* \"#utility.yul\":4857:4873   */\n      mload\n        /* \"#utility.yul\":4916:4921   */\n      dup1\n        /* \"#utility.yul\":4909:4922   */\n      iszero\n        /* \"#utility.yul\":4902:4923   */\n      iszero\n        /* \"#utility.yul\":4895:4900   */\n      dup2\n        /* \"#utility.yul\":4892:4924   */\n      eq\n        /* \"#utility.yul\":4882:4942   */\n      tag_458\n      jumpi\n        /* \"#utility.yul\":4938:4939   */\n      0x00\n        /* \"#utility.yul\":4935:4936   */\n      dup1\n        /* \"#utility.yul\":4928:4940   */\n      revert\n        /* \"#utility.yul\":5572:5756   */\n    tag_178:\n        /* \"#utility.yul\":5642:5648   */\n      0x00\n        /* \"#utility.yul\":5695:5697   */\n      0x20\n        /* \"#utility.yul\":5683:5692   */\n      dup3\n        /* \"#utility.yul\":5674:5681   */\n      dup5\n        /* \"#utility.yul\":5670:5693   */\n      sub\n        /* \"#utility.yul\":5666:5698   */\n      slt\n        /* \"#utility.yul\":5663:5715   */\n      iszero\n      tag_481\n      jumpi\n        /* \"#utility.yul\":5711:5712   */\n      0x00\n        /* \"#utility.yul\":5708:5709   */\n      dup1\n        /* \"#utility.yul\":5701:5713   */\n      revert\n        /* \"#utility.yul\":5663:5715   */\n    tag_481:\n      pop\n        /* \"#utility.yul\":5734:5750   */\n      mload\n      swap2\n        /* \"#utility.yul\":5572:5756   */\n      swap1\n      pop\n      jump\t// out\n        /* \"#utility.yul\":6843:6970   */\n    tag_235:\n        /* \"#utility.yul\":6904:6914   */\n      0x4e487b71\n        /* \"#utility.yul\":6899:6902   */\n      0xe0\n        /* \"#utility.yul\":6895:6915   */\n      shl\n        /* \"#utility.yul\":6892:6893   */\n      0x00\n        /* \"#utility.yul\":6885:6916   */\n      mstore\n        /* \"#utility.yul\":6935:6939   */\n      0x32\n        /* \"#utility.yul\":6932:6933   */\n      0x04\n        /* \"#utility.yul\":6925:6940   */\n      mstore\n        /* \"#utility.yul\":6959:6963   */\n      0x24\n        /* \"#utility.yul\":6956:6957   */\n      0x00\n        /* \"#utility.yul\":6949:6964   */\n      revert\n        /* \"#utility.yul\":6975:7110   */\n    tag_247:\n        /* \"#utility.yul\":7014:7017   */\n      0x00\n        /* \"#utility.yul\":7035:7052   */\n      0x01\n      dup3\n      add\n        /* \"#utility.yul\":7032:7075   */\n      tag_488\n      jumpi\n        /* \"#utility.yul\":7055:7073   */\n      tag_488\n      tag_437\n      jump\t// in\n    tag_488:\n      pop\n        /* \"#utility.yul\":7102:7103   */\n      0x01\n        /* \"#utility.yul\":7091:7104   */\n      add\n      swap1\n        /* \"#utility.yul\":6975:7110   */\n      jump\t// out\n        /* \"#utility.yul\":10578:10705   */\n    tag_426:\n        /* \"#utility.yul\":10639:10649   */\n      0x4e487b71\n        /* \"#utility.yul\":10634:10637   */\n      0xe0\n        /* \"#utility.yul\":10630:10650   */\n      shl\n        /* \"#utility.yul\":10627:10628   */\n      0x00\n        /* \"#utility.yul\":10620:10651   */\n      mstore\n        /* \"#utility.yul\":10670:10674   */\n      0x31\n        /* \"#utility.yul\":10667:10668   */\n      0x04\n        /* \"#utility.yul\":10660:10675   */\n      mstore\n        /* \"#utility.yul\":10694:10698   */\n      0x24\n        /* \"#utility.yul\":10691:10692   */\n      0x00\n        /* \"#utility.yul\":10684:10699   */\n      revert\n\n    auxdata: 0xa2646970667358221220abbf938c022282536450e21b1be418d2d177af34fa7cd6f48be8c65aa3ab08c564736f6c63430008130033\n}\n",
				"bytecode": {
					"linkReferences": {},
					"object": "6080604052678ac7230489e800006008556103e860085460036200002491906200011d565b62000030919062000149565b600955600654600a553480156200004657600080fd5b5060405162001ed338038062001ed383398101604081905262000069916200016c565b6000805460ff191690556200007e33620000c4565b600180546001600160a01b0319166001600160a01b0384161790556008546103e890620000ac90836200011d565b620000b8919062000149565b60095550620001a89050565b600080546001600160a01b03838116610100818102610100600160a81b0319851617855560405193049190911692909183917f8be0079c531659141344cd1fd0a4f28419497f9722a3daafe3b4186f6b6457e091a35050565b80820281158282048414176200014357634e487b7160e01b600052601160045260246000fd5b92915050565b6000826200016757634e487b7160e01b600052601260045260246000fd5b500490565b600080604083850312156200018057600080fd5b82516001600160a01b03811681146200019857600080fd5b6020939093015192949293505050565b611d1b80620001b86000396000f3fe60806040526004361061010d5760003560e01c80638456cb5911610095578063d96a094a11610064578063d96a094a146102bc578063dc9031c4146102cf578063e4849b32146102e2578063e8bca8b814610302578063f2fde38b1461032457600080fd5b80638456cb591461023b5780638da5cb5b146102505780639c74f05d14610286578063d37a389b1461029c57600080fd5b80633f4ba83a116100dc5780633f4ba83a146101ae5780634189a68e146101c35780635c572ed0146101e35780635c975abb14610203578063715018a61461022657600080fd5b80631a753fed14610119578063200061df1461014c5780632ad9d5591461016e5780632afaca201461019b57600080fd5b3661011457005b600080fd5b34801561012557600080fd5b50610139610134366004611ab6565b610344565b6040519081526020015b60405180910390f35b34801561015857600080fd5b5061016c610167366004611ab6565b61043e565b005b34801561017a57600080fd5b50610139610189366004611ab6565b60036020526000908152604090205481565b61016c6101a9366004611ae6565b610452565b3480156101ba57600080fd5b5061016c610652565b3480156101cf57600080fd5b5061016c6101de366004611b1b565b610664565b3480156101ef57600080fd5b506101396101fe366004611ab6565b61089f565b34801561020f57600080fd5b5060005460ff166040519015158152602001610143565b34801561023257600080fd5b5061016c610990565b34801561024757600080fd5b5061016c6109a2565b34801561025c57600080fd5b5060005461010090046001600160a01b03166040516001600160a01b039091168152602001610143565b34801561029257600080fd5b5061013960045481565b3480156102a857600080fd5b506101396102b7366004611ab6565b6109b2565b61016c6102ca366004611ab6565b610b65565b61016c6102dd366004611ab6565b610d50565b3480156102ee57600080fd5b5061016c6102fd366004611ab6565b610e45565b34801561030e57600080fd5b50610317611060565b6040516101439190611b47565b34801561033057600080fd5b5061016c61033f366004611ba0565b6110e8565b600061034e61115e565b6000600554116103795760405162461bcd60e51b815260040161037090611bc2565b60405180910390fd5b6000806006546000036103a7578360016005546103969190611c06565b6103a09190611c28565b90506103c5565b836006546005546103b89190611c06565b6103c29190611c28565b90505b806000036103e35760016005546103dc9190611c06565b91506103f4565b806005546103f19190611c06565b91505b6000600654836104049190611c28565b90506000600854600954836104199190611c3b565b6104239190611c06565b905081610431816001611c52565b955050505050505b919050565b61044661115e565b61044f816111a4565b50565b61045a61115e565b6000831161049b5760405162461bcd60e51b815260206004820152600e60248201526d53656e6420536f6d65204d656d6560901b6044820152606401610370565b60006104a68461089f565b9050818111156104e85760405162461bcd60e51b815260206004820152600d60248201526c0a6cadcc8409adee4ca408aa89609b1b6044820152606401610370565b60015460405163a9059cbb60e01b81526001600160a01b038581166004830152602482018790529091169063a9059cbb906044016020604051808303816000875af115801561053b573d6000803e3d6000fd5b505050506040513d601f19601f8201168201806040525081019061055f9190611c65565b506001600160a01b0383166108fc6105778385611c28565b6040518115909202916000818181858888f1935050505015801561059f573d6000803e3d6000fd5b506105a98461156b565b600360006105ba6201518042611c06565b815260200190815260200160002060008282546105d79190611c52565b9250508190555083600660008282546105f09190611c28565b90915550506006546005546106059190611c06565b60075560408051858152602081018390526001600160a01b038516917f1cbc5ab135991bd2b6a4b034a04aa2aa086dac1371cb9b16b8b5e2ed6b036bed910160405180910390a250505050565b61065a611642565b6106626116a2565b565b61066c61115e565b600082116106ac5760405162461bcd60e51b815260206004820152600d60248201526c0a6cadcc840a6dedaca408aa89609b1b6044820152606401610370565b60006106b783610344565b6001546040516370a0823160e01b81526001600160a01b0385811660048301529293509116906370a0823190602401602060405180830381865afa158015610703573d6000803e3d6000fd5b505050506040513d601f19601f820116820180604052508101906107279190611c87565b8111156107765760405162461bcd60e51b815260206004820152601a60248201527f596f7520646f6e2774206861766520656e6f756768206d656d650000000000006044820152606401610370565b6001546040516323b872dd60e01b81526001600160a01b03848116600483015230602483015260448201849052909116906323b872dd906064016020604051808303816000875af11580156107cf573d6000803e3d6000fd5b505050506040513d601f19601f820116820180604052508101906107f39190611c65565b506040516001600160a01b0383169084156108fc029085906000818181858888f1935050505015801561082a573d6000803e3d6000fd5b50826007600082825461083d9190611c28565b90915550506007546005546108529190611c06565b60065560408051828152602081018590526001600160a01b038416917fed7a144fad14804d5c249145e3e0e2b63a9eb455b76aee5bc92d711e9bba3e4a91015b60405180910390a2505050565b60006108a961115e565b6000600554116108cb5760405162461bcd60e51b815260040161037090611bc2565b6000806007546000036108f9578360016005546108e89190611c06565b6108f29190611c28565b9150610917565b8360075460055461090a9190611c06565b6109149190611c28565b91505b8160000361093557600160055461092e9190611c06565b9050610946565b816005546109439190611c06565b90505b6000600754826109569190611c28565b905060006008546009548361096b9190611c3b565b6109759190611c06565b905060006109838284611c52565b9050610431816001611c52565b610998611642565b61066260006116f4565b6109aa611642565b61066261174d565b600080806003816109c66201518042611c06565b8152602001908152602001600020541115610b5f5733600090815260026020908152604080832080548251818502810185019093528083529192909190849084015b82821015610a585783829060005260206000209060030201604051806060016040529081600082015481526020016001820154815260200160028201548152505081526020019060010190610a08565b50505050905080518410610aa35760405162461bcd60e51b8152602060048201526012602482015271092dcecc2d8d2c840e0deded840d2dcc8caf60731b6044820152606401610370565b6000818581518110610ab757610ab7611ca0565b602002602001015190506000600a546008548360000151610ad89190611c3b565b610ae29190611c06565b60408301519091506000610af96201518042611c06565b90506000610b0a6201518084611c06565b90505b818111610b5857600854600082815260036020526040902054610b309086611c3b565b610b3a9190611c06565b610b449088611c52565b965080610b5081611cb6565b915050610b0d565b5050505050505b92915050565b610b6d61115e565b60008111610bae5760405162461bcd60e51b815260206004820152600e60248201526d53656e6420536f6d65204d656d6560901b6044820152606401610370565b6000610bb98261089f565b905034811115610bfb5760405162461bcd60e51b815260206004820152600d60248201526c0a6cadcc8409adee4ca408aa89609b1b6044820152606401610370565b60015460405163a9059cbb60e01b8152336004820152602481018490526001600160a01b039091169063a9059cbb906044016020604051808303816000875af1158015610c4c573d6000803e3d6000fd5b505050506040513d601f19601f82011682018060405250810190610c709190611c65565b50336108fc610c7f8334611c28565b6040518115909202916000818181858888f19350505050158015610ca7573d6000803e3d6000fd5b50610cb18261156b565b60036000610cc26201518042611c06565b81526020019081526020016000206000828254610cdf9190611c52565b925050819055508160066000828254610cf89190611c28565b9091555050600654600554610d0d9190611c06565b600755604080518381526020810183905233917f1cbc5ab135991bd2b6a4b034a04aa2aa086dac1371cb9b16b8b5e2ed6b036bed91015b60405180910390a25050565b610d5861115e565b60008111610d995760405162461bcd60e51b815260206004820152600e60248201526d53656e64206d6f7265204d454d4560901b6044820152606401610370565b60003411610dd95760405162461bcd60e51b815260206004820152600d60248201526c0a6cadcc840dadee4ca408aa89609b1b6044820152606401610370565b8060085434610de89190611c3b565b610df29190611c06565b6004541115610e3b5760405162461bcd60e51b815260206004820152601560248201527414dd1858dada5b99c814985d19481b9bdd081b595d605a1b6044820152606401610370565b61044f813461178a565b610e4d61115e565b60008111610e8d5760405162461bcd60e51b815260206004820152600d60248201526c0a6cadcc840a6dedaca408aa89609b1b6044820152606401610370565b6000610e9882610344565b6001546040516370a0823160e01b81523360048201529192506001600160a01b0316906370a0823190602401602060405180830381865afa158015610ee1573d6000803e3d6000fd5b505050506040513d601f19601f82011682018060405250810190610f059190611c87565b811115610f545760405162461bcd60e51b815260206004820152601a60248201527f596f7520646f6e2774206861766520656e6f756768206d656d650000000000006044820152606401610370565b6001546040516323b872dd60e01b8152336004820152306024820152604481018390526001600160a01b03909116906323b872dd906064016020604051808303816000875af1158015610fab573d6000803e3d6000fd5b505050506040513d601f19601f82011682018060405250810190610fcf9190611c65565b50604051339083156108fc029084906000818181858888f19350505050158015610ffd573d6000803e3d6000fd5b5081600760008282546110109190611c28565b90915550506007546005546110259190611c06565b600655604080518281526020810184905233917fed7a144fad14804d5c249145e3e0e2b63a9eb455b76aee5bc92d711e9bba3e4a9101610d44565b336000908152600260209081526040808320805482518185028101850190935280835260609492939192909184015b828210156110df578382906000526020600020906003020160405180606001604052908160008201548152602001600182015481526020016002820154815250508152602001906001019061108f565b50505050905090565b6110f0611642565b6001600160a01b0381166111555760405162461bcd60e51b815260206004820152602660248201527f4f776e61626c653a206e6577206f776e657220697320746865207a65726f206160448201526564647265737360d01b6064820152608401610370565b61044f816116f4565b60005460ff16156106625760405162461bcd60e51b815260206004820152601060248201526f14185d5cd8589b194e881c185d5cd95960821b6044820152606401610370565b3360009081526002602052604090205481106111f85760405162461bcd60e51b8152602060048201526013602482015272496e646578206f7574206f6620626f756e647360681b6044820152606401610370565b33600090815260026020526040812080548390811061121957611219611ca0565b906000526020600020906003020160405180606001604052908160008201548152602001600182015481526020016002820154815250509050600061125d836109b2565b8251602084015191925090600090611276908490611c52565b600654600a556001546040516370a0823160e01b81523060048201529192506001600160a01b0316906370a0823190602401602060405180830381865afa1580156112c5573d6000803e3d6000fd5b505050506040513d601f19601f820116820180604052508101906112e99190611c87565b8211156113725760405162461bcd60e51b815260206004820152604b60248201527f536f7272792043757272656e746c79207468697320636f6e747261637420646f60448201527f65736e27742068617665204d656d6520746f2072657475726e2c20436865636b60648201526a206261636b20536f6f6e2160a81b608482015260a401610370565b478111156113fb5760405162461bcd60e51b815260206004820152604a60248201527f536f7272792043757272656e746c79207468697320636f6e747261637420646f60448201527f65736e277420686176652045746820746f2072657475726e2c20436865636b206064820152696261636b20536f6f6e2160b01b608482015260a401610370565b60015460405163a9059cbb60e01b8152336004820152602481018490526001600160a01b039091169063a9059cbb906044016020604051808303816000875af115801561144c573d6000803e3d6000fd5b505050506040513d601f19601f820116820180604052508101906114709190611c65565b50604051339082156108fc029083906000818181858888f1935050505015801561149e573d6000803e3d6000fd5b508160065410156114b05760006114be565b816006546114be9190611c28565b6006556007548111156114d25760006114e0565b806007546114e09190611c28565b6007556006546000036114f7576000600455611518565b60065460085460075461150a9190611c3b565b6115149190611c06565b6004555b611521856118f0565b611529611a58565b604080518381526020810183905233917fbb564df1f5d4ebb97b073adcab505c7796a37035ac5d14f51269660939c39cf4910160405180910390a25050505050565b6000806005541161158e5760405162461bcd60e51b815260040161037090611bc2565b6000806007546000036115bc578360016005546115ab9190611c06565b6115b59190611c28565b91506115da565b836007546005546115cd9190611c06565b6115d79190611c28565b91505b816000036115f85760016005546115f19190611c06565b9050611609565b816005546116069190611c06565b90505b6000600754826116199190611c28565b905060006008546009548361162e9190611c3b565b6116389190611c06565b9695505050505050565b6000546001600160a01b036101009091041633146106625760405162461bcd60e51b815260206004820181905260248201527f4f776e61626c653a2063616c6c6572206973206e6f7420746865206f776e65726044820152606401610370565b6116aa611a6d565b6000805460ff191690557f5db9ee0a495bf2e6ff9c91a7834c1ba4fdd244a5e8aa4e537bd38aeae4b073aa335b6040516001600160a01b03909116815260200160405180910390a1565b600080546001600160a01b03838116610100818102610100600160a81b0319851617855560405193049190911692909183917f8be0079c531659141344cd1fd0a4f28419497f9722a3daafe3b4186f6b6457e091a35050565b61175561115e565b6000805460ff191660011790557f62e78cea01bee320cd4e420270b5ea74000d11b0c9f74754ebdbfc544b05a2586116d73390565b6001546040516323b872dd60e01b8152336004820152306024820152604481018490526001600160a01b03909116906323b872dd906064016020604051808303816000875af11580156117e1573d6000803e3d6000fd5b505050506040513d601f19601f820116820180604052508101906118059190611c65565b5081600660008282546118189190611c52565b9250508190555080600760008282546118319190611c52565b90915550506040805160608101825283815260208082018481524283850190815233600090815260028085529581208054600181810183559183529490912085516003909502019384559151918301919091555192019190915560065460085460075461189e9190611c3b565b6118a89190611c06565b600455600654600a556118b9611a58565b6040805184815234602082015233917f5caad8f5613b6f1d592fc8c69d8f0999453740f0806c754f20cc92f3d4b2b1b69101610892565b3360009081526002602052604090205481106119445760405162461bcd60e51b8152602060048201526013602482015272496e646578206f7574206f6620626f756e647360681b6044820152606401610370565b805b3360009081526002602052604090205461196290600190611c28565b811015611a1157336000908152600260205260409020611983826001611c52565b8154811061199357611993611ca0565b906000526020600020906003020160026000336001600160a01b03166001600160a01b0316815260200190815260200160002082815481106119d7576119d7611ca0565b6000918252602090912082546003909202019081556001808301549082015560029182015491015580611a0981611cb6565b915050611946565b50336000908152600260205260409020805480611a3057611a30611ccf565b6000828152602081206003600019909301928302018181556001810182905560020155905550565b600754600654611a689190611c3b565b600555565b60005460ff166106625760405162461bcd60e51b815260206004820152601460248201527314185d5cd8589b194e881b9bdd081c185d5cd95960621b6044820152606401610370565b600060208284031215611ac857600080fd5b5035919050565b80356001600160a01b038116811461043957600080fd5b600080600060608486031215611afb57600080fd5b83359250611b0b60208501611acf565b9150604084013590509250925092565b60008060408385031215611b2e57600080fd5b82359150611b3e60208401611acf565b90509250929050565b602080825282518282018190526000919060409081850190868401855b82811015611b935781518051855286810151878601528501518585015260609093019290850190600101611b64565b5091979650505050505050565b600060208284031215611bb257600080fd5b611bbb82611acf565b9392505050565b6020808252601490820152734e6f7420656e6f756768206c697175696469747960601b604082015260600190565b634e487b7160e01b600052601160045260246000fd5b600082611c2357634e487b7160e01b600052601260045260246000fd5b500490565b81810381811115610b5f57610b5f611bf0565b8082028115828204841417610b5f57610b5f611bf0565b80820180821115610b5f57610b5f611bf0565b600060208284031215611c7757600080fd5b81518015158114611bbb57600080fd5b600060208284031215611c9957600080fd5b5051919050565b634e487b7160e01b600052603260045260246000fd5b600060018201611cc857611cc8611bf0565b5060010190565b634e487b7160e01b600052603160045260246000fdfea2646970667358221220abbf938c022282536450e21b1be418d2d177af34fa7cd6f48be8c65aa3ab08c564736f6c63430008130033",
					"opcodes": "PUSH1 0x80 PUSH1 0x40 MSTORE PUSH8 0x8AC7230489E80000 PUSH1 0x8 SSTORE PUSH2 0x3E8 PUSH1 0x8 SLOAD PUSH1 0x3 PUSH3 0x24 SWAP2 SWAP1 PUSH3 0x11D JUMP JUMPDEST PUSH3 0x30 SWAP2 SWAP1 PUSH3 0x149 JUMP JUMPDEST PUSH1 0x9 SSTORE PUSH1 0x6 SLOAD PUSH1 0xA SSTORE CALLVALUE DUP1 ISZERO PUSH3 0x46 JUMPI PUSH1 0x0 DUP1 REVERT JUMPDEST POP PUSH1 0x40 MLOAD PUSH3 0x1ED3 CODESIZE SUB DUP1 PUSH3 0x1ED3 DUP4 CODECOPY DUP2 ADD PUSH1 0x40 DUP2 SWAP1 MSTORE PUSH3 0x69 SWAP2 PUSH3 0x16C JUMP JUMPDEST PUSH1 0x0 DUP1 SLOAD PUSH1 0xFF NOT AND SWAP1 SSTORE PUSH3 0x7E CALLER PUSH3 0xC4 JUMP JUMPDEST PUSH1 0x1 DUP1 SLOAD PUSH1 0x1 PUSH1 0x1 PUSH1 0xA0 SHL SUB NOT AND PUSH1 0x1 PUSH1 0x1 PUSH1 0xA0 SHL SUB DUP5 AND OR SWAP1 SSTORE PUSH1 0x8 SLOAD PUSH2 0x3E8 SWAP1 PUSH3 0xAC SWAP1 DUP4 PUSH3 0x11D JUMP JUMPDEST PUSH3 0xB8 SWAP2 SWAP1 PUSH3 0x149 JUMP JUMPDEST PUSH1 0x9 SSTORE POP PUSH3 0x1A8 SWAP1 POP JUMP JUMPDEST PUSH1 0x0 DUP1 SLOAD PUSH1 0x1 PUSH1 0x1 PUSH1 0xA0 SHL SUB DUP4 DUP2 AND PUSH2 0x100 DUP2 DUP2 MUL PUSH2 0x100 PUSH1 0x1 PUSH1 0xA8 SHL SUB NOT DUP6 AND OR DUP6 SSTORE PUSH1 0x40 MLOAD SWAP4 DIV SWAP2 SWAP1 SWAP2 AND SWAP3 SWAP1 SWAP2 DUP4 SWAP2 PUSH32 0x8BE0079C531659141344CD1FD0A4F28419497F9722A3DAAFE3B4186F6B6457E0 SWAP2 LOG3 POP POP JUMP JUMPDEST DUP1 DUP3 MUL DUP2 ISZERO DUP3 DUP3 DIV DUP5 EQ OR PUSH3 0x143 JUMPI PUSH4 0x4E487B71 PUSH1 0xE0 SHL PUSH1 0x0 MSTORE PUSH1 0x11 PUSH1 0x4 MSTORE PUSH1 0x24 PUSH1 0x0 REVERT JUMPDEST SWAP3 SWAP2 POP POP JUMP JUMPDEST PUSH1 0x0 DUP3 PUSH3 0x167 JUMPI PUSH4 0x4E487B71 PUSH1 0xE0 SHL PUSH1 0x0 MSTORE PUSH1 0x12 PUSH1 0x4 MSTORE PUSH1 0x24 PUSH1 0x0 REVERT JUMPDEST POP DIV SWAP1 JUMP JUMPDEST PUSH1 0x0 DUP1 PUSH1 0x40 DUP4 DUP6 SUB SLT ISZERO PUSH3 0x180 JUMPI PUSH1 0x0 DUP1 REVERT JUMPDEST DUP3 MLOAD PUSH1 0x1 PUSH1 0x1 PUSH1 0xA0 SHL SUB DUP2 AND DUP2 EQ PUSH3 0x198 JUMPI PUSH1 0x0 DUP1 REVERT JUMPDEST PUSH1 0x20 SWAP4 SWAP1 SWAP4 ADD MLOAD SWAP3 SWAP5 SWAP3 SWAP4 POP POP POP JUMP JUMPDEST PUSH2 0x1D1B DUP1 PUSH3 0x1B8 PUSH1 0x0 CODECOPY PUSH1 0x0 RETURN INVALID PUSH1 0x80 PUSH1 0x40 MSTORE PUSH1 0x4 CALLDATASIZE LT PUSH2 0x10D JUMPI PUSH1 0x0 CALLDATALOAD PUSH1 0xE0 SHR DUP1 PUSH4 0x8456CB59 GT PUSH2 0x95 JUMPI DUP1 PUSH4 0xD96A094A GT PUSH2 0x64 JUMPI DUP1 PUSH4 0xD96A094A EQ PUSH2 0x2BC JUMPI DUP1 PUSH4 0xDC9031C4 EQ PUSH2 0x2CF JUMPI DUP1 PUSH4 0xE4849B32 EQ PUSH2 0x2E2 JUMPI DUP1 PUSH4 0xE8BCA8B8 EQ PUSH2 0x302 JUMPI DUP1 PUSH4 0xF2FDE38B EQ PUSH2 0x324 JUMPI PUSH1 0x0 DUP1 REVERT JUMPDEST DUP1 PUSH4 0x8456CB59 EQ PUSH2 0x23B JUMPI DUP1 PUSH4 0x8DA5CB5B EQ PUSH2 0x250 JUMPI DUP1 PUSH4 0x9C74F05D EQ PUSH2 0x286 JUMPI DUP1 PUSH4 0xD37A389B EQ PUSH2 0x29C JUMPI PUSH1 0x0 DUP1 REVERT JUMPDEST DUP1 PUSH4 0x3F4BA83A GT PUSH2 0xDC JUMPI DUP1 PUSH4 0x3F4BA83A EQ PUSH2 0x1AE JUMPI DUP1 PUSH4 0x4189A68E EQ PUSH2 0x1C3 JUMPI DUP1 PUSH4 0x5C572ED0 EQ PUSH2 0x1E3 JUMPI DUP1 PUSH4 0x5C975ABB EQ PUSH2 0x203 JUMPI DUP1 PUSH4 0x715018A6 EQ PUSH2 0x226 JUMPI PUSH1 0x0 DUP1 REVERT JUMPDEST DUP1 PUSH4 0x1A753FED EQ PUSH2 0x119 JUMPI DUP1 PUSH4 0x200061DF EQ PUSH2 0x14C JUMPI DUP1 PUSH4 0x2AD9D559 EQ PUSH2 0x16E JUMPI DUP1 PUSH4 0x2AFACA20 EQ PUSH2 0x19B JUMPI PUSH1 0x0 DUP1 REVERT JUMPDEST CALLDATASIZE PUSH2 0x114 JUMPI STOP JUMPDEST PUSH1 0x0 DUP1 REVERT JUMPDEST CALLVALUE DUP1 ISZERO PUSH2 0x125 JUMPI PUSH1 0x0 DUP1 REVERT JUMPDEST POP PUSH2 0x139 PUSH2 0x134 CALLDATASIZE PUSH1 0x4 PUSH2 0x1AB6 JUMP JUMPDEST PUSH2 0x344 JUMP JUMPDEST PUSH1 0x40 MLOAD SWAP1 DUP2 MSTORE PUSH1 0x20 ADD JUMPDEST PUSH1 0x40 MLOAD DUP1 SWAP2 SUB SWAP1 RETURN JUMPDEST CALLVALUE DUP1 ISZERO PUSH2 0x158 JUMPI PUSH1 0x0 DUP1 REVERT JUMPDEST POP PUSH2 0x16C PUSH2 0x167 CALLDATASIZE PUSH1 0x4 PUSH2 0x1AB6 JUMP JUMPDEST PUSH2 0x43E JUMP JUMPDEST STOP JUMPDEST CALLVALUE DUP1 ISZERO PUSH2 0x17A JUMPI PUSH1 0x0 DUP1 REVERT JUMPDEST POP PUSH2 0x139 PUSH2 0x189 CALLDATASIZE PUSH1 0x4 PUSH2 0x1AB6 JUMP JUMPDEST PUSH1 0x3 PUSH1 0x20 MSTORE PUSH1 0x0 SWAP1 DUP2 MSTORE PUSH1 0x40 SWAP1 KECCAK256 SLOAD DUP2 JUMP JUMPDEST PUSH2 0x16C PUSH2 0x1A9 CALLDATASIZE PUSH1 0x4 PUSH2 0x1AE6 JUMP JUMPDEST PUSH2 0x452 JUMP JUMPDEST CALLVALUE DUP1 ISZERO PUSH2 0x1BA JUMPI PUSH1 0x0 DUP1 REVERT JUMPDEST POP PUSH2 0x16C PUSH2 0x652 JUMP JUMPDEST CALLVALUE DUP1 ISZERO PUSH2 0x1CF JUMPI PUSH1 0x0 DUP1 REVERT JUMPDEST POP PUSH2 0x16C PUSH2 0x1DE CALLDATASIZE PUSH1 0x4 PUSH2 0x1B1B JUMP JUMPDEST PUSH2 0x664 JUMP JUMPDEST CALLVALUE DUP1 ISZERO PUSH2 0x1EF JUMPI PUSH1 0x0 DUP1 REVERT JUMPDEST POP PUSH2 0x139 PUSH2 0x1FE CALLDATASIZE PUSH1 0x4 PUSH2 0x1AB6 JUMP JUMPDEST PUSH2 0x89F JUMP JUMPDEST CALLVALUE DUP1 ISZERO PUSH2 0x20F JUMPI PUSH1 0x0 DUP1 REVERT JUMPDEST POP PUSH1 0x0 SLOAD PUSH1 0xFF AND PUSH1 0x40 MLOAD SWAP1 ISZERO ISZERO DUP2 MSTORE PUSH1 0x20 ADD PUSH2 0x143 JUMP JUMPDEST CALLVALUE DUP1 ISZERO PUSH2 0x232 JUMPI PUSH1 0x0 DUP1 REVERT JUMPDEST POP PUSH2 0x16C PUSH2 0x990 JUMP JUMPDEST CALLVALUE DUP1 ISZERO PUSH2 0x247 JUMPI PUSH1 0x0 DUP1 REVERT JUMPDEST POP PUSH2 0x16C PUSH2 0x9A2 JUMP JUMPDEST CALLVALUE DUP1 ISZERO PUSH2 0x25C JUMPI PUSH1 0x0 DUP1 REVERT JUMPDEST POP PUSH1 0x0 SLOAD PUSH2 0x100 SWAP1 DIV PUSH1 0x1 PUSH1 0x1 PUSH1 0xA0 SHL SUB AND PUSH1 0x40 MLOAD PUSH1 0x1 PUSH1 0x1 PUSH1 0xA0 SHL SUB SWAP1 SWAP2 AND DUP2 MSTORE PUSH1 0x20 ADD PUSH2 0x143 JUMP JUMPDEST CALLVALUE DUP1 ISZERO PUSH2 0x292 JUMPI PUSH1 0x0 DUP1 REVERT JUMPDEST POP PUSH2 0x139 PUSH1 0x4 SLOAD DUP2 JUMP JUMPDEST CALLVALUE DUP1 ISZERO PUSH2 0x2A8 JUMPI PUSH1 0x0 DUP1 REVERT JUMPDEST POP PUSH2 0x139 PUSH2 0x2B7 CALLDATASIZE PUSH1 0x4 PUSH2 0x1AB6 JUMP JUMPDEST PUSH2 0x9B2 JUMP JUMPDEST PUSH2 0x16C PUSH2 0x2CA CALLDATASIZE PUSH1 0x4 PUSH2 0x1AB6 JUMP JUMPDEST PUSH2 0xB65 JUMP JUMPDEST PUSH2 0x16C PUSH2 0x2DD CALLDATASIZE PUSH1 0x4 PUSH2 0x1AB6 JUMP JUMPDEST PUSH2 0xD50 JUMP JUMPDEST CALLVALUE DUP1 ISZERO PUSH2 0x2EE JUMPI PUSH1 0x0 DUP1 REVERT JUMPDEST POP PUSH2 0x16C PUSH2 0x2FD CALLDATASIZE PUSH1 0x4 PUSH2 0x1AB6 JUMP JUMPDEST PUSH2 0xE45 JUMP JUMPDEST CALLVALUE DUP1 ISZERO PUSH2 0x30E JUMPI PUSH1 0x0 DUP1 REVERT JUMPDEST POP PUSH2 0x317 PUSH2 0x1060 JUMP JUMPDEST PUSH1 0x40 MLOAD PUSH2 0x143 SWAP2 SWAP1 PUSH2 0x1B47 JUMP JUMPDEST CALLVALUE DUP1 ISZERO PUSH2 0x330 JUMPI PUSH1 0x0 DUP1 REVERT JUMPDEST POP PUSH2 0x16C PUSH2 0x33F CALLDATASIZE PUSH1 0x4 PUSH2 0x1BA0 JUMP JUMPDEST PUSH2 0x10E8 JUMP JUMPDEST PUSH1 0x0 PUSH2 0x34E PUSH2 0x115E JUMP JUMPDEST PUSH1 0x0 PUSH1 0x5 SLOAD GT PUSH2 0x379 JUMPI PUSH1 0x40 MLOAD PUSH3 0x461BCD PUSH1 0xE5 SHL DUP2 MSTORE PUSH1 0x4 ADD PUSH2 0x370 SWAP1 PUSH2 0x1BC2 JUMP JUMPDEST PUSH1 0x40 MLOAD DUP1 SWAP2 SUB SWAP1 REVERT JUMPDEST PUSH1 0x0 DUP1 PUSH1 0x6 SLOAD PUSH1 0x0 SUB PUSH2 0x3A7 JUMPI DUP4 PUSH1 0x1 PUSH1 0x5 SLOAD PUSH2 0x396 SWAP2 SWAP1 PUSH2 0x1C06 JUMP JUMPDEST PUSH2 0x3A0 SWAP2 SWAP1 PUSH2 0x1C28 JUMP JUMPDEST SWAP1 POP PUSH2 0x3C5 JUMP JUMPDEST DUP4 PUSH1 0x6 SLOAD PUSH1 0x5 SLOAD PUSH2 0x3B8 SWAP2 SWAP1 PUSH2 0x1C06 JUMP JUMPDEST PUSH2 0x3C2 SWAP2 SWAP1 PUSH2 0x1C28 JUMP JUMPDEST SWAP1 POP JUMPDEST DUP1 PUSH1 0x0 SUB PUSH2 0x3E3 JUMPI PUSH1 0x1 PUSH1 0x5 SLOAD PUSH2 0x3DC SWAP2 SWAP1 PUSH2 0x1C06 JUMP JUMPDEST SWAP2 POP PUSH2 0x3F4 JUMP JUMPDEST DUP1 PUSH1 0x5 SLOAD PUSH2 0x3F1 SWAP2 SWAP1 PUSH2 0x1C06 JUMP JUMPDEST SWAP2 POP JUMPDEST PUSH1 0x0 PUSH1 0x6 SLOAD DUP4 PUSH2 0x404 SWAP2 SWAP1 PUSH2 0x1C28 JUMP JUMPDEST SWAP1 POP PUSH1 0x0 PUSH1 0x8 SLOAD PUSH1 0x9 SLOAD DUP4 PUSH2 0x419 SWAP2 SWAP1 PUSH2 0x1C3B JUMP JUMPDEST PUSH2 0x423 SWAP2 SWAP1 PUSH2 0x1C06 JUMP JUMPDEST SWAP1 POP DUP2 PUSH2 0x431 DUP2 PUSH1 0x1 PUSH2 0x1C52 JUMP JUMPDEST SWAP6 POP POP POP POP POP POP JUMPDEST SWAP2 SWAP1 POP JUMP JUMPDEST PUSH2 0x446 PUSH2 0x115E JUMP JUMPDEST PUSH2 0x44F DUP2 PUSH2 0x11A4 JUMP JUMPDEST POP JUMP JUMPDEST PUSH2 0x45A PUSH2 0x115E JUMP JUMPDEST PUSH1 0x0 DUP4 GT PUSH2 0x49B JUMPI PUSH1 0x40 MLOAD PUSH3 0x461BCD PUSH1 0xE5 SHL DUP2 MSTORE PUSH1 0x20 PUSH1 0x4 DUP3 ADD MSTORE PUSH1 0xE PUSH1 0x24 DUP3 ADD MSTORE PUSH14 0x53656E6420536F6D65204D656D65 PUSH1 0x90 SHL PUSH1 0x44 DUP3 ADD MSTORE PUSH1 0x64 ADD PUSH2 0x370 JUMP JUMPDEST PUSH1 0x0 PUSH2 0x4A6 DUP5 PUSH2 0x89F JUMP JUMPDEST SWAP1 POP DUP2 DUP2 GT ISZERO PUSH2 0x4E8 JUMPI PUSH1 0x40 MLOAD PUSH3 0x461BCD PUSH1 0xE5 SHL DUP2 MSTORE PUSH1 0x20 PUSH1 0x4 DUP3 ADD MSTORE PUSH1 0xD PUSH1 0x24 DUP3 ADD MSTORE PUSH13 0xA6CADCC8409ADEE4CA408AA89 PUSH1 0x9B SHL PUSH1 0x44 DUP3 ADD MSTORE PUSH1 0x64 ADD PUSH2 0x370 JUMP JUMPDEST PUSH1 0x1 SLOAD PUSH1 0x40 MLOAD PUSH4 0xA9059CBB PUSH1 0xE0 SHL DUP2 MSTORE PUSH1 0x1 PUSH1 0x1 PUSH1 0xA0 SHL SUB DUP6 DUP2 AND PUSH1 0x4 DUP4 ADD MSTORE PUSH1 0x24 DUP3 ADD DUP8 SWAP1 MSTORE SWAP1 SWAP2 AND SWAP1 PUSH4 0xA9059CBB SWAP1 PUSH1 0x44 ADD PUSH1 0x20 PUSH1 0x40 MLOAD DUP1 DUP4 SUB DUP2 PUSH1 0x0 DUP8 GAS CALL ISZERO DUP1 ISZERO PUSH2 0x53B JUMPI RETURNDATASIZE PUSH1 0x0 DUP1 RETURNDATACOPY RETURNDATASIZE PUSH1 0x0 REVERT JUMPDEST POP POP POP POP PUSH1 0x40 MLOAD RETURNDATASIZE PUSH1 0x1F NOT PUSH1 0x1F DUP3 ADD AND DUP3 ADD DUP1 PUSH1 0x40 MSTORE POP DUP2 ADD SWAP1 PUSH2 0x55F SWAP2 SWAP1 PUSH2 0x1C65 JUMP JUMPDEST POP PUSH1 0x1 PUSH1 0x1 PUSH1 0xA0 SHL SUB DUP4 AND PUSH2 0x8FC PUSH2 0x577 DUP4 DUP6 PUSH2 0x1C28 JUMP JUMPDEST PUSH1 0x40 MLOAD DUP2 ISZERO SWAP1 SWAP3 MUL SWAP2 PUSH1 0x0 DUP2 DUP2 DUP2 DUP6 DUP9 DUP9 CALL SWAP4 POP POP POP POP ISZERO DUP1 ISZERO PUSH2 0x59F JUMPI RETURNDATASIZE PUSH1 0x0 DUP1 RETURNDATACOPY RETURNDATASIZE PUSH1 0x0 REVERT JUMPDEST POP PUSH2 0x5A9 DUP5 PUSH2 0x156B JUMP JUMPDEST PUSH1 0x3 PUSH1 0x0 PUSH2 0x5BA PUSH3 0x15180 TIMESTAMP PUSH2 0x1C06 JUMP JUMPDEST DUP2 MSTORE PUSH1 0x20 ADD SWAP1 DUP2 MSTORE PUSH1 0x20 ADD PUSH1 0x0 KECCAK256 PUSH1 0x0 DUP3 DUP3 SLOAD PUSH2 0x5D7 SWAP2 SWAP1 PUSH2 0x1C52 JUMP JUMPDEST SWAP3 POP POP DUP2 SWAP1 SSTORE POP DUP4 PUSH1 0x6 PUSH1 0x0 DUP3 DUP3 SLOAD PUSH2 0x5F0 SWAP2 SWAP1 PUSH2 0x1C28 JUMP JUMPDEST SWAP1 SWAP2 SSTORE POP POP PUSH1 0x6 SLOAD PUSH1 0x5 SLOAD PUSH2 0x605 SWAP2 SWAP1 PUSH2 0x1C06 JUMP JUMPDEST PUSH1 0x7 SSTORE PUSH1 0x40 DUP1 MLOAD DUP6 DUP2 MSTORE PUSH1 0x20 DUP2 ADD DUP4 SWAP1 MSTORE PUSH1 0x1 PUSH1 0x1 PUSH1 0xA0 SHL SUB DUP6 AND SWAP2 PUSH32 0x1CBC5AB135991BD2B6A4B034A04AA2AA086DAC1371CB9B16B8B5E2ED6B036BED SWAP2 ADD PUSH1 0x40 MLOAD DUP1 SWAP2 SUB SWAP1 LOG2 POP POP POP POP JUMP JUMPDEST PUSH2 0x65A PUSH2 0x1642 JUMP JUMPDEST PUSH2 0x662 PUSH2 0x16A2 JUMP JUMPDEST JUMP JUMPDEST PUSH2 0x66C PUSH2 0x115E JUMP JUMPDEST PUSH1 0x0 DUP3 GT PUSH2 0x6AC JUMPI PUSH1 0x40 MLOAD PUSH3 0x461BCD PUSH1 0xE5 SHL DUP2 MSTORE PUSH1 0x20 PUSH1 0x4 DUP3 ADD MSTORE PUSH1 0xD PUSH1 0x24 DUP3 ADD MSTORE PUSH13 0xA6CADCC840A6DEDACA408AA89 PUSH1 0x9B SHL PUSH1 0x44 DUP3 ADD MSTORE PUSH1 0x64 ADD PUSH2 0x370 JUMP JUMPDEST PUSH1 0x0 PUSH2 0x6B7 DUP4 PUSH2 0x344 JUMP JUMPDEST PUSH1 0x1 SLOAD PUSH1 0x40 MLOAD PUSH4 0x70A08231 PUSH1 0xE0 SHL DUP2 MSTORE PUSH1 0x1 PUSH1 0x1 PUSH1 0xA0 SHL SUB DUP6 DUP2 AND PUSH1 0x4 DUP4 ADD MSTORE SWAP3 SWAP4 POP SWAP2 AND SWAP1 PUSH4 0x70A08231 SWAP1 PUSH1 0x24 ADD PUSH1 0x20 PUSH1 0x40 MLOAD DUP1 DUP4 SUB DUP2 DUP7 GAS STATICCALL ISZERO DUP1 ISZERO PUSH2 0x703 JUMPI RETURNDATASIZE PUSH1 0x0 DUP1 RETURNDATACOPY RETURNDATASIZE PUSH1 0x0 REVERT JUMPDEST POP POP POP POP PUSH1 0x40 MLOAD RETURNDATASIZE PUSH1 0x1F NOT PUSH1 0x1F DUP3 ADD AND DUP3 ADD DUP1 PUSH1 0x40 MSTORE POP DUP2 ADD SWAP1 PUSH2 0x727 SWAP2 SWAP1 PUSH2 0x1C87 JUMP JUMPDEST DUP2 GT ISZERO PUSH2 0x776 JUMPI PUSH1 0x40 MLOAD PUSH3 0x461BCD PUSH1 0xE5 SHL DUP2 MSTORE PUSH1 0x20 PUSH1 0x4 DUP3 ADD MSTORE PUSH1 0x1A PUSH1 0x24 DUP3 ADD MSTORE PUSH32 0x596F7520646F6E2774206861766520656E6F756768206D656D65000000000000 PUSH1 0x44 DUP3 ADD MSTORE PUSH1 0x64 ADD PUSH2 0x370 JUMP JUMPDEST PUSH1 0x1 SLOAD PUSH1 0x40 MLOAD PUSH4 0x23B872DD PUSH1 0xE0 SHL DUP2 MSTORE PUSH1 0x1 PUSH1 0x1 PUSH1 0xA0 SHL SUB DUP5 DUP2 AND PUSH1 0x4 DUP4 ADD MSTORE ADDRESS PUSH1 0x24 DUP4 ADD MSTORE PUSH1 0x44 DUP3 ADD DUP5 SWAP1 MSTORE SWAP1 SWAP2 AND SWAP1 PUSH4 0x23B872DD SWAP1 PUSH1 0x64 ADD PUSH1 0x20 PUSH1 0x40 MLOAD DUP1 DUP4 SUB DUP2 PUSH1 0x0 DUP8 GAS CALL ISZERO DUP1 ISZERO PUSH2 0x7CF JUMPI RETURNDATASIZE PUSH1 0x0 DUP1 RETURNDATACOPY RETURNDATASIZE PUSH1 0x0 REVERT JUMPDEST POP POP POP POP PUSH1 0x40 MLOAD RETURNDATASIZE PUSH1 0x1F NOT PUSH1 0x1F DUP3 ADD AND DUP3 ADD DUP1 PUSH1 0x40 MSTORE POP DUP2 ADD SWAP1 PUSH2 0x7F3 SWAP2 SWAP1 PUSH2 0x1C65 JUMP JUMPDEST POP PUSH1 0x40 MLOAD PUSH1 0x1 PUSH1 0x1 PUSH1 0xA0 SHL SUB DUP4 AND SWAP1 DUP5 ISZERO PUSH2 0x8FC MUL SWAP1 DUP6 SWAP1 PUSH1 0x0 DUP2 DUP2 DUP2 DUP6 DUP9 DUP9 CALL SWAP4 POP POP POP POP ISZERO DUP1 ISZERO PUSH2 0x82A JUMPI RETURNDATASIZE PUSH1 0x0 DUP1 RETURNDATACOPY RETURNDATASIZE PUSH1 0x0 REVERT JUMPDEST POP DUP3 PUSH1 0x7 PUSH1 0x0 DUP3 DUP3 SLOAD PUSH2 0x83D SWAP2 SWAP1 PUSH2 0x1C28 JUMP JUMPDEST SWAP1 SWAP2 SSTORE POP POP PUSH1 0x7 SLOAD PUSH1 0x5 SLOAD PUSH2 0x852 SWAP2 SWAP1 PUSH2 0x1C06 JUMP JUMPDEST PUSH1 0x6 SSTORE PUSH1 0x40 DUP1 MLOAD DUP3 DUP2 MSTORE PUSH1 0x20 DUP2 ADD DUP6 SWAP1 MSTORE PUSH1 0x1 PUSH1 0x1 PUSH1 0xA0 SHL SUB DUP5 AND SWAP2 PUSH32 0xED7A144FAD14804D5C249145E3E0E2B63A9EB455B76AEE5BC92D711E9BBA3E4A SWAP2 ADD JUMPDEST PUSH1 0x40 MLOAD DUP1 SWAP2 SUB SWAP1 LOG2 POP POP POP JUMP JUMPDEST PUSH1 0x0 PUSH2 0x8A9 PUSH2 0x115E JUMP JUMPDEST PUSH1 0x0 PUSH1 0x5 SLOAD GT PUSH2 0x8CB JUMPI PUSH1 0x40 MLOAD PUSH3 0x461BCD PUSH1 0xE5 SHL DUP2 MSTORE PUSH1 0x4 ADD PUSH2 0x370 SWAP1 PUSH2 0x1BC2 JUMP JUMPDEST PUSH1 0x0 DUP1 PUSH1 0x7 SLOAD PUSH1 0x0 SUB PUSH2 0x8F9 JUMPI DUP4 PUSH1 0x1 PUSH1 0x5 SLOAD PUSH2 0x8E8 SWAP2 SWAP1 PUSH2 0x1C06 JUMP JUMPDEST PUSH2 0x8F2 SWAP2 SWAP1 PUSH2 0x1C28 JUMP JUMPDEST SWAP2 POP PUSH2 0x917 JUMP JUMPDEST DUP4 PUSH1 0x7 SLOAD PUSH1 0x5 SLOAD PUSH2 0x90A SWAP2 SWAP1 PUSH2 0x1C06 JUMP JUMPDEST PUSH2 0x914 SWAP2 SWAP1 PUSH2 0x1C28 JUMP JUMPDEST SWAP2 POP JUMPDEST DUP2 PUSH1 0x0 SUB PUSH2 0x935 JUMPI PUSH1 0x1 PUSH1 0x5 SLOAD PUSH2 0x92E SWAP2 SWAP1 PUSH2 0x1C06 JUMP JUMPDEST SWAP1 POP PUSH2 0x946 JUMP JUMPDEST DUP2 PUSH1 0x5 SLOAD PUSH2 0x943 SWAP2 SWAP1 PUSH2 0x1C06 JUMP JUMPDEST SWAP1 POP JUMPDEST PUSH1 0x0 PUSH1 0x7 SLOAD DUP3 PUSH2 0x956 SWAP2 SWAP1 PUSH2 0x1C28 JUMP JUMPDEST SWAP1 POP PUSH1 0x0 PUSH1 0x8 SLOAD PUSH1 0x9 SLOAD DUP4 PUSH2 0x96B SWAP2 SWAP1 PUSH2 0x1C3B JUMP JUMPDEST PUSH2 0x975 SWAP2 SWAP1 PUSH2 0x1C06 JUMP JUMPDEST SWAP1 POP PUSH1 0x0 PUSH2 0x983 DUP3 DUP5 PUSH2 0x1C52 JUMP JUMPDEST SWAP1 POP PUSH2 0x431 DUP2 PUSH1 0x1 PUSH2 0x1C52 JUMP JUMPDEST PUSH2 0x998 PUSH2 0x1642 JUMP JUMPDEST PUSH2 0x662 PUSH1 0x0 PUSH2 0x16F4 JUMP JUMPDEST PUSH2 0x9AA PUSH2 0x1642 JUMP JUMPDEST PUSH2 0x662 PUSH2 0x174D JUMP JUMPDEST PUSH1 0x0 DUP1 DUP1 PUSH1 0x3 DUP2 PUSH2 0x9C6 PUSH3 0x15180 TIMESTAMP PUSH2 0x1C06 JUMP JUMPDEST DUP2 MSTORE PUSH1 0x20 ADD SWAP1 DUP2 MSTORE PUSH1 0x20 ADD PUSH1 0x0 KECCAK256 SLOAD GT ISZERO PUSH2 0xB5F JUMPI CALLER PUSH1 0x0 SWAP1 DUP2 MSTORE PUSH1 0x2 PUSH1 0x20 SWAP1 DUP2 MSTORE PUSH1 0x40 DUP1 DUP4 KECCAK256 DUP1 SLOAD DUP3 MLOAD DUP2 DUP6 MUL DUP2 ADD DUP6 ADD SWAP1 SWAP4 MSTORE DUP1 DUP4 MSTORE SWAP2 SWAP3 SWAP1 SWAP2 SWAP1 DUP5 SWAP1 DUP5 ADD JUMPDEST DUP3 DUP3 LT ISZERO PUSH2 0xA58 JUMPI DUP4 DUP3 SWAP1 PUSH1 0x0 MSTORE PUSH1 0x20 PUSH1 0x0 KECCAK256 SWAP1 PUSH1 0x3 MUL ADD PUSH1 0x40 MLOAD DUP1 PUSH1 0x60 ADD PUSH1 0x40 MSTORE SWAP1 DUP2 PUSH1 0x0 DUP3 ADD SLOAD DUP2 MSTORE PUSH1 0x20 ADD PUSH1 0x1 DUP3 ADD SLOAD DUP2 MSTORE PUSH1 0x20 ADD PUSH1 0x2 DUP3 ADD SLOAD DUP2 MSTORE POP POP DUP2 MSTORE PUSH1 0x20 ADD SWAP1 PUSH1 0x1 ADD SWAP1 PUSH2 0xA08 JUMP JUMPDEST POP POP POP POP SWAP1 POP DUP1 MLOAD DUP5 LT PUSH2 0xAA3 JUMPI PUSH1 0x40 MLOAD PUSH3 0x461BCD PUSH1 0xE5 SHL DUP2 MSTORE PUSH1 0x20 PUSH1 0x4 DUP3 ADD MSTORE PUSH1 0x12 PUSH1 0x24 DUP3 ADD MSTORE PUSH18 0x92DCECC2D8D2C840E0DEDED840D2DCC8CAF PUSH1 0x73 SHL PUSH1 0x44 DUP3 ADD MSTORE PUSH1 0x64 ADD PUSH2 0x370 JUMP JUMPDEST PUSH1 0x0 DUP2 DUP6 DUP2 MLOAD DUP2 LT PUSH2 0xAB7 JUMPI PUSH2 0xAB7 PUSH2 0x1CA0 JUMP JUMPDEST PUSH1 0x20 MUL PUSH1 0x20 ADD ADD MLOAD SWAP1 POP PUSH1 0x0 PUSH1 0xA SLOAD PUSH1 0x8 SLOAD DUP4 PUSH1 0x0 ADD MLOAD PUSH2 0xAD8 SWAP2 SWAP1 PUSH2 0x1C3B JUMP JUMPDEST PUSH2 0xAE2 SWAP2 SWAP1 PUSH2 0x1C06 JUMP JUMPDEST PUSH1 0x40 DUP4 ADD MLOAD SWAP1 SWAP2 POP PUSH1 0x0 PUSH2 0xAF9 PUSH3 0x15180 TIMESTAMP PUSH2 0x1C06 JUMP JUMPDEST SWAP1 POP PUSH1 0x0 PUSH2 0xB0A PUSH3 0x15180 DUP5 PUSH2 0x1C06 JUMP JUMPDEST SWAP1 POP JUMPDEST DUP2 DUP2 GT PUSH2 0xB58 JUMPI PUSH1 0x8 SLOAD PUSH1 0x0 DUP3 DUP2 MSTORE PUSH1 0x3 PUSH1 0x20 MSTORE PUSH1 0x40 SWAP1 KECCAK256 SLOAD PUSH2 0xB30 SWAP1 DUP7 PUSH2 0x1C3B JUMP JUMPDEST PUSH2 0xB3A SWAP2 SWAP1 PUSH2 0x1C06 JUMP JUMPDEST PUSH2 0xB44 SWAP1 DUP9 PUSH2 0x1C52 JUMP JUMPDEST SWAP7 POP DUP1 PUSH2 0xB50 DUP2 PUSH2 0x1CB6 JUMP JUMPDEST SWAP2 POP POP PUSH2 0xB0D JUMP JUMPDEST POP POP POP POP POP POP JUMPDEST SWAP3 SWAP2 POP POP JUMP JUMPDEST PUSH2 0xB6D PUSH2 0x115E JUMP JUMPDEST PUSH1 0x0 DUP2 GT PUSH2 0xBAE JUMPI PUSH1 0x40 MLOAD PUSH3 0x461BCD PUSH1 0xE5 SHL DUP2 MSTORE PUSH1 0x20 PUSH1 0x4 DUP3 ADD MSTORE PUSH1 0xE PUSH1 0x24 DUP3 ADD MSTORE PUSH14 0x53656E6420536F6D65204D656D65 PUSH1 0x90 SHL PUSH1 0x44 DUP3 ADD MSTORE PUSH1 0x64 ADD PUSH2 0x370 JUMP JUMPDEST PUSH1 0x0 PUSH2 0xBB9 DUP3 PUSH2 0x89F JUMP JUMPDEST SWAP1 POP CALLVALUE DUP2 GT ISZERO PUSH2 0xBFB JUMPI PUSH1 0x40 MLOAD PUSH3 0x461BCD PUSH1 0xE5 SHL DUP2 MSTORE PUSH1 0x20 PUSH1 0x4 DUP3 ADD MSTORE PUSH1 0xD PUSH1 0x24 DUP3 ADD MSTORE PUSH13 0xA6CADCC8409ADEE4CA408AA89 PUSH1 0x9B SHL PUSH1 0x44 DUP3 ADD MSTORE PUSH1 0x64 ADD PUSH2 0x370 JUMP JUMPDEST PUSH1 0x1 SLOAD PUSH1 0x40 MLOAD PUSH4 0xA9059CBB PUSH1 0xE0 SHL DUP2 MSTORE CALLER PUSH1 0x4 DUP3 ADD MSTORE PUSH1 0x24 DUP2 ADD DUP5 SWAP1 MSTORE PUSH1 0x1 PUSH1 0x1 PUSH1 0xA0 SHL SUB SWAP1 SWAP2 AND SWAP1 PUSH4 0xA9059CBB SWAP1 PUSH1 0x44 ADD PUSH1 0x20 PUSH1 0x40 MLOAD DUP1 DUP4 SUB DUP2 PUSH1 0x0 DUP8 GAS CALL ISZERO DUP1 ISZERO PUSH2 0xC4C JUMPI RETURNDATASIZE PUSH1 0x0 DUP1 RETURNDATACOPY RETURNDATASIZE PUSH1 0x0 REVERT JUMPDEST POP POP POP POP PUSH1 0x40 MLOAD RETURNDATASIZE PUSH1 0x1F NOT PUSH1 0x1F DUP3 ADD AND DUP3 ADD DUP1 PUSH1 0x40 MSTORE POP DUP2 ADD SWAP1 PUSH2 0xC70 SWAP2 SWAP1 PUSH2 0x1C65 JUMP JUMPDEST POP CALLER PUSH2 0x8FC PUSH2 0xC7F DUP4 CALLVALUE PUSH2 0x1C28 JUMP JUMPDEST PUSH1 0x40 MLOAD DUP2 ISZERO SWAP1 SWAP3 MUL SWAP2 PUSH1 0x0 DUP2 DUP2 DUP2 DUP6 DUP9 DUP9 CALL SWAP4 POP POP POP POP ISZERO DUP1 ISZERO PUSH2 0xCA7 JUMPI RETURNDATASIZE PUSH1 0x0 DUP1 RETURNDATACOPY RETURNDATASIZE PUSH1 0x0 REVERT JUMPDEST POP PUSH2 0xCB1 DUP3 PUSH2 0x156B JUMP JUMPDEST PUSH1 0x3 PUSH1 0x0 PUSH2 0xCC2 PUSH3 0x15180 TIMESTAMP PUSH2 0x1C06 JUMP JUMPDEST DUP2 MSTORE PUSH1 0x20 ADD SWAP1 DUP2 MSTORE PUSH1 0x20 ADD PUSH1 0x0 KECCAK256 PUSH1 0x0 DUP3 DUP3 SLOAD PUSH2 0xCDF SWAP2 SWAP1 PUSH2 0x1C52 JUMP JUMPDEST SWAP3 POP POP DUP2 SWAP1 SSTORE POP DUP2 PUSH1 0x6 PUSH1 0x0 DUP3 DUP3 SLOAD PUSH2 0xCF8 SWAP2 SWAP1 PUSH2 0x1C28 JUMP JUMPDEST SWAP1 SWAP2 SSTORE POP POP PUSH1 0x6 SLOAD PUSH1 0x5 SLOAD PUSH2 0xD0D SWAP2 SWAP1 PUSH2 0x1C06 JUMP JUMPDEST PUSH1 0x7 SSTORE PUSH1 0x40 DUP1 MLOAD DUP4 DUP2 MSTORE PUSH1 0x20 DUP2 ADD DUP4 SWAP1 MSTORE CALLER SWAP2 PUSH32 0x1CBC5AB135991BD2B6A4B034A04AA2AA086DAC1371CB9B16B8B5E2ED6B036BED SWAP2 ADD JUMPDEST PUSH1 0x40 MLOAD DUP1 SWAP2 SUB SWAP1 LOG2 POP POP JUMP JUMPDEST PUSH2 0xD58 PUSH2 0x115E JUMP JUMPDEST PUSH1 0x0 DUP2 GT PUSH2 0xD99 JUMPI PUSH1 0x40 MLOAD PUSH3 0x461BCD PUSH1 0xE5 SHL DUP2 MSTORE PUSH1 0x20 PUSH1 0x4 DUP3 ADD MSTORE PUSH1 0xE PUSH1 0x24 DUP3 ADD MSTORE PUSH14 0x53656E64206D6F7265204D454D45 PUSH1 0x90 SHL PUSH1 0x44 DUP3 ADD MSTORE PUSH1 0x64 ADD PUSH2 0x370 JUMP JUMPDEST PUSH1 0x0 CALLVALUE GT PUSH2 0xDD9 JUMPI PUSH1 0x40 MLOAD PUSH3 0x461BCD PUSH1 0xE5 SHL DUP2 MSTORE PUSH1 0x20 PUSH1 0x4 DUP3 ADD MSTORE PUSH1 0xD PUSH1 0x24 DUP3 ADD MSTORE PUSH13 0xA6CADCC840DADEE4CA408AA89 PUSH1 0x9B SHL PUSH1 0x44 DUP3 ADD MSTORE PUSH1 0x64 ADD PUSH2 0x370 JUMP JUMPDEST DUP1 PUSH1 0x8 SLOAD CALLVALUE PUSH2 0xDE8 SWAP2 SWAP1 PUSH2 0x1C3B JUMP JUMPDEST PUSH2 0xDF2 SWAP2 SWAP1 PUSH2 0x1C06 JUMP JUMPDEST PUSH1 0x4 SLOAD GT ISZERO PUSH2 0xE3B JUMPI PUSH1 0x40 MLOAD PUSH3 0x461BCD PUSH1 0xE5 SHL DUP2 MSTORE PUSH1 0x20 PUSH1 0x4 DUP3 ADD MSTORE PUSH1 0x15 PUSH1 0x24 DUP3 ADD MSTORE PUSH21 0x14DD1858DADA5B99C814985D19481B9BDD081B595D PUSH1 0x5A SHL PUSH1 0x44 DUP3 ADD MSTORE PUSH1 0x64 ADD PUSH2 0x370 JUMP JUMPDEST PUSH2 0x44F DUP2 CALLVALUE PUSH2 0x178A JUMP JUMPDEST PUSH2 0xE4D PUSH2 0x115E JUMP JUMPDEST PUSH1 0x0 DUP2 GT PUSH2 0xE8D JUMPI PUSH1 0x40 MLOAD PUSH3 0x461BCD PUSH1 0xE5 SHL DUP2 MSTORE PUSH1 0x20 PUSH1 0x4 DUP3 ADD MSTORE PUSH1 0xD PUSH1 0x24 DUP3 ADD MSTORE PUSH13 0xA6CADCC840A6DEDACA408AA89 PUSH1 0x9B SHL PUSH1 0x44 DUP3 ADD MSTORE PUSH1 0x64 ADD PUSH2 0x370 JUMP JUMPDEST PUSH1 0x0 PUSH2 0xE98 DUP3 PUSH2 0x344 JUMP JUMPDEST PUSH1 0x1 SLOAD PUSH1 0x40 MLOAD PUSH4 0x70A08231 PUSH1 0xE0 SHL DUP2 MSTORE CALLER PUSH1 0x4 DUP3 ADD MSTORE SWAP2 SWAP3 POP PUSH1 0x1 PUSH1 0x1 PUSH1 0xA0 SHL SUB AND SWAP1 PUSH4 0x70A08231 SWAP1 PUSH1 0x24 ADD PUSH1 0x20 PUSH1 0x40 MLOAD DUP1 DUP4 SUB DUP2 DUP7 GAS STATICCALL ISZERO DUP1 ISZERO PUSH2 0xEE1 JUMPI RETURNDATASIZE PUSH1 0x0 DUP1 RETURNDATACOPY RETURNDATASIZE PUSH1 0x0 REVERT JUMPDEST POP POP POP POP PUSH1 0x40 MLOAD RETURNDATASIZE PUSH1 0x1F NOT PUSH1 0x1F DUP3 ADD AND DUP3 ADD DUP1 PUSH1 0x40 MSTORE POP DUP2 ADD SWAP1 PUSH2 0xF05 SWAP2 SWAP1 PUSH2 0x1C87 JUMP JUMPDEST DUP2 GT ISZERO PUSH2 0xF54 JUMPI PUSH1 0x40 MLOAD PUSH3 0x461BCD PUSH1 0xE5 SHL DUP2 MSTORE PUSH1 0x20 PUSH1 0x4 DUP3 ADD MSTORE PUSH1 0x1A PUSH1 0x24 DUP3 ADD MSTORE PUSH32 0x596F7520646F6E2774206861766520656E6F756768206D656D65000000000000 PUSH1 0x44 DUP3 ADD MSTORE PUSH1 0x64 ADD PUSH2 0x370 JUMP JUMPDEST PUSH1 0x1 SLOAD PUSH1 0x40 MLOAD PUSH4 0x23B872DD PUSH1 0xE0 SHL DUP2 MSTORE CALLER PUSH1 0x4 DUP3 ADD MSTORE ADDRESS PUSH1 0x24 DUP3 ADD MSTORE PUSH1 0x44 DUP2 ADD DUP4 SWAP1 MSTORE PUSH1 0x1 PUSH1 0x1 PUSH1 0xA0 SHL SUB SWAP1 SWAP2 AND SWAP1 PUSH4 0x23B872DD SWAP1 PUSH1 0x64 ADD PUSH1 0x20 PUSH1 0x40 MLOAD DUP1 DUP4 SUB DUP2 PUSH1 0x0 DUP8 GAS CALL ISZERO DUP1 ISZERO PUSH2 0xFAB JUMPI RETURNDATASIZE PUSH1 0x0 DUP1 RETURNDATACOPY RETURNDATASIZE PUSH1 0x0 REVERT JUMPDEST POP POP POP POP PUSH1 0x40 MLOAD RETURNDATASIZE PUSH1 0x1F NOT PUSH1 0x1F DUP3 ADD AND DUP3 ADD DUP1 PUSH1 0x40 MSTORE POP DUP2 ADD SWAP1 PUSH2 0xFCF SWAP2 SWAP1 PUSH2 0x1C65 JUMP JUMPDEST POP PUSH1 0x40 MLOAD CALLER SWAP1 DUP4 ISZERO PUSH2 0x8FC MUL SWAP1 DUP5 SWAP1 PUSH1 0x0 DUP2 DUP2 DUP2 DUP6 DUP9 DUP9 CALL SWAP4 POP POP POP POP ISZERO DUP1 ISZERO PUSH2 0xFFD JUMPI RETURNDATASIZE PUSH1 0x0 DUP1 RETURNDATACOPY RETURNDATASIZE PUSH1 0x0 REVERT JUMPDEST POP DUP2 PUSH1 0x7 PUSH1 0x0 DUP3 DUP3 SLOAD PUSH2 0x1010 SWAP2 SWAP1 PUSH2 0x1C28 JUMP JUMPDEST SWAP1 SWAP2 SSTORE POP POP PUSH1 0x7 SLOAD PUSH1 0x5 SLOAD PUSH2 0x1025 SWAP2 SWAP1 PUSH2 0x1C06 JUMP JUMPDEST PUSH1 0x6 SSTORE PUSH1 0x40 DUP1 MLOAD DUP3 DUP2 MSTORE PUSH1 0x20 DUP2 ADD DUP5 SWAP1 MSTORE CALLER SWAP2 PUSH32 0xED7A144FAD14804D5C249145E3E0E2B63A9EB455B76AEE5BC92D711E9BBA3E4A SWAP2 ADD PUSH2 0xD44 JUMP JUMPDEST CALLER PUSH1 0x0 SWAP1 DUP2 MSTORE PUSH1 0x2 PUSH1 0x20 SWAP1 DUP2 MSTORE PUSH1 0x40 DUP1 DUP4 KECCAK256 DUP1 SLOAD DUP3 MLOAD DUP2 DUP6 MUL DUP2 ADD DUP6 ADD SWAP1 SWAP4 MSTORE DUP1 DUP4 MSTORE PUSH1 0x60 SWAP5 SWAP3 SWAP4 SWAP2 SWAP3 SWAP1 SWAP2 DUP5 ADD JUMPDEST DUP3 DUP3 LT ISZERO PUSH2 0x10DF JUMPI DUP4 DUP3 SWAP1 PUSH1 0x0 MSTORE PUSH1 0x20 PUSH1 0x0 KECCAK256 SWAP1 PUSH1 0x3 MUL ADD PUSH1 0x40 MLOAD DUP1 PUSH1 0x60 ADD PUSH1 0x40 MSTORE SWAP1 DUP2 PUSH1 0x0 DUP3 ADD SLOAD DUP2 MSTORE PUSH1 0x20 ADD PUSH1 0x1 DUP3 ADD SLOAD DUP2 MSTORE PUSH1 0x20 ADD PUSH1 0x2 DUP3 ADD SLOAD DUP2 MSTORE POP POP DUP2 MSTORE PUSH1 0x20 ADD SWAP1 PUSH1 0x1 ADD SWAP1 PUSH2 0x108F JUMP JUMPDEST POP POP POP POP SWAP1 POP SWAP1 JUMP JUMPDEST PUSH2 0x10F0 PUSH2 0x1642 JUMP JUMPDEST PUSH1 0x1 PUSH1 0x1 PUSH1 0xA0 SHL SUB DUP2 AND PUSH2 0x1155 JUMPI PUSH1 0x40 MLOAD PUSH3 0x461BCD PUSH1 0xE5 SHL DUP2 MSTORE PUSH1 0x20 PUSH1 0x4 DUP3 ADD MSTORE PUSH1 0x26 PUSH1 0x24 DUP3 ADD MSTORE PUSH32 0x4F776E61626C653A206E6577206F776E657220697320746865207A65726F2061 PUSH1 0x44 DUP3 ADD MSTORE PUSH6 0x646472657373 PUSH1 0xD0 SHL PUSH1 0x64 DUP3 ADD MSTORE PUSH1 0x84 ADD PUSH2 0x370 JUMP JUMPDEST PUSH2 0x44F DUP2 PUSH2 0x16F4 JUMP JUMPDEST PUSH1 0x0 SLOAD PUSH1 0xFF AND ISZERO PUSH2 0x662 JUMPI PUSH1 0x40 MLOAD PUSH3 0x461BCD PUSH1 0xE5 SHL DUP2 MSTORE PUSH1 0x20 PUSH1 0x4 DUP3 ADD MSTORE PUSH1 0x10 PUSH1 0x24 DUP3 ADD MSTORE PUSH16 0x14185D5CD8589B194E881C185D5CD959 PUSH1 0x82 SHL PUSH1 0x44 DUP3 ADD MSTORE PUSH1 0x64 ADD PUSH2 0x370 JUMP JUMPDEST CALLER PUSH1 0x0 SWAP1 DUP2 MSTORE PUSH1 0x2 PUSH1 0x20 MSTORE PUSH1 0x40 SWAP1 KECCAK256 SLOAD DUP2 LT PUSH2 0x11F8 JUMPI PUSH1 0x40 MLOAD PUSH3 0x461BCD PUSH1 0xE5 SHL DUP2 MSTORE PUSH1 0x20 PUSH1 0x4 DUP3 ADD MSTORE PUSH1 0x13 PUSH1 0x24 DUP3 ADD MSTORE PUSH19 0x496E646578206F7574206F6620626F756E6473 PUSH1 0x68 SHL PUSH1 0x44 DUP3 ADD MSTORE PUSH1 0x64 ADD PUSH2 0x370 JUMP JUMPDEST CALLER PUSH1 0x0 SWAP1 DUP2 MSTORE PUSH1 0x2 PUSH1 0x20 MSTORE PUSH1 0x40 DUP2 KECCAK256 DUP1 SLOAD DUP4 SWAP1 DUP2 LT PUSH2 0x1219 JUMPI PUSH2 0x1219 PUSH2 0x1CA0 JUMP JUMPDEST SWAP1 PUSH1 0x0 MSTORE PUSH1 0x20 PUSH1 0x0 KECCAK256 SWAP1 PUSH1 0x3 MUL ADD PUSH1 0x40 MLOAD DUP1 PUSH1 0x60 ADD PUSH1 0x40 MSTORE SWAP1 DUP2 PUSH1 0x0 DUP3 ADD SLOAD DUP2 MSTORE PUSH1 0x20 ADD PUSH1 0x1 DUP3 ADD SLOAD DUP2 MSTORE PUSH1 0x20 ADD PUSH1 0x2 DUP3 ADD SLOAD DUP2 MSTORE POP POP SWAP1 POP PUSH1 0x0 PUSH2 0x125D DUP4 PUSH2 0x9B2 JUMP JUMPDEST DUP3 MLOAD PUSH1 0x20 DUP5 ADD MLOAD SWAP2 SWAP3 POP SWAP1 PUSH1 0x0 SWAP1 PUSH2 0x1276 SWAP1 DUP5 SWAP1 PUSH2 0x1C52 JUMP JUMPDEST PUSH1 0x6 SLOAD PUSH1 0xA SSTORE PUSH1 0x1 SLOAD PUSH1 0x40 MLOAD PUSH4 0x70A08231 PUSH1 0xE0 SHL DUP2 MSTORE ADDRESS PUSH1 0x4 DUP3 ADD MSTORE SWAP2 SWAP3 POP PUSH1 0x1 PUSH1 0x1 PUSH1 0xA0 SHL SUB AND SWAP1 PUSH4 0x70A08231 SWAP1 PUSH1 0x24 ADD PUSH1 0x20 PUSH1 0x40 MLOAD DUP1 DUP4 SUB DUP2 DUP7 GAS STATICCALL ISZERO DUP1 ISZERO PUSH2 0x12C5 JUMPI RETURNDATASIZE PUSH1 0x0 DUP1 RETURNDATACOPY RETURNDATASIZE PUSH1 0x0 REVERT JUMPDEST POP POP POP POP PUSH1 0x40 MLOAD RETURNDATASIZE PUSH1 0x1F NOT PUSH1 0x1F DUP3 ADD AND DUP3 ADD DUP1 PUSH1 0x40 MSTORE POP DUP2 ADD SWAP1 PUSH2 0x12E9 SWAP2 SWAP1 PUSH2 0x1C87 JUMP JUMPDEST DUP3 GT ISZERO PUSH2 0x1372 JUMPI PUSH1 0x40 MLOAD PUSH3 0x461BCD PUSH1 0xE5 SHL DUP2 MSTORE PUSH1 0x20 PUSH1 0x4 DUP3 ADD MSTORE PUSH1 0x4B PUSH1 0x24 DUP3 ADD MSTORE PUSH32 0x536F7272792043757272656E746C79207468697320636F6E747261637420646F PUSH1 0x44 DUP3 ADD MSTORE PUSH32 0x65736E27742068617665204D656D6520746F2072657475726E2C20436865636B PUSH1 0x64 DUP3 ADD MSTORE PUSH11 0x206261636B20536F6F6E21 PUSH1 0xA8 SHL PUSH1 0x84 DUP3 ADD MSTORE PUSH1 0xA4 ADD PUSH2 0x370 JUMP JUMPDEST SELFBALANCE DUP2 GT ISZERO PUSH2 0x13FB JUMPI PUSH1 0x40 MLOAD PUSH3 0x461BCD PUSH1 0xE5 SHL DUP2 MSTORE PUSH1 0x20 PUSH1 0x4 DUP3 ADD MSTORE PUSH1 0x4A PUSH1 0x24 DUP3 ADD MSTORE PUSH32 0x536F7272792043757272656E746C79207468697320636F6E747261637420646F PUSH1 0x44 DUP3 ADD MSTORE PUSH32 0x65736E277420686176652045746820746F2072657475726E2C20436865636B20 PUSH1 0x64 DUP3 ADD MSTORE PUSH10 0x6261636B20536F6F6E21 PUSH1 0xB0 SHL PUSH1 0x84 DUP3 ADD MSTORE PUSH1 0xA4 ADD PUSH2 0x370 JUMP JUMPDEST PUSH1 0x1 SLOAD PUSH1 0x40 MLOAD PUSH4 0xA9059CBB PUSH1 0xE0 SHL DUP2 MSTORE CALLER PUSH1 0x4 DUP3 ADD MSTORE PUSH1 0x24 DUP2 ADD DUP5 SWAP1 MSTORE PUSH1 0x1 PUSH1 0x1 PUSH1 0xA0 SHL SUB SWAP1 SWAP2 AND SWAP1 PUSH4 0xA9059CBB SWAP1 PUSH1 0x44 ADD PUSH1 0x20 PUSH1 0x40 MLOAD DUP1 DUP4 SUB DUP2 PUSH1 0x0 DUP8 GAS CALL ISZERO DUP1 ISZERO PUSH2 0x144C JUMPI RETURNDATASIZE PUSH1 0x0 DUP1 RETURNDATACOPY RETURNDATASIZE PUSH1 0x0 REVERT JUMPDEST POP POP POP POP PUSH1 0x40 MLOAD RETURNDATASIZE PUSH1 0x1F NOT PUSH1 0x1F DUP3 ADD AND DUP3 ADD DUP1 PUSH1 0x40 MSTORE POP DUP2 ADD SWAP1 PUSH2 0x1470 SWAP2 SWAP1 PUSH2 0x1C65 JUMP JUMPDEST POP PUSH1 0x40 MLOAD CALLER SWAP1 DUP3 ISZERO PUSH2 0x8FC MUL SWAP1 DUP4 SWAP1 PUSH1 0x0 DUP2 DUP2 DUP2 DUP6 DUP9 DUP9 CALL SWAP4 POP POP POP POP ISZERO DUP1 ISZERO PUSH2 0x149E JUMPI RETURNDATASIZE PUSH1 0x0 DUP1 RETURNDATACOPY RETURNDATASIZE PUSH1 0x0 REVERT JUMPDEST POP DUP2 PUSH1 0x6 SLOAD LT ISZERO PUSH2 0x14B0 JUMPI PUSH1 0x0 PUSH2 0x14BE JUMP JUMPDEST DUP2 PUSH1 0x6 SLOAD PUSH2 0x14BE SWAP2 SWAP1 PUSH2 0x1C28 JUMP JUMPDEST PUSH1 0x6 SSTORE PUSH1 0x7 SLOAD DUP2 GT ISZERO PUSH2 0x14D2 JUMPI PUSH1 0x0 PUSH2 0x14E0 JUMP JUMPDEST DUP1 PUSH1 0x7 SLOAD PUSH2 0x14E0 SWAP2 SWAP1 PUSH2 0x1C28 JUMP JUMPDEST PUSH1 0x7 SSTORE PUSH1 0x6 SLOAD PUSH1 0x0 SUB PUSH2 0x14F7 JUMPI PUSH1 0x0 PUSH1 0x4 SSTORE PUSH2 0x1518 JUMP JUMPDEST PUSH1 0x6 SLOAD PUSH1 0x8 SLOAD PUSH1 0x7 SLOAD PUSH2 0x150A SWAP2 SWAP1 PUSH2 0x1C3B JUMP JUMPDEST PUSH2 0x1514 SWAP2 SWAP1 PUSH2 0x1C06 JUMP JUMPDEST PUSH1 0x4 SSTORE JUMPDEST PUSH2 0x1521 DUP6 PUSH2 0x18F0 JUMP JUMPDEST PUSH2 0x1529 PUSH2 0x1A58 JUMP JUMPDEST PUSH1 0x40 DUP1 MLOAD DUP4 DUP2 MSTORE PUSH1 0x20 DUP2 ADD DUP4 SWAP1 MSTORE CALLER SWAP2 PUSH32 0xBB564DF1F5D4EBB97B073ADCAB505C7796A37035AC5D14F51269660939C39CF4 SWAP2 ADD PUSH1 0x40 MLOAD DUP1 SWAP2 SUB SWAP1 LOG2 POP POP POP POP POP JUMP JUMPDEST PUSH1 0x0 DUP1 PUSH1 0x5 SLOAD GT PUSH2 0x158E JUMPI PUSH1 0x40 MLOAD PUSH3 0x461BCD PUSH1 0xE5 SHL DUP2 MSTORE PUSH1 0x4 ADD PUSH2 0x370 SWAP1 PUSH2 0x1BC2 JUMP JUMPDEST PUSH1 0x0 DUP1 PUSH1 0x7 SLOAD PUSH1 0x0 SUB PUSH2 0x15BC JUMPI DUP4 PUSH1 0x1 PUSH1 0x5 SLOAD PUSH2 0x15AB SWAP2 SWAP1 PUSH2 0x1C06 JUMP JUMPDEST PUSH2 0x15B5 SWAP2 SWAP1 PUSH2 0x1C28 JUMP JUMPDEST SWAP2 POP PUSH2 0x15DA JUMP JUMPDEST DUP4 PUSH1 0x7 SLOAD PUSH1 0x5 SLOAD PUSH2 0x15CD SWAP2 SWAP1 PUSH2 0x1C06 JUMP JUMPDEST PUSH2 0x15D7 SWAP2 SWAP1 PUSH2 0x1C28 JUMP JUMPDEST SWAP2 POP JUMPDEST DUP2 PUSH1 0x0 SUB PUSH2 0x15F8 JUMPI PUSH1 0x1 PUSH1 0x5 SLOAD PUSH2 0x15F1 SWAP2 SWAP1 PUSH2 0x1C06 JUMP JUMPDEST SWAP1 POP PUSH2 0x1609 JUMP JUMPDEST DUP2 PUSH1 0x5 SLOAD PUSH2 0x1606 SWAP2 SWAP1 PUSH2 0x1C06 JUMP JUMPDEST SWAP1 POP JUMPDEST PUSH1 0x0 PUSH1 0x7 SLOAD DUP3 PUSH2 0x1619 SWAP2 SWAP1 PUSH2 0x1C28 JUMP JUMPDEST SWAP1 POP PUSH1 0x0 PUSH1 0x8 SLOAD PUSH1 0x9 SLOAD DUP4 PUSH2 0x162E SWAP2 SWAP1 PUSH2 0x1C3B JUMP JUMPDEST PUSH2 0x1638 SWAP2 SWAP1 PUSH2 0x1C06 JUMP JUMPDEST SWAP7 SWAP6 POP POP POP POP POP POP JUMP JUMPDEST PUSH1 0x0 SLOAD PUSH1 0x1 PUSH1 0x1 PUSH1 0xA0 SHL SUB PUSH2 0x100 SWAP1 SWAP2 DIV AND CALLER EQ PUSH2 0x662 JUMPI PUSH1 0x40 MLOAD PUSH3 0x461BCD PUSH1 0xE5 SHL DUP2 MSTORE PUSH1 0x20 PUSH1 0x4 DUP3 ADD DUP2 SWAP1 MSTORE PUSH1 0x24 DUP3 ADD MSTORE PUSH32 0x4F776E61626C653A2063616C6C6572206973206E6F7420746865206F776E6572 PUSH1 0x44 DUP3 ADD MSTORE PUSH1 0x64 ADD PUSH2 0x370 JUMP JUMPDEST PUSH2 0x16AA PUSH2 0x1A6D JUMP JUMPDEST PUSH1 0x0 DUP1 SLOAD PUSH1 0xFF NOT AND SWAP1 SSTORE PUSH32 0x5DB9EE0A495BF2E6FF9C91A7834C1BA4FDD244A5E8AA4E537BD38AEAE4B073AA CALLER JUMPDEST PUSH1 0x40 MLOAD PUSH1 0x1 PUSH1 0x1 PUSH1 0xA0 SHL SUB SWAP1 SWAP2 AND DUP2 MSTORE PUSH1 0x20 ADD PUSH1 0x40 MLOAD DUP1 SWAP2 SUB SWAP1 LOG1 JUMP JUMPDEST PUSH1 0x0 DUP1 SLOAD PUSH1 0x1 PUSH1 0x1 PUSH1 0xA0 SHL SUB DUP4 DUP2 AND PUSH2 0x100 DUP2 DUP2 MUL PUSH2 0x100 PUSH1 0x1 PUSH1 0xA8 SHL SUB NOT DUP6 AND OR DUP6 SSTORE PUSH1 0x40 MLOAD SWAP4 DIV SWAP2 SWAP1 SWAP2 AND SWAP3 SWAP1 SWAP2 DUP4 SWAP2 PUSH32 0x8BE0079C531659141344CD1FD0A4F28419497F9722A3DAAFE3B4186F6B6457E0 SWAP2 LOG3 POP POP JUMP JUMPDEST PUSH2 0x1755 PUSH2 0x115E JUMP JUMPDEST PUSH1 0x0 DUP1 SLOAD PUSH1 0xFF NOT AND PUSH1 0x1 OR SWAP1 SSTORE PUSH32 0x62E78CEA01BEE320CD4E420270B5EA74000D11B0C9F74754EBDBFC544B05A258 PUSH2 0x16D7 CALLER SWAP1 JUMP JUMPDEST PUSH1 0x1 SLOAD PUSH1 0x40 MLOAD PUSH4 0x23B872DD PUSH1 0xE0 SHL DUP2 MSTORE CALLER PUSH1 0x4 DUP3 ADD MSTORE ADDRESS PUSH1 0x24 DUP3 ADD MSTORE PUSH1 0x44 DUP2 ADD DUP5 SWAP1 MSTORE PUSH1 0x1 PUSH1 0x1 PUSH1 0xA0 SHL SUB SWAP1 SWAP2 AND SWAP1 PUSH4 0x23B872DD SWAP1 PUSH1 0x64 ADD PUSH1 0x20 PUSH1 0x40 MLOAD DUP1 DUP4 SUB DUP2 PUSH1 0x0 DUP8 GAS CALL ISZERO DUP1 ISZERO PUSH2 0x17E1 JUMPI RETURNDATASIZE PUSH1 0x0 DUP1 RETURNDATACOPY RETURNDATASIZE PUSH1 0x0 REVERT JUMPDEST POP POP POP POP PUSH1 0x40 MLOAD RETURNDATASIZE PUSH1 0x1F NOT PUSH1 0x1F DUP3 ADD AND DUP3 ADD DUP1 PUSH1 0x40 MSTORE POP DUP2 ADD SWAP1 PUSH2 0x1805 SWAP2 SWAP1 PUSH2 0x1C65 JUMP JUMPDEST POP DUP2 PUSH1 0x6 PUSH1 0x0 DUP3 DUP3 SLOAD PUSH2 0x1818 SWAP2 SWAP1 PUSH2 0x1C52 JUMP JUMPDEST SWAP3 POP POP DUP2 SWAP1 SSTORE POP DUP1 PUSH1 0x7 PUSH1 0x0 DUP3 DUP3 SLOAD PUSH2 0x1831 SWAP2 SWAP1 PUSH2 0x1C52 JUMP JUMPDEST SWAP1 SWAP2 SSTORE POP POP PUSH1 0x40 DUP1 MLOAD PUSH1 0x60 DUP2 ADD DUP3 MSTORE DUP4 DUP2 MSTORE PUSH1 0x20 DUP1 DUP3 ADD DUP5 DUP2 MSTORE TIMESTAMP DUP4 DUP6 ADD SWAP1 DUP2 MSTORE CALLER PUSH1 0x0 SWAP1 DUP2 MSTORE PUSH1 0x2 DUP1 DUP6 MSTORE SWAP6 DUP2 KECCAK256 DUP1 SLOAD PUSH1 0x1 DUP2 DUP2 ADD DUP4 SSTORE SWAP2 DUP4 MSTORE SWAP5 SWAP1 SWAP2 KECCAK256 DUP6 MLOAD PUSH1 0x3 SWAP1 SWAP6 MUL ADD SWAP4 DUP5 SSTORE SWAP2 MLOAD SWAP2 DUP4 ADD SWAP2 SWAP1 SWAP2 SSTORE MLOAD SWAP3 ADD SWAP2 SWAP1 SWAP2 SSTORE PUSH1 0x6 SLOAD PUSH1 0x8 SLOAD PUSH1 0x7 SLOAD PUSH2 0x189E SWAP2 SWAP1 PUSH2 0x1C3B JUMP JUMPDEST PUSH2 0x18A8 SWAP2 SWAP1 PUSH2 0x1C06 JUMP JUMPDEST PUSH1 0x4 SSTORE PUSH1 0x6 SLOAD PUSH1 0xA SSTORE PUSH2 0x18B9 PUSH2 0x1A58 JUMP JUMPDEST PUSH1 0x40 DUP1 MLOAD DUP5 DUP2 MSTORE CALLVALUE PUSH1 0x20 DUP3 ADD MSTORE CALLER SWAP2 PUSH32 0x5CAAD8F5613B6F1D592FC8C69D8F0999453740F0806C754F20CC92F3D4B2B1B6 SWAP2 ADD PUSH2 0x892 JUMP JUMPDEST CALLER PUSH1 0x0 SWAP1 DUP2 MSTORE PUSH1 0x2 PUSH1 0x20 MSTORE PUSH1 0x40 SWAP1 KECCAK256 SLOAD DUP2 LT PUSH2 0x1944 JUMPI PUSH1 0x40 MLOAD PUSH3 0x461BCD PUSH1 0xE5 SHL DUP2 MSTORE PUSH1 0x20 PUSH1 0x4 DUP3 ADD MSTORE PUSH1 0x13 PUSH1 0x24 DUP3 ADD MSTORE PUSH19 0x496E646578206F7574206F6620626F756E6473 PUSH1 0x68 SHL PUSH1 0x44 DUP3 ADD MSTORE PUSH1 0x64 ADD PUSH2 0x370 JUMP JUMPDEST DUP1 JUMPDEST CALLER PUSH1 0x0 SWAP1 DUP2 MSTORE PUSH1 0x2 PUSH1 0x20 MSTORE PUSH1 0x40 SWAP1 KECCAK256 SLOAD PUSH2 0x1962 SWAP1 PUSH1 0x1 SWAP1 PUSH2 0x1C28 JUMP JUMPDEST DUP2 LT ISZERO PUSH2 0x1A11 JUMPI CALLER PUSH1 0x0 SWAP1 DUP2 MSTORE PUSH1 0x2 PUSH1 0x20 MSTORE PUSH1 0x40 SWAP1 KECCAK256 PUSH2 0x1983 DUP3 PUSH1 0x1 PUSH2 0x1C52 JUMP JUMPDEST DUP2 SLOAD DUP2 LT PUSH2 0x1993 JUMPI PUSH2 0x1993 PUSH2 0x1CA0 JUMP JUMPDEST SWAP1 PUSH1 0x0 MSTORE PUSH1 0x20 PUSH1 0x0 KECCAK256 SWAP1 PUSH1 0x3 MUL ADD PUSH1 0x2 PUSH1 0x0 CALLER PUSH1 0x1 PUSH1 0x1 PUSH1 0xA0 SHL SUB AND PUSH1 0x1 PUSH1 0x1 PUSH1 0xA0 SHL SUB AND DUP2 MSTORE PUSH1 0x20 ADD SWAP1 DUP2 MSTORE PUSH1 0x20 ADD PUSH1 0x0 KECCAK256 DUP3 DUP2 SLOAD DUP2 LT PUSH2 0x19D7 JUMPI PUSH2 0x19D7 PUSH2 0x1CA0 JUMP JUMPDEST PUSH1 0x0 SWAP2 DUP3 MSTORE PUSH1 0x20 SWAP1 SWAP2 KECCAK256 DUP3 SLOAD PUSH1 0x3 SWAP1 SWAP3 MUL ADD SWAP1 DUP2 SSTORE PUSH1 0x1 DUP1 DUP4 ADD SLOAD SWAP1 DUP3 ADD SSTORE PUSH1 0x2 SWAP2 DUP3 ADD SLOAD SWAP2 ADD SSTORE DUP1 PUSH2 0x1A09 DUP2 PUSH2 0x1CB6 JUMP JUMPDEST SWAP2 POP POP PUSH2 0x1946 JUMP JUMPDEST POP CALLER PUSH1 0x0 SWAP1 DUP2 MSTORE PUSH1 0x2 PUSH1 0x20 MSTORE PUSH1 0x40 SWAP1 KECCAK256 DUP1 SLOAD DUP1 PUSH2 0x1A30 JUMPI PUSH2 0x1A30 PUSH2 0x1CCF JUMP JUMPDEST PUSH1 0x0 DUP3 DUP2 MSTORE PUSH1 0x20 DUP2 KECCAK256 PUSH1 0x3 PUSH1 0x0 NOT SWAP1 SWAP4 ADD SWAP3 DUP4 MUL ADD DUP2 DUP2 SSTORE PUSH1 0x1 DUP2 ADD DUP3 SWAP1 SSTORE PUSH1 0x2 ADD SSTORE SWAP1 SSTORE POP JUMP JUMPDEST PUSH1 0x7 SLOAD PUSH1 0x6 SLOAD PUSH2 0x1A68 SWAP2 SWAP1 PUSH2 0x1C3B JUMP JUMPDEST PUSH1 0x5 SSTORE JUMP JUMPDEST PUSH1 0x0 SLOAD PUSH1 0xFF AND PUSH2 0x662 JUMPI PUSH1 0x40 MLOAD PUSH3 0x461BCD PUSH1 0xE5 SHL DUP2 MSTORE PUSH1 0x20 PUSH1 0x4 DUP3 ADD MSTORE PUSH1 0x14 PUSH1 0x24 DUP3 ADD MSTORE PUSH20 0x14185D5CD8589B194E881B9BDD081C185D5CD959 PUSH1 0x62 SHL PUSH1 0x44 DUP3 ADD MSTORE PUSH1 0x64 ADD PUSH2 0x370 JUMP JUMPDEST PUSH1 0x0 PUSH1 0x20 DUP3 DUP5 SUB SLT ISZERO PUSH2 0x1AC8 JUMPI PUSH1 0x0 DUP1 REVERT JUMPDEST POP CALLDATALOAD SWAP2 SWAP1 POP JUMP JUMPDEST DUP1 CALLDATALOAD PUSH1 0x1 PUSH1 0x1 PUSH1 0xA0 SHL SUB DUP2 AND DUP2 EQ PUSH2 0x439 JUMPI PUSH1 0x0 DUP1 REVERT JUMPDEST PUSH1 0x0 DUP1 PUSH1 0x0 PUSH1 0x60 DUP5 DUP7 SUB SLT ISZERO PUSH2 0x1AFB JUMPI PUSH1 0x0 DUP1 REVERT JUMPDEST DUP4 CALLDATALOAD SWAP3 POP PUSH2 0x1B0B PUSH1 0x20 DUP6 ADD PUSH2 0x1ACF JUMP JUMPDEST SWAP2 POP PUSH1 0x40 DUP5 ADD CALLDATALOAD SWAP1 POP SWAP3 POP SWAP3 POP SWAP3 JUMP JUMPDEST PUSH1 0x0 DUP1 PUSH1 0x40 DUP4 DUP6 SUB SLT ISZERO PUSH2 0x1B2E JUMPI PUSH1 0x0 DUP1 REVERT JUMPDEST DUP3 CALLDATALOAD SWAP2 POP PUSH2 0x1B3E PUSH1 0x20 DUP5 ADD PUSH2 0x1ACF JUMP JUMPDEST SWAP1 POP SWAP3 POP SWAP3 SWAP1 POP JUMP JUMPDEST PUSH1 0x20 DUP1 DUP3 MSTORE DUP3 MLOAD DUP3 DUP3 ADD DUP2 SWAP1 MSTORE PUSH1 0x0 SWAP2 SWAP1 PUSH1 0x40 SWAP1 DUP2 DUP6 ADD SWAP1 DUP7 DUP5 ADD DUP6 JUMPDEST DUP3 DUP2 LT ISZERO PUSH2 0x1B93 JUMPI DUP2 MLOAD DUP1 MLOAD DUP6 MSTORE DUP7 DUP2 ADD MLOAD DUP8 DUP7 ADD MSTORE DUP6 ADD MLOAD DUP6 DUP6 ADD MSTORE PUSH1 0x60 SWAP1 SWAP4 ADD SWAP3 SWAP1 DUP6 ADD SWAP1 PUSH1 0x1 ADD PUSH2 0x1B64 JUMP JUMPDEST POP SWAP2 SWAP8 SWAP7 POP POP POP POP POP POP POP JUMP JUMPDEST PUSH1 0x0 PUSH1 0x20 DUP3 DUP5 SUB SLT ISZERO PUSH2 0x1BB2 JUMPI PUSH1 0x0 DUP1 REVERT JUMPDEST PUSH2 0x1BBB DUP3 PUSH2 0x1ACF JUMP JUMPDEST SWAP4 SWAP3 POP POP POP JUMP JUMPDEST PUSH1 0x20 DUP1 DUP3 MSTORE PUSH1 0x14 SWAP1 DUP3 ADD MSTORE PUSH20 0x4E6F7420656E6F756768206C6971756964697479 PUSH1 0x60 SHL PUSH1 0x40 DUP3 ADD MSTORE PUSH1 0x60 ADD SWAP1 JUMP JUMPDEST PUSH4 0x4E487B71 PUSH1 0xE0 SHL PUSH1 0x0 MSTORE PUSH1 0x11 PUSH1 0x4 MSTORE PUSH1 0x24 PUSH1 0x0 REVERT JUMPDEST PUSH1 0x0 DUP3 PUSH2 0x1C23 JUMPI PUSH4 0x4E487B71 PUSH1 0xE0 SHL PUSH1 0x0 MSTORE PUSH1 0x12 PUSH1 0x4 MSTORE PUSH1 0x24 PUSH1 0x0 REVERT JUMPDEST POP DIV SWAP1 JUMP JUMPDEST DUP2 DUP2 SUB DUP2 DUP2 GT ISZERO PUSH2 0xB5F JUMPI PUSH2 0xB5F PUSH2 0x1BF0 JUMP JUMPDEST DUP1 DUP3 MUL DUP2 ISZERO DUP3 DUP3 DIV DUP5 EQ OR PUSH2 0xB5F JUMPI PUSH2 0xB5F PUSH2 0x1BF0 JUMP JUMPDEST DUP1 DUP3 ADD DUP1 DUP3 GT ISZERO PUSH2 0xB5F JUMPI PUSH2 0xB5F PUSH2 0x1BF0 JUMP JUMPDEST PUSH1 0x0 PUSH1 0x20 DUP3 DUP5 SUB SLT ISZERO PUSH2 0x1C77 JUMPI PUSH1 0x0 DUP1 REVERT JUMPDEST DUP2 MLOAD DUP1 ISZERO ISZERO DUP2 EQ PUSH2 0x1BBB JUMPI PUSH1 0x0 DUP1 REVERT JUMPDEST PUSH1 0x0 PUSH1 0x20 DUP3 DUP5 SUB SLT ISZERO PUSH2 0x1C99 JUMPI PUSH1 0x0 DUP1 REVERT JUMPDEST POP MLOAD SWAP2 SWAP1 POP JUMP JUMPDEST PUSH4 0x4E487B71 PUSH1 0xE0 SHL PUSH1 0x0 MSTORE PUSH1 0x32 PUSH1 0x4 MSTORE PUSH1 0x24 PUSH1 0x0 REVERT JUMPDEST PUSH1 0x0 PUSH1 0x1 DUP3 ADD PUSH2 0x1CC8 JUMPI PUSH2 0x1CC8 PUSH2 0x1BF0 JUMP JUMPDEST POP PUSH1 0x1 ADD SWAP1 JUMP JUMPDEST PUSH4 0x4E487B71 PUSH1 0xE0 SHL PUSH1 0x0 MSTORE PUSH1 0x31 PUSH1 0x4 MSTORE PUSH1 0x24 PUSH1 0x0 REVERT INVALID LOG2 PUSH5 0x6970667358 0x22 SLT KECCAK256 0xAB 0xBF SWAP4 DUP13 MUL 0x22 DUP3 MSTORE8 PUSH5 0x50E21B1BE4 XOR 0xD2 0xD1 PUSH24 0xAF34FA7CD6F48BE8C65AA3AB08C564736F6C634300081300 CALLER "
				},
				"gasEstimates": {
					"creation": {
						"codeDepositCost": "1490200",
						"executionCost": "infinite",
						"totalCost": "infinite"
					},
					"external": {
						"_distributeTax(uint256)": "infinite",
						"buy(uint256)": "infinite",
						"buy(uint256,address,uint256)": "infinite",
						"dailyTax(uint256)": "2495",
						"getETHPrice(uint256)": "infinite",
						"getMemePrice(uint256)": "infinite",
						"getStacks()": "infinite",
						"owner()": "2375",
						"pause()": "infinite",
						"paused()": "2381",
						"renounceOwnership()": "infinite",
						"sell(uint256)": "infinite",
						"sell(uint256,address)": "infinite",
						"stack(uint256)": "infinite",
						"stackingRate()": "2351",
						"transferOwnership(address)": "28479",
						"unpause()": "infinite",
						"unstack(uint256)": "infinite"
					},
					"internal": {
						"_removeArr(uint256)": "infinite",
						"_stack(uint256,uint256)": "infinite",
						"_unstack(uint256)": "infinite",
						"_updateK()": "26409",
						"calculateTax(uint256)": "infinite"
					}
				},
				"methodIdentifiers": {
					"_distributeTax(uint256)": "d37a389b",
					"buy(uint256)": "d96a094a",
					"buy(uint256,address,uint256)": "2afaca20",
					"dailyTax(uint256)": "2ad9d559",
					"getETHPrice(uint256)": "1a753fed",
					"getMemePrice(uint256)": "5c572ed0",
					"getStacks()": "e8bca8b8",
					"owner()": "8da5cb5b",
					"pause()": "8456cb59",
					"paused()": "5c975abb",
					"renounceOwnership()": "715018a6",
					"sell(uint256)": "e4849b32",
					"sell(uint256,address)": "4189a68e",
					"stack(uint256)": "dc9031c4",
					"stackingRate()": "9c74f05d",
					"transferOwnership(address)": "f2fde38b",
					"unpause()": "3f4ba83a",
					"unstack(uint256)": "200061df"
				}
			},
			"storageLayout": {
				"storage": [
					{
						"astId": 130,
						"contract": "DEX.sol:DEX",
						"label": "_paused",
						"offset": 0,
						"slot": "0",
						"type": "t_bool"
					},
					{
						"astId": 7,
						"contract": "DEX.sol:DEX",
						"label": "_owner",
						"offset": 1,
						"slot": "0",
						"type": "t_address"
					},
					{
						"astId": 996,
						"contract": "DEX.sol:DEX",
						"label": "meme",
						"offset": 0,
						"slot": "1",
						"type": "t_contract(ERC20)807"
					},
					{
						"astId": 1034,
						"contract": "DEX.sol:DEX",
						"label": "Stacked",
						"offset": 0,
						"slot": "2",
						"type": "t_mapping(t_address,t_array(t_struct(Stack_Struct)993_storage)dyn_storage)"
					},
					{
						"astId": 1038,
						"contract": "DEX.sol:DEX",
						"label": "dailyTax",
						"offset": 0,
						"slot": "3",
						"type": "t_mapping(t_uint256,t_uint256)"
					},
					{
						"astId": 1040,
						"contract": "DEX.sol:DEX",
						"label": "stackingRate",
						"offset": 0,
						"slot": "4",
						"type": "t_uint256"
					},
					{
						"astId": 1042,
						"contract": "DEX.sol:DEX",
						"label": "_k",
						"offset": 0,
						"slot": "5",
						"type": "t_uint256"
					},
					{
						"astId": 1044,
						"contract": "DEX.sol:DEX",
						"label": "_x",
						"offset": 0,
						"slot": "6",
						"type": "t_uint256"
					},
					{
						"astId": 1046,
						"contract": "DEX.sol:DEX",
						"label": "_y",
						"offset": 0,
						"slot": "7",
						"type": "t_uint256"
					},
					{
						"astId": 1049,
						"contract": "DEX.sol:DEX",
						"label": "precision",
						"offset": 0,
						"slot": "8",
						"type": "t_uint256"
					},
					{
						"astId": 1057,
						"contract": "DEX.sol:DEX",
						"label": "taxRate",
						"offset": 0,
						"slot": "9",
						"type": "t_uint256"
					},
					{
						"astId": 1249,
						"contract": "DEX.sol:DEX",
						"label": "originalX",
						"offset": 0,
						"slot": "10",
						"type": "t_uint256"
					}
				],
				"types": {
					"t_address": {
						"encoding": "inplace",
						"label": "address",
						"numberOfBytes": "20"
					},
					"t_array(t_struct(Stack_Struct)993_storage)dyn_storage": {
						"base": "t_struct(Stack_Struct)993_storage",
						"encoding": "dynamic_array",
						"label": "struct DEX.Stack_Struct[]",
						"numberOfBytes": "32"
					},
					"t_bool": {
						"encoding": "inplace",
						"label": "bool",
						"numberOfBytes": "1"
					},
					"t_contract(ERC20)807": {
						"encoding": "inplace",
						"label": "contract ERC20",
						"numberOfBytes": "20"
					},
					"t_mapping(t_address,t_array(t_struct(Stack_Struct)993_storage)dyn_storage)": {
						"encoding": "mapping",
						"key": "t_address",
						"label": "mapping(address => struct DEX.Stack_Struct[])",
						"numberOfBytes": "32",
						"value": "t_array(t_struct(Stack_Struct)993_storage)dyn_storage"
					},
					"t_mapping(t_uint256,t_uint256)": {
						"encoding": "mapping",
						"key": "t_uint256",
						"label": "mapping(uint256 => uint256)",
						"numberOfBytes": "32",
						"value": "t_uint256"
					},
					"t_struct(Stack_Struct)993_storage": {
						"encoding": "inplace",
						"label": "struct DEX.Stack_Struct",
						"members": [
							{
								"astId": 988,
								"contract": "DEX.sol:DEX",
								"label": "meme_amount",
								"offset": 0,
								"slot": "0",
								"type": "t_uint256"
							},
							{
								"astId": 990,
								"contract": "DEX.sol:DEX",
								"label": "eth_amount",
								"offset": 0,
								"slot": "1",
								"type": "t_uint256"
							},
							{
								"astId": 992,
								"contract": "DEX.sol:DEX",
								"label": "time",
								"offset": 0,
								"slot": "2",
								"type": "t_uint256"
							}
						],
						"numberOfBytes": "96"
					},
					"t_uint256": {
						"encoding": "inplace",
						"label": "uint256",
						"numberOfBytes": "32"
					}
				}
			},
			"userdoc": {
				"kind": "user",
				"methods": {},
				"version": 1
			}
		}
	}
}