{
	"DEX.sol_flattened.sol": {
		"DEX": {
			"abi": [
				{
					"inputs": [
						{
							"internalType": "address",
							"name": "addr",
							"type": "address"
						}
					],
					"stateMutability": "nonpayable",
					"type": "constructor"
				},
				{
					"anonymous": false,
					"inputs": [
						{
							"indexed": true,
							"internalType": "address",
							"name": "from",
							"type": "address"
						},
						{
							"indexed": false,
							"internalType": "uint256",
							"name": "Meme_amount",
							"type": "uint256"
						},
						{
							"indexed": false,
							"internalType": "uint256",
							"name": "eth_amount",
							"type": "uint256"
						}
					],
					"name": "Buy",
					"type": "event"
				},
				{
					"anonymous": false,
					"inputs": [
						{
							"indexed": true,
							"internalType": "address",
							"name": "previousOwner",
							"type": "address"
						},
						{
							"indexed": true,
							"internalType": "address",
							"name": "newOwner",
							"type": "address"
						}
					],
					"name": "OwnershipTransferred",
					"type": "event"
				},
				{
					"anonymous": false,
					"inputs": [
						{
							"indexed": false,
							"internalType": "address",
							"name": "account",
							"type": "address"
						}
					],
					"name": "Paused",
					"type": "event"
				},
				{
					"anonymous": false,
					"inputs": [
						{
							"indexed": true,
							"internalType": "address",
							"name": "from",
							"type": "address"
						},
						{
							"indexed": false,
							"internalType": "uint256",
							"name": "Meme_amount",
							"type": "uint256"
						},
						{
							"indexed": false,
							"internalType": "uint256",
							"name": "eth_amount",
							"type": "uint256"
						}
					],
					"name": "Sell",
					"type": "event"
				},
				{
					"anonymous": false,
					"inputs": [
						{
							"indexed": true,
							"internalType": "address",
							"name": "from",
							"type": "address"
						},
						{
							"indexed": false,
							"internalType": "uint256",
							"name": "Meme_amount",
							"type": "uint256"
						},
						{
							"indexed": false,
							"internalType": "uint256",
							"name": "eth_amount",
							"type": "uint256"
						}
					],
					"name": "Stack",
					"type": "event"
				},
				{
					"anonymous": false,
					"inputs": [
						{
							"indexed": true,
							"internalType": "address",
							"name": "from",
							"type": "address"
						},
						{
							"indexed": false,
							"internalType": "uint256",
							"name": "Meme_amount",
							"type": "uint256"
						},
						{
							"indexed": false,
							"internalType": "uint256",
							"name": "eth_amount",
							"type": "uint256"
						}
					],
					"name": "UnStack",
					"type": "event"
				},
				{
					"anonymous": false,
					"inputs": [
						{
							"indexed": false,
							"internalType": "address",
							"name": "account",
							"type": "address"
						}
					],
					"name": "Unpaused",
					"type": "event"
				},
				{
					"inputs": [],
					"name": "_k",
					"outputs": [
						{
							"internalType": "uint256",
							"name": "",
							"type": "uint256"
						}
					],
					"stateMutability": "view",
					"type": "function"
				},
				{
					"inputs": [],
					"name": "_x",
					"outputs": [
						{
							"internalType": "uint256",
							"name": "",
							"type": "uint256"
						}
					],
					"stateMutability": "view",
					"type": "function"
				},
				{
					"inputs": [],
					"name": "_y",
					"outputs": [
						{
							"internalType": "uint256",
							"name": "",
							"type": "uint256"
						}
					],
					"stateMutability": "view",
					"type": "function"
				},
				{
					"inputs": [
						{
							"internalType": "uint256",
							"name": "meme_amount",
							"type": "uint256"
						}
					],
					"name": "buy",
					"outputs": [],
					"stateMutability": "payable",
					"type": "function"
				},
				{
					"inputs": [
						{
							"internalType": "uint256",
							"name": "",
							"type": "uint256"
						}
					],
					"name": "dailyTax",
					"outputs": [
						{
							"internalType": "uint256",
							"name": "",
							"type": "uint256"
						}
					],
					"stateMutability": "view",
					"type": "function"
				},
				{
					"inputs": [
						{
							"internalType": "uint256",
							"name": "eth_amount",
							"type": "uint256"
						}
					],
					"name": "getETHPrice",
					"outputs": [
						{
							"internalType": "uint256",
							"name": "",
							"type": "uint256"
						}
					],
					"stateMutability": "view",
					"type": "function"
				},
				{
					"inputs": [
						{
							"internalType": "uint256",
							"name": "meme_amount",
							"type": "uint256"
						}
					],
					"name": "getMemePrice",
					"outputs": [
						{
							"internalType": "uint256",
							"name": "",
							"type": "uint256"
						}
					],
					"stateMutability": "view",
					"type": "function"
				},
				{
					"inputs": [],
					"name": "getStacks",
					"outputs": [
						{
							"components": [
								{
									"internalType": "uint256",
									"name": "meme_amount",
									"type": "uint256"
								},
								{
									"internalType": "uint256",
									"name": "eth_amount",
									"type": "uint256"
								},
								{
									"internalType": "uint256",
									"name": "time",
									"type": "uint256"
								}
							],
							"internalType": "struct DEX.Stack_Struct[]",
							"name": "",
							"type": "tuple[]"
						}
					],
					"stateMutability": "view",
					"type": "function"
				},
				{
					"inputs": [],
					"name": "owner",
					"outputs": [
						{
							"internalType": "address",
							"name": "",
							"type": "address"
						}
					],
					"stateMutability": "view",
					"type": "function"
				},
				{
					"inputs": [],
					"name": "pause",
					"outputs": [],
					"stateMutability": "nonpayable",
					"type": "function"
				},
				{
					"inputs": [],
					"name": "paused",
					"outputs": [
						{
							"internalType": "bool",
							"name": "",
							"type": "bool"
						}
					],
					"stateMutability": "view",
					"type": "function"
				},
				{
					"inputs": [],
					"name": "precision",
					"outputs": [
						{
							"internalType": "uint256",
							"name": "",
							"type": "uint256"
						}
					],
					"stateMutability": "view",
					"type": "function"
				},
				{
					"inputs": [],
					"name": "renounceOwnership",
					"outputs": [],
					"stateMutability": "nonpayable",
					"type": "function"
				},
				{
					"inputs": [
						{
							"internalType": "uint256",
							"name": "eth_amount",
							"type": "uint256"
						}
					],
					"name": "sell",
					"outputs": [],
					"stateMutability": "nonpayable",
					"type": "function"
				},
				{
					"inputs": [
						{
							"internalType": "uint256",
							"name": "meme_amount",
							"type": "uint256"
						}
					],
					"name": "stack",
					"outputs": [],
					"stateMutability": "payable",
					"type": "function"
				},
				{
					"inputs": [],
					"name": "stackingRate",
					"outputs": [
						{
							"internalType": "uint256",
							"name": "",
							"type": "uint256"
						}
					],
					"stateMutability": "view",
					"type": "function"
				},
				{
					"inputs": [],
					"name": "taxRate",
					"outputs": [
						{
							"internalType": "uint256",
							"name": "",
							"type": "uint256"
						}
					],
					"stateMutability": "view",
					"type": "function"
				},
				{
					"inputs": [
						{
							"internalType": "address",
							"name": "newOwner",
							"type": "address"
						}
					],
					"name": "transferOwnership",
					"outputs": [],
					"stateMutability": "nonpayable",
					"type": "function"
				},
				{
					"inputs": [],
					"name": "unpause",
					"outputs": [],
					"stateMutability": "nonpayable",
					"type": "function"
				},
				{
					"inputs": [
						{
							"internalType": "uint256",
							"name": "index",
							"type": "uint256"
						}
					],
					"name": "unstack",
					"outputs": [],
					"stateMutability": "nonpayable",
					"type": "function"
				}
			],
			"devdoc": {
				"events": {
					"Paused(address)": {
						"details": "Emitted when the pause is triggered by `account`."
					},
					"Unpaused(address)": {
						"details": "Emitted when the pause is lifted by `account`."
					}
				},
				"kind": "dev",
				"methods": {
					"owner()": {
						"details": "Returns the address of the current owner."
					},
					"paused()": {
						"details": "Returns true if the contract is paused, and false otherwise."
					},
					"renounceOwnership()": {
						"details": "Leaves the contract without owner. It will not be possible to call `onlyOwner` functions anymore. Can only be called by the current owner. NOTE: Renouncing ownership will leave the contract without an owner, thereby removing any functionality that is only available to the owner."
					},
					"transferOwnership(address)": {
						"details": "Transfers ownership of the contract to a new account (`newOwner`). Can only be called by the current owner."
					}
				},
				"version": 1
			},
			"evm": {
				"assembly": "    /* \"DEX.sol_flattened.sol\":24286:31737  contract DEX is Pausable, Ownable {... */\n  mstore(0x40, 0x80)\n    /* \"DEX.sol_flattened.sol\":25043:25048  10e18 */\n  0x8ac7230489e80000\n    /* \"DEX.sol_flattened.sol\":25016:25048  uint256 public precision = 10e18 */\n  0x08\n  sstore\n    /* \"DEX.sol_flattened.sol\":25098:25100  10 */\n  0x0a\n    /* \"DEX.sol_flattened.sol\":25085:25094  precision */\n  sload(0x08)\n    /* \"DEX.sol_flattened.sol\":25081:25082  3 */\n  0x03\n    /* \"DEX.sol_flattened.sol\":25081:25094  3 * precision */\n  tag_1\n  swap2\n  swap1\n  tag_2\n  jump\t// in\ntag_1:\n    /* \"DEX.sol_flattened.sol\":25080:25100  (3 * precision) / 10 */\n  tag_3\n  swap2\n  swap1\n  tag_4\n  jump\t// in\ntag_3:\n    /* \"DEX.sol_flattened.sol\":25055:25100  uint256 public taxRate = (3 * precision) / 10 */\n  0x09\n  sstore\n    /* \"DEX.sol_flattened.sol\":25107:25206  constructor(address addr) {... */\n  callvalue\n  dup1\n  iszero\n  tag_5\n  jumpi\n  0x00\n  dup1\n  revert\ntag_5:\n  pop\n  mload(0x40)\n  sub(codesize, bytecodeSize)\n  dup1\n  bytecodeSize\n  dup4\n  codecopy\n  dup2\n  add\n  0x40\n  dup2\n  swap1\n  mstore\n  tag_6\n  swap2\n  tag_7\n  jump\t// in\ntag_6:\n    /* \"DEX.sol_flattened.sol\":22045:22050  false */\n  0x00\n    /* \"DEX.sol_flattened.sol\":22035:22050  _paused = false */\n  dup1\n  sload\n  not(0xff)\n  and\n  swap1\n  sstore\n    /* \"DEX.sol_flattened.sol\":19357:19389  _transferOwnership(_msgSender()) */\n  tag_13\n    /* \"DEX.sol_flattened.sol\":4240:4250  msg.sender */\n  caller\n    /* \"DEX.sol_flattened.sol\":19357:19375  _transferOwnership */\n  tag_16\n    /* \"DEX.sol_flattened.sol\":19357:19389  _transferOwnership(_msgSender()) */\n  jump\t// in\ntag_13:\n    /* \"DEX.sol_flattened.sol\":25143:25147  meme */\n  0x01\n    /* \"DEX.sol_flattened.sol\":25143:25160  meme = MEME(addr) */\n  dup1\n  sload\n  not(sub(shl(0xa0, 0x01), 0x01))\n  and\n  sub(shl(0xa0, 0x01), 0x01)\n  swap3\n  swap1\n  swap3\n  and\n  swap2\n  swap1\n  swap2\n  or\n  swap1\n  sstore\n    /* \"DEX.sol_flattened.sol\":24286:31737  contract DEX is Pausable, Ownable {... */\n  jump(tag_21)\n    /* \"DEX.sol_flattened.sol\":20854:21041  function _transferOwnership(address newOwner) internal virtual {... */\ntag_16:\n    /* \"DEX.sol_flattened.sol\":20927:20943  address oldOwner */\n  0x00\n    /* \"DEX.sol_flattened.sol\":20946:20952  _owner */\n  dup1\n  sload\n  sub(shl(0xa0, 0x01), 0x01)\n    /* \"DEX.sol_flattened.sol\":20962:20979  _owner = newOwner */\n  dup4\n  dup2\n  and\n    /* \"DEX.sol_flattened.sol\":20946:20952  _owner */\n  0x0100\n    /* \"DEX.sol_flattened.sol\":20962:20979  _owner = newOwner */\n  dup2\n  dup2\n  mul\n  not(sub(shl(0xa8, 0x01), 0x0100))\n  dup6\n  and\n  or\n  dup6\n  sstore\n    /* \"DEX.sol_flattened.sol\":20994:21034  OwnershipTransferred(oldOwner, newOwner) */\n  mload(0x40)\n    /* \"DEX.sol_flattened.sol\":20946:20952  _owner */\n  swap4\n  div\n  swap2\n  swap1\n  swap2\n  and\n  swap3\n    /* \"DEX.sol_flattened.sol\":20962:20979  _owner = newOwner */\n  swap1\n  swap2\n    /* \"DEX.sol_flattened.sol\":20946:20952  _owner */\n  dup4\n  swap2\n    /* \"DEX.sol_flattened.sol\":20994:21034  OwnershipTransferred(oldOwner, newOwner) */\n  0x8be0079c531659141344cd1fd0a4f28419497f9722a3daafe3b4186f6b6457e0\n  swap2\n  log3\n    /* \"DEX.sol_flattened.sol\":20917:21041  {... */\n  pop\n    /* \"DEX.sol_flattened.sol\":20854:21041  function _transferOwnership(address newOwner) internal virtual {... */\n  pop\n  jump\t// out\n    /* \"#utility.yul\":14:279   */\ntag_2:\n    /* \"#utility.yul\":87:96   */\n  dup1\n  dup3\n  mul\n    /* \"#utility.yul\":118:127   */\n  dup2\n  iszero\n    /* \"#utility.yul\":135:150   */\n  dup3\n  dup3\n  div\n    /* \"#utility.yul\":129:151   */\n  dup5\n  eq\n    /* \"#utility.yul\":115:152   */\n  or\n    /* \"#utility.yul\":105:273   */\n  tag_23\n  jumpi\n    /* \"#utility.yul\":195:205   */\n  0x4e487b71\n    /* \"#utility.yul\":190:193   */\n  0xe0\n    /* \"#utility.yul\":186:206   */\n  shl\n    /* \"#utility.yul\":183:184   */\n  0x00\n    /* \"#utility.yul\":176:207   */\n  mstore\n    /* \"#utility.yul\":230:234   */\n  0x11\n    /* \"#utility.yul\":227:228   */\n  0x04\n    /* \"#utility.yul\":220:235   */\n  mstore\n    /* \"#utility.yul\":258:262   */\n  0x24\n    /* \"#utility.yul\":255:256   */\n  0x00\n    /* \"#utility.yul\":248:263   */\n  revert\n    /* \"#utility.yul\":105:273   */\ntag_23:\n    /* \"#utility.yul\":14:279   */\n  swap3\n  swap2\n  pop\n  pop\n  jump\t// out\n    /* \"#utility.yul\":284:501   */\ntag_4:\n    /* \"#utility.yul\":324:325   */\n  0x00\n    /* \"#utility.yul\":350:351   */\n  dup3\n    /* \"#utility.yul\":340:472   */\n  tag_25\n  jumpi\n    /* \"#utility.yul\":394:404   */\n  0x4e487b71\n    /* \"#utility.yul\":389:392   */\n  0xe0\n    /* \"#utility.yul\":385:405   */\n  shl\n    /* \"#utility.yul\":382:383   */\n  0x00\n    /* \"#utility.yul\":375:406   */\n  mstore\n    /* \"#utility.yul\":429:433   */\n  0x12\n    /* \"#utility.yul\":426:427   */\n  0x04\n    /* \"#utility.yul\":419:434   */\n  mstore\n    /* \"#utility.yul\":457:461   */\n  0x24\n    /* \"#utility.yul\":454:455   */\n  0x00\n    /* \"#utility.yul\":447:462   */\n  revert\n    /* \"#utility.yul\":340:472   */\ntag_25:\n  pop\n    /* \"#utility.yul\":486:495   */\n  div\n  swap1\n    /* \"#utility.yul\":284:501   */\n  jump\t// out\n    /* \"#utility.yul\":506:796   */\ntag_7:\n    /* \"#utility.yul\":576:582   */\n  0x00\n    /* \"#utility.yul\":629:631   */\n  0x20\n    /* \"#utility.yul\":617:626   */\n  dup3\n    /* \"#utility.yul\":608:615   */\n  dup5\n    /* \"#utility.yul\":604:627   */\n  sub\n    /* \"#utility.yul\":600:632   */\n  slt\n    /* \"#utility.yul\":597:649   */\n  iszero\n  tag_27\n  jumpi\n    /* \"#utility.yul\":645:646   */\n  0x00\n    /* \"#utility.yul\":642:643   */\n  dup1\n    /* \"#utility.yul\":635:647   */\n  revert\n    /* \"#utility.yul\":597:649   */\ntag_27:\n    /* \"#utility.yul\":671:687   */\n  dup2\n  mload\n  sub(shl(0xa0, 0x01), 0x01)\n    /* \"#utility.yul\":716:747   */\n  dup2\n  and\n    /* \"#utility.yul\":706:748   */\n  dup2\n  eq\n    /* \"#utility.yul\":696:766   */\n  tag_28\n  jumpi\n    /* \"#utility.yul\":762:763   */\n  0x00\n    /* \"#utility.yul\":759:760   */\n  dup1\n    /* \"#utility.yul\":752:764   */\n  revert\n    /* \"#utility.yul\":696:766   */\ntag_28:\n    /* \"#utility.yul\":785:790   */\n  swap4\n    /* \"#utility.yul\":506:796   */\n  swap3\n  pop\n  pop\n  pop\n  jump\t// out\ntag_21:\n    /* \"DEX.sol_flattened.sol\":24286:31737  contract DEX is Pausable, Ownable {... */\n  dataSize(sub_0)\n  dup1\n  dataOffset(sub_0)\n  0x00\n  codecopy\n  0x00\n  return\nstop\n\nsub_0: assembly {\n        /* \"DEX.sol_flattened.sol\":24286:31737  contract DEX is Pausable, Ownable {... */\n      mstore(0x40, 0x80)\n      jumpi(tag_1, lt(calldatasize, 0x04))\n      shr(0xe0, calldataload(0x00))\n      dup1\n      0x771a3a1d\n      gt\n      tag_22\n      jumpi\n      dup1\n      0xd96a094a\n      gt\n      tag_23\n      jumpi\n      dup1\n      0xd96a094a\n      eq\n      tag_17\n      jumpi\n      dup1\n      0xdc9031c4\n      eq\n      tag_18\n      jumpi\n      dup1\n      0xe4849b32\n      eq\n      tag_19\n      jumpi\n      dup1\n      0xe8bca8b8\n      eq\n      tag_20\n      jumpi\n      dup1\n      0xf2fde38b\n      eq\n      tag_21\n      jumpi\n      0x00\n      dup1\n      revert\n    tag_23:\n      dup1\n      0x771a3a1d\n      eq\n      tag_12\n      jumpi\n      dup1\n      0x8456cb59\n      eq\n      tag_13\n      jumpi\n      dup1\n      0x8da5cb5b\n      eq\n      tag_14\n      jumpi\n      dup1\n      0x9c74f05d\n      eq\n      tag_15\n      jumpi\n      dup1\n      0xd3b5dc3b\n      eq\n      tag_16\n      jumpi\n      0x00\n      dup1\n      revert\n    tag_22:\n      dup1\n      0x2ad9d559\n      gt\n      tag_24\n      jumpi\n      dup1\n      0x2ad9d559\n      eq\n      tag_7\n      jumpi\n      dup1\n      0x3f4ba83a\n      eq\n      tag_8\n      jumpi\n      dup1\n      0x5c572ed0\n      eq\n      tag_9\n      jumpi\n      dup1\n      0x5c975abb\n      eq\n      tag_10\n      jumpi\n      dup1\n      0x715018a6\n      eq\n      tag_11\n      jumpi\n      0x00\n      dup1\n      revert\n    tag_24:\n      dup1\n      0x1a753fed\n      eq\n      tag_2\n      jumpi\n      dup1\n      0x1b82c27f\n      eq\n      tag_3\n      jumpi\n      dup1\n      0x200061df\n      eq\n      tag_4\n      jumpi\n      dup1\n      0x28726bda\n      eq\n      tag_5\n      jumpi\n      dup1\n      0x29809703\n      eq\n      tag_6\n      jumpi\n    tag_1:\n      0x00\n      dup1\n      revert\n        /* \"DEX.sol_flattened.sol\":29506:30145  function getETHPrice(uint256 eth_amount) public view returns (uint256) {... */\n    tag_2:\n      callvalue\n      dup1\n      iszero\n      tag_25\n      jumpi\n      0x00\n      dup1\n      revert\n    tag_25:\n      pop\n      tag_26\n      tag_27\n      calldatasize\n      0x04\n      tag_28\n      jump\t// in\n    tag_27:\n      tag_29\n      jump\t// in\n    tag_26:\n      mload(0x40)\n        /* \"#utility.yul\":345:370   */\n      swap1\n      dup2\n      mstore\n        /* \"#utility.yul\":333:335   */\n      0x20\n        /* \"#utility.yul\":318:336   */\n      add\n        /* \"DEX.sol_flattened.sol\":29506:30145  function getETHPrice(uint256 eth_amount) public view returns (uint256) {... */\n    tag_30:\n      mload(0x40)\n      dup1\n      swap2\n      sub\n      swap1\n      return\n        /* \"DEX.sol_flattened.sol\":24946:24963  uint256 public _k */\n    tag_3:\n      callvalue\n      dup1\n      iszero\n      tag_32\n      jumpi\n      0x00\n      dup1\n      revert\n    tag_32:\n      pop\n      tag_26\n      sload(0x05)\n      dup2\n      jump\n        /* \"DEX.sol_flattened.sol\":25860:25990  function unstack(uint256 index) public {... */\n    tag_4:\n      callvalue\n      dup1\n      iszero\n      tag_36\n      jumpi\n      0x00\n      dup1\n      revert\n    tag_36:\n      pop\n      tag_37\n      tag_38\n      calldatasize\n      0x04\n      tag_28\n      jump\t// in\n    tag_38:\n      tag_39\n      jump\t// in\n    tag_37:\n      stop\n        /* \"DEX.sol_flattened.sol\":24992:25009  uint256 public _y */\n    tag_5:\n      callvalue\n      dup1\n      iszero\n      tag_40\n      jumpi\n      0x00\n      dup1\n      revert\n    tag_40:\n      pop\n      tag_26\n      sload(0x07)\n      dup2\n      jump\n        /* \"DEX.sol_flattened.sol\":24969:24986  uint256 public _x */\n    tag_6:\n      callvalue\n      dup1\n      iszero\n      tag_44\n      jumpi\n      0x00\n      dup1\n      revert\n    tag_44:\n      pop\n      tag_26\n      sload(0x06)\n      dup2\n      jump\n        /* \"DEX.sol_flattened.sol\":24862:24905  mapping(uint256 => uint256) public dailyTax */\n    tag_7:\n      callvalue\n      dup1\n      iszero\n      tag_48\n      jumpi\n      0x00\n      dup1\n      revert\n    tag_48:\n      pop\n      tag_26\n      tag_50\n      calldatasize\n      0x04\n      tag_28\n      jump\t// in\n    tag_50:\n      mstore(0x20, 0x03)\n      0x00\n      swap1\n      dup2\n      mstore\n      0x40\n      swap1\n      keccak256\n      sload\n      dup2\n      jump\n        /* \"DEX.sol_flattened.sol\":25277:25340  function unpause() public onlyOwner {... */\n    tag_8:\n      callvalue\n      dup1\n      iszero\n      tag_53\n      jumpi\n      0x00\n      dup1\n      revert\n    tag_53:\n      pop\n      tag_37\n      tag_55\n      jump\t// in\n        /* \"DEX.sol_flattened.sol\":28865:29500  function getMemePrice(uint256 meme_amount) public view returns (uint256) {... */\n    tag_9:\n      callvalue\n      dup1\n      iszero\n      tag_56\n      jumpi\n      0x00\n      dup1\n      revert\n    tag_56:\n      pop\n      tag_26\n      tag_58\n      calldatasize\n      0x04\n      tag_28\n      jump\t// in\n    tag_58:\n      tag_59\n      jump\t// in\n        /* \"DEX.sol_flattened.sol\":22654:22738  function paused() public view virtual returns (bool) {... */\n    tag_10:\n      callvalue\n      dup1\n      iszero\n      tag_61\n      jumpi\n      0x00\n      dup1\n      revert\n    tag_61:\n      pop\n        /* \"DEX.sol_flattened.sol\":22701:22705  bool */\n      0x00\n        /* \"DEX.sol_flattened.sol\":22724:22731  _paused */\n      sload\n      0xff\n      and\n        /* \"DEX.sol_flattened.sol\":22654:22738  function paused() public view virtual returns (bool) {... */\n      mload(0x40)\n        /* \"#utility.yul\":546:560   */\n      swap1\n      iszero\n        /* \"#utility.yul\":539:561   */\n      iszero\n        /* \"#utility.yul\":521:562   */\n      dup2\n      mstore\n        /* \"#utility.yul\":509:511   */\n      0x20\n        /* \"#utility.yul\":494:512   */\n      add\n        /* \"DEX.sol_flattened.sol\":22654:22738  function paused() public view virtual returns (bool) {... */\n      tag_30\n        /* \"#utility.yul\":381:568   */\n      jump\n        /* \"DEX.sol_flattened.sol\":20252:20353  function renounceOwnership() public virtual onlyOwner {... */\n    tag_11:\n      callvalue\n      dup1\n      iszero\n      tag_66\n      jumpi\n      0x00\n      dup1\n      revert\n    tag_66:\n      pop\n      tag_37\n      tag_68\n      jump\t// in\n        /* \"DEX.sol_flattened.sol\":25055:25100  uint256 public taxRate = (3 * precision) / 10 */\n    tag_12:\n      callvalue\n      dup1\n      iszero\n      tag_69\n      jumpi\n      0x00\n      dup1\n      revert\n    tag_69:\n      pop\n      tag_26\n      sload(0x09)\n      dup2\n      jump\n        /* \"DEX.sol_flattened.sol\":25212:25271  function pause() public onlyOwner {... */\n    tag_13:\n      callvalue\n      dup1\n      iszero\n      tag_73\n      jumpi\n      0x00\n      dup1\n      revert\n    tag_73:\n      pop\n      tag_37\n      tag_75\n      jump\t// in\n        /* \"DEX.sol_flattened.sol\":19622:19707  function owner() public view virtual returns (address) {... */\n    tag_14:\n      callvalue\n      dup1\n      iszero\n      tag_76\n      jumpi\n      0x00\n      dup1\n      revert\n    tag_76:\n      pop\n        /* \"DEX.sol_flattened.sol\":19668:19675  address */\n      0x00\n        /* \"DEX.sol_flattened.sol\":19694:19700  _owner */\n      sload\n      0x0100\n      swap1\n      div\n      sub(shl(0xa0, 0x01), 0x01)\n      and\n        /* \"DEX.sol_flattened.sol\":19622:19707  function owner() public view virtual returns (address) {... */\n      mload(0x40)\n      sub(shl(0xa0, 0x01), 0x01)\n        /* \"#utility.yul\":737:769   */\n      swap1\n      swap2\n      and\n        /* \"#utility.yul\":719:770   */\n      dup2\n      mstore\n        /* \"#utility.yul\":707:709   */\n      0x20\n        /* \"#utility.yul\":692:710   */\n      add\n        /* \"DEX.sol_flattened.sol\":19622:19707  function owner() public view virtual returns (address) {... */\n      tag_30\n        /* \"#utility.yul\":573:776   */\n      jump\n        /* \"DEX.sol_flattened.sol\":24912:24939  uint256 public stackingRate */\n    tag_15:\n      callvalue\n      dup1\n      iszero\n      tag_81\n      jumpi\n      0x00\n      dup1\n      revert\n    tag_81:\n      pop\n      tag_26\n      sload(0x04)\n      dup2\n      jump\n        /* \"DEX.sol_flattened.sol\":25016:25048  uint256 public precision = 10e18 */\n    tag_16:\n      callvalue\n      dup1\n      iszero\n      tag_85\n      jumpi\n      0x00\n      dup1\n      revert\n    tag_85:\n      pop\n      tag_26\n      sload(0x08)\n      dup2\n      jump\n        /* \"DEX.sol_flattened.sol\":30151:30715  function buy(uint256 meme_amount) public payable {... */\n    tag_17:\n      tag_37\n      tag_90\n      calldatasize\n      0x04\n      tag_28\n      jump\t// in\n    tag_90:\n      tag_91\n      jump\t// in\n        /* \"DEX.sol_flattened.sol\":25524:25854  function stack(uint256 meme_amount) public payable {... */\n    tag_18:\n      tag_37\n      tag_93\n      calldatasize\n      0x04\n      tag_28\n      jump\t// in\n    tag_93:\n      tag_94\n      jump\t// in\n        /* \"DEX.sol_flattened.sol\":30721:31302  function sell(uint256 eth_amount) public {... */\n    tag_19:\n      callvalue\n      dup1\n      iszero\n      tag_95\n      jumpi\n      0x00\n      dup1\n      revert\n    tag_95:\n      pop\n      tag_37\n      tag_97\n      calldatasize\n      0x04\n      tag_28\n      jump\t// in\n    tag_97:\n      tag_98\n      jump\t// in\n        /* \"DEX.sol_flattened.sol\":25410:25518  function getStacks() public view returns (Stack_Struct[] memory) {... */\n    tag_20:\n      callvalue\n      dup1\n      iszero\n      tag_99\n      jumpi\n      0x00\n      dup1\n      revert\n    tag_99:\n      pop\n      tag_100\n      tag_101\n      jump\t// in\n    tag_100:\n      mload(0x40)\n      tag_30\n      swap2\n      swap1\n      tag_103\n      jump\t// in\n        /* \"DEX.sol_flattened.sol\":20502:20700  function transferOwnership(address newOwner) public virtual onlyOwner {... */\n    tag_21:\n      callvalue\n      dup1\n      iszero\n      tag_104\n      jumpi\n      0x00\n      dup1\n      revert\n    tag_104:\n      pop\n      tag_37\n      tag_106\n      calldatasize\n      0x04\n      tag_107\n      jump\t// in\n    tag_106:\n      tag_108\n      jump\t// in\n        /* \"DEX.sol_flattened.sol\":29506:30145  function getETHPrice(uint256 eth_amount) public view returns (uint256) {... */\n    tag_29:\n        /* \"DEX.sol_flattened.sol\":29568:29575  uint256 */\n      0x00\n        /* \"DEX.sol_flattened.sol\":29600:29601  0 */\n      dup1\n        /* \"DEX.sol_flattened.sol\":29595:29597  _k */\n      sload(0x05)\n        /* \"DEX.sol_flattened.sol\":29595:29601  _k > 0 */\n      gt\n        /* \"DEX.sol_flattened.sol\":29587:29626  require(_k > 0, \"Not enough liquidity\") */\n      tag_110\n      jumpi\n      mload(0x40)\n      shl(0xe5, 0x461bcd)\n      dup2\n      mstore\n        /* \"#utility.yul\":2132:2134   */\n      0x20\n        /* \"DEX.sol_flattened.sol\":29587:29626  require(_k > 0, \"Not enough liquidity\") */\n      0x04\n      dup3\n      add\n        /* \"#utility.yul\":2114:2135   */\n      mstore\n        /* \"#utility.yul\":2171:2173   */\n      0x14\n        /* \"#utility.yul\":2151:2169   */\n      0x24\n      dup3\n      add\n        /* \"#utility.yul\":2144:2174   */\n      mstore\n      shl(0x60, 0x4e6f7420656e6f756768206c6971756964697479)\n        /* \"#utility.yul\":2190:2208   */\n      0x44\n      dup3\n      add\n        /* \"#utility.yul\":2183:2233   */\n      mstore\n        /* \"#utility.yul\":2250:2268   */\n      0x64\n      add\n        /* \"DEX.sol_flattened.sol\":29587:29626  require(_k > 0, \"Not enough liquidity\") */\n    tag_111:\n      mload(0x40)\n      dup1\n      swap2\n      sub\n      swap1\n      revert\n    tag_110:\n        /* \"DEX.sol_flattened.sol\":29636:29646  uint256 dx */\n      0x00\n        /* \"DEX.sol_flattened.sol\":29660:29670  uint256 dy */\n      dup1\n        /* \"DEX.sol_flattened.sol\":29688:29690  _x */\n      sload(0x06)\n        /* \"DEX.sol_flattened.sol\":29694:29695  0 */\n      0x00\n        /* \"DEX.sol_flattened.sol\":29688:29695  _x == 0 */\n      sub\n        /* \"DEX.sol_flattened.sol\":29684:29802  if (_x == 0) {... */\n      tag_113\n      jumpi\n        /* \"DEX.sol_flattened.sol\":29725:29735  eth_amount */\n      dup4\n        /* \"DEX.sol_flattened.sol\":29721:29722  1 */\n      0x01\n        /* \"DEX.sol_flattened.sol\":29716:29718  _k */\n      sload(0x05)\n        /* \"DEX.sol_flattened.sol\":29716:29722  _k / 1 */\n      tag_114\n      swap2\n      swap1\n      tag_115\n      jump\t// in\n    tag_114:\n        /* \"DEX.sol_flattened.sol\":29716:29735  _k / 1 - eth_amount */\n      tag_116\n      swap2\n      swap1\n      tag_117\n      jump\t// in\n    tag_116:\n        /* \"DEX.sol_flattened.sol\":29711:29735  dy = _k / 1 - eth_amount */\n      swap1\n      pop\n        /* \"DEX.sol_flattened.sol\":29684:29802  if (_x == 0) {... */\n      jump(tag_118)\n    tag_113:\n        /* \"DEX.sol_flattened.sol\":29781:29791  eth_amount */\n      dup4\n        /* \"DEX.sol_flattened.sol\":29776:29778  _x */\n      sload(0x06)\n        /* \"DEX.sol_flattened.sol\":29771:29773  _k */\n      sload(0x05)\n        /* \"DEX.sol_flattened.sol\":29771:29778  _k / _x */\n      tag_119\n      swap2\n      swap1\n      tag_115\n      jump\t// in\n    tag_119:\n        /* \"DEX.sol_flattened.sol\":29771:29791  _k / _x - eth_amount */\n      tag_120\n      swap2\n      swap1\n      tag_117\n      jump\t// in\n    tag_120:\n        /* \"DEX.sol_flattened.sol\":29766:29791  dy = _k / _x - eth_amount */\n      swap1\n      pop\n        /* \"DEX.sol_flattened.sol\":29684:29802  if (_x == 0) {... */\n    tag_118:\n        /* \"DEX.sol_flattened.sol\":29815:29817  dy */\n      dup1\n        /* \"DEX.sol_flattened.sol\":29821:29822  0 */\n      0x00\n        /* \"DEX.sol_flattened.sol\":29815:29822  dy == 0 */\n      sub\n        /* \"DEX.sol_flattened.sol\":29811:29903  if (dy == 0) {... */\n      tag_121\n      jumpi\n        /* \"DEX.sol_flattened.sol\":29848:29849  1 */\n      0x01\n        /* \"DEX.sol_flattened.sol\":29843:29845  _k */\n      sload(0x05)\n        /* \"DEX.sol_flattened.sol\":29843:29849  _k / 1 */\n      tag_122\n      swap2\n      swap1\n      tag_115\n      jump\t// in\n    tag_122:\n        /* \"DEX.sol_flattened.sol\":29838:29849  dx = _k / 1 */\n      swap2\n      pop\n        /* \"DEX.sol_flattened.sol\":29811:29903  if (dy == 0) {... */\n      jump(tag_123)\n    tag_121:\n        /* \"DEX.sol_flattened.sol\":29890:29892  dy */\n      dup1\n        /* \"DEX.sol_flattened.sol\":29885:29887  _k */\n      sload(0x05)\n        /* \"DEX.sol_flattened.sol\":29885:29892  _k / dy */\n      tag_124\n      swap2\n      swap1\n      tag_115\n      jump\t// in\n    tag_124:\n        /* \"DEX.sol_flattened.sol\":29880:29892  dx = _k / dy */\n      swap2\n      pop\n        /* \"DEX.sol_flattened.sol\":29811:29903  if (dy == 0) {... */\n    tag_123:\n        /* \"DEX.sol_flattened.sol\":29912:29942  uint256 meme_price_without_tax */\n      0x00\n        /* \"DEX.sol_flattened.sol\":29950:29952  _x */\n      sload(0x06)\n        /* \"DEX.sol_flattened.sol\":29945:29947  dx */\n      dup4\n        /* \"DEX.sol_flattened.sol\":29945:29952  dx - _x */\n      tag_125\n      swap2\n      swap1\n      tag_117\n      jump\t// in\n    tag_125:\n        /* \"DEX.sol_flattened.sol\":29912:29952  uint256 meme_price_without_tax = dx - _x */\n      swap1\n      pop\n        /* \"DEX.sol_flattened.sol\":29962:29978  uint256 meme_tax */\n      0x00\n        /* \"DEX.sol_flattened.sol\":30018:30027  precision */\n      sload(0x08)\n        /* \"DEX.sol_flattened.sol\":30007:30014  taxRate */\n      sload(0x09)\n        /* \"DEX.sol_flattened.sol\":29982:30004  meme_price_without_tax */\n      dup4\n        /* \"DEX.sol_flattened.sol\":29982:30014  meme_price_without_tax * taxRate */\n      tag_126\n      swap2\n      swap1\n      tag_127\n      jump\t// in\n    tag_126:\n        /* \"DEX.sol_flattened.sol\":29981:30027  (meme_price_without_tax * taxRate) / precision */\n      tag_128\n      swap2\n      swap1\n      tag_115\n      jump\t// in\n    tag_128:\n        /* \"DEX.sol_flattened.sol\":29962:30027  uint256 meme_tax = (meme_price_without_tax * taxRate) / precision */\n      swap1\n      pop\n        /* \"DEX.sol_flattened.sol\":30038:30065  uint256 meme_price_with_tax */\n      0x00\n        /* \"DEX.sol_flattened.sol\":30068:30101  meme_price_without_tax - meme_tax */\n      tag_129\n        /* \"DEX.sol_flattened.sol\":29962:30027  uint256 meme_tax = (meme_price_without_tax * taxRate) / precision */\n      dup3\n        /* \"DEX.sol_flattened.sol\":30068:30090  meme_price_without_tax */\n      dup5\n        /* \"DEX.sol_flattened.sol\":30068:30101  meme_price_without_tax - meme_tax */\n      tag_117\n      jump\t// in\n    tag_129:\n        /* \"DEX.sol_flattened.sol\":30038:30101  uint256 meme_price_with_tax = meme_price_without_tax - meme_tax */\n      swap8\n        /* \"DEX.sol_flattened.sol\":29506:30145  function getETHPrice(uint256 eth_amount) public view returns (uint256) {... */\n      swap7\n      pop\n      pop\n      pop\n      pop\n      pop\n      pop\n      pop\n      jump\t// out\n        /* \"DEX.sol_flattened.sol\":25860:25990  function unstack(uint256 index) public {... */\n    tag_39:\n        /* \"DEX.sol_flattened.sol\":25968:25983  _unstack(index) */\n      tag_134\n        /* \"DEX.sol_flattened.sol\":25977:25982  index */\n      dup2\n        /* \"DEX.sol_flattened.sol\":25968:25976  _unstack */\n      tag_135\n        /* \"DEX.sol_flattened.sol\":25968:25983  _unstack(index) */\n      jump\t// in\n    tag_134:\n        /* \"DEX.sol_flattened.sol\":25860:25990  function unstack(uint256 index) public {... */\n      pop\n      jump\t// out\n        /* \"DEX.sol_flattened.sol\":25277:25340  function unpause() public onlyOwner {... */\n    tag_55:\n        /* \"DEX.sol_flattened.sol\":19515:19528  _checkOwner() */\n      tag_137\n        /* \"DEX.sol_flattened.sol\":19515:19526  _checkOwner */\n      tag_138\n        /* \"DEX.sol_flattened.sol\":19515:19528  _checkOwner() */\n      jump\t// in\n    tag_137:\n        /* \"DEX.sol_flattened.sol\":25323:25333  _unpause() */\n      tag_140\n        /* \"DEX.sol_flattened.sol\":25323:25331  _unpause */\n      tag_141\n        /* \"DEX.sol_flattened.sol\":25323:25333  _unpause() */\n      jump\t// in\n    tag_140:\n        /* \"DEX.sol_flattened.sol\":25277:25340  function unpause() public onlyOwner {... */\n      jump\t// out\n        /* \"DEX.sol_flattened.sol\":28865:29500  function getMemePrice(uint256 meme_amount) public view returns (uint256) {... */\n    tag_59:\n        /* \"DEX.sol_flattened.sol\":28929:28936  uint256 */\n      0x00\n        /* \"DEX.sol_flattened.sol\":28961:28962  0 */\n      dup1\n        /* \"DEX.sol_flattened.sol\":28956:28958  _k */\n      sload(0x05)\n        /* \"DEX.sol_flattened.sol\":28956:28962  _k > 0 */\n      gt\n        /* \"DEX.sol_flattened.sol\":28948:28987  require(_k > 0, \"Not enough liquidity\") */\n      tag_143\n      jumpi\n      mload(0x40)\n      shl(0xe5, 0x461bcd)\n      dup2\n      mstore\n        /* \"#utility.yul\":2132:2134   */\n      0x20\n        /* \"DEX.sol_flattened.sol\":28948:28987  require(_k > 0, \"Not enough liquidity\") */\n      0x04\n      dup3\n      add\n        /* \"#utility.yul\":2114:2135   */\n      mstore\n        /* \"#utility.yul\":2171:2173   */\n      0x14\n        /* \"#utility.yul\":2151:2169   */\n      0x24\n      dup3\n      add\n        /* \"#utility.yul\":2144:2174   */\n      mstore\n      shl(0x60, 0x4e6f7420656e6f756768206c6971756964697479)\n        /* \"#utility.yul\":2190:2208   */\n      0x44\n      dup3\n      add\n        /* \"#utility.yul\":2183:2233   */\n      mstore\n        /* \"#utility.yul\":2250:2268   */\n      0x64\n      add\n        /* \"DEX.sol_flattened.sol\":28948:28987  require(_k > 0, \"Not enough liquidity\") */\n      tag_111\n        /* \"#utility.yul\":1930:2274   */\n      jump\n        /* \"DEX.sol_flattened.sol\":28948:28987  require(_k > 0, \"Not enough liquidity\") */\n    tag_143:\n        /* \"DEX.sol_flattened.sol\":28997:29007  uint256 dx */\n      0x00\n        /* \"DEX.sol_flattened.sol\":29021:29031  uint256 dy */\n      dup1\n        /* \"DEX.sol_flattened.sol\":29049:29051  _y */\n      sload(0x07)\n        /* \"DEX.sol_flattened.sol\":29055:29056  0 */\n      0x00\n        /* \"DEX.sol_flattened.sol\":29049:29056  _y == 0 */\n      sub\n        /* \"DEX.sol_flattened.sol\":29045:29165  if (_y == 0) {... */\n      tag_145\n      jumpi\n        /* \"DEX.sol_flattened.sol\":29086:29097  meme_amount */\n      dup4\n        /* \"DEX.sol_flattened.sol\":29082:29083  1 */\n      0x01\n        /* \"DEX.sol_flattened.sol\":29077:29079  _k */\n      sload(0x05)\n        /* \"DEX.sol_flattened.sol\":29077:29083  _k / 1 */\n      tag_146\n      swap2\n      swap1\n      tag_115\n      jump\t// in\n    tag_146:\n        /* \"DEX.sol_flattened.sol\":29077:29097  _k / 1 - meme_amount */\n      tag_147\n      swap2\n      swap1\n      tag_117\n      jump\t// in\n    tag_147:\n        /* \"DEX.sol_flattened.sol\":29072:29097  dx = _k / 1 - meme_amount */\n      swap2\n      pop\n        /* \"DEX.sol_flattened.sol\":29045:29165  if (_y == 0) {... */\n      jump(tag_148)\n    tag_145:\n        /* \"DEX.sol_flattened.sol\":29143:29154  meme_amount */\n      dup4\n        /* \"DEX.sol_flattened.sol\":29138:29140  _y */\n      sload(0x07)\n        /* \"DEX.sol_flattened.sol\":29133:29135  _k */\n      sload(0x05)\n        /* \"DEX.sol_flattened.sol\":29133:29140  _k / _y */\n      tag_149\n      swap2\n      swap1\n      tag_115\n      jump\t// in\n    tag_149:\n        /* \"DEX.sol_flattened.sol\":29133:29154  _k / _y - meme_amount */\n      tag_150\n      swap2\n      swap1\n      tag_117\n      jump\t// in\n    tag_150:\n        /* \"DEX.sol_flattened.sol\":29128:29154  dx = _k / _y - meme_amount */\n      swap2\n      pop\n        /* \"DEX.sol_flattened.sol\":29045:29165  if (_y == 0) {... */\n    tag_148:\n        /* \"DEX.sol_flattened.sol\":29178:29180  dx */\n      dup2\n        /* \"DEX.sol_flattened.sol\":29184:29185  0 */\n      0x00\n        /* \"DEX.sol_flattened.sol\":29178:29185  dx == 0 */\n      sub\n        /* \"DEX.sol_flattened.sol\":29174:29266  if (dx == 0) {... */\n      tag_151\n      jumpi\n        /* \"DEX.sol_flattened.sol\":29211:29212  1 */\n      0x01\n        /* \"DEX.sol_flattened.sol\":29206:29208  _k */\n      sload(0x05)\n        /* \"DEX.sol_flattened.sol\":29206:29212  _k / 1 */\n      tag_152\n      swap2\n      swap1\n      tag_115\n      jump\t// in\n    tag_152:\n        /* \"DEX.sol_flattened.sol\":29201:29212  dy = _k / 1 */\n      swap1\n      pop\n        /* \"DEX.sol_flattened.sol\":29174:29266  if (dx == 0) {... */\n      jump(tag_153)\n    tag_151:\n        /* \"DEX.sol_flattened.sol\":29253:29255  dx */\n      dup2\n        /* \"DEX.sol_flattened.sol\":29248:29250  _k */\n      sload(0x05)\n        /* \"DEX.sol_flattened.sol\":29248:29255  _k / dx */\n      tag_154\n      swap2\n      swap1\n      tag_115\n      jump\t// in\n    tag_154:\n        /* \"DEX.sol_flattened.sol\":29243:29255  dy = _k / dx */\n      swap1\n      pop\n        /* \"DEX.sol_flattened.sol\":29174:29266  if (dx == 0) {... */\n    tag_153:\n        /* \"DEX.sol_flattened.sol\":29275:29304  uint256 eth_price_without_tax */\n      0x00\n        /* \"DEX.sol_flattened.sol\":29312:29314  _y */\n      sload(0x07)\n        /* \"DEX.sol_flattened.sol\":29307:29309  dy */\n      dup3\n        /* \"DEX.sol_flattened.sol\":29307:29314  dy - _y */\n      tag_155\n      swap2\n      swap1\n      tag_117\n      jump\t// in\n    tag_155:\n        /* \"DEX.sol_flattened.sol\":29275:29314  uint256 eth_price_without_tax = dy - _y */\n      swap1\n      pop\n        /* \"DEX.sol_flattened.sol\":29324:29339  uint256 eth_tax */\n      0x00\n        /* \"DEX.sol_flattened.sol\":29378:29387  precision */\n      sload(0x08)\n        /* \"DEX.sol_flattened.sol\":29367:29374  taxRate */\n      sload(0x09)\n        /* \"DEX.sol_flattened.sol\":29343:29364  eth_price_without_tax */\n      dup4\n        /* \"DEX.sol_flattened.sol\":29343:29374  eth_price_without_tax * taxRate */\n      tag_156\n      swap2\n      swap1\n      tag_127\n      jump\t// in\n    tag_156:\n        /* \"DEX.sol_flattened.sol\":29342:29387  (eth_price_without_tax * taxRate) / precision */\n      tag_157\n      swap2\n      swap1\n      tag_115\n      jump\t// in\n    tag_157:\n        /* \"DEX.sol_flattened.sol\":29324:29387  uint256 eth_tax = (eth_price_without_tax * taxRate) / precision */\n      swap1\n      pop\n        /* \"DEX.sol_flattened.sol\":29398:29424  uint256 eth_price_with_tax */\n      0x00\n        /* \"DEX.sol_flattened.sol\":29427:29458  eth_price_without_tax + eth_tax */\n      tag_129\n        /* \"DEX.sol_flattened.sol\":29324:29387  uint256 eth_tax = (eth_price_without_tax * taxRate) / precision */\n      dup3\n        /* \"DEX.sol_flattened.sol\":29427:29448  eth_price_without_tax */\n      dup5\n        /* \"DEX.sol_flattened.sol\":29427:29458  eth_price_without_tax + eth_tax */\n      tag_159\n      jump\t// in\n        /* \"DEX.sol_flattened.sol\":20252:20353  function renounceOwnership() public virtual onlyOwner {... */\n    tag_68:\n        /* \"DEX.sol_flattened.sol\":19515:19528  _checkOwner() */\n      tag_162\n        /* \"DEX.sol_flattened.sol\":19515:19526  _checkOwner */\n      tag_138\n        /* \"DEX.sol_flattened.sol\":19515:19528  _checkOwner() */\n      jump\t// in\n    tag_162:\n        /* \"DEX.sol_flattened.sol\":20316:20346  _transferOwnership(address(0)) */\n      tag_140\n        /* \"DEX.sol_flattened.sol\":20343:20344  0 */\n      0x00\n        /* \"DEX.sol_flattened.sol\":20316:20334  _transferOwnership */\n      tag_165\n        /* \"DEX.sol_flattened.sol\":20316:20346  _transferOwnership(address(0)) */\n      jump\t// in\n        /* \"DEX.sol_flattened.sol\":25212:25271  function pause() public onlyOwner {... */\n    tag_75:\n        /* \"DEX.sol_flattened.sol\":19515:19528  _checkOwner() */\n      tag_167\n        /* \"DEX.sol_flattened.sol\":19515:19526  _checkOwner */\n      tag_138\n        /* \"DEX.sol_flattened.sol\":19515:19528  _checkOwner() */\n      jump\t// in\n    tag_167:\n        /* \"DEX.sol_flattened.sol\":25256:25264  _pause() */\n      tag_140\n        /* \"DEX.sol_flattened.sol\":25256:25262  _pause */\n      tag_170\n        /* \"DEX.sol_flattened.sol\":25256:25264  _pause() */\n      jump\t// in\n        /* \"DEX.sol_flattened.sol\":30151:30715  function buy(uint256 meme_amount) public payable {... */\n    tag_91:\n        /* \"DEX.sol_flattened.sol\":30232:30233  0 */\n      0x00\n        /* \"DEX.sol_flattened.sol\":30218:30229  meme_amount */\n      dup2\n        /* \"DEX.sol_flattened.sol\":30218:30233  meme_amount > 0 */\n      gt\n        /* \"DEX.sol_flattened.sol\":30210:30252  require(meme_amount > 0, \"Send Some Meme\") */\n      tag_173\n      jumpi\n      mload(0x40)\n      shl(0xe5, 0x461bcd)\n      dup2\n      mstore\n        /* \"#utility.yul\":3626:3628   */\n      0x20\n        /* \"DEX.sol_flattened.sol\":30210:30252  require(meme_amount > 0, \"Send Some Meme\") */\n      0x04\n      dup3\n      add\n        /* \"#utility.yul\":3608:3629   */\n      mstore\n        /* \"#utility.yul\":3665:3667   */\n      0x0e\n        /* \"#utility.yul\":3645:3663   */\n      0x24\n      dup3\n      add\n        /* \"#utility.yul\":3638:3668   */\n      mstore\n      shl(0x90, 0x53656e6420536f6d65204d656d65)\n        /* \"#utility.yul\":3684:3702   */\n      0x44\n      dup3\n      add\n        /* \"#utility.yul\":3677:3721   */\n      mstore\n        /* \"#utility.yul\":3738:3756   */\n      0x64\n      add\n        /* \"DEX.sol_flattened.sol\":30210:30252  require(meme_amount > 0, \"Send Some Meme\") */\n      tag_111\n        /* \"#utility.yul\":3424:3762   */\n      jump\n        /* \"DEX.sol_flattened.sol\":30210:30252  require(meme_amount > 0, \"Send Some Meme\") */\n    tag_173:\n        /* \"DEX.sol_flattened.sol\":30262:30280  uint256 meme_price */\n      0x00\n        /* \"DEX.sol_flattened.sol\":30283:30308  getMemePrice(meme_amount) */\n      tag_176\n        /* \"DEX.sol_flattened.sol\":30296:30307  meme_amount */\n      dup3\n        /* \"DEX.sol_flattened.sol\":30283:30295  getMemePrice */\n      tag_59\n        /* \"DEX.sol_flattened.sol\":30283:30308  getMemePrice(meme_amount) */\n      jump\t// in\n    tag_176:\n        /* \"DEX.sol_flattened.sol\":30262:30308  uint256 meme_price = getMemePrice(meme_amount) */\n      swap1\n      pop\n        /* \"DEX.sol_flattened.sol\":30340:30349  msg.value */\n      callvalue\n        /* \"DEX.sol_flattened.sol\":30326:30336  meme_price */\n      dup2\n        /* \"DEX.sol_flattened.sol\":30326:30349  meme_price <= msg.value */\n      gt\n      iszero\n        /* \"DEX.sol_flattened.sol\":30318:30367  require(meme_price <= msg.value, \"Send More ETH\") */\n      tag_177\n      jumpi\n      mload(0x40)\n      shl(0xe5, 0x461bcd)\n      dup2\n      mstore\n        /* \"#utility.yul\":3969:3971   */\n      0x20\n        /* \"DEX.sol_flattened.sol\":30318:30367  require(meme_price <= msg.value, \"Send More ETH\") */\n      0x04\n      dup3\n      add\n        /* \"#utility.yul\":3951:3972   */\n      mstore\n        /* \"#utility.yul\":4008:4010   */\n      0x0d\n        /* \"#utility.yul\":3988:4006   */\n      0x24\n      dup3\n      add\n        /* \"#utility.yul\":3981:4011   */\n      mstore\n      shl(0x9b, 0x0a6cadcc8409adee4ca408aa89)\n        /* \"#utility.yul\":4027:4045   */\n      0x44\n      dup3\n      add\n        /* \"#utility.yul\":4020:4063   */\n      mstore\n        /* \"#utility.yul\":4080:4098   */\n      0x64\n      add\n        /* \"DEX.sol_flattened.sol\":30318:30367  require(meme_price <= msg.value, \"Send More ETH\") */\n      tag_111\n        /* \"#utility.yul\":3767:4104   */\n      jump\n        /* \"DEX.sol_flattened.sol\":30318:30367  require(meme_price <= msg.value, \"Send More ETH\") */\n    tag_177:\n        /* \"DEX.sol_flattened.sol\":30378:30382  meme */\n      sload(0x01)\n        /* \"DEX.sol_flattened.sol\":30378:30416  meme.transfer(msg.sender, meme_amount) */\n      mload(0x40)\n      shl(0xe0, 0xa9059cbb)\n      dup2\n      mstore\n        /* \"DEX.sol_flattened.sol\":30392:30402  msg.sender */\n      caller\n        /* \"DEX.sol_flattened.sol\":30378:30416  meme.transfer(msg.sender, meme_amount) */\n      0x04\n      dup3\n      add\n        /* \"#utility.yul\":4283:4334   */\n      mstore\n        /* \"#utility.yul\":4350:4368   */\n      0x24\n      dup2\n      add\n        /* \"#utility.yul\":4343:4377   */\n      dup5\n      swap1\n      mstore\n      sub(shl(0xa0, 0x01), 0x01)\n        /* \"DEX.sol_flattened.sol\":30378:30382  meme */\n      swap1\n      swap2\n      and\n      swap1\n        /* \"DEX.sol_flattened.sol\":30378:30391  meme.transfer */\n      0xa9059cbb\n      swap1\n        /* \"#utility.yul\":4256:4274   */\n      0x44\n      add\n        /* \"DEX.sol_flattened.sol\":30378:30416  meme.transfer(msg.sender, meme_amount) */\n      0x20\n      mload(0x40)\n      dup1\n      dup4\n      sub\n      dup2\n      0x00\n      dup8\n      gas\n      call\n      iszero\n      dup1\n      iszero\n      tag_183\n      jumpi\n      returndatasize\n      0x00\n      dup1\n      returndatacopy\n      revert(0x00, returndatasize)\n    tag_183:\n      pop\n      pop\n      pop\n      pop\n      mload(0x40)\n      returndatasize\n      not(0x1f)\n      0x1f\n      dup3\n      add\n      and\n      dup3\n      add\n      dup1\n      0x40\n      mstore\n      pop\n      dup2\n      add\n      swap1\n      tag_184\n      swap2\n      swap1\n      tag_185\n      jump\t// in\n    tag_184:\n      pop\n        /* \"DEX.sol_flattened.sol\":30434:30444  msg.sender */\n      caller\n        /* \"DEX.sol_flattened.sol\":30426:30478  payable(msg.sender).transfer(msg.value - meme_price) */\n      0x08fc\n        /* \"DEX.sol_flattened.sol\":30455:30477  msg.value - meme_price */\n      tag_186\n        /* \"DEX.sol_flattened.sol\":30467:30477  meme_price */\n      dup4\n        /* \"DEX.sol_flattened.sol\":30455:30464  msg.value */\n      callvalue\n        /* \"DEX.sol_flattened.sol\":30455:30477  msg.value - meme_price */\n      tag_117\n      jump\t// in\n    tag_186:\n        /* \"DEX.sol_flattened.sol\":30426:30478  payable(msg.sender).transfer(msg.value - meme_price) */\n      mload(0x40)\n      dup2\n      iszero\n      swap1\n      swap3\n      mul\n      swap2\n      0x00\n      dup2\n      dup2\n      dup2\n      dup6\n      dup9\n      dup9\n      call\n      swap4\n      pop\n      pop\n      pop\n      pop\n      iszero\n      dup1\n      iszero\n      tag_188\n      jumpi\n      returndatasize\n      0x00\n      dup1\n      returndatacopy\n      revert(0x00, returndatasize)\n    tag_188:\n      pop\n        /* \"DEX.sol_flattened.sol\":30591:30600  precision */\n      sload(0x08)\n        /* \"DEX.sol_flattened.sol\":30567:30574  taxRate */\n      sload(0x09)\n        /* \"DEX.sol_flattened.sol\":30555:30574  precision + taxRate */\n      tag_189\n      swap1\n        /* \"DEX.sol_flattened.sol\":30591:30600  precision */\n      dup3\n        /* \"DEX.sol_flattened.sol\":30555:30574  precision + taxRate */\n      tag_159\n      jump\t// in\n    tag_189:\n        /* \"DEX.sol_flattened.sol\":30540:30575  meme_amount * (precision + taxRate) */\n      tag_190\n      swap1\n        /* \"DEX.sol_flattened.sol\":30540:30551  meme_amount */\n      dup5\n        /* \"DEX.sol_flattened.sol\":30540:30575  meme_amount * (precision + taxRate) */\n      tag_127\n      jump\t// in\n    tag_190:\n        /* \"DEX.sol_flattened.sol\":30539:30600  (meme_amount * (precision + taxRate)) /... */\n      tag_191\n      swap2\n      swap1\n      tag_115\n      jump\t// in\n    tag_191:\n        /* \"DEX.sol_flattened.sol\":30489:30497  dailyTax */\n      0x03\n        /* \"DEX.sol_flattened.sol\":30489:30523  dailyTax[block.timestamp / 1 days] */\n      0x00\n        /* \"DEX.sol_flattened.sol\":30498:30522  block.timestamp / 1 days */\n      tag_192\n        /* \"DEX.sol_flattened.sol\":30516:30522  1 days */\n      0x015180\n        /* \"DEX.sol_flattened.sol\":30498:30513  block.timestamp */\n      timestamp\n        /* \"DEX.sol_flattened.sol\":30498:30522  block.timestamp / 1 days */\n      tag_115\n      jump\t// in\n    tag_192:\n        /* \"DEX.sol_flattened.sol\":30489:30523  dailyTax[block.timestamp / 1 days] */\n      dup2\n      mstore\n      0x20\n      add\n      swap1\n      dup2\n      mstore\n      0x20\n      add\n      0x00\n      keccak256\n      0x00\n        /* \"DEX.sol_flattened.sol\":30489:30600  dailyTax[block.timestamp / 1 days] +=... */\n      dup3\n      dup3\n      sload\n      tag_193\n      swap2\n      swap1\n      tag_159\n      jump\t// in\n    tag_193:\n      swap3\n      pop\n      pop\n      dup2\n      swap1\n      sstore\n      pop\n        /* \"DEX.sol_flattened.sol\":30617:30628  meme_amount */\n      dup2\n        /* \"DEX.sol_flattened.sol\":30611:30613  _x */\n      0x06\n      0x00\n        /* \"DEX.sol_flattened.sol\":30611:30628  _x -= meme_amount */\n      dup3\n      dup3\n      sload\n      tag_194\n      swap2\n      swap1\n      tag_117\n      jump\t// in\n    tag_194:\n      swap1\n      swap2\n      sstore\n      pop\n      pop\n        /* \"DEX.sol_flattened.sol\":30649:30651  _x */\n      sload(0x06)\n        /* \"DEX.sol_flattened.sol\":30644:30646  _k */\n      sload(0x05)\n        /* \"DEX.sol_flattened.sol\":30644:30651  _k / _x */\n      tag_195\n      swap2\n        /* \"DEX.sol_flattened.sol\":30649:30651  _x */\n      swap1\n        /* \"DEX.sol_flattened.sol\":30644:30651  _k / _x */\n      tag_115\n      jump\t// in\n    tag_195:\n        /* \"DEX.sol_flattened.sol\":30638:30640  _y */\n      0x07\n        /* \"DEX.sol_flattened.sol\":30638:30652  _y = (_k / _x) */\n      sstore\n        /* \"DEX.sol_flattened.sol\":30668:30708  Buy(msg.sender, meme_amount, meme_price) */\n      0x40\n      dup1\n      mload\n        /* \"#utility.yul\":4844:4869   */\n      dup4\n      dup2\n      mstore\n        /* \"#utility.yul\":4900:4902   */\n      0x20\n        /* \"#utility.yul\":4885:4903   */\n      dup2\n      add\n        /* \"#utility.yul\":4878:4912   */\n      dup4\n      swap1\n      mstore\n        /* \"DEX.sol_flattened.sol\":30672:30682  msg.sender */\n      caller\n      swap2\n        /* \"DEX.sol_flattened.sol\":30668:30708  Buy(msg.sender, meme_amount, meme_price) */\n      0x1cbc5ab135991bd2b6a4b034a04aa2aa086dac1371cb9b16b8b5e2ed6b036bed\n      swap2\n        /* \"#utility.yul\":4817:4835   */\n      add\n        /* \"DEX.sol_flattened.sol\":30668:30708  Buy(msg.sender, meme_amount, meme_price) */\n    tag_196:\n      mload(0x40)\n      dup1\n      swap2\n      sub\n      swap1\n      log2\n        /* \"DEX.sol_flattened.sol\":30200:30715  {... */\n      pop\n        /* \"DEX.sol_flattened.sol\":30151:30715  function buy(uint256 meme_amount) public payable {... */\n      pop\n      jump\t// out\n        /* \"DEX.sol_flattened.sol\":25524:25854  function stack(uint256 meme_amount) public payable {... */\n    tag_94:\n        /* \"DEX.sol_flattened.sol\":25607:25608  0 */\n      0x00\n        /* \"DEX.sol_flattened.sol\":25593:25604  meme_amount */\n      dup2\n        /* \"DEX.sol_flattened.sol\":25593:25608  meme_amount > 0 */\n      gt\n        /* \"DEX.sol_flattened.sol\":25585:25627  require(meme_amount > 0, \"Send more MEME\") */\n      tag_199\n      jumpi\n      mload(0x40)\n      shl(0xe5, 0x461bcd)\n      dup2\n      mstore\n        /* \"#utility.yul\":5125:5127   */\n      0x20\n        /* \"DEX.sol_flattened.sol\":25585:25627  require(meme_amount > 0, \"Send more MEME\") */\n      0x04\n      dup3\n      add\n        /* \"#utility.yul\":5107:5128   */\n      mstore\n        /* \"#utility.yul\":5164:5166   */\n      0x0e\n        /* \"#utility.yul\":5144:5162   */\n      0x24\n      dup3\n      add\n        /* \"#utility.yul\":5137:5167   */\n      mstore\n      shl(0x90, 0x53656e64206d6f7265204d454d45)\n        /* \"#utility.yul\":5183:5201   */\n      0x44\n      dup3\n      add\n        /* \"#utility.yul\":5176:5220   */\n      mstore\n        /* \"#utility.yul\":5237:5255   */\n      0x64\n      add\n        /* \"DEX.sol_flattened.sol\":25585:25627  require(meme_amount > 0, \"Send more MEME\") */\n      tag_111\n        /* \"#utility.yul\":4923:5261   */\n      jump\n        /* \"DEX.sol_flattened.sol\":25585:25627  require(meme_amount > 0, \"Send more MEME\") */\n    tag_199:\n        /* \"DEX.sol_flattened.sol\":25657:25658  0 */\n      0x00\n        /* \"DEX.sol_flattened.sol\":25645:25654  msg.value */\n      callvalue\n        /* \"DEX.sol_flattened.sol\":25645:25658  msg.value > 0 */\n      gt\n        /* \"DEX.sol_flattened.sol\":25637:25676  require(msg.value > 0, \"Send more ETH\") */\n      tag_202\n      jumpi\n      mload(0x40)\n      shl(0xe5, 0x461bcd)\n      dup2\n      mstore\n        /* \"#utility.yul\":5468:5470   */\n      0x20\n        /* \"DEX.sol_flattened.sol\":25637:25676  require(msg.value > 0, \"Send more ETH\") */\n      0x04\n      dup3\n      add\n        /* \"#utility.yul\":5450:5471   */\n      mstore\n        /* \"#utility.yul\":5507:5509   */\n      0x0d\n        /* \"#utility.yul\":5487:5505   */\n      0x24\n      dup3\n      add\n        /* \"#utility.yul\":5480:5510   */\n      mstore\n      shl(0x9b, 0x0a6cadcc840dadee4ca408aa89)\n        /* \"#utility.yul\":5526:5544   */\n      0x44\n      dup3\n      add\n        /* \"#utility.yul\":5519:5562   */\n      mstore\n        /* \"#utility.yul\":5579:5597   */\n      0x64\n      add\n        /* \"DEX.sol_flattened.sol\":25637:25676  require(msg.value > 0, \"Send more ETH\") */\n      tag_111\n        /* \"#utility.yul\":5266:5603   */\n      jump\n        /* \"DEX.sol_flattened.sol\":25637:25676  require(msg.value > 0, \"Send more ETH\") */\n    tag_202:\n        /* \"DEX.sol_flattened.sol\":25749:25760  meme_amount */\n      dup1\n        /* \"DEX.sol_flattened.sol\":25736:25745  precision */\n      sload(0x08)\n        /* \"DEX.sol_flattened.sol\":25724:25733  msg.value */\n      callvalue\n        /* \"DEX.sol_flattened.sol\":25724:25745  msg.value * precision */\n      tag_205\n      swap2\n      swap1\n      tag_127\n      jump\t// in\n    tag_205:\n        /* \"DEX.sol_flattened.sol\":25723:25760  (msg.value * precision) / meme_amount */\n      tag_206\n      swap2\n      swap1\n      tag_115\n      jump\t// in\n    tag_206:\n        /* \"DEX.sol_flattened.sol\":25707:25719  stackingRate */\n      sload(0x04)\n        /* \"DEX.sol_flattened.sol\":25707:25760  stackingRate <= (msg.value * precision) / meme_amount */\n      gt\n      iszero\n        /* \"DEX.sol_flattened.sol\":25686:25807  require(... */\n      tag_207\n      jumpi\n      mload(0x40)\n      shl(0xe5, 0x461bcd)\n      dup2\n      mstore\n        /* \"#utility.yul\":5810:5812   */\n      0x20\n        /* \"DEX.sol_flattened.sol\":25686:25807  require(... */\n      0x04\n      dup3\n      add\n        /* \"#utility.yul\":5792:5813   */\n      mstore\n        /* \"#utility.yul\":5849:5851   */\n      0x15\n        /* \"#utility.yul\":5829:5847   */\n      0x24\n      dup3\n      add\n        /* \"#utility.yul\":5822:5852   */\n      mstore\n      shl(0x5a, 0x14dd1858dada5b99c814985d19481b9bdd081b595d)\n        /* \"#utility.yul\":5868:5886   */\n      0x44\n      dup3\n      add\n        /* \"#utility.yul\":5861:5912   */\n      mstore\n        /* \"#utility.yul\":5929:5947   */\n      0x64\n      add\n        /* \"DEX.sol_flattened.sol\":25686:25807  require(... */\n      tag_111\n        /* \"#utility.yul\":5608:5953   */\n      jump\n        /* \"DEX.sol_flattened.sol\":25686:25807  require(... */\n    tag_207:\n        /* \"DEX.sol_flattened.sol\":25817:25847  _stack(meme_amount, msg.value) */\n      tag_134\n        /* \"DEX.sol_flattened.sol\":25824:25835  meme_amount */\n      dup2\n        /* \"DEX.sol_flattened.sol\":25837:25846  msg.value */\n      callvalue\n        /* \"DEX.sol_flattened.sol\":25817:25823  _stack */\n      tag_211\n        /* \"DEX.sol_flattened.sol\":25817:25847  _stack(meme_amount, msg.value) */\n      jump\t// in\n        /* \"DEX.sol_flattened.sol\":30721:31302  function sell(uint256 eth_amount) public {... */\n    tag_98:\n        /* \"DEX.sol_flattened.sol\":30793:30794  0 */\n      0x00\n        /* \"DEX.sol_flattened.sol\":30780:30790  eth_amount */\n      dup2\n        /* \"DEX.sol_flattened.sol\":30780:30794  eth_amount > 0 */\n      gt\n        /* \"DEX.sol_flattened.sol\":30772:30812  require(eth_amount > 0, \"Send Some ETH\") */\n      tag_213\n      jumpi\n      mload(0x40)\n      shl(0xe5, 0x461bcd)\n      dup2\n      mstore\n        /* \"#utility.yul\":6160:6162   */\n      0x20\n        /* \"DEX.sol_flattened.sol\":30772:30812  require(eth_amount > 0, \"Send Some ETH\") */\n      0x04\n      dup3\n      add\n        /* \"#utility.yul\":6142:6163   */\n      mstore\n        /* \"#utility.yul\":6199:6201   */\n      0x0d\n        /* \"#utility.yul\":6179:6197   */\n      0x24\n      dup3\n      add\n        /* \"#utility.yul\":6172:6202   */\n      mstore\n      shl(0x9b, 0x0a6cadcc840a6dedaca408aa89)\n        /* \"#utility.yul\":6218:6236   */\n      0x44\n      dup3\n      add\n        /* \"#utility.yul\":6211:6254   */\n      mstore\n        /* \"#utility.yul\":6271:6289   */\n      0x64\n      add\n        /* \"DEX.sol_flattened.sol\":30772:30812  require(eth_amount > 0, \"Send Some ETH\") */\n      tag_111\n        /* \"#utility.yul\":5958:6295   */\n      jump\n        /* \"DEX.sol_flattened.sol\":30772:30812  require(eth_amount > 0, \"Send Some ETH\") */\n    tag_213:\n        /* \"DEX.sol_flattened.sol\":30822:30839  uint256 eth_price */\n      0x00\n        /* \"DEX.sol_flattened.sol\":30842:30865  getETHPrice(eth_amount) */\n      tag_216\n        /* \"DEX.sol_flattened.sol\":30854:30864  eth_amount */\n      dup3\n        /* \"DEX.sol_flattened.sol\":30842:30853  getETHPrice */\n      tag_29\n        /* \"DEX.sol_flattened.sol\":30842:30865  getETHPrice(eth_amount) */\n      jump\t// in\n    tag_216:\n        /* \"DEX.sol_flattened.sol\":30897:30901  meme */\n      sload(0x01)\n        /* \"DEX.sol_flattened.sol\":30897:30923  meme.balanceOf(msg.sender) */\n      mload(0x40)\n      shl(0xe0, 0x70a08231)\n      dup2\n      mstore\n        /* \"DEX.sol_flattened.sol\":30912:30922  msg.sender */\n      caller\n        /* \"DEX.sol_flattened.sol\":30897:30923  meme.balanceOf(msg.sender) */\n      0x04\n      dup3\n      add\n        /* \"#utility.yul\":719:770   */\n      mstore\n        /* \"DEX.sol_flattened.sol\":30822:30865  uint256 eth_price = getETHPrice(eth_amount) */\n      swap2\n      swap3\n      pop\n      sub(shl(0xa0, 0x01), 0x01)\n        /* \"DEX.sol_flattened.sol\":30897:30901  meme */\n      and\n      swap1\n        /* \"DEX.sol_flattened.sol\":30897:30911  meme.balanceOf */\n      0x70a08231\n      swap1\n        /* \"#utility.yul\":692:710   */\n      0x24\n      add\n        /* \"DEX.sol_flattened.sol\":30897:30923  meme.balanceOf(msg.sender) */\n      0x20\n      mload(0x40)\n      dup1\n      dup4\n      sub\n      dup2\n      dup7\n      gas\n      staticcall\n      iszero\n      dup1\n      iszero\n      tag_219\n      jumpi\n      returndatasize\n      0x00\n      dup1\n      returndatacopy\n      revert(0x00, returndatasize)\n    tag_219:\n      pop\n      pop\n      pop\n      pop\n      mload(0x40)\n      returndatasize\n      not(0x1f)\n      0x1f\n      dup3\n      add\n      and\n      dup3\n      add\n      dup1\n      0x40\n      mstore\n      pop\n      dup2\n      add\n      swap1\n      tag_220\n      swap2\n      swap1\n      tag_221\n      jump\t// in\n    tag_220:\n        /* \"DEX.sol_flattened.sol\":30884:30893  eth_price */\n      dup2\n        /* \"DEX.sol_flattened.sol\":30884:30923  eth_price <= meme.balanceOf(msg.sender) */\n      gt\n      iszero\n        /* \"DEX.sol_flattened.sol\":30876:30954  require(eth_price <= meme.balanceOf(msg.sender), \"You don't have enough meme\") */\n      tag_222\n      jumpi\n      mload(0x40)\n      shl(0xe5, 0x461bcd)\n      dup2\n      mstore\n        /* \"#utility.yul\":6691:6693   */\n      0x20\n        /* \"DEX.sol_flattened.sol\":30876:30954  require(eth_price <= meme.balanceOf(msg.sender), \"You don't have enough meme\") */\n      0x04\n      dup3\n      add\n        /* \"#utility.yul\":6673:6694   */\n      mstore\n        /* \"#utility.yul\":6730:6732   */\n      0x1a\n        /* \"#utility.yul\":6710:6728   */\n      0x24\n      dup3\n      add\n        /* \"#utility.yul\":6703:6733   */\n      mstore\n        /* \"#utility.yul\":6769:6797   */\n      0x596f7520646f6e2774206861766520656e6f756768206d656d65000000000000\n        /* \"#utility.yul\":6749:6767   */\n      0x44\n      dup3\n      add\n        /* \"#utility.yul\":6742:6798   */\n      mstore\n        /* \"#utility.yul\":6815:6833   */\n      0x64\n      add\n        /* \"DEX.sol_flattened.sol\":30876:30954  require(eth_price <= meme.balanceOf(msg.sender), \"You don't have enough meme\") */\n      tag_111\n        /* \"#utility.yul\":6489:6839   */\n      jump\n        /* \"DEX.sol_flattened.sol\":30876:30954  require(eth_price <= meme.balanceOf(msg.sender), \"You don't have enough meme\") */\n    tag_222:\n        /* \"DEX.sol_flattened.sol\":30964:30968  meme */\n      sload(0x01)\n        /* \"DEX.sol_flattened.sol\":30964:31019  meme.transferFrom(msg.sender, address(this), eth_price) */\n      mload(0x40)\n      shl(0xe0, 0x23b872dd)\n      dup2\n      mstore\n        /* \"DEX.sol_flattened.sol\":30982:30992  msg.sender */\n      caller\n        /* \"DEX.sol_flattened.sol\":30964:31019  meme.transferFrom(msg.sender, address(this), eth_price) */\n      0x04\n      dup3\n      add\n        /* \"#utility.yul\":7084:7118   */\n      mstore\n        /* \"DEX.sol_flattened.sol\":31002:31006  this */\n      address\n        /* \"#utility.yul\":7134:7152   */\n      0x24\n      dup3\n      add\n        /* \"#utility.yul\":7127:7170   */\n      mstore\n        /* \"#utility.yul\":7186:7204   */\n      0x44\n      dup2\n      add\n        /* \"#utility.yul\":7179:7213   */\n      dup4\n      swap1\n      mstore\n      sub(shl(0xa0, 0x01), 0x01)\n        /* \"DEX.sol_flattened.sol\":30964:30968  meme */\n      swap1\n      swap2\n      and\n      swap1\n        /* \"DEX.sol_flattened.sol\":30964:30981  meme.transferFrom */\n      0x23b872dd\n      swap1\n        /* \"#utility.yul\":7019:7037   */\n      0x64\n      add\n        /* \"DEX.sol_flattened.sol\":30964:31019  meme.transferFrom(msg.sender, address(this), eth_price) */\n      0x20\n      mload(0x40)\n      dup1\n      dup4\n      sub\n      dup2\n      0x00\n      dup8\n      gas\n      call\n      iszero\n      dup1\n      iszero\n      tag_228\n      jumpi\n      returndatasize\n      0x00\n      dup1\n      returndatacopy\n      revert(0x00, returndatasize)\n    tag_228:\n      pop\n      pop\n      pop\n      pop\n      mload(0x40)\n      returndatasize\n      not(0x1f)\n      0x1f\n      dup3\n      add\n      and\n      dup3\n      add\n      dup1\n      0x40\n      mstore\n      pop\n      dup2\n      add\n      swap1\n      tag_229\n      swap2\n      swap1\n      tag_185\n      jump\t// in\n    tag_229:\n      pop\n        /* \"DEX.sol_flattened.sol\":31029:31069  payable(msg.sender).transfer(eth_amount) */\n      mload(0x40)\n        /* \"DEX.sol_flattened.sol\":31037:31047  msg.sender */\n      caller\n      swap1\n        /* \"DEX.sol_flattened.sol\":31029:31069  payable(msg.sender).transfer(eth_amount) */\n      dup4\n      iszero\n      0x08fc\n      mul\n      swap1\n        /* \"DEX.sol_flattened.sol\":31058:31068  eth_amount */\n      dup5\n      swap1\n        /* \"DEX.sol_flattened.sol\":31029:31069  payable(msg.sender).transfer(eth_amount) */\n      0x00\n      dup2\n      dup2\n      dup2\n        /* \"DEX.sol_flattened.sol\":31058:31068  eth_amount */\n      dup6\n        /* \"DEX.sol_flattened.sol\":31037:31047  msg.sender */\n      dup9\n        /* \"DEX.sol_flattened.sol\":31029:31069  payable(msg.sender).transfer(eth_amount) */\n      dup9\n      call\n      swap4\n      pop\n      pop\n      pop\n      pop\n      iszero\n      dup1\n      iszero\n      tag_231\n      jumpi\n      returndatasize\n      0x00\n      dup1\n      returndatacopy\n      revert(0x00, returndatasize)\n    tag_231:\n      pop\n        /* \"DEX.sol_flattened.sol\":31180:31189  precision */\n      sload(0x08)\n        /* \"DEX.sol_flattened.sol\":31156:31163  taxRate */\n      sload(0x09)\n        /* \"DEX.sol_flattened.sol\":31144:31163  precision + taxRate */\n      tag_232\n      swap1\n        /* \"DEX.sol_flattened.sol\":31180:31189  precision */\n      dup3\n        /* \"DEX.sol_flattened.sol\":31144:31163  precision + taxRate */\n      tag_159\n      jump\t// in\n    tag_232:\n        /* \"DEX.sol_flattened.sol\":31131:31164  eth_price * (precision + taxRate) */\n      tag_233\n      swap1\n        /* \"DEX.sol_flattened.sol\":31131:31140  eth_price */\n      dup4\n        /* \"DEX.sol_flattened.sol\":31131:31164  eth_price * (precision + taxRate) */\n      tag_127\n      jump\t// in\n    tag_233:\n        /* \"DEX.sol_flattened.sol\":31130:31189  (eth_price * (precision + taxRate)) /... */\n      tag_234\n      swap2\n      swap1\n      tag_115\n      jump\t// in\n    tag_234:\n        /* \"DEX.sol_flattened.sol\":31080:31088  dailyTax */\n      0x03\n        /* \"DEX.sol_flattened.sol\":31080:31114  dailyTax[block.timestamp / 1 days] */\n      0x00\n        /* \"DEX.sol_flattened.sol\":31089:31113  block.timestamp / 1 days */\n      tag_235\n        /* \"DEX.sol_flattened.sol\":31107:31113  1 days */\n      0x015180\n        /* \"DEX.sol_flattened.sol\":31089:31104  block.timestamp */\n      timestamp\n        /* \"DEX.sol_flattened.sol\":31089:31113  block.timestamp / 1 days */\n      tag_115\n      jump\t// in\n    tag_235:\n        /* \"DEX.sol_flattened.sol\":31080:31114  dailyTax[block.timestamp / 1 days] */\n      dup2\n      mstore\n      0x20\n      add\n      swap1\n      dup2\n      mstore\n      0x20\n      add\n      0x00\n      keccak256\n      0x00\n        /* \"DEX.sol_flattened.sol\":31080:31189  dailyTax[block.timestamp / 1 days] +=... */\n      dup3\n      dup3\n      sload\n      tag_236\n      swap2\n      swap1\n      tag_159\n      jump\t// in\n    tag_236:\n      swap3\n      pop\n      pop\n      dup2\n      swap1\n      sstore\n      pop\n        /* \"DEX.sol_flattened.sol\":31206:31216  eth_amount */\n      dup2\n        /* \"DEX.sol_flattened.sol\":31200:31202  _y */\n      0x07\n      0x00\n        /* \"DEX.sol_flattened.sol\":31200:31216  _y -= eth_amount */\n      dup3\n      dup3\n      sload\n      tag_237\n      swap2\n      swap1\n      tag_117\n      jump\t// in\n    tag_237:\n      swap1\n      swap2\n      sstore\n      pop\n      pop\n        /* \"DEX.sol_flattened.sol\":31237:31239  _y */\n      sload(0x07)\n        /* \"DEX.sol_flattened.sol\":31232:31234  _k */\n      sload(0x05)\n        /* \"DEX.sol_flattened.sol\":31232:31239  _k / _y */\n      tag_238\n      swap2\n        /* \"DEX.sol_flattened.sol\":31237:31239  _y */\n      swap1\n        /* \"DEX.sol_flattened.sol\":31232:31239  _k / _y */\n      tag_115\n      jump\t// in\n    tag_238:\n        /* \"DEX.sol_flattened.sol\":31226:31228  _x */\n      0x06\n        /* \"DEX.sol_flattened.sol\":31226:31240  _x = (_k / _y) */\n      sstore\n        /* \"DEX.sol_flattened.sol\":31256:31295  Sell(msg.sender, eth_price, eth_amount) */\n      0x40\n      dup1\n      mload\n        /* \"#utility.yul\":4844:4869   */\n      dup3\n      dup2\n      mstore\n        /* \"#utility.yul\":4900:4902   */\n      0x20\n        /* \"#utility.yul\":4885:4903   */\n      dup2\n      add\n        /* \"#utility.yul\":4878:4912   */\n      dup5\n      swap1\n      mstore\n        /* \"DEX.sol_flattened.sol\":31261:31271  msg.sender */\n      caller\n      swap2\n        /* \"DEX.sol_flattened.sol\":31256:31295  Sell(msg.sender, eth_price, eth_amount) */\n      0xed7a144fad14804d5c249145e3e0e2b63a9eb455b76aee5bc92d711e9bba3e4a\n      swap2\n        /* \"#utility.yul\":4817:4835   */\n      add\n        /* \"DEX.sol_flattened.sol\":31256:31295  Sell(msg.sender, eth_price, eth_amount) */\n      tag_196\n        /* \"#utility.yul\":4670:4918   */\n      jump\n        /* \"DEX.sol_flattened.sol\":25410:25518  function getStacks() public view returns (Stack_Struct[] memory) {... */\n    tag_101:\n        /* \"DEX.sol_flattened.sol\":25500:25510  msg.sender */\n      caller\n        /* \"DEX.sol_flattened.sol\":25492:25511  Stacked[msg.sender] */\n      0x00\n      swap1\n      dup2\n      mstore\n        /* \"DEX.sol_flattened.sol\":25492:25499  Stacked */\n      0x02\n        /* \"DEX.sol_flattened.sol\":25492:25511  Stacked[msg.sender] */\n      0x20\n      swap1\n      dup2\n      mstore\n      0x40\n      dup1\n      dup4\n      keccak256\n        /* \"DEX.sol_flattened.sol\":25485:25511  return Stacked[msg.sender] */\n      dup1\n      sload\n      dup3\n      mload\n      dup2\n      dup6\n      mul\n      dup2\n      add\n      dup6\n      add\n      swap1\n      swap4\n      mstore\n      dup1\n      dup4\n      mstore\n        /* \"DEX.sol_flattened.sol\":25452:25473  Stack_Struct[] memory */\n      0x60\n      swap5\n        /* \"DEX.sol_flattened.sol\":25485:25511  return Stacked[msg.sender] */\n      swap3\n      swap4\n        /* \"DEX.sol_flattened.sol\":25492:25511  Stacked[msg.sender] */\n      swap2\n      swap3\n        /* \"DEX.sol_flattened.sol\":25485:25511  return Stacked[msg.sender] */\n      swap1\n      swap2\n      dup5\n      add\n    tag_241:\n      dup3\n      dup3\n      lt\n      iszero\n      tag_242\n      jumpi\n      dup4\n      dup3\n      swap1\n      0x00\n      mstore\n      keccak256(0x00, 0x20)\n      swap1\n      0x03\n      mul\n      add\n      mload(0x40)\n      dup1\n      0x60\n      add\n      0x40\n      mstore\n      swap1\n      dup2\n      0x00\n      dup3\n      add\n      sload\n      dup2\n      mstore\n      0x20\n      add\n      0x01\n      dup3\n      add\n      sload\n      dup2\n      mstore\n      0x20\n      add\n      0x02\n      dup3\n      add\n      sload\n      dup2\n      mstore\n      pop\n      pop\n      dup2\n      mstore\n      0x20\n      add\n      swap1\n      0x01\n      add\n      swap1\n      jump(tag_241)\n    tag_242:\n      pop\n      pop\n      pop\n      pop\n      swap1\n      pop\n        /* \"DEX.sol_flattened.sol\":25410:25518  function getStacks() public view returns (Stack_Struct[] memory) {... */\n      swap1\n      jump\t// out\n        /* \"DEX.sol_flattened.sol\":20502:20700  function transferOwnership(address newOwner) public virtual onlyOwner {... */\n    tag_108:\n        /* \"DEX.sol_flattened.sol\":19515:19528  _checkOwner() */\n      tag_245\n        /* \"DEX.sol_flattened.sol\":19515:19526  _checkOwner */\n      tag_138\n        /* \"DEX.sol_flattened.sol\":19515:19528  _checkOwner() */\n      jump\t// in\n    tag_245:\n      sub(shl(0xa0, 0x01), 0x01)\n        /* \"DEX.sol_flattened.sol\":20590:20612  newOwner != address(0) */\n      dup2\n      and\n        /* \"DEX.sol_flattened.sol\":20582:20655  require(newOwner != address(0), \"Ownable: new owner is the zero address\") */\n      tag_247\n      jumpi\n      mload(0x40)\n      shl(0xe5, 0x461bcd)\n      dup2\n      mstore\n        /* \"#utility.yul\":7426:7428   */\n      0x20\n        /* \"DEX.sol_flattened.sol\":20582:20655  require(newOwner != address(0), \"Ownable: new owner is the zero address\") */\n      0x04\n      dup3\n      add\n        /* \"#utility.yul\":7408:7429   */\n      mstore\n        /* \"#utility.yul\":7465:7467   */\n      0x26\n        /* \"#utility.yul\":7445:7463   */\n      0x24\n      dup3\n      add\n        /* \"#utility.yul\":7438:7468   */\n      mstore\n        /* \"#utility.yul\":7504:7538   */\n      0x4f776e61626c653a206e6577206f776e657220697320746865207a65726f2061\n        /* \"#utility.yul\":7484:7502   */\n      0x44\n      dup3\n      add\n        /* \"#utility.yul\":7477:7539   */\n      mstore\n      shl(0xd0, 0x646472657373)\n        /* \"#utility.yul\":7555:7573   */\n      0x64\n      dup3\n      add\n        /* \"#utility.yul\":7548:7584   */\n      mstore\n        /* \"#utility.yul\":7601:7620   */\n      0x84\n      add\n        /* \"DEX.sol_flattened.sol\":20582:20655  require(newOwner != address(0), \"Ownable: new owner is the zero address\") */\n      tag_111\n        /* \"#utility.yul\":7224:7626   */\n      jump\n        /* \"DEX.sol_flattened.sol\":20582:20655  require(newOwner != address(0), \"Ownable: new owner is the zero address\") */\n    tag_247:\n        /* \"DEX.sol_flattened.sol\":20665:20693  _transferOwnership(newOwner) */\n      tag_134\n        /* \"DEX.sol_flattened.sol\":20684:20692  newOwner */\n      dup2\n        /* \"DEX.sol_flattened.sol\":20665:20683  _transferOwnership */\n      tag_165\n        /* \"DEX.sol_flattened.sol\":20665:20693  _transferOwnership(newOwner) */\n      jump\t// in\n        /* \"DEX.sol_flattened.sol\":26495:27507  function _unstack(uint256 index) internal {... */\n    tag_135:\n        /* \"DEX.sol_flattened.sol\":26580:26590  msg.sender */\n      caller\n        /* \"DEX.sol_flattened.sol\":26547:26569  Stack_Struct memory ss */\n      0x00\n        /* \"DEX.sol_flattened.sol\":26572:26591  Stacked[msg.sender] */\n      swap1\n      dup2\n      mstore\n        /* \"DEX.sol_flattened.sol\":26572:26579  Stacked */\n      0x02\n        /* \"DEX.sol_flattened.sol\":26572:26591  Stacked[msg.sender] */\n      0x20\n      mstore\n      0x40\n      dup2\n      keccak256\n        /* \"DEX.sol_flattened.sol\":26572:26598  Stacked[msg.sender][index] */\n      dup1\n      sload\n        /* \"DEX.sol_flattened.sol\":26592:26597  index */\n      dup4\n      swap1\n        /* \"DEX.sol_flattened.sol\":26572:26598  Stacked[msg.sender][index] */\n      dup2\n      lt\n      tag_253\n      jumpi\n      tag_253\n      tag_254\n      jump\t// in\n    tag_253:\n      swap1\n      0x00\n      mstore\n      keccak256(0x00, 0x20)\n      swap1\n      0x03\n      mul\n      add\n        /* \"DEX.sol_flattened.sol\":26547:26598  Stack_Struct memory ss = Stacked[msg.sender][index] */\n      mload(0x40)\n      dup1\n      0x60\n      add\n      0x40\n      mstore\n      swap1\n      dup2\n      0x00\n      dup3\n      add\n      sload\n      dup2\n      mstore\n      0x20\n      add\n      0x01\n      dup3\n      add\n      sload\n      dup2\n      mstore\n      0x20\n      add\n      0x02\n      dup3\n      add\n      sload\n      dup2\n      mstore\n      pop\n      pop\n      swap1\n      pop\n        /* \"DEX.sol_flattened.sol\":26608:26619  uint256 tax */\n      0x00\n        /* \"DEX.sol_flattened.sol\":26622:26638  _distributeTax() */\n      tag_256\n        /* \"DEX.sol_flattened.sol\":26622:26636  _distributeTax */\n      tag_257\n        /* \"DEX.sol_flattened.sol\":26622:26638  _distributeTax() */\n      jump\t// in\n    tag_256:\n        /* \"DEX.sol_flattened.sol\":26674:26688  ss.meme_amount */\n      dup3\n      mload\n        /* \"DEX.sol_flattened.sol\":26722:26735  ss.eth_amount */\n      0x20\n      dup5\n      add\n      mload\n        /* \"DEX.sol_flattened.sol\":26608:26638  uint256 tax = _distributeTax() */\n      swap2\n      swap3\n      pop\n        /* \"DEX.sol_flattened.sol\":26674:26688  ss.meme_amount */\n      swap1\n        /* \"DEX.sol_flattened.sol\":26649:26671  uint256 meme_to_return */\n      0x00\n      swap1\n        /* \"DEX.sol_flattened.sol\":26722:26741  ss.eth_amount + tax */\n      tag_258\n      swap1\n        /* \"DEX.sol_flattened.sol\":26608:26638  uint256 tax = _distributeTax() */\n      dup5\n      swap1\n        /* \"DEX.sol_flattened.sol\":26722:26741  ss.eth_amount + tax */\n      tag_159\n      jump\t// in\n    tag_258:\n        /* \"DEX.sol_flattened.sol\":26773:26777  meme */\n      sload(0x01)\n        /* \"DEX.sol_flattened.sol\":26773:26802  meme.balanceOf(address(this)) */\n      mload(0x40)\n      shl(0xe0, 0x70a08231)\n      dup2\n      mstore\n        /* \"DEX.sol_flattened.sol\":26796:26800  this */\n      address\n        /* \"DEX.sol_flattened.sol\":26773:26802  meme.balanceOf(address(this)) */\n      0x04\n      dup3\n      add\n        /* \"#utility.yul\":719:770   */\n      mstore\n        /* \"DEX.sol_flattened.sol\":26698:26741  uint256 eth_to_return = ss.eth_amount + tax */\n      swap2\n      swap3\n      pop\n        /* \"DEX.sol_flattened.sol\":26806:26820  meme_to_return */\n      dup4\n      swap2\n      sub(shl(0xa0, 0x01), 0x01)\n        /* \"DEX.sol_flattened.sol\":26773:26777  meme */\n      swap1\n      swap2\n      and\n      swap1\n        /* \"DEX.sol_flattened.sol\":26773:26787  meme.balanceOf */\n      0x70a08231\n      swap1\n        /* \"#utility.yul\":692:710   */\n      0x24\n      add\n        /* \"DEX.sol_flattened.sol\":26773:26802  meme.balanceOf(address(this)) */\n      0x20\n      mload(0x40)\n      dup1\n      dup4\n      sub\n      dup2\n      dup7\n      gas\n      staticcall\n      iszero\n      dup1\n      iszero\n      tag_261\n      jumpi\n      returndatasize\n      0x00\n      dup1\n      returndatacopy\n      revert(0x00, returndatasize)\n    tag_261:\n      pop\n      pop\n      pop\n      pop\n      mload(0x40)\n      returndatasize\n      not(0x1f)\n      0x1f\n      dup3\n      add\n      and\n      dup3\n      add\n      dup1\n      0x40\n      mstore\n      pop\n      dup2\n      add\n      swap1\n      tag_262\n      swap2\n      swap1\n      tag_221\n      jump\t// in\n    tag_262:\n        /* \"DEX.sol_flattened.sol\":26773:26820  meme.balanceOf(address(this)) >= meme_to_return */\n      lt\n      iszero\n        /* \"DEX.sol_flattened.sol\":26752:26921  require(... */\n      tag_263\n      jumpi\n      mload(0x40)\n      shl(0xe5, 0x461bcd)\n      dup2\n      mstore\n        /* \"#utility.yul\":7965:7967   */\n      0x20\n        /* \"DEX.sol_flattened.sol\":26752:26921  require(... */\n      0x04\n      dup3\n      add\n        /* \"#utility.yul\":7947:7968   */\n      mstore\n        /* \"#utility.yul\":8004:8006   */\n      0x4b\n        /* \"#utility.yul\":7984:8002   */\n      0x24\n      dup3\n      add\n        /* \"#utility.yul\":7977:8007   */\n      mstore\n        /* \"#utility.yul\":8043:8077   */\n      0x536f7272792043757272656e746c79207468697320636f6e747261637420646f\n        /* \"#utility.yul\":8023:8041   */\n      0x44\n      dup3\n      add\n        /* \"#utility.yul\":8016:8078   */\n      mstore\n        /* \"#utility.yul\":8114:8148   */\n      0x65736e27742068617665204d656d6520746f2072657475726e2c20436865636b\n        /* \"#utility.yul\":8094:8112   */\n      0x64\n      dup3\n      add\n        /* \"#utility.yul\":8087:8149   */\n      mstore\n      shl(0xa8, 0x206261636b20536f6f6e21)\n        /* \"#utility.yul\":8165:8184   */\n      0x84\n      dup3\n      add\n        /* \"#utility.yul\":8158:8200   */\n      mstore\n        /* \"#utility.yul\":8217:8236   */\n      0xa4\n      add\n        /* \"DEX.sol_flattened.sol\":26752:26921  require(... */\n      tag_111\n        /* \"#utility.yul\":7763:8242   */\n      jump\n        /* \"DEX.sol_flattened.sol\":26752:26921  require(... */\n    tag_263:\n        /* \"DEX.sol_flattened.sol\":26977:26990  eth_to_return */\n      dup1\n        /* \"DEX.sol_flattened.sol\":26952:26973  address(this).balance */\n      selfbalance\n        /* \"DEX.sol_flattened.sol\":26952:26990  address(this).balance >= eth_to_return */\n      lt\n      iszero\n        /* \"DEX.sol_flattened.sol\":26931:27090  require(... */\n      tag_266\n      jumpi\n      mload(0x40)\n      shl(0xe5, 0x461bcd)\n      dup2\n      mstore\n        /* \"#utility.yul\":8449:8451   */\n      0x20\n        /* \"DEX.sol_flattened.sol\":26931:27090  require(... */\n      0x04\n      dup3\n      add\n        /* \"#utility.yul\":8431:8452   */\n      mstore\n        /* \"#utility.yul\":8488:8490   */\n      0x4a\n        /* \"#utility.yul\":8468:8486   */\n      0x24\n      dup3\n      add\n        /* \"#utility.yul\":8461:8491   */\n      mstore\n        /* \"#utility.yul\":8527:8561   */\n      0x536f7272792043757272656e746c79207468697320636f6e747261637420646f\n        /* \"#utility.yul\":8507:8525   */\n      0x44\n      dup3\n      add\n        /* \"#utility.yul\":8500:8562   */\n      mstore\n        /* \"#utility.yul\":8598:8632   */\n      0x65736e277420686176652045746820746f2072657475726e2c20436865636b20\n        /* \"#utility.yul\":8578:8596   */\n      0x64\n      dup3\n      add\n        /* \"#utility.yul\":8571:8633   */\n      mstore\n      shl(0xb0, 0x6261636b20536f6f6e21)\n        /* \"#utility.yul\":8649:8668   */\n      0x84\n      dup3\n      add\n        /* \"#utility.yul\":8642:8683   */\n      mstore\n        /* \"#utility.yul\":8700:8719   */\n      0xa4\n      add\n        /* \"DEX.sol_flattened.sol\":26931:27090  require(... */\n      tag_111\n        /* \"#utility.yul\":8247:8725   */\n      jump\n        /* \"DEX.sol_flattened.sol\":26931:27090  require(... */\n    tag_266:\n        /* \"DEX.sol_flattened.sol\":27107:27121  meme_to_return */\n      dup2\n        /* \"DEX.sol_flattened.sol\":27101:27103  _x */\n      0x06\n      0x00\n        /* \"DEX.sol_flattened.sol\":27101:27121  _x -= meme_to_return */\n      dup3\n      dup3\n      sload\n      tag_269\n      swap2\n      swap1\n      tag_117\n      jump\t// in\n    tag_269:\n      swap3\n      pop\n      pop\n      dup2\n      swap1\n      sstore\n      pop\n        /* \"DEX.sol_flattened.sol\":27137:27150  eth_to_return */\n      dup1\n        /* \"DEX.sol_flattened.sol\":27131:27133  _y */\n      0x07\n      0x00\n        /* \"DEX.sol_flattened.sol\":27131:27150  _y -= eth_to_return */\n      dup3\n      dup3\n      sload\n      tag_270\n      swap2\n      swap1\n      tag_117\n      jump\t// in\n    tag_270:\n      swap1\n      swap2\n      sstore\n      pop\n      pop\n        /* \"DEX.sol_flattened.sol\":27161:27165  meme */\n      sload(0x01)\n        /* \"DEX.sol_flattened.sol\":27161:27202  meme.transfer(msg.sender, meme_to_return) */\n      mload(0x40)\n      shl(0xe0, 0xa9059cbb)\n      dup2\n      mstore\n        /* \"DEX.sol_flattened.sol\":27175:27185  msg.sender */\n      caller\n        /* \"DEX.sol_flattened.sol\":27161:27202  meme.transfer(msg.sender, meme_to_return) */\n      0x04\n      dup3\n      add\n        /* \"#utility.yul\":4283:4334   */\n      mstore\n        /* \"#utility.yul\":4350:4368   */\n      0x24\n      dup2\n      add\n        /* \"#utility.yul\":4343:4377   */\n      dup5\n      swap1\n      mstore\n      sub(shl(0xa0, 0x01), 0x01)\n        /* \"DEX.sol_flattened.sol\":27161:27165  meme */\n      swap1\n      swap2\n      and\n      swap1\n        /* \"DEX.sol_flattened.sol\":27161:27174  meme.transfer */\n      0xa9059cbb\n      swap1\n        /* \"#utility.yul\":4256:4274   */\n      0x44\n      add\n        /* \"DEX.sol_flattened.sol\":27161:27202  meme.transfer(msg.sender, meme_to_return) */\n      0x20\n      mload(0x40)\n      dup1\n      dup4\n      sub\n      dup2\n      0x00\n      dup8\n      gas\n      call\n      iszero\n      dup1\n      iszero\n      tag_273\n      jumpi\n      returndatasize\n      0x00\n      dup1\n      returndatacopy\n      revert(0x00, returndatasize)\n    tag_273:\n      pop\n      pop\n      pop\n      pop\n      mload(0x40)\n      returndatasize\n      not(0x1f)\n      0x1f\n      dup3\n      add\n      and\n      dup3\n      add\n      dup1\n      0x40\n      mstore\n      pop\n      dup2\n      add\n      swap1\n      tag_274\n      swap2\n      swap1\n      tag_185\n      jump\t// in\n    tag_274:\n      pop\n        /* \"DEX.sol_flattened.sol\":27212:27255  payable(msg.sender).transfer(eth_to_return) */\n      mload(0x40)\n        /* \"DEX.sol_flattened.sol\":27220:27230  msg.sender */\n      caller\n      swap1\n        /* \"DEX.sol_flattened.sol\":27212:27255  payable(msg.sender).transfer(eth_to_return) */\n      dup3\n      iszero\n      0x08fc\n      mul\n      swap1\n        /* \"DEX.sol_flattened.sol\":27241:27254  eth_to_return */\n      dup4\n      swap1\n        /* \"DEX.sol_flattened.sol\":27212:27255  payable(msg.sender).transfer(eth_to_return) */\n      0x00\n      dup2\n      dup2\n      dup2\n        /* \"DEX.sol_flattened.sol\":27241:27254  eth_to_return */\n      dup6\n        /* \"DEX.sol_flattened.sol\":27220:27230  msg.sender */\n      dup9\n        /* \"DEX.sol_flattened.sol\":27212:27255  payable(msg.sender).transfer(eth_to_return) */\n      dup9\n      call\n      swap4\n      pop\n      pop\n      pop\n      pop\n      iszero\n      dup1\n      iszero\n      tag_276\n      jumpi\n      returndatasize\n      0x00\n      dup1\n      returndatacopy\n      revert(0x00, returndatasize)\n    tag_276:\n      pop\n        /* \"DEX.sol_flattened.sol\":27270:27272  _x */\n      sload(0x06)\n        /* \"DEX.sol_flattened.sol\":27276:27277  0 */\n      0x00\n        /* \"DEX.sol_flattened.sol\":27270:27277  _x == 0 */\n      sub\n        /* \"DEX.sol_flattened.sol\":27266:27387  if (_x == 0) {... */\n      tag_277\n      jumpi\n        /* \"DEX.sol_flattened.sol\":27308:27309  0 */\n      0x00\n        /* \"DEX.sol_flattened.sol\":27293:27305  stackingRate */\n      0x04\n        /* \"DEX.sol_flattened.sol\":27293:27309  stackingRate = 0 */\n      sstore\n        /* \"DEX.sol_flattened.sol\":27266:27387  if (_x == 0) {... */\n      jump(tag_278)\n    tag_277:\n        /* \"DEX.sol_flattened.sol\":27374:27376  _x */\n      sload(0x06)\n        /* \"DEX.sol_flattened.sol\":27361:27370  precision */\n      sload(0x08)\n        /* \"DEX.sol_flattened.sol\":27356:27358  _y */\n      sload(0x07)\n        /* \"DEX.sol_flattened.sol\":27356:27370  _y * precision */\n      tag_279\n      swap2\n      swap1\n      tag_127\n      jump\t// in\n    tag_279:\n        /* \"DEX.sol_flattened.sol\":27355:27376  (_y * precision) / _x */\n      tag_280\n      swap2\n      swap1\n      tag_115\n      jump\t// in\n    tag_280:\n        /* \"DEX.sol_flattened.sol\":27340:27352  stackingRate */\n      0x04\n        /* \"DEX.sol_flattened.sol\":27340:27376  stackingRate = (_y * precision) / _x */\n      sstore\n        /* \"DEX.sol_flattened.sol\":27266:27387  if (_x == 0) {... */\n    tag_278:\n        /* \"DEX.sol_flattened.sol\":27397:27414  _removeArr(index) */\n      tag_281\n        /* \"DEX.sol_flattened.sol\":27408:27413  index */\n      dup6\n        /* \"DEX.sol_flattened.sol\":27397:27407  _removeArr */\n      tag_282\n        /* \"DEX.sol_flattened.sol\":27397:27414  _removeArr(index) */\n      jump\t// in\n    tag_281:\n        /* \"DEX.sol_flattened.sol\":27425:27435  _updateK() */\n      tag_283\n        /* \"DEX.sol_flattened.sol\":27425:27433  _updateK */\n      tag_284\n        /* \"DEX.sol_flattened.sol\":27425:27435  _updateK() */\n      jump\t// in\n    tag_283:\n        /* \"DEX.sol_flattened.sol\":27450:27500  UnStack(msg.sender, meme_to_return, eth_to_return) */\n      0x40\n      dup1\n      mload\n        /* \"#utility.yul\":4844:4869   */\n      dup4\n      dup2\n      mstore\n        /* \"#utility.yul\":4900:4902   */\n      0x20\n        /* \"#utility.yul\":4885:4903   */\n      dup2\n      add\n        /* \"#utility.yul\":4878:4912   */\n      dup4\n      swap1\n      mstore\n        /* \"DEX.sol_flattened.sol\":27458:27468  msg.sender */\n      caller\n      swap2\n        /* \"DEX.sol_flattened.sol\":27450:27500  UnStack(msg.sender, meme_to_return, eth_to_return) */\n      0xbb564df1f5d4ebb97b073adcab505c7796a37035ac5d14f51269660939c39cf4\n      swap2\n        /* \"#utility.yul\":4817:4835   */\n      add\n        /* \"DEX.sol_flattened.sol\":27450:27500  UnStack(msg.sender, meme_to_return, eth_to_return) */\n      mload(0x40)\n      dup1\n      swap2\n      sub\n      swap1\n      log2\n        /* \"DEX.sol_flattened.sol\":26537:27507  {... */\n      pop\n      pop\n      pop\n      pop\n        /* \"DEX.sol_flattened.sol\":26495:27507  function _unstack(uint256 index) internal {... */\n      pop\n      jump\t// out\n        /* \"DEX.sol_flattened.sol\":19780:19910  function _checkOwner() internal view virtual {... */\n    tag_138:\n        /* \"DEX.sol_flattened.sol\":19668:19675  address */\n      0x00\n        /* \"DEX.sol_flattened.sol\":19694:19700  _owner */\n      sload\n      sub(shl(0xa0, 0x01), 0x01)\n      0x0100\n      swap1\n      swap2\n      div\n      and\n        /* \"DEX.sol_flattened.sol\":4240:4250  msg.sender */\n      caller\n        /* \"DEX.sol_flattened.sol\":19843:19866  owner() == _msgSender() */\n      eq\n        /* \"DEX.sol_flattened.sol\":19835:19903  require(owner() == _msgSender(), \"Ownable: caller is not the owner\") */\n      tag_140\n      jumpi\n      mload(0x40)\n      shl(0xe5, 0x461bcd)\n      dup2\n      mstore\n        /* \"#utility.yul\":8932:8934   */\n      0x20\n        /* \"DEX.sol_flattened.sol\":19835:19903  require(owner() == _msgSender(), \"Ownable: caller is not the owner\") */\n      0x04\n      dup3\n      add\n        /* \"#utility.yul\":8914:8935   */\n      dup2\n      swap1\n      mstore\n        /* \"#utility.yul\":8951:8969   */\n      0x24\n      dup3\n      add\n        /* \"#utility.yul\":8944:8974   */\n      mstore\n        /* \"#utility.yul\":9010:9044   */\n      0x4f776e61626c653a2063616c6c6572206973206e6f7420746865206f776e6572\n        /* \"#utility.yul\":8990:9008   */\n      0x44\n      dup3\n      add\n        /* \"#utility.yul\":8983:9045   */\n      mstore\n        /* \"#utility.yul\":9062:9080   */\n      0x64\n      add\n        /* \"DEX.sol_flattened.sol\":19835:19903  require(owner() == _msgSender(), \"Ownable: caller is not the owner\") */\n      tag_111\n        /* \"#utility.yul\":8730:9086   */\n      jump\n        /* \"DEX.sol_flattened.sol\":23472:23589  function _unpause() internal virtual whenPaused {... */\n    tag_141:\n        /* \"DEX.sol_flattened.sol\":22525:22541  _requirePaused() */\n      tag_294\n        /* \"DEX.sol_flattened.sol\":22525:22539  _requirePaused */\n      tag_295\n        /* \"DEX.sol_flattened.sol\":22525:22541  _requirePaused() */\n      jump\t// in\n    tag_294:\n        /* \"DEX.sol_flattened.sol\":23540:23545  false */\n      0x00\n        /* \"DEX.sol_flattened.sol\":23530:23545  _paused = false */\n      dup1\n      sload\n      not(0xff)\n      and\n      swap1\n      sstore\n        /* \"DEX.sol_flattened.sol\":23560:23582  Unpaused(_msgSender()) */\n      0x5db9ee0a495bf2e6ff9c91a7834c1ba4fdd244a5e8aa4e537bd38aeae4b073aa\n        /* \"DEX.sol_flattened.sol\":4240:4250  msg.sender */\n      caller\n        /* \"DEX.sol_flattened.sol\":23569:23581  _msgSender() */\n    tag_297:\n        /* \"DEX.sol_flattened.sol\":23560:23582  Unpaused(_msgSender()) */\n      mload(0x40)\n      sub(shl(0xa0, 0x01), 0x01)\n        /* \"#utility.yul\":737:769   */\n      swap1\n      swap2\n      and\n        /* \"#utility.yul\":719:770   */\n      dup2\n      mstore\n        /* \"#utility.yul\":707:709   */\n      0x20\n        /* \"#utility.yul\":692:710   */\n      add\n        /* \"DEX.sol_flattened.sol\":23560:23582  Unpaused(_msgSender()) */\n      mload(0x40)\n      dup1\n      swap2\n      sub\n      swap1\n      log1\n        /* \"DEX.sol_flattened.sol\":23472:23589  function _unpause() internal virtual whenPaused {... */\n      jump\t// out\n        /* \"DEX.sol_flattened.sol\":20854:21041  function _transferOwnership(address newOwner) internal virtual {... */\n    tag_165:\n        /* \"DEX.sol_flattened.sol\":20927:20943  address oldOwner */\n      0x00\n        /* \"DEX.sol_flattened.sol\":20946:20952  _owner */\n      dup1\n      sload\n      sub(shl(0xa0, 0x01), 0x01)\n        /* \"DEX.sol_flattened.sol\":20962:20979  _owner = newOwner */\n      dup4\n      dup2\n      and\n        /* \"DEX.sol_flattened.sol\":20946:20952  _owner */\n      0x0100\n        /* \"DEX.sol_flattened.sol\":20962:20979  _owner = newOwner */\n      dup2\n      dup2\n      mul\n      not(sub(shl(0xa8, 0x01), 0x0100))\n      dup6\n      and\n      or\n      dup6\n      sstore\n        /* \"DEX.sol_flattened.sol\":20994:21034  OwnershipTransferred(oldOwner, newOwner) */\n      mload(0x40)\n        /* \"DEX.sol_flattened.sol\":20946:20952  _owner */\n      swap4\n      div\n      swap2\n      swap1\n      swap2\n      and\n      swap3\n        /* \"DEX.sol_flattened.sol\":20962:20979  _owner = newOwner */\n      swap1\n      swap2\n        /* \"DEX.sol_flattened.sol\":20946:20952  _owner */\n      dup4\n      swap2\n        /* \"DEX.sol_flattened.sol\":20994:21034  OwnershipTransferred(oldOwner, newOwner) */\n      0x8be0079c531659141344cd1fd0a4f28419497f9722a3daafe3b4186f6b6457e0\n      swap2\n      log3\n        /* \"DEX.sol_flattened.sol\":20917:21041  {... */\n      pop\n        /* \"DEX.sol_flattened.sol\":20854:21041  function _transferOwnership(address newOwner) internal virtual {... */\n      pop\n      jump\t// out\n        /* \"DEX.sol_flattened.sol\":23225:23340  function _pause() internal virtual whenNotPaused {... */\n    tag_170:\n        /* \"DEX.sol_flattened.sol\":22278:22297  _requireNotPaused() */\n      tag_301\n        /* \"DEX.sol_flattened.sol\":22278:22295  _requireNotPaused */\n      tag_302\n        /* \"DEX.sol_flattened.sol\":22278:22297  _requireNotPaused() */\n      jump\t// in\n    tag_301:\n        /* \"DEX.sol_flattened.sol\":23284:23291  _paused */\n      0x00\n        /* \"DEX.sol_flattened.sol\":23284:23298  _paused = true */\n      dup1\n      sload\n      not(0xff)\n      and\n        /* \"DEX.sol_flattened.sol\":23294:23298  true */\n      0x01\n        /* \"DEX.sol_flattened.sol\":23284:23298  _paused = true */\n      or\n      swap1\n      sstore\n        /* \"DEX.sol_flattened.sol\":23313:23333  Paused(_msgSender()) */\n      0x62e78cea01bee320cd4e420270b5ea74000d11b0c9f74754ebdbfc544b05a258\n        /* \"DEX.sol_flattened.sol\":23320:23332  _msgSender() */\n      tag_297\n        /* \"DEX.sol_flattened.sol\":4240:4250  msg.sender */\n      caller\n      swap1\n        /* \"DEX.sol_flattened.sol\":4161:4257  function _msgSender() internal view virtual returns (address) {... */\n      jump\n        /* \"DEX.sol_flattened.sol\":25996:26489  function _stack(uint256 meme_amount, uint256 eth_amount) internal {... */\n    tag_211:\n        /* \"DEX.sol_flattened.sol\":26072:26076  meme */\n      sload(0x01)\n        /* \"DEX.sol_flattened.sol\":26072:26129  meme.transferFrom(msg.sender, address(this), meme_amount) */\n      mload(0x40)\n      shl(0xe0, 0x23b872dd)\n      dup2\n      mstore\n        /* \"DEX.sol_flattened.sol\":26090:26100  msg.sender */\n      caller\n        /* \"DEX.sol_flattened.sol\":26072:26129  meme.transferFrom(msg.sender, address(this), meme_amount) */\n      0x04\n      dup3\n      add\n        /* \"#utility.yul\":7084:7118   */\n      mstore\n        /* \"DEX.sol_flattened.sol\":26110:26114  this */\n      address\n        /* \"#utility.yul\":7134:7152   */\n      0x24\n      dup3\n      add\n        /* \"#utility.yul\":7127:7170   */\n      mstore\n        /* \"#utility.yul\":7186:7204   */\n      0x44\n      dup2\n      add\n        /* \"#utility.yul\":7179:7213   */\n      dup5\n      swap1\n      mstore\n      sub(shl(0xa0, 0x01), 0x01)\n        /* \"DEX.sol_flattened.sol\":26072:26076  meme */\n      swap1\n      swap2\n      and\n      swap1\n        /* \"DEX.sol_flattened.sol\":26072:26089  meme.transferFrom */\n      0x23b872dd\n      swap1\n        /* \"#utility.yul\":7019:7037   */\n      0x64\n      add\n        /* \"DEX.sol_flattened.sol\":26072:26129  meme.transferFrom(msg.sender, address(this), meme_amount) */\n      0x20\n      mload(0x40)\n      dup1\n      dup4\n      sub\n      dup2\n      0x00\n      dup8\n      gas\n      call\n      iszero\n      dup1\n      iszero\n      tag_309\n      jumpi\n      returndatasize\n      0x00\n      dup1\n      returndatacopy\n      revert(0x00, returndatasize)\n    tag_309:\n      pop\n      pop\n      pop\n      pop\n      mload(0x40)\n      returndatasize\n      not(0x1f)\n      0x1f\n      dup3\n      add\n      and\n      dup3\n      add\n      dup1\n      0x40\n      mstore\n      pop\n      dup2\n      add\n      swap1\n      tag_310\n      swap2\n      swap1\n      tag_185\n      jump\t// in\n    tag_310:\n      pop\n        /* \"DEX.sol_flattened.sol\":26145:26156  meme_amount */\n      dup2\n        /* \"DEX.sol_flattened.sol\":26139:26141  _x */\n      0x06\n      0x00\n        /* \"DEX.sol_flattened.sol\":26139:26156  _x += meme_amount */\n      dup3\n      dup3\n      sload\n      tag_311\n      swap2\n      swap1\n      tag_159\n      jump\t// in\n    tag_311:\n      swap3\n      pop\n      pop\n      dup2\n      swap1\n      sstore\n      pop\n        /* \"DEX.sol_flattened.sol\":26172:26182  eth_amount */\n      dup1\n        /* \"DEX.sol_flattened.sol\":26166:26168  _y */\n      0x07\n      0x00\n        /* \"DEX.sol_flattened.sol\":26166:26182  _y += eth_amount */\n      dup3\n      dup3\n      sload\n      tag_312\n      swap2\n      swap1\n      tag_159\n      jump\t// in\n    tag_312:\n      swap1\n      swap2\n      sstore\n      pop\n      pop\n        /* \"DEX.sol_flattened.sol\":26218:26318  Stack_Struct(... */\n      0x40\n      dup1\n      mload\n      0x60\n      dup2\n      add\n      dup3\n      mstore\n      dup4\n      dup2\n      mstore\n      0x20\n      dup1\n      dup3\n      add\n      dup5\n      dup2\n      mstore\n        /* \"DEX.sol_flattened.sol\":26293:26308  block.timestamp */\n      timestamp\n        /* \"DEX.sol_flattened.sol\":26218:26318  Stack_Struct(... */\n      dup4\n      dup6\n      add\n      swap1\n      dup2\n      mstore\n        /* \"DEX.sol_flattened.sol\":26336:26346  msg.sender */\n      caller\n        /* \"DEX.sol_flattened.sol\":26193:26215  Stack_Struct memory ss */\n      0x00\n        /* \"DEX.sol_flattened.sol\":26328:26347  Stacked[msg.sender] */\n      swap1\n      dup2\n      mstore\n        /* \"DEX.sol_flattened.sol\":26328:26335  Stacked */\n      0x02\n        /* \"DEX.sol_flattened.sol\":26328:26347  Stacked[msg.sender] */\n      dup1\n      dup6\n      mstore\n      swap6\n      dup2\n      keccak256\n        /* \"DEX.sol_flattened.sol\":26328:26356  Stacked[msg.sender].push(ss) */\n      dup1\n      sload\n      0x01\n      dup2\n      dup2\n      add\n      dup4\n      sstore\n      swap2\n      dup4\n      mstore\n      swap5\n      swap1\n      swap2\n      keccak256\n      dup6\n      mload\n      0x03\n      swap1\n      swap6\n      mul\n      add\n      swap4\n      dup5\n      sstore\n      swap2\n      mload\n      swap2\n      dup4\n      add\n      swap2\n      swap1\n      swap2\n      sstore\n      mload\n      swap3\n      add\n      swap2\n      swap1\n      swap2\n      sstore\n        /* \"DEX.sol_flattened.sol\":26402:26404  _x */\n      sload(0x06)\n        /* \"DEX.sol_flattened.sol\":26389:26398  precision */\n      sload(0x08)\n        /* \"DEX.sol_flattened.sol\":26384:26386  _y */\n      sload(0x07)\n        /* \"DEX.sol_flattened.sol\":26384:26398  _y * precision */\n      tag_314\n      swap2\n        /* \"DEX.sol_flattened.sol\":26389:26398  precision */\n      swap1\n        /* \"DEX.sol_flattened.sol\":26384:26398  _y * precision */\n      tag_127\n      jump\t// in\n    tag_314:\n        /* \"DEX.sol_flattened.sol\":26383:26404  (_y * precision) / _x */\n      tag_315\n      swap2\n      swap1\n      tag_115\n      jump\t// in\n    tag_315:\n        /* \"DEX.sol_flattened.sol\":26367:26379  stackingRate */\n      0x04\n        /* \"DEX.sol_flattened.sol\":26367:26405  stackingRate = ((_y * precision) / _x) */\n      sstore\n        /* \"DEX.sol_flattened.sol\":26416:26426  _updateK() */\n      tag_316\n        /* \"DEX.sol_flattened.sol\":26416:26424  _updateK */\n      tag_284\n        /* \"DEX.sol_flattened.sol\":26416:26426  _updateK() */\n      jump\t// in\n    tag_316:\n        /* \"DEX.sol_flattened.sol\":26441:26482  Stack(msg.sender, meme_amount, msg.value) */\n      0x40\n      dup1\n      mload\n        /* \"#utility.yul\":4844:4869   */\n      dup5\n      dup2\n      mstore\n        /* \"DEX.sol_flattened.sol\":26472:26481  msg.value */\n      callvalue\n        /* \"#utility.yul\":4900:4902   */\n      0x20\n        /* \"#utility.yul\":4885:4903   */\n      dup3\n      add\n        /* \"#utility.yul\":4878:4912   */\n      mstore\n        /* \"DEX.sol_flattened.sol\":26447:26457  msg.sender */\n      caller\n      swap2\n        /* \"DEX.sol_flattened.sol\":26441:26482  Stack(msg.sender, meme_amount, msg.value) */\n      0x5caad8f5613b6f1d592fc8c69d8f0999453740f0806c754f20cc92f3d4b2b1b6\n      swap2\n        /* \"#utility.yul\":4817:4835   */\n      add\n        /* \"DEX.sol_flattened.sol\":26441:26482  Stack(msg.sender, meme_amount, msg.value) */\n      mload(0x40)\n      dup1\n      swap2\n      sub\n      swap1\n      log2\n        /* \"DEX.sol_flattened.sol\":26062:26489  {... */\n      pop\n        /* \"DEX.sol_flattened.sol\":25996:26489  function _stack(uint256 meme_amount, uint256 eth_amount) internal {... */\n      pop\n      pop\n      jump\t// out\n        /* \"DEX.sol_flattened.sol\":27831:28859  function _distributeTax() internal view returns (uint256) {... */\n    tag_257:\n        /* \"DEX.sol_flattened.sol\":27880:27887  uint256 */\n      0x00\n      dup1\n      dup1\n        /* \"DEX.sol_flattened.sol\":27933:27941  dailyTax */\n      0x03\n        /* \"DEX.sol_flattened.sol\":27880:27887  uint256 */\n      dup2\n        /* \"DEX.sol_flattened.sol\":27942:27966  block.timestamp / 1 days */\n      tag_319\n        /* \"DEX.sol_flattened.sol\":27960:27966  1 days */\n      0x015180\n        /* \"DEX.sol_flattened.sol\":27942:27957  block.timestamp */\n      timestamp\n        /* \"DEX.sol_flattened.sol\":27942:27966  block.timestamp / 1 days */\n      tag_115\n      jump\t// in\n    tag_319:\n        /* \"DEX.sol_flattened.sol\":27933:27967  dailyTax[block.timestamp / 1 days] */\n      dup2\n      mstore\n      0x20\n      add\n      swap1\n      dup2\n      mstore\n      0x20\n      add\n      0x00\n      keccak256\n      sload\n        /* \"DEX.sol_flattened.sol\":27933:27971  dailyTax[block.timestamp / 1 days] > 0 */\n      gt\n        /* \"DEX.sol_flattened.sol\":27929:28828  if (dailyTax[block.timestamp / 1 days] > 0) {... */\n      iszero\n      tag_320\n      jumpi\n        /* \"DEX.sol_flattened.sol\":28027:28037  msg.sender */\n      caller\n        /* \"DEX.sol_flattened.sol\":27987:28016  Stack_Struct[] storage stacks */\n      0x00\n        /* \"DEX.sol_flattened.sol\":28019:28038  Stacked[msg.sender] */\n      swap1\n      dup2\n      mstore\n        /* \"DEX.sol_flattened.sol\":28019:28026  Stacked */\n      0x02\n        /* \"DEX.sol_flattened.sol\":28019:28038  Stacked[msg.sender] */\n      0x20\n      mstore\n      0x40\n      dup2\n      keccak256\n        /* \"DEX.sol_flattened.sol\":28072:28085  stacks.length */\n      dup1\n      sload\n        /* \"DEX.sol_flattened.sol\":28019:28038  Stacked[msg.sender] */\n      swap1\n      swap2\n        /* \"DEX.sol_flattened.sol\":27987:28016  Stack_Struct[] storage stacks */\n      dup1\n        /* \"DEX.sol_flattened.sol\":28139:28309  for (uint256 i = 0; i < numStacks; i++) {... */\n    tag_321:\n        /* \"DEX.sol_flattened.sol\":28163:28172  numStacks */\n      dup3\n        /* \"DEX.sol_flattened.sol\":28159:28160  i */\n      dup2\n        /* \"DEX.sol_flattened.sol\":28159:28172  i < numStacks */\n      lt\n        /* \"DEX.sol_flattened.sol\":28139:28309  for (uint256 i = 0; i < numStacks; i++) {... */\n      iszero\n      tag_322\n      jumpi\n        /* \"DEX.sol_flattened.sol\":28197:28219  Stack_Struct memory ss */\n      0x00\n        /* \"DEX.sol_flattened.sol\":28222:28228  stacks */\n      dup5\n        /* \"DEX.sol_flattened.sol\":28229:28230  i */\n      dup3\n        /* \"DEX.sol_flattened.sol\":28222:28231  stacks[i] */\n      dup2\n      sload\n      dup2\n      lt\n      tag_325\n      jumpi\n      tag_325\n      tag_254\n      jump\t// in\n    tag_325:\n      swap1\n      0x00\n      mstore\n      keccak256(0x00, 0x20)\n      swap1\n      0x03\n      mul\n      add\n        /* \"DEX.sol_flattened.sol\":28197:28231  Stack_Struct memory ss = stacks[i] */\n      mload(0x40)\n      dup1\n      0x60\n      add\n      0x40\n      mstore\n      swap1\n      dup2\n      0x00\n      dup3\n      add\n      sload\n      dup2\n      mstore\n      0x20\n      add\n      0x01\n      dup3\n      add\n      sload\n      dup2\n      mstore\n      0x20\n      add\n      0x02\n      dup3\n      add\n      sload\n      dup2\n      mstore\n      pop\n      pop\n      swap1\n      pop\n        /* \"DEX.sol_flattened.sol\":28286:28288  ss */\n      dup1\n        /* \"DEX.sol_flattened.sol\":28286:28293  ss.time */\n      0x40\n      add\n      mload\n        /* \"DEX.sol_flattened.sol\":28268:28283  block.timestamp */\n      timestamp\n        /* \"DEX.sol_flattened.sol\":28268:28293  block.timestamp - ss.time */\n      tag_327\n      swap2\n      swap1\n      tag_117\n      jump\t// in\n    tag_327:\n        /* \"DEX.sol_flattened.sol\":28249:28294  totalStackTime += (block.timestamp - ss.time) */\n      tag_328\n      swap1\n      dup5\n      tag_159\n      jump\t// in\n    tag_328:\n      swap3\n      pop\n        /* \"DEX.sol_flattened.sol\":28179:28309  {... */\n      pop\n        /* \"DEX.sol_flattened.sol\":28174:28177  i++ */\n      dup1\n      dup1\n      tag_329\n      swap1\n      tag_330\n      jump\t// in\n    tag_329:\n      swap2\n      pop\n      pop\n        /* \"DEX.sol_flattened.sol\":28139:28309  for (uint256 i = 0; i < numStacks; i++) {... */\n      jump(tag_321)\n    tag_322:\n      pop\n        /* \"DEX.sol_flattened.sol\":28327:28336  uint256 i */\n      0x00\n        /* \"DEX.sol_flattened.sol\":28322:28818  for (uint256 i = 0; i < numStacks; i++) {... */\n    tag_331:\n        /* \"DEX.sol_flattened.sol\":28346:28355  numStacks */\n      dup3\n        /* \"DEX.sol_flattened.sol\":28342:28343  i */\n      dup2\n        /* \"DEX.sol_flattened.sol\":28342:28355  i < numStacks */\n      lt\n        /* \"DEX.sol_flattened.sol\":28322:28818  for (uint256 i = 0; i < numStacks; i++) {... */\n      iszero\n      tag_332\n      jumpi\n        /* \"DEX.sol_flattened.sol\":28380:28402  Stack_Struct memory ss */\n      0x00\n        /* \"DEX.sol_flattened.sol\":28405:28411  stacks */\n      dup5\n        /* \"DEX.sol_flattened.sol\":28412:28413  i */\n      dup3\n        /* \"DEX.sol_flattened.sol\":28405:28414  stacks[i] */\n      dup2\n      sload\n      dup2\n      lt\n      tag_335\n      jumpi\n      tag_335\n      tag_254\n      jump\t// in\n    tag_335:\n      0x00\n      swap2\n      dup3\n      mstore\n      0x20\n      dup1\n      dup4\n      keccak256\n        /* \"DEX.sol_flattened.sol\":28380:28414  Stack_Struct memory ss = stacks[i] */\n      0x40\n      dup1\n      mload\n      0x60\n      dup2\n      add\n      dup3\n      mstore\n        /* \"DEX.sol_flattened.sol\":28405:28414  stacks[i] */\n      0x03\n      swap1\n      swap5\n      mul\n      swap1\n      swap2\n      add\n        /* \"DEX.sol_flattened.sol\":28380:28414  Stack_Struct memory ss = stacks[i] */\n      dup1\n      sload\n      dup1\n      dup6\n      mstore\n      0x01\n      dup3\n      add\n      sload\n      swap4\n      dup6\n      add\n      swap4\n      swap1\n      swap4\n      mstore\n      0x02\n      add\n      sload\n      swap1\n      dup4\n      add\n      mstore\n        /* \"DEX.sol_flattened.sol\":28484:28486  _x */\n      sload(0x06)\n        /* \"DEX.sol_flattened.sol\":28471:28480  precision */\n      sload(0x08)\n        /* \"DEX.sol_flattened.sol\":28380:28414  Stack_Struct memory ss = stacks[i] */\n      swap3\n      swap5\n      pop\n        /* \"DEX.sol_flattened.sol\":28484:28486  _x */\n      swap2\n        /* \"DEX.sol_flattened.sol\":28454:28480  ss.meme_amount * precision */\n      tag_337\n      swap2\n      tag_127\n      jump\t// in\n    tag_337:\n        /* \"DEX.sol_flattened.sol\":28453:28486  (ss.meme_amount * precision) / _x */\n      tag_338\n      swap2\n      swap1\n      tag_115\n      jump\t// in\n    tag_338:\n        /* \"DEX.sol_flattened.sol\":28432:28487  uint256 poolShare = ((ss.meme_amount * precision) / _x) */\n      swap1\n      pop\n        /* \"DEX.sol_flattened.sol\":28505:28522  uint256 stackTime */\n      0x00\n        /* \"DEX.sol_flattened.sol\":28544:28546  ss */\n      dup3\n        /* \"DEX.sol_flattened.sol\":28544:28551  ss.time */\n      0x40\n      add\n      mload\n        /* \"DEX.sol_flattened.sol\":28526:28541  block.timestamp */\n      timestamp\n        /* \"DEX.sol_flattened.sol\":28526:28551  block.timestamp - ss.time */\n      tag_339\n      swap2\n      swap1\n      tag_117\n      jump\t// in\n    tag_339:\n        /* \"DEX.sol_flattened.sol\":28505:28552  uint256 stackTime = (block.timestamp - ss.time) */\n      swap1\n      pop\n        /* \"DEX.sol_flattened.sol\":28570:28589  uint256 stackWeight */\n      0x00\n        /* \"DEX.sol_flattened.sol\":28592:28618  stackTime / totalStackTime */\n      tag_340\n        /* \"DEX.sol_flattened.sol\":28604:28618  totalStackTime */\n      dup7\n        /* \"DEX.sol_flattened.sol\":28505:28552  uint256 stackTime = (block.timestamp - ss.time) */\n      dup4\n        /* \"DEX.sol_flattened.sol\":28592:28618  stackTime / totalStackTime */\n      tag_115\n      jump\t// in\n    tag_340:\n        /* \"DEX.sol_flattened.sol\":28801:28803  _k */\n      sload(0x05)\n        /* \"DEX.sol_flattened.sol\":28570:28618  uint256 stackWeight = stackTime / totalStackTime */\n      swap1\n      swap2\n      pop\n      dup2\n        /* \"DEX.sol_flattened.sol\":28705:28713  dailyTax */\n      0x03\n        /* \"DEX.sol_flattened.sol\":28705:28739  dailyTax[block.timestamp / 1 days] */\n      0x00\n        /* \"DEX.sol_flattened.sol\":28714:28738  block.timestamp / 1 days */\n      tag_341\n        /* \"DEX.sol_flattened.sol\":28732:28738  1 days */\n      0x015180\n        /* \"DEX.sol_flattened.sol\":28714:28729  block.timestamp */\n      timestamp\n        /* \"DEX.sol_flattened.sol\":28714:28738  block.timestamp / 1 days */\n      tag_115\n      jump\t// in\n    tag_341:\n        /* \"DEX.sol_flattened.sol\":28705:28739  dailyTax[block.timestamp / 1 days] */\n      dup2\n      mstore\n      0x20\n      add\n      swap1\n      dup2\n      mstore\n      0x20\n      add\n      0x00\n      keccak256\n      sload\n        /* \"DEX.sol_flattened.sol\":28669:28678  poolShare */\n      dup6\n        /* \"DEX.sol_flattened.sol\":28669:28739  poolShare *... */\n      tag_342\n      swap2\n      swap1\n      tag_127\n      jump\t// in\n    tag_342:\n        /* \"DEX.sol_flattened.sol\":28669:28777  poolShare *... */\n      tag_343\n      swap2\n      swap1\n      tag_127\n      jump\t// in\n    tag_343:\n        /* \"DEX.sol_flattened.sol\":28668:28803  (poolShare *... */\n      tag_344\n      swap2\n      swap1\n      tag_115\n      jump\t// in\n    tag_344:\n        /* \"DEX.sol_flattened.sol\":28636:28803  taxShare +=... */\n      tag_345\n      swap1\n      dup11\n      tag_159\n      jump\t// in\n    tag_345:\n      swap9\n      pop\n        /* \"DEX.sol_flattened.sol\":28362:28818  {... */\n      pop\n      pop\n      pop\n      pop\n        /* \"DEX.sol_flattened.sol\":28357:28360  i++ */\n      dup1\n      dup1\n      tag_346\n      swap1\n      tag_330\n      jump\t// in\n    tag_346:\n      swap2\n      pop\n      pop\n        /* \"DEX.sol_flattened.sol\":28322:28818  for (uint256 i = 0; i < numStacks; i++) {... */\n      jump(tag_331)\n    tag_332:\n      pop\n        /* \"DEX.sol_flattened.sol\":27973:28828  {... */\n      pop\n      pop\n      pop\n        /* \"DEX.sol_flattened.sol\":27929:28828  if (dailyTax[block.timestamp / 1 days] > 0) {... */\n    tag_320:\n        /* \"DEX.sol_flattened.sol\":28844:28852  taxShare */\n      swap2\n        /* \"DEX.sol_flattened.sol\":27831:28859  function _distributeTax() internal view returns (uint256) {... */\n      swap1\n      pop\n      jump\t// out\n        /* \"DEX.sol_flattened.sol\":27513:27825  function _removeArr(uint256 index) internal {... */\n    tag_282:\n        /* \"DEX.sol_flattened.sol\":27591:27601  msg.sender */\n      caller\n        /* \"DEX.sol_flattened.sol\":27583:27602  Stacked[msg.sender] */\n      0x00\n      swap1\n      dup2\n      mstore\n        /* \"DEX.sol_flattened.sol\":27583:27590  Stacked */\n      0x02\n        /* \"DEX.sol_flattened.sol\":27583:27602  Stacked[msg.sender] */\n      0x20\n      mstore\n      0x40\n      swap1\n      keccak256\n        /* \"DEX.sol_flattened.sol\":27583:27609  Stacked[msg.sender].length */\n      sload\n        /* \"DEX.sol_flattened.sol\":27575:27609  index < Stacked[msg.sender].length */\n      dup2\n      lt\n        /* \"DEX.sol_flattened.sol\":27567:27633  require(index < Stacked[msg.sender].length, \"Index out of bounds\") */\n      tag_348\n      jumpi\n      mload(0x40)\n      shl(0xe5, 0x461bcd)\n      dup2\n      mstore\n        /* \"#utility.yul\":9433:9435   */\n      0x20\n        /* \"DEX.sol_flattened.sol\":27567:27633  require(index < Stacked[msg.sender].length, \"Index out of bounds\") */\n      0x04\n      dup3\n      add\n        /* \"#utility.yul\":9415:9436   */\n      mstore\n        /* \"#utility.yul\":9472:9474   */\n      0x13\n        /* \"#utility.yul\":9452:9470   */\n      0x24\n      dup3\n      add\n        /* \"#utility.yul\":9445:9475   */\n      mstore\n      shl(0x68, 0x496e646578206f7574206f6620626f756e6473)\n        /* \"#utility.yul\":9491:9509   */\n      0x44\n      dup3\n      add\n        /* \"#utility.yul\":9484:9533   */\n      mstore\n        /* \"#utility.yul\":9550:9568   */\n      0x64\n      add\n        /* \"DEX.sol_flattened.sol\":27567:27633  require(index < Stacked[msg.sender].length, \"Index out of bounds\") */\n      tag_111\n        /* \"#utility.yul\":9231:9574   */\n      jump\n        /* \"DEX.sol_flattened.sol\":27567:27633  require(index < Stacked[msg.sender].length, \"Index out of bounds\") */\n    tag_348:\n        /* \"DEX.sol_flattened.sol\":27660:27665  index */\n      dup1\n        /* \"DEX.sol_flattened.sol\":27643:27784  for (uint256 i = index; i < Stacked[msg.sender].length - 1; i++) {... */\n    tag_351:\n        /* \"DEX.sol_flattened.sol\":27679:27689  msg.sender */\n      caller\n        /* \"DEX.sol_flattened.sol\":27671:27690  Stacked[msg.sender] */\n      0x00\n      swap1\n      dup2\n      mstore\n        /* \"DEX.sol_flattened.sol\":27671:27678  Stacked */\n      0x02\n        /* \"DEX.sol_flattened.sol\":27671:27690  Stacked[msg.sender] */\n      0x20\n      mstore\n      0x40\n      swap1\n      keccak256\n        /* \"DEX.sol_flattened.sol\":27671:27697  Stacked[msg.sender].length */\n      sload\n        /* \"DEX.sol_flattened.sol\":27671:27701  Stacked[msg.sender].length - 1 */\n      tag_354\n      swap1\n        /* \"DEX.sol_flattened.sol\":27700:27701  1 */\n      0x01\n      swap1\n        /* \"DEX.sol_flattened.sol\":27671:27701  Stacked[msg.sender].length - 1 */\n      tag_117\n      jump\t// in\n    tag_354:\n        /* \"DEX.sol_flattened.sol\":27667:27668  i */\n      dup2\n        /* \"DEX.sol_flattened.sol\":27667:27701  i < Stacked[msg.sender].length - 1 */\n      lt\n        /* \"DEX.sol_flattened.sol\":27643:27784  for (uint256 i = index; i < Stacked[msg.sender].length - 1; i++) {... */\n      iszero\n      tag_352\n      jumpi\n        /* \"DEX.sol_flattened.sol\":27755:27765  msg.sender */\n      caller\n        /* \"DEX.sol_flattened.sol\":27747:27766  Stacked[msg.sender] */\n      0x00\n      swap1\n      dup2\n      mstore\n        /* \"DEX.sol_flattened.sol\":27747:27754  Stacked */\n      0x02\n        /* \"DEX.sol_flattened.sol\":27747:27766  Stacked[msg.sender] */\n      0x20\n      mstore\n      0x40\n      swap1\n      keccak256\n        /* \"DEX.sol_flattened.sol\":27767:27772  i + 1 */\n      tag_355\n        /* \"DEX.sol_flattened.sol\":27767:27768  i */\n      dup3\n        /* \"DEX.sol_flattened.sol\":27771:27772  1 */\n      0x01\n        /* \"DEX.sol_flattened.sol\":27767:27772  i + 1 */\n      tag_159\n      jump\t// in\n    tag_355:\n        /* \"DEX.sol_flattened.sol\":27747:27773  Stacked[msg.sender][i + 1] */\n      dup2\n      sload\n      dup2\n      lt\n      tag_357\n      jumpi\n      tag_357\n      tag_254\n      jump\t// in\n    tag_357:\n      swap1\n      0x00\n      mstore\n      keccak256(0x00, 0x20)\n      swap1\n      0x03\n      mul\n      add\n        /* \"DEX.sol_flattened.sol\":27722:27729  Stacked */\n      0x02\n        /* \"DEX.sol_flattened.sol\":27722:27741  Stacked[msg.sender] */\n      0x00\n        /* \"DEX.sol_flattened.sol\":27730:27740  msg.sender */\n      caller\n      sub(shl(0xa0, 0x01), 0x01)\n        /* \"DEX.sol_flattened.sol\":27722:27741  Stacked[msg.sender] */\n      and\n      sub(shl(0xa0, 0x01), 0x01)\n      and\n      dup2\n      mstore\n      0x20\n      add\n      swap1\n      dup2\n      mstore\n      0x20\n      add\n      0x00\n      keccak256\n        /* \"DEX.sol_flattened.sol\":27742:27743  i */\n      dup3\n        /* \"DEX.sol_flattened.sol\":27722:27744  Stacked[msg.sender][i] */\n      dup2\n      sload\n      dup2\n      lt\n      tag_360\n      jumpi\n      tag_360\n      tag_254\n      jump\t// in\n    tag_360:\n      0x00\n      swap2\n      dup3\n      mstore\n      0x20\n      swap1\n      swap2\n      keccak256\n        /* \"DEX.sol_flattened.sol\":27722:27773  Stacked[msg.sender][i] = Stacked[msg.sender][i + 1] */\n      dup3\n      sload\n        /* \"DEX.sol_flattened.sol\":27722:27744  Stacked[msg.sender][i] */\n      0x03\n      swap1\n      swap3\n      mul\n      add\n        /* \"DEX.sol_flattened.sol\":27722:27773  Stacked[msg.sender][i] = Stacked[msg.sender][i + 1] */\n      swap1\n      dup2\n      sstore\n      0x01\n      dup1\n      dup4\n      add\n      sload\n      swap1\n      dup3\n      add\n      sstore\n      0x02\n      swap2\n      dup3\n      add\n      sload\n      swap2\n      add\n      sstore\n        /* \"DEX.sol_flattened.sol\":27703:27706  i++ */\n      dup1\n      tag_362\n      dup2\n      tag_330\n      jump\t// in\n    tag_362:\n      swap2\n      pop\n      pop\n        /* \"DEX.sol_flattened.sol\":27643:27784  for (uint256 i = index; i < Stacked[msg.sender].length - 1; i++) {... */\n      jump(tag_351)\n    tag_352:\n      pop\n        /* \"DEX.sol_flattened.sol\":27801:27811  msg.sender */\n      caller\n        /* \"DEX.sol_flattened.sol\":27793:27812  Stacked[msg.sender] */\n      0x00\n      swap1\n      dup2\n      mstore\n        /* \"DEX.sol_flattened.sol\":27793:27800  Stacked */\n      0x02\n        /* \"DEX.sol_flattened.sol\":27793:27812  Stacked[msg.sender] */\n      0x20\n      mstore\n      0x40\n      swap1\n      keccak256\n        /* \"DEX.sol_flattened.sol\":27793:27818  Stacked[msg.sender].pop() */\n      dup1\n      sload\n      dup1\n      tag_364\n      jumpi\n      tag_364\n      tag_365\n      jump\t// in\n    tag_364:\n      0x00\n      dup3\n      dup2\n      mstore\n      0x20\n      dup2\n      keccak256\n      0x03\n      not(0x00)\n      swap1\n      swap4\n      add\n      swap3\n      dup4\n      mul\n      add\n      dup2\n      dup2\n      sstore\n      0x01\n      dup2\n      add\n      dup3\n      swap1\n      sstore\n      0x02\n      add\n      sstore\n      swap1\n      sstore\n      pop\n        /* \"DEX.sol_flattened.sol\":27513:27825  function _removeArr(uint256 index) internal {... */\n      jump\t// out\n        /* \"DEX.sol_flattened.sol\":25346:25404  function _updateK() internal {... */\n    tag_284:\n        /* \"DEX.sol_flattened.sol\":25395:25397  _y */\n      sload(0x07)\n        /* \"DEX.sol_flattened.sol\":25390:25392  _x */\n      sload(0x06)\n        /* \"DEX.sol_flattened.sol\":25390:25397  _x * _y */\n      tag_368\n      swap2\n      swap1\n      tag_127\n      jump\t// in\n    tag_368:\n        /* \"DEX.sol_flattened.sol\":25385:25387  _k */\n      0x05\n        /* \"DEX.sol_flattened.sol\":25385:25397  _k = _x * _y */\n      sstore\n        /* \"DEX.sol_flattened.sol\":25346:25404  function _updateK() internal {... */\n      jump\t// out\n        /* \"DEX.sol_flattened.sol\":22984:23090  function _requirePaused() internal view virtual {... */\n    tag_295:\n        /* \"DEX.sol_flattened.sol\":22701:22705  bool */\n      0x00\n        /* \"DEX.sol_flattened.sol\":22724:22731  _paused */\n      sload\n      0xff\n      and\n        /* \"DEX.sol_flattened.sol\":23042:23083  require(paused(), \"Pausable: not paused\") */\n      tag_140\n      jumpi\n      mload(0x40)\n      shl(0xe5, 0x461bcd)\n      dup2\n      mstore\n        /* \"#utility.yul\":9913:9915   */\n      0x20\n        /* \"DEX.sol_flattened.sol\":23042:23083  require(paused(), \"Pausable: not paused\") */\n      0x04\n      dup3\n      add\n        /* \"#utility.yul\":9895:9916   */\n      mstore\n        /* \"#utility.yul\":9952:9954   */\n      0x14\n        /* \"#utility.yul\":9932:9950   */\n      0x24\n      dup3\n      add\n        /* \"#utility.yul\":9925:9955   */\n      mstore\n      shl(0x62, 0x14185d5cd8589b194e881b9bdd081c185d5cd959)\n        /* \"#utility.yul\":9971:9989   */\n      0x44\n      dup3\n      add\n        /* \"#utility.yul\":9964:10014   */\n      mstore\n        /* \"#utility.yul\":10031:10049   */\n      0x64\n      add\n        /* \"DEX.sol_flattened.sol\":23042:23083  require(paused(), \"Pausable: not paused\") */\n      tag_111\n        /* \"#utility.yul\":9711:10055   */\n      jump\n        /* \"DEX.sol_flattened.sol\":22806:22912  function _requireNotPaused() internal view virtual {... */\n    tag_302:\n        /* \"DEX.sol_flattened.sol\":22701:22705  bool */\n      0x00\n        /* \"DEX.sol_flattened.sol\":22724:22731  _paused */\n      sload\n      0xff\n      and\n        /* \"DEX.sol_flattened.sol\":22875:22884  !paused() */\n      iszero\n        /* \"DEX.sol_flattened.sol\":22867:22905  require(!paused(), \"Pausable: paused\") */\n      tag_140\n      jumpi\n      mload(0x40)\n      shl(0xe5, 0x461bcd)\n      dup2\n      mstore\n        /* \"#utility.yul\":10262:10264   */\n      0x20\n        /* \"DEX.sol_flattened.sol\":22867:22905  require(!paused(), \"Pausable: paused\") */\n      0x04\n      dup3\n      add\n        /* \"#utility.yul\":10244:10265   */\n      mstore\n        /* \"#utility.yul\":10301:10303   */\n      0x10\n        /* \"#utility.yul\":10281:10299   */\n      0x24\n      dup3\n      add\n        /* \"#utility.yul\":10274:10304   */\n      mstore\n      shl(0x82, 0x14185d5cd8589b194e881c185d5cd959)\n        /* \"#utility.yul\":10320:10338   */\n      0x44\n      dup3\n      add\n        /* \"#utility.yul\":10313:10359   */\n      mstore\n        /* \"#utility.yul\":10376:10394   */\n      0x64\n      add\n        /* \"DEX.sol_flattened.sol\":22867:22905  require(!paused(), \"Pausable: paused\") */\n      tag_111\n        /* \"#utility.yul\":10060:10400   */\n      jump\n        /* \"#utility.yul\":14:194   */\n    tag_28:\n        /* \"#utility.yul\":73:79   */\n      0x00\n        /* \"#utility.yul\":126:128   */\n      0x20\n        /* \"#utility.yul\":114:123   */\n      dup3\n        /* \"#utility.yul\":105:112   */\n      dup5\n        /* \"#utility.yul\":101:124   */\n      sub\n        /* \"#utility.yul\":97:129   */\n      slt\n        /* \"#utility.yul\":94:146   */\n      iszero\n      tag_383\n      jumpi\n        /* \"#utility.yul\":142:143   */\n      0x00\n        /* \"#utility.yul\":139:140   */\n      dup1\n        /* \"#utility.yul\":132:144   */\n      revert\n        /* \"#utility.yul\":94:146   */\n    tag_383:\n      pop\n        /* \"#utility.yul\":165:188   */\n      calldataload\n      swap2\n        /* \"#utility.yul\":14:194   */\n      swap1\n      pop\n      jump\t// out\n        /* \"#utility.yul\":781:1634   */\n    tag_103:\n        /* \"#utility.yul\":1012:1014   */\n      0x20\n        /* \"#utility.yul\":1064:1085   */\n      dup1\n      dup3\n      mstore\n        /* \"#utility.yul\":1134:1147   */\n      dup3\n      mload\n        /* \"#utility.yul\":1037:1055   */\n      dup3\n      dup3\n      add\n        /* \"#utility.yul\":1156:1178   */\n      dup2\n      swap1\n      mstore\n        /* \"#utility.yul\":983:987   */\n      0x00\n      swap2\n        /* \"#utility.yul\":1012:1014   */\n      swap1\n        /* \"#utility.yul\":1197:1199   */\n      0x40\n      swap1\n        /* \"#utility.yul\":1215:1233   */\n      dup2\n      dup6\n      add\n      swap1\n        /* \"#utility.yul\":1256:1271   */\n      dup7\n      dup5\n      add\n        /* \"#utility.yul\":983:987   */\n      dup6\n        /* \"#utility.yul\":1299:1608   */\n    tag_388:\n        /* \"#utility.yul\":1313:1319   */\n      dup3\n        /* \"#utility.yul\":1310:1311   */\n      dup2\n        /* \"#utility.yul\":1307:1320   */\n      lt\n        /* \"#utility.yul\":1299:1608   */\n      iszero\n      tag_390\n      jumpi\n        /* \"#utility.yul\":1372:1385   */\n      dup2\n      mload\n        /* \"#utility.yul\":1410:1419   */\n      dup1\n      mload\n        /* \"#utility.yul\":1398:1420   */\n      dup6\n      mstore\n        /* \"#utility.yul\":1460:1471   */\n      dup7\n      dup2\n      add\n        /* \"#utility.yul\":1454:1472   */\n      mload\n        /* \"#utility.yul\":1440:1452   */\n      dup8\n      dup7\n      add\n        /* \"#utility.yul\":1433:1473   */\n      mstore\n        /* \"#utility.yul\":1513:1524   */\n      dup6\n      add\n        /* \"#utility.yul\":1507:1525   */\n      mload\n        /* \"#utility.yul\":1493:1505   */\n      dup6\n      dup6\n      add\n        /* \"#utility.yul\":1486:1526   */\n      mstore\n        /* \"#utility.yul\":1555:1559   */\n      0x60\n        /* \"#utility.yul\":1546:1560   */\n      swap1\n      swap4\n      add\n      swap3\n        /* \"#utility.yul\":1583:1598   */\n      swap1\n      dup6\n      add\n      swap1\n        /* \"#utility.yul\":1335:1336   */\n      0x01\n        /* \"#utility.yul\":1328:1337   */\n      add\n        /* \"#utility.yul\":1299:1608   */\n      jump(tag_388)\n    tag_390:\n      pop\n        /* \"#utility.yul\":1625:1628   */\n      swap2\n      swap8\n        /* \"#utility.yul\":781:1634   */\n      swap7\n      pop\n      pop\n      pop\n      pop\n      pop\n      pop\n      pop\n      jump\t// out\n        /* \"#utility.yul\":1639:1925   */\n    tag_107:\n        /* \"#utility.yul\":1698:1704   */\n      0x00\n        /* \"#utility.yul\":1751:1753   */\n      0x20\n        /* \"#utility.yul\":1739:1748   */\n      dup3\n        /* \"#utility.yul\":1730:1737   */\n      dup5\n        /* \"#utility.yul\":1726:1749   */\n      sub\n        /* \"#utility.yul\":1722:1754   */\n      slt\n        /* \"#utility.yul\":1719:1771   */\n      iszero\n      tag_392\n      jumpi\n        /* \"#utility.yul\":1767:1768   */\n      0x00\n        /* \"#utility.yul\":1764:1765   */\n      dup1\n        /* \"#utility.yul\":1757:1769   */\n      revert\n        /* \"#utility.yul\":1719:1771   */\n    tag_392:\n        /* \"#utility.yul\":1793:1816   */\n      dup2\n      calldataload\n      sub(shl(0xa0, 0x01), 0x01)\n        /* \"#utility.yul\":1845:1876   */\n      dup2\n      and\n        /* \"#utility.yul\":1835:1877   */\n      dup2\n      eq\n        /* \"#utility.yul\":1825:1895   */\n      tag_393\n      jumpi\n        /* \"#utility.yul\":1891:1892   */\n      0x00\n        /* \"#utility.yul\":1888:1889   */\n      dup1\n        /* \"#utility.yul\":1881:1893   */\n      revert\n        /* \"#utility.yul\":1825:1895   */\n    tag_393:\n        /* \"#utility.yul\":1914:1919   */\n      swap4\n        /* \"#utility.yul\":1639:1925   */\n      swap3\n      pop\n      pop\n      pop\n      jump\t// out\n        /* \"#utility.yul\":2279:2406   */\n    tag_380:\n        /* \"#utility.yul\":2340:2350   */\n      0x4e487b71\n        /* \"#utility.yul\":2335:2338   */\n      0xe0\n        /* \"#utility.yul\":2331:2351   */\n      shl\n        /* \"#utility.yul\":2328:2329   */\n      0x00\n        /* \"#utility.yul\":2321:2352   */\n      mstore\n        /* \"#utility.yul\":2371:2375   */\n      0x11\n        /* \"#utility.yul\":2368:2369   */\n      0x04\n        /* \"#utility.yul\":2361:2376   */\n      mstore\n        /* \"#utility.yul\":2395:2399   */\n      0x24\n        /* \"#utility.yul\":2392:2393   */\n      0x00\n        /* \"#utility.yul\":2385:2400   */\n      revert\n        /* \"#utility.yul\":2411:2628   */\n    tag_115:\n        /* \"#utility.yul\":2451:2452   */\n      0x00\n        /* \"#utility.yul\":2477:2478   */\n      dup3\n        /* \"#utility.yul\":2467:2599   */\n      tag_397\n      jumpi\n        /* \"#utility.yul\":2521:2531   */\n      0x4e487b71\n        /* \"#utility.yul\":2516:2519   */\n      0xe0\n        /* \"#utility.yul\":2512:2532   */\n      shl\n        /* \"#utility.yul\":2509:2510   */\n      0x00\n        /* \"#utility.yul\":2502:2533   */\n      mstore\n        /* \"#utility.yul\":2556:2560   */\n      0x12\n        /* \"#utility.yul\":2553:2554   */\n      0x04\n        /* \"#utility.yul\":2546:2561   */\n      mstore\n        /* \"#utility.yul\":2584:2588   */\n      0x24\n        /* \"#utility.yul\":2581:2582   */\n      0x00\n        /* \"#utility.yul\":2574:2589   */\n      revert\n        /* \"#utility.yul\":2467:2599   */\n    tag_397:\n      pop\n        /* \"#utility.yul\":2613:2622   */\n      div\n      swap1\n        /* \"#utility.yul\":2411:2628   */\n      jump\t// out\n        /* \"#utility.yul\":2633:2761   */\n    tag_117:\n        /* \"#utility.yul\":2700:2709   */\n      dup2\n      dup2\n      sub\n        /* \"#utility.yul\":2721:2732   */\n      dup2\n      dup2\n      gt\n        /* \"#utility.yul\":2718:2755   */\n      iszero\n      tag_400\n      jumpi\n        /* \"#utility.yul\":2735:2753   */\n      tag_400\n      tag_380\n      jump\t// in\n    tag_400:\n        /* \"#utility.yul\":2633:2761   */\n      swap3\n      swap2\n      pop\n      pop\n      jump\t// out\n        /* \"#utility.yul\":2766:2934   */\n    tag_127:\n        /* \"#utility.yul\":2839:2848   */\n      dup1\n      dup3\n      mul\n        /* \"#utility.yul\":2870:2879   */\n      dup2\n      iszero\n        /* \"#utility.yul\":2887:2902   */\n      dup3\n      dup3\n      div\n        /* \"#utility.yul\":2881:2903   */\n      dup5\n      eq\n        /* \"#utility.yul\":2867:2904   */\n      or\n        /* \"#utility.yul\":2857:2928   */\n      tag_400\n      jumpi\n        /* \"#utility.yul\":2908:2926   */\n      tag_400\n      tag_380\n      jump\t// in\n        /* \"#utility.yul\":3294:3419   */\n    tag_159:\n        /* \"#utility.yul\":3359:3368   */\n      dup1\n      dup3\n      add\n        /* \"#utility.yul\":3380:3390   */\n      dup1\n      dup3\n      gt\n        /* \"#utility.yul\":3377:3413   */\n      iszero\n      tag_400\n      jumpi\n        /* \"#utility.yul\":3393:3411   */\n      tag_400\n      tag_380\n      jump\t// in\n        /* \"#utility.yul\":4388:4665   */\n    tag_185:\n        /* \"#utility.yul\":4455:4461   */\n      0x00\n        /* \"#utility.yul\":4508:4510   */\n      0x20\n        /* \"#utility.yul\":4496:4505   */\n      dup3\n        /* \"#utility.yul\":4487:4494   */\n      dup5\n        /* \"#utility.yul\":4483:4506   */\n      sub\n        /* \"#utility.yul\":4479:4511   */\n      slt\n        /* \"#utility.yul\":4476:4528   */\n      iszero\n      tag_412\n      jumpi\n        /* \"#utility.yul\":4524:4525   */\n      0x00\n        /* \"#utility.yul\":4521:4522   */\n      dup1\n        /* \"#utility.yul\":4514:4526   */\n      revert\n        /* \"#utility.yul\":4476:4528   */\n    tag_412:\n        /* \"#utility.yul\":4556:4565   */\n      dup2\n        /* \"#utility.yul\":4550:4566   */\n      mload\n        /* \"#utility.yul\":4609:4614   */\n      dup1\n        /* \"#utility.yul\":4602:4615   */\n      iszero\n        /* \"#utility.yul\":4595:4616   */\n      iszero\n        /* \"#utility.yul\":4588:4593   */\n      dup2\n        /* \"#utility.yul\":4585:4617   */\n      eq\n        /* \"#utility.yul\":4575:4635   */\n      tag_393\n      jumpi\n        /* \"#utility.yul\":4631:4632   */\n      0x00\n        /* \"#utility.yul\":4628:4629   */\n      dup1\n        /* \"#utility.yul\":4621:4633   */\n      revert\n        /* \"#utility.yul\":6300:6484   */\n    tag_221:\n        /* \"#utility.yul\":6370:6376   */\n      0x00\n        /* \"#utility.yul\":6423:6425   */\n      0x20\n        /* \"#utility.yul\":6411:6420   */\n      dup3\n        /* \"#utility.yul\":6402:6409   */\n      dup5\n        /* \"#utility.yul\":6398:6421   */\n      sub\n        /* \"#utility.yul\":6394:6426   */\n      slt\n        /* \"#utility.yul\":6391:6443   */\n      iszero\n      tag_420\n      jumpi\n        /* \"#utility.yul\":6439:6440   */\n      0x00\n        /* \"#utility.yul\":6436:6437   */\n      dup1\n        /* \"#utility.yul\":6429:6441   */\n      revert\n        /* \"#utility.yul\":6391:6443   */\n    tag_420:\n      pop\n        /* \"#utility.yul\":6462:6478   */\n      mload\n      swap2\n        /* \"#utility.yul\":6300:6484   */\n      swap1\n      pop\n      jump\t// out\n        /* \"#utility.yul\":7631:7758   */\n    tag_254:\n        /* \"#utility.yul\":7692:7702   */\n      0x4e487b71\n        /* \"#utility.yul\":7687:7690   */\n      0xe0\n        /* \"#utility.yul\":7683:7703   */\n      shl\n        /* \"#utility.yul\":7680:7681   */\n      0x00\n        /* \"#utility.yul\":7673:7704   */\n      mstore\n        /* \"#utility.yul\":7723:7727   */\n      0x32\n        /* \"#utility.yul\":7720:7721   */\n      0x04\n        /* \"#utility.yul\":7713:7728   */\n      mstore\n        /* \"#utility.yul\":7747:7751   */\n      0x24\n        /* \"#utility.yul\":7744:7745   */\n      0x00\n        /* \"#utility.yul\":7737:7752   */\n      revert\n        /* \"#utility.yul\":9091:9226   */\n    tag_330:\n        /* \"#utility.yul\":9130:9133   */\n      0x00\n        /* \"#utility.yul\":9151:9168   */\n      0x01\n      dup3\n      add\n        /* \"#utility.yul\":9148:9191   */\n      tag_430\n      jumpi\n        /* \"#utility.yul\":9171:9189   */\n      tag_430\n      tag_380\n      jump\t// in\n    tag_430:\n      pop\n        /* \"#utility.yul\":9218:9219   */\n      0x01\n        /* \"#utility.yul\":9207:9220   */\n      add\n      swap1\n        /* \"#utility.yul\":9091:9226   */\n      jump\t// out\n        /* \"#utility.yul\":9579:9706   */\n    tag_365:\n        /* \"#utility.yul\":9640:9650   */\n      0x4e487b71\n        /* \"#utility.yul\":9635:9638   */\n      0xe0\n        /* \"#utility.yul\":9631:9651   */\n      shl\n        /* \"#utility.yul\":9628:9629   */\n      0x00\n        /* \"#utility.yul\":9621:9652   */\n      mstore\n        /* \"#utility.yul\":9671:9675   */\n      0x31\n        /* \"#utility.yul\":9668:9669   */\n      0x04\n        /* \"#utility.yul\":9661:9676   */\n      mstore\n        /* \"#utility.yul\":9695:9699   */\n      0x24\n        /* \"#utility.yul\":9692:9693   */\n      0x00\n        /* \"#utility.yul\":9685:9700   */\n      revert\n\n    auxdata: 0xa2646970667358221220ce58bcc8980097a92633e41d16c08fb6b2e7262fdb42bb9bf6f114125554963e64736f6c63430008130033\n}\n",
				"bytecode": {
					"linkReferences": {},
					"object": "6080604052678ac7230489e80000600855600a6008546003620000239190620000f6565b6200002f919062000122565b6009553480156200003f57600080fd5b506040516200194e3803806200194e833981016040819052620000629162000145565b6000805460ff1916905562000077336200009d565b600180546001600160a01b0319166001600160a01b039290921691909117905562000177565b600080546001600160a01b03838116610100818102610100600160a81b0319851617855560405193049190911692909183917f8be0079c531659141344cd1fd0a4f28419497f9722a3daafe3b4186f6b6457e091a35050565b80820281158282048414176200011c57634e487b7160e01b600052601160045260246000fd5b92915050565b6000826200014057634e487b7160e01b600052601260045260246000fd5b500490565b6000602082840312156200015857600080fd5b81516001600160a01b03811681146200017057600080fd5b9392505050565b6117c780620001876000396000f3fe60806040526004361061011f5760003560e01c8063771a3a1d116100a0578063d96a094a11610064578063d96a094a146102e2578063dc9031c4146102f5578063e4849b3214610308578063e8bca8b814610328578063f2fde38b1461034a57600080fd5b8063771a3a1d146102555780638456cb591461026b5780638da5cb5b146102805780639c74f05d146102b6578063d3b5dc3b146102cc57600080fd5b80632ad9d559116100e75780632ad9d559146101bb5780633f4ba83a146101e85780635c572ed0146101fd5780635c975abb1461021d578063715018a61461024057600080fd5b80631a753fed146101245780631b82c27f14610157578063200061df1461016d57806328726bda1461018f57806329809703146101a5575b600080fd5b34801561013057600080fd5b5061014461013f3660046115f4565b61036a565b6040519081526020015b60405180910390f35b34801561016357600080fd5b5061014460055481565b34801561017957600080fd5b5061018d6101883660046115f4565b61047c565b005b34801561019b57600080fd5b5061014460075481565b3480156101b157600080fd5b5061014460065481565b3480156101c757600080fd5b506101446101d63660046115f4565b60036020526000908152604090205481565b3480156101f457600080fd5b5061018d610488565b34801561020957600080fd5b506101446102183660046115f4565b61049a565b34801561022957600080fd5b5060005460ff16604051901515815260200161014e565b34801561024c57600080fd5b5061018d61059c565b34801561026157600080fd5b5061014460095481565b34801561027757600080fd5b5061018d6105ae565b34801561028c57600080fd5b5060005461010090046001600160a01b03166040516001600160a01b03909116815260200161014e565b3480156102c257600080fd5b5061014460045481565b3480156102d857600080fd5b5061014460085481565b61018d6102f03660046115f4565b6105be565b61018d6103033660046115f4565b6107bc565b34801561031457600080fd5b5061018d6103233660046115f4565b6108a9565b34801561033457600080fd5b5061033d610b15565b60405161014e919061160d565b34801561035657600080fd5b5061018d610365366004611666565b610b9d565b600080600554116103b95760405162461bcd60e51b81526020600482015260146024820152734e6f7420656e6f756768206c697175696469747960601b60448201526064015b60405180910390fd5b6000806006546000036103e7578360016005546103d691906116ac565b6103e091906116ce565b9050610405565b836006546005546103f891906116ac565b61040291906116ce565b90505b8060000361042357600160055461041c91906116ac565b9150610434565b8060055461043191906116ac565b91505b60006006548361044491906116ce565b905060006008546009548361045991906116e7565b61046391906116ac565b9050600061047182846116ce565b979650505050505050565b61048581610c13565b50565b610490610f6e565b610498610fce565b565b600080600554116104e45760405162461bcd60e51b81526020600482015260146024820152734e6f7420656e6f756768206c697175696469747960601b60448201526064016103b0565b6000806007546000036105125783600160055461050191906116ac565b61050b91906116ce565b9150610530565b8360075460055461052391906116ac565b61052d91906116ce565b91505b8160000361054e57600160055461054791906116ac565b905061055f565b8160055461055c91906116ac565b90505b60006007548261056f91906116ce565b905060006008546009548361058491906116e7565b61058e91906116ac565b9050600061047182846116fe565b6105a4610f6e565b6104986000611020565b6105b6610f6e565b610498611079565b600081116105ff5760405162461bcd60e51b815260206004820152600e60248201526d53656e6420536f6d65204d656d6560901b60448201526064016103b0565b600061060a8261049a565b90503481111561064c5760405162461bcd60e51b815260206004820152600d60248201526c0a6cadcc8409adee4ca408aa89609b1b60448201526064016103b0565b60015460405163a9059cbb60e01b8152336004820152602481018490526001600160a01b039091169063a9059cbb906044016020604051808303816000875af115801561069d573d6000803e3d6000fd5b505050506040513d601f19601f820116820180604052508101906106c19190611711565b50336108fc6106d083346116ce565b6040518115909202916000818181858888f193505050501580156106f8573d6000803e3d6000fd5b5060085460095461070990826116fe565b61071390846116e7565b61071d91906116ac565b6003600061072e62015180426116ac565b8152602001908152602001600020600082825461074b91906116fe565b92505081905550816006600082825461076491906116ce565b909155505060065460055461077991906116ac565b600755604080518381526020810183905233917f1cbc5ab135991bd2b6a4b034a04aa2aa086dac1371cb9b16b8b5e2ed6b036bed91015b60405180910390a25050565b600081116107fd5760405162461bcd60e51b815260206004820152600e60248201526d53656e64206d6f7265204d454d4560901b60448201526064016103b0565b6000341161083d5760405162461bcd60e51b815260206004820152600d60248201526c0a6cadcc840dadee4ca408aa89609b1b60448201526064016103b0565b806008543461084c91906116e7565b61085691906116ac565b600454111561089f5760405162461bcd60e51b815260206004820152601560248201527414dd1858dada5b99c814985d19481b9bdd081b595d605a1b60448201526064016103b0565b61048581346110b6565b600081116108e95760405162461bcd60e51b815260206004820152600d60248201526c0a6cadcc840a6dedaca408aa89609b1b60448201526064016103b0565b60006108f48261036a565b6001546040516370a0823160e01b81523360048201529192506001600160a01b0316906370a0823190602401602060405180830381865afa15801561093d573d6000803e3d6000fd5b505050506040513d601f19601f820116820180604052508101906109619190611733565b8111156109b05760405162461bcd60e51b815260206004820152601a60248201527f596f7520646f6e2774206861766520656e6f756768206d656d6500000000000060448201526064016103b0565b6001546040516323b872dd60e01b8152336004820152306024820152604481018390526001600160a01b03909116906323b872dd906064016020604051808303816000875af1158015610a07573d6000803e3d6000fd5b505050506040513d601f19601f82011682018060405250810190610a2b9190611711565b50604051339083156108fc029084906000818181858888f19350505050158015610a59573d6000803e3d6000fd5b50600854600954610a6a90826116fe565b610a7490836116e7565b610a7e91906116ac565b60036000610a8f62015180426116ac565b81526020019081526020016000206000828254610aac91906116fe565b925050819055508160076000828254610ac591906116ce565b9091555050600754600554610ada91906116ac565b600655604080518281526020810184905233917fed7a144fad14804d5c249145e3e0e2b63a9eb455b76aee5bc92d711e9bba3e4a91016107b0565b336000908152600260209081526040808320805482518185028101850190935280835260609492939192909184015b82821015610b945783829060005260206000209060030201604051806060016040529081600082015481526020016001820154815260200160028201548152505081526020019060010190610b44565b50505050905090565b610ba5610f6e565b6001600160a01b038116610c0a5760405162461bcd60e51b815260206004820152602660248201527f4f776e61626c653a206e6577206f776e657220697320746865207a65726f206160448201526564647265737360d01b60648201526084016103b0565b61048581611020565b336000908152600260205260408120805483908110610c3457610c3461174c565b9060005260206000209060030201604051806060016040529081600082015481526020016001820154815260200160028201548152505090506000610c7761121e565b8251602084015191925090600090610c909084906116fe565b6001546040516370a0823160e01b815230600482015291925083916001600160a01b03909116906370a0823190602401602060405180830381865afa158015610cdd573d6000803e3d6000fd5b505050506040513d601f19601f82011682018060405250810190610d019190611733565b1015610d895760405162461bcd60e51b815260206004820152604b60248201527f536f7272792043757272656e746c79207468697320636f6e747261637420646f60448201527f65736e27742068617665204d656d6520746f2072657475726e2c20436865636b60648201526a206261636b20536f6f6e2160a81b608482015260a4016103b0565b80471015610e125760405162461bcd60e51b815260206004820152604a60248201527f536f7272792043757272656e746c79207468697320636f6e747261637420646f60448201527f65736e277420686176652045746820746f2072657475726e2c20436865636b206064820152696261636b20536f6f6e2160b01b608482015260a4016103b0565b8160066000828254610e2491906116ce565b925050819055508060076000828254610e3d91906116ce565b909155505060015460405163a9059cbb60e01b8152336004820152602481018490526001600160a01b039091169063a9059cbb906044016020604051808303816000875af1158015610e93573d6000803e3d6000fd5b505050506040513d601f19601f82011682018060405250810190610eb79190611711565b50604051339082156108fc029083906000818181858888f19350505050158015610ee5573d6000803e3d6000fd5b50600654600003610efa576000600455610f1b565b600654600854600754610f0d91906116e7565b610f1791906116ac565b6004555b610f24856113e8565b610f2c611550565b604080518381526020810183905233917fbb564df1f5d4ebb97b073adcab505c7796a37035ac5d14f51269660939c39cf4910160405180910390a25050505050565b6000546001600160a01b036101009091041633146104985760405162461bcd60e51b815260206004820181905260248201527f4f776e61626c653a2063616c6c6572206973206e6f7420746865206f776e657260448201526064016103b0565b610fd6611565565b6000805460ff191690557f5db9ee0a495bf2e6ff9c91a7834c1ba4fdd244a5e8aa4e537bd38aeae4b073aa335b6040516001600160a01b03909116815260200160405180910390a1565b600080546001600160a01b03838116610100818102610100600160a81b0319851617855560405193049190911692909183917f8be0079c531659141344cd1fd0a4f28419497f9722a3daafe3b4186f6b6457e091a35050565b6110816115ae565b6000805460ff191660011790557f62e78cea01bee320cd4e420270b5ea74000d11b0c9f74754ebdbfc544b05a2586110033390565b6001546040516323b872dd60e01b8152336004820152306024820152604481018490526001600160a01b03909116906323b872dd906064016020604051808303816000875af115801561110d573d6000803e3d6000fd5b505050506040513d601f19601f820116820180604052508101906111319190611711565b50816006600082825461114491906116fe565b92505081905550806007600082825461115d91906116fe565b9091555050604080516060810182528381526020808201848152428385019081523360009081526002808552958120805460018181018355918352949091208551600390950201938455915191830191909155519201919091556006546008546007546111ca91906116e7565b6111d491906116ac565b6004556111df611550565b6040805184815234602082015233917f5caad8f5613b6f1d592fc8c69d8f0999453740f0806c754f20cc92f3d4b2b1b6910160405180910390a2505050565b6000808060038161123262015180426116ac565b81526020019081526020016000205411156113e35733600090815260026020526040812080549091805b828110156112e15760008482815481106112785761127861174c565b9060005260206000209060030201604051806060016040529081600082015481526020016001820154815260200160028201548152505090508060400151426112c191906116ce565b6112cb90846116fe565b92505080806112d990611762565b91505061125c565b5060005b828110156113de5760008482815481106113015761130161174c565b600091825260208083206040805160608101825260039094029091018054808552600182015493850193909352600201549083015260065460085492945091611349916116e7565b61135391906116ac565b9050600082604001514261136791906116ce565b9050600061137586836116ac565b600554909150816003600061138d62015180426116ac565b815260200190815260200160002054856113a791906116e7565b6113b191906116e7565b6113bb91906116ac565b6113c5908a6116fe565b98505050505080806113d690611762565b9150506112e5565b505050505b919050565b33600090815260026020526040902054811061143c5760405162461bcd60e51b8152602060048201526013602482015272496e646578206f7574206f6620626f756e647360681b60448201526064016103b0565b805b3360009081526002602052604090205461145a906001906116ce565b8110156115095733600090815260026020526040902061147b8260016116fe565b8154811061148b5761148b61174c565b906000526020600020906003020160026000336001600160a01b03166001600160a01b0316815260200190815260200160002082815481106114cf576114cf61174c565b600091825260209091208254600390920201908155600180830154908201556002918201549101558061150181611762565b91505061143e565b503360009081526002602052604090208054806115285761152861177b565b6000828152602081206003600019909301928302018181556001810182905560020155905550565b60075460065461156091906116e7565b600555565b60005460ff166104985760405162461bcd60e51b815260206004820152601460248201527314185d5cd8589b194e881b9bdd081c185d5cd95960621b60448201526064016103b0565b60005460ff16156104985760405162461bcd60e51b815260206004820152601060248201526f14185d5cd8589b194e881c185d5cd95960821b60448201526064016103b0565b60006020828403121561160657600080fd5b5035919050565b602080825282518282018190526000919060409081850190868401855b82811015611659578151805185528681015187860152850151858501526060909301929085019060010161162a565b5091979650505050505050565b60006020828403121561167857600080fd5b81356001600160a01b038116811461168f57600080fd5b9392505050565b634e487b7160e01b600052601160045260246000fd5b6000826116c957634e487b7160e01b600052601260045260246000fd5b500490565b818103818111156116e1576116e1611696565b92915050565b80820281158282048414176116e1576116e1611696565b808201808211156116e1576116e1611696565b60006020828403121561172357600080fd5b8151801515811461168f57600080fd5b60006020828403121561174557600080fd5b5051919050565b634e487b7160e01b600052603260045260246000fd5b60006001820161177457611774611696565b5060010190565b634e487b7160e01b600052603160045260246000fdfea2646970667358221220ce58bcc8980097a92633e41d16c08fb6b2e7262fdb42bb9bf6f114125554963e64736f6c63430008130033",
					"opcodes": "PUSH1 0x80 PUSH1 0x40 MSTORE PUSH8 0x8AC7230489E80000 PUSH1 0x8 SSTORE PUSH1 0xA PUSH1 0x8 SLOAD PUSH1 0x3 PUSH3 0x23 SWAP2 SWAP1 PUSH3 0xF6 JUMP JUMPDEST PUSH3 0x2F SWAP2 SWAP1 PUSH3 0x122 JUMP JUMPDEST PUSH1 0x9 SSTORE CALLVALUE DUP1 ISZERO PUSH3 0x3F JUMPI PUSH1 0x0 DUP1 REVERT JUMPDEST POP PUSH1 0x40 MLOAD PUSH3 0x194E CODESIZE SUB DUP1 PUSH3 0x194E DUP4 CODECOPY DUP2 ADD PUSH1 0x40 DUP2 SWAP1 MSTORE PUSH3 0x62 SWAP2 PUSH3 0x145 JUMP JUMPDEST PUSH1 0x0 DUP1 SLOAD PUSH1 0xFF NOT AND SWAP1 SSTORE PUSH3 0x77 CALLER PUSH3 0x9D JUMP JUMPDEST PUSH1 0x1 DUP1 SLOAD PUSH1 0x1 PUSH1 0x1 PUSH1 0xA0 SHL SUB NOT AND PUSH1 0x1 PUSH1 0x1 PUSH1 0xA0 SHL SUB SWAP3 SWAP1 SWAP3 AND SWAP2 SWAP1 SWAP2 OR SWAP1 SSTORE PUSH3 0x177 JUMP JUMPDEST PUSH1 0x0 DUP1 SLOAD PUSH1 0x1 PUSH1 0x1 PUSH1 0xA0 SHL SUB DUP4 DUP2 AND PUSH2 0x100 DUP2 DUP2 MUL PUSH2 0x100 PUSH1 0x1 PUSH1 0xA8 SHL SUB NOT DUP6 AND OR DUP6 SSTORE PUSH1 0x40 MLOAD SWAP4 DIV SWAP2 SWAP1 SWAP2 AND SWAP3 SWAP1 SWAP2 DUP4 SWAP2 PUSH32 0x8BE0079C531659141344CD1FD0A4F28419497F9722A3DAAFE3B4186F6B6457E0 SWAP2 LOG3 POP POP JUMP JUMPDEST DUP1 DUP3 MUL DUP2 ISZERO DUP3 DUP3 DIV DUP5 EQ OR PUSH3 0x11C JUMPI PUSH4 0x4E487B71 PUSH1 0xE0 SHL PUSH1 0x0 MSTORE PUSH1 0x11 PUSH1 0x4 MSTORE PUSH1 0x24 PUSH1 0x0 REVERT JUMPDEST SWAP3 SWAP2 POP POP JUMP JUMPDEST PUSH1 0x0 DUP3 PUSH3 0x140 JUMPI PUSH4 0x4E487B71 PUSH1 0xE0 SHL PUSH1 0x0 MSTORE PUSH1 0x12 PUSH1 0x4 MSTORE PUSH1 0x24 PUSH1 0x0 REVERT JUMPDEST POP DIV SWAP1 JUMP JUMPDEST PUSH1 0x0 PUSH1 0x20 DUP3 DUP5 SUB SLT ISZERO PUSH3 0x158 JUMPI PUSH1 0x0 DUP1 REVERT JUMPDEST DUP2 MLOAD PUSH1 0x1 PUSH1 0x1 PUSH1 0xA0 SHL SUB DUP2 AND DUP2 EQ PUSH3 0x170 JUMPI PUSH1 0x0 DUP1 REVERT JUMPDEST SWAP4 SWAP3 POP POP POP JUMP JUMPDEST PUSH2 0x17C7 DUP1 PUSH3 0x187 PUSH1 0x0 CODECOPY PUSH1 0x0 RETURN INVALID PUSH1 0x80 PUSH1 0x40 MSTORE PUSH1 0x4 CALLDATASIZE LT PUSH2 0x11F JUMPI PUSH1 0x0 CALLDATALOAD PUSH1 0xE0 SHR DUP1 PUSH4 0x771A3A1D GT PUSH2 0xA0 JUMPI DUP1 PUSH4 0xD96A094A GT PUSH2 0x64 JUMPI DUP1 PUSH4 0xD96A094A EQ PUSH2 0x2E2 JUMPI DUP1 PUSH4 0xDC9031C4 EQ PUSH2 0x2F5 JUMPI DUP1 PUSH4 0xE4849B32 EQ PUSH2 0x308 JUMPI DUP1 PUSH4 0xE8BCA8B8 EQ PUSH2 0x328 JUMPI DUP1 PUSH4 0xF2FDE38B EQ PUSH2 0x34A JUMPI PUSH1 0x0 DUP1 REVERT JUMPDEST DUP1 PUSH4 0x771A3A1D EQ PUSH2 0x255 JUMPI DUP1 PUSH4 0x8456CB59 EQ PUSH2 0x26B JUMPI DUP1 PUSH4 0x8DA5CB5B EQ PUSH2 0x280 JUMPI DUP1 PUSH4 0x9C74F05D EQ PUSH2 0x2B6 JUMPI DUP1 PUSH4 0xD3B5DC3B EQ PUSH2 0x2CC JUMPI PUSH1 0x0 DUP1 REVERT JUMPDEST DUP1 PUSH4 0x2AD9D559 GT PUSH2 0xE7 JUMPI DUP1 PUSH4 0x2AD9D559 EQ PUSH2 0x1BB JUMPI DUP1 PUSH4 0x3F4BA83A EQ PUSH2 0x1E8 JUMPI DUP1 PUSH4 0x5C572ED0 EQ PUSH2 0x1FD JUMPI DUP1 PUSH4 0x5C975ABB EQ PUSH2 0x21D JUMPI DUP1 PUSH4 0x715018A6 EQ PUSH2 0x240 JUMPI PUSH1 0x0 DUP1 REVERT JUMPDEST DUP1 PUSH4 0x1A753FED EQ PUSH2 0x124 JUMPI DUP1 PUSH4 0x1B82C27F EQ PUSH2 0x157 JUMPI DUP1 PUSH4 0x200061DF EQ PUSH2 0x16D JUMPI DUP1 PUSH4 0x28726BDA EQ PUSH2 0x18F JUMPI DUP1 PUSH4 0x29809703 EQ PUSH2 0x1A5 JUMPI JUMPDEST PUSH1 0x0 DUP1 REVERT JUMPDEST CALLVALUE DUP1 ISZERO PUSH2 0x130 JUMPI PUSH1 0x0 DUP1 REVERT JUMPDEST POP PUSH2 0x144 PUSH2 0x13F CALLDATASIZE PUSH1 0x4 PUSH2 0x15F4 JUMP JUMPDEST PUSH2 0x36A JUMP JUMPDEST PUSH1 0x40 MLOAD SWAP1 DUP2 MSTORE PUSH1 0x20 ADD JUMPDEST PUSH1 0x40 MLOAD DUP1 SWAP2 SUB SWAP1 RETURN JUMPDEST CALLVALUE DUP1 ISZERO PUSH2 0x163 JUMPI PUSH1 0x0 DUP1 REVERT JUMPDEST POP PUSH2 0x144 PUSH1 0x5 SLOAD DUP2 JUMP JUMPDEST CALLVALUE DUP1 ISZERO PUSH2 0x179 JUMPI PUSH1 0x0 DUP1 REVERT JUMPDEST POP PUSH2 0x18D PUSH2 0x188 CALLDATASIZE PUSH1 0x4 PUSH2 0x15F4 JUMP JUMPDEST PUSH2 0x47C JUMP JUMPDEST STOP JUMPDEST CALLVALUE DUP1 ISZERO PUSH2 0x19B JUMPI PUSH1 0x0 DUP1 REVERT JUMPDEST POP PUSH2 0x144 PUSH1 0x7 SLOAD DUP2 JUMP JUMPDEST CALLVALUE DUP1 ISZERO PUSH2 0x1B1 JUMPI PUSH1 0x0 DUP1 REVERT JUMPDEST POP PUSH2 0x144 PUSH1 0x6 SLOAD DUP2 JUMP JUMPDEST CALLVALUE DUP1 ISZERO PUSH2 0x1C7 JUMPI PUSH1 0x0 DUP1 REVERT JUMPDEST POP PUSH2 0x144 PUSH2 0x1D6 CALLDATASIZE PUSH1 0x4 PUSH2 0x15F4 JUMP JUMPDEST PUSH1 0x3 PUSH1 0x20 MSTORE PUSH1 0x0 SWAP1 DUP2 MSTORE PUSH1 0x40 SWAP1 KECCAK256 SLOAD DUP2 JUMP JUMPDEST CALLVALUE DUP1 ISZERO PUSH2 0x1F4 JUMPI PUSH1 0x0 DUP1 REVERT JUMPDEST POP PUSH2 0x18D PUSH2 0x488 JUMP JUMPDEST CALLVALUE DUP1 ISZERO PUSH2 0x209 JUMPI PUSH1 0x0 DUP1 REVERT JUMPDEST POP PUSH2 0x144 PUSH2 0x218 CALLDATASIZE PUSH1 0x4 PUSH2 0x15F4 JUMP JUMPDEST PUSH2 0x49A JUMP JUMPDEST CALLVALUE DUP1 ISZERO PUSH2 0x229 JUMPI PUSH1 0x0 DUP1 REVERT JUMPDEST POP PUSH1 0x0 SLOAD PUSH1 0xFF AND PUSH1 0x40 MLOAD SWAP1 ISZERO ISZERO DUP2 MSTORE PUSH1 0x20 ADD PUSH2 0x14E JUMP JUMPDEST CALLVALUE DUP1 ISZERO PUSH2 0x24C JUMPI PUSH1 0x0 DUP1 REVERT JUMPDEST POP PUSH2 0x18D PUSH2 0x59C JUMP JUMPDEST CALLVALUE DUP1 ISZERO PUSH2 0x261 JUMPI PUSH1 0x0 DUP1 REVERT JUMPDEST POP PUSH2 0x144 PUSH1 0x9 SLOAD DUP2 JUMP JUMPDEST CALLVALUE DUP1 ISZERO PUSH2 0x277 JUMPI PUSH1 0x0 DUP1 REVERT JUMPDEST POP PUSH2 0x18D PUSH2 0x5AE JUMP JUMPDEST CALLVALUE DUP1 ISZERO PUSH2 0x28C JUMPI PUSH1 0x0 DUP1 REVERT JUMPDEST POP PUSH1 0x0 SLOAD PUSH2 0x100 SWAP1 DIV PUSH1 0x1 PUSH1 0x1 PUSH1 0xA0 SHL SUB AND PUSH1 0x40 MLOAD PUSH1 0x1 PUSH1 0x1 PUSH1 0xA0 SHL SUB SWAP1 SWAP2 AND DUP2 MSTORE PUSH1 0x20 ADD PUSH2 0x14E JUMP JUMPDEST CALLVALUE DUP1 ISZERO PUSH2 0x2C2 JUMPI PUSH1 0x0 DUP1 REVERT JUMPDEST POP PUSH2 0x144 PUSH1 0x4 SLOAD DUP2 JUMP JUMPDEST CALLVALUE DUP1 ISZERO PUSH2 0x2D8 JUMPI PUSH1 0x0 DUP1 REVERT JUMPDEST POP PUSH2 0x144 PUSH1 0x8 SLOAD DUP2 JUMP JUMPDEST PUSH2 0x18D PUSH2 0x2F0 CALLDATASIZE PUSH1 0x4 PUSH2 0x15F4 JUMP JUMPDEST PUSH2 0x5BE JUMP JUMPDEST PUSH2 0x18D PUSH2 0x303 CALLDATASIZE PUSH1 0x4 PUSH2 0x15F4 JUMP JUMPDEST PUSH2 0x7BC JUMP JUMPDEST CALLVALUE DUP1 ISZERO PUSH2 0x314 JUMPI PUSH1 0x0 DUP1 REVERT JUMPDEST POP PUSH2 0x18D PUSH2 0x323 CALLDATASIZE PUSH1 0x4 PUSH2 0x15F4 JUMP JUMPDEST PUSH2 0x8A9 JUMP JUMPDEST CALLVALUE DUP1 ISZERO PUSH2 0x334 JUMPI PUSH1 0x0 DUP1 REVERT JUMPDEST POP PUSH2 0x33D PUSH2 0xB15 JUMP JUMPDEST PUSH1 0x40 MLOAD PUSH2 0x14E SWAP2 SWAP1 PUSH2 0x160D JUMP JUMPDEST CALLVALUE DUP1 ISZERO PUSH2 0x356 JUMPI PUSH1 0x0 DUP1 REVERT JUMPDEST POP PUSH2 0x18D PUSH2 0x365 CALLDATASIZE PUSH1 0x4 PUSH2 0x1666 JUMP JUMPDEST PUSH2 0xB9D JUMP JUMPDEST PUSH1 0x0 DUP1 PUSH1 0x5 SLOAD GT PUSH2 0x3B9 JUMPI PUSH1 0x40 MLOAD PUSH3 0x461BCD PUSH1 0xE5 SHL DUP2 MSTORE PUSH1 0x20 PUSH1 0x4 DUP3 ADD MSTORE PUSH1 0x14 PUSH1 0x24 DUP3 ADD MSTORE PUSH20 0x4E6F7420656E6F756768206C6971756964697479 PUSH1 0x60 SHL PUSH1 0x44 DUP3 ADD MSTORE PUSH1 0x64 ADD JUMPDEST PUSH1 0x40 MLOAD DUP1 SWAP2 SUB SWAP1 REVERT JUMPDEST PUSH1 0x0 DUP1 PUSH1 0x6 SLOAD PUSH1 0x0 SUB PUSH2 0x3E7 JUMPI DUP4 PUSH1 0x1 PUSH1 0x5 SLOAD PUSH2 0x3D6 SWAP2 SWAP1 PUSH2 0x16AC JUMP JUMPDEST PUSH2 0x3E0 SWAP2 SWAP1 PUSH2 0x16CE JUMP JUMPDEST SWAP1 POP PUSH2 0x405 JUMP JUMPDEST DUP4 PUSH1 0x6 SLOAD PUSH1 0x5 SLOAD PUSH2 0x3F8 SWAP2 SWAP1 PUSH2 0x16AC JUMP JUMPDEST PUSH2 0x402 SWAP2 SWAP1 PUSH2 0x16CE JUMP JUMPDEST SWAP1 POP JUMPDEST DUP1 PUSH1 0x0 SUB PUSH2 0x423 JUMPI PUSH1 0x1 PUSH1 0x5 SLOAD PUSH2 0x41C SWAP2 SWAP1 PUSH2 0x16AC JUMP JUMPDEST SWAP2 POP PUSH2 0x434 JUMP JUMPDEST DUP1 PUSH1 0x5 SLOAD PUSH2 0x431 SWAP2 SWAP1 PUSH2 0x16AC JUMP JUMPDEST SWAP2 POP JUMPDEST PUSH1 0x0 PUSH1 0x6 SLOAD DUP4 PUSH2 0x444 SWAP2 SWAP1 PUSH2 0x16CE JUMP JUMPDEST SWAP1 POP PUSH1 0x0 PUSH1 0x8 SLOAD PUSH1 0x9 SLOAD DUP4 PUSH2 0x459 SWAP2 SWAP1 PUSH2 0x16E7 JUMP JUMPDEST PUSH2 0x463 SWAP2 SWAP1 PUSH2 0x16AC JUMP JUMPDEST SWAP1 POP PUSH1 0x0 PUSH2 0x471 DUP3 DUP5 PUSH2 0x16CE JUMP JUMPDEST SWAP8 SWAP7 POP POP POP POP POP POP POP JUMP JUMPDEST PUSH2 0x485 DUP2 PUSH2 0xC13 JUMP JUMPDEST POP JUMP JUMPDEST PUSH2 0x490 PUSH2 0xF6E JUMP JUMPDEST PUSH2 0x498 PUSH2 0xFCE JUMP JUMPDEST JUMP JUMPDEST PUSH1 0x0 DUP1 PUSH1 0x5 SLOAD GT PUSH2 0x4E4 JUMPI PUSH1 0x40 MLOAD PUSH3 0x461BCD PUSH1 0xE5 SHL DUP2 MSTORE PUSH1 0x20 PUSH1 0x4 DUP3 ADD MSTORE PUSH1 0x14 PUSH1 0x24 DUP3 ADD MSTORE PUSH20 0x4E6F7420656E6F756768206C6971756964697479 PUSH1 0x60 SHL PUSH1 0x44 DUP3 ADD MSTORE PUSH1 0x64 ADD PUSH2 0x3B0 JUMP JUMPDEST PUSH1 0x0 DUP1 PUSH1 0x7 SLOAD PUSH1 0x0 SUB PUSH2 0x512 JUMPI DUP4 PUSH1 0x1 PUSH1 0x5 SLOAD PUSH2 0x501 SWAP2 SWAP1 PUSH2 0x16AC JUMP JUMPDEST PUSH2 0x50B SWAP2 SWAP1 PUSH2 0x16CE JUMP JUMPDEST SWAP2 POP PUSH2 0x530 JUMP JUMPDEST DUP4 PUSH1 0x7 SLOAD PUSH1 0x5 SLOAD PUSH2 0x523 SWAP2 SWAP1 PUSH2 0x16AC JUMP JUMPDEST PUSH2 0x52D SWAP2 SWAP1 PUSH2 0x16CE JUMP JUMPDEST SWAP2 POP JUMPDEST DUP2 PUSH1 0x0 SUB PUSH2 0x54E JUMPI PUSH1 0x1 PUSH1 0x5 SLOAD PUSH2 0x547 SWAP2 SWAP1 PUSH2 0x16AC JUMP JUMPDEST SWAP1 POP PUSH2 0x55F JUMP JUMPDEST DUP2 PUSH1 0x5 SLOAD PUSH2 0x55C SWAP2 SWAP1 PUSH2 0x16AC JUMP JUMPDEST SWAP1 POP JUMPDEST PUSH1 0x0 PUSH1 0x7 SLOAD DUP3 PUSH2 0x56F SWAP2 SWAP1 PUSH2 0x16CE JUMP JUMPDEST SWAP1 POP PUSH1 0x0 PUSH1 0x8 SLOAD PUSH1 0x9 SLOAD DUP4 PUSH2 0x584 SWAP2 SWAP1 PUSH2 0x16E7 JUMP JUMPDEST PUSH2 0x58E SWAP2 SWAP1 PUSH2 0x16AC JUMP JUMPDEST SWAP1 POP PUSH1 0x0 PUSH2 0x471 DUP3 DUP5 PUSH2 0x16FE JUMP JUMPDEST PUSH2 0x5A4 PUSH2 0xF6E JUMP JUMPDEST PUSH2 0x498 PUSH1 0x0 PUSH2 0x1020 JUMP JUMPDEST PUSH2 0x5B6 PUSH2 0xF6E JUMP JUMPDEST PUSH2 0x498 PUSH2 0x1079 JUMP JUMPDEST PUSH1 0x0 DUP2 GT PUSH2 0x5FF JUMPI PUSH1 0x40 MLOAD PUSH3 0x461BCD PUSH1 0xE5 SHL DUP2 MSTORE PUSH1 0x20 PUSH1 0x4 DUP3 ADD MSTORE PUSH1 0xE PUSH1 0x24 DUP3 ADD MSTORE PUSH14 0x53656E6420536F6D65204D656D65 PUSH1 0x90 SHL PUSH1 0x44 DUP3 ADD MSTORE PUSH1 0x64 ADD PUSH2 0x3B0 JUMP JUMPDEST PUSH1 0x0 PUSH2 0x60A DUP3 PUSH2 0x49A JUMP JUMPDEST SWAP1 POP CALLVALUE DUP2 GT ISZERO PUSH2 0x64C JUMPI PUSH1 0x40 MLOAD PUSH3 0x461BCD PUSH1 0xE5 SHL DUP2 MSTORE PUSH1 0x20 PUSH1 0x4 DUP3 ADD MSTORE PUSH1 0xD PUSH1 0x24 DUP3 ADD MSTORE PUSH13 0xA6CADCC8409ADEE4CA408AA89 PUSH1 0x9B SHL PUSH1 0x44 DUP3 ADD MSTORE PUSH1 0x64 ADD PUSH2 0x3B0 JUMP JUMPDEST PUSH1 0x1 SLOAD PUSH1 0x40 MLOAD PUSH4 0xA9059CBB PUSH1 0xE0 SHL DUP2 MSTORE CALLER PUSH1 0x4 DUP3 ADD MSTORE PUSH1 0x24 DUP2 ADD DUP5 SWAP1 MSTORE PUSH1 0x1 PUSH1 0x1 PUSH1 0xA0 SHL SUB SWAP1 SWAP2 AND SWAP1 PUSH4 0xA9059CBB SWAP1 PUSH1 0x44 ADD PUSH1 0x20 PUSH1 0x40 MLOAD DUP1 DUP4 SUB DUP2 PUSH1 0x0 DUP8 GAS CALL ISZERO DUP1 ISZERO PUSH2 0x69D JUMPI RETURNDATASIZE PUSH1 0x0 DUP1 RETURNDATACOPY RETURNDATASIZE PUSH1 0x0 REVERT JUMPDEST POP POP POP POP PUSH1 0x40 MLOAD RETURNDATASIZE PUSH1 0x1F NOT PUSH1 0x1F DUP3 ADD AND DUP3 ADD DUP1 PUSH1 0x40 MSTORE POP DUP2 ADD SWAP1 PUSH2 0x6C1 SWAP2 SWAP1 PUSH2 0x1711 JUMP JUMPDEST POP CALLER PUSH2 0x8FC PUSH2 0x6D0 DUP4 CALLVALUE PUSH2 0x16CE JUMP JUMPDEST PUSH1 0x40 MLOAD DUP2 ISZERO SWAP1 SWAP3 MUL SWAP2 PUSH1 0x0 DUP2 DUP2 DUP2 DUP6 DUP9 DUP9 CALL SWAP4 POP POP POP POP ISZERO DUP1 ISZERO PUSH2 0x6F8 JUMPI RETURNDATASIZE PUSH1 0x0 DUP1 RETURNDATACOPY RETURNDATASIZE PUSH1 0x0 REVERT JUMPDEST POP PUSH1 0x8 SLOAD PUSH1 0x9 SLOAD PUSH2 0x709 SWAP1 DUP3 PUSH2 0x16FE JUMP JUMPDEST PUSH2 0x713 SWAP1 DUP5 PUSH2 0x16E7 JUMP JUMPDEST PUSH2 0x71D SWAP2 SWAP1 PUSH2 0x16AC JUMP JUMPDEST PUSH1 0x3 PUSH1 0x0 PUSH2 0x72E PUSH3 0x15180 TIMESTAMP PUSH2 0x16AC JUMP JUMPDEST DUP2 MSTORE PUSH1 0x20 ADD SWAP1 DUP2 MSTORE PUSH1 0x20 ADD PUSH1 0x0 KECCAK256 PUSH1 0x0 DUP3 DUP3 SLOAD PUSH2 0x74B SWAP2 SWAP1 PUSH2 0x16FE JUMP JUMPDEST SWAP3 POP POP DUP2 SWAP1 SSTORE POP DUP2 PUSH1 0x6 PUSH1 0x0 DUP3 DUP3 SLOAD PUSH2 0x764 SWAP2 SWAP1 PUSH2 0x16CE JUMP JUMPDEST SWAP1 SWAP2 SSTORE POP POP PUSH1 0x6 SLOAD PUSH1 0x5 SLOAD PUSH2 0x779 SWAP2 SWAP1 PUSH2 0x16AC JUMP JUMPDEST PUSH1 0x7 SSTORE PUSH1 0x40 DUP1 MLOAD DUP4 DUP2 MSTORE PUSH1 0x20 DUP2 ADD DUP4 SWAP1 MSTORE CALLER SWAP2 PUSH32 0x1CBC5AB135991BD2B6A4B034A04AA2AA086DAC1371CB9B16B8B5E2ED6B036BED SWAP2 ADD JUMPDEST PUSH1 0x40 MLOAD DUP1 SWAP2 SUB SWAP1 LOG2 POP POP JUMP JUMPDEST PUSH1 0x0 DUP2 GT PUSH2 0x7FD JUMPI PUSH1 0x40 MLOAD PUSH3 0x461BCD PUSH1 0xE5 SHL DUP2 MSTORE PUSH1 0x20 PUSH1 0x4 DUP3 ADD MSTORE PUSH1 0xE PUSH1 0x24 DUP3 ADD MSTORE PUSH14 0x53656E64206D6F7265204D454D45 PUSH1 0x90 SHL PUSH1 0x44 DUP3 ADD MSTORE PUSH1 0x64 ADD PUSH2 0x3B0 JUMP JUMPDEST PUSH1 0x0 CALLVALUE GT PUSH2 0x83D JUMPI PUSH1 0x40 MLOAD PUSH3 0x461BCD PUSH1 0xE5 SHL DUP2 MSTORE PUSH1 0x20 PUSH1 0x4 DUP3 ADD MSTORE PUSH1 0xD PUSH1 0x24 DUP3 ADD MSTORE PUSH13 0xA6CADCC840DADEE4CA408AA89 PUSH1 0x9B SHL PUSH1 0x44 DUP3 ADD MSTORE PUSH1 0x64 ADD PUSH2 0x3B0 JUMP JUMPDEST DUP1 PUSH1 0x8 SLOAD CALLVALUE PUSH2 0x84C SWAP2 SWAP1 PUSH2 0x16E7 JUMP JUMPDEST PUSH2 0x856 SWAP2 SWAP1 PUSH2 0x16AC JUMP JUMPDEST PUSH1 0x4 SLOAD GT ISZERO PUSH2 0x89F JUMPI PUSH1 0x40 MLOAD PUSH3 0x461BCD PUSH1 0xE5 SHL DUP2 MSTORE PUSH1 0x20 PUSH1 0x4 DUP3 ADD MSTORE PUSH1 0x15 PUSH1 0x24 DUP3 ADD MSTORE PUSH21 0x14DD1858DADA5B99C814985D19481B9BDD081B595D PUSH1 0x5A SHL PUSH1 0x44 DUP3 ADD MSTORE PUSH1 0x64 ADD PUSH2 0x3B0 JUMP JUMPDEST PUSH2 0x485 DUP2 CALLVALUE PUSH2 0x10B6 JUMP JUMPDEST PUSH1 0x0 DUP2 GT PUSH2 0x8E9 JUMPI PUSH1 0x40 MLOAD PUSH3 0x461BCD PUSH1 0xE5 SHL DUP2 MSTORE PUSH1 0x20 PUSH1 0x4 DUP3 ADD MSTORE PUSH1 0xD PUSH1 0x24 DUP3 ADD MSTORE PUSH13 0xA6CADCC840A6DEDACA408AA89 PUSH1 0x9B SHL PUSH1 0x44 DUP3 ADD MSTORE PUSH1 0x64 ADD PUSH2 0x3B0 JUMP JUMPDEST PUSH1 0x0 PUSH2 0x8F4 DUP3 PUSH2 0x36A JUMP JUMPDEST PUSH1 0x1 SLOAD PUSH1 0x40 MLOAD PUSH4 0x70A08231 PUSH1 0xE0 SHL DUP2 MSTORE CALLER PUSH1 0x4 DUP3 ADD MSTORE SWAP2 SWAP3 POP PUSH1 0x1 PUSH1 0x1 PUSH1 0xA0 SHL SUB AND SWAP1 PUSH4 0x70A08231 SWAP1 PUSH1 0x24 ADD PUSH1 0x20 PUSH1 0x40 MLOAD DUP1 DUP4 SUB DUP2 DUP7 GAS STATICCALL ISZERO DUP1 ISZERO PUSH2 0x93D JUMPI RETURNDATASIZE PUSH1 0x0 DUP1 RETURNDATACOPY RETURNDATASIZE PUSH1 0x0 REVERT JUMPDEST POP POP POP POP PUSH1 0x40 MLOAD RETURNDATASIZE PUSH1 0x1F NOT PUSH1 0x1F DUP3 ADD AND DUP3 ADD DUP1 PUSH1 0x40 MSTORE POP DUP2 ADD SWAP1 PUSH2 0x961 SWAP2 SWAP1 PUSH2 0x1733 JUMP JUMPDEST DUP2 GT ISZERO PUSH2 0x9B0 JUMPI PUSH1 0x40 MLOAD PUSH3 0x461BCD PUSH1 0xE5 SHL DUP2 MSTORE PUSH1 0x20 PUSH1 0x4 DUP3 ADD MSTORE PUSH1 0x1A PUSH1 0x24 DUP3 ADD MSTORE PUSH32 0x596F7520646F6E2774206861766520656E6F756768206D656D65000000000000 PUSH1 0x44 DUP3 ADD MSTORE PUSH1 0x64 ADD PUSH2 0x3B0 JUMP JUMPDEST PUSH1 0x1 SLOAD PUSH1 0x40 MLOAD PUSH4 0x23B872DD PUSH1 0xE0 SHL DUP2 MSTORE CALLER PUSH1 0x4 DUP3 ADD MSTORE ADDRESS PUSH1 0x24 DUP3 ADD MSTORE PUSH1 0x44 DUP2 ADD DUP4 SWAP1 MSTORE PUSH1 0x1 PUSH1 0x1 PUSH1 0xA0 SHL SUB SWAP1 SWAP2 AND SWAP1 PUSH4 0x23B872DD SWAP1 PUSH1 0x64 ADD PUSH1 0x20 PUSH1 0x40 MLOAD DUP1 DUP4 SUB DUP2 PUSH1 0x0 DUP8 GAS CALL ISZERO DUP1 ISZERO PUSH2 0xA07 JUMPI RETURNDATASIZE PUSH1 0x0 DUP1 RETURNDATACOPY RETURNDATASIZE PUSH1 0x0 REVERT JUMPDEST POP POP POP POP PUSH1 0x40 MLOAD RETURNDATASIZE PUSH1 0x1F NOT PUSH1 0x1F DUP3 ADD AND DUP3 ADD DUP1 PUSH1 0x40 MSTORE POP DUP2 ADD SWAP1 PUSH2 0xA2B SWAP2 SWAP1 PUSH2 0x1711 JUMP JUMPDEST POP PUSH1 0x40 MLOAD CALLER SWAP1 DUP4 ISZERO PUSH2 0x8FC MUL SWAP1 DUP5 SWAP1 PUSH1 0x0 DUP2 DUP2 DUP2 DUP6 DUP9 DUP9 CALL SWAP4 POP POP POP POP ISZERO DUP1 ISZERO PUSH2 0xA59 JUMPI RETURNDATASIZE PUSH1 0x0 DUP1 RETURNDATACOPY RETURNDATASIZE PUSH1 0x0 REVERT JUMPDEST POP PUSH1 0x8 SLOAD PUSH1 0x9 SLOAD PUSH2 0xA6A SWAP1 DUP3 PUSH2 0x16FE JUMP JUMPDEST PUSH2 0xA74 SWAP1 DUP4 PUSH2 0x16E7 JUMP JUMPDEST PUSH2 0xA7E SWAP2 SWAP1 PUSH2 0x16AC JUMP JUMPDEST PUSH1 0x3 PUSH1 0x0 PUSH2 0xA8F PUSH3 0x15180 TIMESTAMP PUSH2 0x16AC JUMP JUMPDEST DUP2 MSTORE PUSH1 0x20 ADD SWAP1 DUP2 MSTORE PUSH1 0x20 ADD PUSH1 0x0 KECCAK256 PUSH1 0x0 DUP3 DUP3 SLOAD PUSH2 0xAAC SWAP2 SWAP1 PUSH2 0x16FE JUMP JUMPDEST SWAP3 POP POP DUP2 SWAP1 SSTORE POP DUP2 PUSH1 0x7 PUSH1 0x0 DUP3 DUP3 SLOAD PUSH2 0xAC5 SWAP2 SWAP1 PUSH2 0x16CE JUMP JUMPDEST SWAP1 SWAP2 SSTORE POP POP PUSH1 0x7 SLOAD PUSH1 0x5 SLOAD PUSH2 0xADA SWAP2 SWAP1 PUSH2 0x16AC JUMP JUMPDEST PUSH1 0x6 SSTORE PUSH1 0x40 DUP1 MLOAD DUP3 DUP2 MSTORE PUSH1 0x20 DUP2 ADD DUP5 SWAP1 MSTORE CALLER SWAP2 PUSH32 0xED7A144FAD14804D5C249145E3E0E2B63A9EB455B76AEE5BC92D711E9BBA3E4A SWAP2 ADD PUSH2 0x7B0 JUMP JUMPDEST CALLER PUSH1 0x0 SWAP1 DUP2 MSTORE PUSH1 0x2 PUSH1 0x20 SWAP1 DUP2 MSTORE PUSH1 0x40 DUP1 DUP4 KECCAK256 DUP1 SLOAD DUP3 MLOAD DUP2 DUP6 MUL DUP2 ADD DUP6 ADD SWAP1 SWAP4 MSTORE DUP1 DUP4 MSTORE PUSH1 0x60 SWAP5 SWAP3 SWAP4 SWAP2 SWAP3 SWAP1 SWAP2 DUP5 ADD JUMPDEST DUP3 DUP3 LT ISZERO PUSH2 0xB94 JUMPI DUP4 DUP3 SWAP1 PUSH1 0x0 MSTORE PUSH1 0x20 PUSH1 0x0 KECCAK256 SWAP1 PUSH1 0x3 MUL ADD PUSH1 0x40 MLOAD DUP1 PUSH1 0x60 ADD PUSH1 0x40 MSTORE SWAP1 DUP2 PUSH1 0x0 DUP3 ADD SLOAD DUP2 MSTORE PUSH1 0x20 ADD PUSH1 0x1 DUP3 ADD SLOAD DUP2 MSTORE PUSH1 0x20 ADD PUSH1 0x2 DUP3 ADD SLOAD DUP2 MSTORE POP POP DUP2 MSTORE PUSH1 0x20 ADD SWAP1 PUSH1 0x1 ADD SWAP1 PUSH2 0xB44 JUMP JUMPDEST POP POP POP POP SWAP1 POP SWAP1 JUMP JUMPDEST PUSH2 0xBA5 PUSH2 0xF6E JUMP JUMPDEST PUSH1 0x1 PUSH1 0x1 PUSH1 0xA0 SHL SUB DUP2 AND PUSH2 0xC0A JUMPI PUSH1 0x40 MLOAD PUSH3 0x461BCD PUSH1 0xE5 SHL DUP2 MSTORE PUSH1 0x20 PUSH1 0x4 DUP3 ADD MSTORE PUSH1 0x26 PUSH1 0x24 DUP3 ADD MSTORE PUSH32 0x4F776E61626C653A206E6577206F776E657220697320746865207A65726F2061 PUSH1 0x44 DUP3 ADD MSTORE PUSH6 0x646472657373 PUSH1 0xD0 SHL PUSH1 0x64 DUP3 ADD MSTORE PUSH1 0x84 ADD PUSH2 0x3B0 JUMP JUMPDEST PUSH2 0x485 DUP2 PUSH2 0x1020 JUMP JUMPDEST CALLER PUSH1 0x0 SWAP1 DUP2 MSTORE PUSH1 0x2 PUSH1 0x20 MSTORE PUSH1 0x40 DUP2 KECCAK256 DUP1 SLOAD DUP4 SWAP1 DUP2 LT PUSH2 0xC34 JUMPI PUSH2 0xC34 PUSH2 0x174C JUMP JUMPDEST SWAP1 PUSH1 0x0 MSTORE PUSH1 0x20 PUSH1 0x0 KECCAK256 SWAP1 PUSH1 0x3 MUL ADD PUSH1 0x40 MLOAD DUP1 PUSH1 0x60 ADD PUSH1 0x40 MSTORE SWAP1 DUP2 PUSH1 0x0 DUP3 ADD SLOAD DUP2 MSTORE PUSH1 0x20 ADD PUSH1 0x1 DUP3 ADD SLOAD DUP2 MSTORE PUSH1 0x20 ADD PUSH1 0x2 DUP3 ADD SLOAD DUP2 MSTORE POP POP SWAP1 POP PUSH1 0x0 PUSH2 0xC77 PUSH2 0x121E JUMP JUMPDEST DUP3 MLOAD PUSH1 0x20 DUP5 ADD MLOAD SWAP2 SWAP3 POP SWAP1 PUSH1 0x0 SWAP1 PUSH2 0xC90 SWAP1 DUP5 SWAP1 PUSH2 0x16FE JUMP JUMPDEST PUSH1 0x1 SLOAD PUSH1 0x40 MLOAD PUSH4 0x70A08231 PUSH1 0xE0 SHL DUP2 MSTORE ADDRESS PUSH1 0x4 DUP3 ADD MSTORE SWAP2 SWAP3 POP DUP4 SWAP2 PUSH1 0x1 PUSH1 0x1 PUSH1 0xA0 SHL SUB SWAP1 SWAP2 AND SWAP1 PUSH4 0x70A08231 SWAP1 PUSH1 0x24 ADD PUSH1 0x20 PUSH1 0x40 MLOAD DUP1 DUP4 SUB DUP2 DUP7 GAS STATICCALL ISZERO DUP1 ISZERO PUSH2 0xCDD JUMPI RETURNDATASIZE PUSH1 0x0 DUP1 RETURNDATACOPY RETURNDATASIZE PUSH1 0x0 REVERT JUMPDEST POP POP POP POP PUSH1 0x40 MLOAD RETURNDATASIZE PUSH1 0x1F NOT PUSH1 0x1F DUP3 ADD AND DUP3 ADD DUP1 PUSH1 0x40 MSTORE POP DUP2 ADD SWAP1 PUSH2 0xD01 SWAP2 SWAP1 PUSH2 0x1733 JUMP JUMPDEST LT ISZERO PUSH2 0xD89 JUMPI PUSH1 0x40 MLOAD PUSH3 0x461BCD PUSH1 0xE5 SHL DUP2 MSTORE PUSH1 0x20 PUSH1 0x4 DUP3 ADD MSTORE PUSH1 0x4B PUSH1 0x24 DUP3 ADD MSTORE PUSH32 0x536F7272792043757272656E746C79207468697320636F6E747261637420646F PUSH1 0x44 DUP3 ADD MSTORE PUSH32 0x65736E27742068617665204D656D6520746F2072657475726E2C20436865636B PUSH1 0x64 DUP3 ADD MSTORE PUSH11 0x206261636B20536F6F6E21 PUSH1 0xA8 SHL PUSH1 0x84 DUP3 ADD MSTORE PUSH1 0xA4 ADD PUSH2 0x3B0 JUMP JUMPDEST DUP1 SELFBALANCE LT ISZERO PUSH2 0xE12 JUMPI PUSH1 0x40 MLOAD PUSH3 0x461BCD PUSH1 0xE5 SHL DUP2 MSTORE PUSH1 0x20 PUSH1 0x4 DUP3 ADD MSTORE PUSH1 0x4A PUSH1 0x24 DUP3 ADD MSTORE PUSH32 0x536F7272792043757272656E746C79207468697320636F6E747261637420646F PUSH1 0x44 DUP3 ADD MSTORE PUSH32 0x65736E277420686176652045746820746F2072657475726E2C20436865636B20 PUSH1 0x64 DUP3 ADD MSTORE PUSH10 0x6261636B20536F6F6E21 PUSH1 0xB0 SHL PUSH1 0x84 DUP3 ADD MSTORE PUSH1 0xA4 ADD PUSH2 0x3B0 JUMP JUMPDEST DUP2 PUSH1 0x6 PUSH1 0x0 DUP3 DUP3 SLOAD PUSH2 0xE24 SWAP2 SWAP1 PUSH2 0x16CE JUMP JUMPDEST SWAP3 POP POP DUP2 SWAP1 SSTORE POP DUP1 PUSH1 0x7 PUSH1 0x0 DUP3 DUP3 SLOAD PUSH2 0xE3D SWAP2 SWAP1 PUSH2 0x16CE JUMP JUMPDEST SWAP1 SWAP2 SSTORE POP POP PUSH1 0x1 SLOAD PUSH1 0x40 MLOAD PUSH4 0xA9059CBB PUSH1 0xE0 SHL DUP2 MSTORE CALLER PUSH1 0x4 DUP3 ADD MSTORE PUSH1 0x24 DUP2 ADD DUP5 SWAP1 MSTORE PUSH1 0x1 PUSH1 0x1 PUSH1 0xA0 SHL SUB SWAP1 SWAP2 AND SWAP1 PUSH4 0xA9059CBB SWAP1 PUSH1 0x44 ADD PUSH1 0x20 PUSH1 0x40 MLOAD DUP1 DUP4 SUB DUP2 PUSH1 0x0 DUP8 GAS CALL ISZERO DUP1 ISZERO PUSH2 0xE93 JUMPI RETURNDATASIZE PUSH1 0x0 DUP1 RETURNDATACOPY RETURNDATASIZE PUSH1 0x0 REVERT JUMPDEST POP POP POP POP PUSH1 0x40 MLOAD RETURNDATASIZE PUSH1 0x1F NOT PUSH1 0x1F DUP3 ADD AND DUP3 ADD DUP1 PUSH1 0x40 MSTORE POP DUP2 ADD SWAP1 PUSH2 0xEB7 SWAP2 SWAP1 PUSH2 0x1711 JUMP JUMPDEST POP PUSH1 0x40 MLOAD CALLER SWAP1 DUP3 ISZERO PUSH2 0x8FC MUL SWAP1 DUP4 SWAP1 PUSH1 0x0 DUP2 DUP2 DUP2 DUP6 DUP9 DUP9 CALL SWAP4 POP POP POP POP ISZERO DUP1 ISZERO PUSH2 0xEE5 JUMPI RETURNDATASIZE PUSH1 0x0 DUP1 RETURNDATACOPY RETURNDATASIZE PUSH1 0x0 REVERT JUMPDEST POP PUSH1 0x6 SLOAD PUSH1 0x0 SUB PUSH2 0xEFA JUMPI PUSH1 0x0 PUSH1 0x4 SSTORE PUSH2 0xF1B JUMP JUMPDEST PUSH1 0x6 SLOAD PUSH1 0x8 SLOAD PUSH1 0x7 SLOAD PUSH2 0xF0D SWAP2 SWAP1 PUSH2 0x16E7 JUMP JUMPDEST PUSH2 0xF17 SWAP2 SWAP1 PUSH2 0x16AC JUMP JUMPDEST PUSH1 0x4 SSTORE JUMPDEST PUSH2 0xF24 DUP6 PUSH2 0x13E8 JUMP JUMPDEST PUSH2 0xF2C PUSH2 0x1550 JUMP JUMPDEST PUSH1 0x40 DUP1 MLOAD DUP4 DUP2 MSTORE PUSH1 0x20 DUP2 ADD DUP4 SWAP1 MSTORE CALLER SWAP2 PUSH32 0xBB564DF1F5D4EBB97B073ADCAB505C7796A37035AC5D14F51269660939C39CF4 SWAP2 ADD PUSH1 0x40 MLOAD DUP1 SWAP2 SUB SWAP1 LOG2 POP POP POP POP POP JUMP JUMPDEST PUSH1 0x0 SLOAD PUSH1 0x1 PUSH1 0x1 PUSH1 0xA0 SHL SUB PUSH2 0x100 SWAP1 SWAP2 DIV AND CALLER EQ PUSH2 0x498 JUMPI PUSH1 0x40 MLOAD PUSH3 0x461BCD PUSH1 0xE5 SHL DUP2 MSTORE PUSH1 0x20 PUSH1 0x4 DUP3 ADD DUP2 SWAP1 MSTORE PUSH1 0x24 DUP3 ADD MSTORE PUSH32 0x4F776E61626C653A2063616C6C6572206973206E6F7420746865206F776E6572 PUSH1 0x44 DUP3 ADD MSTORE PUSH1 0x64 ADD PUSH2 0x3B0 JUMP JUMPDEST PUSH2 0xFD6 PUSH2 0x1565 JUMP JUMPDEST PUSH1 0x0 DUP1 SLOAD PUSH1 0xFF NOT AND SWAP1 SSTORE PUSH32 0x5DB9EE0A495BF2E6FF9C91A7834C1BA4FDD244A5E8AA4E537BD38AEAE4B073AA CALLER JUMPDEST PUSH1 0x40 MLOAD PUSH1 0x1 PUSH1 0x1 PUSH1 0xA0 SHL SUB SWAP1 SWAP2 AND DUP2 MSTORE PUSH1 0x20 ADD PUSH1 0x40 MLOAD DUP1 SWAP2 SUB SWAP1 LOG1 JUMP JUMPDEST PUSH1 0x0 DUP1 SLOAD PUSH1 0x1 PUSH1 0x1 PUSH1 0xA0 SHL SUB DUP4 DUP2 AND PUSH2 0x100 DUP2 DUP2 MUL PUSH2 0x100 PUSH1 0x1 PUSH1 0xA8 SHL SUB NOT DUP6 AND OR DUP6 SSTORE PUSH1 0x40 MLOAD SWAP4 DIV SWAP2 SWAP1 SWAP2 AND SWAP3 SWAP1 SWAP2 DUP4 SWAP2 PUSH32 0x8BE0079C531659141344CD1FD0A4F28419497F9722A3DAAFE3B4186F6B6457E0 SWAP2 LOG3 POP POP JUMP JUMPDEST PUSH2 0x1081 PUSH2 0x15AE JUMP JUMPDEST PUSH1 0x0 DUP1 SLOAD PUSH1 0xFF NOT AND PUSH1 0x1 OR SWAP1 SSTORE PUSH32 0x62E78CEA01BEE320CD4E420270B5EA74000D11B0C9F74754EBDBFC544B05A258 PUSH2 0x1003 CALLER SWAP1 JUMP JUMPDEST PUSH1 0x1 SLOAD PUSH1 0x40 MLOAD PUSH4 0x23B872DD PUSH1 0xE0 SHL DUP2 MSTORE CALLER PUSH1 0x4 DUP3 ADD MSTORE ADDRESS PUSH1 0x24 DUP3 ADD MSTORE PUSH1 0x44 DUP2 ADD DUP5 SWAP1 MSTORE PUSH1 0x1 PUSH1 0x1 PUSH1 0xA0 SHL SUB SWAP1 SWAP2 AND SWAP1 PUSH4 0x23B872DD SWAP1 PUSH1 0x64 ADD PUSH1 0x20 PUSH1 0x40 MLOAD DUP1 DUP4 SUB DUP2 PUSH1 0x0 DUP8 GAS CALL ISZERO DUP1 ISZERO PUSH2 0x110D JUMPI RETURNDATASIZE PUSH1 0x0 DUP1 RETURNDATACOPY RETURNDATASIZE PUSH1 0x0 REVERT JUMPDEST POP POP POP POP PUSH1 0x40 MLOAD RETURNDATASIZE PUSH1 0x1F NOT PUSH1 0x1F DUP3 ADD AND DUP3 ADD DUP1 PUSH1 0x40 MSTORE POP DUP2 ADD SWAP1 PUSH2 0x1131 SWAP2 SWAP1 PUSH2 0x1711 JUMP JUMPDEST POP DUP2 PUSH1 0x6 PUSH1 0x0 DUP3 DUP3 SLOAD PUSH2 0x1144 SWAP2 SWAP1 PUSH2 0x16FE JUMP JUMPDEST SWAP3 POP POP DUP2 SWAP1 SSTORE POP DUP1 PUSH1 0x7 PUSH1 0x0 DUP3 DUP3 SLOAD PUSH2 0x115D SWAP2 SWAP1 PUSH2 0x16FE JUMP JUMPDEST SWAP1 SWAP2 SSTORE POP POP PUSH1 0x40 DUP1 MLOAD PUSH1 0x60 DUP2 ADD DUP3 MSTORE DUP4 DUP2 MSTORE PUSH1 0x20 DUP1 DUP3 ADD DUP5 DUP2 MSTORE TIMESTAMP DUP4 DUP6 ADD SWAP1 DUP2 MSTORE CALLER PUSH1 0x0 SWAP1 DUP2 MSTORE PUSH1 0x2 DUP1 DUP6 MSTORE SWAP6 DUP2 KECCAK256 DUP1 SLOAD PUSH1 0x1 DUP2 DUP2 ADD DUP4 SSTORE SWAP2 DUP4 MSTORE SWAP5 SWAP1 SWAP2 KECCAK256 DUP6 MLOAD PUSH1 0x3 SWAP1 SWAP6 MUL ADD SWAP4 DUP5 SSTORE SWAP2 MLOAD SWAP2 DUP4 ADD SWAP2 SWAP1 SWAP2 SSTORE MLOAD SWAP3 ADD SWAP2 SWAP1 SWAP2 SSTORE PUSH1 0x6 SLOAD PUSH1 0x8 SLOAD PUSH1 0x7 SLOAD PUSH2 0x11CA SWAP2 SWAP1 PUSH2 0x16E7 JUMP JUMPDEST PUSH2 0x11D4 SWAP2 SWAP1 PUSH2 0x16AC JUMP JUMPDEST PUSH1 0x4 SSTORE PUSH2 0x11DF PUSH2 0x1550 JUMP JUMPDEST PUSH1 0x40 DUP1 MLOAD DUP5 DUP2 MSTORE CALLVALUE PUSH1 0x20 DUP3 ADD MSTORE CALLER SWAP2 PUSH32 0x5CAAD8F5613B6F1D592FC8C69D8F0999453740F0806C754F20CC92F3D4B2B1B6 SWAP2 ADD PUSH1 0x40 MLOAD DUP1 SWAP2 SUB SWAP1 LOG2 POP POP POP JUMP JUMPDEST PUSH1 0x0 DUP1 DUP1 PUSH1 0x3 DUP2 PUSH2 0x1232 PUSH3 0x15180 TIMESTAMP PUSH2 0x16AC JUMP JUMPDEST DUP2 MSTORE PUSH1 0x20 ADD SWAP1 DUP2 MSTORE PUSH1 0x20 ADD PUSH1 0x0 KECCAK256 SLOAD GT ISZERO PUSH2 0x13E3 JUMPI CALLER PUSH1 0x0 SWAP1 DUP2 MSTORE PUSH1 0x2 PUSH1 0x20 MSTORE PUSH1 0x40 DUP2 KECCAK256 DUP1 SLOAD SWAP1 SWAP2 DUP1 JUMPDEST DUP3 DUP2 LT ISZERO PUSH2 0x12E1 JUMPI PUSH1 0x0 DUP5 DUP3 DUP2 SLOAD DUP2 LT PUSH2 0x1278 JUMPI PUSH2 0x1278 PUSH2 0x174C JUMP JUMPDEST SWAP1 PUSH1 0x0 MSTORE PUSH1 0x20 PUSH1 0x0 KECCAK256 SWAP1 PUSH1 0x3 MUL ADD PUSH1 0x40 MLOAD DUP1 PUSH1 0x60 ADD PUSH1 0x40 MSTORE SWAP1 DUP2 PUSH1 0x0 DUP3 ADD SLOAD DUP2 MSTORE PUSH1 0x20 ADD PUSH1 0x1 DUP3 ADD SLOAD DUP2 MSTORE PUSH1 0x20 ADD PUSH1 0x2 DUP3 ADD SLOAD DUP2 MSTORE POP POP SWAP1 POP DUP1 PUSH1 0x40 ADD MLOAD TIMESTAMP PUSH2 0x12C1 SWAP2 SWAP1 PUSH2 0x16CE JUMP JUMPDEST PUSH2 0x12CB SWAP1 DUP5 PUSH2 0x16FE JUMP JUMPDEST SWAP3 POP POP DUP1 DUP1 PUSH2 0x12D9 SWAP1 PUSH2 0x1762 JUMP JUMPDEST SWAP2 POP POP PUSH2 0x125C JUMP JUMPDEST POP PUSH1 0x0 JUMPDEST DUP3 DUP2 LT ISZERO PUSH2 0x13DE JUMPI PUSH1 0x0 DUP5 DUP3 DUP2 SLOAD DUP2 LT PUSH2 0x1301 JUMPI PUSH2 0x1301 PUSH2 0x174C JUMP JUMPDEST PUSH1 0x0 SWAP2 DUP3 MSTORE PUSH1 0x20 DUP1 DUP4 KECCAK256 PUSH1 0x40 DUP1 MLOAD PUSH1 0x60 DUP2 ADD DUP3 MSTORE PUSH1 0x3 SWAP1 SWAP5 MUL SWAP1 SWAP2 ADD DUP1 SLOAD DUP1 DUP6 MSTORE PUSH1 0x1 DUP3 ADD SLOAD SWAP4 DUP6 ADD SWAP4 SWAP1 SWAP4 MSTORE PUSH1 0x2 ADD SLOAD SWAP1 DUP4 ADD MSTORE PUSH1 0x6 SLOAD PUSH1 0x8 SLOAD SWAP3 SWAP5 POP SWAP2 PUSH2 0x1349 SWAP2 PUSH2 0x16E7 JUMP JUMPDEST PUSH2 0x1353 SWAP2 SWAP1 PUSH2 0x16AC JUMP JUMPDEST SWAP1 POP PUSH1 0x0 DUP3 PUSH1 0x40 ADD MLOAD TIMESTAMP PUSH2 0x1367 SWAP2 SWAP1 PUSH2 0x16CE JUMP JUMPDEST SWAP1 POP PUSH1 0x0 PUSH2 0x1375 DUP7 DUP4 PUSH2 0x16AC JUMP JUMPDEST PUSH1 0x5 SLOAD SWAP1 SWAP2 POP DUP2 PUSH1 0x3 PUSH1 0x0 PUSH2 0x138D PUSH3 0x15180 TIMESTAMP PUSH2 0x16AC JUMP JUMPDEST DUP2 MSTORE PUSH1 0x20 ADD SWAP1 DUP2 MSTORE PUSH1 0x20 ADD PUSH1 0x0 KECCAK256 SLOAD DUP6 PUSH2 0x13A7 SWAP2 SWAP1 PUSH2 0x16E7 JUMP JUMPDEST PUSH2 0x13B1 SWAP2 SWAP1 PUSH2 0x16E7 JUMP JUMPDEST PUSH2 0x13BB SWAP2 SWAP1 PUSH2 0x16AC JUMP JUMPDEST PUSH2 0x13C5 SWAP1 DUP11 PUSH2 0x16FE JUMP JUMPDEST SWAP9 POP POP POP POP POP DUP1 DUP1 PUSH2 0x13D6 SWAP1 PUSH2 0x1762 JUMP JUMPDEST SWAP2 POP POP PUSH2 0x12E5 JUMP JUMPDEST POP POP POP POP JUMPDEST SWAP2 SWAP1 POP JUMP JUMPDEST CALLER PUSH1 0x0 SWAP1 DUP2 MSTORE PUSH1 0x2 PUSH1 0x20 MSTORE PUSH1 0x40 SWAP1 KECCAK256 SLOAD DUP2 LT PUSH2 0x143C JUMPI PUSH1 0x40 MLOAD PUSH3 0x461BCD PUSH1 0xE5 SHL DUP2 MSTORE PUSH1 0x20 PUSH1 0x4 DUP3 ADD MSTORE PUSH1 0x13 PUSH1 0x24 DUP3 ADD MSTORE PUSH19 0x496E646578206F7574206F6620626F756E6473 PUSH1 0x68 SHL PUSH1 0x44 DUP3 ADD MSTORE PUSH1 0x64 ADD PUSH2 0x3B0 JUMP JUMPDEST DUP1 JUMPDEST CALLER PUSH1 0x0 SWAP1 DUP2 MSTORE PUSH1 0x2 PUSH1 0x20 MSTORE PUSH1 0x40 SWAP1 KECCAK256 SLOAD PUSH2 0x145A SWAP1 PUSH1 0x1 SWAP1 PUSH2 0x16CE JUMP JUMPDEST DUP2 LT ISZERO PUSH2 0x1509 JUMPI CALLER PUSH1 0x0 SWAP1 DUP2 MSTORE PUSH1 0x2 PUSH1 0x20 MSTORE PUSH1 0x40 SWAP1 KECCAK256 PUSH2 0x147B DUP3 PUSH1 0x1 PUSH2 0x16FE JUMP JUMPDEST DUP2 SLOAD DUP2 LT PUSH2 0x148B JUMPI PUSH2 0x148B PUSH2 0x174C JUMP JUMPDEST SWAP1 PUSH1 0x0 MSTORE PUSH1 0x20 PUSH1 0x0 KECCAK256 SWAP1 PUSH1 0x3 MUL ADD PUSH1 0x2 PUSH1 0x0 CALLER PUSH1 0x1 PUSH1 0x1 PUSH1 0xA0 SHL SUB AND PUSH1 0x1 PUSH1 0x1 PUSH1 0xA0 SHL SUB AND DUP2 MSTORE PUSH1 0x20 ADD SWAP1 DUP2 MSTORE PUSH1 0x20 ADD PUSH1 0x0 KECCAK256 DUP3 DUP2 SLOAD DUP2 LT PUSH2 0x14CF JUMPI PUSH2 0x14CF PUSH2 0x174C JUMP JUMPDEST PUSH1 0x0 SWAP2 DUP3 MSTORE PUSH1 0x20 SWAP1 SWAP2 KECCAK256 DUP3 SLOAD PUSH1 0x3 SWAP1 SWAP3 MUL ADD SWAP1 DUP2 SSTORE PUSH1 0x1 DUP1 DUP4 ADD SLOAD SWAP1 DUP3 ADD SSTORE PUSH1 0x2 SWAP2 DUP3 ADD SLOAD SWAP2 ADD SSTORE DUP1 PUSH2 0x1501 DUP2 PUSH2 0x1762 JUMP JUMPDEST SWAP2 POP POP PUSH2 0x143E JUMP JUMPDEST POP CALLER PUSH1 0x0 SWAP1 DUP2 MSTORE PUSH1 0x2 PUSH1 0x20 MSTORE PUSH1 0x40 SWAP1 KECCAK256 DUP1 SLOAD DUP1 PUSH2 0x1528 JUMPI PUSH2 0x1528 PUSH2 0x177B JUMP JUMPDEST PUSH1 0x0 DUP3 DUP2 MSTORE PUSH1 0x20 DUP2 KECCAK256 PUSH1 0x3 PUSH1 0x0 NOT SWAP1 SWAP4 ADD SWAP3 DUP4 MUL ADD DUP2 DUP2 SSTORE PUSH1 0x1 DUP2 ADD DUP3 SWAP1 SSTORE PUSH1 0x2 ADD SSTORE SWAP1 SSTORE POP JUMP JUMPDEST PUSH1 0x7 SLOAD PUSH1 0x6 SLOAD PUSH2 0x1560 SWAP2 SWAP1 PUSH2 0x16E7 JUMP JUMPDEST PUSH1 0x5 SSTORE JUMP JUMPDEST PUSH1 0x0 SLOAD PUSH1 0xFF AND PUSH2 0x498 JUMPI PUSH1 0x40 MLOAD PUSH3 0x461BCD PUSH1 0xE5 SHL DUP2 MSTORE PUSH1 0x20 PUSH1 0x4 DUP3 ADD MSTORE PUSH1 0x14 PUSH1 0x24 DUP3 ADD MSTORE PUSH20 0x14185D5CD8589B194E881B9BDD081C185D5CD959 PUSH1 0x62 SHL PUSH1 0x44 DUP3 ADD MSTORE PUSH1 0x64 ADD PUSH2 0x3B0 JUMP JUMPDEST PUSH1 0x0 SLOAD PUSH1 0xFF AND ISZERO PUSH2 0x498 JUMPI PUSH1 0x40 MLOAD PUSH3 0x461BCD PUSH1 0xE5 SHL DUP2 MSTORE PUSH1 0x20 PUSH1 0x4 DUP3 ADD MSTORE PUSH1 0x10 PUSH1 0x24 DUP3 ADD MSTORE PUSH16 0x14185D5CD8589B194E881C185D5CD959 PUSH1 0x82 SHL PUSH1 0x44 DUP3 ADD MSTORE PUSH1 0x64 ADD PUSH2 0x3B0 JUMP JUMPDEST PUSH1 0x0 PUSH1 0x20 DUP3 DUP5 SUB SLT ISZERO PUSH2 0x1606 JUMPI PUSH1 0x0 DUP1 REVERT JUMPDEST POP CALLDATALOAD SWAP2 SWAP1 POP JUMP JUMPDEST PUSH1 0x20 DUP1 DUP3 MSTORE DUP3 MLOAD DUP3 DUP3 ADD DUP2 SWAP1 MSTORE PUSH1 0x0 SWAP2 SWAP1 PUSH1 0x40 SWAP1 DUP2 DUP6 ADD SWAP1 DUP7 DUP5 ADD DUP6 JUMPDEST DUP3 DUP2 LT ISZERO PUSH2 0x1659 JUMPI DUP2 MLOAD DUP1 MLOAD DUP6 MSTORE DUP7 DUP2 ADD MLOAD DUP8 DUP7 ADD MSTORE DUP6 ADD MLOAD DUP6 DUP6 ADD MSTORE PUSH1 0x60 SWAP1 SWAP4 ADD SWAP3 SWAP1 DUP6 ADD SWAP1 PUSH1 0x1 ADD PUSH2 0x162A JUMP JUMPDEST POP SWAP2 SWAP8 SWAP7 POP POP POP POP POP POP POP JUMP JUMPDEST PUSH1 0x0 PUSH1 0x20 DUP3 DUP5 SUB SLT ISZERO PUSH2 0x1678 JUMPI PUSH1 0x0 DUP1 REVERT JUMPDEST DUP2 CALLDATALOAD PUSH1 0x1 PUSH1 0x1 PUSH1 0xA0 SHL SUB DUP2 AND DUP2 EQ PUSH2 0x168F JUMPI PUSH1 0x0 DUP1 REVERT JUMPDEST SWAP4 SWAP3 POP POP POP JUMP JUMPDEST PUSH4 0x4E487B71 PUSH1 0xE0 SHL PUSH1 0x0 MSTORE PUSH1 0x11 PUSH1 0x4 MSTORE PUSH1 0x24 PUSH1 0x0 REVERT JUMPDEST PUSH1 0x0 DUP3 PUSH2 0x16C9 JUMPI PUSH4 0x4E487B71 PUSH1 0xE0 SHL PUSH1 0x0 MSTORE PUSH1 0x12 PUSH1 0x4 MSTORE PUSH1 0x24 PUSH1 0x0 REVERT JUMPDEST POP DIV SWAP1 JUMP JUMPDEST DUP2 DUP2 SUB DUP2 DUP2 GT ISZERO PUSH2 0x16E1 JUMPI PUSH2 0x16E1 PUSH2 0x1696 JUMP JUMPDEST SWAP3 SWAP2 POP POP JUMP JUMPDEST DUP1 DUP3 MUL DUP2 ISZERO DUP3 DUP3 DIV DUP5 EQ OR PUSH2 0x16E1 JUMPI PUSH2 0x16E1 PUSH2 0x1696 JUMP JUMPDEST DUP1 DUP3 ADD DUP1 DUP3 GT ISZERO PUSH2 0x16E1 JUMPI PUSH2 0x16E1 PUSH2 0x1696 JUMP JUMPDEST PUSH1 0x0 PUSH1 0x20 DUP3 DUP5 SUB SLT ISZERO PUSH2 0x1723 JUMPI PUSH1 0x0 DUP1 REVERT JUMPDEST DUP2 MLOAD DUP1 ISZERO ISZERO DUP2 EQ PUSH2 0x168F JUMPI PUSH1 0x0 DUP1 REVERT JUMPDEST PUSH1 0x0 PUSH1 0x20 DUP3 DUP5 SUB SLT ISZERO PUSH2 0x1745 JUMPI PUSH1 0x0 DUP1 REVERT JUMPDEST POP MLOAD SWAP2 SWAP1 POP JUMP JUMPDEST PUSH4 0x4E487B71 PUSH1 0xE0 SHL PUSH1 0x0 MSTORE PUSH1 0x32 PUSH1 0x4 MSTORE PUSH1 0x24 PUSH1 0x0 REVERT JUMPDEST PUSH1 0x0 PUSH1 0x1 DUP3 ADD PUSH2 0x1774 JUMPI PUSH2 0x1774 PUSH2 0x1696 JUMP JUMPDEST POP PUSH1 0x1 ADD SWAP1 JUMP JUMPDEST PUSH4 0x4E487B71 PUSH1 0xE0 SHL PUSH1 0x0 MSTORE PUSH1 0x31 PUSH1 0x4 MSTORE PUSH1 0x24 PUSH1 0x0 REVERT INVALID LOG2 PUSH5 0x6970667358 0x22 SLT KECCAK256 0xCE PC 0xBC 0xC8 SWAP9 STOP SWAP8 0xA9 0x26 CALLER 0xE4 SAR AND 0xC0 DUP16 0xB6 0xB2 0xE7 0x26 0x2F 0xDB TIMESTAMP 0xBB SWAP12 0xF6 CALL EQ SLT SSTORE SLOAD SWAP7 RETURNDATACOPY PUSH5 0x736F6C6343 STOP ADDMOD SGT STOP CALLER "
				},
				"gasEstimates": {
					"creation": {
						"codeDepositCost": "1217400",
						"executionCost": "infinite",
						"totalCost": "infinite"
					},
					"external": {
						"_k()": "2330",
						"_x()": "2396",
						"_y()": "2374",
						"buy(uint256)": "infinite",
						"dailyTax(uint256)": "2450",
						"getETHPrice(uint256)": "infinite",
						"getMemePrice(uint256)": "infinite",
						"getStacks()": "infinite",
						"owner()": "2397",
						"pause()": "infinite",
						"paused()": "2381",
						"precision()": "2395",
						"renounceOwnership()": "infinite",
						"sell(uint256)": "infinite",
						"stack(uint256)": "infinite",
						"stackingRate()": "2373",
						"taxRate()": "2307",
						"transferOwnership(address)": "28444",
						"unpause()": "infinite",
						"unstack(uint256)": "infinite"
					},
					"internal": {
						"_distributeTax()": "infinite",
						"_removeArr(uint256)": "infinite",
						"_stack(uint256,uint256)": "infinite",
						"_unstack(uint256)": "infinite",
						"_updateK()": "26409"
					}
				},
				"methodIdentifiers": {
					"_k()": "1b82c27f",
					"_x()": "29809703",
					"_y()": "28726bda",
					"buy(uint256)": "d96a094a",
					"dailyTax(uint256)": "2ad9d559",
					"getETHPrice(uint256)": "1a753fed",
					"getMemePrice(uint256)": "5c572ed0",
					"getStacks()": "e8bca8b8",
					"owner()": "8da5cb5b",
					"pause()": "8456cb59",
					"paused()": "5c975abb",
					"precision()": "d3b5dc3b",
					"renounceOwnership()": "715018a6",
					"sell(uint256)": "e4849b32",
					"stack(uint256)": "dc9031c4",
					"stackingRate()": "9c74f05d",
					"taxRate()": "771a3a1d",
					"transferOwnership(address)": "f2fde38b",
					"unpause()": "3f4ba83a",
					"unstack(uint256)": "200061df"
				}
			},
			"storageLayout": {
				"storage": [
					{
						"astId": 872,
						"contract": "DEX.sol_flattened.sol:DEX",
						"label": "_paused",
						"offset": 0,
						"slot": "0",
						"type": "t_bool"
					},
					{
						"astId": 751,
						"contract": "DEX.sol_flattened.sol:DEX",
						"label": "_owner",
						"offset": 1,
						"slot": "0",
						"type": "t_address"
					},
					{
						"astId": 1060,
						"contract": "DEX.sol_flattened.sol:DEX",
						"label": "meme",
						"offset": 0,
						"slot": "1",
						"type": "t_contract(ERC20)704"
					},
					{
						"astId": 1098,
						"contract": "DEX.sol_flattened.sol:DEX",
						"label": "Stacked",
						"offset": 0,
						"slot": "2",
						"type": "t_mapping(t_address,t_array(t_struct(Stack_Struct)1057_storage)dyn_storage)"
					},
					{
						"astId": 1102,
						"contract": "DEX.sol_flattened.sol:DEX",
						"label": "dailyTax",
						"offset": 0,
						"slot": "3",
						"type": "t_mapping(t_uint256,t_uint256)"
					},
					{
						"astId": 1104,
						"contract": "DEX.sol_flattened.sol:DEX",
						"label": "stackingRate",
						"offset": 0,
						"slot": "4",
						"type": "t_uint256"
					},
					{
						"astId": 1106,
						"contract": "DEX.sol_flattened.sol:DEX",
						"label": "_k",
						"offset": 0,
						"slot": "5",
						"type": "t_uint256"
					},
					{
						"astId": 1108,
						"contract": "DEX.sol_flattened.sol:DEX",
						"label": "_x",
						"offset": 0,
						"slot": "6",
						"type": "t_uint256"
					},
					{
						"astId": 1110,
						"contract": "DEX.sol_flattened.sol:DEX",
						"label": "_y",
						"offset": 0,
						"slot": "7",
						"type": "t_uint256"
					},
					{
						"astId": 1113,
						"contract": "DEX.sol_flattened.sol:DEX",
						"label": "precision",
						"offset": 0,
						"slot": "8",
						"type": "t_uint256"
					},
					{
						"astId": 1121,
						"contract": "DEX.sol_flattened.sol:DEX",
						"label": "taxRate",
						"offset": 0,
						"slot": "9",
						"type": "t_uint256"
					}
				],
				"types": {
					"t_address": {
						"encoding": "inplace",
						"label": "address",
						"numberOfBytes": "20"
					},
					"t_array(t_struct(Stack_Struct)1057_storage)dyn_storage": {
						"base": "t_struct(Stack_Struct)1057_storage",
						"encoding": "dynamic_array",
						"label": "struct DEX.Stack_Struct[]",
						"numberOfBytes": "32"
					},
					"t_bool": {
						"encoding": "inplace",
						"label": "bool",
						"numberOfBytes": "1"
					},
					"t_contract(ERC20)704": {
						"encoding": "inplace",
						"label": "contract ERC20",
						"numberOfBytes": "20"
					},
					"t_mapping(t_address,t_array(t_struct(Stack_Struct)1057_storage)dyn_storage)": {
						"encoding": "mapping",
						"key": "t_address",
						"label": "mapping(address => struct DEX.Stack_Struct[])",
						"numberOfBytes": "32",
						"value": "t_array(t_struct(Stack_Struct)1057_storage)dyn_storage"
					},
					"t_mapping(t_uint256,t_uint256)": {
						"encoding": "mapping",
						"key": "t_uint256",
						"label": "mapping(uint256 => uint256)",
						"numberOfBytes": "32",
						"value": "t_uint256"
					},
					"t_struct(Stack_Struct)1057_storage": {
						"encoding": "inplace",
						"label": "struct DEX.Stack_Struct",
						"members": [
							{
								"astId": 1052,
								"contract": "DEX.sol_flattened.sol:DEX",
								"label": "meme_amount",
								"offset": 0,
								"slot": "0",
								"type": "t_uint256"
							},
							{
								"astId": 1054,
								"contract": "DEX.sol_flattened.sol:DEX",
								"label": "eth_amount",
								"offset": 0,
								"slot": "1",
								"type": "t_uint256"
							},
							{
								"astId": 1056,
								"contract": "DEX.sol_flattened.sol:DEX",
								"label": "time",
								"offset": 0,
								"slot": "2",
								"type": "t_uint256"
							}
						],
						"numberOfBytes": "96"
					},
					"t_uint256": {
						"encoding": "inplace",
						"label": "uint256",
						"numberOfBytes": "32"
					}
				}
			},
			"userdoc": {
				"kind": "user",
				"methods": {},
				"version": 1
			}
		}
	}
}