{
	"DEX.sol_flattened.sol": {
		"MEME": {
			"abi": [
				{
					"inputs": [],
					"stateMutability": "nonpayable",
					"type": "constructor"
				},
				{
					"anonymous": false,
					"inputs": [
						{
							"indexed": true,
							"internalType": "address",
							"name": "owner",
							"type": "address"
						},
						{
							"indexed": true,
							"internalType": "address",
							"name": "spender",
							"type": "address"
						},
						{
							"indexed": false,
							"internalType": "uint256",
							"name": "value",
							"type": "uint256"
						}
					],
					"name": "Approval",
					"type": "event"
				},
				{
					"anonymous": false,
					"inputs": [
						{
							"indexed": true,
							"internalType": "address",
							"name": "previousOwner",
							"type": "address"
						},
						{
							"indexed": true,
							"internalType": "address",
							"name": "newOwner",
							"type": "address"
						}
					],
					"name": "OwnershipTransferred",
					"type": "event"
				},
				{
					"anonymous": false,
					"inputs": [
						{
							"indexed": false,
							"internalType": "address",
							"name": "account",
							"type": "address"
						}
					],
					"name": "Paused",
					"type": "event"
				},
				{
					"anonymous": false,
					"inputs": [
						{
							"indexed": true,
							"internalType": "address",
							"name": "from",
							"type": "address"
						},
						{
							"indexed": true,
							"internalType": "address",
							"name": "to",
							"type": "address"
						},
						{
							"indexed": false,
							"internalType": "uint256",
							"name": "value",
							"type": "uint256"
						}
					],
					"name": "Transfer",
					"type": "event"
				},
				{
					"anonymous": false,
					"inputs": [
						{
							"indexed": false,
							"internalType": "address",
							"name": "account",
							"type": "address"
						}
					],
					"name": "Unpaused",
					"type": "event"
				},
				{
					"inputs": [
						{
							"internalType": "address",
							"name": "owner",
							"type": "address"
						},
						{
							"internalType": "address",
							"name": "spender",
							"type": "address"
						}
					],
					"name": "allowance",
					"outputs": [
						{
							"internalType": "uint256",
							"name": "",
							"type": "uint256"
						}
					],
					"stateMutability": "view",
					"type": "function"
				},
				{
					"inputs": [
						{
							"internalType": "address",
							"name": "spender",
							"type": "address"
						},
						{
							"internalType": "uint256",
							"name": "amount",
							"type": "uint256"
						}
					],
					"name": "approve",
					"outputs": [
						{
							"internalType": "bool",
							"name": "",
							"type": "bool"
						}
					],
					"stateMutability": "nonpayable",
					"type": "function"
				},
				{
					"inputs": [
						{
							"internalType": "address",
							"name": "account",
							"type": "address"
						}
					],
					"name": "balanceOf",
					"outputs": [
						{
							"internalType": "uint256",
							"name": "",
							"type": "uint256"
						}
					],
					"stateMutability": "view",
					"type": "function"
				},
				{
					"inputs": [
						{
							"internalType": "uint256",
							"name": "amount",
							"type": "uint256"
						}
					],
					"name": "burn",
					"outputs": [],
					"stateMutability": "nonpayable",
					"type": "function"
				},
				{
					"inputs": [
						{
							"internalType": "address",
							"name": "account",
							"type": "address"
						},
						{
							"internalType": "uint256",
							"name": "amount",
							"type": "uint256"
						}
					],
					"name": "burnFrom",
					"outputs": [],
					"stateMutability": "nonpayable",
					"type": "function"
				},
				{
					"inputs": [],
					"name": "decimals",
					"outputs": [
						{
							"internalType": "uint8",
							"name": "",
							"type": "uint8"
						}
					],
					"stateMutability": "view",
					"type": "function"
				},
				{
					"inputs": [
						{
							"internalType": "address",
							"name": "spender",
							"type": "address"
						},
						{
							"internalType": "uint256",
							"name": "subtractedValue",
							"type": "uint256"
						}
					],
					"name": "decreaseAllowance",
					"outputs": [
						{
							"internalType": "bool",
							"name": "",
							"type": "bool"
						}
					],
					"stateMutability": "nonpayable",
					"type": "function"
				},
				{
					"inputs": [
						{
							"internalType": "address",
							"name": "spender",
							"type": "address"
						},
						{
							"internalType": "uint256",
							"name": "addedValue",
							"type": "uint256"
						}
					],
					"name": "increaseAllowance",
					"outputs": [
						{
							"internalType": "bool",
							"name": "",
							"type": "bool"
						}
					],
					"stateMutability": "nonpayable",
					"type": "function"
				},
				{
					"inputs": [
						{
							"internalType": "address",
							"name": "to",
							"type": "address"
						},
						{
							"internalType": "uint256",
							"name": "amount",
							"type": "uint256"
						}
					],
					"name": "mint",
					"outputs": [],
					"stateMutability": "nonpayable",
					"type": "function"
				},
				{
					"inputs": [],
					"name": "name",
					"outputs": [
						{
							"internalType": "string",
							"name": "",
							"type": "string"
						}
					],
					"stateMutability": "view",
					"type": "function"
				},
				{
					"inputs": [],
					"name": "owner",
					"outputs": [
						{
							"internalType": "address",
							"name": "",
							"type": "address"
						}
					],
					"stateMutability": "view",
					"type": "function"
				},
				{
					"inputs": [],
					"name": "pause",
					"outputs": [],
					"stateMutability": "nonpayable",
					"type": "function"
				},
				{
					"inputs": [],
					"name": "paused",
					"outputs": [
						{
							"internalType": "bool",
							"name": "",
							"type": "bool"
						}
					],
					"stateMutability": "view",
					"type": "function"
				},
				{
					"inputs": [],
					"name": "renounceOwnership",
					"outputs": [],
					"stateMutability": "nonpayable",
					"type": "function"
				},
				{
					"inputs": [],
					"name": "symbol",
					"outputs": [
						{
							"internalType": "string",
							"name": "",
							"type": "string"
						}
					],
					"stateMutability": "view",
					"type": "function"
				},
				{
					"inputs": [],
					"name": "totalSupply",
					"outputs": [
						{
							"internalType": "uint256",
							"name": "",
							"type": "uint256"
						}
					],
					"stateMutability": "view",
					"type": "function"
				},
				{
					"inputs": [
						{
							"internalType": "address",
							"name": "to",
							"type": "address"
						},
						{
							"internalType": "uint256",
							"name": "amount",
							"type": "uint256"
						}
					],
					"name": "transfer",
					"outputs": [
						{
							"internalType": "bool",
							"name": "",
							"type": "bool"
						}
					],
					"stateMutability": "nonpayable",
					"type": "function"
				},
				{
					"inputs": [
						{
							"internalType": "address",
							"name": "from",
							"type": "address"
						},
						{
							"internalType": "address",
							"name": "to",
							"type": "address"
						},
						{
							"internalType": "uint256",
							"name": "amount",
							"type": "uint256"
						}
					],
					"name": "transferFrom",
					"outputs": [
						{
							"internalType": "bool",
							"name": "",
							"type": "bool"
						}
					],
					"stateMutability": "nonpayable",
					"type": "function"
				},
				{
					"inputs": [
						{
							"internalType": "address",
							"name": "newOwner",
							"type": "address"
						}
					],
					"name": "transferOwnership",
					"outputs": [],
					"stateMutability": "nonpayable",
					"type": "function"
				},
				{
					"inputs": [],
					"name": "unpause",
					"outputs": [],
					"stateMutability": "nonpayable",
					"type": "function"
				}
			],
			"devdoc": {
				"events": {
					"Approval(address,address,uint256)": {
						"details": "Emitted when the allowance of a `spender` for an `owner` is set by a call to {approve}. `value` is the new allowance."
					},
					"Paused(address)": {
						"details": "Emitted when the pause is triggered by `account`."
					},
					"Transfer(address,address,uint256)": {
						"details": "Emitted when `value` tokens are moved from one account (`from`) to another (`to`). Note that `value` may be zero."
					},
					"Unpaused(address)": {
						"details": "Emitted when the pause is lifted by `account`."
					}
				},
				"kind": "dev",
				"methods": {
					"allowance(address,address)": {
						"details": "See {IERC20-allowance}."
					},
					"approve(address,uint256)": {
						"details": "See {IERC20-approve}. NOTE: If `amount` is the maximum `uint256`, the allowance is not updated on `transferFrom`. This is semantically equivalent to an infinite approval. Requirements: - `spender` cannot be the zero address."
					},
					"balanceOf(address)": {
						"details": "See {IERC20-balanceOf}."
					},
					"burn(uint256)": {
						"details": "Destroys `amount` tokens from the caller. See {ERC20-_burn}."
					},
					"burnFrom(address,uint256)": {
						"details": "Destroys `amount` tokens from `account`, deducting from the caller's allowance. See {ERC20-_burn} and {ERC20-allowance}. Requirements: - the caller must have allowance for ``accounts``'s tokens of at least `amount`."
					},
					"decimals()": {
						"details": "Returns the number of decimals used to get its user representation. For example, if `decimals` equals `2`, a balance of `505` tokens should be displayed to a user as `5.05` (`505 / 10 ** 2`). Tokens usually opt for a value of 18, imitating the relationship between Ether and Wei. This is the value {ERC20} uses, unless this function is overridden; NOTE: This information is only used for _display_ purposes: it in no way affects any of the arithmetic of the contract, including {IERC20-balanceOf} and {IERC20-transfer}."
					},
					"decreaseAllowance(address,uint256)": {
						"details": "Atomically decreases the allowance granted to `spender` by the caller. This is an alternative to {approve} that can be used as a mitigation for problems described in {IERC20-approve}. Emits an {Approval} event indicating the updated allowance. Requirements: - `spender` cannot be the zero address. - `spender` must have allowance for the caller of at least `subtractedValue`."
					},
					"increaseAllowance(address,uint256)": {
						"details": "Atomically increases the allowance granted to `spender` by the caller. This is an alternative to {approve} that can be used as a mitigation for problems described in {IERC20-approve}. Emits an {Approval} event indicating the updated allowance. Requirements: - `spender` cannot be the zero address."
					},
					"name()": {
						"details": "Returns the name of the token."
					},
					"owner()": {
						"details": "Returns the address of the current owner."
					},
					"paused()": {
						"details": "Returns true if the contract is paused, and false otherwise."
					},
					"renounceOwnership()": {
						"details": "Leaves the contract without owner. It will not be possible to call `onlyOwner` functions anymore. Can only be called by the current owner. NOTE: Renouncing ownership will leave the contract without an owner, thereby removing any functionality that is only available to the owner."
					},
					"symbol()": {
						"details": "Returns the symbol of the token, usually a shorter version of the name."
					},
					"totalSupply()": {
						"details": "See {IERC20-totalSupply}."
					},
					"transfer(address,uint256)": {
						"details": "See {IERC20-transfer}. Requirements: - `to` cannot be the zero address. - the caller must have a balance of at least `amount`."
					},
					"transferFrom(address,address,uint256)": {
						"details": "See {IERC20-transferFrom}. Emits an {Approval} event indicating the updated allowance. This is not required by the EIP. See the note at the beginning of {ERC20}. NOTE: Does not update the allowance if the current allowance is the maximum `uint256`. Requirements: - `from` and `to` cannot be the zero address. - `from` must have a balance of at least `amount`. - the caller must have allowance for ``from``'s tokens of at least `amount`."
					},
					"transferOwnership(address)": {
						"details": "Transfers ownership of the contract to a new account (`newOwner`). Can only be called by the current owner."
					}
				},
				"version": 1
			},
			"evm": {
				"assembly": "    /* \"DEX.sol_flattened.sol\":23642:24235  contract MEME is ERC20, ERC20Burnable, Pausable, Ownable {... */\n  mstore(0x40, 0x80)\n    /* \"DEX.sol_flattened.sol\":23705:23801  constructor() ERC20(\"MEME\", \"MEME\") {... */\n  callvalue\n  dup1\n  iszero\n  tag_1\n  jumpi\n  0x00\n  dup1\n  revert\ntag_1:\n  pop\n    /* \"DEX.sol_flattened.sol\":6270:6383  constructor(string memory name_, string memory symbol_) {... */\n  0x40\n  dup1\n  mload\n  dup1\n  dup3\n  add\n  dup3\n  mstore\n  0x04\n  dup1\n  dup3\n  mstore\n  shl(0xe0, 0x4d454d45)\n  0x20\n  dup1\n  dup5\n  add\n  dup3\n  swap1\n  mstore\n  dup5\n  mload\n  dup1\n  dup7\n  add\n  swap1\n  swap6\n  mstore\n  swap2\n  dup5\n  mstore\n  swap1\n  dup4\n  add\n  mstore\n  swap1\n    /* \"DEX.sol_flattened.sol\":6336:6341  _name */\n  0x03\n    /* \"DEX.sol_flattened.sol\":6336:6349  _name = name_ */\n  tag_7\n    /* \"DEX.sol_flattened.sol\":6270:6383  constructor(string memory name_, string memory symbol_) {... */\n  dup4\n    /* \"DEX.sol_flattened.sol\":6336:6341  _name */\n  dup3\n    /* \"DEX.sol_flattened.sol\":6336:6349  _name = name_ */\n  tag_8\n  jump\t// in\ntag_7:\n  pop\n    /* \"DEX.sol_flattened.sol\":6359:6366  _symbol */\n  0x04\n    /* \"DEX.sol_flattened.sol\":6359:6376  _symbol = symbol_ */\n  tag_9\n    /* \"DEX.sol_flattened.sol\":6369:6376  symbol_ */\n  dup3\n    /* \"DEX.sol_flattened.sol\":6359:6366  _symbol */\n  dup3\n    /* \"DEX.sol_flattened.sol\":6359:6376  _symbol = symbol_ */\n  tag_8\n  jump\t// in\ntag_9:\n  pop\n  pop\n    /* \"DEX.sol_flattened.sol\":22035:22042  _paused */\n  0x05\n    /* \"DEX.sol_flattened.sol\":22035:22050  _paused = false */\n  dup1\n  sload\n  not(0xff)\n  and\n  swap1\n  sstore\n  pop\n    /* \"DEX.sol_flattened.sol\":19357:19389  _transferOwnership(_msgSender()) */\n  tag_12\n    /* \"DEX.sol_flattened.sol\":4240:4250  msg.sender */\n  caller\n    /* \"DEX.sol_flattened.sol\":19357:19375  _transferOwnership */\n  tag_15\n    /* \"DEX.sol_flattened.sol\":19357:19389  _transferOwnership(_msgSender()) */\n  jump\t// in\ntag_12:\n    /* \"DEX.sol_flattened.sol\":23751:23794  _mint(msg.sender, 50000 * 10 ** decimals()) */\n  tag_17\n    /* \"DEX.sol_flattened.sol\":23757:23767  msg.sender */\n  caller\n    /* \"DEX.sol_flattened.sol\":23777:23793  10 ** decimals() */\n  tag_20\n    /* \"DEX.sol_flattened.sol\":7467:7469  18 */\n  0x12\n    /* \"DEX.sol_flattened.sol\":23777:23779  10 */\n  0x0a\n    /* \"DEX.sol_flattened.sol\":23777:23793  10 ** decimals() */\n  tag_21\n  jump\t// in\ntag_20:\n    /* \"DEX.sol_flattened.sol\":23769:23793  50000 * 10 ** decimals() */\n  tag_22\n  swap1\n    /* \"DEX.sol_flattened.sol\":23769:23774  50000 */\n  0xc350\n    /* \"DEX.sol_flattened.sol\":23769:23793  50000 * 10 ** decimals() */\n  tag_23\n  jump\t// in\ntag_22:\n    /* \"DEX.sol_flattened.sol\":23751:23756  _mint */\n  tag_24\n    /* \"DEX.sol_flattened.sol\":23751:23794  _mint(msg.sender, 50000 * 10 ** decimals()) */\n  jump\t// in\ntag_17:\n    /* \"DEX.sol_flattened.sol\":23642:24235  contract MEME is ERC20, ERC20Burnable, Pausable, Ownable {... */\n  jump(tag_64)\n    /* \"DEX.sol_flattened.sol\":20854:21041  function _transferOwnership(address newOwner) internal virtual {... */\ntag_15:\n    /* \"DEX.sol_flattened.sol\":20946:20952  _owner */\n  0x05\n  dup1\n  sload\n  sub(shl(0xa0, 0x01), 0x01)\n    /* \"DEX.sol_flattened.sol\":20962:20979  _owner = newOwner */\n  dup4\n  dup2\n  and\n    /* \"DEX.sol_flattened.sol\":20946:20952  _owner */\n  0x0100\n    /* \"DEX.sol_flattened.sol\":20962:20979  _owner = newOwner */\n  dup2\n  dup2\n  mul\n  not(sub(shl(0xa8, 0x01), 0x0100))\n  dup6\n  and\n  or\n  swap1\n  swap5\n  sstore\n    /* \"DEX.sol_flattened.sol\":20994:21034  OwnershipTransferred(oldOwner, newOwner) */\n  mload(0x40)\n    /* \"DEX.sol_flattened.sol\":20946:20952  _owner */\n  swap4\n  swap1\n  swap3\n  div\n  and\n  swap2\n  dup3\n  swap1\n    /* \"DEX.sol_flattened.sol\":20994:21034  OwnershipTransferred(oldOwner, newOwner) */\n  0x8be0079c531659141344cd1fd0a4f28419497f9722a3daafe3b4186f6b6457e0\n  swap1\n    /* \"DEX.sol_flattened.sol\":20927:20943  address oldOwner */\n  0x00\n  swap1\n    /* \"DEX.sol_flattened.sol\":20994:21034  OwnershipTransferred(oldOwner, newOwner) */\n  log3\n    /* \"DEX.sol_flattened.sol\":20917:21041  {... */\n  pop\n    /* \"DEX.sol_flattened.sol\":20854:21041  function _transferOwnership(address newOwner) internal virtual {... */\n  pop\n  jump\t// out\n    /* \"DEX.sol_flattened.sol\":12861:13396  function _mint(address account, uint256 amount) internal virtual {... */\ntag_24:\n  sub(shl(0xa0, 0x01), 0x01)\n    /* \"DEX.sol_flattened.sol\":12944:12965  account != address(0) */\n  dup3\n  and\n    /* \"DEX.sol_flattened.sol\":12936:13001  require(account != address(0), \"ERC20: mint to the zero address\") */\n  tag_30\n  jumpi\n  mload(0x40)\n  shl(0xe5, 0x461bcd)\n  dup2\n  mstore\n    /* \"#utility.yul\":4625:4627   */\n  0x20\n    /* \"DEX.sol_flattened.sol\":12936:13001  require(account != address(0), \"ERC20: mint to the zero address\") */\n  0x04\n  dup3\n  add\n    /* \"#utility.yul\":4607:4628   */\n  mstore\n    /* \"#utility.yul\":4664:4666   */\n  0x1f\n    /* \"#utility.yul\":4644:4662   */\n  0x24\n  dup3\n  add\n    /* \"#utility.yul\":4637:4667   */\n  mstore\n    /* \"#utility.yul\":4703:4736   */\n  0x45524332303a206d696e7420746f20746865207a65726f206164647265737300\n    /* \"#utility.yul\":4683:4701   */\n  0x44\n  dup3\n  add\n    /* \"#utility.yul\":4676:4737   */\n  mstore\n    /* \"#utility.yul\":4754:4772   */\n  0x64\n  add\n    /* \"DEX.sol_flattened.sol\":12936:13001  require(account != address(0), \"ERC20: mint to the zero address\") */\ntag_31:\n  mload(0x40)\n  dup1\n  swap2\n  sub\n  swap1\n  revert\ntag_30:\n    /* \"DEX.sol_flattened.sol\":13012:13061  _beforeTokenTransfer(address(0), account, amount) */\n  tag_33\n    /* \"DEX.sol_flattened.sol\":13041:13042  0 */\n  0x00\n    /* \"DEX.sol_flattened.sol\":13045:13052  account */\n  dup4\n    /* \"DEX.sol_flattened.sol\":13054:13060  amount */\n  dup4\n    /* \"DEX.sol_flattened.sol\":13012:13032  _beforeTokenTransfer */\n  tag_34\n    /* \"DEX.sol_flattened.sol\":13012:13061  _beforeTokenTransfer(address(0), account, amount) */\n  jump\t// in\ntag_33:\n    /* \"DEX.sol_flattened.sol\":13088:13094  amount */\n  dup1\n    /* \"DEX.sol_flattened.sol\":13072:13084  _totalSupply */\n  0x02\n  0x00\n    /* \"DEX.sol_flattened.sol\":13072:13094  _totalSupply += amount */\n  dup3\n  dup3\n  sload\n  tag_35\n  swap2\n  swap1\n  tag_36\n  jump\t// in\ntag_35:\n  swap1\n  swap2\n  sstore\n  pop\n  pop\n  sub(shl(0xa0, 0x01), 0x01)\n    /* \"DEX.sol_flattened.sol\":13240:13258  _balances[account] */\n  dup3\n  and\n    /* \"DEX.sol_flattened.sol\":13240:13249  _balances */\n  0x00\n    /* \"DEX.sol_flattened.sol\":13240:13258  _balances[account] */\n  dup2\n  dup2\n  mstore\n  0x20\n  dup2\n  dup2\n  mstore\n  0x40\n  dup1\n  dup4\n  keccak256\n    /* \"DEX.sol_flattened.sol\":13240:13268  _balances[account] += amount */\n  dup1\n  sload\n  dup7\n  add\n  swap1\n  sstore\n    /* \"DEX.sol_flattened.sol\":13293:13330  Transfer(address(0), account, amount) */\n  mload\n    /* \"#utility.yul\":5059:5084   */\n  dup5\n  dup2\n  mstore\n    /* \"DEX.sol_flattened.sol\":13293:13330  Transfer(address(0), account, amount) */\n  0xddf252ad1be2c89b69c2b068fc378daa952ba7f163c4a11628f55a4df523b3ef\n  swap2\n    /* \"#utility.yul\":5032:5050   */\n  add\n    /* \"DEX.sol_flattened.sol\":13293:13330  Transfer(address(0), account, amount) */\n  mload(0x40)\n  dup1\n  swap2\n  sub\n  swap1\n  log3\n    /* \"DEX.sol_flattened.sol\":12861:13396  function _mint(address account, uint256 amount) internal virtual {... */\n  pop\n  pop\n  jump\t// out\n    /* \"DEX.sol_flattened.sol\":24040:24233  function _beforeTokenTransfer(address from, address to, uint256 amount)... */\ntag_34:\n    /* \"DEX.sol_flattened.sol\":22278:22297  _requireNotPaused() */\n  tag_42\n    /* \"DEX.sol_flattened.sol\":22278:22295  _requireNotPaused */\n  tag_43\n    /* \"DEX.sol_flattened.sol\":22278:22297  _requireNotPaused() */\n  jump\t// in\ntag_42:\n    /* \"DEX.sol_flattened.sol\":24182:24226  super._beforeTokenTransfer(from, to, amount) */\n  tag_45\n    /* \"DEX.sol_flattened.sol\":24209:24213  from */\n  dup4\n    /* \"DEX.sol_flattened.sol\":24215:24217  to */\n  dup4\n    /* \"DEX.sol_flattened.sol\":24219:24225  amount */\n  dup4\n  sub(shl(0xe0, 0x01), 0x01)\n    /* \"DEX.sol_flattened.sol\":24182:24226  super._beforeTokenTransfer(from, to, amount) */\n  dup5\n  and\n  jump\t// in\ntag_45:\n    /* \"DEX.sol_flattened.sol\":24040:24233  function _beforeTokenTransfer(address from, address to, uint256 amount)... */\n  pop\n  pop\n  pop\n  jump\t// out\n    /* \"DEX.sol_flattened.sol\":22806:22912  function _requireNotPaused() internal view virtual {... */\ntag_43:\n    /* \"DEX.sol_flattened.sol\":22724:22731  _paused */\n  and(0xff, sload(0x05))\n    /* \"DEX.sol_flattened.sol\":22875:22884  !paused() */\n  iszero\n    /* \"DEX.sol_flattened.sol\":22867:22905  require(!paused(), \"Pausable: paused\") */\n  tag_51\n  jumpi\n  mload(0x40)\n  shl(0xe5, 0x461bcd)\n  dup2\n  mstore\n    /* \"#utility.yul\":5297:5299   */\n  0x20\n    /* \"DEX.sol_flattened.sol\":22867:22905  require(!paused(), \"Pausable: paused\") */\n  0x04\n  dup3\n  add\n    /* \"#utility.yul\":5279:5300   */\n  mstore\n    /* \"#utility.yul\":5336:5338   */\n  0x10\n    /* \"#utility.yul\":5316:5334   */\n  0x24\n  dup3\n  add\n    /* \"#utility.yul\":5309:5339   */\n  mstore\n  shl(0x82, 0x14185d5cd8589b194e881c185d5cd959)\n    /* \"#utility.yul\":5355:5373   */\n  0x44\n  dup3\n  add\n    /* \"#utility.yul\":5348:5394   */\n  mstore\n    /* \"#utility.yul\":5411:5429   */\n  0x64\n  add\n    /* \"DEX.sol_flattened.sol\":22867:22905  require(!paused(), \"Pausable: paused\") */\n  tag_31\n    /* \"#utility.yul\":5095:5435   */\n  jump\n    /* \"DEX.sol_flattened.sol\":22867:22905  require(!paused(), \"Pausable: paused\") */\ntag_51:\n    /* \"DEX.sol_flattened.sol\":22806:22912  function _requireNotPaused() internal view virtual {... */\n  jump\t// out\n    /* \"#utility.yul\":14:141   */\ntag_56:\n    /* \"#utility.yul\":75:85   */\n  0x4e487b71\n    /* \"#utility.yul\":70:73   */\n  0xe0\n    /* \"#utility.yul\":66:86   */\n  shl\n    /* \"#utility.yul\":63:64   */\n  0x00\n    /* \"#utility.yul\":56:87   */\n  mstore\n    /* \"#utility.yul\":106:110   */\n  0x41\n    /* \"#utility.yul\":103:104   */\n  0x04\n    /* \"#utility.yul\":96:111   */\n  mstore\n    /* \"#utility.yul\":130:134   */\n  0x24\n    /* \"#utility.yul\":127:128   */\n  0x00\n    /* \"#utility.yul\":120:135   */\n  revert\n    /* \"#utility.yul\":146:526   */\ntag_57:\n    /* \"#utility.yul\":225:226   */\n  0x01\n    /* \"#utility.yul\":221:233   */\n  dup2\n  dup2\n  shr\n  swap1\n    /* \"#utility.yul\":268:280   */\n  dup3\n  and\n  dup1\n    /* \"#utility.yul\":289:350   */\n  tag_67\n  jumpi\n    /* \"#utility.yul\":343:347   */\n  0x7f\n    /* \"#utility.yul\":335:341   */\n  dup3\n    /* \"#utility.yul\":331:348   */\n  and\n    /* \"#utility.yul\":321:348   */\n  swap2\n  pop\n    /* \"#utility.yul\":289:350   */\ntag_67:\n    /* \"#utility.yul\":396:398   */\n  0x20\n    /* \"#utility.yul\":388:394   */\n  dup3\n    /* \"#utility.yul\":385:399   */\n  lt\n    /* \"#utility.yul\":365:383   */\n  dup2\n    /* \"#utility.yul\":362:400   */\n  sub\n    /* \"#utility.yul\":359:520   */\n  tag_68\n  jumpi\n    /* \"#utility.yul\":442:452   */\n  0x4e487b71\n    /* \"#utility.yul\":437:440   */\n  0xe0\n    /* \"#utility.yul\":433:453   */\n  shl\n    /* \"#utility.yul\":430:431   */\n  0x00\n    /* \"#utility.yul\":423:454   */\n  mstore\n    /* \"#utility.yul\":477:481   */\n  0x22\n    /* \"#utility.yul\":474:475   */\n  0x04\n    /* \"#utility.yul\":467:482   */\n  mstore\n    /* \"#utility.yul\":505:509   */\n  0x24\n    /* \"#utility.yul\":502:503   */\n  0x00\n    /* \"#utility.yul\":495:510   */\n  revert\n    /* \"#utility.yul\":359:520   */\ntag_68:\n  pop\n    /* \"#utility.yul\":146:526   */\n  swap2\n  swap1\n  pop\n  jump\t// out\n    /* \"#utility.yul\":657:1202   */\ntag_59:\n    /* \"#utility.yul\":759:761   */\n  0x1f\n    /* \"#utility.yul\":754:757   */\n  dup3\n    /* \"#utility.yul\":751:762   */\n  gt\n    /* \"#utility.yul\":748:1196   */\n  iszero\n  tag_45\n  jumpi\n    /* \"#utility.yul\":795:796   */\n  0x00\n    /* \"#utility.yul\":820:825   */\n  dup2\n    /* \"#utility.yul\":816:818   */\n  dup2\n    /* \"#utility.yul\":809:826   */\n  mstore\n    /* \"#utility.yul\":865:869   */\n  0x20\n    /* \"#utility.yul\":861:863   */\n  dup2\n    /* \"#utility.yul\":851:870   */\n  keccak256\n    /* \"#utility.yul\":935:937   */\n  0x1f\n    /* \"#utility.yul\":923:933   */\n  dup6\n    /* \"#utility.yul\":919:938   */\n  add\n    /* \"#utility.yul\":916:917   */\n  0x05\n    /* \"#utility.yul\":912:939   */\n  shr\n    /* \"#utility.yul\":906:910   */\n  dup2\n    /* \"#utility.yul\":902:940   */\n  add\n    /* \"#utility.yul\":971:975   */\n  0x20\n    /* \"#utility.yul\":959:969   */\n  dup7\n    /* \"#utility.yul\":956:976   */\n  lt\n    /* \"#utility.yul\":953:1000   */\n  iszero\n  tag_72\n  jumpi\n  pop\n    /* \"#utility.yul\":994:998   */\n  dup1\n    /* \"#utility.yul\":953:1000   */\ntag_72:\n    /* \"#utility.yul\":1049:1051   */\n  0x1f\n    /* \"#utility.yul\":1044:1047   */\n  dup6\n    /* \"#utility.yul\":1040:1052   */\n  add\n    /* \"#utility.yul\":1037:1038   */\n  0x05\n    /* \"#utility.yul\":1033:1053   */\n  shr\n    /* \"#utility.yul\":1027:1031   */\n  dup3\n    /* \"#utility.yul\":1023:1054   */\n  add\n    /* \"#utility.yul\":1013:1054   */\n  swap2\n  pop\n    /* \"#utility.yul\":1104:1186   */\ntag_73:\n    /* \"#utility.yul\":1122:1124   */\n  dup2\n    /* \"#utility.yul\":1115:1120   */\n  dup2\n    /* \"#utility.yul\":1112:1125   */\n  lt\n    /* \"#utility.yul\":1104:1186   */\n  iszero\n  tag_75\n  jumpi\n    /* \"#utility.yul\":1167:1184   */\n  dup3\n  dup2\n  sstore\n    /* \"#utility.yul\":1148:1149   */\n  0x01\n    /* \"#utility.yul\":1137:1150   */\n  add\n    /* \"#utility.yul\":1104:1186   */\n  jump(tag_73)\ntag_75:\n    /* \"#utility.yul\":1108:1111   */\n  pop\n  pop\n  pop\n    /* \"#utility.yul\":657:1202   */\n  pop\n  pop\n  pop\n  jump\t// out\n    /* \"#utility.yul\":1378:2730   */\ntag_8:\n    /* \"#utility.yul\":1498:1508   */\n  dup2\n  mload\n  sub(shl(0x40, 0x01), 0x01)\n    /* \"#utility.yul\":1520:1550   */\n  dup2\n  gt\n    /* \"#utility.yul\":1517:1573   */\n  iszero\n  tag_79\n  jumpi\n    /* \"#utility.yul\":1553:1571   */\n  tag_79\n  tag_56\n  jump\t// in\ntag_79:\n    /* \"#utility.yul\":1582:1679   */\n  tag_80\n    /* \"#utility.yul\":1672:1678   */\n  dup2\n    /* \"#utility.yul\":1632:1670   */\n  tag_81\n    /* \"#utility.yul\":1664:1668   */\n  dup5\n    /* \"#utility.yul\":1658:1669   */\n  sload\n    /* \"#utility.yul\":1632:1670   */\n  tag_57\n  jump\t// in\ntag_81:\n    /* \"#utility.yul\":1626:1630   */\n  dup5\n    /* \"#utility.yul\":1582:1679   */\n  tag_59\n  jump\t// in\ntag_80:\n    /* \"#utility.yul\":1734:1738   */\n  0x20\n  dup1\n    /* \"#utility.yul\":1798:1800   */\n  0x1f\n    /* \"#utility.yul\":1787:1801   */\n  dup4\n  gt\n    /* \"#utility.yul\":1815:1816   */\n  0x01\n    /* \"#utility.yul\":1810:2473   */\n  dup2\n  eq\n  tag_83\n  jumpi\n    /* \"#utility.yul\":2517:2518   */\n  0x00\n    /* \"#utility.yul\":2534:2540   */\n  dup5\n    /* \"#utility.yul\":2531:2620   */\n  iszero\n  tag_84\n  jumpi\n  pop\n    /* \"#utility.yul\":2586:2605   */\n  dup6\n  dup4\n  add\n    /* \"#utility.yul\":2580:2606   */\n  mload\n    /* \"#utility.yul\":2531:2620   */\ntag_84:\n  not(0x00)\n    /* \"#utility.yul\":1335:1336   */\n  0x03\n    /* \"#utility.yul\":1331:1342   */\n  dup7\n  swap1\n  shl\n    /* \"#utility.yul\":1327:1351   */\n  shr\n    /* \"#utility.yul\":1323:1352   */\n  not\n    /* \"#utility.yul\":1313:1353   */\n  and\n    /* \"#utility.yul\":1359:1360   */\n  0x01\n    /* \"#utility.yul\":1355:1366   */\n  dup6\n  swap1\n  shl\n    /* \"#utility.yul\":1310:1367   */\n  or\n    /* \"#utility.yul\":2633:2714   */\n  dup6\n  sstore\n    /* \"#utility.yul\":1780:2724   */\n  jump(tag_75)\n    /* \"#utility.yul\":1810:2473   */\ntag_83:\n    /* \"#utility.yul\":604:605   */\n  0x00\n    /* \"#utility.yul\":597:611   */\n  dup6\n  dup2\n  mstore\n    /* \"#utility.yul\":641:645   */\n  0x20\n    /* \"#utility.yul\":628:646   */\n  dup2\n  keccak256\n  not(0x1f)\n    /* \"#utility.yul\":1846:1866   */\n  dup7\n  and\n  swap2\n    /* \"#utility.yul\":1964:2200   */\ntag_87:\n    /* \"#utility.yul\":1978:1985   */\n  dup3\n    /* \"#utility.yul\":1975:1976   */\n  dup2\n    /* \"#utility.yul\":1972:1986   */\n  lt\n    /* \"#utility.yul\":1964:2200   */\n  iszero\n  tag_89\n  jumpi\n    /* \"#utility.yul\":2067:2086   */\n  dup9\n  dup7\n  add\n    /* \"#utility.yul\":2061:2087   */\n  mload\n    /* \"#utility.yul\":2046:2088   */\n  dup3\n  sstore\n    /* \"#utility.yul\":2159:2186   */\n  swap5\n  dup5\n  add\n  swap5\n    /* \"#utility.yul\":2127:2128   */\n  0x01\n    /* \"#utility.yul\":2115:2129   */\n  swap1\n  swap2\n  add\n  swap1\n    /* \"#utility.yul\":1994:2013   */\n  dup5\n  add\n    /* \"#utility.yul\":1964:2200   */\n  jump(tag_87)\ntag_89:\n    /* \"#utility.yul\":1968:1971   */\n  pop\n    /* \"#utility.yul\":2228:2234   */\n  dup6\n    /* \"#utility.yul\":2219:2226   */\n  dup3\n    /* \"#utility.yul\":2216:2235   */\n  lt\n    /* \"#utility.yul\":2213:2414   */\n  iszero\n  tag_90\n  jumpi\n    /* \"#utility.yul\":2289:2308   */\n  dup8\n  dup6\n  add\n    /* \"#utility.yul\":2283:2309   */\n  mload\n  not(0x00)\n    /* \"#utility.yul\":2372:2373   */\n  0x03\n    /* \"#utility.yul\":2368:2382   */\n  dup9\n  swap1\n  shl\n    /* \"#utility.yul\":2384:2387   */\n  0xf8\n    /* \"#utility.yul\":2364:2388   */\n  and\n    /* \"#utility.yul\":2360:2397   */\n  shr\n    /* \"#utility.yul\":2356:2398   */\n  not\n    /* \"#utility.yul\":2341:2399   */\n  and\n    /* \"#utility.yul\":2326:2400   */\n  dup2\n  sstore\n    /* \"#utility.yul\":2213:2414   */\ntag_90:\n  pop\n  pop\n  pop\n  pop\n  pop\n    /* \"#utility.yul\":2460:2461   */\n  0x01\n    /* \"#utility.yul\":2444:2458   */\n  swap1\n  dup2\n  shl\n    /* \"#utility.yul\":2440:2462   */\n  add\n    /* \"#utility.yul\":2427:2463   */\n  swap1\n  sstore\n  pop\n    /* \"#utility.yul\":1378:2730   */\n  jump\t// out\n    /* \"#utility.yul\":2735:2862   */\ntag_61:\n    /* \"#utility.yul\":2796:2806   */\n  0x4e487b71\n    /* \"#utility.yul\":2791:2794   */\n  0xe0\n    /* \"#utility.yul\":2787:2807   */\n  shl\n    /* \"#utility.yul\":2784:2785   */\n  0x00\n    /* \"#utility.yul\":2777:2808   */\n  mstore\n    /* \"#utility.yul\":2827:2831   */\n  0x11\n    /* \"#utility.yul\":2824:2825   */\n  0x04\n    /* \"#utility.yul\":2817:2832   */\n  mstore\n    /* \"#utility.yul\":2851:2855   */\n  0x24\n    /* \"#utility.yul\":2848:2849   */\n  0x00\n    /* \"#utility.yul\":2841:2856   */\n  revert\n    /* \"#utility.yul\":2867:3289   */\ntag_62:\n    /* \"#utility.yul\":2956:2957   */\n  0x01\n    /* \"#utility.yul\":2999:3004   */\n  dup2\n    /* \"#utility.yul\":2956:2957   */\n  dup2\n    /* \"#utility.yul\":3013:3283   */\ntag_93:\n    /* \"#utility.yul\":3034:3041   */\n  dup1\n    /* \"#utility.yul\":3024:3032   */\n  dup6\n    /* \"#utility.yul\":3021:3042   */\n  gt\n    /* \"#utility.yul\":3013:3283   */\n  iszero\n  tag_95\n  jumpi\n    /* \"#utility.yul\":3093:3097   */\n  dup2\n    /* \"#utility.yul\":3089:3090   */\n  0x00\n    /* \"#utility.yul\":3085:3091   */\n  not\n    /* \"#utility.yul\":3081:3098   */\n  div\n    /* \"#utility.yul\":3075:3079   */\n  dup3\n    /* \"#utility.yul\":3072:3099   */\n  gt\n    /* \"#utility.yul\":3069:3122   */\n  iszero\n  tag_97\n  jumpi\n    /* \"#utility.yul\":3102:3120   */\n  tag_97\n  tag_61\n  jump\t// in\ntag_97:\n    /* \"#utility.yul\":3152:3159   */\n  dup1\n    /* \"#utility.yul\":3142:3150   */\n  dup6\n    /* \"#utility.yul\":3138:3160   */\n  and\n    /* \"#utility.yul\":3135:3190   */\n  iszero\n  tag_98\n  jumpi\n    /* \"#utility.yul\":3172:3188   */\n  swap2\n  dup2\n  mul\n  swap2\n    /* \"#utility.yul\":3135:3190   */\ntag_98:\n    /* \"#utility.yul\":3251:3273   */\n  swap4\n  dup5\n  shr\n  swap4\n    /* \"#utility.yul\":3211:3226   */\n  swap1\n  dup1\n  mul\n  swap1\n    /* \"#utility.yul\":3013:3283   */\n  jump(tag_93)\ntag_95:\n    /* \"#utility.yul\":3017:3020   */\n  pop\n    /* \"#utility.yul\":2867:3289   */\n  swap3\n  pop\n  swap3\n  swap1\n  pop\n  jump\t// out\n    /* \"#utility.yul\":3294:4100   */\ntag_63:\n    /* \"#utility.yul\":3343:3348   */\n  0x00\n    /* \"#utility.yul\":3373:3381   */\n  dup3\n    /* \"#utility.yul\":3363:3443   */\n  tag_100\n  jumpi\n  pop\n    /* \"#utility.yul\":3414:3415   */\n  0x01\n    /* \"#utility.yul\":3428:3433   */\n  jump(tag_99)\n    /* \"#utility.yul\":3363:3443   */\ntag_100:\n    /* \"#utility.yul\":3462:3466   */\n  dup2\n    /* \"#utility.yul\":3452:3528   */\n  tag_101\n  jumpi\n  pop\n    /* \"#utility.yul\":3499:3500   */\n  0x00\n    /* \"#utility.yul\":3513:3518   */\n  jump(tag_99)\n    /* \"#utility.yul\":3452:3528   */\ntag_101:\n    /* \"#utility.yul\":3544:3548   */\n  dup2\n    /* \"#utility.yul\":3562:3563   */\n  0x01\n    /* \"#utility.yul\":3557:3616   */\n  dup2\n  eq\n  tag_103\n  jumpi\n    /* \"#utility.yul\":3630:3631   */\n  0x02\n    /* \"#utility.yul\":3625:3755   */\n  dup2\n  eq\n  tag_104\n  jumpi\n    /* \"#utility.yul\":3537:3755   */\n  jump(tag_102)\n    /* \"#utility.yul\":3557:3616   */\ntag_103:\n    /* \"#utility.yul\":3587:3588   */\n  0x01\n    /* \"#utility.yul\":3578:3588   */\n  swap2\n  pop\n    /* \"#utility.yul\":3601:3606   */\n  pop\n  jump(tag_99)\n    /* \"#utility.yul\":3625:3755   */\ntag_104:\n    /* \"#utility.yul\":3662:3665   */\n  0xff\n    /* \"#utility.yul\":3652:3660   */\n  dup5\n    /* \"#utility.yul\":3649:3666   */\n  gt\n    /* \"#utility.yul\":3646:3689   */\n  iszero\n  tag_106\n  jumpi\n    /* \"#utility.yul\":3669:3687   */\n  tag_106\n  tag_61\n  jump\t// in\ntag_106:\n  pop\n  pop\n    /* \"#utility.yul\":3725:3726   */\n  0x01\n    /* \"#utility.yul\":3711:3727   */\n  dup3\n  shl\n    /* \"#utility.yul\":3740:3745   */\n  jump(tag_99)\n    /* \"#utility.yul\":3537:3755   */\ntag_102:\n  pop\n    /* \"#utility.yul\":3839:3841   */\n  0x20\n    /* \"#utility.yul\":3829:3837   */\n  dup4\n    /* \"#utility.yul\":3826:3842   */\n  lt\n    /* \"#utility.yul\":3820:3823   */\n  0x0133\n    /* \"#utility.yul\":3814:3818   */\n  dup4\n    /* \"#utility.yul\":3811:3824   */\n  lt\n    /* \"#utility.yul\":3807:3843   */\n  and\n    /* \"#utility.yul\":3801:3803   */\n  0x4e\n    /* \"#utility.yul\":3791:3799   */\n  dup5\n    /* \"#utility.yul\":3788:3804   */\n  lt\n    /* \"#utility.yul\":3783:3785   */\n  0x0b\n    /* \"#utility.yul\":3777:3781   */\n  dup5\n    /* \"#utility.yul\":3774:3786   */\n  lt\n    /* \"#utility.yul\":3770:3805   */\n  and\n    /* \"#utility.yul\":3767:3844   */\n  or\n    /* \"#utility.yul\":3764:3923   */\n  iszero\n  tag_107\n  jumpi\n  pop\n    /* \"#utility.yul\":3876:3895   */\n  dup2\n  dup2\n  exp\n    /* \"#utility.yul\":3908:3913   */\n  jump(tag_99)\n    /* \"#utility.yul\":3764:3923   */\ntag_107:\n    /* \"#utility.yul\":3955:3989   */\n  tag_108\n    /* \"#utility.yul\":3980:3988   */\n  dup4\n    /* \"#utility.yul\":3974:3978   */\n  dup4\n    /* \"#utility.yul\":3955:3989   */\n  tag_62\n  jump\t// in\ntag_108:\n    /* \"#utility.yul\":4025:4031   */\n  dup1\n    /* \"#utility.yul\":4021:4022   */\n  0x00\n    /* \"#utility.yul\":4017:4023   */\n  not\n    /* \"#utility.yul\":4013:4032   */\n  div\n    /* \"#utility.yul\":4004:4011   */\n  dup3\n    /* \"#utility.yul\":4001:4033   */\n  gt\n    /* \"#utility.yul\":3998:4056   */\n  iszero\n  tag_110\n  jumpi\n    /* \"#utility.yul\":4036:4054   */\n  tag_110\n  tag_61\n  jump\t// in\ntag_110:\n    /* \"#utility.yul\":4074:4094   */\n  mul\n  swap1\n  pop\n    /* \"#utility.yul\":3294:4100   */\ntag_99:\n  swap3\n  swap2\n  pop\n  pop\n  jump\t// out\n    /* \"#utility.yul\":4105:4245   */\ntag_21:\n    /* \"#utility.yul\":4163:4168   */\n  0x00\n    /* \"#utility.yul\":4192:4239   */\n  tag_112\n    /* \"#utility.yul\":4233:4237   */\n  0xff\n    /* \"#utility.yul\":4223:4231   */\n  dup5\n    /* \"#utility.yul\":4219:4238   */\n  and\n    /* \"#utility.yul\":4213:4217   */\n  dup4\n    /* \"#utility.yul\":4192:4239   */\n  tag_63\n  jump\t// in\ntag_112:\n    /* \"#utility.yul\":4183:4239   */\n  swap4\n    /* \"#utility.yul\":4105:4245   */\n  swap3\n  pop\n  pop\n  pop\n  jump\t// out\n    /* \"#utility.yul\":4250:4418   */\ntag_23:\n    /* \"#utility.yul\":4323:4332   */\n  dup1\n  dup3\n  mul\n    /* \"#utility.yul\":4354:4363   */\n  dup2\n  iszero\n    /* \"#utility.yul\":4371:4386   */\n  dup3\n  dup3\n  div\n    /* \"#utility.yul\":4365:4387   */\n  dup5\n  eq\n    /* \"#utility.yul\":4351:4388   */\n  or\n    /* \"#utility.yul\":4341:4412   */\n  tag_99\n  jumpi\n    /* \"#utility.yul\":4392:4410   */\n  tag_99\n  tag_61\n  jump\t// in\n    /* \"#utility.yul\":4783:4908   */\ntag_36:\n    /* \"#utility.yul\":4848:4857   */\n  dup1\n  dup3\n  add\n    /* \"#utility.yul\":4869:4879   */\n  dup1\n  dup3\n  gt\n    /* \"#utility.yul\":4866:4902   */\n  iszero\n  tag_99\n  jumpi\n    /* \"#utility.yul\":4882:4900   */\n  tag_99\n  tag_61\n  jump\t// in\n    /* \"#utility.yul\":5095:5435   */\ntag_64:\n    /* \"DEX.sol_flattened.sol\":23642:24235  contract MEME is ERC20, ERC20Burnable, Pausable, Ownable {... */\n  dataSize(sub_0)\n  dup1\n  dataOffset(sub_0)\n  0x00\n  codecopy\n  0x00\n  return\nstop\n\nsub_0: assembly {\n        /* \"DEX.sol_flattened.sol\":23642:24235  contract MEME is ERC20, ERC20Burnable, Pausable, Ownable {... */\n      mstore(0x40, 0x80)\n      callvalue\n      dup1\n      iszero\n      tag_1\n      jumpi\n      0x00\n      dup1\n      revert\n    tag_1:\n      pop\n      jumpi(tag_2, lt(calldatasize, 0x04))\n      shr(0xe0, calldataload(0x00))\n      dup1\n      0x70a08231\n      gt\n      tag_23\n      jumpi\n      dup1\n      0x95d89b41\n      gt\n      tag_24\n      jumpi\n      dup1\n      0x95d89b41\n      eq\n      tag_18\n      jumpi\n      dup1\n      0xa457c2d7\n      eq\n      tag_19\n      jumpi\n      dup1\n      0xa9059cbb\n      eq\n      tag_20\n      jumpi\n      dup1\n      0xdd62ed3e\n      eq\n      tag_21\n      jumpi\n      dup1\n      0xf2fde38b\n      eq\n      tag_22\n      jumpi\n      0x00\n      dup1\n      revert\n    tag_24:\n      dup1\n      0x70a08231\n      eq\n      tag_13\n      jumpi\n      dup1\n      0x715018a6\n      eq\n      tag_14\n      jumpi\n      dup1\n      0x79cc6790\n      eq\n      tag_15\n      jumpi\n      dup1\n      0x8456cb59\n      eq\n      tag_16\n      jumpi\n      dup1\n      0x8da5cb5b\n      eq\n      tag_17\n      jumpi\n      0x00\n      dup1\n      revert\n    tag_23:\n      dup1\n      0x39509351\n      gt\n      tag_25\n      jumpi\n      dup1\n      0x39509351\n      eq\n      tag_8\n      jumpi\n      dup1\n      0x3f4ba83a\n      eq\n      tag_9\n      jumpi\n      dup1\n      0x40c10f19\n      eq\n      tag_10\n      jumpi\n      dup1\n      0x42966c68\n      eq\n      tag_11\n      jumpi\n      dup1\n      0x5c975abb\n      eq\n      tag_12\n      jumpi\n      0x00\n      dup1\n      revert\n    tag_25:\n      dup1\n      0x06fdde03\n      eq\n      tag_3\n      jumpi\n      dup1\n      0x095ea7b3\n      eq\n      tag_4\n      jumpi\n      dup1\n      0x18160ddd\n      eq\n      tag_5\n      jumpi\n      dup1\n      0x23b872dd\n      eq\n      tag_6\n      jumpi\n      dup1\n      0x313ce567\n      eq\n      tag_7\n      jumpi\n    tag_2:\n      0x00\n      dup1\n      revert\n        /* \"DEX.sol_flattened.sol\":6448:6546  function name() public view virtual override returns (string memory) {... */\n    tag_3:\n      tag_26\n      tag_27\n      jump\t// in\n    tag_26:\n      mload(0x40)\n      tag_28\n      swap2\n      swap1\n      tag_29\n      jump\t// in\n    tag_28:\n      mload(0x40)\n      dup1\n      swap2\n      sub\n      swap1\n      return\n        /* \"DEX.sol_flattened.sol\":8725:8922  function approve(address spender, uint256 amount) public virtual override returns (bool) {... */\n    tag_4:\n      tag_30\n      tag_31\n      calldatasize\n      0x04\n      tag_32\n      jump\t// in\n    tag_31:\n      tag_33\n      jump\t// in\n    tag_30:\n      mload(0x40)\n        /* \"#utility.yul\":1169:1183   */\n      swap1\n      iszero\n        /* \"#utility.yul\":1162:1184   */\n      iszero\n        /* \"#utility.yul\":1144:1185   */\n      dup2\n      mstore\n        /* \"#utility.yul\":1132:1134   */\n      0x20\n        /* \"#utility.yul\":1117:1135   */\n      add\n        /* \"DEX.sol_flattened.sol\":8725:8922  function approve(address spender, uint256 amount) public virtual override returns (bool) {... */\n      tag_28\n        /* \"#utility.yul\":1004:1191   */\n      jump\n        /* \"DEX.sol_flattened.sol\":7536:7642  function totalSupply() public view virtual override returns (uint256) {... */\n    tag_5:\n        /* \"DEX.sol_flattened.sol\":7623:7635  _totalSupply */\n      sload(0x02)\n        /* \"DEX.sol_flattened.sol\":7536:7642  function totalSupply() public view virtual override returns (uint256) {... */\n    tag_36:\n      mload(0x40)\n        /* \"#utility.yul\":1342:1367   */\n      swap1\n      dup2\n      mstore\n        /* \"#utility.yul\":1330:1332   */\n      0x20\n        /* \"#utility.yul\":1315:1333   */\n      add\n        /* \"DEX.sol_flattened.sol\":7536:7642  function totalSupply() public view virtual override returns (uint256) {... */\n      tag_28\n        /* \"#utility.yul\":1196:1373   */\n      jump\n        /* \"DEX.sol_flattened.sol\":9484:9770  function transferFrom(... */\n    tag_6:\n      tag_30\n      tag_41\n      calldatasize\n      0x04\n      tag_42\n      jump\t// in\n    tag_41:\n      tag_43\n      jump\t// in\n        /* \"DEX.sol_flattened.sol\":7385:7476  function decimals() public view virtual override returns (uint8) {... */\n    tag_7:\n      mload(0x40)\n        /* \"DEX.sol_flattened.sol\":7467:7469  18 */\n      0x12\n        /* \"#utility.yul\":1853:1889   */\n      dup2\n      mstore\n        /* \"#utility.yul\":1841:1843   */\n      0x20\n        /* \"#utility.yul\":1826:1844   */\n      add\n        /* \"DEX.sol_flattened.sol\":7385:7476  function decimals() public view virtual override returns (uint8) {... */\n      tag_28\n        /* \"#utility.yul\":1711:1895   */\n      jump\n        /* \"DEX.sol_flattened.sol\":10165:10399  function increaseAllowance(address spender, uint256 addedValue) public virtual returns (bool) {... */\n    tag_8:\n      tag_30\n      tag_50\n      calldatasize\n      0x04\n      tag_32\n      jump\t// in\n    tag_50:\n      tag_51\n      jump\t// in\n        /* \"DEX.sol_flattened.sol\":23872:23935  function unpause() public onlyOwner {... */\n    tag_9:\n      tag_53\n      tag_54\n      jump\t// in\n    tag_53:\n      stop\n        /* \"DEX.sol_flattened.sol\":23941:24034  function mint(address to, uint256 amount) public onlyOwner {... */\n    tag_10:\n      tag_53\n      tag_56\n      calldatasize\n      0x04\n      tag_32\n      jump\t// in\n    tag_56:\n      tag_57\n      jump\t// in\n        /* \"DEX.sol_flattened.sol\":17870:17959  function burn(uint256 amount) public virtual {... */\n    tag_11:\n      tag_53\n      tag_59\n      calldatasize\n      0x04\n      tag_60\n      jump\t// in\n    tag_59:\n      tag_61\n      jump\t// in\n        /* \"DEX.sol_flattened.sol\":22654:22738  function paused() public view virtual returns (bool) {... */\n    tag_12:\n        /* \"DEX.sol_flattened.sol\":22724:22731  _paused */\n      and(0xff, sload(0x05))\n        /* \"DEX.sol_flattened.sol\":22654:22738  function paused() public view virtual returns (bool) {... */\n      jump(tag_30)\n        /* \"DEX.sol_flattened.sol\":7700:7825  function balanceOf(address account) public view virtual override returns (uint256) {... */\n    tag_13:\n      tag_36\n      tag_66\n      calldatasize\n      0x04\n      tag_67\n      jump\t// in\n    tag_66:\n      sub(shl(0xa0, 0x01), 0x01)\n        /* \"DEX.sol_flattened.sol\":7800:7818  _balances[account] */\n      and\n        /* \"DEX.sol_flattened.sol\":7774:7781  uint256 */\n      0x00\n        /* \"DEX.sol_flattened.sol\":7800:7818  _balances[account] */\n      swap1\n      dup2\n      mstore\n      0x20\n      dup2\n      swap1\n      mstore\n      0x40\n      swap1\n      keccak256\n      sload\n      swap1\n        /* \"DEX.sol_flattened.sol\":7700:7825  function balanceOf(address account) public view virtual override returns (uint256) {... */\n      jump\n        /* \"DEX.sol_flattened.sol\":20252:20353  function renounceOwnership() public virtual onlyOwner {... */\n    tag_14:\n      tag_53\n      tag_71\n      jump\t// in\n        /* \"DEX.sol_flattened.sol\":18265:18426  function burnFrom(address account, uint256 amount) public virtual {... */\n    tag_15:\n      tag_53\n      tag_73\n      calldatasize\n      0x04\n      tag_32\n      jump\t// in\n    tag_73:\n      tag_74\n      jump\t// in\n        /* \"DEX.sol_flattened.sol\":23807:23866  function pause() public onlyOwner {... */\n    tag_16:\n      tag_53\n      tag_76\n      jump\t// in\n        /* \"DEX.sol_flattened.sol\":19622:19707  function owner() public view virtual returns (address) {... */\n    tag_17:\n        /* \"DEX.sol_flattened.sol\":19694:19700  _owner */\n      sload(0x05)\n      0x0100\n      swap1\n      div\n      sub(shl(0xa0, 0x01), 0x01)\n      and\n        /* \"DEX.sol_flattened.sol\":19622:19707  function owner() public view virtual returns (address) {... */\n      mload(0x40)\n      sub(shl(0xa0, 0x01), 0x01)\n        /* \"#utility.yul\":2440:2472   */\n      swap1\n      swap2\n      and\n        /* \"#utility.yul\":2422:2473   */\n      dup2\n      mstore\n        /* \"#utility.yul\":2410:2412   */\n      0x20\n        /* \"#utility.yul\":2395:2413   */\n      add\n        /* \"DEX.sol_flattened.sol\":19622:19707  function owner() public view virtual returns (address) {... */\n      tag_28\n        /* \"#utility.yul\":2276:2479   */\n      jump\n        /* \"DEX.sol_flattened.sol\":6659:6761  function symbol() public view virtual override returns (string memory) {... */\n    tag_18:\n      tag_26\n      tag_82\n      jump\t// in\n        /* \"DEX.sol_flattened.sol\":10886:11313  function decreaseAllowance(address spender, uint256 subtractedValue) public virtual returns (bool) {... */\n    tag_19:\n      tag_30\n      tag_85\n      calldatasize\n      0x04\n      tag_32\n      jump\t// in\n    tag_85:\n      tag_86\n      jump\t// in\n        /* \"DEX.sol_flattened.sol\":8021:8210  function transfer(address to, uint256 amount) public virtual override returns (bool) {... */\n    tag_20:\n      tag_30\n      tag_89\n      calldatasize\n      0x04\n      tag_32\n      jump\t// in\n    tag_89:\n      tag_90\n      jump\t// in\n        /* \"DEX.sol_flattened.sol\":8268:8417  function allowance(address owner, address spender) public view virtual override returns (uint256) {... */\n    tag_21:\n      tag_36\n      tag_93\n      calldatasize\n      0x04\n      tag_94\n      jump\t// in\n    tag_93:\n      tag_95\n      jump\t// in\n        /* \"DEX.sol_flattened.sol\":20502:20700  function transferOwnership(address newOwner) public virtual onlyOwner {... */\n    tag_22:\n      tag_53\n      tag_98\n      calldatasize\n      0x04\n      tag_67\n      jump\t// in\n    tag_98:\n      tag_99\n      jump\t// in\n        /* \"DEX.sol_flattened.sol\":6448:6546  function name() public view virtual override returns (string memory) {... */\n    tag_27:\n        /* \"DEX.sol_flattened.sol\":6502:6515  string memory */\n      0x60\n        /* \"DEX.sol_flattened.sol\":6534:6539  _name */\n      0x03\n        /* \"DEX.sol_flattened.sol\":6527:6539  return _name */\n      dup1\n      sload\n      tag_101\n      swap1\n      tag_102\n      jump\t// in\n    tag_101:\n      dup1\n      0x1f\n      add\n      0x20\n      dup1\n      swap2\n      div\n      mul\n      0x20\n      add\n      mload(0x40)\n      swap1\n      dup2\n      add\n      0x40\n      mstore\n      dup1\n      swap3\n      swap2\n      swap1\n      dup2\n      dup2\n      mstore\n      0x20\n      add\n      dup3\n      dup1\n      sload\n      tag_103\n      swap1\n      tag_102\n      jump\t// in\n    tag_103:\n      dup1\n      iszero\n      tag_104\n      jumpi\n      dup1\n      0x1f\n      lt\n      tag_105\n      jumpi\n      0x0100\n      dup1\n      dup4\n      sload\n      div\n      mul\n      dup4\n      mstore\n      swap2\n      0x20\n      add\n      swap2\n      jump(tag_104)\n    tag_105:\n      dup3\n      add\n      swap2\n      swap1\n      0x00\n      mstore\n      keccak256(0x00, 0x20)\n      swap1\n    tag_106:\n      dup2\n      sload\n      dup2\n      mstore\n      swap1\n      0x01\n      add\n      swap1\n      0x20\n      add\n      dup1\n      dup4\n      gt\n      tag_106\n      jumpi\n      dup3\n      swap1\n      sub\n      0x1f\n      and\n      dup3\n      add\n      swap2\n    tag_104:\n      pop\n      pop\n      pop\n      pop\n      pop\n      swap1\n      pop\n        /* \"DEX.sol_flattened.sol\":6448:6546  function name() public view virtual override returns (string memory) {... */\n      swap1\n      jump\t// out\n        /* \"DEX.sol_flattened.sol\":8725:8922  function approve(address spender, uint256 amount) public virtual override returns (bool) {... */\n    tag_33:\n        /* \"DEX.sol_flattened.sol\":8808:8812  bool */\n      0x00\n        /* \"DEX.sol_flattened.sol\":4240:4250  msg.sender */\n      caller\n        /* \"DEX.sol_flattened.sol\":8862:8894  _approve(owner, spender, amount) */\n      tag_110\n        /* \"DEX.sol_flattened.sol\":4240:4250  msg.sender */\n      dup2\n        /* \"DEX.sol_flattened.sol\":8878:8885  spender */\n      dup6\n        /* \"DEX.sol_flattened.sol\":8887:8893  amount */\n      dup6\n        /* \"DEX.sol_flattened.sol\":8862:8870  _approve */\n      tag_111\n        /* \"DEX.sol_flattened.sol\":8862:8894  _approve(owner, spender, amount) */\n      jump\t// in\n    tag_110:\n        /* \"DEX.sol_flattened.sol\":8911:8915  true */\n      0x01\n        /* \"DEX.sol_flattened.sol\":8904:8915  return true */\n      swap2\n      pop\n      pop\n        /* \"DEX.sol_flattened.sol\":8725:8922  function approve(address spender, uint256 amount) public virtual override returns (bool) {... */\n    tag_107:\n      swap3\n      swap2\n      pop\n      pop\n      jump\t// out\n        /* \"DEX.sol_flattened.sol\":9484:9770  function transferFrom(... */\n    tag_43:\n        /* \"DEX.sol_flattened.sol\":9611:9615  bool */\n      0x00\n        /* \"DEX.sol_flattened.sol\":4240:4250  msg.sender */\n      caller\n        /* \"DEX.sol_flattened.sol\":9667:9705  _spendAllowance(from, spender, amount) */\n      tag_115\n        /* \"DEX.sol_flattened.sol\":9683:9687  from */\n      dup6\n        /* \"DEX.sol_flattened.sol\":4240:4250  msg.sender */\n      dup3\n        /* \"DEX.sol_flattened.sol\":9698:9704  amount */\n      dup6\n        /* \"DEX.sol_flattened.sol\":9667:9682  _spendAllowance */\n      tag_116\n        /* \"DEX.sol_flattened.sol\":9667:9705  _spendAllowance(from, spender, amount) */\n      jump\t// in\n    tag_115:\n        /* \"DEX.sol_flattened.sol\":9715:9742  _transfer(from, to, amount) */\n      tag_117\n        /* \"DEX.sol_flattened.sol\":9725:9729  from */\n      dup6\n        /* \"DEX.sol_flattened.sol\":9731:9733  to */\n      dup6\n        /* \"DEX.sol_flattened.sol\":9735:9741  amount */\n      dup6\n        /* \"DEX.sol_flattened.sol\":9715:9724  _transfer */\n      tag_118\n        /* \"DEX.sol_flattened.sol\":9715:9742  _transfer(from, to, amount) */\n      jump\t// in\n    tag_117:\n      pop\n        /* \"DEX.sol_flattened.sol\":9759:9763  true */\n      0x01\n      swap5\n        /* \"DEX.sol_flattened.sol\":9484:9770  function transferFrom(... */\n      swap4\n      pop\n      pop\n      pop\n      pop\n      jump\t// out\n        /* \"DEX.sol_flattened.sol\":10165:10399  function increaseAllowance(address spender, uint256 addedValue) public virtual returns (bool) {... */\n    tag_51:\n        /* \"DEX.sol_flattened.sol\":10253:10257  bool */\n      0x00\n        /* \"DEX.sol_flattened.sol\":4240:4250  msg.sender */\n      caller\n        /* \"DEX.sol_flattened.sol\":10307:10371  _approve(owner, spender, allowance(owner, spender) + addedValue) */\n      tag_110\n        /* \"DEX.sol_flattened.sol\":4240:4250  msg.sender */\n      dup2\n        /* \"DEX.sol_flattened.sol\":10323:10330  spender */\n      dup6\n        /* \"DEX.sol_flattened.sol\":10360:10370  addedValue */\n      dup6\n        /* \"DEX.sol_flattened.sol\":10332:10357  allowance(owner, spender) */\n      tag_123\n        /* \"DEX.sol_flattened.sol\":4240:4250  msg.sender */\n      dup4\n        /* \"DEX.sol_flattened.sol\":10323:10330  spender */\n      dup4\n        /* \"DEX.sol_flattened.sol\":10332:10341  allowance */\n      tag_95\n        /* \"DEX.sol_flattened.sol\":10332:10357  allowance(owner, spender) */\n      jump\t// in\n    tag_123:\n        /* \"DEX.sol_flattened.sol\":10332:10370  allowance(owner, spender) + addedValue */\n      tag_124\n      swap2\n      swap1\n      tag_125\n      jump\t// in\n    tag_124:\n        /* \"DEX.sol_flattened.sol\":10307:10315  _approve */\n      tag_111\n        /* \"DEX.sol_flattened.sol\":10307:10371  _approve(owner, spender, allowance(owner, spender) + addedValue) */\n      jump\t// in\n        /* \"DEX.sol_flattened.sol\":23872:23935  function unpause() public onlyOwner {... */\n    tag_54:\n        /* \"DEX.sol_flattened.sol\":19515:19528  _checkOwner() */\n      tag_127\n        /* \"DEX.sol_flattened.sol\":19515:19526  _checkOwner */\n      tag_128\n        /* \"DEX.sol_flattened.sol\":19515:19528  _checkOwner() */\n      jump\t// in\n    tag_127:\n        /* \"DEX.sol_flattened.sol\":23918:23928  _unpause() */\n      tag_130\n        /* \"DEX.sol_flattened.sol\":23918:23926  _unpause */\n      tag_131\n        /* \"DEX.sol_flattened.sol\":23918:23928  _unpause() */\n      jump\t// in\n    tag_130:\n        /* \"DEX.sol_flattened.sol\":23872:23935  function unpause() public onlyOwner {... */\n      jump\t// out\n        /* \"DEX.sol_flattened.sol\":23941:24034  function mint(address to, uint256 amount) public onlyOwner {... */\n    tag_57:\n        /* \"DEX.sol_flattened.sol\":19515:19528  _checkOwner() */\n      tag_133\n        /* \"DEX.sol_flattened.sol\":19515:19526  _checkOwner */\n      tag_128\n        /* \"DEX.sol_flattened.sol\":19515:19528  _checkOwner() */\n      jump\t// in\n    tag_133:\n        /* \"DEX.sol_flattened.sol\":24010:24027  _mint(to, amount) */\n      tag_135\n        /* \"DEX.sol_flattened.sol\":24016:24018  to */\n      dup3\n        /* \"DEX.sol_flattened.sol\":24020:24026  amount */\n      dup3\n        /* \"DEX.sol_flattened.sol\":24010:24015  _mint */\n      tag_136\n        /* \"DEX.sol_flattened.sol\":24010:24027  _mint(to, amount) */\n      jump\t// in\n    tag_135:\n        /* \"DEX.sol_flattened.sol\":23941:24034  function mint(address to, uint256 amount) public onlyOwner {... */\n      pop\n      pop\n      jump\t// out\n        /* \"DEX.sol_flattened.sol\":17870:17959  function burn(uint256 amount) public virtual {... */\n    tag_61:\n        /* \"DEX.sol_flattened.sol\":17925:17952  _burn(_msgSender(), amount) */\n      tag_138\n        /* \"DEX.sol_flattened.sol\":4240:4250  msg.sender */\n      caller\n        /* \"DEX.sol_flattened.sol\":17945:17951  amount */\n      dup3\n        /* \"DEX.sol_flattened.sol\":17925:17930  _burn */\n      tag_140\n        /* \"DEX.sol_flattened.sol\":17925:17952  _burn(_msgSender(), amount) */\n      jump\t// in\n    tag_138:\n        /* \"DEX.sol_flattened.sol\":17870:17959  function burn(uint256 amount) public virtual {... */\n      pop\n      jump\t// out\n        /* \"DEX.sol_flattened.sol\":20252:20353  function renounceOwnership() public virtual onlyOwner {... */\n    tag_71:\n        /* \"DEX.sol_flattened.sol\":19515:19528  _checkOwner() */\n      tag_144\n        /* \"DEX.sol_flattened.sol\":19515:19526  _checkOwner */\n      tag_128\n        /* \"DEX.sol_flattened.sol\":19515:19528  _checkOwner() */\n      jump\t// in\n    tag_144:\n        /* \"DEX.sol_flattened.sol\":20316:20346  _transferOwnership(address(0)) */\n      tag_130\n        /* \"DEX.sol_flattened.sol\":20343:20344  0 */\n      0x00\n        /* \"DEX.sol_flattened.sol\":20316:20334  _transferOwnership */\n      tag_147\n        /* \"DEX.sol_flattened.sol\":20316:20346  _transferOwnership(address(0)) */\n      jump\t// in\n        /* \"DEX.sol_flattened.sol\":18265:18426  function burnFrom(address account, uint256 amount) public virtual {... */\n    tag_74:\n        /* \"DEX.sol_flattened.sol\":18341:18387  _spendAllowance(account, _msgSender(), amount) */\n      tag_149\n        /* \"DEX.sol_flattened.sol\":18357:18364  account */\n      dup3\n        /* \"DEX.sol_flattened.sol\":4240:4250  msg.sender */\n      caller\n        /* \"DEX.sol_flattened.sol\":18380:18386  amount */\n      dup4\n        /* \"DEX.sol_flattened.sol\":18341:18356  _spendAllowance */\n      tag_116\n        /* \"DEX.sol_flattened.sol\":18341:18387  _spendAllowance(account, _msgSender(), amount) */\n      jump\t// in\n    tag_149:\n        /* \"DEX.sol_flattened.sol\":18397:18419  _burn(account, amount) */\n      tag_135\n        /* \"DEX.sol_flattened.sol\":18403:18410  account */\n      dup3\n        /* \"DEX.sol_flattened.sol\":18412:18418  amount */\n      dup3\n        /* \"DEX.sol_flattened.sol\":18397:18402  _burn */\n      tag_140\n        /* \"DEX.sol_flattened.sol\":18397:18419  _burn(account, amount) */\n      jump\t// in\n        /* \"DEX.sol_flattened.sol\":23807:23866  function pause() public onlyOwner {... */\n    tag_76:\n        /* \"DEX.sol_flattened.sol\":19515:19528  _checkOwner() */\n      tag_153\n        /* \"DEX.sol_flattened.sol\":19515:19526  _checkOwner */\n      tag_128\n        /* \"DEX.sol_flattened.sol\":19515:19528  _checkOwner() */\n      jump\t// in\n    tag_153:\n        /* \"DEX.sol_flattened.sol\":23851:23859  _pause() */\n      tag_130\n        /* \"DEX.sol_flattened.sol\":23851:23857  _pause */\n      tag_156\n        /* \"DEX.sol_flattened.sol\":23851:23859  _pause() */\n      jump\t// in\n        /* \"DEX.sol_flattened.sol\":6659:6761  function symbol() public view virtual override returns (string memory) {... */\n    tag_82:\n        /* \"DEX.sol_flattened.sol\":6715:6728  string memory */\n      0x60\n        /* \"DEX.sol_flattened.sol\":6747:6754  _symbol */\n      0x04\n        /* \"DEX.sol_flattened.sol\":6740:6754  return _symbol */\n      dup1\n      sload\n      tag_101\n      swap1\n      tag_102\n      jump\t// in\n        /* \"DEX.sol_flattened.sol\":10886:11313  function decreaseAllowance(address spender, uint256 subtractedValue) public virtual returns (bool) {... */\n    tag_86:\n        /* \"DEX.sol_flattened.sol\":10979:10983  bool */\n      0x00\n        /* \"DEX.sol_flattened.sol\":4240:4250  msg.sender */\n      caller\n        /* \"DEX.sol_flattened.sol\":10979:10983  bool */\n      dup2\n        /* \"DEX.sol_flattened.sol\":11060:11085  allowance(owner, spender) */\n      tag_166\n        /* \"DEX.sol_flattened.sol\":4240:4250  msg.sender */\n      dup3\n        /* \"DEX.sol_flattened.sol\":11077:11084  spender */\n      dup7\n        /* \"DEX.sol_flattened.sol\":11060:11069  allowance */\n      tag_95\n        /* \"DEX.sol_flattened.sol\":11060:11085  allowance(owner, spender) */\n      jump\t// in\n    tag_166:\n        /* \"DEX.sol_flattened.sol\":11033:11085  uint256 currentAllowance = allowance(owner, spender) */\n      swap1\n      pop\n        /* \"DEX.sol_flattened.sol\":11123:11138  subtractedValue */\n      dup4\n        /* \"DEX.sol_flattened.sol\":11103:11119  currentAllowance */\n      dup2\n        /* \"DEX.sol_flattened.sol\":11103:11138  currentAllowance >= subtractedValue */\n      lt\n      iszero\n        /* \"DEX.sol_flattened.sol\":11095:11180  require(currentAllowance >= subtractedValue, \"ERC20: decreased allowance below zero\") */\n      tag_167\n      jumpi\n      mload(0x40)\n      shl(0xe5, 0x461bcd)\n      dup2\n      mstore\n        /* \"#utility.yul\":3563:3565   */\n      0x20\n        /* \"DEX.sol_flattened.sol\":11095:11180  require(currentAllowance >= subtractedValue, \"ERC20: decreased allowance below zero\") */\n      0x04\n      dup3\n      add\n        /* \"#utility.yul\":3545:3566   */\n      mstore\n        /* \"#utility.yul\":3602:3604   */\n      0x25\n        /* \"#utility.yul\":3582:3600   */\n      0x24\n      dup3\n      add\n        /* \"#utility.yul\":3575:3605   */\n      mstore\n        /* \"#utility.yul\":3641:3675   */\n      0x45524332303a2064656372656173656420616c6c6f77616e63652062656c6f77\n        /* \"#utility.yul\":3621:3639   */\n      0x44\n      dup3\n      add\n        /* \"#utility.yul\":3614:3676   */\n      mstore\n      shl(0xd8, 0x207a65726f)\n        /* \"#utility.yul\":3692:3710   */\n      0x64\n      dup3\n      add\n        /* \"#utility.yul\":3685:3720   */\n      mstore\n        /* \"#utility.yul\":3737:3756   */\n      0x84\n      add\n        /* \"DEX.sol_flattened.sol\":11095:11180  require(currentAllowance >= subtractedValue, \"ERC20: decreased allowance below zero\") */\n    tag_168:\n      mload(0x40)\n      dup1\n      swap2\n      sub\n      swap1\n      revert\n    tag_167:\n        /* \"DEX.sol_flattened.sol\":11214:11274  _approve(owner, spender, currentAllowance - subtractedValue) */\n      tag_117\n        /* \"DEX.sol_flattened.sol\":11223:11228  owner */\n      dup3\n        /* \"DEX.sol_flattened.sol\":11230:11237  spender */\n      dup7\n        /* \"DEX.sol_flattened.sol\":11258:11273  subtractedValue */\n      dup7\n        /* \"DEX.sol_flattened.sol\":11239:11255  currentAllowance */\n      dup5\n        /* \"DEX.sol_flattened.sol\":11239:11273  currentAllowance - subtractedValue */\n      sub\n        /* \"DEX.sol_flattened.sol\":11214:11222  _approve */\n      tag_111\n        /* \"DEX.sol_flattened.sol\":11214:11274  _approve(owner, spender, currentAllowance - subtractedValue) */\n      jump\t// in\n        /* \"DEX.sol_flattened.sol\":8021:8210  function transfer(address to, uint256 amount) public virtual override returns (bool) {... */\n    tag_90:\n        /* \"DEX.sol_flattened.sol\":8100:8104  bool */\n      0x00\n        /* \"DEX.sol_flattened.sol\":4240:4250  msg.sender */\n      caller\n        /* \"DEX.sol_flattened.sol\":8154:8182  _transfer(owner, to, amount) */\n      tag_110\n        /* \"DEX.sol_flattened.sol\":4240:4250  msg.sender */\n      dup2\n        /* \"DEX.sol_flattened.sol\":8171:8173  to */\n      dup6\n        /* \"DEX.sol_flattened.sol\":8175:8181  amount */\n      dup6\n        /* \"DEX.sol_flattened.sol\":8154:8163  _transfer */\n      tag_118\n        /* \"DEX.sol_flattened.sol\":8154:8182  _transfer(owner, to, amount) */\n      jump\t// in\n        /* \"DEX.sol_flattened.sol\":8268:8417  function allowance(address owner, address spender) public view virtual override returns (uint256) {... */\n    tag_95:\n      sub(shl(0xa0, 0x01), 0x01)\n        /* \"DEX.sol_flattened.sol\":8383:8401  _allowances[owner] */\n      swap2\n      dup3\n      and\n        /* \"DEX.sol_flattened.sol\":8357:8364  uint256 */\n      0x00\n        /* \"DEX.sol_flattened.sol\":8383:8401  _allowances[owner] */\n      swap1\n      dup2\n      mstore\n        /* \"DEX.sol_flattened.sol\":8383:8394  _allowances */\n      0x01\n        /* \"DEX.sol_flattened.sol\":8383:8401  _allowances[owner] */\n      0x20\n      swap1\n      dup2\n      mstore\n      0x40\n      dup1\n      dup4\n      keccak256\n        /* \"DEX.sol_flattened.sol\":8383:8410  _allowances[owner][spender] */\n      swap4\n      swap1\n      swap5\n      and\n      dup3\n      mstore\n      swap2\n      swap1\n      swap2\n      mstore\n      keccak256\n      sload\n      swap1\n        /* \"DEX.sol_flattened.sol\":8268:8417  function allowance(address owner, address spender) public view virtual override returns (uint256) {... */\n      jump\t// out\n        /* \"DEX.sol_flattened.sol\":20502:20700  function transferOwnership(address newOwner) public virtual onlyOwner {... */\n    tag_99:\n        /* \"DEX.sol_flattened.sol\":19515:19528  _checkOwner() */\n      tag_176\n        /* \"DEX.sol_flattened.sol\":19515:19526  _checkOwner */\n      tag_128\n        /* \"DEX.sol_flattened.sol\":19515:19528  _checkOwner() */\n      jump\t// in\n    tag_176:\n      sub(shl(0xa0, 0x01), 0x01)\n        /* \"DEX.sol_flattened.sol\":20590:20612  newOwner != address(0) */\n      dup2\n      and\n        /* \"DEX.sol_flattened.sol\":20582:20655  require(newOwner != address(0), \"Ownable: new owner is the zero address\") */\n      tag_178\n      jumpi\n      mload(0x40)\n      shl(0xe5, 0x461bcd)\n      dup2\n      mstore\n        /* \"#utility.yul\":3969:3971   */\n      0x20\n        /* \"DEX.sol_flattened.sol\":20582:20655  require(newOwner != address(0), \"Ownable: new owner is the zero address\") */\n      0x04\n      dup3\n      add\n        /* \"#utility.yul\":3951:3972   */\n      mstore\n        /* \"#utility.yul\":4008:4010   */\n      0x26\n        /* \"#utility.yul\":3988:4006   */\n      0x24\n      dup3\n      add\n        /* \"#utility.yul\":3981:4011   */\n      mstore\n        /* \"#utility.yul\":4047:4081   */\n      0x4f776e61626c653a206e6577206f776e657220697320746865207a65726f2061\n        /* \"#utility.yul\":4027:4045   */\n      0x44\n      dup3\n      add\n        /* \"#utility.yul\":4020:4082   */\n      mstore\n      shl(0xd0, 0x646472657373)\n        /* \"#utility.yul\":4098:4116   */\n      0x64\n      dup3\n      add\n        /* \"#utility.yul\":4091:4127   */\n      mstore\n        /* \"#utility.yul\":4144:4163   */\n      0x84\n      add\n        /* \"DEX.sol_flattened.sol\":20582:20655  require(newOwner != address(0), \"Ownable: new owner is the zero address\") */\n      tag_168\n        /* \"#utility.yul\":3767:4169   */\n      jump\n        /* \"DEX.sol_flattened.sol\":20582:20655  require(newOwner != address(0), \"Ownable: new owner is the zero address\") */\n    tag_178:\n        /* \"DEX.sol_flattened.sol\":20665:20693  _transferOwnership(newOwner) */\n      tag_138\n        /* \"DEX.sol_flattened.sol\":20684:20692  newOwner */\n      dup2\n        /* \"DEX.sol_flattened.sol\":20665:20683  _transferOwnership */\n      tag_147\n        /* \"DEX.sol_flattened.sol\":20665:20693  _transferOwnership(newOwner) */\n      jump\t// in\n        /* \"DEX.sol_flattened.sol\":14798:15168  function _approve(... */\n    tag_111:\n      sub(shl(0xa0, 0x01), 0x01)\n        /* \"DEX.sol_flattened.sol\":14929:14948  owner != address(0) */\n      dup4\n      and\n        /* \"DEX.sol_flattened.sol\":14921:14989  require(owner != address(0), \"ERC20: approve from the zero address\") */\n      tag_184\n      jumpi\n      mload(0x40)\n      shl(0xe5, 0x461bcd)\n      dup2\n      mstore\n        /* \"#utility.yul\":4376:4378   */\n      0x20\n        /* \"DEX.sol_flattened.sol\":14921:14989  require(owner != address(0), \"ERC20: approve from the zero address\") */\n      0x04\n      dup3\n      add\n        /* \"#utility.yul\":4358:4379   */\n      mstore\n        /* \"#utility.yul\":4415:4417   */\n      0x24\n        /* \"#utility.yul\":4395:4413   */\n      dup1\n      dup3\n      add\n        /* \"#utility.yul\":4388:4418   */\n      mstore\n        /* \"#utility.yul\":4454:4488   */\n      0x45524332303a20617070726f76652066726f6d20746865207a65726f20616464\n        /* \"#utility.yul\":4434:4452   */\n      0x44\n      dup3\n      add\n        /* \"#utility.yul\":4427:4489   */\n      mstore\n      shl(0xe0, 0x72657373)\n        /* \"#utility.yul\":4505:4523   */\n      0x64\n      dup3\n      add\n        /* \"#utility.yul\":4498:4532   */\n      mstore\n        /* \"#utility.yul\":4549:4568   */\n      0x84\n      add\n        /* \"DEX.sol_flattened.sol\":14921:14989  require(owner != address(0), \"ERC20: approve from the zero address\") */\n      tag_168\n        /* \"#utility.yul\":4174:4574   */\n      jump\n        /* \"DEX.sol_flattened.sol\":14921:14989  require(owner != address(0), \"ERC20: approve from the zero address\") */\n    tag_184:\n      sub(shl(0xa0, 0x01), 0x01)\n        /* \"DEX.sol_flattened.sol\":15007:15028  spender != address(0) */\n      dup3\n      and\n        /* \"DEX.sol_flattened.sol\":14999:15067  require(spender != address(0), \"ERC20: approve to the zero address\") */\n      tag_187\n      jumpi\n      mload(0x40)\n      shl(0xe5, 0x461bcd)\n      dup2\n      mstore\n        /* \"#utility.yul\":4781:4783   */\n      0x20\n        /* \"DEX.sol_flattened.sol\":14999:15067  require(spender != address(0), \"ERC20: approve to the zero address\") */\n      0x04\n      dup3\n      add\n        /* \"#utility.yul\":4763:4784   */\n      mstore\n        /* \"#utility.yul\":4820:4822   */\n      0x22\n        /* \"#utility.yul\":4800:4818   */\n      0x24\n      dup3\n      add\n        /* \"#utility.yul\":4793:4823   */\n      mstore\n        /* \"#utility.yul\":4859:4893   */\n      0x45524332303a20617070726f766520746f20746865207a65726f206164647265\n        /* \"#utility.yul\":4839:4857   */\n      0x44\n      dup3\n      add\n        /* \"#utility.yul\":4832:4894   */\n      mstore\n      shl(0xf0, 0x7373)\n        /* \"#utility.yul\":4910:4928   */\n      0x64\n      dup3\n      add\n        /* \"#utility.yul\":4903:4935   */\n      mstore\n        /* \"#utility.yul\":4952:4971   */\n      0x84\n      add\n        /* \"DEX.sol_flattened.sol\":14999:15067  require(spender != address(0), \"ERC20: approve to the zero address\") */\n      tag_168\n        /* \"#utility.yul\":4579:4977   */\n      jump\n        /* \"DEX.sol_flattened.sol\":14999:15067  require(spender != address(0), \"ERC20: approve to the zero address\") */\n    tag_187:\n      sub(shl(0xa0, 0x01), 0x01)\n        /* \"DEX.sol_flattened.sol\":15078:15096  _allowances[owner] */\n      dup4\n      dup2\n      and\n      0x00\n      dup2\n      dup2\n      mstore\n        /* \"DEX.sol_flattened.sol\":15078:15089  _allowances */\n      0x01\n        /* \"DEX.sol_flattened.sol\":15078:15096  _allowances[owner] */\n      0x20\n      swap1\n      dup2\n      mstore\n      0x40\n      dup1\n      dup4\n      keccak256\n        /* \"DEX.sol_flattened.sol\":15078:15105  _allowances[owner][spender] */\n      swap5\n      dup8\n      and\n      dup1\n      dup5\n      mstore\n      swap5\n      dup3\n      mstore\n      swap2\n      dup3\n      swap1\n      keccak256\n        /* \"DEX.sol_flattened.sol\":15078:15114  _allowances[owner][spender] = amount */\n      dup6\n      swap1\n      sstore\n        /* \"DEX.sol_flattened.sol\":15129:15161  Approval(owner, spender, amount) */\n      swap1\n      mload\n        /* \"#utility.yul\":1342:1367   */\n      dup5\n      dup2\n      mstore\n        /* \"DEX.sol_flattened.sol\":15129:15161  Approval(owner, spender, amount) */\n      0x8c5be1e5ebec7d5bd14f71427d1e84f3dd0314c0f7b2291e5b200ac8c7c3b925\n      swap2\n        /* \"#utility.yul\":1315:1333   */\n      add\n        /* \"DEX.sol_flattened.sol\":15129:15161  Approval(owner, spender, amount) */\n    tag_190:\n      mload(0x40)\n      dup1\n      swap2\n      sub\n      swap1\n      log3\n        /* \"DEX.sol_flattened.sol\":14798:15168  function _approve(... */\n      pop\n      pop\n      pop\n      jump\t// out\n        /* \"DEX.sol_flattened.sol\":15449:15890  function _spendAllowance(... */\n    tag_116:\n        /* \"DEX.sol_flattened.sol\":15579:15603  uint256 currentAllowance */\n      0x00\n        /* \"DEX.sol_flattened.sol\":15606:15631  allowance(owner, spender) */\n      tag_192\n        /* \"DEX.sol_flattened.sol\":15616:15621  owner */\n      dup5\n        /* \"DEX.sol_flattened.sol\":15623:15630  spender */\n      dup5\n        /* \"DEX.sol_flattened.sol\":15606:15615  allowance */\n      tag_95\n        /* \"DEX.sol_flattened.sol\":15606:15631  allowance(owner, spender) */\n      jump\t// in\n    tag_192:\n        /* \"DEX.sol_flattened.sol\":15579:15631  uint256 currentAllowance = allowance(owner, spender) */\n      swap1\n      pop\n      not(0x00)\n        /* \"DEX.sol_flattened.sol\":15645:15661  currentAllowance */\n      dup2\n        /* \"DEX.sol_flattened.sol\":15645:15682  currentAllowance != type(uint256).max */\n      eq\n        /* \"DEX.sol_flattened.sol\":15641:15884  if (currentAllowance != type(uint256).max) {... */\n      tag_197\n      jumpi\n        /* \"DEX.sol_flattened.sol\":15726:15732  amount */\n      dup2\n        /* \"DEX.sol_flattened.sol\":15706:15722  currentAllowance */\n      dup2\n        /* \"DEX.sol_flattened.sol\":15706:15732  currentAllowance >= amount */\n      lt\n      iszero\n        /* \"DEX.sol_flattened.sol\":15698:15766  require(currentAllowance >= amount, \"ERC20: insufficient allowance\") */\n      tag_194\n      jumpi\n      mload(0x40)\n      shl(0xe5, 0x461bcd)\n      dup2\n      mstore\n        /* \"#utility.yul\":5184:5186   */\n      0x20\n        /* \"DEX.sol_flattened.sol\":15698:15766  require(currentAllowance >= amount, \"ERC20: insufficient allowance\") */\n      0x04\n      dup3\n      add\n        /* \"#utility.yul\":5166:5187   */\n      mstore\n        /* \"#utility.yul\":5223:5225   */\n      0x1d\n        /* \"#utility.yul\":5203:5221   */\n      0x24\n      dup3\n      add\n        /* \"#utility.yul\":5196:5226   */\n      mstore\n        /* \"#utility.yul\":5262:5293   */\n      0x45524332303a20696e73756666696369656e7420616c6c6f77616e6365000000\n        /* \"#utility.yul\":5242:5260   */\n      0x44\n      dup3\n      add\n        /* \"#utility.yul\":5235:5294   */\n      mstore\n        /* \"#utility.yul\":5311:5329   */\n      0x64\n      add\n        /* \"DEX.sol_flattened.sol\":15698:15766  require(currentAllowance >= amount, \"ERC20: insufficient allowance\") */\n      tag_168\n        /* \"#utility.yul\":4982:5335   */\n      jump\n        /* \"DEX.sol_flattened.sol\":15698:15766  require(currentAllowance >= amount, \"ERC20: insufficient allowance\") */\n    tag_194:\n        /* \"DEX.sol_flattened.sol\":15808:15859  _approve(owner, spender, currentAllowance - amount) */\n      tag_197\n        /* \"DEX.sol_flattened.sol\":15817:15822  owner */\n      dup5\n        /* \"DEX.sol_flattened.sol\":15824:15831  spender */\n      dup5\n        /* \"DEX.sol_flattened.sol\":15852:15858  amount */\n      dup5\n        /* \"DEX.sol_flattened.sol\":15833:15849  currentAllowance */\n      dup5\n        /* \"DEX.sol_flattened.sol\":15833:15858  currentAllowance - amount */\n      sub\n        /* \"DEX.sol_flattened.sol\":15808:15816  _approve */\n      tag_111\n        /* \"DEX.sol_flattened.sol\":15808:15859  _approve(owner, spender, currentAllowance - amount) */\n      jump\t// in\n    tag_197:\n        /* \"DEX.sol_flattened.sol\":15569:15890  {... */\n      pop\n        /* \"DEX.sol_flattened.sol\":15449:15890  function _spendAllowance(... */\n      pop\n      pop\n      pop\n      jump\t// out\n        /* \"DEX.sol_flattened.sol\":11767:12585  function _transfer(... */\n    tag_118:\n      sub(shl(0xa0, 0x01), 0x01)\n        /* \"DEX.sol_flattened.sol\":11893:11911  from != address(0) */\n      dup4\n      and\n        /* \"DEX.sol_flattened.sol\":11885:11953  require(from != address(0), \"ERC20: transfer from the zero address\") */\n      tag_199\n      jumpi\n      mload(0x40)\n      shl(0xe5, 0x461bcd)\n      dup2\n      mstore\n        /* \"#utility.yul\":5542:5544   */\n      0x20\n        /* \"DEX.sol_flattened.sol\":11885:11953  require(from != address(0), \"ERC20: transfer from the zero address\") */\n      0x04\n      dup3\n      add\n        /* \"#utility.yul\":5524:5545   */\n      mstore\n        /* \"#utility.yul\":5581:5583   */\n      0x25\n        /* \"#utility.yul\":5561:5579   */\n      0x24\n      dup3\n      add\n        /* \"#utility.yul\":5554:5584   */\n      mstore\n        /* \"#utility.yul\":5620:5654   */\n      0x45524332303a207472616e736665722066726f6d20746865207a65726f206164\n        /* \"#utility.yul\":5600:5618   */\n      0x44\n      dup3\n      add\n        /* \"#utility.yul\":5593:5655   */\n      mstore\n      shl(0xd8, 0x6472657373)\n        /* \"#utility.yul\":5671:5689   */\n      0x64\n      dup3\n      add\n        /* \"#utility.yul\":5664:5699   */\n      mstore\n        /* \"#utility.yul\":5716:5735   */\n      0x84\n      add\n        /* \"DEX.sol_flattened.sol\":11885:11953  require(from != address(0), \"ERC20: transfer from the zero address\") */\n      tag_168\n        /* \"#utility.yul\":5340:5741   */\n      jump\n        /* \"DEX.sol_flattened.sol\":11885:11953  require(from != address(0), \"ERC20: transfer from the zero address\") */\n    tag_199:\n      sub(shl(0xa0, 0x01), 0x01)\n        /* \"DEX.sol_flattened.sol\":11971:11987  to != address(0) */\n      dup3\n      and\n        /* \"DEX.sol_flattened.sol\":11963:12027  require(to != address(0), \"ERC20: transfer to the zero address\") */\n      tag_202\n      jumpi\n      mload(0x40)\n      shl(0xe5, 0x461bcd)\n      dup2\n      mstore\n        /* \"#utility.yul\":5948:5950   */\n      0x20\n        /* \"DEX.sol_flattened.sol\":11963:12027  require(to != address(0), \"ERC20: transfer to the zero address\") */\n      0x04\n      dup3\n      add\n        /* \"#utility.yul\":5930:5951   */\n      mstore\n        /* \"#utility.yul\":5987:5989   */\n      0x23\n        /* \"#utility.yul\":5967:5985   */\n      0x24\n      dup3\n      add\n        /* \"#utility.yul\":5960:5990   */\n      mstore\n        /* \"#utility.yul\":6026:6060   */\n      0x45524332303a207472616e7366657220746f20746865207a65726f2061646472\n        /* \"#utility.yul\":6006:6024   */\n      0x44\n      dup3\n      add\n        /* \"#utility.yul\":5999:6061   */\n      mstore\n      shl(0xe8, 0x657373)\n        /* \"#utility.yul\":6077:6095   */\n      0x64\n      dup3\n      add\n        /* \"#utility.yul\":6070:6103   */\n      mstore\n        /* \"#utility.yul\":6120:6139   */\n      0x84\n      add\n        /* \"DEX.sol_flattened.sol\":11963:12027  require(to != address(0), \"ERC20: transfer to the zero address\") */\n      tag_168\n        /* \"#utility.yul\":5746:6145   */\n      jump\n        /* \"DEX.sol_flattened.sol\":11963:12027  require(to != address(0), \"ERC20: transfer to the zero address\") */\n    tag_202:\n        /* \"DEX.sol_flattened.sol\":12038:12076  _beforeTokenTransfer(from, to, amount) */\n      tag_205\n        /* \"DEX.sol_flattened.sol\":12059:12063  from */\n      dup4\n        /* \"DEX.sol_flattened.sol\":12065:12067  to */\n      dup4\n        /* \"DEX.sol_flattened.sol\":12069:12075  amount */\n      dup4\n        /* \"DEX.sol_flattened.sol\":12038:12058  _beforeTokenTransfer */\n      tag_206\n        /* \"DEX.sol_flattened.sol\":12038:12076  _beforeTokenTransfer(from, to, amount) */\n      jump\t// in\n    tag_205:\n      sub(shl(0xa0, 0x01), 0x01)\n        /* \"DEX.sol_flattened.sol\":12109:12124  _balances[from] */\n      dup4\n      and\n        /* \"DEX.sol_flattened.sol\":12087:12106  uint256 fromBalance */\n      0x00\n        /* \"DEX.sol_flattened.sol\":12109:12124  _balances[from] */\n      swap1\n      dup2\n      mstore\n      0x20\n      dup2\n      swap1\n      mstore\n      0x40\n      swap1\n      keccak256\n      sload\n        /* \"DEX.sol_flattened.sol\":12142:12163  fromBalance >= amount */\n      dup2\n      dup2\n      lt\n      iszero\n        /* \"DEX.sol_flattened.sol\":12134:12206  require(fromBalance >= amount, \"ERC20: transfer amount exceeds balance\") */\n      tag_207\n      jumpi\n      mload(0x40)\n      shl(0xe5, 0x461bcd)\n      dup2\n      mstore\n        /* \"#utility.yul\":6352:6354   */\n      0x20\n        /* \"DEX.sol_flattened.sol\":12134:12206  require(fromBalance >= amount, \"ERC20: transfer amount exceeds balance\") */\n      0x04\n      dup3\n      add\n        /* \"#utility.yul\":6334:6355   */\n      mstore\n        /* \"#utility.yul\":6391:6393   */\n      0x26\n        /* \"#utility.yul\":6371:6389   */\n      0x24\n      dup3\n      add\n        /* \"#utility.yul\":6364:6394   */\n      mstore\n        /* \"#utility.yul\":6430:6464   */\n      0x45524332303a207472616e7366657220616d6f756e7420657863656564732062\n        /* \"#utility.yul\":6410:6428   */\n      0x44\n      dup3\n      add\n        /* \"#utility.yul\":6403:6465   */\n      mstore\n      shl(0xd0, 0x616c616e6365)\n        /* \"#utility.yul\":6481:6499   */\n      0x64\n      dup3\n      add\n        /* \"#utility.yul\":6474:6510   */\n      mstore\n        /* \"#utility.yul\":6527:6546   */\n      0x84\n      add\n        /* \"DEX.sol_flattened.sol\":12134:12206  require(fromBalance >= amount, \"ERC20: transfer amount exceeds balance\") */\n      tag_168\n        /* \"#utility.yul\":6150:6552   */\n      jump\n        /* \"DEX.sol_flattened.sol\":12134:12206  require(fromBalance >= amount, \"ERC20: transfer amount exceeds balance\") */\n    tag_207:\n      sub(shl(0xa0, 0x01), 0x01)\n        /* \"DEX.sol_flattened.sol\":12240:12255  _balances[from] */\n      dup5\n      dup2\n      and\n        /* \"DEX.sol_flattened.sol\":12240:12249  _balances */\n      0x00\n        /* \"DEX.sol_flattened.sol\":12240:12255  _balances[from] */\n      dup2\n      dup2\n      mstore\n      0x20\n      dup2\n      dup2\n      mstore\n      0x40\n      dup1\n      dup4\n      keccak256\n        /* \"DEX.sol_flattened.sol\":12258:12278  fromBalance - amount */\n      dup8\n      dup8\n      sub\n        /* \"DEX.sol_flattened.sol\":12240:12278  _balances[from] = fromBalance - amount */\n      swap1\n      sstore\n        /* \"DEX.sol_flattened.sol\":12455:12468  _balances[to] */\n      swap4\n      dup8\n      and\n      dup1\n      dup4\n      mstore\n      swap2\n      dup5\n      swap1\n      keccak256\n        /* \"DEX.sol_flattened.sol\":12455:12478  _balances[to] += amount */\n      dup1\n      sload\n      dup8\n      add\n      swap1\n      sstore\n        /* \"DEX.sol_flattened.sol\":12504:12530  Transfer(from, to, amount) */\n      swap3\n      mload\n        /* \"#utility.yul\":1342:1367   */\n      dup6\n      dup2\n      mstore\n        /* \"DEX.sol_flattened.sol\":12455:12468  _balances[to] */\n      swap1\n      swap3\n        /* \"DEX.sol_flattened.sol\":12504:12530  Transfer(from, to, amount) */\n      0xddf252ad1be2c89b69c2b068fc378daa952ba7f163c4a11628f55a4df523b3ef\n      swap2\n        /* \"#utility.yul\":1315:1333   */\n      add\n        /* \"DEX.sol_flattened.sol\":12504:12530  Transfer(from, to, amount) */\n      mload(0x40)\n      dup1\n      swap2\n      sub\n      swap1\n      log3\n        /* \"DEX.sol_flattened.sol\":12541:12578  _afterTokenTransfer(from, to, amount) */\n      tag_197\n        /* \"DEX.sol_flattened.sol\":13716:14375  function _burn(address account, uint256 amount) internal virtual {... */\n      jump\n        /* \"DEX.sol_flattened.sol\":19780:19910  function _checkOwner() internal view virtual {... */\n    tag_128:\n        /* \"DEX.sol_flattened.sol\":19694:19700  _owner */\n      sload(0x05)\n      sub(shl(0xa0, 0x01), 0x01)\n      0x0100\n      swap1\n      swap2\n      div\n      and\n        /* \"DEX.sol_flattened.sol\":4240:4250  msg.sender */\n      caller\n        /* \"DEX.sol_flattened.sol\":19843:19866  owner() == _msgSender() */\n      eq\n        /* \"DEX.sol_flattened.sol\":19835:19903  require(owner() == _msgSender(), \"Ownable: caller is not the owner\") */\n      tag_130\n      jumpi\n      mload(0x40)\n      shl(0xe5, 0x461bcd)\n      dup2\n      mstore\n        /* \"#utility.yul\":6759:6761   */\n      0x20\n        /* \"DEX.sol_flattened.sol\":19835:19903  require(owner() == _msgSender(), \"Ownable: caller is not the owner\") */\n      0x04\n      dup3\n      add\n        /* \"#utility.yul\":6741:6762   */\n      dup2\n      swap1\n      mstore\n        /* \"#utility.yul\":6778:6796   */\n      0x24\n      dup3\n      add\n        /* \"#utility.yul\":6771:6801   */\n      mstore\n        /* \"#utility.yul\":6837:6871   */\n      0x4f776e61626c653a2063616c6c6572206973206e6f7420746865206f776e6572\n        /* \"#utility.yul\":6817:6835   */\n      0x44\n      dup3\n      add\n        /* \"#utility.yul\":6810:6872   */\n      mstore\n        /* \"#utility.yul\":6889:6907   */\n      0x64\n      add\n        /* \"DEX.sol_flattened.sol\":19835:19903  require(owner() == _msgSender(), \"Ownable: caller is not the owner\") */\n      tag_168\n        /* \"#utility.yul\":6557:6913   */\n      jump\n        /* \"DEX.sol_flattened.sol\":23472:23589  function _unpause() internal virtual whenPaused {... */\n    tag_131:\n        /* \"DEX.sol_flattened.sol\":22525:22541  _requirePaused() */\n      tag_220\n        /* \"DEX.sol_flattened.sol\":22525:22539  _requirePaused */\n      tag_221\n        /* \"DEX.sol_flattened.sol\":22525:22541  _requirePaused() */\n      jump\t// in\n    tag_220:\n        /* \"DEX.sol_flattened.sol\":23530:23537  _paused */\n      0x05\n        /* \"DEX.sol_flattened.sol\":23530:23545  _paused = false */\n      dup1\n      sload\n      not(0xff)\n      and\n      swap1\n      sstore\n        /* \"DEX.sol_flattened.sol\":23560:23582  Unpaused(_msgSender()) */\n      0x5db9ee0a495bf2e6ff9c91a7834c1ba4fdd244a5e8aa4e537bd38aeae4b073aa\n        /* \"DEX.sol_flattened.sol\":4240:4250  msg.sender */\n      caller\n        /* \"DEX.sol_flattened.sol\":23569:23581  _msgSender() */\n    tag_223:\n        /* \"DEX.sol_flattened.sol\":23560:23582  Unpaused(_msgSender()) */\n      mload(0x40)\n      sub(shl(0xa0, 0x01), 0x01)\n        /* \"#utility.yul\":2440:2472   */\n      swap1\n      swap2\n      and\n        /* \"#utility.yul\":2422:2473   */\n      dup2\n      mstore\n        /* \"#utility.yul\":2410:2412   */\n      0x20\n        /* \"#utility.yul\":2395:2413   */\n      add\n        /* \"DEX.sol_flattened.sol\":23560:23582  Unpaused(_msgSender()) */\n      mload(0x40)\n      dup1\n      swap2\n      sub\n      swap1\n      log1\n        /* \"DEX.sol_flattened.sol\":23472:23589  function _unpause() internal virtual whenPaused {... */\n      jump\t// out\n        /* \"DEX.sol_flattened.sol\":12861:13396  function _mint(address account, uint256 amount) internal virtual {... */\n    tag_136:\n      sub(shl(0xa0, 0x01), 0x01)\n        /* \"DEX.sol_flattened.sol\":12944:12965  account != address(0) */\n      dup3\n      and\n        /* \"DEX.sol_flattened.sol\":12936:13001  require(account != address(0), \"ERC20: mint to the zero address\") */\n      tag_226\n      jumpi\n      mload(0x40)\n      shl(0xe5, 0x461bcd)\n      dup2\n      mstore\n        /* \"#utility.yul\":7120:7122   */\n      0x20\n        /* \"DEX.sol_flattened.sol\":12936:13001  require(account != address(0), \"ERC20: mint to the zero address\") */\n      0x04\n      dup3\n      add\n        /* \"#utility.yul\":7102:7123   */\n      mstore\n        /* \"#utility.yul\":7159:7161   */\n      0x1f\n        /* \"#utility.yul\":7139:7157   */\n      0x24\n      dup3\n      add\n        /* \"#utility.yul\":7132:7162   */\n      mstore\n        /* \"#utility.yul\":7198:7231   */\n      0x45524332303a206d696e7420746f20746865207a65726f206164647265737300\n        /* \"#utility.yul\":7178:7196   */\n      0x44\n      dup3\n      add\n        /* \"#utility.yul\":7171:7232   */\n      mstore\n        /* \"#utility.yul\":7249:7267   */\n      0x64\n      add\n        /* \"DEX.sol_flattened.sol\":12936:13001  require(account != address(0), \"ERC20: mint to the zero address\") */\n      tag_168\n        /* \"#utility.yul\":6918:7273   */\n      jump\n        /* \"DEX.sol_flattened.sol\":12936:13001  require(account != address(0), \"ERC20: mint to the zero address\") */\n    tag_226:\n        /* \"DEX.sol_flattened.sol\":13012:13061  _beforeTokenTransfer(address(0), account, amount) */\n      tag_229\n        /* \"DEX.sol_flattened.sol\":13041:13042  0 */\n      0x00\n        /* \"DEX.sol_flattened.sol\":13045:13052  account */\n      dup4\n        /* \"DEX.sol_flattened.sol\":13054:13060  amount */\n      dup4\n        /* \"DEX.sol_flattened.sol\":13012:13032  _beforeTokenTransfer */\n      tag_206\n        /* \"DEX.sol_flattened.sol\":13012:13061  _beforeTokenTransfer(address(0), account, amount) */\n      jump\t// in\n    tag_229:\n        /* \"DEX.sol_flattened.sol\":13088:13094  amount */\n      dup1\n        /* \"DEX.sol_flattened.sol\":13072:13084  _totalSupply */\n      0x02\n      0x00\n        /* \"DEX.sol_flattened.sol\":13072:13094  _totalSupply += amount */\n      dup3\n      dup3\n      sload\n      tag_230\n      swap2\n      swap1\n      tag_125\n      jump\t// in\n    tag_230:\n      swap1\n      swap2\n      sstore\n      pop\n      pop\n      sub(shl(0xa0, 0x01), 0x01)\n        /* \"DEX.sol_flattened.sol\":13240:13258  _balances[account] */\n      dup3\n      and\n        /* \"DEX.sol_flattened.sol\":13240:13249  _balances */\n      0x00\n        /* \"DEX.sol_flattened.sol\":13240:13258  _balances[account] */\n      dup2\n      dup2\n      mstore\n      0x20\n      dup2\n      dup2\n      mstore\n      0x40\n      dup1\n      dup4\n      keccak256\n        /* \"DEX.sol_flattened.sol\":13240:13268  _balances[account] += amount */\n      dup1\n      sload\n      dup7\n      add\n      swap1\n      sstore\n        /* \"DEX.sol_flattened.sol\":13293:13330  Transfer(address(0), account, amount) */\n      mload\n        /* \"#utility.yul\":1342:1367   */\n      dup5\n      dup2\n      mstore\n        /* \"DEX.sol_flattened.sol\":13293:13330  Transfer(address(0), account, amount) */\n      0xddf252ad1be2c89b69c2b068fc378daa952ba7f163c4a11628f55a4df523b3ef\n      swap2\n        /* \"#utility.yul\":1315:1333   */\n      add\n        /* \"DEX.sol_flattened.sol\":13293:13330  Transfer(address(0), account, amount) */\n      mload(0x40)\n      dup1\n      swap2\n      sub\n      swap1\n      log3\n        /* \"DEX.sol_flattened.sol\":23941:24034  function mint(address to, uint256 amount) public onlyOwner {... */\n      pop\n      pop\n      jump\t// out\n        /* \"DEX.sol_flattened.sol\":13716:14375  function _burn(address account, uint256 amount) internal virtual {... */\n    tag_140:\n      sub(shl(0xa0, 0x01), 0x01)\n        /* \"DEX.sol_flattened.sol\":13799:13820  account != address(0) */\n      dup3\n      and\n        /* \"DEX.sol_flattened.sol\":13791:13858  require(account != address(0), \"ERC20: burn from the zero address\") */\n      tag_234\n      jumpi\n      mload(0x40)\n      shl(0xe5, 0x461bcd)\n      dup2\n      mstore\n        /* \"#utility.yul\":7480:7482   */\n      0x20\n        /* \"DEX.sol_flattened.sol\":13791:13858  require(account != address(0), \"ERC20: burn from the zero address\") */\n      0x04\n      dup3\n      add\n        /* \"#utility.yul\":7462:7483   */\n      mstore\n        /* \"#utility.yul\":7519:7521   */\n      0x21\n        /* \"#utility.yul\":7499:7517   */\n      0x24\n      dup3\n      add\n        /* \"#utility.yul\":7492:7522   */\n      mstore\n        /* \"#utility.yul\":7558:7592   */\n      0x45524332303a206275726e2066726f6d20746865207a65726f20616464726573\n        /* \"#utility.yul\":7538:7556   */\n      0x44\n      dup3\n      add\n        /* \"#utility.yul\":7531:7593   */\n      mstore\n      shl(0xf8, 0x73)\n        /* \"#utility.yul\":7609:7627   */\n      0x64\n      dup3\n      add\n        /* \"#utility.yul\":7602:7633   */\n      mstore\n        /* \"#utility.yul\":7650:7669   */\n      0x84\n      add\n        /* \"DEX.sol_flattened.sol\":13791:13858  require(account != address(0), \"ERC20: burn from the zero address\") */\n      tag_168\n        /* \"#utility.yul\":7278:7675   */\n      jump\n        /* \"DEX.sol_flattened.sol\":13791:13858  require(account != address(0), \"ERC20: burn from the zero address\") */\n    tag_234:\n        /* \"DEX.sol_flattened.sol\":13869:13918  _beforeTokenTransfer(account, address(0), amount) */\n      tag_237\n        /* \"DEX.sol_flattened.sol\":13890:13897  account */\n      dup3\n        /* \"DEX.sol_flattened.sol\":13907:13908  0 */\n      0x00\n        /* \"DEX.sol_flattened.sol\":13911:13917  amount */\n      dup4\n        /* \"DEX.sol_flattened.sol\":13869:13889  _beforeTokenTransfer */\n      tag_206\n        /* \"DEX.sol_flattened.sol\":13869:13918  _beforeTokenTransfer(account, address(0), amount) */\n      jump\t// in\n    tag_237:\n      sub(shl(0xa0, 0x01), 0x01)\n        /* \"DEX.sol_flattened.sol\":13954:13972  _balances[account] */\n      dup3\n      and\n        /* \"DEX.sol_flattened.sol\":13929:13951  uint256 accountBalance */\n      0x00\n        /* \"DEX.sol_flattened.sol\":13954:13972  _balances[account] */\n      swap1\n      dup2\n      mstore\n      0x20\n      dup2\n      swap1\n      mstore\n      0x40\n      swap1\n      keccak256\n      sload\n        /* \"DEX.sol_flattened.sol\":13990:14014  accountBalance >= amount */\n      dup2\n      dup2\n      lt\n      iszero\n        /* \"DEX.sol_flattened.sol\":13982:14053  require(accountBalance >= amount, \"ERC20: burn amount exceeds balance\") */\n      tag_238\n      jumpi\n      mload(0x40)\n      shl(0xe5, 0x461bcd)\n      dup2\n      mstore\n        /* \"#utility.yul\":7882:7884   */\n      0x20\n        /* \"DEX.sol_flattened.sol\":13982:14053  require(accountBalance >= amount, \"ERC20: burn amount exceeds balance\") */\n      0x04\n      dup3\n      add\n        /* \"#utility.yul\":7864:7885   */\n      mstore\n        /* \"#utility.yul\":7921:7923   */\n      0x22\n        /* \"#utility.yul\":7901:7919   */\n      0x24\n      dup3\n      add\n        /* \"#utility.yul\":7894:7924   */\n      mstore\n        /* \"#utility.yul\":7960:7994   */\n      0x45524332303a206275726e20616d6f756e7420657863656564732062616c616e\n        /* \"#utility.yul\":7940:7958   */\n      0x44\n      dup3\n      add\n        /* \"#utility.yul\":7933:7995   */\n      mstore\n      shl(0xf0, 0x6365)\n        /* \"#utility.yul\":8011:8029   */\n      0x64\n      dup3\n      add\n        /* \"#utility.yul\":8004:8036   */\n      mstore\n        /* \"#utility.yul\":8053:8072   */\n      0x84\n      add\n        /* \"DEX.sol_flattened.sol\":13982:14053  require(accountBalance >= amount, \"ERC20: burn amount exceeds balance\") */\n      tag_168\n        /* \"#utility.yul\":7680:8078   */\n      jump\n        /* \"DEX.sol_flattened.sol\":13982:14053  require(accountBalance >= amount, \"ERC20: burn amount exceeds balance\") */\n    tag_238:\n      sub(shl(0xa0, 0x01), 0x01)\n        /* \"DEX.sol_flattened.sol\":14087:14105  _balances[account] */\n      dup4\n      and\n        /* \"DEX.sol_flattened.sol\":14087:14096  _balances */\n      0x00\n        /* \"DEX.sol_flattened.sol\":14087:14105  _balances[account] */\n      dup2\n      dup2\n      mstore\n      0x20\n      dup2\n      dup2\n      mstore\n      0x40\n      dup1\n      dup4\n      keccak256\n        /* \"DEX.sol_flattened.sol\":14108:14131  accountBalance - amount */\n      dup7\n      dup7\n      sub\n        /* \"DEX.sol_flattened.sol\":14087:14131  _balances[account] = accountBalance - amount */\n      swap1\n      sstore\n        /* \"DEX.sol_flattened.sol\":14224:14236  _totalSupply */\n      0x02\n        /* \"DEX.sol_flattened.sol\":14224:14246  _totalSupply -= amount */\n      dup1\n      sload\n      dup8\n      swap1\n      sub\n      swap1\n      sstore\n        /* \"DEX.sol_flattened.sol\":14272:14309  Transfer(account, address(0), amount) */\n      mload\n        /* \"#utility.yul\":1342:1367   */\n      dup6\n      dup2\n      mstore\n        /* \"DEX.sol_flattened.sol\":14087:14096  _balances */\n      swap2\n      swap3\n        /* \"DEX.sol_flattened.sol\":14087:14105  _balances[account] */\n      swap2\n        /* \"DEX.sol_flattened.sol\":14272:14309  Transfer(account, address(0), amount) */\n      0xddf252ad1be2c89b69c2b068fc378daa952ba7f163c4a11628f55a4df523b3ef\n      swap2\n        /* \"#utility.yul\":1315:1333   */\n      add\n        /* \"DEX.sol_flattened.sol\":14272:14309  Transfer(account, address(0), amount) */\n      tag_190\n        /* \"#utility.yul\":1196:1373   */\n      jump\n        /* \"DEX.sol_flattened.sol\":20854:21041  function _transferOwnership(address newOwner) internal virtual {... */\n    tag_147:\n        /* \"DEX.sol_flattened.sol\":20946:20952  _owner */\n      0x05\n      dup1\n      sload\n      sub(shl(0xa0, 0x01), 0x01)\n        /* \"DEX.sol_flattened.sol\":20962:20979  _owner = newOwner */\n      dup4\n      dup2\n      and\n        /* \"DEX.sol_flattened.sol\":20946:20952  _owner */\n      0x0100\n        /* \"DEX.sol_flattened.sol\":20962:20979  _owner = newOwner */\n      dup2\n      dup2\n      mul\n      not(sub(shl(0xa8, 0x01), 0x0100))\n      dup6\n      and\n      or\n      swap1\n      swap5\n      sstore\n        /* \"DEX.sol_flattened.sol\":20994:21034  OwnershipTransferred(oldOwner, newOwner) */\n      mload(0x40)\n        /* \"DEX.sol_flattened.sol\":20946:20952  _owner */\n      swap4\n      swap1\n      swap3\n      div\n      and\n      swap2\n      dup3\n      swap1\n        /* \"DEX.sol_flattened.sol\":20994:21034  OwnershipTransferred(oldOwner, newOwner) */\n      0x8be0079c531659141344cd1fd0a4f28419497f9722a3daafe3b4186f6b6457e0\n      swap1\n        /* \"DEX.sol_flattened.sol\":20927:20943  address oldOwner */\n      0x00\n      swap1\n        /* \"DEX.sol_flattened.sol\":20994:21034  OwnershipTransferred(oldOwner, newOwner) */\n      log3\n        /* \"DEX.sol_flattened.sol\":20917:21041  {... */\n      pop\n        /* \"DEX.sol_flattened.sol\":20854:21041  function _transferOwnership(address newOwner) internal virtual {... */\n      pop\n      jump\t// out\n        /* \"DEX.sol_flattened.sol\":23225:23340  function _pause() internal virtual whenNotPaused {... */\n    tag_156:\n        /* \"DEX.sol_flattened.sol\":22278:22297  _requireNotPaused() */\n      tag_245\n        /* \"DEX.sol_flattened.sol\":22278:22295  _requireNotPaused */\n      tag_246\n        /* \"DEX.sol_flattened.sol\":22278:22297  _requireNotPaused() */\n      jump\t// in\n    tag_245:\n        /* \"DEX.sol_flattened.sol\":23284:23291  _paused */\n      0x05\n        /* \"DEX.sol_flattened.sol\":23284:23298  _paused = true */\n      dup1\n      sload\n      not(0xff)\n      and\n        /* \"DEX.sol_flattened.sol\":23294:23298  true */\n      0x01\n        /* \"DEX.sol_flattened.sol\":23284:23298  _paused = true */\n      or\n      swap1\n      sstore\n        /* \"DEX.sol_flattened.sol\":23313:23333  Paused(_msgSender()) */\n      0x62e78cea01bee320cd4e420270b5ea74000d11b0c9f74754ebdbfc544b05a258\n        /* \"DEX.sol_flattened.sol\":23320:23332  _msgSender() */\n      tag_223\n        /* \"DEX.sol_flattened.sol\":4240:4250  msg.sender */\n      caller\n      swap1\n        /* \"DEX.sol_flattened.sol\":4161:4257  function _msgSender() internal view virtual returns (address) {... */\n      jump\n        /* \"DEX.sol_flattened.sol\":24040:24233  function _beforeTokenTransfer(address from, address to, uint256 amount)... */\n    tag_206:\n        /* \"DEX.sol_flattened.sol\":22278:22297  _requireNotPaused() */\n      tag_251\n        /* \"DEX.sol_flattened.sol\":22278:22295  _requireNotPaused */\n      tag_246\n        /* \"DEX.sol_flattened.sol\":22278:22297  _requireNotPaused() */\n      jump\t// in\n    tag_251:\n        /* \"DEX.sol_flattened.sol\":13781:14375  {... */\n      pop\n        /* \"DEX.sol_flattened.sol\":13716:14375  function _burn(address account, uint256 amount) internal virtual {... */\n      pop\n      pop\n      jump\t// out\n        /* \"DEX.sol_flattened.sol\":22984:23090  function _requirePaused() internal view virtual {... */\n    tag_221:\n        /* \"DEX.sol_flattened.sol\":22724:22731  _paused */\n      and(0xff, sload(0x05))\n        /* \"DEX.sol_flattened.sol\":23042:23083  require(paused(), \"Pausable: not paused\") */\n      tag_130\n      jumpi\n      mload(0x40)\n      shl(0xe5, 0x461bcd)\n      dup2\n      mstore\n        /* \"#utility.yul\":8285:8287   */\n      0x20\n        /* \"DEX.sol_flattened.sol\":23042:23083  require(paused(), \"Pausable: not paused\") */\n      0x04\n      dup3\n      add\n        /* \"#utility.yul\":8267:8288   */\n      mstore\n        /* \"#utility.yul\":8324:8326   */\n      0x14\n        /* \"#utility.yul\":8304:8322   */\n      0x24\n      dup3\n      add\n        /* \"#utility.yul\":8297:8327   */\n      mstore\n      shl(0x62, 0x14185d5cd8589b194e881b9bdd081c185d5cd959)\n        /* \"#utility.yul\":8343:8361   */\n      0x44\n      dup3\n      add\n        /* \"#utility.yul\":8336:8386   */\n      mstore\n        /* \"#utility.yul\":8403:8421   */\n      0x64\n      add\n        /* \"DEX.sol_flattened.sol\":23042:23083  require(paused(), \"Pausable: not paused\") */\n      tag_168\n        /* \"#utility.yul\":8083:8427   */\n      jump\n        /* \"DEX.sol_flattened.sol\":22806:22912  function _requireNotPaused() internal view virtual {... */\n    tag_246:\n        /* \"DEX.sol_flattened.sol\":22724:22731  _paused */\n      and(0xff, sload(0x05))\n        /* \"DEX.sol_flattened.sol\":22875:22884  !paused() */\n      iszero\n        /* \"DEX.sol_flattened.sol\":22867:22905  require(!paused(), \"Pausable: paused\") */\n      tag_130\n      jumpi\n      mload(0x40)\n      shl(0xe5, 0x461bcd)\n      dup2\n      mstore\n        /* \"#utility.yul\":8634:8636   */\n      0x20\n        /* \"DEX.sol_flattened.sol\":22867:22905  require(!paused(), \"Pausable: paused\") */\n      0x04\n      dup3\n      add\n        /* \"#utility.yul\":8616:8637   */\n      mstore\n        /* \"#utility.yul\":8673:8675   */\n      0x10\n        /* \"#utility.yul\":8653:8671   */\n      0x24\n      dup3\n      add\n        /* \"#utility.yul\":8646:8676   */\n      mstore\n      shl(0x82, 0x14185d5cd8589b194e881c185d5cd959)\n        /* \"#utility.yul\":8692:8710   */\n      0x44\n      dup3\n      add\n        /* \"#utility.yul\":8685:8731   */\n      mstore\n        /* \"#utility.yul\":8748:8766   */\n      0x64\n      add\n        /* \"DEX.sol_flattened.sol\":22867:22905  require(!paused(), \"Pausable: paused\") */\n      tag_168\n        /* \"#utility.yul\":8432:8772   */\n      jump\n        /* \"#utility.yul\":14:562   */\n    tag_29:\n        /* \"#utility.yul\":126:130   */\n      0x00\n        /* \"#utility.yul\":155:157   */\n      0x20\n        /* \"#utility.yul\":184:186   */\n      dup1\n        /* \"#utility.yul\":173:182   */\n      dup4\n        /* \"#utility.yul\":166:187   */\n      mstore\n        /* \"#utility.yul\":216:222   */\n      dup4\n        /* \"#utility.yul\":210:223   */\n      mload\n        /* \"#utility.yul\":259:265   */\n      dup1\n        /* \"#utility.yul\":254:256   */\n      dup3\n        /* \"#utility.yul\":243:252   */\n      dup6\n        /* \"#utility.yul\":239:257   */\n      add\n        /* \"#utility.yul\":232:266   */\n      mstore\n        /* \"#utility.yul\":284:285   */\n      0x00\n        /* \"#utility.yul\":294:434   */\n    tag_270:\n        /* \"#utility.yul\":308:314   */\n      dup2\n        /* \"#utility.yul\":305:306   */\n      dup2\n        /* \"#utility.yul\":302:315   */\n      lt\n        /* \"#utility.yul\":294:434   */\n      iszero\n      tag_272\n      jumpi\n        /* \"#utility.yul\":403:417   */\n      dup6\n      dup2\n      add\n        /* \"#utility.yul\":399:422   */\n      dup4\n      add\n        /* \"#utility.yul\":393:423   */\n      mload\n        /* \"#utility.yul\":369:386   */\n      dup6\n      dup3\n      add\n        /* \"#utility.yul\":388:390   */\n      0x40\n        /* \"#utility.yul\":365:391   */\n      add\n        /* \"#utility.yul\":358:424   */\n      mstore\n        /* \"#utility.yul\":323:333   */\n      dup3\n      add\n        /* \"#utility.yul\":294:434   */\n      jump(tag_270)\n    tag_272:\n        /* \"#utility.yul\":298:301   */\n      pop\n        /* \"#utility.yul\":483:484   */\n      0x00\n        /* \"#utility.yul\":478:480   */\n      0x40\n        /* \"#utility.yul\":469:475   */\n      dup3\n        /* \"#utility.yul\":458:467   */\n      dup7\n        /* \"#utility.yul\":454:476   */\n      add\n        /* \"#utility.yul\":450:481   */\n      add\n        /* \"#utility.yul\":443:485   */\n      mstore\n        /* \"#utility.yul\":553:555   */\n      0x40\n        /* \"#utility.yul\":546:548   */\n      0x1f\n        /* \"#utility.yul\":542:549   */\n      not\n        /* \"#utility.yul\":537:539   */\n      0x1f\n        /* \"#utility.yul\":529:535   */\n      dup4\n        /* \"#utility.yul\":525:540   */\n      add\n        /* \"#utility.yul\":521:550   */\n      and\n        /* \"#utility.yul\":510:519   */\n      dup6\n        /* \"#utility.yul\":506:551   */\n      add\n        /* \"#utility.yul\":502:556   */\n      add\n        /* \"#utility.yul\":494:556   */\n      swap3\n      pop\n      pop\n      pop\n        /* \"#utility.yul\":14:562   */\n      swap3\n      swap2\n      pop\n      pop\n      jump\t// out\n        /* \"#utility.yul\":567:740   */\n    tag_267:\n        /* \"#utility.yul\":635:655   */\n      dup1\n      calldataload\n      sub(shl(0xa0, 0x01), 0x01)\n        /* \"#utility.yul\":684:715   */\n      dup2\n      and\n        /* \"#utility.yul\":674:716   */\n      dup2\n      eq\n        /* \"#utility.yul\":664:734   */\n      tag_274\n      jumpi\n        /* \"#utility.yul\":730:731   */\n      0x00\n        /* \"#utility.yul\":727:728   */\n      dup1\n        /* \"#utility.yul\":720:732   */\n      revert\n        /* \"#utility.yul\":664:734   */\n    tag_274:\n        /* \"#utility.yul\":567:740   */\n      swap2\n      swap1\n      pop\n      jump\t// out\n        /* \"#utility.yul\":745:999   */\n    tag_32:\n        /* \"#utility.yul\":813:819   */\n      0x00\n        /* \"#utility.yul\":821:827   */\n      dup1\n        /* \"#utility.yul\":874:876   */\n      0x40\n        /* \"#utility.yul\":862:871   */\n      dup4\n        /* \"#utility.yul\":853:860   */\n      dup6\n        /* \"#utility.yul\":849:872   */\n      sub\n        /* \"#utility.yul\":845:877   */\n      slt\n        /* \"#utility.yul\":842:894   */\n      iszero\n      tag_276\n      jumpi\n        /* \"#utility.yul\":890:891   */\n      0x00\n        /* \"#utility.yul\":887:888   */\n      dup1\n        /* \"#utility.yul\":880:892   */\n      revert\n        /* \"#utility.yul\":842:894   */\n    tag_276:\n        /* \"#utility.yul\":913:942   */\n      tag_277\n        /* \"#utility.yul\":932:941   */\n      dup4\n        /* \"#utility.yul\":913:942   */\n      tag_267\n      jump\t// in\n    tag_277:\n        /* \"#utility.yul\":903:942   */\n      swap5\n        /* \"#utility.yul\":989:991   */\n      0x20\n        /* \"#utility.yul\":974:992   */\n      swap4\n      swap1\n      swap4\n      add\n        /* \"#utility.yul\":961:993   */\n      calldataload\n      swap4\n      pop\n      pop\n      pop\n        /* \"#utility.yul\":745:999   */\n      jump\t// out\n        /* \"#utility.yul\":1378:1706   */\n    tag_42:\n        /* \"#utility.yul\":1455:1461   */\n      0x00\n        /* \"#utility.yul\":1463:1469   */\n      dup1\n        /* \"#utility.yul\":1471:1477   */\n      0x00\n        /* \"#utility.yul\":1524:1526   */\n      0x60\n        /* \"#utility.yul\":1512:1521   */\n      dup5\n        /* \"#utility.yul\":1503:1510   */\n      dup7\n        /* \"#utility.yul\":1499:1522   */\n      sub\n        /* \"#utility.yul\":1495:1527   */\n      slt\n        /* \"#utility.yul\":1492:1544   */\n      iszero\n      tag_281\n      jumpi\n        /* \"#utility.yul\":1540:1541   */\n      0x00\n        /* \"#utility.yul\":1537:1538   */\n      dup1\n        /* \"#utility.yul\":1530:1542   */\n      revert\n        /* \"#utility.yul\":1492:1544   */\n    tag_281:\n        /* \"#utility.yul\":1563:1592   */\n      tag_282\n        /* \"#utility.yul\":1582:1591   */\n      dup5\n        /* \"#utility.yul\":1563:1592   */\n      tag_267\n      jump\t// in\n    tag_282:\n        /* \"#utility.yul\":1553:1592   */\n      swap3\n      pop\n        /* \"#utility.yul\":1611:1649   */\n      tag_283\n        /* \"#utility.yul\":1645:1647   */\n      0x20\n        /* \"#utility.yul\":1634:1643   */\n      dup6\n        /* \"#utility.yul\":1630:1648   */\n      add\n        /* \"#utility.yul\":1611:1649   */\n      tag_267\n      jump\t// in\n    tag_283:\n        /* \"#utility.yul\":1601:1649   */\n      swap2\n      pop\n        /* \"#utility.yul\":1696:1698   */\n      0x40\n        /* \"#utility.yul\":1685:1694   */\n      dup5\n        /* \"#utility.yul\":1681:1699   */\n      add\n        /* \"#utility.yul\":1668:1700   */\n      calldataload\n        /* \"#utility.yul\":1658:1700   */\n      swap1\n      pop\n        /* \"#utility.yul\":1378:1706   */\n      swap3\n      pop\n      swap3\n      pop\n      swap3\n      jump\t// out\n        /* \"#utility.yul\":1900:2080   */\n    tag_60:\n        /* \"#utility.yul\":1959:1965   */\n      0x00\n        /* \"#utility.yul\":2012:2014   */\n      0x20\n        /* \"#utility.yul\":2000:2009   */\n      dup3\n        /* \"#utility.yul\":1991:1998   */\n      dup5\n        /* \"#utility.yul\":1987:2010   */\n      sub\n        /* \"#utility.yul\":1983:2015   */\n      slt\n        /* \"#utility.yul\":1980:2032   */\n      iszero\n      tag_286\n      jumpi\n        /* \"#utility.yul\":2028:2029   */\n      0x00\n        /* \"#utility.yul\":2025:2026   */\n      dup1\n        /* \"#utility.yul\":2018:2030   */\n      revert\n        /* \"#utility.yul\":1980:2032   */\n    tag_286:\n      pop\n        /* \"#utility.yul\":2051:2074   */\n      calldataload\n      swap2\n        /* \"#utility.yul\":1900:2080   */\n      swap1\n      pop\n      jump\t// out\n        /* \"#utility.yul\":2085:2271   */\n    tag_67:\n        /* \"#utility.yul\":2144:2150   */\n      0x00\n        /* \"#utility.yul\":2197:2199   */\n      0x20\n        /* \"#utility.yul\":2185:2194   */\n      dup3\n        /* \"#utility.yul\":2176:2183   */\n      dup5\n        /* \"#utility.yul\":2172:2195   */\n      sub\n        /* \"#utility.yul\":2168:2200   */\n      slt\n        /* \"#utility.yul\":2165:2217   */\n      iszero\n      tag_288\n      jumpi\n        /* \"#utility.yul\":2213:2214   */\n      0x00\n        /* \"#utility.yul\":2210:2211   */\n      dup1\n        /* \"#utility.yul\":2203:2215   */\n      revert\n        /* \"#utility.yul\":2165:2217   */\n    tag_288:\n        /* \"#utility.yul\":2236:2265   */\n      tag_289\n        /* \"#utility.yul\":2255:2264   */\n      dup3\n        /* \"#utility.yul\":2236:2265   */\n      tag_267\n      jump\t// in\n    tag_289:\n        /* \"#utility.yul\":2226:2265   */\n      swap4\n        /* \"#utility.yul\":2085:2271   */\n      swap3\n      pop\n      pop\n      pop\n      jump\t// out\n        /* \"#utility.yul\":2484:2744   */\n    tag_94:\n        /* \"#utility.yul\":2552:2558   */\n      0x00\n        /* \"#utility.yul\":2560:2566   */\n      dup1\n        /* \"#utility.yul\":2613:2615   */\n      0x40\n        /* \"#utility.yul\":2601:2610   */\n      dup4\n        /* \"#utility.yul\":2592:2599   */\n      dup6\n        /* \"#utility.yul\":2588:2611   */\n      sub\n        /* \"#utility.yul\":2584:2616   */\n      slt\n        /* \"#utility.yul\":2581:2633   */\n      iszero\n      tag_292\n      jumpi\n        /* \"#utility.yul\":2629:2630   */\n      0x00\n        /* \"#utility.yul\":2626:2627   */\n      dup1\n        /* \"#utility.yul\":2619:2631   */\n      revert\n        /* \"#utility.yul\":2581:2633   */\n    tag_292:\n        /* \"#utility.yul\":2652:2681   */\n      tag_293\n        /* \"#utility.yul\":2671:2680   */\n      dup4\n        /* \"#utility.yul\":2652:2681   */\n      tag_267\n      jump\t// in\n    tag_293:\n        /* \"#utility.yul\":2642:2681   */\n      swap2\n      pop\n        /* \"#utility.yul\":2700:2738   */\n      tag_294\n        /* \"#utility.yul\":2734:2736   */\n      0x20\n        /* \"#utility.yul\":2723:2732   */\n      dup5\n        /* \"#utility.yul\":2719:2737   */\n      add\n        /* \"#utility.yul\":2700:2738   */\n      tag_267\n      jump\t// in\n    tag_294:\n        /* \"#utility.yul\":2690:2738   */\n      swap1\n      pop\n        /* \"#utility.yul\":2484:2744   */\n      swap3\n      pop\n      swap3\n      swap1\n      pop\n      jump\t// out\n        /* \"#utility.yul\":2749:3129   */\n    tag_102:\n        /* \"#utility.yul\":2828:2829   */\n      0x01\n        /* \"#utility.yul\":2824:2836   */\n      dup2\n      dup2\n      shr\n      swap1\n        /* \"#utility.yul\":2871:2883   */\n      dup3\n      and\n      dup1\n        /* \"#utility.yul\":2892:2953   */\n      tag_296\n      jumpi\n        /* \"#utility.yul\":2946:2950   */\n      0x7f\n        /* \"#utility.yul\":2938:2944   */\n      dup3\n        /* \"#utility.yul\":2934:2951   */\n      and\n        /* \"#utility.yul\":2924:2951   */\n      swap2\n      pop\n        /* \"#utility.yul\":2892:2953   */\n    tag_296:\n        /* \"#utility.yul\":2999:3001   */\n      0x20\n        /* \"#utility.yul\":2991:2997   */\n      dup3\n        /* \"#utility.yul\":2988:3002   */\n      lt\n        /* \"#utility.yul\":2968:2986   */\n      dup2\n        /* \"#utility.yul\":2965:3003   */\n      sub\n        /* \"#utility.yul\":2962:3123   */\n      tag_297\n      jumpi\n        /* \"#utility.yul\":3045:3055   */\n      0x4e487b71\n        /* \"#utility.yul\":3040:3043   */\n      0xe0\n        /* \"#utility.yul\":3036:3056   */\n      shl\n        /* \"#utility.yul\":3033:3034   */\n      0x00\n        /* \"#utility.yul\":3026:3057   */\n      mstore\n        /* \"#utility.yul\":3080:3084   */\n      0x22\n        /* \"#utility.yul\":3077:3078   */\n      0x04\n        /* \"#utility.yul\":3070:3085   */\n      mstore\n        /* \"#utility.yul\":3108:3112   */\n      0x24\n        /* \"#utility.yul\":3105:3106   */\n      0x00\n        /* \"#utility.yul\":3098:3113   */\n      revert\n        /* \"#utility.yul\":2962:3123   */\n    tag_297:\n      pop\n        /* \"#utility.yul\":2749:3129   */\n      swap2\n      swap1\n      pop\n      jump\t// out\n        /* \"#utility.yul\":3134:3356   */\n    tag_125:\n        /* \"#utility.yul\":3199:3208   */\n      dup1\n      dup3\n      add\n        /* \"#utility.yul\":3220:3230   */\n      dup1\n      dup3\n      gt\n        /* \"#utility.yul\":3217:3350   */\n      iszero\n      tag_107\n      jumpi\n        /* \"#utility.yul\":3272:3282   */\n      0x4e487b71\n        /* \"#utility.yul\":3267:3270   */\n      0xe0\n        /* \"#utility.yul\":3263:3283   */\n      shl\n        /* \"#utility.yul\":3260:3261   */\n      0x00\n        /* \"#utility.yul\":3253:3284   */\n      mstore\n        /* \"#utility.yul\":3307:3311   */\n      0x11\n        /* \"#utility.yul\":3304:3305   */\n      0x04\n        /* \"#utility.yul\":3297:3312   */\n      mstore\n        /* \"#utility.yul\":3335:3339   */\n      0x24\n        /* \"#utility.yul\":3332:3333   */\n      0x00\n        /* \"#utility.yul\":3325:3340   */\n      revert\n\n    auxdata: 0xa2646970667358221220c347efe5a3836a3532c7f801bf8385591dcf1156abb52c8d5551206fe80d6a6864736f6c63430008130033\n}\n",
				"bytecode": {
					"linkReferences": {},
					"object": "60806040523480156200001157600080fd5b506040805180820182526004808252634d454d4560e01b60208084018290528451808601909552918452908301529060036200004e8382620002e1565b5060046200005d8282620002e1565b50506005805460ff19169055506200007533620000a2565b6200009c33620000886012600a620004c2565b620000969061c350620004da565b620000fc565b6200050a565b600580546001600160a01b03838116610100818102610100600160a81b031985161790945560405193909204169182907f8be0079c531659141344cd1fd0a4f28419497f9722a3daafe3b4186f6b6457e090600090a35050565b6001600160a01b038216620001585760405162461bcd60e51b815260206004820152601f60248201527f45524332303a206d696e7420746f20746865207a65726f20616464726573730060448201526064015b60405180910390fd5b6200016660008383620001d1565b80600260008282546200017a9190620004f4565b90915550506001600160a01b038216600081815260208181526040808320805486019055518481527fddf252ad1be2c89b69c2b068fc378daa952ba7f163c4a11628f55a4df523b3ef910160405180910390a35050565b620001db620001f3565b620001ee8383836001600160e01b038416565b505050565b60055460ff16156200023b5760405162461bcd60e51b815260206004820152601060248201526f14185d5cd8589b194e881c185d5cd95960821b60448201526064016200014f565b565b634e487b7160e01b600052604160045260246000fd5b600181811c908216806200026857607f821691505b6020821081036200028957634e487b7160e01b600052602260045260246000fd5b50919050565b601f821115620001ee57600081815260208120601f850160051c81016020861015620002b85750805b601f850160051c820191505b81811015620002d957828155600101620002c4565b505050505050565b81516001600160401b03811115620002fd57620002fd6200023d565b62000315816200030e845462000253565b846200028f565b602080601f8311600181146200034d5760008415620003345750858301515b600019600386901b1c1916600185901b178555620002d9565b600085815260208120601f198616915b828110156200037e578886015182559484019460019091019084016200035d565b50858210156200039d5787850151600019600388901b60f8161c191681555b5050505050600190811b01905550565b634e487b7160e01b600052601160045260246000fd5b600181815b8085111562000404578160001904821115620003e857620003e8620003ad565b80851615620003f657918102915b93841c9390800290620003c8565b509250929050565b6000826200041d57506001620004bc565b816200042c57506000620004bc565b8160018114620004455760028114620004505762000470565b6001915050620004bc565b60ff841115620004645762000464620003ad565b50506001821b620004bc565b5060208310610133831016604e8410600b841016171562000495575081810a620004bc565b620004a18383620003c3565b8060001904821115620004b857620004b8620003ad565b0290505b92915050565b6000620004d360ff8416836200040c565b9392505050565b8082028115828204841417620004bc57620004bc620003ad565b80820180821115620004bc57620004bc620003ad565b610e5c806200051a6000396000f3fe608060405234801561001057600080fd5b506004361061012c5760003560e01c806370a08231116100ad57806395d89b411161007157806395d89b4114610269578063a457c2d714610271578063a9059cbb14610284578063dd62ed3e14610297578063f2fde38b146102aa57600080fd5b806370a08231146101f4578063715018a61461021d57806379cc6790146102255780638456cb59146102385780638da5cb5b1461024057600080fd5b806339509351116100f457806339509351146101a65780633f4ba83a146101b957806340c10f19146101c357806342966c68146101d65780635c975abb146101e957600080fd5b806306fdde0314610131578063095ea7b31461014f57806318160ddd1461017257806323b872dd14610184578063313ce56714610197575b600080fd5b6101396102bd565b6040516101469190610c8d565b60405180910390f35b61016261015d366004610cf7565b61034f565b6040519015158152602001610146565b6002545b604051908152602001610146565b610162610192366004610d21565b610369565b60405160128152602001610146565b6101626101b4366004610cf7565b61038d565b6101c16103af565b005b6101c16101d1366004610cf7565b6103c1565b6101c16101e4366004610d5d565b6103d7565b60055460ff16610162565b610176610202366004610d76565b6001600160a01b031660009081526020819052604090205490565b6101c16103e4565b6101c1610233366004610cf7565b6103f6565b6101c161040b565b60055461010090046001600160a01b03166040516001600160a01b039091168152602001610146565b61013961041b565b61016261027f366004610cf7565b61042a565b610162610292366004610cf7565b6104aa565b6101766102a5366004610d98565b6104b8565b6101c16102b8366004610d76565b6104e3565b6060600380546102cc90610dcb565b80601f01602080910402602001604051908101604052809291908181526020018280546102f890610dcb565b80156103455780601f1061031a57610100808354040283529160200191610345565b820191906000526020600020905b81548152906001019060200180831161032857829003601f168201915b5050505050905090565b60003361035d818585610559565b60019150505b92915050565b60003361037785828561067e565b6103828585856106f8565b506001949350505050565b60003361035d8185856103a083836104b8565b6103aa9190610e05565b610559565b6103b76108a7565b6103bf610907565b565b6103c96108a7565b6103d38282610959565b5050565b6103e13382610a24565b50565b6103ec6108a7565b6103bf6000610b5a565b61040182338361067e565b6103d38282610a24565b6104136108a7565b6103bf610bb4565b6060600480546102cc90610dcb565b6000338161043882866104b8565b90508381101561049d5760405162461bcd60e51b815260206004820152602560248201527f45524332303a2064656372656173656420616c6c6f77616e63652062656c6f77604482015264207a65726f60d81b60648201526084015b60405180910390fd5b6103828286868403610559565b60003361035d8185856106f8565b6001600160a01b03918216600090815260016020908152604080832093909416825291909152205490565b6104eb6108a7565b6001600160a01b0381166105505760405162461bcd60e51b815260206004820152602660248201527f4f776e61626c653a206e6577206f776e657220697320746865207a65726f206160448201526564647265737360d01b6064820152608401610494565b6103e181610b5a565b6001600160a01b0383166105bb5760405162461bcd60e51b8152602060048201526024808201527f45524332303a20617070726f76652066726f6d20746865207a65726f206164646044820152637265737360e01b6064820152608401610494565b6001600160a01b03821661061c5760405162461bcd60e51b815260206004820152602260248201527f45524332303a20617070726f766520746f20746865207a65726f206164647265604482015261737360f01b6064820152608401610494565b6001600160a01b0383811660008181526001602090815260408083209487168084529482529182902085905590518481527f8c5be1e5ebec7d5bd14f71427d1e84f3dd0314c0f7b2291e5b200ac8c7c3b92591015b60405180910390a3505050565b600061068a84846104b8565b905060001981146106f257818110156106e55760405162461bcd60e51b815260206004820152601d60248201527f45524332303a20696e73756666696369656e7420616c6c6f77616e63650000006044820152606401610494565b6106f28484848403610559565b50505050565b6001600160a01b03831661075c5760405162461bcd60e51b815260206004820152602560248201527f45524332303a207472616e736665722066726f6d20746865207a65726f206164604482015264647265737360d81b6064820152608401610494565b6001600160a01b0382166107be5760405162461bcd60e51b815260206004820152602360248201527f45524332303a207472616e7366657220746f20746865207a65726f206164647260448201526265737360e81b6064820152608401610494565b6107c9838383610bf1565b6001600160a01b038316600090815260208190526040902054818110156108415760405162461bcd60e51b815260206004820152602660248201527f45524332303a207472616e7366657220616d6f756e7420657863656564732062604482015265616c616e636560d01b6064820152608401610494565b6001600160a01b03848116600081815260208181526040808320878703905593871680835291849020805487019055925185815290927fddf252ad1be2c89b69c2b068fc378daa952ba7f163c4a11628f55a4df523b3ef910160405180910390a36106f2565b6005546001600160a01b036101009091041633146103bf5760405162461bcd60e51b815260206004820181905260248201527f4f776e61626c653a2063616c6c6572206973206e6f7420746865206f776e65726044820152606401610494565b61090f610bfe565b6005805460ff191690557f5db9ee0a495bf2e6ff9c91a7834c1ba4fdd244a5e8aa4e537bd38aeae4b073aa335b6040516001600160a01b03909116815260200160405180910390a1565b6001600160a01b0382166109af5760405162461bcd60e51b815260206004820152601f60248201527f45524332303a206d696e7420746f20746865207a65726f2061646472657373006044820152606401610494565b6109bb60008383610bf1565b80600260008282546109cd9190610e05565b90915550506001600160a01b038216600081815260208181526040808320805486019055518481527fddf252ad1be2c89b69c2b068fc378daa952ba7f163c4a11628f55a4df523b3ef910160405180910390a35050565b6001600160a01b038216610a845760405162461bcd60e51b815260206004820152602160248201527f45524332303a206275726e2066726f6d20746865207a65726f206164647265736044820152607360f81b6064820152608401610494565b610a9082600083610bf1565b6001600160a01b03821660009081526020819052604090205481811015610b045760405162461bcd60e51b815260206004820152602260248201527f45524332303a206275726e20616d6f756e7420657863656564732062616c616e604482015261636560f01b6064820152608401610494565b6001600160a01b0383166000818152602081815260408083208686039055600280548790039055518581529192917fddf252ad1be2c89b69c2b068fc378daa952ba7f163c4a11628f55a4df523b3ef9101610671565b600580546001600160a01b03838116610100818102610100600160a81b031985161790945560405193909204169182907f8be0079c531659141344cd1fd0a4f28419497f9722a3daafe3b4186f6b6457e090600090a35050565b610bbc610c47565b6005805460ff191660011790557f62e78cea01bee320cd4e420270b5ea74000d11b0c9f74754ebdbfc544b05a25861093c3390565b610bf9610c47565b505050565b60055460ff166103bf5760405162461bcd60e51b815260206004820152601460248201527314185d5cd8589b194e881b9bdd081c185d5cd95960621b6044820152606401610494565b60055460ff16156103bf5760405162461bcd60e51b815260206004820152601060248201526f14185d5cd8589b194e881c185d5cd95960821b6044820152606401610494565b600060208083528351808285015260005b81811015610cba57858101830151858201604001528201610c9e565b506000604082860101526040601f19601f8301168501019250505092915050565b80356001600160a01b0381168114610cf257600080fd5b919050565b60008060408385031215610d0a57600080fd5b610d1383610cdb565b946020939093013593505050565b600080600060608486031215610d3657600080fd5b610d3f84610cdb565b9250610d4d60208501610cdb565b9150604084013590509250925092565b600060208284031215610d6f57600080fd5b5035919050565b600060208284031215610d8857600080fd5b610d9182610cdb565b9392505050565b60008060408385031215610dab57600080fd5b610db483610cdb565b9150610dc260208401610cdb565b90509250929050565b600181811c90821680610ddf57607f821691505b602082108103610dff57634e487b7160e01b600052602260045260246000fd5b50919050565b8082018082111561036357634e487b7160e01b600052601160045260246000fdfea2646970667358221220c347efe5a3836a3532c7f801bf8385591dcf1156abb52c8d5551206fe80d6a6864736f6c63430008130033",
					"opcodes": "PUSH1 0x80 PUSH1 0x40 MSTORE CALLVALUE DUP1 ISZERO PUSH3 0x11 JUMPI PUSH1 0x0 DUP1 REVERT JUMPDEST POP PUSH1 0x40 DUP1 MLOAD DUP1 DUP3 ADD DUP3 MSTORE PUSH1 0x4 DUP1 DUP3 MSTORE PUSH4 0x4D454D45 PUSH1 0xE0 SHL PUSH1 0x20 DUP1 DUP5 ADD DUP3 SWAP1 MSTORE DUP5 MLOAD DUP1 DUP7 ADD SWAP1 SWAP6 MSTORE SWAP2 DUP5 MSTORE SWAP1 DUP4 ADD MSTORE SWAP1 PUSH1 0x3 PUSH3 0x4E DUP4 DUP3 PUSH3 0x2E1 JUMP JUMPDEST POP PUSH1 0x4 PUSH3 0x5D DUP3 DUP3 PUSH3 0x2E1 JUMP JUMPDEST POP POP PUSH1 0x5 DUP1 SLOAD PUSH1 0xFF NOT AND SWAP1 SSTORE POP PUSH3 0x75 CALLER PUSH3 0xA2 JUMP JUMPDEST PUSH3 0x9C CALLER PUSH3 0x88 PUSH1 0x12 PUSH1 0xA PUSH3 0x4C2 JUMP JUMPDEST PUSH3 0x96 SWAP1 PUSH2 0xC350 PUSH3 0x4DA JUMP JUMPDEST PUSH3 0xFC JUMP JUMPDEST PUSH3 0x50A JUMP JUMPDEST PUSH1 0x5 DUP1 SLOAD PUSH1 0x1 PUSH1 0x1 PUSH1 0xA0 SHL SUB DUP4 DUP2 AND PUSH2 0x100 DUP2 DUP2 MUL PUSH2 0x100 PUSH1 0x1 PUSH1 0xA8 SHL SUB NOT DUP6 AND OR SWAP1 SWAP5 SSTORE PUSH1 0x40 MLOAD SWAP4 SWAP1 SWAP3 DIV AND SWAP2 DUP3 SWAP1 PUSH32 0x8BE0079C531659141344CD1FD0A4F28419497F9722A3DAAFE3B4186F6B6457E0 SWAP1 PUSH1 0x0 SWAP1 LOG3 POP POP JUMP JUMPDEST PUSH1 0x1 PUSH1 0x1 PUSH1 0xA0 SHL SUB DUP3 AND PUSH3 0x158 JUMPI PUSH1 0x40 MLOAD PUSH3 0x461BCD PUSH1 0xE5 SHL DUP2 MSTORE PUSH1 0x20 PUSH1 0x4 DUP3 ADD MSTORE PUSH1 0x1F PUSH1 0x24 DUP3 ADD MSTORE PUSH32 0x45524332303A206D696E7420746F20746865207A65726F206164647265737300 PUSH1 0x44 DUP3 ADD MSTORE PUSH1 0x64 ADD JUMPDEST PUSH1 0x40 MLOAD DUP1 SWAP2 SUB SWAP1 REVERT JUMPDEST PUSH3 0x166 PUSH1 0x0 DUP4 DUP4 PUSH3 0x1D1 JUMP JUMPDEST DUP1 PUSH1 0x2 PUSH1 0x0 DUP3 DUP3 SLOAD PUSH3 0x17A SWAP2 SWAP1 PUSH3 0x4F4 JUMP JUMPDEST SWAP1 SWAP2 SSTORE POP POP PUSH1 0x1 PUSH1 0x1 PUSH1 0xA0 SHL SUB DUP3 AND PUSH1 0x0 DUP2 DUP2 MSTORE PUSH1 0x20 DUP2 DUP2 MSTORE PUSH1 0x40 DUP1 DUP4 KECCAK256 DUP1 SLOAD DUP7 ADD SWAP1 SSTORE MLOAD DUP5 DUP2 MSTORE PUSH32 0xDDF252AD1BE2C89B69C2B068FC378DAA952BA7F163C4A11628F55A4DF523B3EF SWAP2 ADD PUSH1 0x40 MLOAD DUP1 SWAP2 SUB SWAP1 LOG3 POP POP JUMP JUMPDEST PUSH3 0x1DB PUSH3 0x1F3 JUMP JUMPDEST PUSH3 0x1EE DUP4 DUP4 DUP4 PUSH1 0x1 PUSH1 0x1 PUSH1 0xE0 SHL SUB DUP5 AND JUMP JUMPDEST POP POP POP JUMP JUMPDEST PUSH1 0x5 SLOAD PUSH1 0xFF AND ISZERO PUSH3 0x23B JUMPI PUSH1 0x40 MLOAD PUSH3 0x461BCD PUSH1 0xE5 SHL DUP2 MSTORE PUSH1 0x20 PUSH1 0x4 DUP3 ADD MSTORE PUSH1 0x10 PUSH1 0x24 DUP3 ADD MSTORE PUSH16 0x14185D5CD8589B194E881C185D5CD959 PUSH1 0x82 SHL PUSH1 0x44 DUP3 ADD MSTORE PUSH1 0x64 ADD PUSH3 0x14F JUMP JUMPDEST JUMP JUMPDEST PUSH4 0x4E487B71 PUSH1 0xE0 SHL PUSH1 0x0 MSTORE PUSH1 0x41 PUSH1 0x4 MSTORE PUSH1 0x24 PUSH1 0x0 REVERT JUMPDEST PUSH1 0x1 DUP2 DUP2 SHR SWAP1 DUP3 AND DUP1 PUSH3 0x268 JUMPI PUSH1 0x7F DUP3 AND SWAP2 POP JUMPDEST PUSH1 0x20 DUP3 LT DUP2 SUB PUSH3 0x289 JUMPI PUSH4 0x4E487B71 PUSH1 0xE0 SHL PUSH1 0x0 MSTORE PUSH1 0x22 PUSH1 0x4 MSTORE PUSH1 0x24 PUSH1 0x0 REVERT JUMPDEST POP SWAP2 SWAP1 POP JUMP JUMPDEST PUSH1 0x1F DUP3 GT ISZERO PUSH3 0x1EE JUMPI PUSH1 0x0 DUP2 DUP2 MSTORE PUSH1 0x20 DUP2 KECCAK256 PUSH1 0x1F DUP6 ADD PUSH1 0x5 SHR DUP2 ADD PUSH1 0x20 DUP7 LT ISZERO PUSH3 0x2B8 JUMPI POP DUP1 JUMPDEST PUSH1 0x1F DUP6 ADD PUSH1 0x5 SHR DUP3 ADD SWAP2 POP JUMPDEST DUP2 DUP2 LT ISZERO PUSH3 0x2D9 JUMPI DUP3 DUP2 SSTORE PUSH1 0x1 ADD PUSH3 0x2C4 JUMP JUMPDEST POP POP POP POP POP POP JUMP JUMPDEST DUP2 MLOAD PUSH1 0x1 PUSH1 0x1 PUSH1 0x40 SHL SUB DUP2 GT ISZERO PUSH3 0x2FD JUMPI PUSH3 0x2FD PUSH3 0x23D JUMP JUMPDEST PUSH3 0x315 DUP2 PUSH3 0x30E DUP5 SLOAD PUSH3 0x253 JUMP JUMPDEST DUP5 PUSH3 0x28F JUMP JUMPDEST PUSH1 0x20 DUP1 PUSH1 0x1F DUP4 GT PUSH1 0x1 DUP2 EQ PUSH3 0x34D JUMPI PUSH1 0x0 DUP5 ISZERO PUSH3 0x334 JUMPI POP DUP6 DUP4 ADD MLOAD JUMPDEST PUSH1 0x0 NOT PUSH1 0x3 DUP7 SWAP1 SHL SHR NOT AND PUSH1 0x1 DUP6 SWAP1 SHL OR DUP6 SSTORE PUSH3 0x2D9 JUMP JUMPDEST PUSH1 0x0 DUP6 DUP2 MSTORE PUSH1 0x20 DUP2 KECCAK256 PUSH1 0x1F NOT DUP7 AND SWAP2 JUMPDEST DUP3 DUP2 LT ISZERO PUSH3 0x37E JUMPI DUP9 DUP7 ADD MLOAD DUP3 SSTORE SWAP5 DUP5 ADD SWAP5 PUSH1 0x1 SWAP1 SWAP2 ADD SWAP1 DUP5 ADD PUSH3 0x35D JUMP JUMPDEST POP DUP6 DUP3 LT ISZERO PUSH3 0x39D JUMPI DUP8 DUP6 ADD MLOAD PUSH1 0x0 NOT PUSH1 0x3 DUP9 SWAP1 SHL PUSH1 0xF8 AND SHR NOT AND DUP2 SSTORE JUMPDEST POP POP POP POP POP PUSH1 0x1 SWAP1 DUP2 SHL ADD SWAP1 SSTORE POP JUMP JUMPDEST PUSH4 0x4E487B71 PUSH1 0xE0 SHL PUSH1 0x0 MSTORE PUSH1 0x11 PUSH1 0x4 MSTORE PUSH1 0x24 PUSH1 0x0 REVERT JUMPDEST PUSH1 0x1 DUP2 DUP2 JUMPDEST DUP1 DUP6 GT ISZERO PUSH3 0x404 JUMPI DUP2 PUSH1 0x0 NOT DIV DUP3 GT ISZERO PUSH3 0x3E8 JUMPI PUSH3 0x3E8 PUSH3 0x3AD JUMP JUMPDEST DUP1 DUP6 AND ISZERO PUSH3 0x3F6 JUMPI SWAP2 DUP2 MUL SWAP2 JUMPDEST SWAP4 DUP5 SHR SWAP4 SWAP1 DUP1 MUL SWAP1 PUSH3 0x3C8 JUMP JUMPDEST POP SWAP3 POP SWAP3 SWAP1 POP JUMP JUMPDEST PUSH1 0x0 DUP3 PUSH3 0x41D JUMPI POP PUSH1 0x1 PUSH3 0x4BC JUMP JUMPDEST DUP2 PUSH3 0x42C JUMPI POP PUSH1 0x0 PUSH3 0x4BC JUMP JUMPDEST DUP2 PUSH1 0x1 DUP2 EQ PUSH3 0x445 JUMPI PUSH1 0x2 DUP2 EQ PUSH3 0x450 JUMPI PUSH3 0x470 JUMP JUMPDEST PUSH1 0x1 SWAP2 POP POP PUSH3 0x4BC JUMP JUMPDEST PUSH1 0xFF DUP5 GT ISZERO PUSH3 0x464 JUMPI PUSH3 0x464 PUSH3 0x3AD JUMP JUMPDEST POP POP PUSH1 0x1 DUP3 SHL PUSH3 0x4BC JUMP JUMPDEST POP PUSH1 0x20 DUP4 LT PUSH2 0x133 DUP4 LT AND PUSH1 0x4E DUP5 LT PUSH1 0xB DUP5 LT AND OR ISZERO PUSH3 0x495 JUMPI POP DUP2 DUP2 EXP PUSH3 0x4BC JUMP JUMPDEST PUSH3 0x4A1 DUP4 DUP4 PUSH3 0x3C3 JUMP JUMPDEST DUP1 PUSH1 0x0 NOT DIV DUP3 GT ISZERO PUSH3 0x4B8 JUMPI PUSH3 0x4B8 PUSH3 0x3AD JUMP JUMPDEST MUL SWAP1 POP JUMPDEST SWAP3 SWAP2 POP POP JUMP JUMPDEST PUSH1 0x0 PUSH3 0x4D3 PUSH1 0xFF DUP5 AND DUP4 PUSH3 0x40C JUMP JUMPDEST SWAP4 SWAP3 POP POP POP JUMP JUMPDEST DUP1 DUP3 MUL DUP2 ISZERO DUP3 DUP3 DIV DUP5 EQ OR PUSH3 0x4BC JUMPI PUSH3 0x4BC PUSH3 0x3AD JUMP JUMPDEST DUP1 DUP3 ADD DUP1 DUP3 GT ISZERO PUSH3 0x4BC JUMPI PUSH3 0x4BC PUSH3 0x3AD JUMP JUMPDEST PUSH2 0xE5C DUP1 PUSH3 0x51A PUSH1 0x0 CODECOPY PUSH1 0x0 RETURN INVALID PUSH1 0x80 PUSH1 0x40 MSTORE CALLVALUE DUP1 ISZERO PUSH2 0x10 JUMPI PUSH1 0x0 DUP1 REVERT JUMPDEST POP PUSH1 0x4 CALLDATASIZE LT PUSH2 0x12C JUMPI PUSH1 0x0 CALLDATALOAD PUSH1 0xE0 SHR DUP1 PUSH4 0x70A08231 GT PUSH2 0xAD JUMPI DUP1 PUSH4 0x95D89B41 GT PUSH2 0x71 JUMPI DUP1 PUSH4 0x95D89B41 EQ PUSH2 0x269 JUMPI DUP1 PUSH4 0xA457C2D7 EQ PUSH2 0x271 JUMPI DUP1 PUSH4 0xA9059CBB EQ PUSH2 0x284 JUMPI DUP1 PUSH4 0xDD62ED3E EQ PUSH2 0x297 JUMPI DUP1 PUSH4 0xF2FDE38B EQ PUSH2 0x2AA JUMPI PUSH1 0x0 DUP1 REVERT JUMPDEST DUP1 PUSH4 0x70A08231 EQ PUSH2 0x1F4 JUMPI DUP1 PUSH4 0x715018A6 EQ PUSH2 0x21D JUMPI DUP1 PUSH4 0x79CC6790 EQ PUSH2 0x225 JUMPI DUP1 PUSH4 0x8456CB59 EQ PUSH2 0x238 JUMPI DUP1 PUSH4 0x8DA5CB5B EQ PUSH2 0x240 JUMPI PUSH1 0x0 DUP1 REVERT JUMPDEST DUP1 PUSH4 0x39509351 GT PUSH2 0xF4 JUMPI DUP1 PUSH4 0x39509351 EQ PUSH2 0x1A6 JUMPI DUP1 PUSH4 0x3F4BA83A EQ PUSH2 0x1B9 JUMPI DUP1 PUSH4 0x40C10F19 EQ PUSH2 0x1C3 JUMPI DUP1 PUSH4 0x42966C68 EQ PUSH2 0x1D6 JUMPI DUP1 PUSH4 0x5C975ABB EQ PUSH2 0x1E9 JUMPI PUSH1 0x0 DUP1 REVERT JUMPDEST DUP1 PUSH4 0x6FDDE03 EQ PUSH2 0x131 JUMPI DUP1 PUSH4 0x95EA7B3 EQ PUSH2 0x14F JUMPI DUP1 PUSH4 0x18160DDD EQ PUSH2 0x172 JUMPI DUP1 PUSH4 0x23B872DD EQ PUSH2 0x184 JUMPI DUP1 PUSH4 0x313CE567 EQ PUSH2 0x197 JUMPI JUMPDEST PUSH1 0x0 DUP1 REVERT JUMPDEST PUSH2 0x139 PUSH2 0x2BD JUMP JUMPDEST PUSH1 0x40 MLOAD PUSH2 0x146 SWAP2 SWAP1 PUSH2 0xC8D JUMP JUMPDEST PUSH1 0x40 MLOAD DUP1 SWAP2 SUB SWAP1 RETURN JUMPDEST PUSH2 0x162 PUSH2 0x15D CALLDATASIZE PUSH1 0x4 PUSH2 0xCF7 JUMP JUMPDEST PUSH2 0x34F JUMP JUMPDEST PUSH1 0x40 MLOAD SWAP1 ISZERO ISZERO DUP2 MSTORE PUSH1 0x20 ADD PUSH2 0x146 JUMP JUMPDEST PUSH1 0x2 SLOAD JUMPDEST PUSH1 0x40 MLOAD SWAP1 DUP2 MSTORE PUSH1 0x20 ADD PUSH2 0x146 JUMP JUMPDEST PUSH2 0x162 PUSH2 0x192 CALLDATASIZE PUSH1 0x4 PUSH2 0xD21 JUMP JUMPDEST PUSH2 0x369 JUMP JUMPDEST PUSH1 0x40 MLOAD PUSH1 0x12 DUP2 MSTORE PUSH1 0x20 ADD PUSH2 0x146 JUMP JUMPDEST PUSH2 0x162 PUSH2 0x1B4 CALLDATASIZE PUSH1 0x4 PUSH2 0xCF7 JUMP JUMPDEST PUSH2 0x38D JUMP JUMPDEST PUSH2 0x1C1 PUSH2 0x3AF JUMP JUMPDEST STOP JUMPDEST PUSH2 0x1C1 PUSH2 0x1D1 CALLDATASIZE PUSH1 0x4 PUSH2 0xCF7 JUMP JUMPDEST PUSH2 0x3C1 JUMP JUMPDEST PUSH2 0x1C1 PUSH2 0x1E4 CALLDATASIZE PUSH1 0x4 PUSH2 0xD5D JUMP JUMPDEST PUSH2 0x3D7 JUMP JUMPDEST PUSH1 0x5 SLOAD PUSH1 0xFF AND PUSH2 0x162 JUMP JUMPDEST PUSH2 0x176 PUSH2 0x202 CALLDATASIZE PUSH1 0x4 PUSH2 0xD76 JUMP JUMPDEST PUSH1 0x1 PUSH1 0x1 PUSH1 0xA0 SHL SUB AND PUSH1 0x0 SWAP1 DUP2 MSTORE PUSH1 0x20 DUP2 SWAP1 MSTORE PUSH1 0x40 SWAP1 KECCAK256 SLOAD SWAP1 JUMP JUMPDEST PUSH2 0x1C1 PUSH2 0x3E4 JUMP JUMPDEST PUSH2 0x1C1 PUSH2 0x233 CALLDATASIZE PUSH1 0x4 PUSH2 0xCF7 JUMP JUMPDEST PUSH2 0x3F6 JUMP JUMPDEST PUSH2 0x1C1 PUSH2 0x40B JUMP JUMPDEST PUSH1 0x5 SLOAD PUSH2 0x100 SWAP1 DIV PUSH1 0x1 PUSH1 0x1 PUSH1 0xA0 SHL SUB AND PUSH1 0x40 MLOAD PUSH1 0x1 PUSH1 0x1 PUSH1 0xA0 SHL SUB SWAP1 SWAP2 AND DUP2 MSTORE PUSH1 0x20 ADD PUSH2 0x146 JUMP JUMPDEST PUSH2 0x139 PUSH2 0x41B JUMP JUMPDEST PUSH2 0x162 PUSH2 0x27F CALLDATASIZE PUSH1 0x4 PUSH2 0xCF7 JUMP JUMPDEST PUSH2 0x42A JUMP JUMPDEST PUSH2 0x162 PUSH2 0x292 CALLDATASIZE PUSH1 0x4 PUSH2 0xCF7 JUMP JUMPDEST PUSH2 0x4AA JUMP JUMPDEST PUSH2 0x176 PUSH2 0x2A5 CALLDATASIZE PUSH1 0x4 PUSH2 0xD98 JUMP JUMPDEST PUSH2 0x4B8 JUMP JUMPDEST PUSH2 0x1C1 PUSH2 0x2B8 CALLDATASIZE PUSH1 0x4 PUSH2 0xD76 JUMP JUMPDEST PUSH2 0x4E3 JUMP JUMPDEST PUSH1 0x60 PUSH1 0x3 DUP1 SLOAD PUSH2 0x2CC SWAP1 PUSH2 0xDCB JUMP JUMPDEST DUP1 PUSH1 0x1F ADD PUSH1 0x20 DUP1 SWAP2 DIV MUL PUSH1 0x20 ADD PUSH1 0x40 MLOAD SWAP1 DUP2 ADD PUSH1 0x40 MSTORE DUP1 SWAP3 SWAP2 SWAP1 DUP2 DUP2 MSTORE PUSH1 0x20 ADD DUP3 DUP1 SLOAD PUSH2 0x2F8 SWAP1 PUSH2 0xDCB JUMP JUMPDEST DUP1 ISZERO PUSH2 0x345 JUMPI DUP1 PUSH1 0x1F LT PUSH2 0x31A JUMPI PUSH2 0x100 DUP1 DUP4 SLOAD DIV MUL DUP4 MSTORE SWAP2 PUSH1 0x20 ADD SWAP2 PUSH2 0x345 JUMP JUMPDEST DUP3 ADD SWAP2 SWAP1 PUSH1 0x0 MSTORE PUSH1 0x20 PUSH1 0x0 KECCAK256 SWAP1 JUMPDEST DUP2 SLOAD DUP2 MSTORE SWAP1 PUSH1 0x1 ADD SWAP1 PUSH1 0x20 ADD DUP1 DUP4 GT PUSH2 0x328 JUMPI DUP3 SWAP1 SUB PUSH1 0x1F AND DUP3 ADD SWAP2 JUMPDEST POP POP POP POP POP SWAP1 POP SWAP1 JUMP JUMPDEST PUSH1 0x0 CALLER PUSH2 0x35D DUP2 DUP6 DUP6 PUSH2 0x559 JUMP JUMPDEST PUSH1 0x1 SWAP2 POP POP JUMPDEST SWAP3 SWAP2 POP POP JUMP JUMPDEST PUSH1 0x0 CALLER PUSH2 0x377 DUP6 DUP3 DUP6 PUSH2 0x67E JUMP JUMPDEST PUSH2 0x382 DUP6 DUP6 DUP6 PUSH2 0x6F8 JUMP JUMPDEST POP PUSH1 0x1 SWAP5 SWAP4 POP POP POP POP JUMP JUMPDEST PUSH1 0x0 CALLER PUSH2 0x35D DUP2 DUP6 DUP6 PUSH2 0x3A0 DUP4 DUP4 PUSH2 0x4B8 JUMP JUMPDEST PUSH2 0x3AA SWAP2 SWAP1 PUSH2 0xE05 JUMP JUMPDEST PUSH2 0x559 JUMP JUMPDEST PUSH2 0x3B7 PUSH2 0x8A7 JUMP JUMPDEST PUSH2 0x3BF PUSH2 0x907 JUMP JUMPDEST JUMP JUMPDEST PUSH2 0x3C9 PUSH2 0x8A7 JUMP JUMPDEST PUSH2 0x3D3 DUP3 DUP3 PUSH2 0x959 JUMP JUMPDEST POP POP JUMP JUMPDEST PUSH2 0x3E1 CALLER DUP3 PUSH2 0xA24 JUMP JUMPDEST POP JUMP JUMPDEST PUSH2 0x3EC PUSH2 0x8A7 JUMP JUMPDEST PUSH2 0x3BF PUSH1 0x0 PUSH2 0xB5A JUMP JUMPDEST PUSH2 0x401 DUP3 CALLER DUP4 PUSH2 0x67E JUMP JUMPDEST PUSH2 0x3D3 DUP3 DUP3 PUSH2 0xA24 JUMP JUMPDEST PUSH2 0x413 PUSH2 0x8A7 JUMP JUMPDEST PUSH2 0x3BF PUSH2 0xBB4 JUMP JUMPDEST PUSH1 0x60 PUSH1 0x4 DUP1 SLOAD PUSH2 0x2CC SWAP1 PUSH2 0xDCB JUMP JUMPDEST PUSH1 0x0 CALLER DUP2 PUSH2 0x438 DUP3 DUP7 PUSH2 0x4B8 JUMP JUMPDEST SWAP1 POP DUP4 DUP2 LT ISZERO PUSH2 0x49D JUMPI PUSH1 0x40 MLOAD PUSH3 0x461BCD PUSH1 0xE5 SHL DUP2 MSTORE PUSH1 0x20 PUSH1 0x4 DUP3 ADD MSTORE PUSH1 0x25 PUSH1 0x24 DUP3 ADD MSTORE PUSH32 0x45524332303A2064656372656173656420616C6C6F77616E63652062656C6F77 PUSH1 0x44 DUP3 ADD MSTORE PUSH5 0x207A65726F PUSH1 0xD8 SHL PUSH1 0x64 DUP3 ADD MSTORE PUSH1 0x84 ADD JUMPDEST PUSH1 0x40 MLOAD DUP1 SWAP2 SUB SWAP1 REVERT JUMPDEST PUSH2 0x382 DUP3 DUP7 DUP7 DUP5 SUB PUSH2 0x559 JUMP JUMPDEST PUSH1 0x0 CALLER PUSH2 0x35D DUP2 DUP6 DUP6 PUSH2 0x6F8 JUMP JUMPDEST PUSH1 0x1 PUSH1 0x1 PUSH1 0xA0 SHL SUB SWAP2 DUP3 AND PUSH1 0x0 SWAP1 DUP2 MSTORE PUSH1 0x1 PUSH1 0x20 SWAP1 DUP2 MSTORE PUSH1 0x40 DUP1 DUP4 KECCAK256 SWAP4 SWAP1 SWAP5 AND DUP3 MSTORE SWAP2 SWAP1 SWAP2 MSTORE KECCAK256 SLOAD SWAP1 JUMP JUMPDEST PUSH2 0x4EB PUSH2 0x8A7 JUMP JUMPDEST PUSH1 0x1 PUSH1 0x1 PUSH1 0xA0 SHL SUB DUP2 AND PUSH2 0x550 JUMPI PUSH1 0x40 MLOAD PUSH3 0x461BCD PUSH1 0xE5 SHL DUP2 MSTORE PUSH1 0x20 PUSH1 0x4 DUP3 ADD MSTORE PUSH1 0x26 PUSH1 0x24 DUP3 ADD MSTORE PUSH32 0x4F776E61626C653A206E6577206F776E657220697320746865207A65726F2061 PUSH1 0x44 DUP3 ADD MSTORE PUSH6 0x646472657373 PUSH1 0xD0 SHL PUSH1 0x64 DUP3 ADD MSTORE PUSH1 0x84 ADD PUSH2 0x494 JUMP JUMPDEST PUSH2 0x3E1 DUP2 PUSH2 0xB5A JUMP JUMPDEST PUSH1 0x1 PUSH1 0x1 PUSH1 0xA0 SHL SUB DUP4 AND PUSH2 0x5BB JUMPI PUSH1 0x40 MLOAD PUSH3 0x461BCD PUSH1 0xE5 SHL DUP2 MSTORE PUSH1 0x20 PUSH1 0x4 DUP3 ADD MSTORE PUSH1 0x24 DUP1 DUP3 ADD MSTORE PUSH32 0x45524332303A20617070726F76652066726F6D20746865207A65726F20616464 PUSH1 0x44 DUP3 ADD MSTORE PUSH4 0x72657373 PUSH1 0xE0 SHL PUSH1 0x64 DUP3 ADD MSTORE PUSH1 0x84 ADD PUSH2 0x494 JUMP JUMPDEST PUSH1 0x1 PUSH1 0x1 PUSH1 0xA0 SHL SUB DUP3 AND PUSH2 0x61C JUMPI PUSH1 0x40 MLOAD PUSH3 0x461BCD PUSH1 0xE5 SHL DUP2 MSTORE PUSH1 0x20 PUSH1 0x4 DUP3 ADD MSTORE PUSH1 0x22 PUSH1 0x24 DUP3 ADD MSTORE PUSH32 0x45524332303A20617070726F766520746F20746865207A65726F206164647265 PUSH1 0x44 DUP3 ADD MSTORE PUSH2 0x7373 PUSH1 0xF0 SHL PUSH1 0x64 DUP3 ADD MSTORE PUSH1 0x84 ADD PUSH2 0x494 JUMP JUMPDEST PUSH1 0x1 PUSH1 0x1 PUSH1 0xA0 SHL SUB DUP4 DUP2 AND PUSH1 0x0 DUP2 DUP2 MSTORE PUSH1 0x1 PUSH1 0x20 SWAP1 DUP2 MSTORE PUSH1 0x40 DUP1 DUP4 KECCAK256 SWAP5 DUP8 AND DUP1 DUP5 MSTORE SWAP5 DUP3 MSTORE SWAP2 DUP3 SWAP1 KECCAK256 DUP6 SWAP1 SSTORE SWAP1 MLOAD DUP5 DUP2 MSTORE PUSH32 0x8C5BE1E5EBEC7D5BD14F71427D1E84F3DD0314C0F7B2291E5B200AC8C7C3B925 SWAP2 ADD JUMPDEST PUSH1 0x40 MLOAD DUP1 SWAP2 SUB SWAP1 LOG3 POP POP POP JUMP JUMPDEST PUSH1 0x0 PUSH2 0x68A DUP5 DUP5 PUSH2 0x4B8 JUMP JUMPDEST SWAP1 POP PUSH1 0x0 NOT DUP2 EQ PUSH2 0x6F2 JUMPI DUP2 DUP2 LT ISZERO PUSH2 0x6E5 JUMPI PUSH1 0x40 MLOAD PUSH3 0x461BCD PUSH1 0xE5 SHL DUP2 MSTORE PUSH1 0x20 PUSH1 0x4 DUP3 ADD MSTORE PUSH1 0x1D PUSH1 0x24 DUP3 ADD MSTORE PUSH32 0x45524332303A20696E73756666696369656E7420616C6C6F77616E6365000000 PUSH1 0x44 DUP3 ADD MSTORE PUSH1 0x64 ADD PUSH2 0x494 JUMP JUMPDEST PUSH2 0x6F2 DUP5 DUP5 DUP5 DUP5 SUB PUSH2 0x559 JUMP JUMPDEST POP POP POP POP JUMP JUMPDEST PUSH1 0x1 PUSH1 0x1 PUSH1 0xA0 SHL SUB DUP4 AND PUSH2 0x75C JUMPI PUSH1 0x40 MLOAD PUSH3 0x461BCD PUSH1 0xE5 SHL DUP2 MSTORE PUSH1 0x20 PUSH1 0x4 DUP3 ADD MSTORE PUSH1 0x25 PUSH1 0x24 DUP3 ADD MSTORE PUSH32 0x45524332303A207472616E736665722066726F6D20746865207A65726F206164 PUSH1 0x44 DUP3 ADD MSTORE PUSH5 0x6472657373 PUSH1 0xD8 SHL PUSH1 0x64 DUP3 ADD MSTORE PUSH1 0x84 ADD PUSH2 0x494 JUMP JUMPDEST PUSH1 0x1 PUSH1 0x1 PUSH1 0xA0 SHL SUB DUP3 AND PUSH2 0x7BE JUMPI PUSH1 0x40 MLOAD PUSH3 0x461BCD PUSH1 0xE5 SHL DUP2 MSTORE PUSH1 0x20 PUSH1 0x4 DUP3 ADD MSTORE PUSH1 0x23 PUSH1 0x24 DUP3 ADD MSTORE PUSH32 0x45524332303A207472616E7366657220746F20746865207A65726F2061646472 PUSH1 0x44 DUP3 ADD MSTORE PUSH3 0x657373 PUSH1 0xE8 SHL PUSH1 0x64 DUP3 ADD MSTORE PUSH1 0x84 ADD PUSH2 0x494 JUMP JUMPDEST PUSH2 0x7C9 DUP4 DUP4 DUP4 PUSH2 0xBF1 JUMP JUMPDEST PUSH1 0x1 PUSH1 0x1 PUSH1 0xA0 SHL SUB DUP4 AND PUSH1 0x0 SWAP1 DUP2 MSTORE PUSH1 0x20 DUP2 SWAP1 MSTORE PUSH1 0x40 SWAP1 KECCAK256 SLOAD DUP2 DUP2 LT ISZERO PUSH2 0x841 JUMPI PUSH1 0x40 MLOAD PUSH3 0x461BCD PUSH1 0xE5 SHL DUP2 MSTORE PUSH1 0x20 PUSH1 0x4 DUP3 ADD MSTORE PUSH1 0x26 PUSH1 0x24 DUP3 ADD MSTORE PUSH32 0x45524332303A207472616E7366657220616D6F756E7420657863656564732062 PUSH1 0x44 DUP3 ADD MSTORE PUSH6 0x616C616E6365 PUSH1 0xD0 SHL PUSH1 0x64 DUP3 ADD MSTORE PUSH1 0x84 ADD PUSH2 0x494 JUMP JUMPDEST PUSH1 0x1 PUSH1 0x1 PUSH1 0xA0 SHL SUB DUP5 DUP2 AND PUSH1 0x0 DUP2 DUP2 MSTORE PUSH1 0x20 DUP2 DUP2 MSTORE PUSH1 0x40 DUP1 DUP4 KECCAK256 DUP8 DUP8 SUB SWAP1 SSTORE SWAP4 DUP8 AND DUP1 DUP4 MSTORE SWAP2 DUP5 SWAP1 KECCAK256 DUP1 SLOAD DUP8 ADD SWAP1 SSTORE SWAP3 MLOAD DUP6 DUP2 MSTORE SWAP1 SWAP3 PUSH32 0xDDF252AD1BE2C89B69C2B068FC378DAA952BA7F163C4A11628F55A4DF523B3EF SWAP2 ADD PUSH1 0x40 MLOAD DUP1 SWAP2 SUB SWAP1 LOG3 PUSH2 0x6F2 JUMP JUMPDEST PUSH1 0x5 SLOAD PUSH1 0x1 PUSH1 0x1 PUSH1 0xA0 SHL SUB PUSH2 0x100 SWAP1 SWAP2 DIV AND CALLER EQ PUSH2 0x3BF JUMPI PUSH1 0x40 MLOAD PUSH3 0x461BCD PUSH1 0xE5 SHL DUP2 MSTORE PUSH1 0x20 PUSH1 0x4 DUP3 ADD DUP2 SWAP1 MSTORE PUSH1 0x24 DUP3 ADD MSTORE PUSH32 0x4F776E61626C653A2063616C6C6572206973206E6F7420746865206F776E6572 PUSH1 0x44 DUP3 ADD MSTORE PUSH1 0x64 ADD PUSH2 0x494 JUMP JUMPDEST PUSH2 0x90F PUSH2 0xBFE JUMP JUMPDEST PUSH1 0x5 DUP1 SLOAD PUSH1 0xFF NOT AND SWAP1 SSTORE PUSH32 0x5DB9EE0A495BF2E6FF9C91A7834C1BA4FDD244A5E8AA4E537BD38AEAE4B073AA CALLER JUMPDEST PUSH1 0x40 MLOAD PUSH1 0x1 PUSH1 0x1 PUSH1 0xA0 SHL SUB SWAP1 SWAP2 AND DUP2 MSTORE PUSH1 0x20 ADD PUSH1 0x40 MLOAD DUP1 SWAP2 SUB SWAP1 LOG1 JUMP JUMPDEST PUSH1 0x1 PUSH1 0x1 PUSH1 0xA0 SHL SUB DUP3 AND PUSH2 0x9AF JUMPI PUSH1 0x40 MLOAD PUSH3 0x461BCD PUSH1 0xE5 SHL DUP2 MSTORE PUSH1 0x20 PUSH1 0x4 DUP3 ADD MSTORE PUSH1 0x1F PUSH1 0x24 DUP3 ADD MSTORE PUSH32 0x45524332303A206D696E7420746F20746865207A65726F206164647265737300 PUSH1 0x44 DUP3 ADD MSTORE PUSH1 0x64 ADD PUSH2 0x494 JUMP JUMPDEST PUSH2 0x9BB PUSH1 0x0 DUP4 DUP4 PUSH2 0xBF1 JUMP JUMPDEST DUP1 PUSH1 0x2 PUSH1 0x0 DUP3 DUP3 SLOAD PUSH2 0x9CD SWAP2 SWAP1 PUSH2 0xE05 JUMP JUMPDEST SWAP1 SWAP2 SSTORE POP POP PUSH1 0x1 PUSH1 0x1 PUSH1 0xA0 SHL SUB DUP3 AND PUSH1 0x0 DUP2 DUP2 MSTORE PUSH1 0x20 DUP2 DUP2 MSTORE PUSH1 0x40 DUP1 DUP4 KECCAK256 DUP1 SLOAD DUP7 ADD SWAP1 SSTORE MLOAD DUP5 DUP2 MSTORE PUSH32 0xDDF252AD1BE2C89B69C2B068FC378DAA952BA7F163C4A11628F55A4DF523B3EF SWAP2 ADD PUSH1 0x40 MLOAD DUP1 SWAP2 SUB SWAP1 LOG3 POP POP JUMP JUMPDEST PUSH1 0x1 PUSH1 0x1 PUSH1 0xA0 SHL SUB DUP3 AND PUSH2 0xA84 JUMPI PUSH1 0x40 MLOAD PUSH3 0x461BCD PUSH1 0xE5 SHL DUP2 MSTORE PUSH1 0x20 PUSH1 0x4 DUP3 ADD MSTORE PUSH1 0x21 PUSH1 0x24 DUP3 ADD MSTORE PUSH32 0x45524332303A206275726E2066726F6D20746865207A65726F20616464726573 PUSH1 0x44 DUP3 ADD MSTORE PUSH1 0x73 PUSH1 0xF8 SHL PUSH1 0x64 DUP3 ADD MSTORE PUSH1 0x84 ADD PUSH2 0x494 JUMP JUMPDEST PUSH2 0xA90 DUP3 PUSH1 0x0 DUP4 PUSH2 0xBF1 JUMP JUMPDEST PUSH1 0x1 PUSH1 0x1 PUSH1 0xA0 SHL SUB DUP3 AND PUSH1 0x0 SWAP1 DUP2 MSTORE PUSH1 0x20 DUP2 SWAP1 MSTORE PUSH1 0x40 SWAP1 KECCAK256 SLOAD DUP2 DUP2 LT ISZERO PUSH2 0xB04 JUMPI PUSH1 0x40 MLOAD PUSH3 0x461BCD PUSH1 0xE5 SHL DUP2 MSTORE PUSH1 0x20 PUSH1 0x4 DUP3 ADD MSTORE PUSH1 0x22 PUSH1 0x24 DUP3 ADD MSTORE PUSH32 0x45524332303A206275726E20616D6F756E7420657863656564732062616C616E PUSH1 0x44 DUP3 ADD MSTORE PUSH2 0x6365 PUSH1 0xF0 SHL PUSH1 0x64 DUP3 ADD MSTORE PUSH1 0x84 ADD PUSH2 0x494 JUMP JUMPDEST PUSH1 0x1 PUSH1 0x1 PUSH1 0xA0 SHL SUB DUP4 AND PUSH1 0x0 DUP2 DUP2 MSTORE PUSH1 0x20 DUP2 DUP2 MSTORE PUSH1 0x40 DUP1 DUP4 KECCAK256 DUP7 DUP7 SUB SWAP1 SSTORE PUSH1 0x2 DUP1 SLOAD DUP8 SWAP1 SUB SWAP1 SSTORE MLOAD DUP6 DUP2 MSTORE SWAP2 SWAP3 SWAP2 PUSH32 0xDDF252AD1BE2C89B69C2B068FC378DAA952BA7F163C4A11628F55A4DF523B3EF SWAP2 ADD PUSH2 0x671 JUMP JUMPDEST PUSH1 0x5 DUP1 SLOAD PUSH1 0x1 PUSH1 0x1 PUSH1 0xA0 SHL SUB DUP4 DUP2 AND PUSH2 0x100 DUP2 DUP2 MUL PUSH2 0x100 PUSH1 0x1 PUSH1 0xA8 SHL SUB NOT DUP6 AND OR SWAP1 SWAP5 SSTORE PUSH1 0x40 MLOAD SWAP4 SWAP1 SWAP3 DIV AND SWAP2 DUP3 SWAP1 PUSH32 0x8BE0079C531659141344CD1FD0A4F28419497F9722A3DAAFE3B4186F6B6457E0 SWAP1 PUSH1 0x0 SWAP1 LOG3 POP POP JUMP JUMPDEST PUSH2 0xBBC PUSH2 0xC47 JUMP JUMPDEST PUSH1 0x5 DUP1 SLOAD PUSH1 0xFF NOT AND PUSH1 0x1 OR SWAP1 SSTORE PUSH32 0x62E78CEA01BEE320CD4E420270B5EA74000D11B0C9F74754EBDBFC544B05A258 PUSH2 0x93C CALLER SWAP1 JUMP JUMPDEST PUSH2 0xBF9 PUSH2 0xC47 JUMP JUMPDEST POP POP POP JUMP JUMPDEST PUSH1 0x5 SLOAD PUSH1 0xFF AND PUSH2 0x3BF JUMPI PUSH1 0x40 MLOAD PUSH3 0x461BCD PUSH1 0xE5 SHL DUP2 MSTORE PUSH1 0x20 PUSH1 0x4 DUP3 ADD MSTORE PUSH1 0x14 PUSH1 0x24 DUP3 ADD MSTORE PUSH20 0x14185D5CD8589B194E881B9BDD081C185D5CD959 PUSH1 0x62 SHL PUSH1 0x44 DUP3 ADD MSTORE PUSH1 0x64 ADD PUSH2 0x494 JUMP JUMPDEST PUSH1 0x5 SLOAD PUSH1 0xFF AND ISZERO PUSH2 0x3BF JUMPI PUSH1 0x40 MLOAD PUSH3 0x461BCD PUSH1 0xE5 SHL DUP2 MSTORE PUSH1 0x20 PUSH1 0x4 DUP3 ADD MSTORE PUSH1 0x10 PUSH1 0x24 DUP3 ADD MSTORE PUSH16 0x14185D5CD8589B194E881C185D5CD959 PUSH1 0x82 SHL PUSH1 0x44 DUP3 ADD MSTORE PUSH1 0x64 ADD PUSH2 0x494 JUMP JUMPDEST PUSH1 0x0 PUSH1 0x20 DUP1 DUP4 MSTORE DUP4 MLOAD DUP1 DUP3 DUP6 ADD MSTORE PUSH1 0x0 JUMPDEST DUP2 DUP2 LT ISZERO PUSH2 0xCBA JUMPI DUP6 DUP2 ADD DUP4 ADD MLOAD DUP6 DUP3 ADD PUSH1 0x40 ADD MSTORE DUP3 ADD PUSH2 0xC9E JUMP JUMPDEST POP PUSH1 0x0 PUSH1 0x40 DUP3 DUP7 ADD ADD MSTORE PUSH1 0x40 PUSH1 0x1F NOT PUSH1 0x1F DUP4 ADD AND DUP6 ADD ADD SWAP3 POP POP POP SWAP3 SWAP2 POP POP JUMP JUMPDEST DUP1 CALLDATALOAD PUSH1 0x1 PUSH1 0x1 PUSH1 0xA0 SHL SUB DUP2 AND DUP2 EQ PUSH2 0xCF2 JUMPI PUSH1 0x0 DUP1 REVERT JUMPDEST SWAP2 SWAP1 POP JUMP JUMPDEST PUSH1 0x0 DUP1 PUSH1 0x40 DUP4 DUP6 SUB SLT ISZERO PUSH2 0xD0A JUMPI PUSH1 0x0 DUP1 REVERT JUMPDEST PUSH2 0xD13 DUP4 PUSH2 0xCDB JUMP JUMPDEST SWAP5 PUSH1 0x20 SWAP4 SWAP1 SWAP4 ADD CALLDATALOAD SWAP4 POP POP POP JUMP JUMPDEST PUSH1 0x0 DUP1 PUSH1 0x0 PUSH1 0x60 DUP5 DUP7 SUB SLT ISZERO PUSH2 0xD36 JUMPI PUSH1 0x0 DUP1 REVERT JUMPDEST PUSH2 0xD3F DUP5 PUSH2 0xCDB JUMP JUMPDEST SWAP3 POP PUSH2 0xD4D PUSH1 0x20 DUP6 ADD PUSH2 0xCDB JUMP JUMPDEST SWAP2 POP PUSH1 0x40 DUP5 ADD CALLDATALOAD SWAP1 POP SWAP3 POP SWAP3 POP SWAP3 JUMP JUMPDEST PUSH1 0x0 PUSH1 0x20 DUP3 DUP5 SUB SLT ISZERO PUSH2 0xD6F JUMPI PUSH1 0x0 DUP1 REVERT JUMPDEST POP CALLDATALOAD SWAP2 SWAP1 POP JUMP JUMPDEST PUSH1 0x0 PUSH1 0x20 DUP3 DUP5 SUB SLT ISZERO PUSH2 0xD88 JUMPI PUSH1 0x0 DUP1 REVERT JUMPDEST PUSH2 0xD91 DUP3 PUSH2 0xCDB JUMP JUMPDEST SWAP4 SWAP3 POP POP POP JUMP JUMPDEST PUSH1 0x0 DUP1 PUSH1 0x40 DUP4 DUP6 SUB SLT ISZERO PUSH2 0xDAB JUMPI PUSH1 0x0 DUP1 REVERT JUMPDEST PUSH2 0xDB4 DUP4 PUSH2 0xCDB JUMP JUMPDEST SWAP2 POP PUSH2 0xDC2 PUSH1 0x20 DUP5 ADD PUSH2 0xCDB JUMP JUMPDEST SWAP1 POP SWAP3 POP SWAP3 SWAP1 POP JUMP JUMPDEST PUSH1 0x1 DUP2 DUP2 SHR SWAP1 DUP3 AND DUP1 PUSH2 0xDDF JUMPI PUSH1 0x7F DUP3 AND SWAP2 POP JUMPDEST PUSH1 0x20 DUP3 LT DUP2 SUB PUSH2 0xDFF JUMPI PUSH4 0x4E487B71 PUSH1 0xE0 SHL PUSH1 0x0 MSTORE PUSH1 0x22 PUSH1 0x4 MSTORE PUSH1 0x24 PUSH1 0x0 REVERT JUMPDEST POP SWAP2 SWAP1 POP JUMP JUMPDEST DUP1 DUP3 ADD DUP1 DUP3 GT ISZERO PUSH2 0x363 JUMPI PUSH4 0x4E487B71 PUSH1 0xE0 SHL PUSH1 0x0 MSTORE PUSH1 0x11 PUSH1 0x4 MSTORE PUSH1 0x24 PUSH1 0x0 REVERT INVALID LOG2 PUSH5 0x6970667358 0x22 SLT KECCAK256 0xC3 SELFBALANCE 0xEF 0xE5 LOG3 DUP4 PUSH11 0x3532C7F801BF8385591DCF GT JUMP 0xAB 0xB5 0x2C DUP14 SSTORE MLOAD KECCAK256 PUSH16 0xE80D6A6864736F6C6343000813003300 "
				},
				"gasEstimates": {
					"creation": {
						"codeDepositCost": "735200",
						"executionCost": "infinite",
						"totalCost": "infinite"
					},
					"external": {
						"allowance(address,address)": "infinite",
						"approve(address,uint256)": "24652",
						"balanceOf(address)": "2563",
						"burn(uint256)": "53038",
						"burnFrom(address,uint256)": "infinite",
						"decimals()": "289",
						"decreaseAllowance(address,uint256)": "26995",
						"increaseAllowance(address,uint256)": "infinite",
						"mint(address,uint256)": "infinite",
						"name()": "infinite",
						"owner()": "2441",
						"pause()": "infinite",
						"paused()": "2415",
						"renounceOwnership()": "infinite",
						"symbol()": "infinite",
						"totalSupply()": "2349",
						"transfer(address,uint256)": "53305",
						"transferFrom(address,address,uint256)": "infinite",
						"transferOwnership(address)": "28479",
						"unpause()": "infinite"
					},
					"internal": {
						"_beforeTokenTransfer(address,address,uint256)": "infinite"
					}
				},
				"methodIdentifiers": {
					"allowance(address,address)": "dd62ed3e",
					"approve(address,uint256)": "095ea7b3",
					"balanceOf(address)": "70a08231",
					"burn(uint256)": "42966c68",
					"burnFrom(address,uint256)": "79cc6790",
					"decimals()": "313ce567",
					"decreaseAllowance(address,uint256)": "a457c2d7",
					"increaseAllowance(address,uint256)": "39509351",
					"mint(address,uint256)": "40c10f19",
					"name()": "06fdde03",
					"owner()": "8da5cb5b",
					"pause()": "8456cb59",
					"paused()": "5c975abb",
					"renounceOwnership()": "715018a6",
					"symbol()": "95d89b41",
					"totalSupply()": "18160ddd",
					"transfer(address,uint256)": "a9059cbb",
					"transferFrom(address,address,uint256)": "23b872dd",
					"transferOwnership(address)": "f2fde38b",
					"unpause()": "3f4ba83a"
				}
			},
			"storageLayout": {
				"storage": [
					{
						"astId": 133,
						"contract": "DEX.sol_flattened.sol:MEME",
						"label": "_balances",
						"offset": 0,
						"slot": "0",
						"type": "t_mapping(t_address,t_uint256)"
					},
					{
						"astId": 139,
						"contract": "DEX.sol_flattened.sol:MEME",
						"label": "_allowances",
						"offset": 0,
						"slot": "1",
						"type": "t_mapping(t_address,t_mapping(t_address,t_uint256))"
					},
					{
						"astId": 141,
						"contract": "DEX.sol_flattened.sol:MEME",
						"label": "_totalSupply",
						"offset": 0,
						"slot": "2",
						"type": "t_uint256"
					},
					{
						"astId": 143,
						"contract": "DEX.sol_flattened.sol:MEME",
						"label": "_name",
						"offset": 0,
						"slot": "3",
						"type": "t_string_storage"
					},
					{
						"astId": 145,
						"contract": "DEX.sol_flattened.sol:MEME",
						"label": "_symbol",
						"offset": 0,
						"slot": "4",
						"type": "t_string_storage"
					},
					{
						"astId": 872,
						"contract": "DEX.sol_flattened.sol:MEME",
						"label": "_paused",
						"offset": 0,
						"slot": "5",
						"type": "t_bool"
					},
					{
						"astId": 751,
						"contract": "DEX.sol_flattened.sol:MEME",
						"label": "_owner",
						"offset": 1,
						"slot": "5",
						"type": "t_address"
					}
				],
				"types": {
					"t_address": {
						"encoding": "inplace",
						"label": "address",
						"numberOfBytes": "20"
					},
					"t_bool": {
						"encoding": "inplace",
						"label": "bool",
						"numberOfBytes": "1"
					},
					"t_mapping(t_address,t_mapping(t_address,t_uint256))": {
						"encoding": "mapping",
						"key": "t_address",
						"label": "mapping(address => mapping(address => uint256))",
						"numberOfBytes": "32",
						"value": "t_mapping(t_address,t_uint256)"
					},
					"t_mapping(t_address,t_uint256)": {
						"encoding": "mapping",
						"key": "t_address",
						"label": "mapping(address => uint256)",
						"numberOfBytes": "32",
						"value": "t_uint256"
					},
					"t_string_storage": {
						"encoding": "bytes",
						"label": "string",
						"numberOfBytes": "32"
					},
					"t_uint256": {
						"encoding": "inplace",
						"label": "uint256",
						"numberOfBytes": "32"
					}
				}
			},
			"userdoc": {
				"kind": "user",
				"methods": {},
				"version": 1
			}
		}
	}
}