{
	"DEX.sol": {
		"DEX": {
			"abi": [
				{
					"inputs": [
						{
							"internalType": "address",
							"name": "addr",
							"type": "address"
						}
					],
					"stateMutability": "nonpayable",
					"type": "constructor"
				},
				{
					"anonymous": false,
					"inputs": [
						{
							"indexed": true,
							"internalType": "address",
							"name": "from",
							"type": "address"
						},
						{
							"indexed": false,
							"internalType": "uint256",
							"name": "Meme_amount",
							"type": "uint256"
						},
						{
							"indexed": false,
							"internalType": "uint256",
							"name": "eth_amount",
							"type": "uint256"
						}
					],
					"name": "Buy",
					"type": "event"
				},
				{
					"anonymous": false,
					"inputs": [
						{
							"indexed": true,
							"internalType": "address",
							"name": "previousOwner",
							"type": "address"
						},
						{
							"indexed": true,
							"internalType": "address",
							"name": "newOwner",
							"type": "address"
						}
					],
					"name": "OwnershipTransferred",
					"type": "event"
				},
				{
					"anonymous": false,
					"inputs": [
						{
							"indexed": false,
							"internalType": "address",
							"name": "account",
							"type": "address"
						}
					],
					"name": "Paused",
					"type": "event"
				},
				{
					"anonymous": false,
					"inputs": [
						{
							"indexed": true,
							"internalType": "address",
							"name": "from",
							"type": "address"
						},
						{
							"indexed": false,
							"internalType": "uint256",
							"name": "Meme_amount",
							"type": "uint256"
						},
						{
							"indexed": false,
							"internalType": "uint256",
							"name": "eth_amount",
							"type": "uint256"
						}
					],
					"name": "Sell",
					"type": "event"
				},
				{
					"anonymous": false,
					"inputs": [
						{
							"indexed": true,
							"internalType": "address",
							"name": "from",
							"type": "address"
						},
						{
							"indexed": false,
							"internalType": "uint256",
							"name": "Meme_amount",
							"type": "uint256"
						},
						{
							"indexed": false,
							"internalType": "uint256",
							"name": "eth_amount",
							"type": "uint256"
						}
					],
					"name": "Stack",
					"type": "event"
				},
				{
					"anonymous": false,
					"inputs": [
						{
							"indexed": true,
							"internalType": "address",
							"name": "from",
							"type": "address"
						},
						{
							"indexed": false,
							"internalType": "uint256",
							"name": "Meme_amount",
							"type": "uint256"
						},
						{
							"indexed": false,
							"internalType": "uint256",
							"name": "eth_amount",
							"type": "uint256"
						}
					],
					"name": "UnStack",
					"type": "event"
				},
				{
					"anonymous": false,
					"inputs": [
						{
							"indexed": false,
							"internalType": "address",
							"name": "account",
							"type": "address"
						}
					],
					"name": "Unpaused",
					"type": "event"
				},
				{
					"inputs": [],
					"name": "_k",
					"outputs": [
						{
							"internalType": "uint256",
							"name": "",
							"type": "uint256"
						}
					],
					"stateMutability": "view",
					"type": "function"
				},
				{
					"inputs": [],
					"name": "_x",
					"outputs": [
						{
							"internalType": "uint256",
							"name": "",
							"type": "uint256"
						}
					],
					"stateMutability": "view",
					"type": "function"
				},
				{
					"inputs": [],
					"name": "_y",
					"outputs": [
						{
							"internalType": "uint256",
							"name": "",
							"type": "uint256"
						}
					],
					"stateMutability": "view",
					"type": "function"
				},
				{
					"inputs": [
						{
							"internalType": "uint256",
							"name": "meme_amount",
							"type": "uint256"
						}
					],
					"name": "buy",
					"outputs": [],
					"stateMutability": "payable",
					"type": "function"
				},
				{
					"inputs": [
						{
							"internalType": "uint256",
							"name": "",
							"type": "uint256"
						}
					],
					"name": "dailyTax",
					"outputs": [
						{
							"internalType": "uint256",
							"name": "",
							"type": "uint256"
						}
					],
					"stateMutability": "view",
					"type": "function"
				},
				{
					"inputs": [
						{
							"internalType": "uint256",
							"name": "eth_amount",
							"type": "uint256"
						}
					],
					"name": "getETHPrice",
					"outputs": [
						{
							"internalType": "uint256",
							"name": "",
							"type": "uint256"
						}
					],
					"stateMutability": "view",
					"type": "function"
				},
				{
					"inputs": [
						{
							"internalType": "uint256",
							"name": "meme_amount",
							"type": "uint256"
						}
					],
					"name": "getMemePrice",
					"outputs": [
						{
							"internalType": "uint256",
							"name": "",
							"type": "uint256"
						}
					],
					"stateMutability": "view",
					"type": "function"
				},
				{
					"inputs": [],
					"name": "getStacks",
					"outputs": [
						{
							"components": [
								{
									"internalType": "uint256",
									"name": "meme_amount",
									"type": "uint256"
								},
								{
									"internalType": "uint256",
									"name": "eth_amount",
									"type": "uint256"
								},
								{
									"internalType": "uint256",
									"name": "time",
									"type": "uint256"
								}
							],
							"internalType": "struct DEX.Stack_Struct[]",
							"name": "",
							"type": "tuple[]"
						}
					],
					"stateMutability": "view",
					"type": "function"
				},
				{
					"inputs": [],
					"name": "owner",
					"outputs": [
						{
							"internalType": "address",
							"name": "",
							"type": "address"
						}
					],
					"stateMutability": "view",
					"type": "function"
				},
				{
					"inputs": [],
					"name": "pause",
					"outputs": [],
					"stateMutability": "nonpayable",
					"type": "function"
				},
				{
					"inputs": [],
					"name": "paused",
					"outputs": [
						{
							"internalType": "bool",
							"name": "",
							"type": "bool"
						}
					],
					"stateMutability": "view",
					"type": "function"
				},
				{
					"inputs": [],
					"name": "precision",
					"outputs": [
						{
							"internalType": "uint256",
							"name": "",
							"type": "uint256"
						}
					],
					"stateMutability": "view",
					"type": "function"
				},
				{
					"inputs": [],
					"name": "renounceOwnership",
					"outputs": [],
					"stateMutability": "nonpayable",
					"type": "function"
				},
				{
					"inputs": [
						{
							"internalType": "uint256",
							"name": "eth_amount",
							"type": "uint256"
						}
					],
					"name": "sell",
					"outputs": [],
					"stateMutability": "nonpayable",
					"type": "function"
				},
				{
					"inputs": [
						{
							"internalType": "uint256",
							"name": "meme_amount",
							"type": "uint256"
						}
					],
					"name": "stack",
					"outputs": [],
					"stateMutability": "payable",
					"type": "function"
				},
				{
					"inputs": [],
					"name": "stackingRate",
					"outputs": [
						{
							"internalType": "uint256",
							"name": "",
							"type": "uint256"
						}
					],
					"stateMutability": "view",
					"type": "function"
				},
				{
					"inputs": [],
					"name": "taxRate",
					"outputs": [
						{
							"internalType": "uint256",
							"name": "",
							"type": "uint256"
						}
					],
					"stateMutability": "view",
					"type": "function"
				},
				{
					"inputs": [
						{
							"internalType": "address",
							"name": "newOwner",
							"type": "address"
						}
					],
					"name": "transferOwnership",
					"outputs": [],
					"stateMutability": "nonpayable",
					"type": "function"
				},
				{
					"inputs": [],
					"name": "unpause",
					"outputs": [],
					"stateMutability": "nonpayable",
					"type": "function"
				},
				{
					"inputs": [
						{
							"internalType": "uint256",
							"name": "index",
							"type": "uint256"
						}
					],
					"name": "unstack",
					"outputs": [],
					"stateMutability": "nonpayable",
					"type": "function"
				}
			],
			"devdoc": {
				"events": {
					"Paused(address)": {
						"details": "Emitted when the pause is triggered by `account`."
					},
					"Unpaused(address)": {
						"details": "Emitted when the pause is lifted by `account`."
					}
				},
				"kind": "dev",
				"methods": {
					"owner()": {
						"details": "Returns the address of the current owner."
					},
					"paused()": {
						"details": "Returns true if the contract is paused, and false otherwise."
					},
					"renounceOwnership()": {
						"details": "Leaves the contract without owner. It will not be possible to call `onlyOwner` functions anymore. Can only be called by the current owner. NOTE: Renouncing ownership will leave the contract without an owner, thereby removing any functionality that is only available to the owner."
					},
					"transferOwnership(address)": {
						"details": "Transfers ownership of the contract to a new account (`newOwner`). Can only be called by the current owner."
					}
				},
				"version": 1
			},
			"evm": {
				"assembly": "    /* \"DEX.sol\":243:7615  contract DEX is Pausable, Ownable {... */\n  mstore(0x40, 0x80)\n    /* \"DEX.sol\":1000:1005  10e18 */\n  0x8ac7230489e80000\n    /* \"DEX.sol\":973:1005  uint256 public precision = 10e18 */\n  0x08\n  sstore\n    /* \"DEX.sol\":1055:1057  10 */\n  0x0a\n    /* \"DEX.sol\":1042:1051  precision */\n  sload(0x08)\n    /* \"DEX.sol\":1038:1039  3 */\n  0x03\n    /* \"DEX.sol\":1038:1051  3 * precision */\n  tag_1\n  swap2\n  swap1\n  tag_2\n  jump\t// in\ntag_1:\n    /* \"DEX.sol\":1037:1057  (3 * precision) / 10 */\n  tag_3\n  swap2\n  swap1\n  tag_4\n  jump\t// in\ntag_3:\n    /* \"DEX.sol\":1012:1057  uint256 public taxRate = (3 * precision) / 10 */\n  0x09\n  sstore\n    /* \"DEX.sol\":1064:1163  constructor(address addr) {... */\n  callvalue\n  dup1\n  iszero\n  tag_5\n  jumpi\n  0x00\n  dup1\n  revert\ntag_5:\n  pop\n  mload(0x40)\n  sub(codesize, bytecodeSize)\n  dup1\n  bytecodeSize\n  dup4\n  codecopy\n  dup2\n  add\n  0x40\n  dup2\n  swap1\n  mstore\n  tag_6\n  swap2\n  tag_7\n  jump\t// in\ntag_6:\n    /* \"@openzeppelin/contracts/security/Pausable.sol\":1006:1011  false */\n  0x00\n    /* \"@openzeppelin/contracts/security/Pausable.sol\":996:1011  _paused = false */\n  dup1\n  sload\n  not(0xff)\n  and\n  swap1\n  sstore\n    /* \"@openzeppelin/contracts/access/Ownable.sol\":936:968  _transferOwnership(_msgSender()) */\n  tag_13\n    /* \"@openzeppelin/contracts/utils/Context.sol\":719:729  msg.sender */\n  caller\n    /* \"@openzeppelin/contracts/access/Ownable.sol\":936:954  _transferOwnership */\n  tag_16\n    /* \"@openzeppelin/contracts/access/Ownable.sol\":936:968  _transferOwnership(_msgSender()) */\n  jump\t// in\ntag_13:\n    /* \"DEX.sol\":1100:1104  meme */\n  0x01\n    /* \"DEX.sol\":1100:1117  meme = MEME(addr) */\n  dup1\n  sload\n  not(sub(shl(0xa0, 0x01), 0x01))\n  and\n  sub(shl(0xa0, 0x01), 0x01)\n  swap3\n  swap1\n  swap3\n  and\n  swap2\n  swap1\n  swap2\n  or\n  swap1\n  sstore\n    /* \"DEX.sol\":243:7615  contract DEX is Pausable, Ownable {... */\n  jump(tag_21)\n    /* \"@openzeppelin/contracts/access/Ownable.sol\":2433:2620  function _transferOwnership(address newOwner) internal virtual {... */\ntag_16:\n    /* \"@openzeppelin/contracts/access/Ownable.sol\":2506:2522  address oldOwner */\n  0x00\n    /* \"@openzeppelin/contracts/access/Ownable.sol\":2525:2531  _owner */\n  dup1\n  sload\n  sub(shl(0xa0, 0x01), 0x01)\n    /* \"@openzeppelin/contracts/access/Ownable.sol\":2541:2558  _owner = newOwner */\n  dup4\n  dup2\n  and\n    /* \"@openzeppelin/contracts/access/Ownable.sol\":2525:2531  _owner */\n  0x0100\n    /* \"@openzeppelin/contracts/access/Ownable.sol\":2541:2558  _owner = newOwner */\n  dup2\n  dup2\n  mul\n  not(sub(shl(0xa8, 0x01), 0x0100))\n  dup6\n  and\n  or\n  dup6\n  sstore\n    /* \"@openzeppelin/contracts/access/Ownable.sol\":2573:2613  OwnershipTransferred(oldOwner, newOwner) */\n  mload(0x40)\n    /* \"@openzeppelin/contracts/access/Ownable.sol\":2525:2531  _owner */\n  swap4\n  div\n  swap2\n  swap1\n  swap2\n  and\n  swap3\n    /* \"@openzeppelin/contracts/access/Ownable.sol\":2541:2558  _owner = newOwner */\n  swap1\n  swap2\n    /* \"@openzeppelin/contracts/access/Ownable.sol\":2525:2531  _owner */\n  dup4\n  swap2\n    /* \"@openzeppelin/contracts/access/Ownable.sol\":2573:2613  OwnershipTransferred(oldOwner, newOwner) */\n  0x8be0079c531659141344cd1fd0a4f28419497f9722a3daafe3b4186f6b6457e0\n  swap2\n  log3\n    /* \"@openzeppelin/contracts/access/Ownable.sol\":2496:2620  {... */\n  pop\n    /* \"@openzeppelin/contracts/access/Ownable.sol\":2433:2620  function _transferOwnership(address newOwner) internal virtual {... */\n  pop\n  jump\t// out\n    /* \"#utility.yul\":14:279   */\ntag_2:\n    /* \"#utility.yul\":87:96   */\n  dup1\n  dup3\n  mul\n    /* \"#utility.yul\":118:127   */\n  dup2\n  iszero\n    /* \"#utility.yul\":135:150   */\n  dup3\n  dup3\n  div\n    /* \"#utility.yul\":129:151   */\n  dup5\n  eq\n    /* \"#utility.yul\":115:152   */\n  or\n    /* \"#utility.yul\":105:273   */\n  tag_23\n  jumpi\n    /* \"#utility.yul\":195:205   */\n  0x4e487b71\n    /* \"#utility.yul\":190:193   */\n  0xe0\n    /* \"#utility.yul\":186:206   */\n  shl\n    /* \"#utility.yul\":183:184   */\n  0x00\n    /* \"#utility.yul\":176:207   */\n  mstore\n    /* \"#utility.yul\":230:234   */\n  0x11\n    /* \"#utility.yul\":227:228   */\n  0x04\n    /* \"#utility.yul\":220:235   */\n  mstore\n    /* \"#utility.yul\":258:262   */\n  0x24\n    /* \"#utility.yul\":255:256   */\n  0x00\n    /* \"#utility.yul\":248:263   */\n  revert\n    /* \"#utility.yul\":105:273   */\ntag_23:\n    /* \"#utility.yul\":14:279   */\n  swap3\n  swap2\n  pop\n  pop\n  jump\t// out\n    /* \"#utility.yul\":284:501   */\ntag_4:\n    /* \"#utility.yul\":324:325   */\n  0x00\n    /* \"#utility.yul\":350:351   */\n  dup3\n    /* \"#utility.yul\":340:472   */\n  tag_25\n  jumpi\n    /* \"#utility.yul\":394:404   */\n  0x4e487b71\n    /* \"#utility.yul\":389:392   */\n  0xe0\n    /* \"#utility.yul\":385:405   */\n  shl\n    /* \"#utility.yul\":382:383   */\n  0x00\n    /* \"#utility.yul\":375:406   */\n  mstore\n    /* \"#utility.yul\":429:433   */\n  0x12\n    /* \"#utility.yul\":426:427   */\n  0x04\n    /* \"#utility.yul\":419:434   */\n  mstore\n    /* \"#utility.yul\":457:461   */\n  0x24\n    /* \"#utility.yul\":454:455   */\n  0x00\n    /* \"#utility.yul\":447:462   */\n  revert\n    /* \"#utility.yul\":340:472   */\ntag_25:\n  pop\n    /* \"#utility.yul\":486:495   */\n  div\n  swap1\n    /* \"#utility.yul\":284:501   */\n  jump\t// out\n    /* \"#utility.yul\":506:796   */\ntag_7:\n    /* \"#utility.yul\":576:582   */\n  0x00\n    /* \"#utility.yul\":629:631   */\n  0x20\n    /* \"#utility.yul\":617:626   */\n  dup3\n    /* \"#utility.yul\":608:615   */\n  dup5\n    /* \"#utility.yul\":604:627   */\n  sub\n    /* \"#utility.yul\":600:632   */\n  slt\n    /* \"#utility.yul\":597:649   */\n  iszero\n  tag_27\n  jumpi\n    /* \"#utility.yul\":645:646   */\n  0x00\n    /* \"#utility.yul\":642:643   */\n  dup1\n    /* \"#utility.yul\":635:647   */\n  revert\n    /* \"#utility.yul\":597:649   */\ntag_27:\n    /* \"#utility.yul\":671:687   */\n  dup2\n  mload\n  sub(shl(0xa0, 0x01), 0x01)\n    /* \"#utility.yul\":716:747   */\n  dup2\n  and\n    /* \"#utility.yul\":706:748   */\n  dup2\n  eq\n    /* \"#utility.yul\":696:766   */\n  tag_28\n  jumpi\n    /* \"#utility.yul\":762:763   */\n  0x00\n    /* \"#utility.yul\":759:760   */\n  dup1\n    /* \"#utility.yul\":752:764   */\n  revert\n    /* \"#utility.yul\":696:766   */\ntag_28:\n    /* \"#utility.yul\":785:790   */\n  swap4\n    /* \"#utility.yul\":506:796   */\n  swap3\n  pop\n  pop\n  pop\n  jump\t// out\ntag_21:\n    /* \"DEX.sol\":243:7615  contract DEX is Pausable, Ownable {... */\n  dataSize(sub_0)\n  dup1\n  dataOffset(sub_0)\n  0x00\n  codecopy\n  0x00\n  return\nstop\n\nsub_0: assembly {\n        /* \"DEX.sol\":243:7615  contract DEX is Pausable, Ownable {... */\n      mstore(0x40, 0x80)\n      jumpi(tag_1, lt(calldatasize, 0x04))\n      shr(0xe0, calldataload(0x00))\n      dup1\n      0x771a3a1d\n      gt\n      tag_22\n      jumpi\n      dup1\n      0xd96a094a\n      gt\n      tag_23\n      jumpi\n      dup1\n      0xd96a094a\n      eq\n      tag_17\n      jumpi\n      dup1\n      0xdc9031c4\n      eq\n      tag_18\n      jumpi\n      dup1\n      0xe4849b32\n      eq\n      tag_19\n      jumpi\n      dup1\n      0xe8bca8b8\n      eq\n      tag_20\n      jumpi\n      dup1\n      0xf2fde38b\n      eq\n      tag_21\n      jumpi\n      0x00\n      dup1\n      revert\n    tag_23:\n      dup1\n      0x771a3a1d\n      eq\n      tag_12\n      jumpi\n      dup1\n      0x8456cb59\n      eq\n      tag_13\n      jumpi\n      dup1\n      0x8da5cb5b\n      eq\n      tag_14\n      jumpi\n      dup1\n      0x9c74f05d\n      eq\n      tag_15\n      jumpi\n      dup1\n      0xd3b5dc3b\n      eq\n      tag_16\n      jumpi\n      0x00\n      dup1\n      revert\n    tag_22:\n      dup1\n      0x2ad9d559\n      gt\n      tag_24\n      jumpi\n      dup1\n      0x2ad9d559\n      eq\n      tag_7\n      jumpi\n      dup1\n      0x3f4ba83a\n      eq\n      tag_8\n      jumpi\n      dup1\n      0x5c572ed0\n      eq\n      tag_9\n      jumpi\n      dup1\n      0x5c975abb\n      eq\n      tag_10\n      jumpi\n      dup1\n      0x715018a6\n      eq\n      tag_11\n      jumpi\n      0x00\n      dup1\n      revert\n    tag_24:\n      dup1\n      0x1a753fed\n      eq\n      tag_2\n      jumpi\n      dup1\n      0x1b82c27f\n      eq\n      tag_3\n      jumpi\n      dup1\n      0x200061df\n      eq\n      tag_4\n      jumpi\n      dup1\n      0x28726bda\n      eq\n      tag_5\n      jumpi\n      dup1\n      0x29809703\n      eq\n      tag_6\n      jumpi\n    tag_1:\n      0x00\n      dup1\n      revert\n        /* \"DEX.sol\":5463:6102  function getETHPrice(uint256 eth_amount) public view returns (uint256) {... */\n    tag_2:\n      callvalue\n      dup1\n      iszero\n      tag_25\n      jumpi\n      0x00\n      dup1\n      revert\n    tag_25:\n      pop\n      tag_26\n      tag_27\n      calldatasize\n      0x04\n      tag_28\n      jump\t// in\n    tag_27:\n      tag_29\n      jump\t// in\n    tag_26:\n      mload(0x40)\n        /* \"#utility.yul\":345:370   */\n      swap1\n      dup2\n      mstore\n        /* \"#utility.yul\":333:335   */\n      0x20\n        /* \"#utility.yul\":318:336   */\n      add\n        /* \"DEX.sol\":5463:6102  function getETHPrice(uint256 eth_amount) public view returns (uint256) {... */\n    tag_30:\n      mload(0x40)\n      dup1\n      swap2\n      sub\n      swap1\n      return\n        /* \"DEX.sol\":903:920  uint256 public _k */\n    tag_3:\n      callvalue\n      dup1\n      iszero\n      tag_32\n      jumpi\n      0x00\n      dup1\n      revert\n    tag_32:\n      pop\n      tag_26\n      sload(0x05)\n      dup2\n      jump\n        /* \"DEX.sol\":1817:1947  function unstack(uint256 index) public {... */\n    tag_4:\n      callvalue\n      dup1\n      iszero\n      tag_36\n      jumpi\n      0x00\n      dup1\n      revert\n    tag_36:\n      pop\n      tag_37\n      tag_38\n      calldatasize\n      0x04\n      tag_28\n      jump\t// in\n    tag_38:\n      tag_39\n      jump\t// in\n    tag_37:\n      stop\n        /* \"DEX.sol\":949:966  uint256 public _y */\n    tag_5:\n      callvalue\n      dup1\n      iszero\n      tag_40\n      jumpi\n      0x00\n      dup1\n      revert\n    tag_40:\n      pop\n      tag_26\n      sload(0x07)\n      dup2\n      jump\n        /* \"DEX.sol\":926:943  uint256 public _x */\n    tag_6:\n      callvalue\n      dup1\n      iszero\n      tag_44\n      jumpi\n      0x00\n      dup1\n      revert\n    tag_44:\n      pop\n      tag_26\n      sload(0x06)\n      dup2\n      jump\n        /* \"DEX.sol\":819:862  mapping(uint256 => uint256) public dailyTax */\n    tag_7:\n      callvalue\n      dup1\n      iszero\n      tag_48\n      jumpi\n      0x00\n      dup1\n      revert\n    tag_48:\n      pop\n      tag_26\n      tag_50\n      calldatasize\n      0x04\n      tag_28\n      jump\t// in\n    tag_50:\n      mstore(0x20, 0x03)\n      0x00\n      swap1\n      dup2\n      mstore\n      0x40\n      swap1\n      keccak256\n      sload\n      dup2\n      jump\n        /* \"DEX.sol\":1234:1297  function unpause() public onlyOwner {... */\n    tag_8:\n      callvalue\n      dup1\n      iszero\n      tag_53\n      jumpi\n      0x00\n      dup1\n      revert\n    tag_53:\n      pop\n      tag_37\n      tag_55\n      jump\t// in\n        /* \"DEX.sol\":4822:5457  function getMemePrice(uint256 meme_amount) public view returns (uint256) {... */\n    tag_9:\n      callvalue\n      dup1\n      iszero\n      tag_56\n      jumpi\n      0x00\n      dup1\n      revert\n    tag_56:\n      pop\n      tag_26\n      tag_58\n      calldatasize\n      0x04\n      tag_28\n      jump\t// in\n    tag_58:\n      tag_59\n      jump\t// in\n        /* \"@openzeppelin/contracts/security/Pausable.sol\":1615:1699  function paused() public view virtual returns (bool) {... */\n    tag_10:\n      callvalue\n      dup1\n      iszero\n      tag_61\n      jumpi\n      0x00\n      dup1\n      revert\n    tag_61:\n      pop\n        /* \"@openzeppelin/contracts/security/Pausable.sol\":1662:1666  bool */\n      0x00\n        /* \"@openzeppelin/contracts/security/Pausable.sol\":1685:1692  _paused */\n      sload\n      0xff\n      and\n        /* \"@openzeppelin/contracts/security/Pausable.sol\":1615:1699  function paused() public view virtual returns (bool) {... */\n      mload(0x40)\n        /* \"#utility.yul\":546:560   */\n      swap1\n      iszero\n        /* \"#utility.yul\":539:561   */\n      iszero\n        /* \"#utility.yul\":521:562   */\n      dup2\n      mstore\n        /* \"#utility.yul\":509:511   */\n      0x20\n        /* \"#utility.yul\":494:512   */\n      add\n        /* \"@openzeppelin/contracts/security/Pausable.sol\":1615:1699  function paused() public view virtual returns (bool) {... */\n      tag_30\n        /* \"#utility.yul\":381:568   */\n      jump\n        /* \"@openzeppelin/contracts/access/Ownable.sol\":1831:1932  function renounceOwnership() public virtual onlyOwner {... */\n    tag_11:\n      callvalue\n      dup1\n      iszero\n      tag_66\n      jumpi\n      0x00\n      dup1\n      revert\n    tag_66:\n      pop\n      tag_37\n      tag_68\n      jump\t// in\n        /* \"DEX.sol\":1012:1057  uint256 public taxRate = (3 * precision) / 10 */\n    tag_12:\n      callvalue\n      dup1\n      iszero\n      tag_69\n      jumpi\n      0x00\n      dup1\n      revert\n    tag_69:\n      pop\n      tag_26\n      sload(0x09)\n      dup2\n      jump\n        /* \"DEX.sol\":1169:1228  function pause() public onlyOwner {... */\n    tag_13:\n      callvalue\n      dup1\n      iszero\n      tag_73\n      jumpi\n      0x00\n      dup1\n      revert\n    tag_73:\n      pop\n      tag_37\n      tag_75\n      jump\t// in\n        /* \"@openzeppelin/contracts/access/Ownable.sol\":1201:1286  function owner() public view virtual returns (address) {... */\n    tag_14:\n      callvalue\n      dup1\n      iszero\n      tag_76\n      jumpi\n      0x00\n      dup1\n      revert\n    tag_76:\n      pop\n        /* \"@openzeppelin/contracts/access/Ownable.sol\":1247:1254  address */\n      0x00\n        /* \"@openzeppelin/contracts/access/Ownable.sol\":1273:1279  _owner */\n      sload\n      0x0100\n      swap1\n      div\n      sub(shl(0xa0, 0x01), 0x01)\n      and\n        /* \"@openzeppelin/contracts/access/Ownable.sol\":1201:1286  function owner() public view virtual returns (address) {... */\n      mload(0x40)\n      sub(shl(0xa0, 0x01), 0x01)\n        /* \"#utility.yul\":737:769   */\n      swap1\n      swap2\n      and\n        /* \"#utility.yul\":719:770   */\n      dup2\n      mstore\n        /* \"#utility.yul\":707:709   */\n      0x20\n        /* \"#utility.yul\":692:710   */\n      add\n        /* \"@openzeppelin/contracts/access/Ownable.sol\":1201:1286  function owner() public view virtual returns (address) {... */\n      tag_30\n        /* \"#utility.yul\":573:776   */\n      jump\n        /* \"DEX.sol\":869:896  uint256 public stackingRate */\n    tag_15:\n      callvalue\n      dup1\n      iszero\n      tag_81\n      jumpi\n      0x00\n      dup1\n      revert\n    tag_81:\n      pop\n      tag_26\n      sload(0x04)\n      dup2\n      jump\n        /* \"DEX.sol\":973:1005  uint256 public precision = 10e18 */\n    tag_16:\n      callvalue\n      dup1\n      iszero\n      tag_85\n      jumpi\n      0x00\n      dup1\n      revert\n    tag_85:\n      pop\n      tag_26\n      sload(0x08)\n      dup2\n      jump\n        /* \"DEX.sol\":6108:6672  function buy(uint256 meme_amount) public payable {... */\n    tag_17:\n      tag_37\n      tag_90\n      calldatasize\n      0x04\n      tag_28\n      jump\t// in\n    tag_90:\n      tag_91\n      jump\t// in\n        /* \"DEX.sol\":1481:1811  function stack(uint256 meme_amount) public payable {... */\n    tag_18:\n      tag_37\n      tag_93\n      calldatasize\n      0x04\n      tag_28\n      jump\t// in\n    tag_93:\n      tag_94\n      jump\t// in\n        /* \"DEX.sol\":6678:7180  function sell(uint256 eth_amount) public {... */\n    tag_19:\n      callvalue\n      dup1\n      iszero\n      tag_95\n      jumpi\n      0x00\n      dup1\n      revert\n    tag_95:\n      pop\n      tag_37\n      tag_97\n      calldatasize\n      0x04\n      tag_28\n      jump\t// in\n    tag_97:\n      tag_98\n      jump\t// in\n        /* \"DEX.sol\":1367:1475  function getStacks() public view returns (Stack_Struct[] memory) {... */\n    tag_20:\n      callvalue\n      dup1\n      iszero\n      tag_99\n      jumpi\n      0x00\n      dup1\n      revert\n    tag_99:\n      pop\n      tag_100\n      tag_101\n      jump\t// in\n    tag_100:\n      mload(0x40)\n      tag_30\n      swap2\n      swap1\n      tag_103\n      jump\t// in\n        /* \"@openzeppelin/contracts/access/Ownable.sol\":2081:2279  function transferOwnership(address newOwner) public virtual onlyOwner {... */\n    tag_21:\n      callvalue\n      dup1\n      iszero\n      tag_104\n      jumpi\n      0x00\n      dup1\n      revert\n    tag_104:\n      pop\n      tag_37\n      tag_106\n      calldatasize\n      0x04\n      tag_107\n      jump\t// in\n    tag_106:\n      tag_108\n      jump\t// in\n        /* \"DEX.sol\":5463:6102  function getETHPrice(uint256 eth_amount) public view returns (uint256) {... */\n    tag_29:\n        /* \"DEX.sol\":5525:5532  uint256 */\n      0x00\n        /* \"DEX.sol\":5557:5558  0 */\n      dup1\n        /* \"DEX.sol\":5552:5554  _k */\n      sload(0x05)\n        /* \"DEX.sol\":5552:5558  _k > 0 */\n      gt\n        /* \"DEX.sol\":5544:5583  require(_k > 0, \"Not enough liquidity\") */\n      tag_110\n      jumpi\n      mload(0x40)\n      shl(0xe5, 0x461bcd)\n      dup2\n      mstore\n        /* \"#utility.yul\":2130:2132   */\n      0x20\n        /* \"DEX.sol\":5544:5583  require(_k > 0, \"Not enough liquidity\") */\n      0x04\n      dup3\n      add\n        /* \"#utility.yul\":2112:2133   */\n      mstore\n        /* \"#utility.yul\":2169:2171   */\n      0x14\n        /* \"#utility.yul\":2149:2167   */\n      0x24\n      dup3\n      add\n        /* \"#utility.yul\":2142:2172   */\n      mstore\n      shl(0x60, 0x4e6f7420656e6f756768206c6971756964697479)\n        /* \"#utility.yul\":2188:2206   */\n      0x44\n      dup3\n      add\n        /* \"#utility.yul\":2181:2231   */\n      mstore\n        /* \"#utility.yul\":2248:2266   */\n      0x64\n      add\n        /* \"DEX.sol\":5544:5583  require(_k > 0, \"Not enough liquidity\") */\n    tag_111:\n      mload(0x40)\n      dup1\n      swap2\n      sub\n      swap1\n      revert\n    tag_110:\n        /* \"DEX.sol\":5593:5603  uint256 dx */\n      0x00\n        /* \"DEX.sol\":5617:5627  uint256 dy */\n      dup1\n        /* \"DEX.sol\":5645:5647  _x */\n      sload(0x06)\n        /* \"DEX.sol\":5651:5652  0 */\n      0x00\n        /* \"DEX.sol\":5645:5652  _x == 0 */\n      sub\n        /* \"DEX.sol\":5641:5759  if (_x == 0) {... */\n      tag_113\n      jumpi\n        /* \"DEX.sol\":5682:5692  eth_amount */\n      dup4\n        /* \"DEX.sol\":5678:5679  1 */\n      0x01\n        /* \"DEX.sol\":5673:5675  _k */\n      sload(0x05)\n        /* \"DEX.sol\":5673:5679  _k / 1 */\n      tag_114\n      swap2\n      swap1\n      tag_115\n      jump\t// in\n    tag_114:\n        /* \"DEX.sol\":5673:5692  _k / 1 - eth_amount */\n      tag_116\n      swap2\n      swap1\n      tag_117\n      jump\t// in\n    tag_116:\n        /* \"DEX.sol\":5668:5692  dy = _k / 1 - eth_amount */\n      swap1\n      pop\n        /* \"DEX.sol\":5641:5759  if (_x == 0) {... */\n      jump(tag_118)\n    tag_113:\n        /* \"DEX.sol\":5738:5748  eth_amount */\n      dup4\n        /* \"DEX.sol\":5733:5735  _x */\n      sload(0x06)\n        /* \"DEX.sol\":5728:5730  _k */\n      sload(0x05)\n        /* \"DEX.sol\":5728:5735  _k / _x */\n      tag_119\n      swap2\n      swap1\n      tag_115\n      jump\t// in\n    tag_119:\n        /* \"DEX.sol\":5728:5748  _k / _x - eth_amount */\n      tag_120\n      swap2\n      swap1\n      tag_117\n      jump\t// in\n    tag_120:\n        /* \"DEX.sol\":5723:5748  dy = _k / _x - eth_amount */\n      swap1\n      pop\n        /* \"DEX.sol\":5641:5759  if (_x == 0) {... */\n    tag_118:\n        /* \"DEX.sol\":5772:5774  dy */\n      dup1\n        /* \"DEX.sol\":5778:5779  0 */\n      0x00\n        /* \"DEX.sol\":5772:5779  dy == 0 */\n      sub\n        /* \"DEX.sol\":5768:5860  if (dy == 0) {... */\n      tag_121\n      jumpi\n        /* \"DEX.sol\":5805:5806  1 */\n      0x01\n        /* \"DEX.sol\":5800:5802  _k */\n      sload(0x05)\n        /* \"DEX.sol\":5800:5806  _k / 1 */\n      tag_122\n      swap2\n      swap1\n      tag_115\n      jump\t// in\n    tag_122:\n        /* \"DEX.sol\":5795:5806  dx = _k / 1 */\n      swap2\n      pop\n        /* \"DEX.sol\":5768:5860  if (dy == 0) {... */\n      jump(tag_123)\n    tag_121:\n        /* \"DEX.sol\":5847:5849  dy */\n      dup1\n        /* \"DEX.sol\":5842:5844  _k */\n      sload(0x05)\n        /* \"DEX.sol\":5842:5849  _k / dy */\n      tag_124\n      swap2\n      swap1\n      tag_115\n      jump\t// in\n    tag_124:\n        /* \"DEX.sol\":5837:5849  dx = _k / dy */\n      swap2\n      pop\n        /* \"DEX.sol\":5768:5860  if (dy == 0) {... */\n    tag_123:\n        /* \"DEX.sol\":5869:5899  uint256 meme_price_without_tax */\n      0x00\n        /* \"DEX.sol\":5907:5909  _x */\n      sload(0x06)\n        /* \"DEX.sol\":5902:5904  dx */\n      dup4\n        /* \"DEX.sol\":5902:5909  dx - _x */\n      tag_125\n      swap2\n      swap1\n      tag_117\n      jump\t// in\n    tag_125:\n        /* \"DEX.sol\":5869:5909  uint256 meme_price_without_tax = dx - _x */\n      swap1\n      pop\n        /* \"DEX.sol\":5919:5935  uint256 meme_tax */\n      0x00\n        /* \"DEX.sol\":5975:5984  precision */\n      sload(0x08)\n        /* \"DEX.sol\":5964:5971  taxRate */\n      sload(0x09)\n        /* \"DEX.sol\":5939:5961  meme_price_without_tax */\n      dup4\n        /* \"DEX.sol\":5939:5971  meme_price_without_tax * taxRate */\n      tag_126\n      swap2\n      swap1\n      tag_127\n      jump\t// in\n    tag_126:\n        /* \"DEX.sol\":5938:5984  (meme_price_without_tax * taxRate) / precision */\n      tag_128\n      swap2\n      swap1\n      tag_115\n      jump\t// in\n    tag_128:\n        /* \"DEX.sol\":5919:5984  uint256 meme_tax = (meme_price_without_tax * taxRate) / precision */\n      swap1\n      pop\n        /* \"DEX.sol\":5995:6022  uint256 meme_price_with_tax */\n      0x00\n        /* \"DEX.sol\":6025:6058  meme_price_without_tax - meme_tax */\n      tag_129\n        /* \"DEX.sol\":5919:5984  uint256 meme_tax = (meme_price_without_tax * taxRate) / precision */\n      dup3\n        /* \"DEX.sol\":6025:6047  meme_price_without_tax */\n      dup5\n        /* \"DEX.sol\":6025:6058  meme_price_without_tax - meme_tax */\n      tag_117\n      jump\t// in\n    tag_129:\n        /* \"DEX.sol\":5995:6058  uint256 meme_price_with_tax = meme_price_without_tax - meme_tax */\n      swap8\n        /* \"DEX.sol\":5463:6102  function getETHPrice(uint256 eth_amount) public view returns (uint256) {... */\n      swap7\n      pop\n      pop\n      pop\n      pop\n      pop\n      pop\n      pop\n      jump\t// out\n        /* \"DEX.sol\":1817:1947  function unstack(uint256 index) public {... */\n    tag_39:\n        /* \"DEX.sol\":1925:1940  _unstack(index) */\n      tag_134\n        /* \"DEX.sol\":1934:1939  index */\n      dup2\n        /* \"DEX.sol\":1925:1933  _unstack */\n      tag_135\n        /* \"DEX.sol\":1925:1940  _unstack(index) */\n      jump\t// in\n    tag_134:\n        /* \"DEX.sol\":1817:1947  function unstack(uint256 index) public {... */\n      pop\n      jump\t// out\n        /* \"DEX.sol\":1234:1297  function unpause() public onlyOwner {... */\n    tag_55:\n        /* \"@openzeppelin/contracts/access/Ownable.sol\":1094:1107  _checkOwner() */\n      tag_137\n        /* \"@openzeppelin/contracts/access/Ownable.sol\":1094:1105  _checkOwner */\n      tag_138\n        /* \"@openzeppelin/contracts/access/Ownable.sol\":1094:1107  _checkOwner() */\n      jump\t// in\n    tag_137:\n        /* \"DEX.sol\":1280:1290  _unpause() */\n      tag_140\n        /* \"DEX.sol\":1280:1288  _unpause */\n      tag_141\n        /* \"DEX.sol\":1280:1290  _unpause() */\n      jump\t// in\n    tag_140:\n        /* \"DEX.sol\":1234:1297  function unpause() public onlyOwner {... */\n      jump\t// out\n        /* \"DEX.sol\":4822:5457  function getMemePrice(uint256 meme_amount) public view returns (uint256) {... */\n    tag_59:\n        /* \"DEX.sol\":4886:4893  uint256 */\n      0x00\n        /* \"DEX.sol\":4918:4919  0 */\n      dup1\n        /* \"DEX.sol\":4913:4915  _k */\n      sload(0x05)\n        /* \"DEX.sol\":4913:4919  _k > 0 */\n      gt\n        /* \"DEX.sol\":4905:4944  require(_k > 0, \"Not enough liquidity\") */\n      tag_143\n      jumpi\n      mload(0x40)\n      shl(0xe5, 0x461bcd)\n      dup2\n      mstore\n        /* \"#utility.yul\":2130:2132   */\n      0x20\n        /* \"DEX.sol\":4905:4944  require(_k > 0, \"Not enough liquidity\") */\n      0x04\n      dup3\n      add\n        /* \"#utility.yul\":2112:2133   */\n      mstore\n        /* \"#utility.yul\":2169:2171   */\n      0x14\n        /* \"#utility.yul\":2149:2167   */\n      0x24\n      dup3\n      add\n        /* \"#utility.yul\":2142:2172   */\n      mstore\n      shl(0x60, 0x4e6f7420656e6f756768206c6971756964697479)\n        /* \"#utility.yul\":2188:2206   */\n      0x44\n      dup3\n      add\n        /* \"#utility.yul\":2181:2231   */\n      mstore\n        /* \"#utility.yul\":2248:2266   */\n      0x64\n      add\n        /* \"DEX.sol\":4905:4944  require(_k > 0, \"Not enough liquidity\") */\n      tag_111\n        /* \"#utility.yul\":1928:2272   */\n      jump\n        /* \"DEX.sol\":4905:4944  require(_k > 0, \"Not enough liquidity\") */\n    tag_143:\n        /* \"DEX.sol\":4954:4964  uint256 dx */\n      0x00\n        /* \"DEX.sol\":4978:4988  uint256 dy */\n      dup1\n        /* \"DEX.sol\":5006:5008  _y */\n      sload(0x07)\n        /* \"DEX.sol\":5012:5013  0 */\n      0x00\n        /* \"DEX.sol\":5006:5013  _y == 0 */\n      sub\n        /* \"DEX.sol\":5002:5122  if (_y == 0) {... */\n      tag_145\n      jumpi\n        /* \"DEX.sol\":5043:5054  meme_amount */\n      dup4\n        /* \"DEX.sol\":5039:5040  1 */\n      0x01\n        /* \"DEX.sol\":5034:5036  _k */\n      sload(0x05)\n        /* \"DEX.sol\":5034:5040  _k / 1 */\n      tag_146\n      swap2\n      swap1\n      tag_115\n      jump\t// in\n    tag_146:\n        /* \"DEX.sol\":5034:5054  _k / 1 - meme_amount */\n      tag_147\n      swap2\n      swap1\n      tag_117\n      jump\t// in\n    tag_147:\n        /* \"DEX.sol\":5029:5054  dx = _k / 1 - meme_amount */\n      swap2\n      pop\n        /* \"DEX.sol\":5002:5122  if (_y == 0) {... */\n      jump(tag_148)\n    tag_145:\n        /* \"DEX.sol\":5100:5111  meme_amount */\n      dup4\n        /* \"DEX.sol\":5095:5097  _y */\n      sload(0x07)\n        /* \"DEX.sol\":5090:5092  _k */\n      sload(0x05)\n        /* \"DEX.sol\":5090:5097  _k / _y */\n      tag_149\n      swap2\n      swap1\n      tag_115\n      jump\t// in\n    tag_149:\n        /* \"DEX.sol\":5090:5111  _k / _y - meme_amount */\n      tag_150\n      swap2\n      swap1\n      tag_117\n      jump\t// in\n    tag_150:\n        /* \"DEX.sol\":5085:5111  dx = _k / _y - meme_amount */\n      swap2\n      pop\n        /* \"DEX.sol\":5002:5122  if (_y == 0) {... */\n    tag_148:\n        /* \"DEX.sol\":5135:5137  dx */\n      dup2\n        /* \"DEX.sol\":5141:5142  0 */\n      0x00\n        /* \"DEX.sol\":5135:5142  dx == 0 */\n      sub\n        /* \"DEX.sol\":5131:5223  if (dx == 0) {... */\n      tag_151\n      jumpi\n        /* \"DEX.sol\":5168:5169  1 */\n      0x01\n        /* \"DEX.sol\":5163:5165  _k */\n      sload(0x05)\n        /* \"DEX.sol\":5163:5169  _k / 1 */\n      tag_152\n      swap2\n      swap1\n      tag_115\n      jump\t// in\n    tag_152:\n        /* \"DEX.sol\":5158:5169  dy = _k / 1 */\n      swap1\n      pop\n        /* \"DEX.sol\":5131:5223  if (dx == 0) {... */\n      jump(tag_153)\n    tag_151:\n        /* \"DEX.sol\":5210:5212  dx */\n      dup2\n        /* \"DEX.sol\":5205:5207  _k */\n      sload(0x05)\n        /* \"DEX.sol\":5205:5212  _k / dx */\n      tag_154\n      swap2\n      swap1\n      tag_115\n      jump\t// in\n    tag_154:\n        /* \"DEX.sol\":5200:5212  dy = _k / dx */\n      swap1\n      pop\n        /* \"DEX.sol\":5131:5223  if (dx == 0) {... */\n    tag_153:\n        /* \"DEX.sol\":5232:5261  uint256 eth_price_without_tax */\n      0x00\n        /* \"DEX.sol\":5269:5271  _y */\n      sload(0x07)\n        /* \"DEX.sol\":5264:5266  dy */\n      dup3\n        /* \"DEX.sol\":5264:5271  dy - _y */\n      tag_155\n      swap2\n      swap1\n      tag_117\n      jump\t// in\n    tag_155:\n        /* \"DEX.sol\":5232:5271  uint256 eth_price_without_tax = dy - _y */\n      swap1\n      pop\n        /* \"DEX.sol\":5281:5296  uint256 eth_tax */\n      0x00\n        /* \"DEX.sol\":5335:5344  precision */\n      sload(0x08)\n        /* \"DEX.sol\":5324:5331  taxRate */\n      sload(0x09)\n        /* \"DEX.sol\":5300:5321  eth_price_without_tax */\n      dup4\n        /* \"DEX.sol\":5300:5331  eth_price_without_tax * taxRate */\n      tag_156\n      swap2\n      swap1\n      tag_127\n      jump\t// in\n    tag_156:\n        /* \"DEX.sol\":5299:5344  (eth_price_without_tax * taxRate) / precision */\n      tag_157\n      swap2\n      swap1\n      tag_115\n      jump\t// in\n    tag_157:\n        /* \"DEX.sol\":5281:5344  uint256 eth_tax = (eth_price_without_tax * taxRate) / precision */\n      swap1\n      pop\n        /* \"DEX.sol\":5355:5381  uint256 eth_price_with_tax */\n      0x00\n        /* \"DEX.sol\":5384:5415  eth_price_without_tax + eth_tax */\n      tag_129\n        /* \"DEX.sol\":5281:5344  uint256 eth_tax = (eth_price_without_tax * taxRate) / precision */\n      dup3\n        /* \"DEX.sol\":5384:5405  eth_price_without_tax */\n      dup5\n        /* \"DEX.sol\":5384:5415  eth_price_without_tax + eth_tax */\n      tag_159\n      jump\t// in\n        /* \"@openzeppelin/contracts/access/Ownable.sol\":1831:1932  function renounceOwnership() public virtual onlyOwner {... */\n    tag_68:\n        /* \"@openzeppelin/contracts/access/Ownable.sol\":1094:1107  _checkOwner() */\n      tag_162\n        /* \"@openzeppelin/contracts/access/Ownable.sol\":1094:1105  _checkOwner */\n      tag_138\n        /* \"@openzeppelin/contracts/access/Ownable.sol\":1094:1107  _checkOwner() */\n      jump\t// in\n    tag_162:\n        /* \"@openzeppelin/contracts/access/Ownable.sol\":1895:1925  _transferOwnership(address(0)) */\n      tag_140\n        /* \"@openzeppelin/contracts/access/Ownable.sol\":1922:1923  0 */\n      0x00\n        /* \"@openzeppelin/contracts/access/Ownable.sol\":1895:1913  _transferOwnership */\n      tag_165\n        /* \"@openzeppelin/contracts/access/Ownable.sol\":1895:1925  _transferOwnership(address(0)) */\n      jump\t// in\n        /* \"DEX.sol\":1169:1228  function pause() public onlyOwner {... */\n    tag_75:\n        /* \"@openzeppelin/contracts/access/Ownable.sol\":1094:1107  _checkOwner() */\n      tag_167\n        /* \"@openzeppelin/contracts/access/Ownable.sol\":1094:1105  _checkOwner */\n      tag_138\n        /* \"@openzeppelin/contracts/access/Ownable.sol\":1094:1107  _checkOwner() */\n      jump\t// in\n    tag_167:\n        /* \"DEX.sol\":1213:1221  _pause() */\n      tag_140\n        /* \"DEX.sol\":1213:1219  _pause */\n      tag_170\n        /* \"DEX.sol\":1213:1221  _pause() */\n      jump\t// in\n        /* \"DEX.sol\":6108:6672  function buy(uint256 meme_amount) public payable {... */\n    tag_91:\n        /* \"DEX.sol\":6189:6190  0 */\n      0x00\n        /* \"DEX.sol\":6175:6186  meme_amount */\n      dup2\n        /* \"DEX.sol\":6175:6190  meme_amount > 0 */\n      gt\n        /* \"DEX.sol\":6167:6209  require(meme_amount > 0, \"Send Some Meme\") */\n      tag_173\n      jumpi\n      mload(0x40)\n      shl(0xe5, 0x461bcd)\n      dup2\n      mstore\n        /* \"#utility.yul\":3624:3626   */\n      0x20\n        /* \"DEX.sol\":6167:6209  require(meme_amount > 0, \"Send Some Meme\") */\n      0x04\n      dup3\n      add\n        /* \"#utility.yul\":3606:3627   */\n      mstore\n        /* \"#utility.yul\":3663:3665   */\n      0x0e\n        /* \"#utility.yul\":3643:3661   */\n      0x24\n      dup3\n      add\n        /* \"#utility.yul\":3636:3666   */\n      mstore\n      shl(0x90, 0x53656e6420536f6d65204d656d65)\n        /* \"#utility.yul\":3682:3700   */\n      0x44\n      dup3\n      add\n        /* \"#utility.yul\":3675:3719   */\n      mstore\n        /* \"#utility.yul\":3736:3754   */\n      0x64\n      add\n        /* \"DEX.sol\":6167:6209  require(meme_amount > 0, \"Send Some Meme\") */\n      tag_111\n        /* \"#utility.yul\":3422:3760   */\n      jump\n        /* \"DEX.sol\":6167:6209  require(meme_amount > 0, \"Send Some Meme\") */\n    tag_173:\n        /* \"DEX.sol\":6219:6237  uint256 meme_price */\n      0x00\n        /* \"DEX.sol\":6240:6265  getMemePrice(meme_amount) */\n      tag_176\n        /* \"DEX.sol\":6253:6264  meme_amount */\n      dup3\n        /* \"DEX.sol\":6240:6252  getMemePrice */\n      tag_59\n        /* \"DEX.sol\":6240:6265  getMemePrice(meme_amount) */\n      jump\t// in\n    tag_176:\n        /* \"DEX.sol\":6219:6265  uint256 meme_price = getMemePrice(meme_amount) */\n      swap1\n      pop\n        /* \"DEX.sol\":6297:6306  msg.value */\n      callvalue\n        /* \"DEX.sol\":6283:6293  meme_price */\n      dup2\n        /* \"DEX.sol\":6283:6306  meme_price <= msg.value */\n      gt\n      iszero\n        /* \"DEX.sol\":6275:6324  require(meme_price <= msg.value, \"Send More ETH\") */\n      tag_177\n      jumpi\n      mload(0x40)\n      shl(0xe5, 0x461bcd)\n      dup2\n      mstore\n        /* \"#utility.yul\":3967:3969   */\n      0x20\n        /* \"DEX.sol\":6275:6324  require(meme_price <= msg.value, \"Send More ETH\") */\n      0x04\n      dup3\n      add\n        /* \"#utility.yul\":3949:3970   */\n      mstore\n        /* \"#utility.yul\":4006:4008   */\n      0x0d\n        /* \"#utility.yul\":3986:4004   */\n      0x24\n      dup3\n      add\n        /* \"#utility.yul\":3979:4009   */\n      mstore\n      shl(0x9b, 0x0a6cadcc8409adee4ca408aa89)\n        /* \"#utility.yul\":4025:4043   */\n      0x44\n      dup3\n      add\n        /* \"#utility.yul\":4018:4061   */\n      mstore\n        /* \"#utility.yul\":4078:4096   */\n      0x64\n      add\n        /* \"DEX.sol\":6275:6324  require(meme_price <= msg.value, \"Send More ETH\") */\n      tag_111\n        /* \"#utility.yul\":3765:4102   */\n      jump\n        /* \"DEX.sol\":6275:6324  require(meme_price <= msg.value, \"Send More ETH\") */\n    tag_177:\n        /* \"DEX.sol\":6335:6339  meme */\n      sload(0x01)\n        /* \"DEX.sol\":6335:6373  meme.transfer(msg.sender, meme_amount) */\n      mload(0x40)\n      shl(0xe0, 0xa9059cbb)\n      dup2\n      mstore\n        /* \"DEX.sol\":6349:6359  msg.sender */\n      caller\n        /* \"DEX.sol\":6335:6373  meme.transfer(msg.sender, meme_amount) */\n      0x04\n      dup3\n      add\n        /* \"#utility.yul\":4281:4332   */\n      mstore\n        /* \"#utility.yul\":4348:4366   */\n      0x24\n      dup2\n      add\n        /* \"#utility.yul\":4341:4375   */\n      dup5\n      swap1\n      mstore\n      sub(shl(0xa0, 0x01), 0x01)\n        /* \"DEX.sol\":6335:6339  meme */\n      swap1\n      swap2\n      and\n      swap1\n        /* \"DEX.sol\":6335:6348  meme.transfer */\n      0xa9059cbb\n      swap1\n        /* \"#utility.yul\":4254:4272   */\n      0x44\n      add\n        /* \"DEX.sol\":6335:6373  meme.transfer(msg.sender, meme_amount) */\n      0x20\n      mload(0x40)\n      dup1\n      dup4\n      sub\n      dup2\n      0x00\n      dup8\n      gas\n      call\n      iszero\n      dup1\n      iszero\n      tag_183\n      jumpi\n      returndatasize\n      0x00\n      dup1\n      returndatacopy\n      revert(0x00, returndatasize)\n    tag_183:\n      pop\n      pop\n      pop\n      pop\n      mload(0x40)\n      returndatasize\n      not(0x1f)\n      0x1f\n      dup3\n      add\n      and\n      dup3\n      add\n      dup1\n      0x40\n      mstore\n      pop\n      dup2\n      add\n      swap1\n      tag_184\n      swap2\n      swap1\n      tag_185\n      jump\t// in\n    tag_184:\n      pop\n        /* \"DEX.sol\":6391:6401  msg.sender */\n      caller\n        /* \"DEX.sol\":6383:6435  payable(msg.sender).transfer(msg.value - meme_price) */\n      0x08fc\n        /* \"DEX.sol\":6412:6434  msg.value - meme_price */\n      tag_186\n        /* \"DEX.sol\":6424:6434  meme_price */\n      dup4\n        /* \"DEX.sol\":6412:6421  msg.value */\n      callvalue\n        /* \"DEX.sol\":6412:6434  msg.value - meme_price */\n      tag_117\n      jump\t// in\n    tag_186:\n        /* \"DEX.sol\":6383:6435  payable(msg.sender).transfer(msg.value - meme_price) */\n      mload(0x40)\n      dup2\n      iszero\n      swap1\n      swap3\n      mul\n      swap2\n      0x00\n      dup2\n      dup2\n      dup2\n      dup6\n      dup9\n      dup9\n      call\n      swap4\n      pop\n      pop\n      pop\n      pop\n      iszero\n      dup1\n      iszero\n      tag_188\n      jumpi\n      returndatasize\n      0x00\n      dup1\n      returndatacopy\n      revert(0x00, returndatasize)\n    tag_188:\n      pop\n        /* \"DEX.sol\":6548:6557  precision */\n      sload(0x08)\n        /* \"DEX.sol\":6524:6531  taxRate */\n      sload(0x09)\n        /* \"DEX.sol\":6512:6531  precision + taxRate */\n      tag_189\n      swap1\n        /* \"DEX.sol\":6548:6557  precision */\n      dup3\n        /* \"DEX.sol\":6512:6531  precision + taxRate */\n      tag_159\n      jump\t// in\n    tag_189:\n        /* \"DEX.sol\":6497:6532  meme_amount * (precision + taxRate) */\n      tag_190\n      swap1\n        /* \"DEX.sol\":6497:6508  meme_amount */\n      dup5\n        /* \"DEX.sol\":6497:6532  meme_amount * (precision + taxRate) */\n      tag_127\n      jump\t// in\n    tag_190:\n        /* \"DEX.sol\":6496:6557  (meme_amount * (precision + taxRate)) /... */\n      tag_191\n      swap2\n      swap1\n      tag_115\n      jump\t// in\n    tag_191:\n        /* \"DEX.sol\":6446:6454  dailyTax */\n      0x03\n        /* \"DEX.sol\":6446:6480  dailyTax[block.timestamp / 1 days] */\n      0x00\n        /* \"DEX.sol\":6455:6479  block.timestamp / 1 days */\n      tag_192\n        /* \"DEX.sol\":6473:6479  1 days */\n      0x015180\n        /* \"DEX.sol\":6455:6470  block.timestamp */\n      timestamp\n        /* \"DEX.sol\":6455:6479  block.timestamp / 1 days */\n      tag_115\n      jump\t// in\n    tag_192:\n        /* \"DEX.sol\":6446:6480  dailyTax[block.timestamp / 1 days] */\n      dup2\n      mstore\n      0x20\n      add\n      swap1\n      dup2\n      mstore\n      0x20\n      add\n      0x00\n      keccak256\n      0x00\n        /* \"DEX.sol\":6446:6557  dailyTax[block.timestamp / 1 days] +=... */\n      dup3\n      dup3\n      sload\n      tag_193\n      swap2\n      swap1\n      tag_159\n      jump\t// in\n    tag_193:\n      swap3\n      pop\n      pop\n      dup2\n      swap1\n      sstore\n      pop\n        /* \"DEX.sol\":6574:6585  meme_amount */\n      dup2\n        /* \"DEX.sol\":6568:6570  _x */\n      0x06\n      0x00\n        /* \"DEX.sol\":6568:6585  _x -= meme_amount */\n      dup3\n      dup3\n      sload\n      tag_194\n      swap2\n      swap1\n      tag_117\n      jump\t// in\n    tag_194:\n      swap1\n      swap2\n      sstore\n      pop\n      pop\n        /* \"DEX.sol\":6606:6608  _x */\n      sload(0x06)\n        /* \"DEX.sol\":6601:6603  _k */\n      sload(0x05)\n        /* \"DEX.sol\":6601:6608  _k / _x */\n      tag_195\n      swap2\n        /* \"DEX.sol\":6606:6608  _x */\n      swap1\n        /* \"DEX.sol\":6601:6608  _k / _x */\n      tag_115\n      jump\t// in\n    tag_195:\n        /* \"DEX.sol\":6595:6597  _y */\n      0x07\n        /* \"DEX.sol\":6595:6609  _y = (_k / _x) */\n      sstore\n        /* \"DEX.sol\":6625:6665  Buy(msg.sender, meme_amount, meme_price) */\n      0x40\n      dup1\n      mload\n        /* \"#utility.yul\":4842:4867   */\n      dup4\n      dup2\n      mstore\n        /* \"#utility.yul\":4898:4900   */\n      0x20\n        /* \"#utility.yul\":4883:4901   */\n      dup2\n      add\n        /* \"#utility.yul\":4876:4910   */\n      dup4\n      swap1\n      mstore\n        /* \"DEX.sol\":6629:6639  msg.sender */\n      caller\n      swap2\n        /* \"DEX.sol\":6625:6665  Buy(msg.sender, meme_amount, meme_price) */\n      0x1cbc5ab135991bd2b6a4b034a04aa2aa086dac1371cb9b16b8b5e2ed6b036bed\n      swap2\n        /* \"#utility.yul\":4815:4833   */\n      add\n        /* \"DEX.sol\":6625:6665  Buy(msg.sender, meme_amount, meme_price) */\n    tag_196:\n      mload(0x40)\n      dup1\n      swap2\n      sub\n      swap1\n      log2\n        /* \"DEX.sol\":6157:6672  {... */\n      pop\n        /* \"DEX.sol\":6108:6672  function buy(uint256 meme_amount) public payable {... */\n      pop\n      jump\t// out\n        /* \"DEX.sol\":1481:1811  function stack(uint256 meme_amount) public payable {... */\n    tag_94:\n        /* \"DEX.sol\":1564:1565  0 */\n      0x00\n        /* \"DEX.sol\":1550:1561  meme_amount */\n      dup2\n        /* \"DEX.sol\":1550:1565  meme_amount > 0 */\n      gt\n        /* \"DEX.sol\":1542:1584  require(meme_amount > 0, \"Send more MEME\") */\n      tag_199\n      jumpi\n      mload(0x40)\n      shl(0xe5, 0x461bcd)\n      dup2\n      mstore\n        /* \"#utility.yul\":5123:5125   */\n      0x20\n        /* \"DEX.sol\":1542:1584  require(meme_amount > 0, \"Send more MEME\") */\n      0x04\n      dup3\n      add\n        /* \"#utility.yul\":5105:5126   */\n      mstore\n        /* \"#utility.yul\":5162:5164   */\n      0x0e\n        /* \"#utility.yul\":5142:5160   */\n      0x24\n      dup3\n      add\n        /* \"#utility.yul\":5135:5165   */\n      mstore\n      shl(0x90, 0x53656e64206d6f7265204d454d45)\n        /* \"#utility.yul\":5181:5199   */\n      0x44\n      dup3\n      add\n        /* \"#utility.yul\":5174:5218   */\n      mstore\n        /* \"#utility.yul\":5235:5253   */\n      0x64\n      add\n        /* \"DEX.sol\":1542:1584  require(meme_amount > 0, \"Send more MEME\") */\n      tag_111\n        /* \"#utility.yul\":4921:5259   */\n      jump\n        /* \"DEX.sol\":1542:1584  require(meme_amount > 0, \"Send more MEME\") */\n    tag_199:\n        /* \"DEX.sol\":1614:1615  0 */\n      0x00\n        /* \"DEX.sol\":1602:1611  msg.value */\n      callvalue\n        /* \"DEX.sol\":1602:1615  msg.value > 0 */\n      gt\n        /* \"DEX.sol\":1594:1633  require(msg.value > 0, \"Send more ETH\") */\n      tag_202\n      jumpi\n      mload(0x40)\n      shl(0xe5, 0x461bcd)\n      dup2\n      mstore\n        /* \"#utility.yul\":5466:5468   */\n      0x20\n        /* \"DEX.sol\":1594:1633  require(msg.value > 0, \"Send more ETH\") */\n      0x04\n      dup3\n      add\n        /* \"#utility.yul\":5448:5469   */\n      mstore\n        /* \"#utility.yul\":5505:5507   */\n      0x0d\n        /* \"#utility.yul\":5485:5503   */\n      0x24\n      dup3\n      add\n        /* \"#utility.yul\":5478:5508   */\n      mstore\n      shl(0x9b, 0x0a6cadcc840dadee4ca408aa89)\n        /* \"#utility.yul\":5524:5542   */\n      0x44\n      dup3\n      add\n        /* \"#utility.yul\":5517:5560   */\n      mstore\n        /* \"#utility.yul\":5577:5595   */\n      0x64\n      add\n        /* \"DEX.sol\":1594:1633  require(msg.value > 0, \"Send more ETH\") */\n      tag_111\n        /* \"#utility.yul\":5264:5601   */\n      jump\n        /* \"DEX.sol\":1594:1633  require(msg.value > 0, \"Send more ETH\") */\n    tag_202:\n        /* \"DEX.sol\":1706:1717  meme_amount */\n      dup1\n        /* \"DEX.sol\":1693:1702  precision */\n      sload(0x08)\n        /* \"DEX.sol\":1681:1690  msg.value */\n      callvalue\n        /* \"DEX.sol\":1681:1702  msg.value * precision */\n      tag_205\n      swap2\n      swap1\n      tag_127\n      jump\t// in\n    tag_205:\n        /* \"DEX.sol\":1680:1717  (msg.value * precision) / meme_amount */\n      tag_206\n      swap2\n      swap1\n      tag_115\n      jump\t// in\n    tag_206:\n        /* \"DEX.sol\":1664:1676  stackingRate */\n      sload(0x04)\n        /* \"DEX.sol\":1664:1717  stackingRate <= (msg.value * precision) / meme_amount */\n      gt\n      iszero\n        /* \"DEX.sol\":1643:1764  require(... */\n      tag_207\n      jumpi\n      mload(0x40)\n      shl(0xe5, 0x461bcd)\n      dup2\n      mstore\n        /* \"#utility.yul\":5808:5810   */\n      0x20\n        /* \"DEX.sol\":1643:1764  require(... */\n      0x04\n      dup3\n      add\n        /* \"#utility.yul\":5790:5811   */\n      mstore\n        /* \"#utility.yul\":5847:5849   */\n      0x15\n        /* \"#utility.yul\":5827:5845   */\n      0x24\n      dup3\n      add\n        /* \"#utility.yul\":5820:5850   */\n      mstore\n      shl(0x5a, 0x14dd1858dada5b99c814985d19481b9bdd081b595d)\n        /* \"#utility.yul\":5866:5884   */\n      0x44\n      dup3\n      add\n        /* \"#utility.yul\":5859:5910   */\n      mstore\n        /* \"#utility.yul\":5927:5945   */\n      0x64\n      add\n        /* \"DEX.sol\":1643:1764  require(... */\n      tag_111\n        /* \"#utility.yul\":5606:5951   */\n      jump\n        /* \"DEX.sol\":1643:1764  require(... */\n    tag_207:\n        /* \"DEX.sol\":1774:1804  _stack(meme_amount, msg.value) */\n      tag_134\n        /* \"DEX.sol\":1781:1792  meme_amount */\n      dup2\n        /* \"DEX.sol\":1794:1803  msg.value */\n      callvalue\n        /* \"DEX.sol\":1774:1780  _stack */\n      tag_211\n        /* \"DEX.sol\":1774:1804  _stack(meme_amount, msg.value) */\n      jump\t// in\n        /* \"DEX.sol\":6678:7180  function sell(uint256 eth_amount) public {... */\n    tag_98:\n        /* \"DEX.sol\":6750:6751  0 */\n      0x00\n        /* \"DEX.sol\":6737:6747  eth_amount */\n      dup2\n        /* \"DEX.sol\":6737:6751  eth_amount > 0 */\n      gt\n        /* \"DEX.sol\":6729:6769  require(eth_amount > 0, \"Send Some ETH\") */\n      tag_213\n      jumpi\n      mload(0x40)\n      shl(0xe5, 0x461bcd)\n      dup2\n      mstore\n        /* \"#utility.yul\":6158:6160   */\n      0x20\n        /* \"DEX.sol\":6729:6769  require(eth_amount > 0, \"Send Some ETH\") */\n      0x04\n      dup3\n      add\n        /* \"#utility.yul\":6140:6161   */\n      mstore\n        /* \"#utility.yul\":6197:6199   */\n      0x0d\n        /* \"#utility.yul\":6177:6195   */\n      0x24\n      dup3\n      add\n        /* \"#utility.yul\":6170:6200   */\n      mstore\n      shl(0x9b, 0x0a6cadcc840a6dedaca408aa89)\n        /* \"#utility.yul\":6216:6234   */\n      0x44\n      dup3\n      add\n        /* \"#utility.yul\":6209:6252   */\n      mstore\n        /* \"#utility.yul\":6269:6287   */\n      0x64\n      add\n        /* \"DEX.sol\":6729:6769  require(eth_amount > 0, \"Send Some ETH\") */\n      tag_111\n        /* \"#utility.yul\":5956:6293   */\n      jump\n        /* \"DEX.sol\":6729:6769  require(eth_amount > 0, \"Send Some ETH\") */\n    tag_213:\n        /* \"DEX.sol\":6779:6798  uint256 meme_amount */\n      0x00\n        /* \"DEX.sol\":6801:6824  getETHPrice(eth_amount) */\n      tag_216\n        /* \"DEX.sol\":6813:6823  eth_amount */\n      dup3\n        /* \"DEX.sol\":6801:6812  getETHPrice */\n      tag_29\n        /* \"DEX.sol\":6801:6824  getETHPrice(eth_amount) */\n      jump\t// in\n    tag_216:\n        /* \"DEX.sol\":6835:6839  meme */\n      sload(0x01)\n        /* \"DEX.sol\":6835:6892  meme.transferFrom(msg.sender, address(this), meme_amount) */\n      mload(0x40)\n      shl(0xe0, 0x23b872dd)\n      dup2\n      mstore\n        /* \"DEX.sol\":6853:6863  msg.sender */\n      caller\n        /* \"DEX.sol\":6835:6892  meme.transferFrom(msg.sender, address(this), meme_amount) */\n      0x04\n      dup3\n      add\n        /* \"#utility.yul\":6538:6572   */\n      mstore\n        /* \"DEX.sol\":6873:6877  this */\n      address\n        /* \"#utility.yul\":6588:6606   */\n      0x24\n      dup3\n      add\n        /* \"#utility.yul\":6581:6624   */\n      mstore\n        /* \"#utility.yul\":6640:6658   */\n      0x44\n      dup2\n      add\n        /* \"#utility.yul\":6633:6667   */\n      dup4\n      swap1\n      mstore\n        /* \"DEX.sol\":6779:6824  uint256 meme_amount = getETHPrice(eth_amount) */\n      swap2\n      swap3\n      pop\n      sub(shl(0xa0, 0x01), 0x01)\n        /* \"DEX.sol\":6835:6839  meme */\n      and\n      swap1\n        /* \"DEX.sol\":6835:6852  meme.transferFrom */\n      0x23b872dd\n      swap1\n        /* \"#utility.yul\":6473:6491   */\n      0x64\n      add\n        /* \"DEX.sol\":6835:6892  meme.transferFrom(msg.sender, address(this), meme_amount) */\n      0x20\n      mload(0x40)\n      dup1\n      dup4\n      sub\n      dup2\n      0x00\n      dup8\n      gas\n      call\n      iszero\n      dup1\n      iszero\n      tag_220\n      jumpi\n      returndatasize\n      0x00\n      dup1\n      returndatacopy\n      revert(0x00, returndatasize)\n    tag_220:\n      pop\n      pop\n      pop\n      pop\n      mload(0x40)\n      returndatasize\n      not(0x1f)\n      0x1f\n      dup3\n      add\n      and\n      dup3\n      add\n      dup1\n      0x40\n      mstore\n      pop\n      dup2\n      add\n      swap1\n      tag_221\n      swap2\n      swap1\n      tag_185\n      jump\t// in\n    tag_221:\n      pop\n        /* \"DEX.sol\":6902:6942  payable(msg.sender).transfer(eth_amount) */\n      mload(0x40)\n        /* \"DEX.sol\":6910:6920  msg.sender */\n      caller\n      swap1\n        /* \"DEX.sol\":6902:6942  payable(msg.sender).transfer(eth_amount) */\n      dup4\n      iszero\n      0x08fc\n      mul\n      swap1\n        /* \"DEX.sol\":6931:6941  eth_amount */\n      dup5\n      swap1\n        /* \"DEX.sol\":6902:6942  payable(msg.sender).transfer(eth_amount) */\n      0x00\n      dup2\n      dup2\n      dup2\n        /* \"DEX.sol\":6931:6941  eth_amount */\n      dup6\n        /* \"DEX.sol\":6910:6920  msg.sender */\n      dup9\n        /* \"DEX.sol\":6902:6942  payable(msg.sender).transfer(eth_amount) */\n      dup9\n      call\n      swap4\n      pop\n      pop\n      pop\n      pop\n      iszero\n      dup1\n      iszero\n      tag_223\n      jumpi\n      returndatasize\n      0x00\n      dup1\n      returndatacopy\n      revert(0x00, returndatasize)\n    tag_223:\n      pop\n        /* \"DEX.sol\":7055:7064  precision */\n      sload(0x08)\n        /* \"DEX.sol\":7031:7038  taxRate */\n      sload(0x09)\n        /* \"DEX.sol\":7019:7038  precision + taxRate */\n      tag_224\n      swap1\n        /* \"DEX.sol\":7055:7064  precision */\n      dup3\n        /* \"DEX.sol\":7019:7038  precision + taxRate */\n      tag_159\n      jump\t// in\n    tag_224:\n        /* \"DEX.sol\":7004:7039  meme_amount * (precision + taxRate) */\n      tag_225\n      swap1\n        /* \"DEX.sol\":7004:7015  meme_amount */\n      dup4\n        /* \"DEX.sol\":7004:7039  meme_amount * (precision + taxRate) */\n      tag_127\n      jump\t// in\n    tag_225:\n        /* \"DEX.sol\":7003:7064  (meme_amount * (precision + taxRate)) /... */\n      tag_226\n      swap2\n      swap1\n      tag_115\n      jump\t// in\n    tag_226:\n        /* \"DEX.sol\":6953:6961  dailyTax */\n      0x03\n        /* \"DEX.sol\":6953:6987  dailyTax[block.timestamp / 1 days] */\n      0x00\n        /* \"DEX.sol\":6962:6986  block.timestamp / 1 days */\n      tag_227\n        /* \"DEX.sol\":6980:6986  1 days */\n      0x015180\n        /* \"DEX.sol\":6962:6977  block.timestamp */\n      timestamp\n        /* \"DEX.sol\":6962:6986  block.timestamp / 1 days */\n      tag_115\n      jump\t// in\n    tag_227:\n        /* \"DEX.sol\":6953:6987  dailyTax[block.timestamp / 1 days] */\n      dup2\n      mstore\n      0x20\n      add\n      swap1\n      dup2\n      mstore\n      0x20\n      add\n      0x00\n      keccak256\n      0x00\n        /* \"DEX.sol\":6953:7064  dailyTax[block.timestamp / 1 days] +=... */\n      dup3\n      dup3\n      sload\n      tag_228\n      swap2\n      swap1\n      tag_159\n      jump\t// in\n    tag_228:\n      swap3\n      pop\n      pop\n      dup2\n      swap1\n      sstore\n      pop\n        /* \"DEX.sol\":7081:7092  meme_amount */\n      dup1\n        /* \"DEX.sol\":7075:7077  _x */\n      0x06\n      0x00\n        /* \"DEX.sol\":7075:7092  _x += meme_amount */\n      dup3\n      dup3\n      sload\n      tag_229\n      swap2\n      swap1\n      tag_159\n      jump\t// in\n    tag_229:\n      swap1\n      swap2\n      sstore\n      pop\n      pop\n        /* \"DEX.sol\":7113:7115  _x */\n      sload(0x06)\n        /* \"DEX.sol\":7108:7110  _k */\n      sload(0x05)\n        /* \"DEX.sol\":7108:7115  _k / _x */\n      tag_230\n      swap2\n        /* \"DEX.sol\":7113:7115  _x */\n      swap1\n        /* \"DEX.sol\":7108:7115  _k / _x */\n      tag_115\n      jump\t// in\n    tag_230:\n        /* \"DEX.sol\":7102:7104  _y */\n      0x07\n        /* \"DEX.sol\":7102:7116  _y = (_k / _x) */\n      sstore\n        /* \"DEX.sol\":7132:7173  Sell(msg.sender, meme_amount, eth_amount) */\n      0x40\n      dup1\n      mload\n        /* \"#utility.yul\":4842:4867   */\n      dup3\n      dup2\n      mstore\n        /* \"#utility.yul\":4898:4900   */\n      0x20\n        /* \"#utility.yul\":4883:4901   */\n      dup2\n      add\n        /* \"#utility.yul\":4876:4910   */\n      dup5\n      swap1\n      mstore\n        /* \"DEX.sol\":7137:7147  msg.sender */\n      caller\n      swap2\n        /* \"DEX.sol\":7132:7173  Sell(msg.sender, meme_amount, eth_amount) */\n      0xed7a144fad14804d5c249145e3e0e2b63a9eb455b76aee5bc92d711e9bba3e4a\n      swap2\n        /* \"#utility.yul\":4815:4833   */\n      add\n        /* \"DEX.sol\":7132:7173  Sell(msg.sender, meme_amount, eth_amount) */\n      tag_196\n        /* \"#utility.yul\":4668:4916   */\n      jump\n        /* \"DEX.sol\":1367:1475  function getStacks() public view returns (Stack_Struct[] memory) {... */\n    tag_101:\n        /* \"DEX.sol\":1457:1467  msg.sender */\n      caller\n        /* \"DEX.sol\":1449:1468  Stacked[msg.sender] */\n      0x00\n      swap1\n      dup2\n      mstore\n        /* \"DEX.sol\":1449:1456  Stacked */\n      0x02\n        /* \"DEX.sol\":1449:1468  Stacked[msg.sender] */\n      0x20\n      swap1\n      dup2\n      mstore\n      0x40\n      dup1\n      dup4\n      keccak256\n        /* \"DEX.sol\":1442:1468  return Stacked[msg.sender] */\n      dup1\n      sload\n      dup3\n      mload\n      dup2\n      dup6\n      mul\n      dup2\n      add\n      dup6\n      add\n      swap1\n      swap4\n      mstore\n      dup1\n      dup4\n      mstore\n        /* \"DEX.sol\":1409:1430  Stack_Struct[] memory */\n      0x60\n      swap5\n        /* \"DEX.sol\":1442:1468  return Stacked[msg.sender] */\n      swap3\n      swap4\n        /* \"DEX.sol\":1449:1468  Stacked[msg.sender] */\n      swap2\n      swap3\n        /* \"DEX.sol\":1442:1468  return Stacked[msg.sender] */\n      swap1\n      swap2\n      dup5\n      add\n    tag_233:\n      dup3\n      dup3\n      lt\n      iszero\n      tag_234\n      jumpi\n      dup4\n      dup3\n      swap1\n      0x00\n      mstore\n      keccak256(0x00, 0x20)\n      swap1\n      0x03\n      mul\n      add\n      mload(0x40)\n      dup1\n      0x60\n      add\n      0x40\n      mstore\n      swap1\n      dup2\n      0x00\n      dup3\n      add\n      sload\n      dup2\n      mstore\n      0x20\n      add\n      0x01\n      dup3\n      add\n      sload\n      dup2\n      mstore\n      0x20\n      add\n      0x02\n      dup3\n      add\n      sload\n      dup2\n      mstore\n      pop\n      pop\n      dup2\n      mstore\n      0x20\n      add\n      swap1\n      0x01\n      add\n      swap1\n      jump(tag_233)\n    tag_234:\n      pop\n      pop\n      pop\n      pop\n      swap1\n      pop\n        /* \"DEX.sol\":1367:1475  function getStacks() public view returns (Stack_Struct[] memory) {... */\n      swap1\n      jump\t// out\n        /* \"@openzeppelin/contracts/access/Ownable.sol\":2081:2279  function transferOwnership(address newOwner) public virtual onlyOwner {... */\n    tag_108:\n        /* \"@openzeppelin/contracts/access/Ownable.sol\":1094:1107  _checkOwner() */\n      tag_237\n        /* \"@openzeppelin/contracts/access/Ownable.sol\":1094:1105  _checkOwner */\n      tag_138\n        /* \"@openzeppelin/contracts/access/Ownable.sol\":1094:1107  _checkOwner() */\n      jump\t// in\n    tag_237:\n      sub(shl(0xa0, 0x01), 0x01)\n        /* \"@openzeppelin/contracts/access/Ownable.sol\":2169:2191  newOwner != address(0) */\n      dup2\n      and\n        /* \"@openzeppelin/contracts/access/Ownable.sol\":2161:2234  require(newOwner != address(0), \"Ownable: new owner is the zero address\") */\n      tag_239\n      jumpi\n      mload(0x40)\n      shl(0xe5, 0x461bcd)\n      dup2\n      mstore\n        /* \"#utility.yul\":6880:6882   */\n      0x20\n        /* \"@openzeppelin/contracts/access/Ownable.sol\":2161:2234  require(newOwner != address(0), \"Ownable: new owner is the zero address\") */\n      0x04\n      dup3\n      add\n        /* \"#utility.yul\":6862:6883   */\n      mstore\n        /* \"#utility.yul\":6919:6921   */\n      0x26\n        /* \"#utility.yul\":6899:6917   */\n      0x24\n      dup3\n      add\n        /* \"#utility.yul\":6892:6922   */\n      mstore\n        /* \"#utility.yul\":6958:6992   */\n      0x4f776e61626c653a206e6577206f776e657220697320746865207a65726f2061\n        /* \"#utility.yul\":6938:6956   */\n      0x44\n      dup3\n      add\n        /* \"#utility.yul\":6931:6993   */\n      mstore\n      shl(0xd0, 0x646472657373)\n        /* \"#utility.yul\":7009:7027   */\n      0x64\n      dup3\n      add\n        /* \"#utility.yul\":7002:7038   */\n      mstore\n        /* \"#utility.yul\":7055:7074   */\n      0x84\n      add\n        /* \"@openzeppelin/contracts/access/Ownable.sol\":2161:2234  require(newOwner != address(0), \"Ownable: new owner is the zero address\") */\n      tag_111\n        /* \"#utility.yul\":6678:7080   */\n      jump\n        /* \"@openzeppelin/contracts/access/Ownable.sol\":2161:2234  require(newOwner != address(0), \"Ownable: new owner is the zero address\") */\n    tag_239:\n        /* \"@openzeppelin/contracts/access/Ownable.sol\":2244:2272  _transferOwnership(newOwner) */\n      tag_134\n        /* \"@openzeppelin/contracts/access/Ownable.sol\":2263:2271  newOwner */\n      dup2\n        /* \"@openzeppelin/contracts/access/Ownable.sol\":2244:2262  _transferOwnership */\n      tag_165\n        /* \"@openzeppelin/contracts/access/Ownable.sol\":2244:2272  _transferOwnership(newOwner) */\n      jump\t// in\n        /* \"DEX.sol\":2452:3464  function _unstack(uint256 index) internal {... */\n    tag_135:\n        /* \"DEX.sol\":2537:2547  msg.sender */\n      caller\n        /* \"DEX.sol\":2504:2526  Stack_Struct memory ss */\n      0x00\n        /* \"DEX.sol\":2529:2548  Stacked[msg.sender] */\n      swap1\n      dup2\n      mstore\n        /* \"DEX.sol\":2529:2536  Stacked */\n      0x02\n        /* \"DEX.sol\":2529:2548  Stacked[msg.sender] */\n      0x20\n      mstore\n      0x40\n      dup2\n      keccak256\n        /* \"DEX.sol\":2529:2555  Stacked[msg.sender][index] */\n      dup1\n      sload\n        /* \"DEX.sol\":2549:2554  index */\n      dup4\n      swap1\n        /* \"DEX.sol\":2529:2555  Stacked[msg.sender][index] */\n      dup2\n      lt\n      tag_245\n      jumpi\n      tag_245\n      tag_246\n      jump\t// in\n    tag_245:\n      swap1\n      0x00\n      mstore\n      keccak256(0x00, 0x20)\n      swap1\n      0x03\n      mul\n      add\n        /* \"DEX.sol\":2504:2555  Stack_Struct memory ss = Stacked[msg.sender][index] */\n      mload(0x40)\n      dup1\n      0x60\n      add\n      0x40\n      mstore\n      swap1\n      dup2\n      0x00\n      dup3\n      add\n      sload\n      dup2\n      mstore\n      0x20\n      add\n      0x01\n      dup3\n      add\n      sload\n      dup2\n      mstore\n      0x20\n      add\n      0x02\n      dup3\n      add\n      sload\n      dup2\n      mstore\n      pop\n      pop\n      swap1\n      pop\n        /* \"DEX.sol\":2565:2576  uint256 tax */\n      0x00\n        /* \"DEX.sol\":2579:2595  _distributeTax() */\n      tag_248\n        /* \"DEX.sol\":2579:2593  _distributeTax */\n      tag_249\n        /* \"DEX.sol\":2579:2595  _distributeTax() */\n      jump\t// in\n    tag_248:\n        /* \"DEX.sol\":2631:2645  ss.meme_amount */\n      dup3\n      mload\n        /* \"DEX.sol\":2679:2692  ss.eth_amount */\n      0x20\n      dup5\n      add\n      mload\n        /* \"DEX.sol\":2565:2595  uint256 tax = _distributeTax() */\n      swap2\n      swap3\n      pop\n        /* \"DEX.sol\":2631:2645  ss.meme_amount */\n      swap1\n        /* \"DEX.sol\":2606:2628  uint256 meme_to_return */\n      0x00\n      swap1\n        /* \"DEX.sol\":2679:2698  ss.eth_amount + tax */\n      tag_250\n      swap1\n        /* \"DEX.sol\":2565:2595  uint256 tax = _distributeTax() */\n      dup5\n      swap1\n        /* \"DEX.sol\":2679:2698  ss.eth_amount + tax */\n      tag_159\n      jump\t// in\n    tag_250:\n        /* \"DEX.sol\":2730:2734  meme */\n      sload(0x01)\n        /* \"DEX.sol\":2730:2759  meme.balanceOf(address(this)) */\n      mload(0x40)\n      shl(0xe0, 0x70a08231)\n      dup2\n      mstore\n        /* \"DEX.sol\":2753:2757  this */\n      address\n        /* \"DEX.sol\":2730:2759  meme.balanceOf(address(this)) */\n      0x04\n      dup3\n      add\n        /* \"#utility.yul\":719:770   */\n      mstore\n        /* \"DEX.sol\":2655:2698  uint256 eth_to_return = ss.eth_amount + tax */\n      swap2\n      swap3\n      pop\n        /* \"DEX.sol\":2763:2777  meme_to_return */\n      dup4\n      swap2\n      sub(shl(0xa0, 0x01), 0x01)\n        /* \"DEX.sol\":2730:2734  meme */\n      swap1\n      swap2\n      and\n      swap1\n        /* \"DEX.sol\":2730:2744  meme.balanceOf */\n      0x70a08231\n      swap1\n        /* \"#utility.yul\":692:710   */\n      0x24\n      add\n        /* \"DEX.sol\":2730:2759  meme.balanceOf(address(this)) */\n      0x20\n      mload(0x40)\n      dup1\n      dup4\n      sub\n      dup2\n      dup7\n      gas\n      staticcall\n      iszero\n      dup1\n      iszero\n      tag_253\n      jumpi\n      returndatasize\n      0x00\n      dup1\n      returndatacopy\n      revert(0x00, returndatasize)\n    tag_253:\n      pop\n      pop\n      pop\n      pop\n      mload(0x40)\n      returndatasize\n      not(0x1f)\n      0x1f\n      dup3\n      add\n      and\n      dup3\n      add\n      dup1\n      0x40\n      mstore\n      pop\n      dup2\n      add\n      swap1\n      tag_254\n      swap2\n      swap1\n      tag_255\n      jump\t// in\n    tag_254:\n        /* \"DEX.sol\":2730:2777  meme.balanceOf(address(this)) >= meme_to_return */\n      lt\n      iszero\n        /* \"DEX.sol\":2709:2878  require(... */\n      tag_256\n      jumpi\n      mload(0x40)\n      shl(0xe5, 0x461bcd)\n      dup2\n      mstore\n        /* \"#utility.yul\":7608:7610   */\n      0x20\n        /* \"DEX.sol\":2709:2878  require(... */\n      0x04\n      dup3\n      add\n        /* \"#utility.yul\":7590:7611   */\n      mstore\n        /* \"#utility.yul\":7647:7649   */\n      0x4b\n        /* \"#utility.yul\":7627:7645   */\n      0x24\n      dup3\n      add\n        /* \"#utility.yul\":7620:7650   */\n      mstore\n        /* \"#utility.yul\":7686:7720   */\n      0x536f7272792043757272656e746c79207468697320636f6e747261637420646f\n        /* \"#utility.yul\":7666:7684   */\n      0x44\n      dup3\n      add\n        /* \"#utility.yul\":7659:7721   */\n      mstore\n        /* \"#utility.yul\":7757:7791   */\n      0x65736e27742068617665204d656d6520746f2072657475726e2c20436865636b\n        /* \"#utility.yul\":7737:7755   */\n      0x64\n      dup3\n      add\n        /* \"#utility.yul\":7730:7792   */\n      mstore\n      shl(0xa8, 0x206261636b20536f6f6e21)\n        /* \"#utility.yul\":7808:7827   */\n      0x84\n      dup3\n      add\n        /* \"#utility.yul\":7801:7843   */\n      mstore\n        /* \"#utility.yul\":7860:7879   */\n      0xa4\n      add\n        /* \"DEX.sol\":2709:2878  require(... */\n      tag_111\n        /* \"#utility.yul\":7406:7885   */\n      jump\n        /* \"DEX.sol\":2709:2878  require(... */\n    tag_256:\n        /* \"DEX.sol\":2934:2947  eth_to_return */\n      dup1\n        /* \"DEX.sol\":2909:2930  address(this).balance */\n      selfbalance\n        /* \"DEX.sol\":2909:2947  address(this).balance >= eth_to_return */\n      lt\n      iszero\n        /* \"DEX.sol\":2888:3047  require(... */\n      tag_259\n      jumpi\n      mload(0x40)\n      shl(0xe5, 0x461bcd)\n      dup2\n      mstore\n        /* \"#utility.yul\":8092:8094   */\n      0x20\n        /* \"DEX.sol\":2888:3047  require(... */\n      0x04\n      dup3\n      add\n        /* \"#utility.yul\":8074:8095   */\n      mstore\n        /* \"#utility.yul\":8131:8133   */\n      0x4a\n        /* \"#utility.yul\":8111:8129   */\n      0x24\n      dup3\n      add\n        /* \"#utility.yul\":8104:8134   */\n      mstore\n        /* \"#utility.yul\":8170:8204   */\n      0x536f7272792043757272656e746c79207468697320636f6e747261637420646f\n        /* \"#utility.yul\":8150:8168   */\n      0x44\n      dup3\n      add\n        /* \"#utility.yul\":8143:8205   */\n      mstore\n        /* \"#utility.yul\":8241:8275   */\n      0x65736e277420686176652045746820746f2072657475726e2c20436865636b20\n        /* \"#utility.yul\":8221:8239   */\n      0x64\n      dup3\n      add\n        /* \"#utility.yul\":8214:8276   */\n      mstore\n      shl(0xb0, 0x6261636b20536f6f6e21)\n        /* \"#utility.yul\":8292:8311   */\n      0x84\n      dup3\n      add\n        /* \"#utility.yul\":8285:8326   */\n      mstore\n        /* \"#utility.yul\":8343:8362   */\n      0xa4\n      add\n        /* \"DEX.sol\":2888:3047  require(... */\n      tag_111\n        /* \"#utility.yul\":7890:8368   */\n      jump\n        /* \"DEX.sol\":2888:3047  require(... */\n    tag_259:\n        /* \"DEX.sol\":3064:3078  meme_to_return */\n      dup2\n        /* \"DEX.sol\":3058:3060  _x */\n      0x06\n      0x00\n        /* \"DEX.sol\":3058:3078  _x -= meme_to_return */\n      dup3\n      dup3\n      sload\n      tag_262\n      swap2\n      swap1\n      tag_117\n      jump\t// in\n    tag_262:\n      swap3\n      pop\n      pop\n      dup2\n      swap1\n      sstore\n      pop\n        /* \"DEX.sol\":3094:3107  eth_to_return */\n      dup1\n        /* \"DEX.sol\":3088:3090  _y */\n      0x07\n      0x00\n        /* \"DEX.sol\":3088:3107  _y -= eth_to_return */\n      dup3\n      dup3\n      sload\n      tag_263\n      swap2\n      swap1\n      tag_117\n      jump\t// in\n    tag_263:\n      swap1\n      swap2\n      sstore\n      pop\n      pop\n        /* \"DEX.sol\":3118:3122  meme */\n      sload(0x01)\n        /* \"DEX.sol\":3118:3159  meme.transfer(msg.sender, meme_to_return) */\n      mload(0x40)\n      shl(0xe0, 0xa9059cbb)\n      dup2\n      mstore\n        /* \"DEX.sol\":3132:3142  msg.sender */\n      caller\n        /* \"DEX.sol\":3118:3159  meme.transfer(msg.sender, meme_to_return) */\n      0x04\n      dup3\n      add\n        /* \"#utility.yul\":4281:4332   */\n      mstore\n        /* \"#utility.yul\":4348:4366   */\n      0x24\n      dup2\n      add\n        /* \"#utility.yul\":4341:4375   */\n      dup5\n      swap1\n      mstore\n      sub(shl(0xa0, 0x01), 0x01)\n        /* \"DEX.sol\":3118:3122  meme */\n      swap1\n      swap2\n      and\n      swap1\n        /* \"DEX.sol\":3118:3131  meme.transfer */\n      0xa9059cbb\n      swap1\n        /* \"#utility.yul\":4254:4272   */\n      0x44\n      add\n        /* \"DEX.sol\":3118:3159  meme.transfer(msg.sender, meme_to_return) */\n      0x20\n      mload(0x40)\n      dup1\n      dup4\n      sub\n      dup2\n      0x00\n      dup8\n      gas\n      call\n      iszero\n      dup1\n      iszero\n      tag_266\n      jumpi\n      returndatasize\n      0x00\n      dup1\n      returndatacopy\n      revert(0x00, returndatasize)\n    tag_266:\n      pop\n      pop\n      pop\n      pop\n      mload(0x40)\n      returndatasize\n      not(0x1f)\n      0x1f\n      dup3\n      add\n      and\n      dup3\n      add\n      dup1\n      0x40\n      mstore\n      pop\n      dup2\n      add\n      swap1\n      tag_267\n      swap2\n      swap1\n      tag_185\n      jump\t// in\n    tag_267:\n      pop\n        /* \"DEX.sol\":3169:3212  payable(msg.sender).transfer(eth_to_return) */\n      mload(0x40)\n        /* \"DEX.sol\":3177:3187  msg.sender */\n      caller\n      swap1\n        /* \"DEX.sol\":3169:3212  payable(msg.sender).transfer(eth_to_return) */\n      dup3\n      iszero\n      0x08fc\n      mul\n      swap1\n        /* \"DEX.sol\":3198:3211  eth_to_return */\n      dup4\n      swap1\n        /* \"DEX.sol\":3169:3212  payable(msg.sender).transfer(eth_to_return) */\n      0x00\n      dup2\n      dup2\n      dup2\n        /* \"DEX.sol\":3198:3211  eth_to_return */\n      dup6\n        /* \"DEX.sol\":3177:3187  msg.sender */\n      dup9\n        /* \"DEX.sol\":3169:3212  payable(msg.sender).transfer(eth_to_return) */\n      dup9\n      call\n      swap4\n      pop\n      pop\n      pop\n      pop\n      iszero\n      dup1\n      iszero\n      tag_269\n      jumpi\n      returndatasize\n      0x00\n      dup1\n      returndatacopy\n      revert(0x00, returndatasize)\n    tag_269:\n      pop\n        /* \"DEX.sol\":3227:3229  _x */\n      sload(0x06)\n        /* \"DEX.sol\":3233:3234  0 */\n      0x00\n        /* \"DEX.sol\":3227:3234  _x == 0 */\n      sub\n        /* \"DEX.sol\":3223:3344  if (_x == 0) {... */\n      tag_270\n      jumpi\n        /* \"DEX.sol\":3265:3266  0 */\n      0x00\n        /* \"DEX.sol\":3250:3262  stackingRate */\n      0x04\n        /* \"DEX.sol\":3250:3266  stackingRate = 0 */\n      sstore\n        /* \"DEX.sol\":3223:3344  if (_x == 0) {... */\n      jump(tag_271)\n    tag_270:\n        /* \"DEX.sol\":3331:3333  _x */\n      sload(0x06)\n        /* \"DEX.sol\":3318:3327  precision */\n      sload(0x08)\n        /* \"DEX.sol\":3313:3315  _y */\n      sload(0x07)\n        /* \"DEX.sol\":3313:3327  _y * precision */\n      tag_272\n      swap2\n      swap1\n      tag_127\n      jump\t// in\n    tag_272:\n        /* \"DEX.sol\":3312:3333  (_y * precision) / _x */\n      tag_273\n      swap2\n      swap1\n      tag_115\n      jump\t// in\n    tag_273:\n        /* \"DEX.sol\":3297:3309  stackingRate */\n      0x04\n        /* \"DEX.sol\":3297:3333  stackingRate = (_y * precision) / _x */\n      sstore\n        /* \"DEX.sol\":3223:3344  if (_x == 0) {... */\n    tag_271:\n        /* \"DEX.sol\":3354:3371  _removeArr(index) */\n      tag_274\n        /* \"DEX.sol\":3365:3370  index */\n      dup6\n        /* \"DEX.sol\":3354:3364  _removeArr */\n      tag_275\n        /* \"DEX.sol\":3354:3371  _removeArr(index) */\n      jump\t// in\n    tag_274:\n        /* \"DEX.sol\":3382:3392  _updateK() */\n      tag_276\n        /* \"DEX.sol\":3382:3390  _updateK */\n      tag_277\n        /* \"DEX.sol\":3382:3392  _updateK() */\n      jump\t// in\n    tag_276:\n        /* \"DEX.sol\":3407:3457  UnStack(msg.sender, meme_to_return, eth_to_return) */\n      0x40\n      dup1\n      mload\n        /* \"#utility.yul\":4842:4867   */\n      dup4\n      dup2\n      mstore\n        /* \"#utility.yul\":4898:4900   */\n      0x20\n        /* \"#utility.yul\":4883:4901   */\n      dup2\n      add\n        /* \"#utility.yul\":4876:4910   */\n      dup4\n      swap1\n      mstore\n        /* \"DEX.sol\":3415:3425  msg.sender */\n      caller\n      swap2\n        /* \"DEX.sol\":3407:3457  UnStack(msg.sender, meme_to_return, eth_to_return) */\n      0xbb564df1f5d4ebb97b073adcab505c7796a37035ac5d14f51269660939c39cf4\n      swap2\n        /* \"#utility.yul\":4815:4833   */\n      add\n        /* \"DEX.sol\":3407:3457  UnStack(msg.sender, meme_to_return, eth_to_return) */\n      mload(0x40)\n      dup1\n      swap2\n      sub\n      swap1\n      log2\n        /* \"DEX.sol\":2494:3464  {... */\n      pop\n      pop\n      pop\n      pop\n        /* \"DEX.sol\":2452:3464  function _unstack(uint256 index) internal {... */\n      pop\n      jump\t// out\n        /* \"@openzeppelin/contracts/access/Ownable.sol\":1359:1489  function _checkOwner() internal view virtual {... */\n    tag_138:\n        /* \"@openzeppelin/contracts/access/Ownable.sol\":1247:1254  address */\n      0x00\n        /* \"@openzeppelin/contracts/access/Ownable.sol\":1273:1279  _owner */\n      sload\n      sub(shl(0xa0, 0x01), 0x01)\n      0x0100\n      swap1\n      swap2\n      div\n      and\n        /* \"@openzeppelin/contracts/utils/Context.sol\":719:729  msg.sender */\n      caller\n        /* \"@openzeppelin/contracts/access/Ownable.sol\":1422:1445  owner() == _msgSender() */\n      eq\n        /* \"@openzeppelin/contracts/access/Ownable.sol\":1414:1482  require(owner() == _msgSender(), \"Ownable: caller is not the owner\") */\n      tag_140\n      jumpi\n      mload(0x40)\n      shl(0xe5, 0x461bcd)\n      dup2\n      mstore\n        /* \"#utility.yul\":8575:8577   */\n      0x20\n        /* \"@openzeppelin/contracts/access/Ownable.sol\":1414:1482  require(owner() == _msgSender(), \"Ownable: caller is not the owner\") */\n      0x04\n      dup3\n      add\n        /* \"#utility.yul\":8557:8578   */\n      dup2\n      swap1\n      mstore\n        /* \"#utility.yul\":8594:8612   */\n      0x24\n      dup3\n      add\n        /* \"#utility.yul\":8587:8617   */\n      mstore\n        /* \"#utility.yul\":8653:8687   */\n      0x4f776e61626c653a2063616c6c6572206973206e6f7420746865206f776e6572\n        /* \"#utility.yul\":8633:8651   */\n      0x44\n      dup3\n      add\n        /* \"#utility.yul\":8626:8688   */\n      mstore\n        /* \"#utility.yul\":8705:8723   */\n      0x64\n      add\n        /* \"@openzeppelin/contracts/access/Ownable.sol\":1414:1482  require(owner() == _msgSender(), \"Ownable: caller is not the owner\") */\n      tag_111\n        /* \"#utility.yul\":8373:8729   */\n      jump\n        /* \"@openzeppelin/contracts/security/Pausable.sol\":2433:2550  function _unpause() internal virtual whenPaused {... */\n    tag_141:\n        /* \"@openzeppelin/contracts/security/Pausable.sol\":1486:1502  _requirePaused() */\n      tag_287\n        /* \"@openzeppelin/contracts/security/Pausable.sol\":1486:1500  _requirePaused */\n      tag_288\n        /* \"@openzeppelin/contracts/security/Pausable.sol\":1486:1502  _requirePaused() */\n      jump\t// in\n    tag_287:\n        /* \"@openzeppelin/contracts/security/Pausable.sol\":2501:2506  false */\n      0x00\n        /* \"@openzeppelin/contracts/security/Pausable.sol\":2491:2506  _paused = false */\n      dup1\n      sload\n      not(0xff)\n      and\n      swap1\n      sstore\n        /* \"@openzeppelin/contracts/security/Pausable.sol\":2521:2543  Unpaused(_msgSender()) */\n      0x5db9ee0a495bf2e6ff9c91a7834c1ba4fdd244a5e8aa4e537bd38aeae4b073aa\n        /* \"@openzeppelin/contracts/utils/Context.sol\":719:729  msg.sender */\n      caller\n        /* \"@openzeppelin/contracts/security/Pausable.sol\":2530:2542  _msgSender() */\n    tag_290:\n        /* \"@openzeppelin/contracts/security/Pausable.sol\":2521:2543  Unpaused(_msgSender()) */\n      mload(0x40)\n      sub(shl(0xa0, 0x01), 0x01)\n        /* \"#utility.yul\":737:769   */\n      swap1\n      swap2\n      and\n        /* \"#utility.yul\":719:770   */\n      dup2\n      mstore\n        /* \"#utility.yul\":707:709   */\n      0x20\n        /* \"#utility.yul\":692:710   */\n      add\n        /* \"@openzeppelin/contracts/security/Pausable.sol\":2521:2543  Unpaused(_msgSender()) */\n      mload(0x40)\n      dup1\n      swap2\n      sub\n      swap1\n      log1\n        /* \"@openzeppelin/contracts/security/Pausable.sol\":2433:2550  function _unpause() internal virtual whenPaused {... */\n      jump\t// out\n        /* \"@openzeppelin/contracts/access/Ownable.sol\":2433:2620  function _transferOwnership(address newOwner) internal virtual {... */\n    tag_165:\n        /* \"@openzeppelin/contracts/access/Ownable.sol\":2506:2522  address oldOwner */\n      0x00\n        /* \"@openzeppelin/contracts/access/Ownable.sol\":2525:2531  _owner */\n      dup1\n      sload\n      sub(shl(0xa0, 0x01), 0x01)\n        /* \"@openzeppelin/contracts/access/Ownable.sol\":2541:2558  _owner = newOwner */\n      dup4\n      dup2\n      and\n        /* \"@openzeppelin/contracts/access/Ownable.sol\":2525:2531  _owner */\n      0x0100\n        /* \"@openzeppelin/contracts/access/Ownable.sol\":2541:2558  _owner = newOwner */\n      dup2\n      dup2\n      mul\n      not(sub(shl(0xa8, 0x01), 0x0100))\n      dup6\n      and\n      or\n      dup6\n      sstore\n        /* \"@openzeppelin/contracts/access/Ownable.sol\":2573:2613  OwnershipTransferred(oldOwner, newOwner) */\n      mload(0x40)\n        /* \"@openzeppelin/contracts/access/Ownable.sol\":2525:2531  _owner */\n      swap4\n      div\n      swap2\n      swap1\n      swap2\n      and\n      swap3\n        /* \"@openzeppelin/contracts/access/Ownable.sol\":2541:2558  _owner = newOwner */\n      swap1\n      swap2\n        /* \"@openzeppelin/contracts/access/Ownable.sol\":2525:2531  _owner */\n      dup4\n      swap2\n        /* \"@openzeppelin/contracts/access/Ownable.sol\":2573:2613  OwnershipTransferred(oldOwner, newOwner) */\n      0x8be0079c531659141344cd1fd0a4f28419497f9722a3daafe3b4186f6b6457e0\n      swap2\n      log3\n        /* \"@openzeppelin/contracts/access/Ownable.sol\":2496:2620  {... */\n      pop\n        /* \"@openzeppelin/contracts/access/Ownable.sol\":2433:2620  function _transferOwnership(address newOwner) internal virtual {... */\n      pop\n      jump\t// out\n        /* \"@openzeppelin/contracts/security/Pausable.sol\":2186:2301  function _pause() internal virtual whenNotPaused {... */\n    tag_170:\n        /* \"@openzeppelin/contracts/security/Pausable.sol\":1239:1258  _requireNotPaused() */\n      tag_294\n        /* \"@openzeppelin/contracts/security/Pausable.sol\":1239:1256  _requireNotPaused */\n      tag_295\n        /* \"@openzeppelin/contracts/security/Pausable.sol\":1239:1258  _requireNotPaused() */\n      jump\t// in\n    tag_294:\n        /* \"@openzeppelin/contracts/security/Pausable.sol\":2245:2252  _paused */\n      0x00\n        /* \"@openzeppelin/contracts/security/Pausable.sol\":2245:2259  _paused = true */\n      dup1\n      sload\n      not(0xff)\n      and\n        /* \"@openzeppelin/contracts/security/Pausable.sol\":2255:2259  true */\n      0x01\n        /* \"@openzeppelin/contracts/security/Pausable.sol\":2245:2259  _paused = true */\n      or\n      swap1\n      sstore\n        /* \"@openzeppelin/contracts/security/Pausable.sol\":2274:2294  Paused(_msgSender()) */\n      0x62e78cea01bee320cd4e420270b5ea74000d11b0c9f74754ebdbfc544b05a258\n        /* \"@openzeppelin/contracts/security/Pausable.sol\":2281:2293  _msgSender() */\n      tag_290\n        /* \"@openzeppelin/contracts/utils/Context.sol\":719:729  msg.sender */\n      caller\n      swap1\n        /* \"@openzeppelin/contracts/utils/Context.sol\":640:736  function _msgSender() internal view virtual returns (address) {... */\n      jump\n        /* \"DEX.sol\":1953:2446  function _stack(uint256 meme_amount, uint256 eth_amount) internal {... */\n    tag_211:\n        /* \"DEX.sol\":2029:2033  meme */\n      sload(0x01)\n        /* \"DEX.sol\":2029:2086  meme.transferFrom(msg.sender, address(this), meme_amount) */\n      mload(0x40)\n      shl(0xe0, 0x23b872dd)\n      dup2\n      mstore\n        /* \"DEX.sol\":2047:2057  msg.sender */\n      caller\n        /* \"DEX.sol\":2029:2086  meme.transferFrom(msg.sender, address(this), meme_amount) */\n      0x04\n      dup3\n      add\n        /* \"#utility.yul\":6538:6572   */\n      mstore\n        /* \"DEX.sol\":2067:2071  this */\n      address\n        /* \"#utility.yul\":6588:6606   */\n      0x24\n      dup3\n      add\n        /* \"#utility.yul\":6581:6624   */\n      mstore\n        /* \"#utility.yul\":6640:6658   */\n      0x44\n      dup2\n      add\n        /* \"#utility.yul\":6633:6667   */\n      dup5\n      swap1\n      mstore\n      sub(shl(0xa0, 0x01), 0x01)\n        /* \"DEX.sol\":2029:2033  meme */\n      swap1\n      swap2\n      and\n      swap1\n        /* \"DEX.sol\":2029:2046  meme.transferFrom */\n      0x23b872dd\n      swap1\n        /* \"#utility.yul\":6473:6491   */\n      0x64\n      add\n        /* \"DEX.sol\":2029:2086  meme.transferFrom(msg.sender, address(this), meme_amount) */\n      0x20\n      mload(0x40)\n      dup1\n      dup4\n      sub\n      dup2\n      0x00\n      dup8\n      gas\n      call\n      iszero\n      dup1\n      iszero\n      tag_302\n      jumpi\n      returndatasize\n      0x00\n      dup1\n      returndatacopy\n      revert(0x00, returndatasize)\n    tag_302:\n      pop\n      pop\n      pop\n      pop\n      mload(0x40)\n      returndatasize\n      not(0x1f)\n      0x1f\n      dup3\n      add\n      and\n      dup3\n      add\n      dup1\n      0x40\n      mstore\n      pop\n      dup2\n      add\n      swap1\n      tag_303\n      swap2\n      swap1\n      tag_185\n      jump\t// in\n    tag_303:\n      pop\n        /* \"DEX.sol\":2102:2113  meme_amount */\n      dup2\n        /* \"DEX.sol\":2096:2098  _x */\n      0x06\n      0x00\n        /* \"DEX.sol\":2096:2113  _x += meme_amount */\n      dup3\n      dup3\n      sload\n      tag_304\n      swap2\n      swap1\n      tag_159\n      jump\t// in\n    tag_304:\n      swap3\n      pop\n      pop\n      dup2\n      swap1\n      sstore\n      pop\n        /* \"DEX.sol\":2129:2139  eth_amount */\n      dup1\n        /* \"DEX.sol\":2123:2125  _y */\n      0x07\n      0x00\n        /* \"DEX.sol\":2123:2139  _y += eth_amount */\n      dup3\n      dup3\n      sload\n      tag_305\n      swap2\n      swap1\n      tag_159\n      jump\t// in\n    tag_305:\n      swap1\n      swap2\n      sstore\n      pop\n      pop\n        /* \"DEX.sol\":2175:2275  Stack_Struct(... */\n      0x40\n      dup1\n      mload\n      0x60\n      dup2\n      add\n      dup3\n      mstore\n      dup4\n      dup2\n      mstore\n      0x20\n      dup1\n      dup3\n      add\n      dup5\n      dup2\n      mstore\n        /* \"DEX.sol\":2250:2265  block.timestamp */\n      timestamp\n        /* \"DEX.sol\":2175:2275  Stack_Struct(... */\n      dup4\n      dup6\n      add\n      swap1\n      dup2\n      mstore\n        /* \"DEX.sol\":2293:2303  msg.sender */\n      caller\n        /* \"DEX.sol\":2150:2172  Stack_Struct memory ss */\n      0x00\n        /* \"DEX.sol\":2285:2304  Stacked[msg.sender] */\n      swap1\n      dup2\n      mstore\n        /* \"DEX.sol\":2285:2292  Stacked */\n      0x02\n        /* \"DEX.sol\":2285:2304  Stacked[msg.sender] */\n      dup1\n      dup6\n      mstore\n      swap6\n      dup2\n      keccak256\n        /* \"DEX.sol\":2285:2313  Stacked[msg.sender].push(ss) */\n      dup1\n      sload\n      0x01\n      dup2\n      dup2\n      add\n      dup4\n      sstore\n      swap2\n      dup4\n      mstore\n      swap5\n      swap1\n      swap2\n      keccak256\n      dup6\n      mload\n      0x03\n      swap1\n      swap6\n      mul\n      add\n      swap4\n      dup5\n      sstore\n      swap2\n      mload\n      swap2\n      dup4\n      add\n      swap2\n      swap1\n      swap2\n      sstore\n      mload\n      swap3\n      add\n      swap2\n      swap1\n      swap2\n      sstore\n        /* \"DEX.sol\":2359:2361  _x */\n      sload(0x06)\n        /* \"DEX.sol\":2346:2355  precision */\n      sload(0x08)\n        /* \"DEX.sol\":2341:2343  _y */\n      sload(0x07)\n        /* \"DEX.sol\":2341:2355  _y * precision */\n      tag_307\n      swap2\n        /* \"DEX.sol\":2346:2355  precision */\n      swap1\n        /* \"DEX.sol\":2341:2355  _y * precision */\n      tag_127\n      jump\t// in\n    tag_307:\n        /* \"DEX.sol\":2340:2361  (_y * precision) / _x */\n      tag_308\n      swap2\n      swap1\n      tag_115\n      jump\t// in\n    tag_308:\n        /* \"DEX.sol\":2324:2336  stackingRate */\n      0x04\n        /* \"DEX.sol\":2324:2362  stackingRate = ((_y * precision) / _x) */\n      sstore\n        /* \"DEX.sol\":2373:2383  _updateK() */\n      tag_309\n        /* \"DEX.sol\":2373:2381  _updateK */\n      tag_277\n        /* \"DEX.sol\":2373:2383  _updateK() */\n      jump\t// in\n    tag_309:\n        /* \"DEX.sol\":2398:2439  Stack(msg.sender, meme_amount, msg.value) */\n      0x40\n      dup1\n      mload\n        /* \"#utility.yul\":4842:4867   */\n      dup5\n      dup2\n      mstore\n        /* \"DEX.sol\":2429:2438  msg.value */\n      callvalue\n        /* \"#utility.yul\":4898:4900   */\n      0x20\n        /* \"#utility.yul\":4883:4901   */\n      dup3\n      add\n        /* \"#utility.yul\":4876:4910   */\n      mstore\n        /* \"DEX.sol\":2404:2414  msg.sender */\n      caller\n      swap2\n        /* \"DEX.sol\":2398:2439  Stack(msg.sender, meme_amount, msg.value) */\n      0x5caad8f5613b6f1d592fc8c69d8f0999453740f0806c754f20cc92f3d4b2b1b6\n      swap2\n        /* \"#utility.yul\":4815:4833   */\n      add\n        /* \"DEX.sol\":2398:2439  Stack(msg.sender, meme_amount, msg.value) */\n      mload(0x40)\n      dup1\n      swap2\n      sub\n      swap1\n      log2\n        /* \"DEX.sol\":2019:2446  {... */\n      pop\n        /* \"DEX.sol\":1953:2446  function _stack(uint256 meme_amount, uint256 eth_amount) internal {... */\n      pop\n      pop\n      jump\t// out\n        /* \"DEX.sol\":3788:4816  function _distributeTax() internal view returns (uint256) {... */\n    tag_249:\n        /* \"DEX.sol\":3837:3844  uint256 */\n      0x00\n      dup1\n      dup1\n        /* \"DEX.sol\":3890:3898  dailyTax */\n      0x03\n        /* \"DEX.sol\":3837:3844  uint256 */\n      dup2\n        /* \"DEX.sol\":3899:3923  block.timestamp / 1 days */\n      tag_312\n        /* \"DEX.sol\":3917:3923  1 days */\n      0x015180\n        /* \"DEX.sol\":3899:3914  block.timestamp */\n      timestamp\n        /* \"DEX.sol\":3899:3923  block.timestamp / 1 days */\n      tag_115\n      jump\t// in\n    tag_312:\n        /* \"DEX.sol\":3890:3924  dailyTax[block.timestamp / 1 days] */\n      dup2\n      mstore\n      0x20\n      add\n      swap1\n      dup2\n      mstore\n      0x20\n      add\n      0x00\n      keccak256\n      sload\n        /* \"DEX.sol\":3890:3928  dailyTax[block.timestamp / 1 days] > 0 */\n      gt\n        /* \"DEX.sol\":3886:4785  if (dailyTax[block.timestamp / 1 days] > 0) {... */\n      iszero\n      tag_313\n      jumpi\n        /* \"DEX.sol\":3984:3994  msg.sender */\n      caller\n        /* \"DEX.sol\":3944:3973  Stack_Struct[] storage stacks */\n      0x00\n        /* \"DEX.sol\":3976:3995  Stacked[msg.sender] */\n      swap1\n      dup2\n      mstore\n        /* \"DEX.sol\":3976:3983  Stacked */\n      0x02\n        /* \"DEX.sol\":3976:3995  Stacked[msg.sender] */\n      0x20\n      mstore\n      0x40\n      dup2\n      keccak256\n        /* \"DEX.sol\":4029:4042  stacks.length */\n      dup1\n      sload\n        /* \"DEX.sol\":3976:3995  Stacked[msg.sender] */\n      swap1\n      swap2\n        /* \"DEX.sol\":3944:3973  Stack_Struct[] storage stacks */\n      dup1\n        /* \"DEX.sol\":4096:4266  for (uint256 i = 0; i < numStacks; i++) {... */\n    tag_314:\n        /* \"DEX.sol\":4120:4129  numStacks */\n      dup3\n        /* \"DEX.sol\":4116:4117  i */\n      dup2\n        /* \"DEX.sol\":4116:4129  i < numStacks */\n      lt\n        /* \"DEX.sol\":4096:4266  for (uint256 i = 0; i < numStacks; i++) {... */\n      iszero\n      tag_315\n      jumpi\n        /* \"DEX.sol\":4154:4176  Stack_Struct memory ss */\n      0x00\n        /* \"DEX.sol\":4179:4185  stacks */\n      dup5\n        /* \"DEX.sol\":4186:4187  i */\n      dup3\n        /* \"DEX.sol\":4179:4188  stacks[i] */\n      dup2\n      sload\n      dup2\n      lt\n      tag_318\n      jumpi\n      tag_318\n      tag_246\n      jump\t// in\n    tag_318:\n      swap1\n      0x00\n      mstore\n      keccak256(0x00, 0x20)\n      swap1\n      0x03\n      mul\n      add\n        /* \"DEX.sol\":4154:4188  Stack_Struct memory ss = stacks[i] */\n      mload(0x40)\n      dup1\n      0x60\n      add\n      0x40\n      mstore\n      swap1\n      dup2\n      0x00\n      dup3\n      add\n      sload\n      dup2\n      mstore\n      0x20\n      add\n      0x01\n      dup3\n      add\n      sload\n      dup2\n      mstore\n      0x20\n      add\n      0x02\n      dup3\n      add\n      sload\n      dup2\n      mstore\n      pop\n      pop\n      swap1\n      pop\n        /* \"DEX.sol\":4243:4245  ss */\n      dup1\n        /* \"DEX.sol\":4243:4250  ss.time */\n      0x40\n      add\n      mload\n        /* \"DEX.sol\":4225:4240  block.timestamp */\n      timestamp\n        /* \"DEX.sol\":4225:4250  block.timestamp - ss.time */\n      tag_320\n      swap2\n      swap1\n      tag_117\n      jump\t// in\n    tag_320:\n        /* \"DEX.sol\":4206:4251  totalStackTime += (block.timestamp - ss.time) */\n      tag_321\n      swap1\n      dup5\n      tag_159\n      jump\t// in\n    tag_321:\n      swap3\n      pop\n        /* \"DEX.sol\":4136:4266  {... */\n      pop\n        /* \"DEX.sol\":4131:4134  i++ */\n      dup1\n      dup1\n      tag_322\n      swap1\n      tag_323\n      jump\t// in\n    tag_322:\n      swap2\n      pop\n      pop\n        /* \"DEX.sol\":4096:4266  for (uint256 i = 0; i < numStacks; i++) {... */\n      jump(tag_314)\n    tag_315:\n      pop\n        /* \"DEX.sol\":4284:4293  uint256 i */\n      0x00\n        /* \"DEX.sol\":4279:4775  for (uint256 i = 0; i < numStacks; i++) {... */\n    tag_324:\n        /* \"DEX.sol\":4303:4312  numStacks */\n      dup3\n        /* \"DEX.sol\":4299:4300  i */\n      dup2\n        /* \"DEX.sol\":4299:4312  i < numStacks */\n      lt\n        /* \"DEX.sol\":4279:4775  for (uint256 i = 0; i < numStacks; i++) {... */\n      iszero\n      tag_325\n      jumpi\n        /* \"DEX.sol\":4337:4359  Stack_Struct memory ss */\n      0x00\n        /* \"DEX.sol\":4362:4368  stacks */\n      dup5\n        /* \"DEX.sol\":4369:4370  i */\n      dup3\n        /* \"DEX.sol\":4362:4371  stacks[i] */\n      dup2\n      sload\n      dup2\n      lt\n      tag_328\n      jumpi\n      tag_328\n      tag_246\n      jump\t// in\n    tag_328:\n      0x00\n      swap2\n      dup3\n      mstore\n      0x20\n      dup1\n      dup4\n      keccak256\n        /* \"DEX.sol\":4337:4371  Stack_Struct memory ss = stacks[i] */\n      0x40\n      dup1\n      mload\n      0x60\n      dup2\n      add\n      dup3\n      mstore\n        /* \"DEX.sol\":4362:4371  stacks[i] */\n      0x03\n      swap1\n      swap5\n      mul\n      swap1\n      swap2\n      add\n        /* \"DEX.sol\":4337:4371  Stack_Struct memory ss = stacks[i] */\n      dup1\n      sload\n      dup1\n      dup6\n      mstore\n      0x01\n      dup3\n      add\n      sload\n      swap4\n      dup6\n      add\n      swap4\n      swap1\n      swap4\n      mstore\n      0x02\n      add\n      sload\n      swap1\n      dup4\n      add\n      mstore\n        /* \"DEX.sol\":4441:4443  _x */\n      sload(0x06)\n        /* \"DEX.sol\":4428:4437  precision */\n      sload(0x08)\n        /* \"DEX.sol\":4337:4371  Stack_Struct memory ss = stacks[i] */\n      swap3\n      swap5\n      pop\n        /* \"DEX.sol\":4441:4443  _x */\n      swap2\n        /* \"DEX.sol\":4411:4437  ss.meme_amount * precision */\n      tag_330\n      swap2\n      tag_127\n      jump\t// in\n    tag_330:\n        /* \"DEX.sol\":4410:4443  (ss.meme_amount * precision) / _x */\n      tag_331\n      swap2\n      swap1\n      tag_115\n      jump\t// in\n    tag_331:\n        /* \"DEX.sol\":4389:4444  uint256 poolShare = ((ss.meme_amount * precision) / _x) */\n      swap1\n      pop\n        /* \"DEX.sol\":4462:4479  uint256 stackTime */\n      0x00\n        /* \"DEX.sol\":4501:4503  ss */\n      dup3\n        /* \"DEX.sol\":4501:4508  ss.time */\n      0x40\n      add\n      mload\n        /* \"DEX.sol\":4483:4498  block.timestamp */\n      timestamp\n        /* \"DEX.sol\":4483:4508  block.timestamp - ss.time */\n      tag_332\n      swap2\n      swap1\n      tag_117\n      jump\t// in\n    tag_332:\n        /* \"DEX.sol\":4462:4509  uint256 stackTime = (block.timestamp - ss.time) */\n      swap1\n      pop\n        /* \"DEX.sol\":4527:4546  uint256 stackWeight */\n      0x00\n        /* \"DEX.sol\":4549:4575  stackTime / totalStackTime */\n      tag_333\n        /* \"DEX.sol\":4561:4575  totalStackTime */\n      dup7\n        /* \"DEX.sol\":4462:4509  uint256 stackTime = (block.timestamp - ss.time) */\n      dup4\n        /* \"DEX.sol\":4549:4575  stackTime / totalStackTime */\n      tag_115\n      jump\t// in\n    tag_333:\n        /* \"DEX.sol\":4758:4760  _k */\n      sload(0x05)\n        /* \"DEX.sol\":4527:4575  uint256 stackWeight = stackTime / totalStackTime */\n      swap1\n      swap2\n      pop\n      dup2\n        /* \"DEX.sol\":4662:4670  dailyTax */\n      0x03\n        /* \"DEX.sol\":4662:4696  dailyTax[block.timestamp / 1 days] */\n      0x00\n        /* \"DEX.sol\":4671:4695  block.timestamp / 1 days */\n      tag_334\n        /* \"DEX.sol\":4689:4695  1 days */\n      0x015180\n        /* \"DEX.sol\":4671:4686  block.timestamp */\n      timestamp\n        /* \"DEX.sol\":4671:4695  block.timestamp / 1 days */\n      tag_115\n      jump\t// in\n    tag_334:\n        /* \"DEX.sol\":4662:4696  dailyTax[block.timestamp / 1 days] */\n      dup2\n      mstore\n      0x20\n      add\n      swap1\n      dup2\n      mstore\n      0x20\n      add\n      0x00\n      keccak256\n      sload\n        /* \"DEX.sol\":4626:4635  poolShare */\n      dup6\n        /* \"DEX.sol\":4626:4696  poolShare *... */\n      tag_335\n      swap2\n      swap1\n      tag_127\n      jump\t// in\n    tag_335:\n        /* \"DEX.sol\":4626:4734  poolShare *... */\n      tag_336\n      swap2\n      swap1\n      tag_127\n      jump\t// in\n    tag_336:\n        /* \"DEX.sol\":4625:4760  (poolShare *... */\n      tag_337\n      swap2\n      swap1\n      tag_115\n      jump\t// in\n    tag_337:\n        /* \"DEX.sol\":4593:4760  taxShare +=... */\n      tag_338\n      swap1\n      dup11\n      tag_159\n      jump\t// in\n    tag_338:\n      swap9\n      pop\n        /* \"DEX.sol\":4319:4775  {... */\n      pop\n      pop\n      pop\n      pop\n        /* \"DEX.sol\":4314:4317  i++ */\n      dup1\n      dup1\n      tag_339\n      swap1\n      tag_323\n      jump\t// in\n    tag_339:\n      swap2\n      pop\n      pop\n        /* \"DEX.sol\":4279:4775  for (uint256 i = 0; i < numStacks; i++) {... */\n      jump(tag_324)\n    tag_325:\n      pop\n        /* \"DEX.sol\":3930:4785  {... */\n      pop\n      pop\n      pop\n        /* \"DEX.sol\":3886:4785  if (dailyTax[block.timestamp / 1 days] > 0) {... */\n    tag_313:\n        /* \"DEX.sol\":4801:4809  taxShare */\n      swap2\n        /* \"DEX.sol\":3788:4816  function _distributeTax() internal view returns (uint256) {... */\n      swap1\n      pop\n      jump\t// out\n        /* \"DEX.sol\":3470:3782  function _removeArr(uint256 index) internal {... */\n    tag_275:\n        /* \"DEX.sol\":3548:3558  msg.sender */\n      caller\n        /* \"DEX.sol\":3540:3559  Stacked[msg.sender] */\n      0x00\n      swap1\n      dup2\n      mstore\n        /* \"DEX.sol\":3540:3547  Stacked */\n      0x02\n        /* \"DEX.sol\":3540:3559  Stacked[msg.sender] */\n      0x20\n      mstore\n      0x40\n      swap1\n      keccak256\n        /* \"DEX.sol\":3540:3566  Stacked[msg.sender].length */\n      sload\n        /* \"DEX.sol\":3532:3566  index < Stacked[msg.sender].length */\n      dup2\n      lt\n        /* \"DEX.sol\":3524:3590  require(index < Stacked[msg.sender].length, \"Index out of bounds\") */\n      tag_341\n      jumpi\n      mload(0x40)\n      shl(0xe5, 0x461bcd)\n      dup2\n      mstore\n        /* \"#utility.yul\":9076:9078   */\n      0x20\n        /* \"DEX.sol\":3524:3590  require(index < Stacked[msg.sender].length, \"Index out of bounds\") */\n      0x04\n      dup3\n      add\n        /* \"#utility.yul\":9058:9079   */\n      mstore\n        /* \"#utility.yul\":9115:9117   */\n      0x13\n        /* \"#utility.yul\":9095:9113   */\n      0x24\n      dup3\n      add\n        /* \"#utility.yul\":9088:9118   */\n      mstore\n      shl(0x68, 0x496e646578206f7574206f6620626f756e6473)\n        /* \"#utility.yul\":9134:9152   */\n      0x44\n      dup3\n      add\n        /* \"#utility.yul\":9127:9176   */\n      mstore\n        /* \"#utility.yul\":9193:9211   */\n      0x64\n      add\n        /* \"DEX.sol\":3524:3590  require(index < Stacked[msg.sender].length, \"Index out of bounds\") */\n      tag_111\n        /* \"#utility.yul\":8874:9217   */\n      jump\n        /* \"DEX.sol\":3524:3590  require(index < Stacked[msg.sender].length, \"Index out of bounds\") */\n    tag_341:\n        /* \"DEX.sol\":3617:3622  index */\n      dup1\n        /* \"DEX.sol\":3600:3741  for (uint256 i = index; i < Stacked[msg.sender].length - 1; i++) {... */\n    tag_344:\n        /* \"DEX.sol\":3636:3646  msg.sender */\n      caller\n        /* \"DEX.sol\":3628:3647  Stacked[msg.sender] */\n      0x00\n      swap1\n      dup2\n      mstore\n        /* \"DEX.sol\":3628:3635  Stacked */\n      0x02\n        /* \"DEX.sol\":3628:3647  Stacked[msg.sender] */\n      0x20\n      mstore\n      0x40\n      swap1\n      keccak256\n        /* \"DEX.sol\":3628:3654  Stacked[msg.sender].length */\n      sload\n        /* \"DEX.sol\":3628:3658  Stacked[msg.sender].length - 1 */\n      tag_347\n      swap1\n        /* \"DEX.sol\":3657:3658  1 */\n      0x01\n      swap1\n        /* \"DEX.sol\":3628:3658  Stacked[msg.sender].length - 1 */\n      tag_117\n      jump\t// in\n    tag_347:\n        /* \"DEX.sol\":3624:3625  i */\n      dup2\n        /* \"DEX.sol\":3624:3658  i < Stacked[msg.sender].length - 1 */\n      lt\n        /* \"DEX.sol\":3600:3741  for (uint256 i = index; i < Stacked[msg.sender].length - 1; i++) {... */\n      iszero\n      tag_345\n      jumpi\n        /* \"DEX.sol\":3712:3722  msg.sender */\n      caller\n        /* \"DEX.sol\":3704:3723  Stacked[msg.sender] */\n      0x00\n      swap1\n      dup2\n      mstore\n        /* \"DEX.sol\":3704:3711  Stacked */\n      0x02\n        /* \"DEX.sol\":3704:3723  Stacked[msg.sender] */\n      0x20\n      mstore\n      0x40\n      swap1\n      keccak256\n        /* \"DEX.sol\":3724:3729  i + 1 */\n      tag_348\n        /* \"DEX.sol\":3724:3725  i */\n      dup3\n        /* \"DEX.sol\":3728:3729  1 */\n      0x01\n        /* \"DEX.sol\":3724:3729  i + 1 */\n      tag_159\n      jump\t// in\n    tag_348:\n        /* \"DEX.sol\":3704:3730  Stacked[msg.sender][i + 1] */\n      dup2\n      sload\n      dup2\n      lt\n      tag_350\n      jumpi\n      tag_350\n      tag_246\n      jump\t// in\n    tag_350:\n      swap1\n      0x00\n      mstore\n      keccak256(0x00, 0x20)\n      swap1\n      0x03\n      mul\n      add\n        /* \"DEX.sol\":3679:3686  Stacked */\n      0x02\n        /* \"DEX.sol\":3679:3698  Stacked[msg.sender] */\n      0x00\n        /* \"DEX.sol\":3687:3697  msg.sender */\n      caller\n      sub(shl(0xa0, 0x01), 0x01)\n        /* \"DEX.sol\":3679:3698  Stacked[msg.sender] */\n      and\n      sub(shl(0xa0, 0x01), 0x01)\n      and\n      dup2\n      mstore\n      0x20\n      add\n      swap1\n      dup2\n      mstore\n      0x20\n      add\n      0x00\n      keccak256\n        /* \"DEX.sol\":3699:3700  i */\n      dup3\n        /* \"DEX.sol\":3679:3701  Stacked[msg.sender][i] */\n      dup2\n      sload\n      dup2\n      lt\n      tag_353\n      jumpi\n      tag_353\n      tag_246\n      jump\t// in\n    tag_353:\n      0x00\n      swap2\n      dup3\n      mstore\n      0x20\n      swap1\n      swap2\n      keccak256\n        /* \"DEX.sol\":3679:3730  Stacked[msg.sender][i] = Stacked[msg.sender][i + 1] */\n      dup3\n      sload\n        /* \"DEX.sol\":3679:3701  Stacked[msg.sender][i] */\n      0x03\n      swap1\n      swap3\n      mul\n      add\n        /* \"DEX.sol\":3679:3730  Stacked[msg.sender][i] = Stacked[msg.sender][i + 1] */\n      swap1\n      dup2\n      sstore\n      0x01\n      dup1\n      dup4\n      add\n      sload\n      swap1\n      dup3\n      add\n      sstore\n      0x02\n      swap2\n      dup3\n      add\n      sload\n      swap2\n      add\n      sstore\n        /* \"DEX.sol\":3660:3663  i++ */\n      dup1\n      tag_355\n      dup2\n      tag_323\n      jump\t// in\n    tag_355:\n      swap2\n      pop\n      pop\n        /* \"DEX.sol\":3600:3741  for (uint256 i = index; i < Stacked[msg.sender].length - 1; i++) {... */\n      jump(tag_344)\n    tag_345:\n      pop\n        /* \"DEX.sol\":3758:3768  msg.sender */\n      caller\n        /* \"DEX.sol\":3750:3769  Stacked[msg.sender] */\n      0x00\n      swap1\n      dup2\n      mstore\n        /* \"DEX.sol\":3750:3757  Stacked */\n      0x02\n        /* \"DEX.sol\":3750:3769  Stacked[msg.sender] */\n      0x20\n      mstore\n      0x40\n      swap1\n      keccak256\n        /* \"DEX.sol\":3750:3775  Stacked[msg.sender].pop() */\n      dup1\n      sload\n      dup1\n      tag_357\n      jumpi\n      tag_357\n      tag_358\n      jump\t// in\n    tag_357:\n      0x00\n      dup3\n      dup2\n      mstore\n      0x20\n      dup2\n      keccak256\n      0x03\n      not(0x00)\n      swap1\n      swap4\n      add\n      swap3\n      dup4\n      mul\n      add\n      dup2\n      dup2\n      sstore\n      0x01\n      dup2\n      add\n      dup3\n      swap1\n      sstore\n      0x02\n      add\n      sstore\n      swap1\n      sstore\n      pop\n        /* \"DEX.sol\":3470:3782  function _removeArr(uint256 index) internal {... */\n      jump\t// out\n        /* \"DEX.sol\":1303:1361  function _updateK() internal {... */\n    tag_277:\n        /* \"DEX.sol\":1352:1354  _y */\n      sload(0x07)\n        /* \"DEX.sol\":1347:1349  _x */\n      sload(0x06)\n        /* \"DEX.sol\":1347:1354  _x * _y */\n      tag_361\n      swap2\n      swap1\n      tag_127\n      jump\t// in\n    tag_361:\n        /* \"DEX.sol\":1342:1344  _k */\n      0x05\n        /* \"DEX.sol\":1342:1354  _k = _x * _y */\n      sstore\n        /* \"DEX.sol\":1303:1361  function _updateK() internal {... */\n      jump\t// out\n        /* \"@openzeppelin/contracts/security/Pausable.sol\":1945:2051  function _requirePaused() internal view virtual {... */\n    tag_288:\n        /* \"@openzeppelin/contracts/security/Pausable.sol\":1662:1666  bool */\n      0x00\n        /* \"@openzeppelin/contracts/security/Pausable.sol\":1685:1692  _paused */\n      sload\n      0xff\n      and\n        /* \"@openzeppelin/contracts/security/Pausable.sol\":2003:2044  require(paused(), \"Pausable: not paused\") */\n      tag_140\n      jumpi\n      mload(0x40)\n      shl(0xe5, 0x461bcd)\n      dup2\n      mstore\n        /* \"#utility.yul\":9556:9558   */\n      0x20\n        /* \"@openzeppelin/contracts/security/Pausable.sol\":2003:2044  require(paused(), \"Pausable: not paused\") */\n      0x04\n      dup3\n      add\n        /* \"#utility.yul\":9538:9559   */\n      mstore\n        /* \"#utility.yul\":9595:9597   */\n      0x14\n        /* \"#utility.yul\":9575:9593   */\n      0x24\n      dup3\n      add\n        /* \"#utility.yul\":9568:9598   */\n      mstore\n      shl(0x62, 0x14185d5cd8589b194e881b9bdd081c185d5cd959)\n        /* \"#utility.yul\":9614:9632   */\n      0x44\n      dup3\n      add\n        /* \"#utility.yul\":9607:9657   */\n      mstore\n        /* \"#utility.yul\":9674:9692   */\n      0x64\n      add\n        /* \"@openzeppelin/contracts/security/Pausable.sol\":2003:2044  require(paused(), \"Pausable: not paused\") */\n      tag_111\n        /* \"#utility.yul\":9354:9698   */\n      jump\n        /* \"@openzeppelin/contracts/security/Pausable.sol\":1767:1873  function _requireNotPaused() internal view virtual {... */\n    tag_295:\n        /* \"@openzeppelin/contracts/security/Pausable.sol\":1662:1666  bool */\n      0x00\n        /* \"@openzeppelin/contracts/security/Pausable.sol\":1685:1692  _paused */\n      sload\n      0xff\n      and\n        /* \"@openzeppelin/contracts/security/Pausable.sol\":1836:1845  !paused() */\n      iszero\n        /* \"@openzeppelin/contracts/security/Pausable.sol\":1828:1866  require(!paused(), \"Pausable: paused\") */\n      tag_140\n      jumpi\n      mload(0x40)\n      shl(0xe5, 0x461bcd)\n      dup2\n      mstore\n        /* \"#utility.yul\":9905:9907   */\n      0x20\n        /* \"@openzeppelin/contracts/security/Pausable.sol\":1828:1866  require(!paused(), \"Pausable: paused\") */\n      0x04\n      dup3\n      add\n        /* \"#utility.yul\":9887:9908   */\n      mstore\n        /* \"#utility.yul\":9944:9946   */\n      0x10\n        /* \"#utility.yul\":9924:9942   */\n      0x24\n      dup3\n      add\n        /* \"#utility.yul\":9917:9947   */\n      mstore\n      shl(0x82, 0x14185d5cd8589b194e881c185d5cd959)\n        /* \"#utility.yul\":9963:9981   */\n      0x44\n      dup3\n      add\n        /* \"#utility.yul\":9956:10002   */\n      mstore\n        /* \"#utility.yul\":10019:10037   */\n      0x64\n      add\n        /* \"@openzeppelin/contracts/security/Pausable.sol\":1828:1866  require(!paused(), \"Pausable: paused\") */\n      tag_111\n        /* \"#utility.yul\":9703:10043   */\n      jump\n        /* \"#utility.yul\":14:194   */\n    tag_28:\n        /* \"#utility.yul\":73:79   */\n      0x00\n        /* \"#utility.yul\":126:128   */\n      0x20\n        /* \"#utility.yul\":114:123   */\n      dup3\n        /* \"#utility.yul\":105:112   */\n      dup5\n        /* \"#utility.yul\":101:124   */\n      sub\n        /* \"#utility.yul\":97:129   */\n      slt\n        /* \"#utility.yul\":94:146   */\n      iszero\n      tag_376\n      jumpi\n        /* \"#utility.yul\":142:143   */\n      0x00\n        /* \"#utility.yul\":139:140   */\n      dup1\n        /* \"#utility.yul\":132:144   */\n      revert\n        /* \"#utility.yul\":94:146   */\n    tag_376:\n      pop\n        /* \"#utility.yul\":165:188   */\n      calldataload\n      swap2\n        /* \"#utility.yul\":14:194   */\n      swap1\n      pop\n      jump\t// out\n        /* \"#utility.yul\":781:1632   */\n    tag_103:\n        /* \"#utility.yul\":1010:1012   */\n      0x20\n        /* \"#utility.yul\":1062:1083   */\n      dup1\n      dup3\n      mstore\n        /* \"#utility.yul\":1132:1145   */\n      dup3\n      mload\n        /* \"#utility.yul\":1035:1053   */\n      dup3\n      dup3\n      add\n        /* \"#utility.yul\":1154:1176   */\n      dup2\n      swap1\n      mstore\n        /* \"#utility.yul\":981:985   */\n      0x00\n      swap2\n        /* \"#utility.yul\":1010:1012   */\n      swap1\n        /* \"#utility.yul\":1195:1197   */\n      0x40\n      swap1\n        /* \"#utility.yul\":1213:1231   */\n      dup2\n      dup6\n      add\n      swap1\n        /* \"#utility.yul\":1254:1269   */\n      dup7\n      dup5\n      add\n        /* \"#utility.yul\":981:985   */\n      dup6\n        /* \"#utility.yul\":1297:1606   */\n    tag_381:\n        /* \"#utility.yul\":1311:1317   */\n      dup3\n        /* \"#utility.yul\":1308:1309   */\n      dup2\n        /* \"#utility.yul\":1305:1318   */\n      lt\n        /* \"#utility.yul\":1297:1606   */\n      iszero\n      tag_383\n      jumpi\n        /* \"#utility.yul\":1370:1383   */\n      dup2\n      mload\n        /* \"#utility.yul\":1408:1417   */\n      dup1\n      mload\n        /* \"#utility.yul\":1396:1418   */\n      dup6\n      mstore\n        /* \"#utility.yul\":1458:1469   */\n      dup7\n      dup2\n      add\n        /* \"#utility.yul\":1452:1470   */\n      mload\n        /* \"#utility.yul\":1438:1450   */\n      dup8\n      dup7\n      add\n        /* \"#utility.yul\":1431:1471   */\n      mstore\n        /* \"#utility.yul\":1511:1522   */\n      dup6\n      add\n        /* \"#utility.yul\":1505:1523   */\n      mload\n        /* \"#utility.yul\":1491:1503   */\n      dup6\n      dup6\n      add\n        /* \"#utility.yul\":1484:1524   */\n      mstore\n        /* \"#utility.yul\":1553:1557   */\n      0x60\n        /* \"#utility.yul\":1544:1558   */\n      swap1\n      swap4\n      add\n      swap3\n        /* \"#utility.yul\":1581:1596   */\n      swap1\n      dup6\n      add\n      swap1\n        /* \"#utility.yul\":1333:1334   */\n      0x01\n        /* \"#utility.yul\":1326:1335   */\n      add\n        /* \"#utility.yul\":1297:1606   */\n      jump(tag_381)\n    tag_383:\n      pop\n        /* \"#utility.yul\":1623:1626   */\n      swap2\n      swap8\n        /* \"#utility.yul\":781:1632   */\n      swap7\n      pop\n      pop\n      pop\n      pop\n      pop\n      pop\n      pop\n      jump\t// out\n        /* \"#utility.yul\":1637:1923   */\n    tag_107:\n        /* \"#utility.yul\":1696:1702   */\n      0x00\n        /* \"#utility.yul\":1749:1751   */\n      0x20\n        /* \"#utility.yul\":1737:1746   */\n      dup3\n        /* \"#utility.yul\":1728:1735   */\n      dup5\n        /* \"#utility.yul\":1724:1747   */\n      sub\n        /* \"#utility.yul\":1720:1752   */\n      slt\n        /* \"#utility.yul\":1717:1769   */\n      iszero\n      tag_385\n      jumpi\n        /* \"#utility.yul\":1765:1766   */\n      0x00\n        /* \"#utility.yul\":1762:1763   */\n      dup1\n        /* \"#utility.yul\":1755:1767   */\n      revert\n        /* \"#utility.yul\":1717:1769   */\n    tag_385:\n        /* \"#utility.yul\":1791:1814   */\n      dup2\n      calldataload\n      sub(shl(0xa0, 0x01), 0x01)\n        /* \"#utility.yul\":1843:1874   */\n      dup2\n      and\n        /* \"#utility.yul\":1833:1875   */\n      dup2\n      eq\n        /* \"#utility.yul\":1823:1893   */\n      tag_386\n      jumpi\n        /* \"#utility.yul\":1889:1890   */\n      0x00\n        /* \"#utility.yul\":1886:1887   */\n      dup1\n        /* \"#utility.yul\":1879:1891   */\n      revert\n        /* \"#utility.yul\":1823:1893   */\n    tag_386:\n        /* \"#utility.yul\":1912:1917   */\n      swap4\n        /* \"#utility.yul\":1637:1923   */\n      swap3\n      pop\n      pop\n      pop\n      jump\t// out\n        /* \"#utility.yul\":2277:2404   */\n    tag_373:\n        /* \"#utility.yul\":2338:2348   */\n      0x4e487b71\n        /* \"#utility.yul\":2333:2336   */\n      0xe0\n        /* \"#utility.yul\":2329:2349   */\n      shl\n        /* \"#utility.yul\":2326:2327   */\n      0x00\n        /* \"#utility.yul\":2319:2350   */\n      mstore\n        /* \"#utility.yul\":2369:2373   */\n      0x11\n        /* \"#utility.yul\":2366:2367   */\n      0x04\n        /* \"#utility.yul\":2359:2374   */\n      mstore\n        /* \"#utility.yul\":2393:2397   */\n      0x24\n        /* \"#utility.yul\":2390:2391   */\n      0x00\n        /* \"#utility.yul\":2383:2398   */\n      revert\n        /* \"#utility.yul\":2409:2626   */\n    tag_115:\n        /* \"#utility.yul\":2449:2450   */\n      0x00\n        /* \"#utility.yul\":2475:2476   */\n      dup3\n        /* \"#utility.yul\":2465:2597   */\n      tag_390\n      jumpi\n        /* \"#utility.yul\":2519:2529   */\n      0x4e487b71\n        /* \"#utility.yul\":2514:2517   */\n      0xe0\n        /* \"#utility.yul\":2510:2530   */\n      shl\n        /* \"#utility.yul\":2507:2508   */\n      0x00\n        /* \"#utility.yul\":2500:2531   */\n      mstore\n        /* \"#utility.yul\":2554:2558   */\n      0x12\n        /* \"#utility.yul\":2551:2552   */\n      0x04\n        /* \"#utility.yul\":2544:2559   */\n      mstore\n        /* \"#utility.yul\":2582:2586   */\n      0x24\n        /* \"#utility.yul\":2579:2580   */\n      0x00\n        /* \"#utility.yul\":2572:2587   */\n      revert\n        /* \"#utility.yul\":2465:2597   */\n    tag_390:\n      pop\n        /* \"#utility.yul\":2611:2620   */\n      div\n      swap1\n        /* \"#utility.yul\":2409:2626   */\n      jump\t// out\n        /* \"#utility.yul\":2631:2759   */\n    tag_117:\n        /* \"#utility.yul\":2698:2707   */\n      dup2\n      dup2\n      sub\n        /* \"#utility.yul\":2719:2730   */\n      dup2\n      dup2\n      gt\n        /* \"#utility.yul\":2716:2753   */\n      iszero\n      tag_393\n      jumpi\n        /* \"#utility.yul\":2733:2751   */\n      tag_393\n      tag_373\n      jump\t// in\n    tag_393:\n        /* \"#utility.yul\":2631:2759   */\n      swap3\n      swap2\n      pop\n      pop\n      jump\t// out\n        /* \"#utility.yul\":2764:2932   */\n    tag_127:\n        /* \"#utility.yul\":2837:2846   */\n      dup1\n      dup3\n      mul\n        /* \"#utility.yul\":2868:2877   */\n      dup2\n      iszero\n        /* \"#utility.yul\":2885:2900   */\n      dup3\n      dup3\n      div\n        /* \"#utility.yul\":2879:2901   */\n      dup5\n      eq\n        /* \"#utility.yul\":2865:2902   */\n      or\n        /* \"#utility.yul\":2855:2926   */\n      tag_393\n      jumpi\n        /* \"#utility.yul\":2906:2924   */\n      tag_393\n      tag_373\n      jump\t// in\n        /* \"#utility.yul\":3292:3417   */\n    tag_159:\n        /* \"#utility.yul\":3357:3366   */\n      dup1\n      dup3\n      add\n        /* \"#utility.yul\":3378:3388   */\n      dup1\n      dup3\n      gt\n        /* \"#utility.yul\":3375:3411   */\n      iszero\n      tag_393\n      jumpi\n        /* \"#utility.yul\":3391:3409   */\n      tag_393\n      tag_373\n      jump\t// in\n        /* \"#utility.yul\":4386:4663   */\n    tag_185:\n        /* \"#utility.yul\":4453:4459   */\n      0x00\n        /* \"#utility.yul\":4506:4508   */\n      0x20\n        /* \"#utility.yul\":4494:4503   */\n      dup3\n        /* \"#utility.yul\":4485:4492   */\n      dup5\n        /* \"#utility.yul\":4481:4504   */\n      sub\n        /* \"#utility.yul\":4477:4509   */\n      slt\n        /* \"#utility.yul\":4474:4526   */\n      iszero\n      tag_405\n      jumpi\n        /* \"#utility.yul\":4522:4523   */\n      0x00\n        /* \"#utility.yul\":4519:4520   */\n      dup1\n        /* \"#utility.yul\":4512:4524   */\n      revert\n        /* \"#utility.yul\":4474:4526   */\n    tag_405:\n        /* \"#utility.yul\":4554:4563   */\n      dup2\n        /* \"#utility.yul\":4548:4564   */\n      mload\n        /* \"#utility.yul\":4607:4612   */\n      dup1\n        /* \"#utility.yul\":4600:4613   */\n      iszero\n        /* \"#utility.yul\":4593:4614   */\n      iszero\n        /* \"#utility.yul\":4586:4591   */\n      dup2\n        /* \"#utility.yul\":4583:4615   */\n      eq\n        /* \"#utility.yul\":4573:4633   */\n      tag_386\n      jumpi\n        /* \"#utility.yul\":4629:4630   */\n      0x00\n        /* \"#utility.yul\":4626:4627   */\n      dup1\n        /* \"#utility.yul\":4619:4631   */\n      revert\n        /* \"#utility.yul\":7085:7212   */\n    tag_246:\n        /* \"#utility.yul\":7146:7156   */\n      0x4e487b71\n        /* \"#utility.yul\":7141:7144   */\n      0xe0\n        /* \"#utility.yul\":7137:7157   */\n      shl\n        /* \"#utility.yul\":7134:7135   */\n      0x00\n        /* \"#utility.yul\":7127:7158   */\n      mstore\n        /* \"#utility.yul\":7177:7181   */\n      0x32\n        /* \"#utility.yul\":7174:7175   */\n      0x04\n        /* \"#utility.yul\":7167:7182   */\n      mstore\n        /* \"#utility.yul\":7201:7205   */\n      0x24\n        /* \"#utility.yul\":7198:7199   */\n      0x00\n        /* \"#utility.yul\":7191:7206   */\n      revert\n        /* \"#utility.yul\":7217:7401   */\n    tag_255:\n        /* \"#utility.yul\":7287:7293   */\n      0x00\n        /* \"#utility.yul\":7340:7342   */\n      0x20\n        /* \"#utility.yul\":7328:7337   */\n      dup3\n        /* \"#utility.yul\":7319:7326   */\n      dup5\n        /* \"#utility.yul\":7315:7338   */\n      sub\n        /* \"#utility.yul\":7311:7343   */\n      slt\n        /* \"#utility.yul\":7308:7360   */\n      iszero\n      tag_416\n      jumpi\n        /* \"#utility.yul\":7356:7357   */\n      0x00\n        /* \"#utility.yul\":7353:7354   */\n      dup1\n        /* \"#utility.yul\":7346:7358   */\n      revert\n        /* \"#utility.yul\":7308:7360   */\n    tag_416:\n      pop\n        /* \"#utility.yul\":7379:7395   */\n      mload\n      swap2\n        /* \"#utility.yul\":7217:7401   */\n      swap1\n      pop\n      jump\t// out\n        /* \"#utility.yul\":8734:8869   */\n    tag_323:\n        /* \"#utility.yul\":8773:8776   */\n      0x00\n        /* \"#utility.yul\":8794:8811   */\n      0x01\n      dup3\n      add\n        /* \"#utility.yul\":8791:8834   */\n      tag_422\n      jumpi\n        /* \"#utility.yul\":8814:8832   */\n      tag_422\n      tag_373\n      jump\t// in\n    tag_422:\n      pop\n        /* \"#utility.yul\":8861:8862   */\n      0x01\n        /* \"#utility.yul\":8850:8863   */\n      add\n      swap1\n        /* \"#utility.yul\":8734:8869   */\n      jump\t// out\n        /* \"#utility.yul\":9222:9349   */\n    tag_358:\n        /* \"#utility.yul\":9283:9293   */\n      0x4e487b71\n        /* \"#utility.yul\":9278:9281   */\n      0xe0\n        /* \"#utility.yul\":9274:9294   */\n      shl\n        /* \"#utility.yul\":9271:9272   */\n      0x00\n        /* \"#utility.yul\":9264:9295   */\n      mstore\n        /* \"#utility.yul\":9314:9318   */\n      0x31\n        /* \"#utility.yul\":9311:9312   */\n      0x04\n        /* \"#utility.yul\":9304:9319   */\n      mstore\n        /* \"#utility.yul\":9338:9342   */\n      0x24\n        /* \"#utility.yul\":9335:9336   */\n      0x00\n        /* \"#utility.yul\":9328:9343   */\n      revert\n\n    auxdata: 0xa264697066735822122048bf4df53a1e7d74362ee400443d621f5e7e8d9a41afb5128b90f593115c79e664736f6c63430008130033\n}\n",
				"bytecode": {
					"linkReferences": {},
					"object": "6080604052678ac7230489e80000600855600a6008546003620000239190620000f6565b6200002f919062000122565b6009553480156200003f57600080fd5b506040516200189338038062001893833981016040819052620000629162000145565b6000805460ff1916905562000077336200009d565b600180546001600160a01b0319166001600160a01b039290921691909117905562000177565b600080546001600160a01b03838116610100818102610100600160a81b0319851617855560405193049190911692909183917f8be0079c531659141344cd1fd0a4f28419497f9722a3daafe3b4186f6b6457e091a35050565b80820281158282048414176200011c57634e487b7160e01b600052601160045260246000fd5b92915050565b6000826200014057634e487b7160e01b600052601260045260246000fd5b500490565b6000602082840312156200015857600080fd5b81516001600160a01b03811681146200017057600080fd5b9392505050565b61170c80620001876000396000f3fe60806040526004361061011f5760003560e01c8063771a3a1d116100a0578063d96a094a11610064578063d96a094a146102e2578063dc9031c4146102f5578063e4849b3214610308578063e8bca8b814610328578063f2fde38b1461034a57600080fd5b8063771a3a1d146102555780638456cb591461026b5780638da5cb5b146102805780639c74f05d146102b6578063d3b5dc3b146102cc57600080fd5b80632ad9d559116100e75780632ad9d559146101bb5780633f4ba83a146101e85780635c572ed0146101fd5780635c975abb1461021d578063715018a61461024057600080fd5b80631a753fed146101245780631b82c27f14610157578063200061df1461016d57806328726bda1461018f57806329809703146101a5575b600080fd5b34801561013057600080fd5b5061014461013f366004611539565b61036a565b6040519081526020015b60405180910390f35b34801561016357600080fd5b5061014460055481565b34801561017957600080fd5b5061018d610188366004611539565b61047c565b005b34801561019b57600080fd5b5061014460075481565b3480156101b157600080fd5b5061014460065481565b3480156101c757600080fd5b506101446101d6366004611539565b60036020526000908152604090205481565b3480156101f457600080fd5b5061018d610488565b34801561020957600080fd5b50610144610218366004611539565b61049a565b34801561022957600080fd5b5060005460ff16604051901515815260200161014e565b34801561024c57600080fd5b5061018d61059c565b34801561026157600080fd5b5061014460095481565b34801561027757600080fd5b5061018d6105ae565b34801561028c57600080fd5b5060005461010090046001600160a01b03166040516001600160a01b03909116815260200161014e565b3480156102c257600080fd5b5061014460045481565b3480156102d857600080fd5b5061014460085481565b61018d6102f0366004611539565b6105be565b61018d610303366004611539565b6107bc565b34801561031457600080fd5b5061018d610323366004611539565b6108a9565b34801561033457600080fd5b5061033d610a5a565b60405161014e9190611552565b34801561035657600080fd5b5061018d6103653660046115ab565b610ae2565b600080600554116103b95760405162461bcd60e51b81526020600482015260146024820152734e6f7420656e6f756768206c697175696469747960601b60448201526064015b60405180910390fd5b6000806006546000036103e7578360016005546103d691906115f1565b6103e09190611613565b9050610405565b836006546005546103f891906115f1565b6104029190611613565b90505b8060000361042357600160055461041c91906115f1565b9150610434565b8060055461043191906115f1565b91505b6000600654836104449190611613565b9050600060085460095483610459919061162c565b61046391906115f1565b905060006104718284611613565b979650505050505050565b61048581610b58565b50565b610490610eb3565b610498610f13565b565b600080600554116104e45760405162461bcd60e51b81526020600482015260146024820152734e6f7420656e6f756768206c697175696469747960601b60448201526064016103b0565b6000806007546000036105125783600160055461050191906115f1565b61050b9190611613565b9150610530565b8360075460055461052391906115f1565b61052d9190611613565b91505b8160000361054e57600160055461054791906115f1565b905061055f565b8160055461055c91906115f1565b90505b60006007548261056f9190611613565b9050600060085460095483610584919061162c565b61058e91906115f1565b905060006104718284611643565b6105a4610eb3565b6104986000610f65565b6105b6610eb3565b610498610fbe565b600081116105ff5760405162461bcd60e51b815260206004820152600e60248201526d53656e6420536f6d65204d656d6560901b60448201526064016103b0565b600061060a8261049a565b90503481111561064c5760405162461bcd60e51b815260206004820152600d60248201526c0a6cadcc8409adee4ca408aa89609b1b60448201526064016103b0565b60015460405163a9059cbb60e01b8152336004820152602481018490526001600160a01b039091169063a9059cbb906044016020604051808303816000875af115801561069d573d6000803e3d6000fd5b505050506040513d601f19601f820116820180604052508101906106c19190611656565b50336108fc6106d08334611613565b6040518115909202916000818181858888f193505050501580156106f8573d6000803e3d6000fd5b506008546009546107099082611643565b610713908461162c565b61071d91906115f1565b6003600061072e62015180426115f1565b8152602001908152602001600020600082825461074b9190611643565b9250508190555081600660008282546107649190611613565b909155505060065460055461077991906115f1565b600755604080518381526020810183905233917f1cbc5ab135991bd2b6a4b034a04aa2aa086dac1371cb9b16b8b5e2ed6b036bed91015b60405180910390a25050565b600081116107fd5760405162461bcd60e51b815260206004820152600e60248201526d53656e64206d6f7265204d454d4560901b60448201526064016103b0565b6000341161083d5760405162461bcd60e51b815260206004820152600d60248201526c0a6cadcc840dadee4ca408aa89609b1b60448201526064016103b0565b806008543461084c919061162c565b61085691906115f1565b600454111561089f5760405162461bcd60e51b815260206004820152601560248201527414dd1858dada5b99c814985d19481b9bdd081b595d605a1b60448201526064016103b0565b6104858134610ffb565b600081116108e95760405162461bcd60e51b815260206004820152600d60248201526c0a6cadcc840a6dedaca408aa89609b1b60448201526064016103b0565b60006108f48261036a565b6001546040516323b872dd60e01b8152336004820152306024820152604481018390529192506001600160a01b0316906323b872dd906064016020604051808303816000875af115801561094c573d6000803e3d6000fd5b505050506040513d601f19601f820116820180604052508101906109709190611656565b50604051339083156108fc029084906000818181858888f1935050505015801561099e573d6000803e3d6000fd5b506008546009546109af9082611643565b6109b9908361162c565b6109c391906115f1565b600360006109d462015180426115f1565b815260200190815260200160002060008282546109f19190611643565b925050819055508060066000828254610a0a9190611643565b9091555050600654600554610a1f91906115f1565b600755604080518281526020810184905233917fed7a144fad14804d5c249145e3e0e2b63a9eb455b76aee5bc92d711e9bba3e4a91016107b0565b336000908152600260209081526040808320805482518185028101850190935280835260609492939192909184015b82821015610ad95783829060005260206000209060030201604051806060016040529081600082015481526020016001820154815260200160028201548152505081526020019060010190610a89565b50505050905090565b610aea610eb3565b6001600160a01b038116610b4f5760405162461bcd60e51b815260206004820152602660248201527f4f776e61626c653a206e6577206f776e657220697320746865207a65726f206160448201526564647265737360d01b60648201526084016103b0565b61048581610f65565b336000908152600260205260408120805483908110610b7957610b79611678565b9060005260206000209060030201604051806060016040529081600082015481526020016001820154815260200160028201548152505090506000610bbc611163565b8251602084015191925090600090610bd5908490611643565b6001546040516370a0823160e01b815230600482015291925083916001600160a01b03909116906370a0823190602401602060405180830381865afa158015610c22573d6000803e3d6000fd5b505050506040513d601f19601f82011682018060405250810190610c46919061168e565b1015610cce5760405162461bcd60e51b815260206004820152604b60248201527f536f7272792043757272656e746c79207468697320636f6e747261637420646f60448201527f65736e27742068617665204d656d6520746f2072657475726e2c20436865636b60648201526a206261636b20536f6f6e2160a81b608482015260a4016103b0565b80471015610d575760405162461bcd60e51b815260206004820152604a60248201527f536f7272792043757272656e746c79207468697320636f6e747261637420646f60448201527f65736e277420686176652045746820746f2072657475726e2c20436865636b206064820152696261636b20536f6f6e2160b01b608482015260a4016103b0565b8160066000828254610d699190611613565b925050819055508060076000828254610d829190611613565b909155505060015460405163a9059cbb60e01b8152336004820152602481018490526001600160a01b039091169063a9059cbb906044016020604051808303816000875af1158015610dd8573d6000803e3d6000fd5b505050506040513d601f19601f82011682018060405250810190610dfc9190611656565b50604051339082156108fc029083906000818181858888f19350505050158015610e2a573d6000803e3d6000fd5b50600654600003610e3f576000600455610e60565b600654600854600754610e52919061162c565b610e5c91906115f1565b6004555b610e698561132d565b610e71611495565b604080518381526020810183905233917fbb564df1f5d4ebb97b073adcab505c7796a37035ac5d14f51269660939c39cf4910160405180910390a25050505050565b6000546001600160a01b036101009091041633146104985760405162461bcd60e51b815260206004820181905260248201527f4f776e61626c653a2063616c6c6572206973206e6f7420746865206f776e657260448201526064016103b0565b610f1b6114aa565b6000805460ff191690557f5db9ee0a495bf2e6ff9c91a7834c1ba4fdd244a5e8aa4e537bd38aeae4b073aa335b6040516001600160a01b03909116815260200160405180910390a1565b600080546001600160a01b03838116610100818102610100600160a81b0319851617855560405193049190911692909183917f8be0079c531659141344cd1fd0a4f28419497f9722a3daafe3b4186f6b6457e091a35050565b610fc66114f3565b6000805460ff191660011790557f62e78cea01bee320cd4e420270b5ea74000d11b0c9f74754ebdbfc544b05a258610f483390565b6001546040516323b872dd60e01b8152336004820152306024820152604481018490526001600160a01b03909116906323b872dd906064016020604051808303816000875af1158015611052573d6000803e3d6000fd5b505050506040513d601f19601f820116820180604052508101906110769190611656565b5081600660008282546110899190611643565b9250508190555080600760008282546110a29190611643565b90915550506040805160608101825283815260208082018481524283850190815233600090815260028085529581208054600181810183559183529490912085516003909502019384559151918301919091555192019190915560065460085460075461110f919061162c565b61111991906115f1565b600455611124611495565b6040805184815234602082015233917f5caad8f5613b6f1d592fc8c69d8f0999453740f0806c754f20cc92f3d4b2b1b6910160405180910390a2505050565b6000808060038161117762015180426115f1565b81526020019081526020016000205411156113285733600090815260026020526040812080549091805b828110156112265760008482815481106111bd576111bd611678565b9060005260206000209060030201604051806060016040529081600082015481526020016001820154815260200160028201548152505090508060400151426112069190611613565b6112109084611643565b925050808061121e906116a7565b9150506111a1565b5060005b8281101561132357600084828154811061124657611246611678565b60009182526020808320604080516060810182526003909402909101805480855260018201549385019390935260020154908301526006546008549294509161128e9161162c565b61129891906115f1565b905060008260400151426112ac9190611613565b905060006112ba86836115f1565b60055490915081600360006112d262015180426115f1565b815260200190815260200160002054856112ec919061162c565b6112f6919061162c565b61130091906115f1565b61130a908a611643565b985050505050808061131b906116a7565b91505061122a565b505050505b919050565b3360009081526002602052604090205481106113815760405162461bcd60e51b8152602060048201526013602482015272496e646578206f7574206f6620626f756e647360681b60448201526064016103b0565b805b3360009081526002602052604090205461139f90600190611613565b81101561144e573360009081526002602052604090206113c0826001611643565b815481106113d0576113d0611678565b906000526020600020906003020160026000336001600160a01b03166001600160a01b03168152602001908152602001600020828154811061141457611414611678565b6000918252602090912082546003909202019081556001808301549082015560029182015491015580611446816116a7565b915050611383565b5033600090815260026020526040902080548061146d5761146d6116c0565b6000828152602081206003600019909301928302018181556001810182905560020155905550565b6007546006546114a5919061162c565b600555565b60005460ff166104985760405162461bcd60e51b815260206004820152601460248201527314185d5cd8589b194e881b9bdd081c185d5cd95960621b60448201526064016103b0565b60005460ff16156104985760405162461bcd60e51b815260206004820152601060248201526f14185d5cd8589b194e881c185d5cd95960821b60448201526064016103b0565b60006020828403121561154b57600080fd5b5035919050565b602080825282518282018190526000919060409081850190868401855b8281101561159e578151805185528681015187860152850151858501526060909301929085019060010161156f565b5091979650505050505050565b6000602082840312156115bd57600080fd5b81356001600160a01b03811681146115d457600080fd5b9392505050565b634e487b7160e01b600052601160045260246000fd5b60008261160e57634e487b7160e01b600052601260045260246000fd5b500490565b81810381811115611626576116266115db565b92915050565b8082028115828204841417611626576116266115db565b80820180821115611626576116266115db565b60006020828403121561166857600080fd5b815180151581146115d457600080fd5b634e487b7160e01b600052603260045260246000fd5b6000602082840312156116a057600080fd5b5051919050565b6000600182016116b9576116b96115db565b5060010190565b634e487b7160e01b600052603160045260246000fdfea264697066735822122048bf4df53a1e7d74362ee400443d621f5e7e8d9a41afb5128b90f593115c79e664736f6c63430008130033",
					"opcodes": "PUSH1 0x80 PUSH1 0x40 MSTORE PUSH8 0x8AC7230489E80000 PUSH1 0x8 SSTORE PUSH1 0xA PUSH1 0x8 SLOAD PUSH1 0x3 PUSH3 0x23 SWAP2 SWAP1 PUSH3 0xF6 JUMP JUMPDEST PUSH3 0x2F SWAP2 SWAP1 PUSH3 0x122 JUMP JUMPDEST PUSH1 0x9 SSTORE CALLVALUE DUP1 ISZERO PUSH3 0x3F JUMPI PUSH1 0x0 DUP1 REVERT JUMPDEST POP PUSH1 0x40 MLOAD PUSH3 0x1893 CODESIZE SUB DUP1 PUSH3 0x1893 DUP4 CODECOPY DUP2 ADD PUSH1 0x40 DUP2 SWAP1 MSTORE PUSH3 0x62 SWAP2 PUSH3 0x145 JUMP JUMPDEST PUSH1 0x0 DUP1 SLOAD PUSH1 0xFF NOT AND SWAP1 SSTORE PUSH3 0x77 CALLER PUSH3 0x9D JUMP JUMPDEST PUSH1 0x1 DUP1 SLOAD PUSH1 0x1 PUSH1 0x1 PUSH1 0xA0 SHL SUB NOT AND PUSH1 0x1 PUSH1 0x1 PUSH1 0xA0 SHL SUB SWAP3 SWAP1 SWAP3 AND SWAP2 SWAP1 SWAP2 OR SWAP1 SSTORE PUSH3 0x177 JUMP JUMPDEST PUSH1 0x0 DUP1 SLOAD PUSH1 0x1 PUSH1 0x1 PUSH1 0xA0 SHL SUB DUP4 DUP2 AND PUSH2 0x100 DUP2 DUP2 MUL PUSH2 0x100 PUSH1 0x1 PUSH1 0xA8 SHL SUB NOT DUP6 AND OR DUP6 SSTORE PUSH1 0x40 MLOAD SWAP4 DIV SWAP2 SWAP1 SWAP2 AND SWAP3 SWAP1 SWAP2 DUP4 SWAP2 PUSH32 0x8BE0079C531659141344CD1FD0A4F28419497F9722A3DAAFE3B4186F6B6457E0 SWAP2 LOG3 POP POP JUMP JUMPDEST DUP1 DUP3 MUL DUP2 ISZERO DUP3 DUP3 DIV DUP5 EQ OR PUSH3 0x11C JUMPI PUSH4 0x4E487B71 PUSH1 0xE0 SHL PUSH1 0x0 MSTORE PUSH1 0x11 PUSH1 0x4 MSTORE PUSH1 0x24 PUSH1 0x0 REVERT JUMPDEST SWAP3 SWAP2 POP POP JUMP JUMPDEST PUSH1 0x0 DUP3 PUSH3 0x140 JUMPI PUSH4 0x4E487B71 PUSH1 0xE0 SHL PUSH1 0x0 MSTORE PUSH1 0x12 PUSH1 0x4 MSTORE PUSH1 0x24 PUSH1 0x0 REVERT JUMPDEST POP DIV SWAP1 JUMP JUMPDEST PUSH1 0x0 PUSH1 0x20 DUP3 DUP5 SUB SLT ISZERO PUSH3 0x158 JUMPI PUSH1 0x0 DUP1 REVERT JUMPDEST DUP2 MLOAD PUSH1 0x1 PUSH1 0x1 PUSH1 0xA0 SHL SUB DUP2 AND DUP2 EQ PUSH3 0x170 JUMPI PUSH1 0x0 DUP1 REVERT JUMPDEST SWAP4 SWAP3 POP POP POP JUMP JUMPDEST PUSH2 0x170C DUP1 PUSH3 0x187 PUSH1 0x0 CODECOPY PUSH1 0x0 RETURN INVALID PUSH1 0x80 PUSH1 0x40 MSTORE PUSH1 0x4 CALLDATASIZE LT PUSH2 0x11F JUMPI PUSH1 0x0 CALLDATALOAD PUSH1 0xE0 SHR DUP1 PUSH4 0x771A3A1D GT PUSH2 0xA0 JUMPI DUP1 PUSH4 0xD96A094A GT PUSH2 0x64 JUMPI DUP1 PUSH4 0xD96A094A EQ PUSH2 0x2E2 JUMPI DUP1 PUSH4 0xDC9031C4 EQ PUSH2 0x2F5 JUMPI DUP1 PUSH4 0xE4849B32 EQ PUSH2 0x308 JUMPI DUP1 PUSH4 0xE8BCA8B8 EQ PUSH2 0x328 JUMPI DUP1 PUSH4 0xF2FDE38B EQ PUSH2 0x34A JUMPI PUSH1 0x0 DUP1 REVERT JUMPDEST DUP1 PUSH4 0x771A3A1D EQ PUSH2 0x255 JUMPI DUP1 PUSH4 0x8456CB59 EQ PUSH2 0x26B JUMPI DUP1 PUSH4 0x8DA5CB5B EQ PUSH2 0x280 JUMPI DUP1 PUSH4 0x9C74F05D EQ PUSH2 0x2B6 JUMPI DUP1 PUSH4 0xD3B5DC3B EQ PUSH2 0x2CC JUMPI PUSH1 0x0 DUP1 REVERT JUMPDEST DUP1 PUSH4 0x2AD9D559 GT PUSH2 0xE7 JUMPI DUP1 PUSH4 0x2AD9D559 EQ PUSH2 0x1BB JUMPI DUP1 PUSH4 0x3F4BA83A EQ PUSH2 0x1E8 JUMPI DUP1 PUSH4 0x5C572ED0 EQ PUSH2 0x1FD JUMPI DUP1 PUSH4 0x5C975ABB EQ PUSH2 0x21D JUMPI DUP1 PUSH4 0x715018A6 EQ PUSH2 0x240 JUMPI PUSH1 0x0 DUP1 REVERT JUMPDEST DUP1 PUSH4 0x1A753FED EQ PUSH2 0x124 JUMPI DUP1 PUSH4 0x1B82C27F EQ PUSH2 0x157 JUMPI DUP1 PUSH4 0x200061DF EQ PUSH2 0x16D JUMPI DUP1 PUSH4 0x28726BDA EQ PUSH2 0x18F JUMPI DUP1 PUSH4 0x29809703 EQ PUSH2 0x1A5 JUMPI JUMPDEST PUSH1 0x0 DUP1 REVERT JUMPDEST CALLVALUE DUP1 ISZERO PUSH2 0x130 JUMPI PUSH1 0x0 DUP1 REVERT JUMPDEST POP PUSH2 0x144 PUSH2 0x13F CALLDATASIZE PUSH1 0x4 PUSH2 0x1539 JUMP JUMPDEST PUSH2 0x36A JUMP JUMPDEST PUSH1 0x40 MLOAD SWAP1 DUP2 MSTORE PUSH1 0x20 ADD JUMPDEST PUSH1 0x40 MLOAD DUP1 SWAP2 SUB SWAP1 RETURN JUMPDEST CALLVALUE DUP1 ISZERO PUSH2 0x163 JUMPI PUSH1 0x0 DUP1 REVERT JUMPDEST POP PUSH2 0x144 PUSH1 0x5 SLOAD DUP2 JUMP JUMPDEST CALLVALUE DUP1 ISZERO PUSH2 0x179 JUMPI PUSH1 0x0 DUP1 REVERT JUMPDEST POP PUSH2 0x18D PUSH2 0x188 CALLDATASIZE PUSH1 0x4 PUSH2 0x1539 JUMP JUMPDEST PUSH2 0x47C JUMP JUMPDEST STOP JUMPDEST CALLVALUE DUP1 ISZERO PUSH2 0x19B JUMPI PUSH1 0x0 DUP1 REVERT JUMPDEST POP PUSH2 0x144 PUSH1 0x7 SLOAD DUP2 JUMP JUMPDEST CALLVALUE DUP1 ISZERO PUSH2 0x1B1 JUMPI PUSH1 0x0 DUP1 REVERT JUMPDEST POP PUSH2 0x144 PUSH1 0x6 SLOAD DUP2 JUMP JUMPDEST CALLVALUE DUP1 ISZERO PUSH2 0x1C7 JUMPI PUSH1 0x0 DUP1 REVERT JUMPDEST POP PUSH2 0x144 PUSH2 0x1D6 CALLDATASIZE PUSH1 0x4 PUSH2 0x1539 JUMP JUMPDEST PUSH1 0x3 PUSH1 0x20 MSTORE PUSH1 0x0 SWAP1 DUP2 MSTORE PUSH1 0x40 SWAP1 KECCAK256 SLOAD DUP2 JUMP JUMPDEST CALLVALUE DUP1 ISZERO PUSH2 0x1F4 JUMPI PUSH1 0x0 DUP1 REVERT JUMPDEST POP PUSH2 0x18D PUSH2 0x488 JUMP JUMPDEST CALLVALUE DUP1 ISZERO PUSH2 0x209 JUMPI PUSH1 0x0 DUP1 REVERT JUMPDEST POP PUSH2 0x144 PUSH2 0x218 CALLDATASIZE PUSH1 0x4 PUSH2 0x1539 JUMP JUMPDEST PUSH2 0x49A JUMP JUMPDEST CALLVALUE DUP1 ISZERO PUSH2 0x229 JUMPI PUSH1 0x0 DUP1 REVERT JUMPDEST POP PUSH1 0x0 SLOAD PUSH1 0xFF AND PUSH1 0x40 MLOAD SWAP1 ISZERO ISZERO DUP2 MSTORE PUSH1 0x20 ADD PUSH2 0x14E JUMP JUMPDEST CALLVALUE DUP1 ISZERO PUSH2 0x24C JUMPI PUSH1 0x0 DUP1 REVERT JUMPDEST POP PUSH2 0x18D PUSH2 0x59C JUMP JUMPDEST CALLVALUE DUP1 ISZERO PUSH2 0x261 JUMPI PUSH1 0x0 DUP1 REVERT JUMPDEST POP PUSH2 0x144 PUSH1 0x9 SLOAD DUP2 JUMP JUMPDEST CALLVALUE DUP1 ISZERO PUSH2 0x277 JUMPI PUSH1 0x0 DUP1 REVERT JUMPDEST POP PUSH2 0x18D PUSH2 0x5AE JUMP JUMPDEST CALLVALUE DUP1 ISZERO PUSH2 0x28C JUMPI PUSH1 0x0 DUP1 REVERT JUMPDEST POP PUSH1 0x0 SLOAD PUSH2 0x100 SWAP1 DIV PUSH1 0x1 PUSH1 0x1 PUSH1 0xA0 SHL SUB AND PUSH1 0x40 MLOAD PUSH1 0x1 PUSH1 0x1 PUSH1 0xA0 SHL SUB SWAP1 SWAP2 AND DUP2 MSTORE PUSH1 0x20 ADD PUSH2 0x14E JUMP JUMPDEST CALLVALUE DUP1 ISZERO PUSH2 0x2C2 JUMPI PUSH1 0x0 DUP1 REVERT JUMPDEST POP PUSH2 0x144 PUSH1 0x4 SLOAD DUP2 JUMP JUMPDEST CALLVALUE DUP1 ISZERO PUSH2 0x2D8 JUMPI PUSH1 0x0 DUP1 REVERT JUMPDEST POP PUSH2 0x144 PUSH1 0x8 SLOAD DUP2 JUMP JUMPDEST PUSH2 0x18D PUSH2 0x2F0 CALLDATASIZE PUSH1 0x4 PUSH2 0x1539 JUMP JUMPDEST PUSH2 0x5BE JUMP JUMPDEST PUSH2 0x18D PUSH2 0x303 CALLDATASIZE PUSH1 0x4 PUSH2 0x1539 JUMP JUMPDEST PUSH2 0x7BC JUMP JUMPDEST CALLVALUE DUP1 ISZERO PUSH2 0x314 JUMPI PUSH1 0x0 DUP1 REVERT JUMPDEST POP PUSH2 0x18D PUSH2 0x323 CALLDATASIZE PUSH1 0x4 PUSH2 0x1539 JUMP JUMPDEST PUSH2 0x8A9 JUMP JUMPDEST CALLVALUE DUP1 ISZERO PUSH2 0x334 JUMPI PUSH1 0x0 DUP1 REVERT JUMPDEST POP PUSH2 0x33D PUSH2 0xA5A JUMP JUMPDEST PUSH1 0x40 MLOAD PUSH2 0x14E SWAP2 SWAP1 PUSH2 0x1552 JUMP JUMPDEST CALLVALUE DUP1 ISZERO PUSH2 0x356 JUMPI PUSH1 0x0 DUP1 REVERT JUMPDEST POP PUSH2 0x18D PUSH2 0x365 CALLDATASIZE PUSH1 0x4 PUSH2 0x15AB JUMP JUMPDEST PUSH2 0xAE2 JUMP JUMPDEST PUSH1 0x0 DUP1 PUSH1 0x5 SLOAD GT PUSH2 0x3B9 JUMPI PUSH1 0x40 MLOAD PUSH3 0x461BCD PUSH1 0xE5 SHL DUP2 MSTORE PUSH1 0x20 PUSH1 0x4 DUP3 ADD MSTORE PUSH1 0x14 PUSH1 0x24 DUP3 ADD MSTORE PUSH20 0x4E6F7420656E6F756768206C6971756964697479 PUSH1 0x60 SHL PUSH1 0x44 DUP3 ADD MSTORE PUSH1 0x64 ADD JUMPDEST PUSH1 0x40 MLOAD DUP1 SWAP2 SUB SWAP1 REVERT JUMPDEST PUSH1 0x0 DUP1 PUSH1 0x6 SLOAD PUSH1 0x0 SUB PUSH2 0x3E7 JUMPI DUP4 PUSH1 0x1 PUSH1 0x5 SLOAD PUSH2 0x3D6 SWAP2 SWAP1 PUSH2 0x15F1 JUMP JUMPDEST PUSH2 0x3E0 SWAP2 SWAP1 PUSH2 0x1613 JUMP JUMPDEST SWAP1 POP PUSH2 0x405 JUMP JUMPDEST DUP4 PUSH1 0x6 SLOAD PUSH1 0x5 SLOAD PUSH2 0x3F8 SWAP2 SWAP1 PUSH2 0x15F1 JUMP JUMPDEST PUSH2 0x402 SWAP2 SWAP1 PUSH2 0x1613 JUMP JUMPDEST SWAP1 POP JUMPDEST DUP1 PUSH1 0x0 SUB PUSH2 0x423 JUMPI PUSH1 0x1 PUSH1 0x5 SLOAD PUSH2 0x41C SWAP2 SWAP1 PUSH2 0x15F1 JUMP JUMPDEST SWAP2 POP PUSH2 0x434 JUMP JUMPDEST DUP1 PUSH1 0x5 SLOAD PUSH2 0x431 SWAP2 SWAP1 PUSH2 0x15F1 JUMP JUMPDEST SWAP2 POP JUMPDEST PUSH1 0x0 PUSH1 0x6 SLOAD DUP4 PUSH2 0x444 SWAP2 SWAP1 PUSH2 0x1613 JUMP JUMPDEST SWAP1 POP PUSH1 0x0 PUSH1 0x8 SLOAD PUSH1 0x9 SLOAD DUP4 PUSH2 0x459 SWAP2 SWAP1 PUSH2 0x162C JUMP JUMPDEST PUSH2 0x463 SWAP2 SWAP1 PUSH2 0x15F1 JUMP JUMPDEST SWAP1 POP PUSH1 0x0 PUSH2 0x471 DUP3 DUP5 PUSH2 0x1613 JUMP JUMPDEST SWAP8 SWAP7 POP POP POP POP POP POP POP JUMP JUMPDEST PUSH2 0x485 DUP2 PUSH2 0xB58 JUMP JUMPDEST POP JUMP JUMPDEST PUSH2 0x490 PUSH2 0xEB3 JUMP JUMPDEST PUSH2 0x498 PUSH2 0xF13 JUMP JUMPDEST JUMP JUMPDEST PUSH1 0x0 DUP1 PUSH1 0x5 SLOAD GT PUSH2 0x4E4 JUMPI PUSH1 0x40 MLOAD PUSH3 0x461BCD PUSH1 0xE5 SHL DUP2 MSTORE PUSH1 0x20 PUSH1 0x4 DUP3 ADD MSTORE PUSH1 0x14 PUSH1 0x24 DUP3 ADD MSTORE PUSH20 0x4E6F7420656E6F756768206C6971756964697479 PUSH1 0x60 SHL PUSH1 0x44 DUP3 ADD MSTORE PUSH1 0x64 ADD PUSH2 0x3B0 JUMP JUMPDEST PUSH1 0x0 DUP1 PUSH1 0x7 SLOAD PUSH1 0x0 SUB PUSH2 0x512 JUMPI DUP4 PUSH1 0x1 PUSH1 0x5 SLOAD PUSH2 0x501 SWAP2 SWAP1 PUSH2 0x15F1 JUMP JUMPDEST PUSH2 0x50B SWAP2 SWAP1 PUSH2 0x1613 JUMP JUMPDEST SWAP2 POP PUSH2 0x530 JUMP JUMPDEST DUP4 PUSH1 0x7 SLOAD PUSH1 0x5 SLOAD PUSH2 0x523 SWAP2 SWAP1 PUSH2 0x15F1 JUMP JUMPDEST PUSH2 0x52D SWAP2 SWAP1 PUSH2 0x1613 JUMP JUMPDEST SWAP2 POP JUMPDEST DUP2 PUSH1 0x0 SUB PUSH2 0x54E JUMPI PUSH1 0x1 PUSH1 0x5 SLOAD PUSH2 0x547 SWAP2 SWAP1 PUSH2 0x15F1 JUMP JUMPDEST SWAP1 POP PUSH2 0x55F JUMP JUMPDEST DUP2 PUSH1 0x5 SLOAD PUSH2 0x55C SWAP2 SWAP1 PUSH2 0x15F1 JUMP JUMPDEST SWAP1 POP JUMPDEST PUSH1 0x0 PUSH1 0x7 SLOAD DUP3 PUSH2 0x56F SWAP2 SWAP1 PUSH2 0x1613 JUMP JUMPDEST SWAP1 POP PUSH1 0x0 PUSH1 0x8 SLOAD PUSH1 0x9 SLOAD DUP4 PUSH2 0x584 SWAP2 SWAP1 PUSH2 0x162C JUMP JUMPDEST PUSH2 0x58E SWAP2 SWAP1 PUSH2 0x15F1 JUMP JUMPDEST SWAP1 POP PUSH1 0x0 PUSH2 0x471 DUP3 DUP5 PUSH2 0x1643 JUMP JUMPDEST PUSH2 0x5A4 PUSH2 0xEB3 JUMP JUMPDEST PUSH2 0x498 PUSH1 0x0 PUSH2 0xF65 JUMP JUMPDEST PUSH2 0x5B6 PUSH2 0xEB3 JUMP JUMPDEST PUSH2 0x498 PUSH2 0xFBE JUMP JUMPDEST PUSH1 0x0 DUP2 GT PUSH2 0x5FF JUMPI PUSH1 0x40 MLOAD PUSH3 0x461BCD PUSH1 0xE5 SHL DUP2 MSTORE PUSH1 0x20 PUSH1 0x4 DUP3 ADD MSTORE PUSH1 0xE PUSH1 0x24 DUP3 ADD MSTORE PUSH14 0x53656E6420536F6D65204D656D65 PUSH1 0x90 SHL PUSH1 0x44 DUP3 ADD MSTORE PUSH1 0x64 ADD PUSH2 0x3B0 JUMP JUMPDEST PUSH1 0x0 PUSH2 0x60A DUP3 PUSH2 0x49A JUMP JUMPDEST SWAP1 POP CALLVALUE DUP2 GT ISZERO PUSH2 0x64C JUMPI PUSH1 0x40 MLOAD PUSH3 0x461BCD PUSH1 0xE5 SHL DUP2 MSTORE PUSH1 0x20 PUSH1 0x4 DUP3 ADD MSTORE PUSH1 0xD PUSH1 0x24 DUP3 ADD MSTORE PUSH13 0xA6CADCC8409ADEE4CA408AA89 PUSH1 0x9B SHL PUSH1 0x44 DUP3 ADD MSTORE PUSH1 0x64 ADD PUSH2 0x3B0 JUMP JUMPDEST PUSH1 0x1 SLOAD PUSH1 0x40 MLOAD PUSH4 0xA9059CBB PUSH1 0xE0 SHL DUP2 MSTORE CALLER PUSH1 0x4 DUP3 ADD MSTORE PUSH1 0x24 DUP2 ADD DUP5 SWAP1 MSTORE PUSH1 0x1 PUSH1 0x1 PUSH1 0xA0 SHL SUB SWAP1 SWAP2 AND SWAP1 PUSH4 0xA9059CBB SWAP1 PUSH1 0x44 ADD PUSH1 0x20 PUSH1 0x40 MLOAD DUP1 DUP4 SUB DUP2 PUSH1 0x0 DUP8 GAS CALL ISZERO DUP1 ISZERO PUSH2 0x69D JUMPI RETURNDATASIZE PUSH1 0x0 DUP1 RETURNDATACOPY RETURNDATASIZE PUSH1 0x0 REVERT JUMPDEST POP POP POP POP PUSH1 0x40 MLOAD RETURNDATASIZE PUSH1 0x1F NOT PUSH1 0x1F DUP3 ADD AND DUP3 ADD DUP1 PUSH1 0x40 MSTORE POP DUP2 ADD SWAP1 PUSH2 0x6C1 SWAP2 SWAP1 PUSH2 0x1656 JUMP JUMPDEST POP CALLER PUSH2 0x8FC PUSH2 0x6D0 DUP4 CALLVALUE PUSH2 0x1613 JUMP JUMPDEST PUSH1 0x40 MLOAD DUP2 ISZERO SWAP1 SWAP3 MUL SWAP2 PUSH1 0x0 DUP2 DUP2 DUP2 DUP6 DUP9 DUP9 CALL SWAP4 POP POP POP POP ISZERO DUP1 ISZERO PUSH2 0x6F8 JUMPI RETURNDATASIZE PUSH1 0x0 DUP1 RETURNDATACOPY RETURNDATASIZE PUSH1 0x0 REVERT JUMPDEST POP PUSH1 0x8 SLOAD PUSH1 0x9 SLOAD PUSH2 0x709 SWAP1 DUP3 PUSH2 0x1643 JUMP JUMPDEST PUSH2 0x713 SWAP1 DUP5 PUSH2 0x162C JUMP JUMPDEST PUSH2 0x71D SWAP2 SWAP1 PUSH2 0x15F1 JUMP JUMPDEST PUSH1 0x3 PUSH1 0x0 PUSH2 0x72E PUSH3 0x15180 TIMESTAMP PUSH2 0x15F1 JUMP JUMPDEST DUP2 MSTORE PUSH1 0x20 ADD SWAP1 DUP2 MSTORE PUSH1 0x20 ADD PUSH1 0x0 KECCAK256 PUSH1 0x0 DUP3 DUP3 SLOAD PUSH2 0x74B SWAP2 SWAP1 PUSH2 0x1643 JUMP JUMPDEST SWAP3 POP POP DUP2 SWAP1 SSTORE POP DUP2 PUSH1 0x6 PUSH1 0x0 DUP3 DUP3 SLOAD PUSH2 0x764 SWAP2 SWAP1 PUSH2 0x1613 JUMP JUMPDEST SWAP1 SWAP2 SSTORE POP POP PUSH1 0x6 SLOAD PUSH1 0x5 SLOAD PUSH2 0x779 SWAP2 SWAP1 PUSH2 0x15F1 JUMP JUMPDEST PUSH1 0x7 SSTORE PUSH1 0x40 DUP1 MLOAD DUP4 DUP2 MSTORE PUSH1 0x20 DUP2 ADD DUP4 SWAP1 MSTORE CALLER SWAP2 PUSH32 0x1CBC5AB135991BD2B6A4B034A04AA2AA086DAC1371CB9B16B8B5E2ED6B036BED SWAP2 ADD JUMPDEST PUSH1 0x40 MLOAD DUP1 SWAP2 SUB SWAP1 LOG2 POP POP JUMP JUMPDEST PUSH1 0x0 DUP2 GT PUSH2 0x7FD JUMPI PUSH1 0x40 MLOAD PUSH3 0x461BCD PUSH1 0xE5 SHL DUP2 MSTORE PUSH1 0x20 PUSH1 0x4 DUP3 ADD MSTORE PUSH1 0xE PUSH1 0x24 DUP3 ADD MSTORE PUSH14 0x53656E64206D6F7265204D454D45 PUSH1 0x90 SHL PUSH1 0x44 DUP3 ADD MSTORE PUSH1 0x64 ADD PUSH2 0x3B0 JUMP JUMPDEST PUSH1 0x0 CALLVALUE GT PUSH2 0x83D JUMPI PUSH1 0x40 MLOAD PUSH3 0x461BCD PUSH1 0xE5 SHL DUP2 MSTORE PUSH1 0x20 PUSH1 0x4 DUP3 ADD MSTORE PUSH1 0xD PUSH1 0x24 DUP3 ADD MSTORE PUSH13 0xA6CADCC840DADEE4CA408AA89 PUSH1 0x9B SHL PUSH1 0x44 DUP3 ADD MSTORE PUSH1 0x64 ADD PUSH2 0x3B0 JUMP JUMPDEST DUP1 PUSH1 0x8 SLOAD CALLVALUE PUSH2 0x84C SWAP2 SWAP1 PUSH2 0x162C JUMP JUMPDEST PUSH2 0x856 SWAP2 SWAP1 PUSH2 0x15F1 JUMP JUMPDEST PUSH1 0x4 SLOAD GT ISZERO PUSH2 0x89F JUMPI PUSH1 0x40 MLOAD PUSH3 0x461BCD PUSH1 0xE5 SHL DUP2 MSTORE PUSH1 0x20 PUSH1 0x4 DUP3 ADD MSTORE PUSH1 0x15 PUSH1 0x24 DUP3 ADD MSTORE PUSH21 0x14DD1858DADA5B99C814985D19481B9BDD081B595D PUSH1 0x5A SHL PUSH1 0x44 DUP3 ADD MSTORE PUSH1 0x64 ADD PUSH2 0x3B0 JUMP JUMPDEST PUSH2 0x485 DUP2 CALLVALUE PUSH2 0xFFB JUMP JUMPDEST PUSH1 0x0 DUP2 GT PUSH2 0x8E9 JUMPI PUSH1 0x40 MLOAD PUSH3 0x461BCD PUSH1 0xE5 SHL DUP2 MSTORE PUSH1 0x20 PUSH1 0x4 DUP3 ADD MSTORE PUSH1 0xD PUSH1 0x24 DUP3 ADD MSTORE PUSH13 0xA6CADCC840A6DEDACA408AA89 PUSH1 0x9B SHL PUSH1 0x44 DUP3 ADD MSTORE PUSH1 0x64 ADD PUSH2 0x3B0 JUMP JUMPDEST PUSH1 0x0 PUSH2 0x8F4 DUP3 PUSH2 0x36A JUMP JUMPDEST PUSH1 0x1 SLOAD PUSH1 0x40 MLOAD PUSH4 0x23B872DD PUSH1 0xE0 SHL DUP2 MSTORE CALLER PUSH1 0x4 DUP3 ADD MSTORE ADDRESS PUSH1 0x24 DUP3 ADD MSTORE PUSH1 0x44 DUP2 ADD DUP4 SWAP1 MSTORE SWAP2 SWAP3 POP PUSH1 0x1 PUSH1 0x1 PUSH1 0xA0 SHL SUB AND SWAP1 PUSH4 0x23B872DD SWAP1 PUSH1 0x64 ADD PUSH1 0x20 PUSH1 0x40 MLOAD DUP1 DUP4 SUB DUP2 PUSH1 0x0 DUP8 GAS CALL ISZERO DUP1 ISZERO PUSH2 0x94C JUMPI RETURNDATASIZE PUSH1 0x0 DUP1 RETURNDATACOPY RETURNDATASIZE PUSH1 0x0 REVERT JUMPDEST POP POP POP POP PUSH1 0x40 MLOAD RETURNDATASIZE PUSH1 0x1F NOT PUSH1 0x1F DUP3 ADD AND DUP3 ADD DUP1 PUSH1 0x40 MSTORE POP DUP2 ADD SWAP1 PUSH2 0x970 SWAP2 SWAP1 PUSH2 0x1656 JUMP JUMPDEST POP PUSH1 0x40 MLOAD CALLER SWAP1 DUP4 ISZERO PUSH2 0x8FC MUL SWAP1 DUP5 SWAP1 PUSH1 0x0 DUP2 DUP2 DUP2 DUP6 DUP9 DUP9 CALL SWAP4 POP POP POP POP ISZERO DUP1 ISZERO PUSH2 0x99E JUMPI RETURNDATASIZE PUSH1 0x0 DUP1 RETURNDATACOPY RETURNDATASIZE PUSH1 0x0 REVERT JUMPDEST POP PUSH1 0x8 SLOAD PUSH1 0x9 SLOAD PUSH2 0x9AF SWAP1 DUP3 PUSH2 0x1643 JUMP JUMPDEST PUSH2 0x9B9 SWAP1 DUP4 PUSH2 0x162C JUMP JUMPDEST PUSH2 0x9C3 SWAP2 SWAP1 PUSH2 0x15F1 JUMP JUMPDEST PUSH1 0x3 PUSH1 0x0 PUSH2 0x9D4 PUSH3 0x15180 TIMESTAMP PUSH2 0x15F1 JUMP JUMPDEST DUP2 MSTORE PUSH1 0x20 ADD SWAP1 DUP2 MSTORE PUSH1 0x20 ADD PUSH1 0x0 KECCAK256 PUSH1 0x0 DUP3 DUP3 SLOAD PUSH2 0x9F1 SWAP2 SWAP1 PUSH2 0x1643 JUMP JUMPDEST SWAP3 POP POP DUP2 SWAP1 SSTORE POP DUP1 PUSH1 0x6 PUSH1 0x0 DUP3 DUP3 SLOAD PUSH2 0xA0A SWAP2 SWAP1 PUSH2 0x1643 JUMP JUMPDEST SWAP1 SWAP2 SSTORE POP POP PUSH1 0x6 SLOAD PUSH1 0x5 SLOAD PUSH2 0xA1F SWAP2 SWAP1 PUSH2 0x15F1 JUMP JUMPDEST PUSH1 0x7 SSTORE PUSH1 0x40 DUP1 MLOAD DUP3 DUP2 MSTORE PUSH1 0x20 DUP2 ADD DUP5 SWAP1 MSTORE CALLER SWAP2 PUSH32 0xED7A144FAD14804D5C249145E3E0E2B63A9EB455B76AEE5BC92D711E9BBA3E4A SWAP2 ADD PUSH2 0x7B0 JUMP JUMPDEST CALLER PUSH1 0x0 SWAP1 DUP2 MSTORE PUSH1 0x2 PUSH1 0x20 SWAP1 DUP2 MSTORE PUSH1 0x40 DUP1 DUP4 KECCAK256 DUP1 SLOAD DUP3 MLOAD DUP2 DUP6 MUL DUP2 ADD DUP6 ADD SWAP1 SWAP4 MSTORE DUP1 DUP4 MSTORE PUSH1 0x60 SWAP5 SWAP3 SWAP4 SWAP2 SWAP3 SWAP1 SWAP2 DUP5 ADD JUMPDEST DUP3 DUP3 LT ISZERO PUSH2 0xAD9 JUMPI DUP4 DUP3 SWAP1 PUSH1 0x0 MSTORE PUSH1 0x20 PUSH1 0x0 KECCAK256 SWAP1 PUSH1 0x3 MUL ADD PUSH1 0x40 MLOAD DUP1 PUSH1 0x60 ADD PUSH1 0x40 MSTORE SWAP1 DUP2 PUSH1 0x0 DUP3 ADD SLOAD DUP2 MSTORE PUSH1 0x20 ADD PUSH1 0x1 DUP3 ADD SLOAD DUP2 MSTORE PUSH1 0x20 ADD PUSH1 0x2 DUP3 ADD SLOAD DUP2 MSTORE POP POP DUP2 MSTORE PUSH1 0x20 ADD SWAP1 PUSH1 0x1 ADD SWAP1 PUSH2 0xA89 JUMP JUMPDEST POP POP POP POP SWAP1 POP SWAP1 JUMP JUMPDEST PUSH2 0xAEA PUSH2 0xEB3 JUMP JUMPDEST PUSH1 0x1 PUSH1 0x1 PUSH1 0xA0 SHL SUB DUP2 AND PUSH2 0xB4F JUMPI PUSH1 0x40 MLOAD PUSH3 0x461BCD PUSH1 0xE5 SHL DUP2 MSTORE PUSH1 0x20 PUSH1 0x4 DUP3 ADD MSTORE PUSH1 0x26 PUSH1 0x24 DUP3 ADD MSTORE PUSH32 0x4F776E61626C653A206E6577206F776E657220697320746865207A65726F2061 PUSH1 0x44 DUP3 ADD MSTORE PUSH6 0x646472657373 PUSH1 0xD0 SHL PUSH1 0x64 DUP3 ADD MSTORE PUSH1 0x84 ADD PUSH2 0x3B0 JUMP JUMPDEST PUSH2 0x485 DUP2 PUSH2 0xF65 JUMP JUMPDEST CALLER PUSH1 0x0 SWAP1 DUP2 MSTORE PUSH1 0x2 PUSH1 0x20 MSTORE PUSH1 0x40 DUP2 KECCAK256 DUP1 SLOAD DUP4 SWAP1 DUP2 LT PUSH2 0xB79 JUMPI PUSH2 0xB79 PUSH2 0x1678 JUMP JUMPDEST SWAP1 PUSH1 0x0 MSTORE PUSH1 0x20 PUSH1 0x0 KECCAK256 SWAP1 PUSH1 0x3 MUL ADD PUSH1 0x40 MLOAD DUP1 PUSH1 0x60 ADD PUSH1 0x40 MSTORE SWAP1 DUP2 PUSH1 0x0 DUP3 ADD SLOAD DUP2 MSTORE PUSH1 0x20 ADD PUSH1 0x1 DUP3 ADD SLOAD DUP2 MSTORE PUSH1 0x20 ADD PUSH1 0x2 DUP3 ADD SLOAD DUP2 MSTORE POP POP SWAP1 POP PUSH1 0x0 PUSH2 0xBBC PUSH2 0x1163 JUMP JUMPDEST DUP3 MLOAD PUSH1 0x20 DUP5 ADD MLOAD SWAP2 SWAP3 POP SWAP1 PUSH1 0x0 SWAP1 PUSH2 0xBD5 SWAP1 DUP5 SWAP1 PUSH2 0x1643 JUMP JUMPDEST PUSH1 0x1 SLOAD PUSH1 0x40 MLOAD PUSH4 0x70A08231 PUSH1 0xE0 SHL DUP2 MSTORE ADDRESS PUSH1 0x4 DUP3 ADD MSTORE SWAP2 SWAP3 POP DUP4 SWAP2 PUSH1 0x1 PUSH1 0x1 PUSH1 0xA0 SHL SUB SWAP1 SWAP2 AND SWAP1 PUSH4 0x70A08231 SWAP1 PUSH1 0x24 ADD PUSH1 0x20 PUSH1 0x40 MLOAD DUP1 DUP4 SUB DUP2 DUP7 GAS STATICCALL ISZERO DUP1 ISZERO PUSH2 0xC22 JUMPI RETURNDATASIZE PUSH1 0x0 DUP1 RETURNDATACOPY RETURNDATASIZE PUSH1 0x0 REVERT JUMPDEST POP POP POP POP PUSH1 0x40 MLOAD RETURNDATASIZE PUSH1 0x1F NOT PUSH1 0x1F DUP3 ADD AND DUP3 ADD DUP1 PUSH1 0x40 MSTORE POP DUP2 ADD SWAP1 PUSH2 0xC46 SWAP2 SWAP1 PUSH2 0x168E JUMP JUMPDEST LT ISZERO PUSH2 0xCCE JUMPI PUSH1 0x40 MLOAD PUSH3 0x461BCD PUSH1 0xE5 SHL DUP2 MSTORE PUSH1 0x20 PUSH1 0x4 DUP3 ADD MSTORE PUSH1 0x4B PUSH1 0x24 DUP3 ADD MSTORE PUSH32 0x536F7272792043757272656E746C79207468697320636F6E747261637420646F PUSH1 0x44 DUP3 ADD MSTORE PUSH32 0x65736E27742068617665204D656D6520746F2072657475726E2C20436865636B PUSH1 0x64 DUP3 ADD MSTORE PUSH11 0x206261636B20536F6F6E21 PUSH1 0xA8 SHL PUSH1 0x84 DUP3 ADD MSTORE PUSH1 0xA4 ADD PUSH2 0x3B0 JUMP JUMPDEST DUP1 SELFBALANCE LT ISZERO PUSH2 0xD57 JUMPI PUSH1 0x40 MLOAD PUSH3 0x461BCD PUSH1 0xE5 SHL DUP2 MSTORE PUSH1 0x20 PUSH1 0x4 DUP3 ADD MSTORE PUSH1 0x4A PUSH1 0x24 DUP3 ADD MSTORE PUSH32 0x536F7272792043757272656E746C79207468697320636F6E747261637420646F PUSH1 0x44 DUP3 ADD MSTORE PUSH32 0x65736E277420686176652045746820746F2072657475726E2C20436865636B20 PUSH1 0x64 DUP3 ADD MSTORE PUSH10 0x6261636B20536F6F6E21 PUSH1 0xB0 SHL PUSH1 0x84 DUP3 ADD MSTORE PUSH1 0xA4 ADD PUSH2 0x3B0 JUMP JUMPDEST DUP2 PUSH1 0x6 PUSH1 0x0 DUP3 DUP3 SLOAD PUSH2 0xD69 SWAP2 SWAP1 PUSH2 0x1613 JUMP JUMPDEST SWAP3 POP POP DUP2 SWAP1 SSTORE POP DUP1 PUSH1 0x7 PUSH1 0x0 DUP3 DUP3 SLOAD PUSH2 0xD82 SWAP2 SWAP1 PUSH2 0x1613 JUMP JUMPDEST SWAP1 SWAP2 SSTORE POP POP PUSH1 0x1 SLOAD PUSH1 0x40 MLOAD PUSH4 0xA9059CBB PUSH1 0xE0 SHL DUP2 MSTORE CALLER PUSH1 0x4 DUP3 ADD MSTORE PUSH1 0x24 DUP2 ADD DUP5 SWAP1 MSTORE PUSH1 0x1 PUSH1 0x1 PUSH1 0xA0 SHL SUB SWAP1 SWAP2 AND SWAP1 PUSH4 0xA9059CBB SWAP1 PUSH1 0x44 ADD PUSH1 0x20 PUSH1 0x40 MLOAD DUP1 DUP4 SUB DUP2 PUSH1 0x0 DUP8 GAS CALL ISZERO DUP1 ISZERO PUSH2 0xDD8 JUMPI RETURNDATASIZE PUSH1 0x0 DUP1 RETURNDATACOPY RETURNDATASIZE PUSH1 0x0 REVERT JUMPDEST POP POP POP POP PUSH1 0x40 MLOAD RETURNDATASIZE PUSH1 0x1F NOT PUSH1 0x1F DUP3 ADD AND DUP3 ADD DUP1 PUSH1 0x40 MSTORE POP DUP2 ADD SWAP1 PUSH2 0xDFC SWAP2 SWAP1 PUSH2 0x1656 JUMP JUMPDEST POP PUSH1 0x40 MLOAD CALLER SWAP1 DUP3 ISZERO PUSH2 0x8FC MUL SWAP1 DUP4 SWAP1 PUSH1 0x0 DUP2 DUP2 DUP2 DUP6 DUP9 DUP9 CALL SWAP4 POP POP POP POP ISZERO DUP1 ISZERO PUSH2 0xE2A JUMPI RETURNDATASIZE PUSH1 0x0 DUP1 RETURNDATACOPY RETURNDATASIZE PUSH1 0x0 REVERT JUMPDEST POP PUSH1 0x6 SLOAD PUSH1 0x0 SUB PUSH2 0xE3F JUMPI PUSH1 0x0 PUSH1 0x4 SSTORE PUSH2 0xE60 JUMP JUMPDEST PUSH1 0x6 SLOAD PUSH1 0x8 SLOAD PUSH1 0x7 SLOAD PUSH2 0xE52 SWAP2 SWAP1 PUSH2 0x162C JUMP JUMPDEST PUSH2 0xE5C SWAP2 SWAP1 PUSH2 0x15F1 JUMP JUMPDEST PUSH1 0x4 SSTORE JUMPDEST PUSH2 0xE69 DUP6 PUSH2 0x132D JUMP JUMPDEST PUSH2 0xE71 PUSH2 0x1495 JUMP JUMPDEST PUSH1 0x40 DUP1 MLOAD DUP4 DUP2 MSTORE PUSH1 0x20 DUP2 ADD DUP4 SWAP1 MSTORE CALLER SWAP2 PUSH32 0xBB564DF1F5D4EBB97B073ADCAB505C7796A37035AC5D14F51269660939C39CF4 SWAP2 ADD PUSH1 0x40 MLOAD DUP1 SWAP2 SUB SWAP1 LOG2 POP POP POP POP POP JUMP JUMPDEST PUSH1 0x0 SLOAD PUSH1 0x1 PUSH1 0x1 PUSH1 0xA0 SHL SUB PUSH2 0x100 SWAP1 SWAP2 DIV AND CALLER EQ PUSH2 0x498 JUMPI PUSH1 0x40 MLOAD PUSH3 0x461BCD PUSH1 0xE5 SHL DUP2 MSTORE PUSH1 0x20 PUSH1 0x4 DUP3 ADD DUP2 SWAP1 MSTORE PUSH1 0x24 DUP3 ADD MSTORE PUSH32 0x4F776E61626C653A2063616C6C6572206973206E6F7420746865206F776E6572 PUSH1 0x44 DUP3 ADD MSTORE PUSH1 0x64 ADD PUSH2 0x3B0 JUMP JUMPDEST PUSH2 0xF1B PUSH2 0x14AA JUMP JUMPDEST PUSH1 0x0 DUP1 SLOAD PUSH1 0xFF NOT AND SWAP1 SSTORE PUSH32 0x5DB9EE0A495BF2E6FF9C91A7834C1BA4FDD244A5E8AA4E537BD38AEAE4B073AA CALLER JUMPDEST PUSH1 0x40 MLOAD PUSH1 0x1 PUSH1 0x1 PUSH1 0xA0 SHL SUB SWAP1 SWAP2 AND DUP2 MSTORE PUSH1 0x20 ADD PUSH1 0x40 MLOAD DUP1 SWAP2 SUB SWAP1 LOG1 JUMP JUMPDEST PUSH1 0x0 DUP1 SLOAD PUSH1 0x1 PUSH1 0x1 PUSH1 0xA0 SHL SUB DUP4 DUP2 AND PUSH2 0x100 DUP2 DUP2 MUL PUSH2 0x100 PUSH1 0x1 PUSH1 0xA8 SHL SUB NOT DUP6 AND OR DUP6 SSTORE PUSH1 0x40 MLOAD SWAP4 DIV SWAP2 SWAP1 SWAP2 AND SWAP3 SWAP1 SWAP2 DUP4 SWAP2 PUSH32 0x8BE0079C531659141344CD1FD0A4F28419497F9722A3DAAFE3B4186F6B6457E0 SWAP2 LOG3 POP POP JUMP JUMPDEST PUSH2 0xFC6 PUSH2 0x14F3 JUMP JUMPDEST PUSH1 0x0 DUP1 SLOAD PUSH1 0xFF NOT AND PUSH1 0x1 OR SWAP1 SSTORE PUSH32 0x62E78CEA01BEE320CD4E420270B5EA74000D11B0C9F74754EBDBFC544B05A258 PUSH2 0xF48 CALLER SWAP1 JUMP JUMPDEST PUSH1 0x1 SLOAD PUSH1 0x40 MLOAD PUSH4 0x23B872DD PUSH1 0xE0 SHL DUP2 MSTORE CALLER PUSH1 0x4 DUP3 ADD MSTORE ADDRESS PUSH1 0x24 DUP3 ADD MSTORE PUSH1 0x44 DUP2 ADD DUP5 SWAP1 MSTORE PUSH1 0x1 PUSH1 0x1 PUSH1 0xA0 SHL SUB SWAP1 SWAP2 AND SWAP1 PUSH4 0x23B872DD SWAP1 PUSH1 0x64 ADD PUSH1 0x20 PUSH1 0x40 MLOAD DUP1 DUP4 SUB DUP2 PUSH1 0x0 DUP8 GAS CALL ISZERO DUP1 ISZERO PUSH2 0x1052 JUMPI RETURNDATASIZE PUSH1 0x0 DUP1 RETURNDATACOPY RETURNDATASIZE PUSH1 0x0 REVERT JUMPDEST POP POP POP POP PUSH1 0x40 MLOAD RETURNDATASIZE PUSH1 0x1F NOT PUSH1 0x1F DUP3 ADD AND DUP3 ADD DUP1 PUSH1 0x40 MSTORE POP DUP2 ADD SWAP1 PUSH2 0x1076 SWAP2 SWAP1 PUSH2 0x1656 JUMP JUMPDEST POP DUP2 PUSH1 0x6 PUSH1 0x0 DUP3 DUP3 SLOAD PUSH2 0x1089 SWAP2 SWAP1 PUSH2 0x1643 JUMP JUMPDEST SWAP3 POP POP DUP2 SWAP1 SSTORE POP DUP1 PUSH1 0x7 PUSH1 0x0 DUP3 DUP3 SLOAD PUSH2 0x10A2 SWAP2 SWAP1 PUSH2 0x1643 JUMP JUMPDEST SWAP1 SWAP2 SSTORE POP POP PUSH1 0x40 DUP1 MLOAD PUSH1 0x60 DUP2 ADD DUP3 MSTORE DUP4 DUP2 MSTORE PUSH1 0x20 DUP1 DUP3 ADD DUP5 DUP2 MSTORE TIMESTAMP DUP4 DUP6 ADD SWAP1 DUP2 MSTORE CALLER PUSH1 0x0 SWAP1 DUP2 MSTORE PUSH1 0x2 DUP1 DUP6 MSTORE SWAP6 DUP2 KECCAK256 DUP1 SLOAD PUSH1 0x1 DUP2 DUP2 ADD DUP4 SSTORE SWAP2 DUP4 MSTORE SWAP5 SWAP1 SWAP2 KECCAK256 DUP6 MLOAD PUSH1 0x3 SWAP1 SWAP6 MUL ADD SWAP4 DUP5 SSTORE SWAP2 MLOAD SWAP2 DUP4 ADD SWAP2 SWAP1 SWAP2 SSTORE MLOAD SWAP3 ADD SWAP2 SWAP1 SWAP2 SSTORE PUSH1 0x6 SLOAD PUSH1 0x8 SLOAD PUSH1 0x7 SLOAD PUSH2 0x110F SWAP2 SWAP1 PUSH2 0x162C JUMP JUMPDEST PUSH2 0x1119 SWAP2 SWAP1 PUSH2 0x15F1 JUMP JUMPDEST PUSH1 0x4 SSTORE PUSH2 0x1124 PUSH2 0x1495 JUMP JUMPDEST PUSH1 0x40 DUP1 MLOAD DUP5 DUP2 MSTORE CALLVALUE PUSH1 0x20 DUP3 ADD MSTORE CALLER SWAP2 PUSH32 0x5CAAD8F5613B6F1D592FC8C69D8F0999453740F0806C754F20CC92F3D4B2B1B6 SWAP2 ADD PUSH1 0x40 MLOAD DUP1 SWAP2 SUB SWAP1 LOG2 POP POP POP JUMP JUMPDEST PUSH1 0x0 DUP1 DUP1 PUSH1 0x3 DUP2 PUSH2 0x1177 PUSH3 0x15180 TIMESTAMP PUSH2 0x15F1 JUMP JUMPDEST DUP2 MSTORE PUSH1 0x20 ADD SWAP1 DUP2 MSTORE PUSH1 0x20 ADD PUSH1 0x0 KECCAK256 SLOAD GT ISZERO PUSH2 0x1328 JUMPI CALLER PUSH1 0x0 SWAP1 DUP2 MSTORE PUSH1 0x2 PUSH1 0x20 MSTORE PUSH1 0x40 DUP2 KECCAK256 DUP1 SLOAD SWAP1 SWAP2 DUP1 JUMPDEST DUP3 DUP2 LT ISZERO PUSH2 0x1226 JUMPI PUSH1 0x0 DUP5 DUP3 DUP2 SLOAD DUP2 LT PUSH2 0x11BD JUMPI PUSH2 0x11BD PUSH2 0x1678 JUMP JUMPDEST SWAP1 PUSH1 0x0 MSTORE PUSH1 0x20 PUSH1 0x0 KECCAK256 SWAP1 PUSH1 0x3 MUL ADD PUSH1 0x40 MLOAD DUP1 PUSH1 0x60 ADD PUSH1 0x40 MSTORE SWAP1 DUP2 PUSH1 0x0 DUP3 ADD SLOAD DUP2 MSTORE PUSH1 0x20 ADD PUSH1 0x1 DUP3 ADD SLOAD DUP2 MSTORE PUSH1 0x20 ADD PUSH1 0x2 DUP3 ADD SLOAD DUP2 MSTORE POP POP SWAP1 POP DUP1 PUSH1 0x40 ADD MLOAD TIMESTAMP PUSH2 0x1206 SWAP2 SWAP1 PUSH2 0x1613 JUMP JUMPDEST PUSH2 0x1210 SWAP1 DUP5 PUSH2 0x1643 JUMP JUMPDEST SWAP3 POP POP DUP1 DUP1 PUSH2 0x121E SWAP1 PUSH2 0x16A7 JUMP JUMPDEST SWAP2 POP POP PUSH2 0x11A1 JUMP JUMPDEST POP PUSH1 0x0 JUMPDEST DUP3 DUP2 LT ISZERO PUSH2 0x1323 JUMPI PUSH1 0x0 DUP5 DUP3 DUP2 SLOAD DUP2 LT PUSH2 0x1246 JUMPI PUSH2 0x1246 PUSH2 0x1678 JUMP JUMPDEST PUSH1 0x0 SWAP2 DUP3 MSTORE PUSH1 0x20 DUP1 DUP4 KECCAK256 PUSH1 0x40 DUP1 MLOAD PUSH1 0x60 DUP2 ADD DUP3 MSTORE PUSH1 0x3 SWAP1 SWAP5 MUL SWAP1 SWAP2 ADD DUP1 SLOAD DUP1 DUP6 MSTORE PUSH1 0x1 DUP3 ADD SLOAD SWAP4 DUP6 ADD SWAP4 SWAP1 SWAP4 MSTORE PUSH1 0x2 ADD SLOAD SWAP1 DUP4 ADD MSTORE PUSH1 0x6 SLOAD PUSH1 0x8 SLOAD SWAP3 SWAP5 POP SWAP2 PUSH2 0x128E SWAP2 PUSH2 0x162C JUMP JUMPDEST PUSH2 0x1298 SWAP2 SWAP1 PUSH2 0x15F1 JUMP JUMPDEST SWAP1 POP PUSH1 0x0 DUP3 PUSH1 0x40 ADD MLOAD TIMESTAMP PUSH2 0x12AC SWAP2 SWAP1 PUSH2 0x1613 JUMP JUMPDEST SWAP1 POP PUSH1 0x0 PUSH2 0x12BA DUP7 DUP4 PUSH2 0x15F1 JUMP JUMPDEST PUSH1 0x5 SLOAD SWAP1 SWAP2 POP DUP2 PUSH1 0x3 PUSH1 0x0 PUSH2 0x12D2 PUSH3 0x15180 TIMESTAMP PUSH2 0x15F1 JUMP JUMPDEST DUP2 MSTORE PUSH1 0x20 ADD SWAP1 DUP2 MSTORE PUSH1 0x20 ADD PUSH1 0x0 KECCAK256 SLOAD DUP6 PUSH2 0x12EC SWAP2 SWAP1 PUSH2 0x162C JUMP JUMPDEST PUSH2 0x12F6 SWAP2 SWAP1 PUSH2 0x162C JUMP JUMPDEST PUSH2 0x1300 SWAP2 SWAP1 PUSH2 0x15F1 JUMP JUMPDEST PUSH2 0x130A SWAP1 DUP11 PUSH2 0x1643 JUMP JUMPDEST SWAP9 POP POP POP POP POP DUP1 DUP1 PUSH2 0x131B SWAP1 PUSH2 0x16A7 JUMP JUMPDEST SWAP2 POP POP PUSH2 0x122A JUMP JUMPDEST POP POP POP POP JUMPDEST SWAP2 SWAP1 POP JUMP JUMPDEST CALLER PUSH1 0x0 SWAP1 DUP2 MSTORE PUSH1 0x2 PUSH1 0x20 MSTORE PUSH1 0x40 SWAP1 KECCAK256 SLOAD DUP2 LT PUSH2 0x1381 JUMPI PUSH1 0x40 MLOAD PUSH3 0x461BCD PUSH1 0xE5 SHL DUP2 MSTORE PUSH1 0x20 PUSH1 0x4 DUP3 ADD MSTORE PUSH1 0x13 PUSH1 0x24 DUP3 ADD MSTORE PUSH19 0x496E646578206F7574206F6620626F756E6473 PUSH1 0x68 SHL PUSH1 0x44 DUP3 ADD MSTORE PUSH1 0x64 ADD PUSH2 0x3B0 JUMP JUMPDEST DUP1 JUMPDEST CALLER PUSH1 0x0 SWAP1 DUP2 MSTORE PUSH1 0x2 PUSH1 0x20 MSTORE PUSH1 0x40 SWAP1 KECCAK256 SLOAD PUSH2 0x139F SWAP1 PUSH1 0x1 SWAP1 PUSH2 0x1613 JUMP JUMPDEST DUP2 LT ISZERO PUSH2 0x144E JUMPI CALLER PUSH1 0x0 SWAP1 DUP2 MSTORE PUSH1 0x2 PUSH1 0x20 MSTORE PUSH1 0x40 SWAP1 KECCAK256 PUSH2 0x13C0 DUP3 PUSH1 0x1 PUSH2 0x1643 JUMP JUMPDEST DUP2 SLOAD DUP2 LT PUSH2 0x13D0 JUMPI PUSH2 0x13D0 PUSH2 0x1678 JUMP JUMPDEST SWAP1 PUSH1 0x0 MSTORE PUSH1 0x20 PUSH1 0x0 KECCAK256 SWAP1 PUSH1 0x3 MUL ADD PUSH1 0x2 PUSH1 0x0 CALLER PUSH1 0x1 PUSH1 0x1 PUSH1 0xA0 SHL SUB AND PUSH1 0x1 PUSH1 0x1 PUSH1 0xA0 SHL SUB AND DUP2 MSTORE PUSH1 0x20 ADD SWAP1 DUP2 MSTORE PUSH1 0x20 ADD PUSH1 0x0 KECCAK256 DUP3 DUP2 SLOAD DUP2 LT PUSH2 0x1414 JUMPI PUSH2 0x1414 PUSH2 0x1678 JUMP JUMPDEST PUSH1 0x0 SWAP2 DUP3 MSTORE PUSH1 0x20 SWAP1 SWAP2 KECCAK256 DUP3 SLOAD PUSH1 0x3 SWAP1 SWAP3 MUL ADD SWAP1 DUP2 SSTORE PUSH1 0x1 DUP1 DUP4 ADD SLOAD SWAP1 DUP3 ADD SSTORE PUSH1 0x2 SWAP2 DUP3 ADD SLOAD SWAP2 ADD SSTORE DUP1 PUSH2 0x1446 DUP2 PUSH2 0x16A7 JUMP JUMPDEST SWAP2 POP POP PUSH2 0x1383 JUMP JUMPDEST POP CALLER PUSH1 0x0 SWAP1 DUP2 MSTORE PUSH1 0x2 PUSH1 0x20 MSTORE PUSH1 0x40 SWAP1 KECCAK256 DUP1 SLOAD DUP1 PUSH2 0x146D JUMPI PUSH2 0x146D PUSH2 0x16C0 JUMP JUMPDEST PUSH1 0x0 DUP3 DUP2 MSTORE PUSH1 0x20 DUP2 KECCAK256 PUSH1 0x3 PUSH1 0x0 NOT SWAP1 SWAP4 ADD SWAP3 DUP4 MUL ADD DUP2 DUP2 SSTORE PUSH1 0x1 DUP2 ADD DUP3 SWAP1 SSTORE PUSH1 0x2 ADD SSTORE SWAP1 SSTORE POP JUMP JUMPDEST PUSH1 0x7 SLOAD PUSH1 0x6 SLOAD PUSH2 0x14A5 SWAP2 SWAP1 PUSH2 0x162C JUMP JUMPDEST PUSH1 0x5 SSTORE JUMP JUMPDEST PUSH1 0x0 SLOAD PUSH1 0xFF AND PUSH2 0x498 JUMPI PUSH1 0x40 MLOAD PUSH3 0x461BCD PUSH1 0xE5 SHL DUP2 MSTORE PUSH1 0x20 PUSH1 0x4 DUP3 ADD MSTORE PUSH1 0x14 PUSH1 0x24 DUP3 ADD MSTORE PUSH20 0x14185D5CD8589B194E881B9BDD081C185D5CD959 PUSH1 0x62 SHL PUSH1 0x44 DUP3 ADD MSTORE PUSH1 0x64 ADD PUSH2 0x3B0 JUMP JUMPDEST PUSH1 0x0 SLOAD PUSH1 0xFF AND ISZERO PUSH2 0x498 JUMPI PUSH1 0x40 MLOAD PUSH3 0x461BCD PUSH1 0xE5 SHL DUP2 MSTORE PUSH1 0x20 PUSH1 0x4 DUP3 ADD MSTORE PUSH1 0x10 PUSH1 0x24 DUP3 ADD MSTORE PUSH16 0x14185D5CD8589B194E881C185D5CD959 PUSH1 0x82 SHL PUSH1 0x44 DUP3 ADD MSTORE PUSH1 0x64 ADD PUSH2 0x3B0 JUMP JUMPDEST PUSH1 0x0 PUSH1 0x20 DUP3 DUP5 SUB SLT ISZERO PUSH2 0x154B JUMPI PUSH1 0x0 DUP1 REVERT JUMPDEST POP CALLDATALOAD SWAP2 SWAP1 POP JUMP JUMPDEST PUSH1 0x20 DUP1 DUP3 MSTORE DUP3 MLOAD DUP3 DUP3 ADD DUP2 SWAP1 MSTORE PUSH1 0x0 SWAP2 SWAP1 PUSH1 0x40 SWAP1 DUP2 DUP6 ADD SWAP1 DUP7 DUP5 ADD DUP6 JUMPDEST DUP3 DUP2 LT ISZERO PUSH2 0x159E JUMPI DUP2 MLOAD DUP1 MLOAD DUP6 MSTORE DUP7 DUP2 ADD MLOAD DUP8 DUP7 ADD MSTORE DUP6 ADD MLOAD DUP6 DUP6 ADD MSTORE PUSH1 0x60 SWAP1 SWAP4 ADD SWAP3 SWAP1 DUP6 ADD SWAP1 PUSH1 0x1 ADD PUSH2 0x156F JUMP JUMPDEST POP SWAP2 SWAP8 SWAP7 POP POP POP POP POP POP POP JUMP JUMPDEST PUSH1 0x0 PUSH1 0x20 DUP3 DUP5 SUB SLT ISZERO PUSH2 0x15BD JUMPI PUSH1 0x0 DUP1 REVERT JUMPDEST DUP2 CALLDATALOAD PUSH1 0x1 PUSH1 0x1 PUSH1 0xA0 SHL SUB DUP2 AND DUP2 EQ PUSH2 0x15D4 JUMPI PUSH1 0x0 DUP1 REVERT JUMPDEST SWAP4 SWAP3 POP POP POP JUMP JUMPDEST PUSH4 0x4E487B71 PUSH1 0xE0 SHL PUSH1 0x0 MSTORE PUSH1 0x11 PUSH1 0x4 MSTORE PUSH1 0x24 PUSH1 0x0 REVERT JUMPDEST PUSH1 0x0 DUP3 PUSH2 0x160E JUMPI PUSH4 0x4E487B71 PUSH1 0xE0 SHL PUSH1 0x0 MSTORE PUSH1 0x12 PUSH1 0x4 MSTORE PUSH1 0x24 PUSH1 0x0 REVERT JUMPDEST POP DIV SWAP1 JUMP JUMPDEST DUP2 DUP2 SUB DUP2 DUP2 GT ISZERO PUSH2 0x1626 JUMPI PUSH2 0x1626 PUSH2 0x15DB JUMP JUMPDEST SWAP3 SWAP2 POP POP JUMP JUMPDEST DUP1 DUP3 MUL DUP2 ISZERO DUP3 DUP3 DIV DUP5 EQ OR PUSH2 0x1626 JUMPI PUSH2 0x1626 PUSH2 0x15DB JUMP JUMPDEST DUP1 DUP3 ADD DUP1 DUP3 GT ISZERO PUSH2 0x1626 JUMPI PUSH2 0x1626 PUSH2 0x15DB JUMP JUMPDEST PUSH1 0x0 PUSH1 0x20 DUP3 DUP5 SUB SLT ISZERO PUSH2 0x1668 JUMPI PUSH1 0x0 DUP1 REVERT JUMPDEST DUP2 MLOAD DUP1 ISZERO ISZERO DUP2 EQ PUSH2 0x15D4 JUMPI PUSH1 0x0 DUP1 REVERT JUMPDEST PUSH4 0x4E487B71 PUSH1 0xE0 SHL PUSH1 0x0 MSTORE PUSH1 0x32 PUSH1 0x4 MSTORE PUSH1 0x24 PUSH1 0x0 REVERT JUMPDEST PUSH1 0x0 PUSH1 0x20 DUP3 DUP5 SUB SLT ISZERO PUSH2 0x16A0 JUMPI PUSH1 0x0 DUP1 REVERT JUMPDEST POP MLOAD SWAP2 SWAP1 POP JUMP JUMPDEST PUSH1 0x0 PUSH1 0x1 DUP3 ADD PUSH2 0x16B9 JUMPI PUSH2 0x16B9 PUSH2 0x15DB JUMP JUMPDEST POP PUSH1 0x1 ADD SWAP1 JUMP JUMPDEST PUSH4 0x4E487B71 PUSH1 0xE0 SHL PUSH1 0x0 MSTORE PUSH1 0x31 PUSH1 0x4 MSTORE PUSH1 0x24 PUSH1 0x0 REVERT INVALID LOG2 PUSH5 0x6970667358 0x22 SLT KECCAK256 BASEFEE 0xBF 0x4D CREATE2 GASPRICE 0x1E PUSH30 0x74362EE400443D621F5E7E8D9A41AFB5128B90F593115C79E664736F6C63 NUMBER STOP ADDMOD SGT STOP CALLER "
				},
				"gasEstimates": {
					"creation": {
						"codeDepositCost": "1180000",
						"executionCost": "infinite",
						"totalCost": "infinite"
					},
					"external": {
						"_k()": "2330",
						"_x()": "2396",
						"_y()": "2374",
						"buy(uint256)": "infinite",
						"dailyTax(uint256)": "2450",
						"getETHPrice(uint256)": "infinite",
						"getMemePrice(uint256)": "infinite",
						"getStacks()": "infinite",
						"owner()": "2397",
						"pause()": "infinite",
						"paused()": "2381",
						"precision()": "2395",
						"renounceOwnership()": "infinite",
						"sell(uint256)": "infinite",
						"stack(uint256)": "infinite",
						"stackingRate()": "2373",
						"taxRate()": "2307",
						"transferOwnership(address)": "28444",
						"unpause()": "infinite",
						"unstack(uint256)": "infinite"
					},
					"internal": {
						"_distributeTax()": "infinite",
						"_removeArr(uint256)": "infinite",
						"_stack(uint256,uint256)": "infinite",
						"_unstack(uint256)": "infinite",
						"_updateK()": "26409"
					}
				},
				"methodIdentifiers": {
					"_k()": "1b82c27f",
					"_x()": "29809703",
					"_y()": "28726bda",
					"buy(uint256)": "d96a094a",
					"dailyTax(uint256)": "2ad9d559",
					"getETHPrice(uint256)": "1a753fed",
					"getMemePrice(uint256)": "5c572ed0",
					"getStacks()": "e8bca8b8",
					"owner()": "8da5cb5b",
					"pause()": "8456cb59",
					"paused()": "5c975abb",
					"precision()": "d3b5dc3b",
					"renounceOwnership()": "715018a6",
					"sell(uint256)": "e4849b32",
					"stack(uint256)": "dc9031c4",
					"stackingRate()": "9c74f05d",
					"taxRate()": "771a3a1d",
					"transferOwnership(address)": "f2fde38b",
					"unpause()": "3f4ba83a",
					"unstack(uint256)": "200061df"
				}
			},
			"storageLayout": {
				"storage": [
					{
						"astId": 130,
						"contract": "DEX.sol:DEX",
						"label": "_paused",
						"offset": 0,
						"slot": "0",
						"type": "t_bool"
					},
					{
						"astId": 7,
						"contract": "DEX.sol:DEX",
						"label": "_owner",
						"offset": 1,
						"slot": "0",
						"type": "t_address"
					},
					{
						"astId": 996,
						"contract": "DEX.sol:DEX",
						"label": "meme",
						"offset": 0,
						"slot": "1",
						"type": "t_contract(ERC20)807"
					},
					{
						"astId": 1034,
						"contract": "DEX.sol:DEX",
						"label": "Stacked",
						"offset": 0,
						"slot": "2",
						"type": "t_mapping(t_address,t_array(t_struct(Stack_Struct)993_storage)dyn_storage)"
					},
					{
						"astId": 1038,
						"contract": "DEX.sol:DEX",
						"label": "dailyTax",
						"offset": 0,
						"slot": "3",
						"type": "t_mapping(t_uint256,t_uint256)"
					},
					{
						"astId": 1040,
						"contract": "DEX.sol:DEX",
						"label": "stackingRate",
						"offset": 0,
						"slot": "4",
						"type": "t_uint256"
					},
					{
						"astId": 1042,
						"contract": "DEX.sol:DEX",
						"label": "_k",
						"offset": 0,
						"slot": "5",
						"type": "t_uint256"
					},
					{
						"astId": 1044,
						"contract": "DEX.sol:DEX",
						"label": "_x",
						"offset": 0,
						"slot": "6",
						"type": "t_uint256"
					},
					{
						"astId": 1046,
						"contract": "DEX.sol:DEX",
						"label": "_y",
						"offset": 0,
						"slot": "7",
						"type": "t_uint256"
					},
					{
						"astId": 1049,
						"contract": "DEX.sol:DEX",
						"label": "precision",
						"offset": 0,
						"slot": "8",
						"type": "t_uint256"
					},
					{
						"astId": 1057,
						"contract": "DEX.sol:DEX",
						"label": "taxRate",
						"offset": 0,
						"slot": "9",
						"type": "t_uint256"
					}
				],
				"types": {
					"t_address": {
						"encoding": "inplace",
						"label": "address",
						"numberOfBytes": "20"
					},
					"t_array(t_struct(Stack_Struct)993_storage)dyn_storage": {
						"base": "t_struct(Stack_Struct)993_storage",
						"encoding": "dynamic_array",
						"label": "struct DEX.Stack_Struct[]",
						"numberOfBytes": "32"
					},
					"t_bool": {
						"encoding": "inplace",
						"label": "bool",
						"numberOfBytes": "1"
					},
					"t_contract(ERC20)807": {
						"encoding": "inplace",
						"label": "contract ERC20",
						"numberOfBytes": "20"
					},
					"t_mapping(t_address,t_array(t_struct(Stack_Struct)993_storage)dyn_storage)": {
						"encoding": "mapping",
						"key": "t_address",
						"label": "mapping(address => struct DEX.Stack_Struct[])",
						"numberOfBytes": "32",
						"value": "t_array(t_struct(Stack_Struct)993_storage)dyn_storage"
					},
					"t_mapping(t_uint256,t_uint256)": {
						"encoding": "mapping",
						"key": "t_uint256",
						"label": "mapping(uint256 => uint256)",
						"numberOfBytes": "32",
						"value": "t_uint256"
					},
					"t_struct(Stack_Struct)993_storage": {
						"encoding": "inplace",
						"label": "struct DEX.Stack_Struct",
						"members": [
							{
								"astId": 988,
								"contract": "DEX.sol:DEX",
								"label": "meme_amount",
								"offset": 0,
								"slot": "0",
								"type": "t_uint256"
							},
							{
								"astId": 990,
								"contract": "DEX.sol:DEX",
								"label": "eth_amount",
								"offset": 0,
								"slot": "1",
								"type": "t_uint256"
							},
							{
								"astId": 992,
								"contract": "DEX.sol:DEX",
								"label": "time",
								"offset": 0,
								"slot": "2",
								"type": "t_uint256"
							}
						],
						"numberOfBytes": "96"
					},
					"t_uint256": {
						"encoding": "inplace",
						"label": "uint256",
						"numberOfBytes": "32"
					}
				}
			},
			"userdoc": {
				"kind": "user",
				"methods": {},
				"version": 1
			}
		}
	}
}