{
	"data": {
		"bytecode": {
			"linkReferences": {},
			"object": "6080604052678ac7230489e80000600855600a6008546003620000239190620000f3565b6200002f91906200011d565b6009553480156200003e575f80fd5b50604051620017d9380380620017d983398101604081905262000061916200013d565b5f805460ff1916905562000075336200009b565b600180546001600160a01b0319166001600160a01b03929092169190911790556200016c565b5f80546001600160a01b03838116610100818102610100600160a81b0319851617855560405193049190911692909183917f8be0079c531659141344cd1fd0a4f28419497f9722a3daafe3b4186f6b6457e091a35050565b80820281158282048414176200011757634e487b7160e01b5f52601160045260245ffd5b92915050565b5f826200013857634e487b7160e01b5f52601260045260245ffd5b500490565b5f602082840312156200014e575f80fd5b81516001600160a01b038116811462000165575f80fd5b9392505050565b61165f806200017a5f395ff3fe6080604052600436106100d9575f3560e01c80638da5cb5b1161007c578063dc9031c411610057578063dc9031c414610208578063e4849b321461021b578063e8bca8b81461023a578063f2fde38b1461025b575f80fd5b80638da5cb5b146101ac5780639c74f05d146101e0578063d96a094a146101f5575f80fd5b80635c572ed0116100b75780635c572ed0146101445780635c975abb14610163578063715018a6146101845780638456cb5914610198575f80fd5b80631a753fed146100dd578063200061df1461010f5780633f4ba83a14610130575b5f80fd5b3480156100e8575f80fd5b506100fc6100f73660046114a1565b61027a565b6040519081526020015b60405180910390f35b34801561011a575f80fd5b5061012e6101293660046114a1565b61038d565b005b34801561013b575f80fd5b5061012e6103a1565b34801561014f575f80fd5b506100fc61015e3660046114a1565b6103b3565b34801561016e575f80fd5b505f5460ff166040519015158152602001610106565b34801561018f575f80fd5b5061012e61048b565b3480156101a3575f80fd5b5061012e61049c565b3480156101b7575f80fd5b505f5461010090046001600160a01b03166040516001600160a01b039091168152602001610106565b3480156101eb575f80fd5b506100fc60045481565b61012e6102033660046114a1565b6104ac565b61012e6102163660046114a1565b6106a6565b348015610226575f80fd5b5061012e6102353660046114a1565b610799565b348015610245575f80fd5b5061024e6109ff565b60405161010691906114b8565b348015610266575f80fd5b5061012e610275366004611510565b610a83565b5f610283610af9565b5f600554116102d05760405162461bcd60e51b81526020600482015260146024820152734e6f7420656e6f756768206c697175696469747960601b60448201526064015b60405180910390fd5b5f806006545f036102fc578360016005546102eb9190611551565b6102f59190611570565b905061031a565b8360065460055461030d9190611551565b6103179190611570565b90505b805f036103375760016005546103309190611551565b9150610348565b806005546103459190611551565b91505b5f600654836103579190611570565b90505f6008546009548361036b9190611589565b6103759190611551565b90505f61038282846115a0565b979650505050505050565b610395610af9565b61039e81610b3e565b50565b6103a9610e87565b6103b1610ee6565b565b5f6103bc610af9565b5f600554116104045760405162461bcd60e51b81526020600482015260146024820152734e6f7420656e6f756768206c697175696469747960601b60448201526064016102c7565b5f806007545f036104305783600160055461041f9190611551565b6104299190611570565b915061044e565b836007546005546104419190611551565b61044b9190611570565b91505b815f0361046b5760016005546104649190611551565b905061047c565b816005546104799190611551565b90505b5f600754826103579190611570565b610493610e87565b6103b15f610f37565b6104a4610e87565b6103b1610f8f565b6104b4610af9565b5f81116104f45760405162461bcd60e51b815260206004820152600e60248201526d53656e6420536f6d65204d656d6560901b60448201526064016102c7565b5f6104fe826103b3565b9050348111156105405760405162461bcd60e51b815260206004820152600d60248201526c0a6cadcc8409adee4ca408aa89609b1b60448201526064016102c7565b60015460405163a9059cbb60e01b8152336004820152602481018490526001600160a01b039091169063a9059cbb906044016020604051808303815f875af115801561058e573d5f803e3d5ffd5b505050506040513d601f19601f820116820180604052508101906105b291906115b3565b50336108fc6105c18334611570565b6040518115909202915f818181858888f193505050501580156105e6573d5f803e3d5ffd5b506008546009546105f790826115a0565b6106019084611589565b61060b9190611551565b60035f61061b6201518042611551565b81526020019081526020015f205f82825461063691906115a0565b925050819055508160065f82825461064e9190611570565b90915550506006546005546106639190611551565b600755604080518381526020810183905233917f1cbc5ab135991bd2b6a4b034a04aa2aa086dac1371cb9b16b8b5e2ed6b036bed91015b60405180910390a25050565b6106ae610af9565b5f81116106ee5760405162461bcd60e51b815260206004820152600e60248201526d53656e64206d6f7265204d454d4560901b60448201526064016102c7565b5f341161072d5760405162461bcd60e51b815260206004820152600d60248201526c0a6cadcc840dadee4ca408aa89609b1b60448201526064016102c7565b806008543461073c9190611589565b6107469190611551565b600454111561078f5760405162461bcd60e51b815260206004820152601560248201527414dd1858dada5b99c814985d19481b9bdd081b595d605a1b60448201526064016102c7565b61039e8134610fcb565b6107a1610af9565b5f81116107e05760405162461bcd60e51b815260206004820152600d60248201526c0a6cadcc840a6dedaca408aa89609b1b60448201526064016102c7565b5f6107ea8261027a565b6001546040516370a0823160e01b81523360048201529192506001600160a01b0316906370a0823190602401602060405180830381865afa158015610831573d5f803e3d5ffd5b505050506040513d601f19601f8201168201806040525081019061085591906115d2565b8111156108a45760405162461bcd60e51b815260206004820152601a60248201527f596f7520646f6e2774206861766520656e6f756768206d656d6500000000000060448201526064016102c7565b6001546040516323b872dd60e01b8152336004820152306024820152604481018390526001600160a01b03909116906323b872dd906064016020604051808303815f875af11580156108f8573d5f803e3d5ffd5b505050506040513d601f19601f8201168201806040525081019061091c91906115b3565b50604051339083156108fc029084905f818181858888f19350505050158015610947573d5f803e3d5ffd5b5060085460095461095890826115a0565b6109629083611589565b61096c9190611551565b60035f61097c6201518042611551565b81526020019081526020015f205f82825461099791906115a0565b925050819055508160075f8282546109af9190611570565b90915550506007546005546109c49190611551565b600655604080518281526020810184905233917fed7a144fad14804d5c249145e3e0e2b63a9eb455b76aee5bc92d711e9bba3e4a910161069a565b335f908152600260209081526040808320805482518185028101850190935280835260609492939192909184015b82821015610a7a578382905f5260205f2090600302016040518060600160405290815f82015481526020016001820154815260200160028201548152505081526020019060010190610a2d565b50505050905090565b610a8b610e87565b6001600160a01b038116610af05760405162461bcd60e51b815260206004820152602660248201527f4f776e61626c653a206e6577206f776e657220697320746865207a65726f206160448201526564647265737360d01b60648201526084016102c7565b61039e81610f37565b5f5460ff16156103b15760405162461bcd60e51b815260206004820152601060248201526f14185d5cd8589b194e881c185d5cd95960821b60448201526064016102c7565b335f908152600260205260408120805483908110610b5e57610b5e6115e9565b905f5260205f2090600302016040518060600160405290815f82015481526020016001820154815260200160028201548152505090505f610b9d61112d565b82516020840151919250905f90610bb59084906115a0565b6001546040516370a0823160e01b815230600482015291925083916001600160a01b03909116906370a0823190602401602060405180830381865afa158015610c00573d5f803e3d5ffd5b505050506040513d601f19601f82011682018060405250810190610c2491906115d2565b1015610cac5760405162461bcd60e51b815260206004820152604b60248201527f536f7272792043757272656e746c79207468697320636f6e747261637420646f60448201527f65736e27742068617665204d656d6520746f2072657475726e2c20436865636b60648201526a206261636b20536f6f6e2160a81b608482015260a4016102c7565b80471015610d355760405162461bcd60e51b815260206004820152604a60248201527f536f7272792043757272656e746c79207468697320636f6e747261637420646f60448201527f65736e277420686176652045746820746f2072657475726e2c20436865636b206064820152696261636b20536f6f6e2160b01b608482015260a4016102c7565b8160065f828254610d469190611570565b925050819055508060075f828254610d5e9190611570565b909155505060015460405163a9059cbb60e01b8152336004820152602481018490526001600160a01b039091169063a9059cbb906044016020604051808303815f875af1158015610db1573d5f803e3d5ffd5b505050506040513d601f19601f82011682018060405250810190610dd591906115b3565b50604051339082156108fc029083905f818181858888f19350505050158015610e00573d5f803e3d5ffd5b506006545f03610e13575f600455610e34565b600654600854600754610e269190611589565b610e309190611551565b6004555b610e3d856112e7565b610e45611444565b604080518381526020810183905233917fbb564df1f5d4ebb97b073adcab505c7796a37035ac5d14f51269660939c39cf4910160405180910390a25050505050565b5f546001600160a01b036101009091041633146103b15760405162461bcd60e51b815260206004820181905260248201527f4f776e61626c653a2063616c6c6572206973206e6f7420746865206f776e657260448201526064016102c7565b610eee611459565b5f805460ff191690557f5db9ee0a495bf2e6ff9c91a7834c1ba4fdd244a5e8aa4e537bd38aeae4b073aa335b6040516001600160a01b03909116815260200160405180910390a1565b5f80546001600160a01b03838116610100818102610100600160a81b0319851617855560405193049190911692909183917f8be0079c531659141344cd1fd0a4f28419497f9722a3daafe3b4186f6b6457e091a35050565b610f97610af9565b5f805460ff191660011790557f62e78cea01bee320cd4e420270b5ea74000d11b0c9f74754ebdbfc544b05a258610f1a3390565b6001546040516323b872dd60e01b8152336004820152306024820152604481018490526001600160a01b03909116906323b872dd906064016020604051808303815f875af115801561101f573d5f803e3d5ffd5b505050506040513d601f19601f8201168201806040525081019061104391906115b3565b508160065f82825461105591906115a0565b925050819055508060075f82825461106d91906115a0565b909155505060408051606081018252838152602080820184815242838501908152335f9081526002808552958120805460018181018355918352949091208551600390950201938455915191830191909155519201919091556006546008546007546110d99190611589565b6110e39190611551565b6004556110ee611444565b6040805184815234602082015233917f5caad8f5613b6f1d592fc8c69d8f0999453740f0806c754f20cc92f3d4b2b1b6910160405180910390a2505050565b5f80806003816111406201518042611551565b81526020019081526020015f205411156112e257335f90815260026020526040812080549091805b8281116111e8575f848281548110611182576111826115e9565b905f5260205f2090600302016040518060600160405290815f82015481526020016001820154815260200160028201548152505090508060400151426111c89190611570565b6111d290846115a0565b92505080806111e0906115fd565b915050611168565b505f5b8281116112dd575f848281548110611205576112056115e9565b5f9182526020808320604080516060810182526003909402909101805480855260018201549385019390935260020154908301526006546008549294509161124c91611589565b6112569190611551565b90505f8260400151426112699190611570565b90505f6112768683611551565b6005549091508160035f61128d6201518042611551565b81526020019081526020015f2054856112a69190611589565b6112b09190611589565b6112ba9190611551565b6112c4908a6115a0565b98505050505080806112d5906115fd565b9150506111eb565b505050505b919050565b335f90815260026020526040902054811061133a5760405162461bcd60e51b8152602060048201526013602482015272496e646578206f7574206f6620626f756e647360681b60448201526064016102c7565b805b335f9081526002602052604090205461135790600190611570565b81101561140057335f9081526002602052604090206113778260016115a0565b81548110611387576113876115e9565b905f5260205f20906003020160025f336001600160a01b03166001600160a01b031681526020019081526020015f2082815481106113c7576113c76115e9565b5f9182526020909120825460039092020190815560018083015490820155600291820154910155806113f8816115fd565b91505061133c565b50335f90815260026020526040902080548061141e5761141e611615565b5f8281526020812060035f19909301928302018181556001810182905560020155905550565b6007546006546114549190611589565b600555565b5f5460ff166103b15760405162461bcd60e51b815260206004820152601460248201527314185d5cd8589b194e881b9bdd081c185d5cd95960621b60448201526064016102c7565b5f602082840312156114b1575f80fd5b5035919050565b602080825282518282018190525f919060409081850190868401855b8281101561150357815180518552868101518786015285015185850152606090930192908501906001016114d4565b5091979650505050505050565b5f60208284031215611520575f80fd5b81356001600160a01b0381168114611536575f80fd5b9392505050565b634e487b7160e01b5f52601160045260245ffd5b5f8261156b57634e487b7160e01b5f52601260045260245ffd5b500490565b818103818111156115835761158361153d565b92915050565b80820281158282048414176115835761158361153d565b808201808211156115835761158361153d565b5f602082840312156115c3575f80fd5b81518015158114611536575f80fd5b5f602082840312156115e2575f80fd5b5051919050565b634e487b7160e01b5f52603260045260245ffd5b5f6001820161160e5761160e61153d565b5060010190565b634e487b7160e01b5f52603160045260245ffdfea2646970667358221220c72032e6ecbf6c4ac3929d7553730789b0ff574d3ec0cd0e3262f9ab8aac6e7664736f6c63430008140033",
			"opcodes": "PUSH1 0x80 PUSH1 0x40 MSTORE PUSH8 0x8AC7230489E80000 PUSH1 0x8 SSTORE PUSH1 0xA PUSH1 0x8 SLOAD PUSH1 0x3 PUSH3 0x23 SWAP2 SWAP1 PUSH3 0xF3 JUMP JUMPDEST PUSH3 0x2F SWAP2 SWAP1 PUSH3 0x11D JUMP JUMPDEST PUSH1 0x9 SSTORE CALLVALUE DUP1 ISZERO PUSH3 0x3E JUMPI PUSH0 DUP1 REVERT JUMPDEST POP PUSH1 0x40 MLOAD PUSH3 0x17D9 CODESIZE SUB DUP1 PUSH3 0x17D9 DUP4 CODECOPY DUP2 ADD PUSH1 0x40 DUP2 SWAP1 MSTORE PUSH3 0x61 SWAP2 PUSH3 0x13D JUMP JUMPDEST PUSH0 DUP1 SLOAD PUSH1 0xFF NOT AND SWAP1 SSTORE PUSH3 0x75 CALLER PUSH3 0x9B JUMP JUMPDEST PUSH1 0x1 DUP1 SLOAD PUSH1 0x1 PUSH1 0x1 PUSH1 0xA0 SHL SUB NOT AND PUSH1 0x1 PUSH1 0x1 PUSH1 0xA0 SHL SUB SWAP3 SWAP1 SWAP3 AND SWAP2 SWAP1 SWAP2 OR SWAP1 SSTORE PUSH3 0x16C JUMP JUMPDEST PUSH0 DUP1 SLOAD PUSH1 0x1 PUSH1 0x1 PUSH1 0xA0 SHL SUB DUP4 DUP2 AND PUSH2 0x100 DUP2 DUP2 MUL PUSH2 0x100 PUSH1 0x1 PUSH1 0xA8 SHL SUB NOT DUP6 AND OR DUP6 SSTORE PUSH1 0x40 MLOAD SWAP4 DIV SWAP2 SWAP1 SWAP2 AND SWAP3 SWAP1 SWAP2 DUP4 SWAP2 PUSH32 0x8BE0079C531659141344CD1FD0A4F28419497F9722A3DAAFE3B4186F6B6457E0 SWAP2 LOG3 POP POP JUMP JUMPDEST DUP1 DUP3 MUL DUP2 ISZERO DUP3 DUP3 DIV DUP5 EQ OR PUSH3 0x117 JUMPI PUSH4 0x4E487B71 PUSH1 0xE0 SHL PUSH0 MSTORE PUSH1 0x11 PUSH1 0x4 MSTORE PUSH1 0x24 PUSH0 REVERT JUMPDEST SWAP3 SWAP2 POP POP JUMP JUMPDEST PUSH0 DUP3 PUSH3 0x138 JUMPI PUSH4 0x4E487B71 PUSH1 0xE0 SHL PUSH0 MSTORE PUSH1 0x12 PUSH1 0x4 MSTORE PUSH1 0x24 PUSH0 REVERT JUMPDEST POP DIV SWAP1 JUMP JUMPDEST PUSH0 PUSH1 0x20 DUP3 DUP5 SUB SLT ISZERO PUSH3 0x14E JUMPI PUSH0 DUP1 REVERT JUMPDEST DUP2 MLOAD PUSH1 0x1 PUSH1 0x1 PUSH1 0xA0 SHL SUB DUP2 AND DUP2 EQ PUSH3 0x165 JUMPI PUSH0 DUP1 REVERT JUMPDEST SWAP4 SWAP3 POP POP POP JUMP JUMPDEST PUSH2 0x165F DUP1 PUSH3 0x17A PUSH0 CODECOPY PUSH0 RETURN INVALID PUSH1 0x80 PUSH1 0x40 MSTORE PUSH1 0x4 CALLDATASIZE LT PUSH2 0xD9 JUMPI PUSH0 CALLDATALOAD PUSH1 0xE0 SHR DUP1 PUSH4 0x8DA5CB5B GT PUSH2 0x7C JUMPI DUP1 PUSH4 0xDC9031C4 GT PUSH2 0x57 JUMPI DUP1 PUSH4 0xDC9031C4 EQ PUSH2 0x208 JUMPI DUP1 PUSH4 0xE4849B32 EQ PUSH2 0x21B JUMPI DUP1 PUSH4 0xE8BCA8B8 EQ PUSH2 0x23A JUMPI DUP1 PUSH4 0xF2FDE38B EQ PUSH2 0x25B JUMPI PUSH0 DUP1 REVERT JUMPDEST DUP1 PUSH4 0x8DA5CB5B EQ PUSH2 0x1AC JUMPI DUP1 PUSH4 0x9C74F05D EQ PUSH2 0x1E0 JUMPI DUP1 PUSH4 0xD96A094A EQ PUSH2 0x1F5 JUMPI PUSH0 DUP1 REVERT JUMPDEST DUP1 PUSH4 0x5C572ED0 GT PUSH2 0xB7 JUMPI DUP1 PUSH4 0x5C572ED0 EQ PUSH2 0x144 JUMPI DUP1 PUSH4 0x5C975ABB EQ PUSH2 0x163 JUMPI DUP1 PUSH4 0x715018A6 EQ PUSH2 0x184 JUMPI DUP1 PUSH4 0x8456CB59 EQ PUSH2 0x198 JUMPI PUSH0 DUP1 REVERT JUMPDEST DUP1 PUSH4 0x1A753FED EQ PUSH2 0xDD JUMPI DUP1 PUSH4 0x200061DF EQ PUSH2 0x10F JUMPI DUP1 PUSH4 0x3F4BA83A EQ PUSH2 0x130 JUMPI JUMPDEST PUSH0 DUP1 REVERT JUMPDEST CALLVALUE DUP1 ISZERO PUSH2 0xE8 JUMPI PUSH0 DUP1 REVERT JUMPDEST POP PUSH2 0xFC PUSH2 0xF7 CALLDATASIZE PUSH1 0x4 PUSH2 0x14A1 JUMP JUMPDEST PUSH2 0x27A JUMP JUMPDEST PUSH1 0x40 MLOAD SWAP1 DUP2 MSTORE PUSH1 0x20 ADD JUMPDEST PUSH1 0x40 MLOAD DUP1 SWAP2 SUB SWAP1 RETURN JUMPDEST CALLVALUE DUP1 ISZERO PUSH2 0x11A JUMPI PUSH0 DUP1 REVERT JUMPDEST POP PUSH2 0x12E PUSH2 0x129 CALLDATASIZE PUSH1 0x4 PUSH2 0x14A1 JUMP JUMPDEST PUSH2 0x38D JUMP JUMPDEST STOP JUMPDEST CALLVALUE DUP1 ISZERO PUSH2 0x13B JUMPI PUSH0 DUP1 REVERT JUMPDEST POP PUSH2 0x12E PUSH2 0x3A1 JUMP JUMPDEST CALLVALUE DUP1 ISZERO PUSH2 0x14F JUMPI PUSH0 DUP1 REVERT JUMPDEST POP PUSH2 0xFC PUSH2 0x15E CALLDATASIZE PUSH1 0x4 PUSH2 0x14A1 JUMP JUMPDEST PUSH2 0x3B3 JUMP JUMPDEST CALLVALUE DUP1 ISZERO PUSH2 0x16E JUMPI PUSH0 DUP1 REVERT JUMPDEST POP PUSH0 SLOAD PUSH1 0xFF AND PUSH1 0x40 MLOAD SWAP1 ISZERO ISZERO DUP2 MSTORE PUSH1 0x20 ADD PUSH2 0x106 JUMP JUMPDEST CALLVALUE DUP1 ISZERO PUSH2 0x18F JUMPI PUSH0 DUP1 REVERT JUMPDEST POP PUSH2 0x12E PUSH2 0x48B JUMP JUMPDEST CALLVALUE DUP1 ISZERO PUSH2 0x1A3 JUMPI PUSH0 DUP1 REVERT JUMPDEST POP PUSH2 0x12E PUSH2 0x49C JUMP JUMPDEST CALLVALUE DUP1 ISZERO PUSH2 0x1B7 JUMPI PUSH0 DUP1 REVERT JUMPDEST POP PUSH0 SLOAD PUSH2 0x100 SWAP1 DIV PUSH1 0x1 PUSH1 0x1 PUSH1 0xA0 SHL SUB AND PUSH1 0x40 MLOAD PUSH1 0x1 PUSH1 0x1 PUSH1 0xA0 SHL SUB SWAP1 SWAP2 AND DUP2 MSTORE PUSH1 0x20 ADD PUSH2 0x106 JUMP JUMPDEST CALLVALUE DUP1 ISZERO PUSH2 0x1EB JUMPI PUSH0 DUP1 REVERT JUMPDEST POP PUSH2 0xFC PUSH1 0x4 SLOAD DUP2 JUMP JUMPDEST PUSH2 0x12E PUSH2 0x203 CALLDATASIZE PUSH1 0x4 PUSH2 0x14A1 JUMP JUMPDEST PUSH2 0x4AC JUMP JUMPDEST PUSH2 0x12E PUSH2 0x216 CALLDATASIZE PUSH1 0x4 PUSH2 0x14A1 JUMP JUMPDEST PUSH2 0x6A6 JUMP JUMPDEST CALLVALUE DUP1 ISZERO PUSH2 0x226 JUMPI PUSH0 DUP1 REVERT JUMPDEST POP PUSH2 0x12E PUSH2 0x235 CALLDATASIZE PUSH1 0x4 PUSH2 0x14A1 JUMP JUMPDEST PUSH2 0x799 JUMP JUMPDEST CALLVALUE DUP1 ISZERO PUSH2 0x245 JUMPI PUSH0 DUP1 REVERT JUMPDEST POP PUSH2 0x24E PUSH2 0x9FF JUMP JUMPDEST PUSH1 0x40 MLOAD PUSH2 0x106 SWAP2 SWAP1 PUSH2 0x14B8 JUMP JUMPDEST CALLVALUE DUP1 ISZERO PUSH2 0x266 JUMPI PUSH0 DUP1 REVERT JUMPDEST POP PUSH2 0x12E PUSH2 0x275 CALLDATASIZE PUSH1 0x4 PUSH2 0x1510 JUMP JUMPDEST PUSH2 0xA83 JUMP JUMPDEST PUSH0 PUSH2 0x283 PUSH2 0xAF9 JUMP JUMPDEST PUSH0 PUSH1 0x5 SLOAD GT PUSH2 0x2D0 JUMPI PUSH1 0x40 MLOAD PUSH3 0x461BCD PUSH1 0xE5 SHL DUP2 MSTORE PUSH1 0x20 PUSH1 0x4 DUP3 ADD MSTORE PUSH1 0x14 PUSH1 0x24 DUP3 ADD MSTORE PUSH20 0x4E6F7420656E6F756768206C6971756964697479 PUSH1 0x60 SHL PUSH1 0x44 DUP3 ADD MSTORE PUSH1 0x64 ADD JUMPDEST PUSH1 0x40 MLOAD DUP1 SWAP2 SUB SWAP1 REVERT JUMPDEST PUSH0 DUP1 PUSH1 0x6 SLOAD PUSH0 SUB PUSH2 0x2FC JUMPI DUP4 PUSH1 0x1 PUSH1 0x5 SLOAD PUSH2 0x2EB SWAP2 SWAP1 PUSH2 0x1551 JUMP JUMPDEST PUSH2 0x2F5 SWAP2 SWAP1 PUSH2 0x1570 JUMP JUMPDEST SWAP1 POP PUSH2 0x31A JUMP JUMPDEST DUP4 PUSH1 0x6 SLOAD PUSH1 0x5 SLOAD PUSH2 0x30D SWAP2 SWAP1 PUSH2 0x1551 JUMP JUMPDEST PUSH2 0x317 SWAP2 SWAP1 PUSH2 0x1570 JUMP JUMPDEST SWAP1 POP JUMPDEST DUP1 PUSH0 SUB PUSH2 0x337 JUMPI PUSH1 0x1 PUSH1 0x5 SLOAD PUSH2 0x330 SWAP2 SWAP1 PUSH2 0x1551 JUMP JUMPDEST SWAP2 POP PUSH2 0x348 JUMP JUMPDEST DUP1 PUSH1 0x5 SLOAD PUSH2 0x345 SWAP2 SWAP1 PUSH2 0x1551 JUMP JUMPDEST SWAP2 POP JUMPDEST PUSH0 PUSH1 0x6 SLOAD DUP4 PUSH2 0x357 SWAP2 SWAP1 PUSH2 0x1570 JUMP JUMPDEST SWAP1 POP PUSH0 PUSH1 0x8 SLOAD PUSH1 0x9 SLOAD DUP4 PUSH2 0x36B SWAP2 SWAP1 PUSH2 0x1589 JUMP JUMPDEST PUSH2 0x375 SWAP2 SWAP1 PUSH2 0x1551 JUMP JUMPDEST SWAP1 POP PUSH0 PUSH2 0x382 DUP3 DUP5 PUSH2 0x15A0 JUMP JUMPDEST SWAP8 SWAP7 POP POP POP POP POP POP POP JUMP JUMPDEST PUSH2 0x395 PUSH2 0xAF9 JUMP JUMPDEST PUSH2 0x39E DUP2 PUSH2 0xB3E JUMP JUMPDEST POP JUMP JUMPDEST PUSH2 0x3A9 PUSH2 0xE87 JUMP JUMPDEST PUSH2 0x3B1 PUSH2 0xEE6 JUMP JUMPDEST JUMP JUMPDEST PUSH0 PUSH2 0x3BC PUSH2 0xAF9 JUMP JUMPDEST PUSH0 PUSH1 0x5 SLOAD GT PUSH2 0x404 JUMPI PUSH1 0x40 MLOAD PUSH3 0x461BCD PUSH1 0xE5 SHL DUP2 MSTORE PUSH1 0x20 PUSH1 0x4 DUP3 ADD MSTORE PUSH1 0x14 PUSH1 0x24 DUP3 ADD MSTORE PUSH20 0x4E6F7420656E6F756768206C6971756964697479 PUSH1 0x60 SHL PUSH1 0x44 DUP3 ADD MSTORE PUSH1 0x64 ADD PUSH2 0x2C7 JUMP JUMPDEST PUSH0 DUP1 PUSH1 0x7 SLOAD PUSH0 SUB PUSH2 0x430 JUMPI DUP4 PUSH1 0x1 PUSH1 0x5 SLOAD PUSH2 0x41F SWAP2 SWAP1 PUSH2 0x1551 JUMP JUMPDEST PUSH2 0x429 SWAP2 SWAP1 PUSH2 0x1570 JUMP JUMPDEST SWAP2 POP PUSH2 0x44E JUMP JUMPDEST DUP4 PUSH1 0x7 SLOAD PUSH1 0x5 SLOAD PUSH2 0x441 SWAP2 SWAP1 PUSH2 0x1551 JUMP JUMPDEST PUSH2 0x44B SWAP2 SWAP1 PUSH2 0x1570 JUMP JUMPDEST SWAP2 POP JUMPDEST DUP2 PUSH0 SUB PUSH2 0x46B JUMPI PUSH1 0x1 PUSH1 0x5 SLOAD PUSH2 0x464 SWAP2 SWAP1 PUSH2 0x1551 JUMP JUMPDEST SWAP1 POP PUSH2 0x47C JUMP JUMPDEST DUP2 PUSH1 0x5 SLOAD PUSH2 0x479 SWAP2 SWAP1 PUSH2 0x1551 JUMP JUMPDEST SWAP1 POP JUMPDEST PUSH0 PUSH1 0x7 SLOAD DUP3 PUSH2 0x357 SWAP2 SWAP1 PUSH2 0x1570 JUMP JUMPDEST PUSH2 0x493 PUSH2 0xE87 JUMP JUMPDEST PUSH2 0x3B1 PUSH0 PUSH2 0xF37 JUMP JUMPDEST PUSH2 0x4A4 PUSH2 0xE87 JUMP JUMPDEST PUSH2 0x3B1 PUSH2 0xF8F JUMP JUMPDEST PUSH2 0x4B4 PUSH2 0xAF9 JUMP JUMPDEST PUSH0 DUP2 GT PUSH2 0x4F4 JUMPI PUSH1 0x40 MLOAD PUSH3 0x461BCD PUSH1 0xE5 SHL DUP2 MSTORE PUSH1 0x20 PUSH1 0x4 DUP3 ADD MSTORE PUSH1 0xE PUSH1 0x24 DUP3 ADD MSTORE PUSH14 0x53656E6420536F6D65204D656D65 PUSH1 0x90 SHL PUSH1 0x44 DUP3 ADD MSTORE PUSH1 0x64 ADD PUSH2 0x2C7 JUMP JUMPDEST PUSH0 PUSH2 0x4FE DUP3 PUSH2 0x3B3 JUMP JUMPDEST SWAP1 POP CALLVALUE DUP2 GT ISZERO PUSH2 0x540 JUMPI PUSH1 0x40 MLOAD PUSH3 0x461BCD PUSH1 0xE5 SHL DUP2 MSTORE PUSH1 0x20 PUSH1 0x4 DUP3 ADD MSTORE PUSH1 0xD PUSH1 0x24 DUP3 ADD MSTORE PUSH13 0xA6CADCC8409ADEE4CA408AA89 PUSH1 0x9B SHL PUSH1 0x44 DUP3 ADD MSTORE PUSH1 0x64 ADD PUSH2 0x2C7 JUMP JUMPDEST PUSH1 0x1 SLOAD PUSH1 0x40 MLOAD PUSH4 0xA9059CBB PUSH1 0xE0 SHL DUP2 MSTORE CALLER PUSH1 0x4 DUP3 ADD MSTORE PUSH1 0x24 DUP2 ADD DUP5 SWAP1 MSTORE PUSH1 0x1 PUSH1 0x1 PUSH1 0xA0 SHL SUB SWAP1 SWAP2 AND SWAP1 PUSH4 0xA9059CBB SWAP1 PUSH1 0x44 ADD PUSH1 0x20 PUSH1 0x40 MLOAD DUP1 DUP4 SUB DUP2 PUSH0 DUP8 GAS CALL ISZERO DUP1 ISZERO PUSH2 0x58E JUMPI RETURNDATASIZE PUSH0 DUP1 RETURNDATACOPY RETURNDATASIZE PUSH0 REVERT JUMPDEST POP POP POP POP PUSH1 0x40 MLOAD RETURNDATASIZE PUSH1 0x1F NOT PUSH1 0x1F DUP3 ADD AND DUP3 ADD DUP1 PUSH1 0x40 MSTORE POP DUP2 ADD SWAP1 PUSH2 0x5B2 SWAP2 SWAP1 PUSH2 0x15B3 JUMP JUMPDEST POP CALLER PUSH2 0x8FC PUSH2 0x5C1 DUP4 CALLVALUE PUSH2 0x1570 JUMP JUMPDEST PUSH1 0x40 MLOAD DUP2 ISZERO SWAP1 SWAP3 MUL SWAP2 PUSH0 DUP2 DUP2 DUP2 DUP6 DUP9 DUP9 CALL SWAP4 POP POP POP POP ISZERO DUP1 ISZERO PUSH2 0x5E6 JUMPI RETURNDATASIZE PUSH0 DUP1 RETURNDATACOPY RETURNDATASIZE PUSH0 REVERT JUMPDEST POP PUSH1 0x8 SLOAD PUSH1 0x9 SLOAD PUSH2 0x5F7 SWAP1 DUP3 PUSH2 0x15A0 JUMP JUMPDEST PUSH2 0x601 SWAP1 DUP5 PUSH2 0x1589 JUMP JUMPDEST PUSH2 0x60B SWAP2 SWAP1 PUSH2 0x1551 JUMP JUMPDEST PUSH1 0x3 PUSH0 PUSH2 0x61B PUSH3 0x15180 TIMESTAMP PUSH2 0x1551 JUMP JUMPDEST DUP2 MSTORE PUSH1 0x20 ADD SWAP1 DUP2 MSTORE PUSH1 0x20 ADD PUSH0 KECCAK256 PUSH0 DUP3 DUP3 SLOAD PUSH2 0x636 SWAP2 SWAP1 PUSH2 0x15A0 JUMP JUMPDEST SWAP3 POP POP DUP2 SWAP1 SSTORE POP DUP2 PUSH1 0x6 PUSH0 DUP3 DUP3 SLOAD PUSH2 0x64E SWAP2 SWAP1 PUSH2 0x1570 JUMP JUMPDEST SWAP1 SWAP2 SSTORE POP POP PUSH1 0x6 SLOAD PUSH1 0x5 SLOAD PUSH2 0x663 SWAP2 SWAP1 PUSH2 0x1551 JUMP JUMPDEST PUSH1 0x7 SSTORE PUSH1 0x40 DUP1 MLOAD DUP4 DUP2 MSTORE PUSH1 0x20 DUP2 ADD DUP4 SWAP1 MSTORE CALLER SWAP2 PUSH32 0x1CBC5AB135991BD2B6A4B034A04AA2AA086DAC1371CB9B16B8B5E2ED6B036BED SWAP2 ADD JUMPDEST PUSH1 0x40 MLOAD DUP1 SWAP2 SUB SWAP1 LOG2 POP POP JUMP JUMPDEST PUSH2 0x6AE PUSH2 0xAF9 JUMP JUMPDEST PUSH0 DUP2 GT PUSH2 0x6EE JUMPI PUSH1 0x40 MLOAD PUSH3 0x461BCD PUSH1 0xE5 SHL DUP2 MSTORE PUSH1 0x20 PUSH1 0x4 DUP3 ADD MSTORE PUSH1 0xE PUSH1 0x24 DUP3 ADD MSTORE PUSH14 0x53656E64206D6F7265204D454D45 PUSH1 0x90 SHL PUSH1 0x44 DUP3 ADD MSTORE PUSH1 0x64 ADD PUSH2 0x2C7 JUMP JUMPDEST PUSH0 CALLVALUE GT PUSH2 0x72D JUMPI PUSH1 0x40 MLOAD PUSH3 0x461BCD PUSH1 0xE5 SHL DUP2 MSTORE PUSH1 0x20 PUSH1 0x4 DUP3 ADD MSTORE PUSH1 0xD PUSH1 0x24 DUP3 ADD MSTORE PUSH13 0xA6CADCC840DADEE4CA408AA89 PUSH1 0x9B SHL PUSH1 0x44 DUP3 ADD MSTORE PUSH1 0x64 ADD PUSH2 0x2C7 JUMP JUMPDEST DUP1 PUSH1 0x8 SLOAD CALLVALUE PUSH2 0x73C SWAP2 SWAP1 PUSH2 0x1589 JUMP JUMPDEST PUSH2 0x746 SWAP2 SWAP1 PUSH2 0x1551 JUMP JUMPDEST PUSH1 0x4 SLOAD GT ISZERO PUSH2 0x78F JUMPI PUSH1 0x40 MLOAD PUSH3 0x461BCD PUSH1 0xE5 SHL DUP2 MSTORE PUSH1 0x20 PUSH1 0x4 DUP3 ADD MSTORE PUSH1 0x15 PUSH1 0x24 DUP3 ADD MSTORE PUSH21 0x14DD1858DADA5B99C814985D19481B9BDD081B595D PUSH1 0x5A SHL PUSH1 0x44 DUP3 ADD MSTORE PUSH1 0x64 ADD PUSH2 0x2C7 JUMP JUMPDEST PUSH2 0x39E DUP2 CALLVALUE PUSH2 0xFCB JUMP JUMPDEST PUSH2 0x7A1 PUSH2 0xAF9 JUMP JUMPDEST PUSH0 DUP2 GT PUSH2 0x7E0 JUMPI PUSH1 0x40 MLOAD PUSH3 0x461BCD PUSH1 0xE5 SHL DUP2 MSTORE PUSH1 0x20 PUSH1 0x4 DUP3 ADD MSTORE PUSH1 0xD PUSH1 0x24 DUP3 ADD MSTORE PUSH13 0xA6CADCC840A6DEDACA408AA89 PUSH1 0x9B SHL PUSH1 0x44 DUP3 ADD MSTORE PUSH1 0x64 ADD PUSH2 0x2C7 JUMP JUMPDEST PUSH0 PUSH2 0x7EA DUP3 PUSH2 0x27A JUMP JUMPDEST PUSH1 0x1 SLOAD PUSH1 0x40 MLOAD PUSH4 0x70A08231 PUSH1 0xE0 SHL DUP2 MSTORE CALLER PUSH1 0x4 DUP3 ADD MSTORE SWAP2 SWAP3 POP PUSH1 0x1 PUSH1 0x1 PUSH1 0xA0 SHL SUB AND SWAP1 PUSH4 0x70A08231 SWAP1 PUSH1 0x24 ADD PUSH1 0x20 PUSH1 0x40 MLOAD DUP1 DUP4 SUB DUP2 DUP7 GAS STATICCALL ISZERO DUP1 ISZERO PUSH2 0x831 JUMPI RETURNDATASIZE PUSH0 DUP1 RETURNDATACOPY RETURNDATASIZE PUSH0 REVERT JUMPDEST POP POP POP POP PUSH1 0x40 MLOAD RETURNDATASIZE PUSH1 0x1F NOT PUSH1 0x1F DUP3 ADD AND DUP3 ADD DUP1 PUSH1 0x40 MSTORE POP DUP2 ADD SWAP1 PUSH2 0x855 SWAP2 SWAP1 PUSH2 0x15D2 JUMP JUMPDEST DUP2 GT ISZERO PUSH2 0x8A4 JUMPI PUSH1 0x40 MLOAD PUSH3 0x461BCD PUSH1 0xE5 SHL DUP2 MSTORE PUSH1 0x20 PUSH1 0x4 DUP3 ADD MSTORE PUSH1 0x1A PUSH1 0x24 DUP3 ADD MSTORE PUSH32 0x596F7520646F6E2774206861766520656E6F756768206D656D65000000000000 PUSH1 0x44 DUP3 ADD MSTORE PUSH1 0x64 ADD PUSH2 0x2C7 JUMP JUMPDEST PUSH1 0x1 SLOAD PUSH1 0x40 MLOAD PUSH4 0x23B872DD PUSH1 0xE0 SHL DUP2 MSTORE CALLER PUSH1 0x4 DUP3 ADD MSTORE ADDRESS PUSH1 0x24 DUP3 ADD MSTORE PUSH1 0x44 DUP2 ADD DUP4 SWAP1 MSTORE PUSH1 0x1 PUSH1 0x1 PUSH1 0xA0 SHL SUB SWAP1 SWAP2 AND SWAP1 PUSH4 0x23B872DD SWAP1 PUSH1 0x64 ADD PUSH1 0x20 PUSH1 0x40 MLOAD DUP1 DUP4 SUB DUP2 PUSH0 DUP8 GAS CALL ISZERO DUP1 ISZERO PUSH2 0x8F8 JUMPI RETURNDATASIZE PUSH0 DUP1 RETURNDATACOPY RETURNDATASIZE PUSH0 REVERT JUMPDEST POP POP POP POP PUSH1 0x40 MLOAD RETURNDATASIZE PUSH1 0x1F NOT PUSH1 0x1F DUP3 ADD AND DUP3 ADD DUP1 PUSH1 0x40 MSTORE POP DUP2 ADD SWAP1 PUSH2 0x91C SWAP2 SWAP1 PUSH2 0x15B3 JUMP JUMPDEST POP PUSH1 0x40 MLOAD CALLER SWAP1 DUP4 ISZERO PUSH2 0x8FC MUL SWAP1 DUP5 SWAP1 PUSH0 DUP2 DUP2 DUP2 DUP6 DUP9 DUP9 CALL SWAP4 POP POP POP POP ISZERO DUP1 ISZERO PUSH2 0x947 JUMPI RETURNDATASIZE PUSH0 DUP1 RETURNDATACOPY RETURNDATASIZE PUSH0 REVERT JUMPDEST POP PUSH1 0x8 SLOAD PUSH1 0x9 SLOAD PUSH2 0x958 SWAP1 DUP3 PUSH2 0x15A0 JUMP JUMPDEST PUSH2 0x962 SWAP1 DUP4 PUSH2 0x1589 JUMP JUMPDEST PUSH2 0x96C SWAP2 SWAP1 PUSH2 0x1551 JUMP JUMPDEST PUSH1 0x3 PUSH0 PUSH2 0x97C PUSH3 0x15180 TIMESTAMP PUSH2 0x1551 JUMP JUMPDEST DUP2 MSTORE PUSH1 0x20 ADD SWAP1 DUP2 MSTORE PUSH1 0x20 ADD PUSH0 KECCAK256 PUSH0 DUP3 DUP3 SLOAD PUSH2 0x997 SWAP2 SWAP1 PUSH2 0x15A0 JUMP JUMPDEST SWAP3 POP POP DUP2 SWAP1 SSTORE POP DUP2 PUSH1 0x7 PUSH0 DUP3 DUP3 SLOAD PUSH2 0x9AF SWAP2 SWAP1 PUSH2 0x1570 JUMP JUMPDEST SWAP1 SWAP2 SSTORE POP POP PUSH1 0x7 SLOAD PUSH1 0x5 SLOAD PUSH2 0x9C4 SWAP2 SWAP1 PUSH2 0x1551 JUMP JUMPDEST PUSH1 0x6 SSTORE PUSH1 0x40 DUP1 MLOAD DUP3 DUP2 MSTORE PUSH1 0x20 DUP2 ADD DUP5 SWAP1 MSTORE CALLER SWAP2 PUSH32 0xED7A144FAD14804D5C249145E3E0E2B63A9EB455B76AEE5BC92D711E9BBA3E4A SWAP2 ADD PUSH2 0x69A JUMP JUMPDEST CALLER PUSH0 SWAP1 DUP2 MSTORE PUSH1 0x2 PUSH1 0x20 SWAP1 DUP2 MSTORE PUSH1 0x40 DUP1 DUP4 KECCAK256 DUP1 SLOAD DUP3 MLOAD DUP2 DUP6 MUL DUP2 ADD DUP6 ADD SWAP1 SWAP4 MSTORE DUP1 DUP4 MSTORE PUSH1 0x60 SWAP5 SWAP3 SWAP4 SWAP2 SWAP3 SWAP1 SWAP2 DUP5 ADD JUMPDEST DUP3 DUP3 LT ISZERO PUSH2 0xA7A JUMPI DUP4 DUP3 SWAP1 PUSH0 MSTORE PUSH1 0x20 PUSH0 KECCAK256 SWAP1 PUSH1 0x3 MUL ADD PUSH1 0x40 MLOAD DUP1 PUSH1 0x60 ADD PUSH1 0x40 MSTORE SWAP1 DUP2 PUSH0 DUP3 ADD SLOAD DUP2 MSTORE PUSH1 0x20 ADD PUSH1 0x1 DUP3 ADD SLOAD DUP2 MSTORE PUSH1 0x20 ADD PUSH1 0x2 DUP3 ADD SLOAD DUP2 MSTORE POP POP DUP2 MSTORE PUSH1 0x20 ADD SWAP1 PUSH1 0x1 ADD SWAP1 PUSH2 0xA2D JUMP JUMPDEST POP POP POP POP SWAP1 POP SWAP1 JUMP JUMPDEST PUSH2 0xA8B PUSH2 0xE87 JUMP JUMPDEST PUSH1 0x1 PUSH1 0x1 PUSH1 0xA0 SHL SUB DUP2 AND PUSH2 0xAF0 JUMPI PUSH1 0x40 MLOAD PUSH3 0x461BCD PUSH1 0xE5 SHL DUP2 MSTORE PUSH1 0x20 PUSH1 0x4 DUP3 ADD MSTORE PUSH1 0x26 PUSH1 0x24 DUP3 ADD MSTORE PUSH32 0x4F776E61626C653A206E6577206F776E657220697320746865207A65726F2061 PUSH1 0x44 DUP3 ADD MSTORE PUSH6 0x646472657373 PUSH1 0xD0 SHL PUSH1 0x64 DUP3 ADD MSTORE PUSH1 0x84 ADD PUSH2 0x2C7 JUMP JUMPDEST PUSH2 0x39E DUP2 PUSH2 0xF37 JUMP JUMPDEST PUSH0 SLOAD PUSH1 0xFF AND ISZERO PUSH2 0x3B1 JUMPI PUSH1 0x40 MLOAD PUSH3 0x461BCD PUSH1 0xE5 SHL DUP2 MSTORE PUSH1 0x20 PUSH1 0x4 DUP3 ADD MSTORE PUSH1 0x10 PUSH1 0x24 DUP3 ADD MSTORE PUSH16 0x14185D5CD8589B194E881C185D5CD959 PUSH1 0x82 SHL PUSH1 0x44 DUP3 ADD MSTORE PUSH1 0x64 ADD PUSH2 0x2C7 JUMP JUMPDEST CALLER PUSH0 SWAP1 DUP2 MSTORE PUSH1 0x2 PUSH1 0x20 MSTORE PUSH1 0x40 DUP2 KECCAK256 DUP1 SLOAD DUP4 SWAP1 DUP2 LT PUSH2 0xB5E JUMPI PUSH2 0xB5E PUSH2 0x15E9 JUMP JUMPDEST SWAP1 PUSH0 MSTORE PUSH1 0x20 PUSH0 KECCAK256 SWAP1 PUSH1 0x3 MUL ADD PUSH1 0x40 MLOAD DUP1 PUSH1 0x60 ADD PUSH1 0x40 MSTORE SWAP1 DUP2 PUSH0 DUP3 ADD SLOAD DUP2 MSTORE PUSH1 0x20 ADD PUSH1 0x1 DUP3 ADD SLOAD DUP2 MSTORE PUSH1 0x20 ADD PUSH1 0x2 DUP3 ADD SLOAD DUP2 MSTORE POP POP SWAP1 POP PUSH0 PUSH2 0xB9D PUSH2 0x112D JUMP JUMPDEST DUP3 MLOAD PUSH1 0x20 DUP5 ADD MLOAD SWAP2 SWAP3 POP SWAP1 PUSH0 SWAP1 PUSH2 0xBB5 SWAP1 DUP5 SWAP1 PUSH2 0x15A0 JUMP JUMPDEST PUSH1 0x1 SLOAD PUSH1 0x40 MLOAD PUSH4 0x70A08231 PUSH1 0xE0 SHL DUP2 MSTORE ADDRESS PUSH1 0x4 DUP3 ADD MSTORE SWAP2 SWAP3 POP DUP4 SWAP2 PUSH1 0x1 PUSH1 0x1 PUSH1 0xA0 SHL SUB SWAP1 SWAP2 AND SWAP1 PUSH4 0x70A08231 SWAP1 PUSH1 0x24 ADD PUSH1 0x20 PUSH1 0x40 MLOAD DUP1 DUP4 SUB DUP2 DUP7 GAS STATICCALL ISZERO DUP1 ISZERO PUSH2 0xC00 JUMPI RETURNDATASIZE PUSH0 DUP1 RETURNDATACOPY RETURNDATASIZE PUSH0 REVERT JUMPDEST POP POP POP POP PUSH1 0x40 MLOAD RETURNDATASIZE PUSH1 0x1F NOT PUSH1 0x1F DUP3 ADD AND DUP3 ADD DUP1 PUSH1 0x40 MSTORE POP DUP2 ADD SWAP1 PUSH2 0xC24 SWAP2 SWAP1 PUSH2 0x15D2 JUMP JUMPDEST LT ISZERO PUSH2 0xCAC JUMPI PUSH1 0x40 MLOAD PUSH3 0x461BCD PUSH1 0xE5 SHL DUP2 MSTORE PUSH1 0x20 PUSH1 0x4 DUP3 ADD MSTORE PUSH1 0x4B PUSH1 0x24 DUP3 ADD MSTORE PUSH32 0x536F7272792043757272656E746C79207468697320636F6E747261637420646F PUSH1 0x44 DUP3 ADD MSTORE PUSH32 0x65736E27742068617665204D656D6520746F2072657475726E2C20436865636B PUSH1 0x64 DUP3 ADD MSTORE PUSH11 0x206261636B20536F6F6E21 PUSH1 0xA8 SHL PUSH1 0x84 DUP3 ADD MSTORE PUSH1 0xA4 ADD PUSH2 0x2C7 JUMP JUMPDEST DUP1 SELFBALANCE LT ISZERO PUSH2 0xD35 JUMPI PUSH1 0x40 MLOAD PUSH3 0x461BCD PUSH1 0xE5 SHL DUP2 MSTORE PUSH1 0x20 PUSH1 0x4 DUP3 ADD MSTORE PUSH1 0x4A PUSH1 0x24 DUP3 ADD MSTORE PUSH32 0x536F7272792043757272656E746C79207468697320636F6E747261637420646F PUSH1 0x44 DUP3 ADD MSTORE PUSH32 0x65736E277420686176652045746820746F2072657475726E2C20436865636B20 PUSH1 0x64 DUP3 ADD MSTORE PUSH10 0x6261636B20536F6F6E21 PUSH1 0xB0 SHL PUSH1 0x84 DUP3 ADD MSTORE PUSH1 0xA4 ADD PUSH2 0x2C7 JUMP JUMPDEST DUP2 PUSH1 0x6 PUSH0 DUP3 DUP3 SLOAD PUSH2 0xD46 SWAP2 SWAP1 PUSH2 0x1570 JUMP JUMPDEST SWAP3 POP POP DUP2 SWAP1 SSTORE POP DUP1 PUSH1 0x7 PUSH0 DUP3 DUP3 SLOAD PUSH2 0xD5E SWAP2 SWAP1 PUSH2 0x1570 JUMP JUMPDEST SWAP1 SWAP2 SSTORE POP POP PUSH1 0x1 SLOAD PUSH1 0x40 MLOAD PUSH4 0xA9059CBB PUSH1 0xE0 SHL DUP2 MSTORE CALLER PUSH1 0x4 DUP3 ADD MSTORE PUSH1 0x24 DUP2 ADD DUP5 SWAP1 MSTORE PUSH1 0x1 PUSH1 0x1 PUSH1 0xA0 SHL SUB SWAP1 SWAP2 AND SWAP1 PUSH4 0xA9059CBB SWAP1 PUSH1 0x44 ADD PUSH1 0x20 PUSH1 0x40 MLOAD DUP1 DUP4 SUB DUP2 PUSH0 DUP8 GAS CALL ISZERO DUP1 ISZERO PUSH2 0xDB1 JUMPI RETURNDATASIZE PUSH0 DUP1 RETURNDATACOPY RETURNDATASIZE PUSH0 REVERT JUMPDEST POP POP POP POP PUSH1 0x40 MLOAD RETURNDATASIZE PUSH1 0x1F NOT PUSH1 0x1F DUP3 ADD AND DUP3 ADD DUP1 PUSH1 0x40 MSTORE POP DUP2 ADD SWAP1 PUSH2 0xDD5 SWAP2 SWAP1 PUSH2 0x15B3 JUMP JUMPDEST POP PUSH1 0x40 MLOAD CALLER SWAP1 DUP3 ISZERO PUSH2 0x8FC MUL SWAP1 DUP4 SWAP1 PUSH0 DUP2 DUP2 DUP2 DUP6 DUP9 DUP9 CALL SWAP4 POP POP POP POP ISZERO DUP1 ISZERO PUSH2 0xE00 JUMPI RETURNDATASIZE PUSH0 DUP1 RETURNDATACOPY RETURNDATASIZE PUSH0 REVERT JUMPDEST POP PUSH1 0x6 SLOAD PUSH0 SUB PUSH2 0xE13 JUMPI PUSH0 PUSH1 0x4 SSTORE PUSH2 0xE34 JUMP JUMPDEST PUSH1 0x6 SLOAD PUSH1 0x8 SLOAD PUSH1 0x7 SLOAD PUSH2 0xE26 SWAP2 SWAP1 PUSH2 0x1589 JUMP JUMPDEST PUSH2 0xE30 SWAP2 SWAP1 PUSH2 0x1551 JUMP JUMPDEST PUSH1 0x4 SSTORE JUMPDEST PUSH2 0xE3D DUP6 PUSH2 0x12E7 JUMP JUMPDEST PUSH2 0xE45 PUSH2 0x1444 JUMP JUMPDEST PUSH1 0x40 DUP1 MLOAD DUP4 DUP2 MSTORE PUSH1 0x20 DUP2 ADD DUP4 SWAP1 MSTORE CALLER SWAP2 PUSH32 0xBB564DF1F5D4EBB97B073ADCAB505C7796A37035AC5D14F51269660939C39CF4 SWAP2 ADD PUSH1 0x40 MLOAD DUP1 SWAP2 SUB SWAP1 LOG2 POP POP POP POP POP JUMP JUMPDEST PUSH0 SLOAD PUSH1 0x1 PUSH1 0x1 PUSH1 0xA0 SHL SUB PUSH2 0x100 SWAP1 SWAP2 DIV AND CALLER EQ PUSH2 0x3B1 JUMPI PUSH1 0x40 MLOAD PUSH3 0x461BCD PUSH1 0xE5 SHL DUP2 MSTORE PUSH1 0x20 PUSH1 0x4 DUP3 ADD DUP2 SWAP1 MSTORE PUSH1 0x24 DUP3 ADD MSTORE PUSH32 0x4F776E61626C653A2063616C6C6572206973206E6F7420746865206F776E6572 PUSH1 0x44 DUP3 ADD MSTORE PUSH1 0x64 ADD PUSH2 0x2C7 JUMP JUMPDEST PUSH2 0xEEE PUSH2 0x1459 JUMP JUMPDEST PUSH0 DUP1 SLOAD PUSH1 0xFF NOT AND SWAP1 SSTORE PUSH32 0x5DB9EE0A495BF2E6FF9C91A7834C1BA4FDD244A5E8AA4E537BD38AEAE4B073AA CALLER JUMPDEST PUSH1 0x40 MLOAD PUSH1 0x1 PUSH1 0x1 PUSH1 0xA0 SHL SUB SWAP1 SWAP2 AND DUP2 MSTORE PUSH1 0x20 ADD PUSH1 0x40 MLOAD DUP1 SWAP2 SUB SWAP1 LOG1 JUMP JUMPDEST PUSH0 DUP1 SLOAD PUSH1 0x1 PUSH1 0x1 PUSH1 0xA0 SHL SUB DUP4 DUP2 AND PUSH2 0x100 DUP2 DUP2 MUL PUSH2 0x100 PUSH1 0x1 PUSH1 0xA8 SHL SUB NOT DUP6 AND OR DUP6 SSTORE PUSH1 0x40 MLOAD SWAP4 DIV SWAP2 SWAP1 SWAP2 AND SWAP3 SWAP1 SWAP2 DUP4 SWAP2 PUSH32 0x8BE0079C531659141344CD1FD0A4F28419497F9722A3DAAFE3B4186F6B6457E0 SWAP2 LOG3 POP POP JUMP JUMPDEST PUSH2 0xF97 PUSH2 0xAF9 JUMP JUMPDEST PUSH0 DUP1 SLOAD PUSH1 0xFF NOT AND PUSH1 0x1 OR SWAP1 SSTORE PUSH32 0x62E78CEA01BEE320CD4E420270B5EA74000D11B0C9F74754EBDBFC544B05A258 PUSH2 0xF1A CALLER SWAP1 JUMP JUMPDEST PUSH1 0x1 SLOAD PUSH1 0x40 MLOAD PUSH4 0x23B872DD PUSH1 0xE0 SHL DUP2 MSTORE CALLER PUSH1 0x4 DUP3 ADD MSTORE ADDRESS PUSH1 0x24 DUP3 ADD MSTORE PUSH1 0x44 DUP2 ADD DUP5 SWAP1 MSTORE PUSH1 0x1 PUSH1 0x1 PUSH1 0xA0 SHL SUB SWAP1 SWAP2 AND SWAP1 PUSH4 0x23B872DD SWAP1 PUSH1 0x64 ADD PUSH1 0x20 PUSH1 0x40 MLOAD DUP1 DUP4 SUB DUP2 PUSH0 DUP8 GAS CALL ISZERO DUP1 ISZERO PUSH2 0x101F JUMPI RETURNDATASIZE PUSH0 DUP1 RETURNDATACOPY RETURNDATASIZE PUSH0 REVERT JUMPDEST POP POP POP POP PUSH1 0x40 MLOAD RETURNDATASIZE PUSH1 0x1F NOT PUSH1 0x1F DUP3 ADD AND DUP3 ADD DUP1 PUSH1 0x40 MSTORE POP DUP2 ADD SWAP1 PUSH2 0x1043 SWAP2 SWAP1 PUSH2 0x15B3 JUMP JUMPDEST POP DUP2 PUSH1 0x6 PUSH0 DUP3 DUP3 SLOAD PUSH2 0x1055 SWAP2 SWAP1 PUSH2 0x15A0 JUMP JUMPDEST SWAP3 POP POP DUP2 SWAP1 SSTORE POP DUP1 PUSH1 0x7 PUSH0 DUP3 DUP3 SLOAD PUSH2 0x106D SWAP2 SWAP1 PUSH2 0x15A0 JUMP JUMPDEST SWAP1 SWAP2 SSTORE POP POP PUSH1 0x40 DUP1 MLOAD PUSH1 0x60 DUP2 ADD DUP3 MSTORE DUP4 DUP2 MSTORE PUSH1 0x20 DUP1 DUP3 ADD DUP5 DUP2 MSTORE TIMESTAMP DUP4 DUP6 ADD SWAP1 DUP2 MSTORE CALLER PUSH0 SWAP1 DUP2 MSTORE PUSH1 0x2 DUP1 DUP6 MSTORE SWAP6 DUP2 KECCAK256 DUP1 SLOAD PUSH1 0x1 DUP2 DUP2 ADD DUP4 SSTORE SWAP2 DUP4 MSTORE SWAP5 SWAP1 SWAP2 KECCAK256 DUP6 MLOAD PUSH1 0x3 SWAP1 SWAP6 MUL ADD SWAP4 DUP5 SSTORE SWAP2 MLOAD SWAP2 DUP4 ADD SWAP2 SWAP1 SWAP2 SSTORE MLOAD SWAP3 ADD SWAP2 SWAP1 SWAP2 SSTORE PUSH1 0x6 SLOAD PUSH1 0x8 SLOAD PUSH1 0x7 SLOAD PUSH2 0x10D9 SWAP2 SWAP1 PUSH2 0x1589 JUMP JUMPDEST PUSH2 0x10E3 SWAP2 SWAP1 PUSH2 0x1551 JUMP JUMPDEST PUSH1 0x4 SSTORE PUSH2 0x10EE PUSH2 0x1444 JUMP JUMPDEST PUSH1 0x40 DUP1 MLOAD DUP5 DUP2 MSTORE CALLVALUE PUSH1 0x20 DUP3 ADD MSTORE CALLER SWAP2 PUSH32 0x5CAAD8F5613B6F1D592FC8C69D8F0999453740F0806C754F20CC92F3D4B2B1B6 SWAP2 ADD PUSH1 0x40 MLOAD DUP1 SWAP2 SUB SWAP1 LOG2 POP POP POP JUMP JUMPDEST PUSH0 DUP1 DUP1 PUSH1 0x3 DUP2 PUSH2 0x1140 PUSH3 0x15180 TIMESTAMP PUSH2 0x1551 JUMP JUMPDEST DUP2 MSTORE PUSH1 0x20 ADD SWAP1 DUP2 MSTORE PUSH1 0x20 ADD PUSH0 KECCAK256 SLOAD GT ISZERO PUSH2 0x12E2 JUMPI CALLER PUSH0 SWAP1 DUP2 MSTORE PUSH1 0x2 PUSH1 0x20 MSTORE PUSH1 0x40 DUP2 KECCAK256 DUP1 SLOAD SWAP1 SWAP2 DUP1 JUMPDEST DUP3 DUP2 GT PUSH2 0x11E8 JUMPI PUSH0 DUP5 DUP3 DUP2 SLOAD DUP2 LT PUSH2 0x1182 JUMPI PUSH2 0x1182 PUSH2 0x15E9 JUMP JUMPDEST SWAP1 PUSH0 MSTORE PUSH1 0x20 PUSH0 KECCAK256 SWAP1 PUSH1 0x3 MUL ADD PUSH1 0x40 MLOAD DUP1 PUSH1 0x60 ADD PUSH1 0x40 MSTORE SWAP1 DUP2 PUSH0 DUP3 ADD SLOAD DUP2 MSTORE PUSH1 0x20 ADD PUSH1 0x1 DUP3 ADD SLOAD DUP2 MSTORE PUSH1 0x20 ADD PUSH1 0x2 DUP3 ADD SLOAD DUP2 MSTORE POP POP SWAP1 POP DUP1 PUSH1 0x40 ADD MLOAD TIMESTAMP PUSH2 0x11C8 SWAP2 SWAP1 PUSH2 0x1570 JUMP JUMPDEST PUSH2 0x11D2 SWAP1 DUP5 PUSH2 0x15A0 JUMP JUMPDEST SWAP3 POP POP DUP1 DUP1 PUSH2 0x11E0 SWAP1 PUSH2 0x15FD JUMP JUMPDEST SWAP2 POP POP PUSH2 0x1168 JUMP JUMPDEST POP PUSH0 JUMPDEST DUP3 DUP2 GT PUSH2 0x12DD JUMPI PUSH0 DUP5 DUP3 DUP2 SLOAD DUP2 LT PUSH2 0x1205 JUMPI PUSH2 0x1205 PUSH2 0x15E9 JUMP JUMPDEST PUSH0 SWAP2 DUP3 MSTORE PUSH1 0x20 DUP1 DUP4 KECCAK256 PUSH1 0x40 DUP1 MLOAD PUSH1 0x60 DUP2 ADD DUP3 MSTORE PUSH1 0x3 SWAP1 SWAP5 MUL SWAP1 SWAP2 ADD DUP1 SLOAD DUP1 DUP6 MSTORE PUSH1 0x1 DUP3 ADD SLOAD SWAP4 DUP6 ADD SWAP4 SWAP1 SWAP4 MSTORE PUSH1 0x2 ADD SLOAD SWAP1 DUP4 ADD MSTORE PUSH1 0x6 SLOAD PUSH1 0x8 SLOAD SWAP3 SWAP5 POP SWAP2 PUSH2 0x124C SWAP2 PUSH2 0x1589 JUMP JUMPDEST PUSH2 0x1256 SWAP2 SWAP1 PUSH2 0x1551 JUMP JUMPDEST SWAP1 POP PUSH0 DUP3 PUSH1 0x40 ADD MLOAD TIMESTAMP PUSH2 0x1269 SWAP2 SWAP1 PUSH2 0x1570 JUMP JUMPDEST SWAP1 POP PUSH0 PUSH2 0x1276 DUP7 DUP4 PUSH2 0x1551 JUMP JUMPDEST PUSH1 0x5 SLOAD SWAP1 SWAP2 POP DUP2 PUSH1 0x3 PUSH0 PUSH2 0x128D PUSH3 0x15180 TIMESTAMP PUSH2 0x1551 JUMP JUMPDEST DUP2 MSTORE PUSH1 0x20 ADD SWAP1 DUP2 MSTORE PUSH1 0x20 ADD PUSH0 KECCAK256 SLOAD DUP6 PUSH2 0x12A6 SWAP2 SWAP1 PUSH2 0x1589 JUMP JUMPDEST PUSH2 0x12B0 SWAP2 SWAP1 PUSH2 0x1589 JUMP JUMPDEST PUSH2 0x12BA SWAP2 SWAP1 PUSH2 0x1551 JUMP JUMPDEST PUSH2 0x12C4 SWAP1 DUP11 PUSH2 0x15A0 JUMP JUMPDEST SWAP9 POP POP POP POP POP DUP1 DUP1 PUSH2 0x12D5 SWAP1 PUSH2 0x15FD JUMP JUMPDEST SWAP2 POP POP PUSH2 0x11EB JUMP JUMPDEST POP POP POP POP JUMPDEST SWAP2 SWAP1 POP JUMP JUMPDEST CALLER PUSH0 SWAP1 DUP2 MSTORE PUSH1 0x2 PUSH1 0x20 MSTORE PUSH1 0x40 SWAP1 KECCAK256 SLOAD DUP2 LT PUSH2 0x133A JUMPI PUSH1 0x40 MLOAD PUSH3 0x461BCD PUSH1 0xE5 SHL DUP2 MSTORE PUSH1 0x20 PUSH1 0x4 DUP3 ADD MSTORE PUSH1 0x13 PUSH1 0x24 DUP3 ADD MSTORE PUSH19 0x496E646578206F7574206F6620626F756E6473 PUSH1 0x68 SHL PUSH1 0x44 DUP3 ADD MSTORE PUSH1 0x64 ADD PUSH2 0x2C7 JUMP JUMPDEST DUP1 JUMPDEST CALLER PUSH0 SWAP1 DUP2 MSTORE PUSH1 0x2 PUSH1 0x20 MSTORE PUSH1 0x40 SWAP1 KECCAK256 SLOAD PUSH2 0x1357 SWAP1 PUSH1 0x1 SWAP1 PUSH2 0x1570 JUMP JUMPDEST DUP2 LT ISZERO PUSH2 0x1400 JUMPI CALLER PUSH0 SWAP1 DUP2 MSTORE PUSH1 0x2 PUSH1 0x20 MSTORE PUSH1 0x40 SWAP1 KECCAK256 PUSH2 0x1377 DUP3 PUSH1 0x1 PUSH2 0x15A0 JUMP JUMPDEST DUP2 SLOAD DUP2 LT PUSH2 0x1387 JUMPI PUSH2 0x1387 PUSH2 0x15E9 JUMP JUMPDEST SWAP1 PUSH0 MSTORE PUSH1 0x20 PUSH0 KECCAK256 SWAP1 PUSH1 0x3 MUL ADD PUSH1 0x2 PUSH0 CALLER PUSH1 0x1 PUSH1 0x1 PUSH1 0xA0 SHL SUB AND PUSH1 0x1 PUSH1 0x1 PUSH1 0xA0 SHL SUB AND DUP2 MSTORE PUSH1 0x20 ADD SWAP1 DUP2 MSTORE PUSH1 0x20 ADD PUSH0 KECCAK256 DUP3 DUP2 SLOAD DUP2 LT PUSH2 0x13C7 JUMPI PUSH2 0x13C7 PUSH2 0x15E9 JUMP JUMPDEST PUSH0 SWAP2 DUP3 MSTORE PUSH1 0x20 SWAP1 SWAP2 KECCAK256 DUP3 SLOAD PUSH1 0x3 SWAP1 SWAP3 MUL ADD SWAP1 DUP2 SSTORE PUSH1 0x1 DUP1 DUP4 ADD SLOAD SWAP1 DUP3 ADD SSTORE PUSH1 0x2 SWAP2 DUP3 ADD SLOAD SWAP2 ADD SSTORE DUP1 PUSH2 0x13F8 DUP2 PUSH2 0x15FD JUMP JUMPDEST SWAP2 POP POP PUSH2 0x133C JUMP JUMPDEST POP CALLER PUSH0 SWAP1 DUP2 MSTORE PUSH1 0x2 PUSH1 0x20 MSTORE PUSH1 0x40 SWAP1 KECCAK256 DUP1 SLOAD DUP1 PUSH2 0x141E JUMPI PUSH2 0x141E PUSH2 0x1615 JUMP JUMPDEST PUSH0 DUP3 DUP2 MSTORE PUSH1 0x20 DUP2 KECCAK256 PUSH1 0x3 PUSH0 NOT SWAP1 SWAP4 ADD SWAP3 DUP4 MUL ADD DUP2 DUP2 SSTORE PUSH1 0x1 DUP2 ADD DUP3 SWAP1 SSTORE PUSH1 0x2 ADD SSTORE SWAP1 SSTORE POP JUMP JUMPDEST PUSH1 0x7 SLOAD PUSH1 0x6 SLOAD PUSH2 0x1454 SWAP2 SWAP1 PUSH2 0x1589 JUMP JUMPDEST PUSH1 0x5 SSTORE JUMP JUMPDEST PUSH0 SLOAD PUSH1 0xFF AND PUSH2 0x3B1 JUMPI PUSH1 0x40 MLOAD PUSH3 0x461BCD PUSH1 0xE5 SHL DUP2 MSTORE PUSH1 0x20 PUSH1 0x4 DUP3 ADD MSTORE PUSH1 0x14 PUSH1 0x24 DUP3 ADD MSTORE PUSH20 0x14185D5CD8589B194E881B9BDD081C185D5CD959 PUSH1 0x62 SHL PUSH1 0x44 DUP3 ADD MSTORE PUSH1 0x64 ADD PUSH2 0x2C7 JUMP JUMPDEST PUSH0 PUSH1 0x20 DUP3 DUP5 SUB SLT ISZERO PUSH2 0x14B1 JUMPI PUSH0 DUP1 REVERT JUMPDEST POP CALLDATALOAD SWAP2 SWAP1 POP JUMP JUMPDEST PUSH1 0x20 DUP1 DUP3 MSTORE DUP3 MLOAD DUP3 DUP3 ADD DUP2 SWAP1 MSTORE PUSH0 SWAP2 SWAP1 PUSH1 0x40 SWAP1 DUP2 DUP6 ADD SWAP1 DUP7 DUP5 ADD DUP6 JUMPDEST DUP3 DUP2 LT ISZERO PUSH2 0x1503 JUMPI DUP2 MLOAD DUP1 MLOAD DUP6 MSTORE DUP7 DUP2 ADD MLOAD DUP8 DUP7 ADD MSTORE DUP6 ADD MLOAD DUP6 DUP6 ADD MSTORE PUSH1 0x60 SWAP1 SWAP4 ADD SWAP3 SWAP1 DUP6 ADD SWAP1 PUSH1 0x1 ADD PUSH2 0x14D4 JUMP JUMPDEST POP SWAP2 SWAP8 SWAP7 POP POP POP POP POP POP POP JUMP JUMPDEST PUSH0 PUSH1 0x20 DUP3 DUP5 SUB SLT ISZERO PUSH2 0x1520 JUMPI PUSH0 DUP1 REVERT JUMPDEST DUP2 CALLDATALOAD PUSH1 0x1 PUSH1 0x1 PUSH1 0xA0 SHL SUB DUP2 AND DUP2 EQ PUSH2 0x1536 JUMPI PUSH0 DUP1 REVERT JUMPDEST SWAP4 SWAP3 POP POP POP JUMP JUMPDEST PUSH4 0x4E487B71 PUSH1 0xE0 SHL PUSH0 MSTORE PUSH1 0x11 PUSH1 0x4 MSTORE PUSH1 0x24 PUSH0 REVERT JUMPDEST PUSH0 DUP3 PUSH2 0x156B JUMPI PUSH4 0x4E487B71 PUSH1 0xE0 SHL PUSH0 MSTORE PUSH1 0x12 PUSH1 0x4 MSTORE PUSH1 0x24 PUSH0 REVERT JUMPDEST POP DIV SWAP1 JUMP JUMPDEST DUP2 DUP2 SUB DUP2 DUP2 GT ISZERO PUSH2 0x1583 JUMPI PUSH2 0x1583 PUSH2 0x153D JUMP JUMPDEST SWAP3 SWAP2 POP POP JUMP JUMPDEST DUP1 DUP3 MUL DUP2 ISZERO DUP3 DUP3 DIV DUP5 EQ OR PUSH2 0x1583 JUMPI PUSH2 0x1583 PUSH2 0x153D JUMP JUMPDEST DUP1 DUP3 ADD DUP1 DUP3 GT ISZERO PUSH2 0x1583 JUMPI PUSH2 0x1583 PUSH2 0x153D JUMP JUMPDEST PUSH0 PUSH1 0x20 DUP3 DUP5 SUB SLT ISZERO PUSH2 0x15C3 JUMPI PUSH0 DUP1 REVERT JUMPDEST DUP2 MLOAD DUP1 ISZERO ISZERO DUP2 EQ PUSH2 0x1536 JUMPI PUSH0 DUP1 REVERT JUMPDEST PUSH0 PUSH1 0x20 DUP3 DUP5 SUB SLT ISZERO PUSH2 0x15E2 JUMPI PUSH0 DUP1 REVERT JUMPDEST POP MLOAD SWAP2 SWAP1 POP JUMP JUMPDEST PUSH4 0x4E487B71 PUSH1 0xE0 SHL PUSH0 MSTORE PUSH1 0x32 PUSH1 0x4 MSTORE PUSH1 0x24 PUSH0 REVERT JUMPDEST PUSH0 PUSH1 0x1 DUP3 ADD PUSH2 0x160E JUMPI PUSH2 0x160E PUSH2 0x153D JUMP JUMPDEST POP PUSH1 0x1 ADD SWAP1 JUMP JUMPDEST PUSH4 0x4E487B71 PUSH1 0xE0 SHL PUSH0 MSTORE PUSH1 0x31 PUSH1 0x4 MSTORE PUSH1 0x24 PUSH0 REVERT INVALID LOG2 PUSH5 0x6970667358 0x22 SLT KECCAK256 0xC7 KECCAK256 ORIGIN 0xE6 0xEC 0xBF PUSH13 0x4AC3929D7553730789B0FF574D RETURNDATACOPY 0xC0 0xCD 0xE ORIGIN PUSH3 0xF9AB8A 0xAC PUSH15 0x7664736F6C63430008140033000000 "
		},
		"gasEstimates": {
			"creation": {
				"codeDepositCost": "1145400",
				"executionCost": "infinite",
				"totalCost": "infinite"
			},
			"external": {
				"buy(uint256)": "infinite",
				"getETHPrice(uint256)": "infinite",
				"getMemePrice(uint256)": "infinite",
				"getStacks()": "infinite",
				"owner()": "2351",
				"pause()": "infinite",
				"paused()": "2335",
				"renounceOwnership()": "infinite",
				"sell(uint256)": "infinite",
				"stack(uint256)": "infinite",
				"stackingRate()": "2328",
				"transferOwnership(address)": "28418",
				"unpause()": "infinite",
				"unstack(uint256)": "infinite"
			},
			"internal": {
				"_distributeTax()": "infinite",
				"_removeArr(uint256)": "infinite",
				"_stack(uint256,uint256)": "infinite",
				"_unstack(uint256)": "infinite",
				"_updateK()": "26409"
			}
		},
		"methodIdentifiers": {
			"buy(uint256)": "d96a094a",
			"getETHPrice(uint256)": "1a753fed",
			"getMemePrice(uint256)": "5c572ed0",
			"getStacks()": "e8bca8b8",
			"owner()": "8da5cb5b",
			"pause()": "8456cb59",
			"paused()": "5c975abb",
			"renounceOwnership()": "715018a6",
			"sell(uint256)": "e4849b32",
			"stack(uint256)": "dc9031c4",
			"stackingRate()": "9c74f05d",
			"transferOwnership(address)": "f2fde38b",
			"unpause()": "3f4ba83a",
			"unstack(uint256)": "200061df"
		}
	},
	"abi": [
		{
			"inputs": [
				{
					"internalType": "address",
					"name": "addr",
					"type": "address"
				}
			],
			"stateMutability": "nonpayable",
			"type": "constructor"
		},
		{
			"anonymous": false,
			"inputs": [
				{
					"indexed": true,
					"internalType": "address",
					"name": "from",
					"type": "address"
				},
				{
					"indexed": false,
					"internalType": "uint256",
					"name": "Meme_amount",
					"type": "uint256"
				},
				{
					"indexed": false,
					"internalType": "uint256",
					"name": "eth_amount",
					"type": "uint256"
				}
			],
			"name": "Buy",
			"type": "event"
		},
		{
			"anonymous": false,
			"inputs": [
				{
					"indexed": true,
					"internalType": "address",
					"name": "previousOwner",
					"type": "address"
				},
				{
					"indexed": true,
					"internalType": "address",
					"name": "newOwner",
					"type": "address"
				}
			],
			"name": "OwnershipTransferred",
			"type": "event"
		},
		{
			"anonymous": false,
			"inputs": [
				{
					"indexed": false,
					"internalType": "address",
					"name": "account",
					"type": "address"
				}
			],
			"name": "Paused",
			"type": "event"
		},
		{
			"anonymous": false,
			"inputs": [
				{
					"indexed": true,
					"internalType": "address",
					"name": "from",
					"type": "address"
				},
				{
					"indexed": false,
					"internalType": "uint256",
					"name": "Meme_amount",
					"type": "uint256"
				},
				{
					"indexed": false,
					"internalType": "uint256",
					"name": "eth_amount",
					"type": "uint256"
				}
			],
			"name": "Sell",
			"type": "event"
		},
		{
			"anonymous": false,
			"inputs": [
				{
					"indexed": true,
					"internalType": "address",
					"name": "from",
					"type": "address"
				},
				{
					"indexed": false,
					"internalType": "uint256",
					"name": "Meme_amount",
					"type": "uint256"
				},
				{
					"indexed": false,
					"internalType": "uint256",
					"name": "eth_amount",
					"type": "uint256"
				}
			],
			"name": "Stack",
			"type": "event"
		},
		{
			"anonymous": false,
			"inputs": [
				{
					"indexed": true,
					"internalType": "address",
					"name": "from",
					"type": "address"
				},
				{
					"indexed": false,
					"internalType": "uint256",
					"name": "Meme_amount",
					"type": "uint256"
				},
				{
					"indexed": false,
					"internalType": "uint256",
					"name": "eth_amount",
					"type": "uint256"
				}
			],
			"name": "UnStack",
			"type": "event"
		},
		{
			"anonymous": false,
			"inputs": [
				{
					"indexed": false,
					"internalType": "address",
					"name": "account",
					"type": "address"
				}
			],
			"name": "Unpaused",
			"type": "event"
		},
		{
			"inputs": [
				{
					"internalType": "uint256",
					"name": "meme_amount",
					"type": "uint256"
				}
			],
			"name": "buy",
			"outputs": [],
			"stateMutability": "payable",
			"type": "function"
		},
		{
			"inputs": [
				{
					"internalType": "uint256",
					"name": "eth_amount",
					"type": "uint256"
				}
			],
			"name": "getETHPrice",
			"outputs": [
				{
					"internalType": "uint256",
					"name": "",
					"type": "uint256"
				}
			],
			"stateMutability": "view",
			"type": "function"
		},
		{
			"inputs": [
				{
					"internalType": "uint256",
					"name": "meme_amount",
					"type": "uint256"
				}
			],
			"name": "getMemePrice",
			"outputs": [
				{
					"internalType": "uint256",
					"name": "",
					"type": "uint256"
				}
			],
			"stateMutability": "view",
			"type": "function"
		},
		{
			"inputs": [],
			"name": "getStacks",
			"outputs": [
				{
					"components": [
						{
							"internalType": "uint256",
							"name": "meme_amount",
							"type": "uint256"
						},
						{
							"internalType": "uint256",
							"name": "eth_amount",
							"type": "uint256"
						},
						{
							"internalType": "uint256",
							"name": "time",
							"type": "uint256"
						}
					],
					"internalType": "struct DEX.Stack_Struct[]",
					"name": "",
					"type": "tuple[]"
				}
			],
			"stateMutability": "view",
			"type": "function"
		},
		{
			"inputs": [],
			"name": "owner",
			"outputs": [
				{
					"internalType": "address",
					"name": "",
					"type": "address"
				}
			],
			"stateMutability": "view",
			"type": "function"
		},
		{
			"inputs": [],
			"name": "pause",
			"outputs": [],
			"stateMutability": "nonpayable",
			"type": "function"
		},
		{
			"inputs": [],
			"name": "paused",
			"outputs": [
				{
					"internalType": "bool",
					"name": "",
					"type": "bool"
				}
			],
			"stateMutability": "view",
			"type": "function"
		},
		{
			"inputs": [],
			"name": "renounceOwnership",
			"outputs": [],
			"stateMutability": "nonpayable",
			"type": "function"
		},
		{
			"inputs": [
				{
					"internalType": "uint256",
					"name": "eth_amount",
					"type": "uint256"
				}
			],
			"name": "sell",
			"outputs": [],
			"stateMutability": "nonpayable",
			"type": "function"
		},
		{
			"inputs": [
				{
					"internalType": "uint256",
					"name": "meme_amount",
					"type": "uint256"
				}
			],
			"name": "stack",
			"outputs": [],
			"stateMutability": "payable",
			"type": "function"
		},
		{
			"inputs": [],
			"name": "stackingRate",
			"outputs": [
				{
					"internalType": "uint256",
					"name": "",
					"type": "uint256"
				}
			],
			"stateMutability": "view",
			"type": "function"
		},
		{
			"inputs": [
				{
					"internalType": "address",
					"name": "newOwner",
					"type": "address"
				}
			],
			"name": "transferOwnership",
			"outputs": [],
			"stateMutability": "nonpayable",
			"type": "function"
		},
		{
			"inputs": [],
			"name": "unpause",
			"outputs": [],
			"stateMutability": "nonpayable",
			"type": "function"
		},
		{
			"inputs": [
				{
					"internalType": "uint256",
					"name": "index",
					"type": "uint256"
				}
			],
			"name": "unstack",
			"outputs": [],
			"stateMutability": "nonpayable",
			"type": "function"
		}
	]
}