{
	"data": {
		"bytecode": {
			"linkReferences": {},
			"object": "6080604052678ac7230489e80000600855600a6008546003620000239190620000f6565b6200002f919062000122565b6009553480156200003f57600080fd5b506040516200189338038062001893833981016040819052620000629162000145565b6000805460ff1916905562000077336200009d565b600180546001600160a01b0319166001600160a01b039290921691909117905562000177565b600080546001600160a01b03838116610100818102610100600160a81b0319851617855560405193049190911692909183917f8be0079c531659141344cd1fd0a4f28419497f9722a3daafe3b4186f6b6457e091a35050565b80820281158282048414176200011c57634e487b7160e01b600052601160045260246000fd5b92915050565b6000826200014057634e487b7160e01b600052601260045260246000fd5b500490565b6000602082840312156200015857600080fd5b81516001600160a01b03811681146200017057600080fd5b9392505050565b61170c80620001876000396000f3fe60806040526004361061011f5760003560e01c8063771a3a1d116100a0578063d96a094a11610064578063d96a094a146102e2578063dc9031c4146102f5578063e4849b3214610308578063e8bca8b814610328578063f2fde38b1461034a57600080fd5b8063771a3a1d146102555780638456cb591461026b5780638da5cb5b146102805780639c74f05d146102b6578063d3b5dc3b146102cc57600080fd5b80632ad9d559116100e75780632ad9d559146101bb5780633f4ba83a146101e85780635c572ed0146101fd5780635c975abb1461021d578063715018a61461024057600080fd5b80631a753fed146101245780631b82c27f14610157578063200061df1461016d57806328726bda1461018f57806329809703146101a5575b600080fd5b34801561013057600080fd5b5061014461013f366004611539565b61036a565b6040519081526020015b60405180910390f35b34801561016357600080fd5b5061014460055481565b34801561017957600080fd5b5061018d610188366004611539565b61047c565b005b34801561019b57600080fd5b5061014460075481565b3480156101b157600080fd5b5061014460065481565b3480156101c757600080fd5b506101446101d6366004611539565b60036020526000908152604090205481565b3480156101f457600080fd5b5061018d610488565b34801561020957600080fd5b50610144610218366004611539565b61049a565b34801561022957600080fd5b5060005460ff16604051901515815260200161014e565b34801561024c57600080fd5b5061018d61059c565b34801561026157600080fd5b5061014460095481565b34801561027757600080fd5b5061018d6105ae565b34801561028c57600080fd5b5060005461010090046001600160a01b03166040516001600160a01b03909116815260200161014e565b3480156102c257600080fd5b5061014460045481565b3480156102d857600080fd5b5061014460085481565b61018d6102f0366004611539565b6105be565b61018d610303366004611539565b6107bc565b34801561031457600080fd5b5061018d610323366004611539565b6108a9565b34801561033457600080fd5b5061033d610a5a565b60405161014e9190611552565b34801561035657600080fd5b5061018d6103653660046115ab565b610ae2565b600080600554116103b95760405162461bcd60e51b81526020600482015260146024820152734e6f7420656e6f756768206c697175696469747960601b60448201526064015b60405180910390fd5b6000806006546000036103e7578360016005546103d691906115f1565b6103e09190611613565b9050610405565b836006546005546103f891906115f1565b6104029190611613565b90505b8060000361042357600160055461041c91906115f1565b9150610434565b8060055461043191906115f1565b91505b6000600654836104449190611613565b9050600060085460095483610459919061162c565b61046391906115f1565b905060006104718284611613565b979650505050505050565b61048581610b58565b50565b610490610eb3565b610498610f13565b565b600080600554116104e45760405162461bcd60e51b81526020600482015260146024820152734e6f7420656e6f756768206c697175696469747960601b60448201526064016103b0565b6000806007546000036105125783600160055461050191906115f1565b61050b9190611613565b9150610530565b8360075460055461052391906115f1565b61052d9190611613565b91505b8160000361054e57600160055461054791906115f1565b905061055f565b8160055461055c91906115f1565b90505b60006007548261056f9190611613565b9050600060085460095483610584919061162c565b61058e91906115f1565b905060006104718284611643565b6105a4610eb3565b6104986000610f65565b6105b6610eb3565b610498610fbe565b600081116105ff5760405162461bcd60e51b815260206004820152600e60248201526d53656e6420536f6d65204d656d6560901b60448201526064016103b0565b600061060a8261049a565b90503481111561064c5760405162461bcd60e51b815260206004820152600d60248201526c0a6cadcc8409adee4ca408aa89609b1b60448201526064016103b0565b60015460405163a9059cbb60e01b8152336004820152602481018490526001600160a01b039091169063a9059cbb906044016020604051808303816000875af115801561069d573d6000803e3d6000fd5b505050506040513d601f19601f820116820180604052508101906106c19190611656565b50336108fc6106d08334611613565b6040518115909202916000818181858888f193505050501580156106f8573d6000803e3d6000fd5b506008546009546107099082611643565b610713908461162c565b61071d91906115f1565b6003600061072e62015180426115f1565b8152602001908152602001600020600082825461074b9190611643565b9250508190555081600660008282546107649190611613565b909155505060065460055461077991906115f1565b600755604080518381526020810183905233917f1cbc5ab135991bd2b6a4b034a04aa2aa086dac1371cb9b16b8b5e2ed6b036bed91015b60405180910390a25050565b600081116107fd5760405162461bcd60e51b815260206004820152600e60248201526d53656e64206d6f7265204d454d4560901b60448201526064016103b0565b6000341161083d5760405162461bcd60e51b815260206004820152600d60248201526c0a6cadcc840dadee4ca408aa89609b1b60448201526064016103b0565b806008543461084c919061162c565b61085691906115f1565b600454111561089f5760405162461bcd60e51b815260206004820152601560248201527414dd1858dada5b99c814985d19481b9bdd081b595d605a1b60448201526064016103b0565b6104858134610ffb565b600081116108e95760405162461bcd60e51b815260206004820152600d60248201526c0a6cadcc840a6dedaca408aa89609b1b60448201526064016103b0565b60006108f48261036a565b6001546040516323b872dd60e01b8152336004820152306024820152604481018390529192506001600160a01b0316906323b872dd906064016020604051808303816000875af115801561094c573d6000803e3d6000fd5b505050506040513d601f19601f820116820180604052508101906109709190611656565b50604051339083156108fc029084906000818181858888f1935050505015801561099e573d6000803e3d6000fd5b506008546009546109af9082611643565b6109b9908361162c565b6109c391906115f1565b600360006109d462015180426115f1565b815260200190815260200160002060008282546109f19190611643565b925050819055508060066000828254610a0a9190611643565b9091555050600654600554610a1f91906115f1565b600755604080518281526020810184905233917fed7a144fad14804d5c249145e3e0e2b63a9eb455b76aee5bc92d711e9bba3e4a91016107b0565b336000908152600260209081526040808320805482518185028101850190935280835260609492939192909184015b82821015610ad95783829060005260206000209060030201604051806060016040529081600082015481526020016001820154815260200160028201548152505081526020019060010190610a89565b50505050905090565b610aea610eb3565b6001600160a01b038116610b4f5760405162461bcd60e51b815260206004820152602660248201527f4f776e61626c653a206e6577206f776e657220697320746865207a65726f206160448201526564647265737360d01b60648201526084016103b0565b61048581610f65565b336000908152600260205260408120805483908110610b7957610b79611678565b9060005260206000209060030201604051806060016040529081600082015481526020016001820154815260200160028201548152505090506000610bbc611163565b8251602084015191925090600090610bd5908490611643565b6001546040516370a0823160e01b815230600482015291925083916001600160a01b03909116906370a0823190602401602060405180830381865afa158015610c22573d6000803e3d6000fd5b505050506040513d601f19601f82011682018060405250810190610c46919061168e565b1015610cce5760405162461bcd60e51b815260206004820152604b60248201527f536f7272792043757272656e746c79207468697320636f6e747261637420646f60448201527f65736e27742068617665204d656d6520746f2072657475726e2c20436865636b60648201526a206261636b20536f6f6e2160a81b608482015260a4016103b0565b80471015610d575760405162461bcd60e51b815260206004820152604a60248201527f536f7272792043757272656e746c79207468697320636f6e747261637420646f60448201527f65736e277420686176652045746820746f2072657475726e2c20436865636b206064820152696261636b20536f6f6e2160b01b608482015260a4016103b0565b8160066000828254610d699190611613565b925050819055508060076000828254610d829190611613565b909155505060015460405163a9059cbb60e01b8152336004820152602481018490526001600160a01b039091169063a9059cbb906044016020604051808303816000875af1158015610dd8573d6000803e3d6000fd5b505050506040513d601f19601f82011682018060405250810190610dfc9190611656565b50604051339082156108fc029083906000818181858888f19350505050158015610e2a573d6000803e3d6000fd5b50600654600003610e3f576000600455610e60565b600654600854600754610e52919061162c565b610e5c91906115f1565b6004555b610e698561132d565b610e71611495565b604080518381526020810183905233917fbb564df1f5d4ebb97b073adcab505c7796a37035ac5d14f51269660939c39cf4910160405180910390a25050505050565b6000546001600160a01b036101009091041633146104985760405162461bcd60e51b815260206004820181905260248201527f4f776e61626c653a2063616c6c6572206973206e6f7420746865206f776e657260448201526064016103b0565b610f1b6114aa565b6000805460ff191690557f5db9ee0a495bf2e6ff9c91a7834c1ba4fdd244a5e8aa4e537bd38aeae4b073aa335b6040516001600160a01b03909116815260200160405180910390a1565b600080546001600160a01b03838116610100818102610100600160a81b0319851617855560405193049190911692909183917f8be0079c531659141344cd1fd0a4f28419497f9722a3daafe3b4186f6b6457e091a35050565b610fc66114f3565b6000805460ff191660011790557f62e78cea01bee320cd4e420270b5ea74000d11b0c9f74754ebdbfc544b05a258610f483390565b6001546040516323b872dd60e01b8152336004820152306024820152604481018490526001600160a01b03909116906323b872dd906064016020604051808303816000875af1158015611052573d6000803e3d6000fd5b505050506040513d601f19601f820116820180604052508101906110769190611656565b5081600660008282546110899190611643565b9250508190555080600760008282546110a29190611643565b90915550506040805160608101825283815260208082018481524283850190815233600090815260028085529581208054600181810183559183529490912085516003909502019384559151918301919091555192019190915560065460085460075461110f919061162c565b61111991906115f1565b600455611124611495565b6040805184815234602082015233917f5caad8f5613b6f1d592fc8c69d8f0999453740f0806c754f20cc92f3d4b2b1b6910160405180910390a2505050565b6000808060038161117762015180426115f1565b81526020019081526020016000205411156113285733600090815260026020526040812080549091805b828110156112265760008482815481106111bd576111bd611678565b9060005260206000209060030201604051806060016040529081600082015481526020016001820154815260200160028201548152505090508060400151426112069190611613565b6112109084611643565b925050808061121e906116a7565b9150506111a1565b5060005b8281101561132357600084828154811061124657611246611678565b60009182526020808320604080516060810182526003909402909101805480855260018201549385019390935260020154908301526006546008549294509161128e9161162c565b61129891906115f1565b905060008260400151426112ac9190611613565b905060006112ba86836115f1565b60055490915081600360006112d262015180426115f1565b815260200190815260200160002054856112ec919061162c565b6112f6919061162c565b61130091906115f1565b61130a908a611643565b985050505050808061131b906116a7565b91505061122a565b505050505b919050565b3360009081526002602052604090205481106113815760405162461bcd60e51b8152602060048201526013602482015272496e646578206f7574206f6620626f756e647360681b60448201526064016103b0565b805b3360009081526002602052604090205461139f90600190611613565b81101561144e573360009081526002602052604090206113c0826001611643565b815481106113d0576113d0611678565b906000526020600020906003020160026000336001600160a01b03166001600160a01b03168152602001908152602001600020828154811061141457611414611678565b6000918252602090912082546003909202019081556001808301549082015560029182015491015580611446816116a7565b915050611383565b5033600090815260026020526040902080548061146d5761146d6116c0565b6000828152602081206003600019909301928302018181556001810182905560020155905550565b6007546006546114a5919061162c565b600555565b60005460ff166104985760405162461bcd60e51b815260206004820152601460248201527314185d5cd8589b194e881b9bdd081c185d5cd95960621b60448201526064016103b0565b60005460ff16156104985760405162461bcd60e51b815260206004820152601060248201526f14185d5cd8589b194e881c185d5cd95960821b60448201526064016103b0565b60006020828403121561154b57600080fd5b5035919050565b602080825282518282018190526000919060409081850190868401855b8281101561159e578151805185528681015187860152850151858501526060909301929085019060010161156f565b5091979650505050505050565b6000602082840312156115bd57600080fd5b81356001600160a01b03811681146115d457600080fd5b9392505050565b634e487b7160e01b600052601160045260246000fd5b60008261160e57634e487b7160e01b600052601260045260246000fd5b500490565b81810381811115611626576116266115db565b92915050565b8082028115828204841417611626576116266115db565b80820180821115611626576116266115db565b60006020828403121561166857600080fd5b815180151581146115d457600080fd5b634e487b7160e01b600052603260045260246000fd5b6000602082840312156116a057600080fd5b5051919050565b6000600182016116b9576116b96115db565b5060010190565b634e487b7160e01b600052603160045260246000fdfea264697066735822122048bf4df53a1e7d74362ee400443d621f5e7e8d9a41afb5128b90f593115c79e664736f6c63430008130033",
			"opcodes": "PUSH1 0x80 PUSH1 0x40 MSTORE PUSH8 0x8AC7230489E80000 PUSH1 0x8 SSTORE PUSH1 0xA PUSH1 0x8 SLOAD PUSH1 0x3 PUSH3 0x23 SWAP2 SWAP1 PUSH3 0xF6 JUMP JUMPDEST PUSH3 0x2F SWAP2 SWAP1 PUSH3 0x122 JUMP JUMPDEST PUSH1 0x9 SSTORE CALLVALUE DUP1 ISZERO PUSH3 0x3F JUMPI PUSH1 0x0 DUP1 REVERT JUMPDEST POP PUSH1 0x40 MLOAD PUSH3 0x1893 CODESIZE SUB DUP1 PUSH3 0x1893 DUP4 CODECOPY DUP2 ADD PUSH1 0x40 DUP2 SWAP1 MSTORE PUSH3 0x62 SWAP2 PUSH3 0x145 JUMP JUMPDEST PUSH1 0x0 DUP1 SLOAD PUSH1 0xFF NOT AND SWAP1 SSTORE PUSH3 0x77 CALLER PUSH3 0x9D JUMP JUMPDEST PUSH1 0x1 DUP1 SLOAD PUSH1 0x1 PUSH1 0x1 PUSH1 0xA0 SHL SUB NOT AND PUSH1 0x1 PUSH1 0x1 PUSH1 0xA0 SHL SUB SWAP3 SWAP1 SWAP3 AND SWAP2 SWAP1 SWAP2 OR SWAP1 SSTORE PUSH3 0x177 JUMP JUMPDEST PUSH1 0x0 DUP1 SLOAD PUSH1 0x1 PUSH1 0x1 PUSH1 0xA0 SHL SUB DUP4 DUP2 AND PUSH2 0x100 DUP2 DUP2 MUL PUSH2 0x100 PUSH1 0x1 PUSH1 0xA8 SHL SUB NOT DUP6 AND OR DUP6 SSTORE PUSH1 0x40 MLOAD SWAP4 DIV SWAP2 SWAP1 SWAP2 AND SWAP3 SWAP1 SWAP2 DUP4 SWAP2 PUSH32 0x8BE0079C531659141344CD1FD0A4F28419497F9722A3DAAFE3B4186F6B6457E0 SWAP2 LOG3 POP POP JUMP JUMPDEST DUP1 DUP3 MUL DUP2 ISZERO DUP3 DUP3 DIV DUP5 EQ OR PUSH3 0x11C JUMPI PUSH4 0x4E487B71 PUSH1 0xE0 SHL PUSH1 0x0 MSTORE PUSH1 0x11 PUSH1 0x4 MSTORE PUSH1 0x24 PUSH1 0x0 REVERT JUMPDEST SWAP3 SWAP2 POP POP JUMP JUMPDEST PUSH1 0x0 DUP3 PUSH3 0x140 JUMPI PUSH4 0x4E487B71 PUSH1 0xE0 SHL PUSH1 0x0 MSTORE PUSH1 0x12 PUSH1 0x4 MSTORE PUSH1 0x24 PUSH1 0x0 REVERT JUMPDEST POP DIV SWAP1 JUMP JUMPDEST PUSH1 0x0 PUSH1 0x20 DUP3 DUP5 SUB SLT ISZERO PUSH3 0x158 JUMPI PUSH1 0x0 DUP1 REVERT JUMPDEST DUP2 MLOAD PUSH1 0x1 PUSH1 0x1 PUSH1 0xA0 SHL SUB DUP2 AND DUP2 EQ PUSH3 0x170 JUMPI PUSH1 0x0 DUP1 REVERT JUMPDEST SWAP4 SWAP3 POP POP POP JUMP JUMPDEST PUSH2 0x170C DUP1 PUSH3 0x187 PUSH1 0x0 CODECOPY PUSH1 0x0 RETURN INVALID PUSH1 0x80 PUSH1 0x40 MSTORE PUSH1 0x4 CALLDATASIZE LT PUSH2 0x11F JUMPI PUSH1 0x0 CALLDATALOAD PUSH1 0xE0 SHR DUP1 PUSH4 0x771A3A1D GT PUSH2 0xA0 JUMPI DUP1 PUSH4 0xD96A094A GT PUSH2 0x64 JUMPI DUP1 PUSH4 0xD96A094A EQ PUSH2 0x2E2 JUMPI DUP1 PUSH4 0xDC9031C4 EQ PUSH2 0x2F5 JUMPI DUP1 PUSH4 0xE4849B32 EQ PUSH2 0x308 JUMPI DUP1 PUSH4 0xE8BCA8B8 EQ PUSH2 0x328 JUMPI DUP1 PUSH4 0xF2FDE38B EQ PUSH2 0x34A JUMPI PUSH1 0x0 DUP1 REVERT JUMPDEST DUP1 PUSH4 0x771A3A1D EQ PUSH2 0x255 JUMPI DUP1 PUSH4 0x8456CB59 EQ PUSH2 0x26B JUMPI DUP1 PUSH4 0x8DA5CB5B EQ PUSH2 0x280 JUMPI DUP1 PUSH4 0x9C74F05D EQ PUSH2 0x2B6 JUMPI DUP1 PUSH4 0xD3B5DC3B EQ PUSH2 0x2CC JUMPI PUSH1 0x0 DUP1 REVERT JUMPDEST DUP1 PUSH4 0x2AD9D559 GT PUSH2 0xE7 JUMPI DUP1 PUSH4 0x2AD9D559 EQ PUSH2 0x1BB JUMPI DUP1 PUSH4 0x3F4BA83A EQ PUSH2 0x1E8 JUMPI DUP1 PUSH4 0x5C572ED0 EQ PUSH2 0x1FD JUMPI DUP1 PUSH4 0x5C975ABB EQ PUSH2 0x21D JUMPI DUP1 PUSH4 0x715018A6 EQ PUSH2 0x240 JUMPI PUSH1 0x0 DUP1 REVERT JUMPDEST DUP1 PUSH4 0x1A753FED EQ PUSH2 0x124 JUMPI DUP1 PUSH4 0x1B82C27F EQ PUSH2 0x157 JUMPI DUP1 PUSH4 0x200061DF EQ PUSH2 0x16D JUMPI DUP1 PUSH4 0x28726BDA EQ PUSH2 0x18F JUMPI DUP1 PUSH4 0x29809703 EQ PUSH2 0x1A5 JUMPI JUMPDEST PUSH1 0x0 DUP1 REVERT JUMPDEST CALLVALUE DUP1 ISZERO PUSH2 0x130 JUMPI PUSH1 0x0 DUP1 REVERT JUMPDEST POP PUSH2 0x144 PUSH2 0x13F CALLDATASIZE PUSH1 0x4 PUSH2 0x1539 JUMP JUMPDEST PUSH2 0x36A JUMP JUMPDEST PUSH1 0x40 MLOAD SWAP1 DUP2 MSTORE PUSH1 0x20 ADD JUMPDEST PUSH1 0x40 MLOAD DUP1 SWAP2 SUB SWAP1 RETURN JUMPDEST CALLVALUE DUP1 ISZERO PUSH2 0x163 JUMPI PUSH1 0x0 DUP1 REVERT JUMPDEST POP PUSH2 0x144 PUSH1 0x5 SLOAD DUP2 JUMP JUMPDEST CALLVALUE DUP1 ISZERO PUSH2 0x179 JUMPI PUSH1 0x0 DUP1 REVERT JUMPDEST POP PUSH2 0x18D PUSH2 0x188 CALLDATASIZE PUSH1 0x4 PUSH2 0x1539 JUMP JUMPDEST PUSH2 0x47C JUMP JUMPDEST STOP JUMPDEST CALLVALUE DUP1 ISZERO PUSH2 0x19B JUMPI PUSH1 0x0 DUP1 REVERT JUMPDEST POP PUSH2 0x144 PUSH1 0x7 SLOAD DUP2 JUMP JUMPDEST CALLVALUE DUP1 ISZERO PUSH2 0x1B1 JUMPI PUSH1 0x0 DUP1 REVERT JUMPDEST POP PUSH2 0x144 PUSH1 0x6 SLOAD DUP2 JUMP JUMPDEST CALLVALUE DUP1 ISZERO PUSH2 0x1C7 JUMPI PUSH1 0x0 DUP1 REVERT JUMPDEST POP PUSH2 0x144 PUSH2 0x1D6 CALLDATASIZE PUSH1 0x4 PUSH2 0x1539 JUMP JUMPDEST PUSH1 0x3 PUSH1 0x20 MSTORE PUSH1 0x0 SWAP1 DUP2 MSTORE PUSH1 0x40 SWAP1 KECCAK256 SLOAD DUP2 JUMP JUMPDEST CALLVALUE DUP1 ISZERO PUSH2 0x1F4 JUMPI PUSH1 0x0 DUP1 REVERT JUMPDEST POP PUSH2 0x18D PUSH2 0x488 JUMP JUMPDEST CALLVALUE DUP1 ISZERO PUSH2 0x209 JUMPI PUSH1 0x0 DUP1 REVERT JUMPDEST POP PUSH2 0x144 PUSH2 0x218 CALLDATASIZE PUSH1 0x4 PUSH2 0x1539 JUMP JUMPDEST PUSH2 0x49A JUMP JUMPDEST CALLVALUE DUP1 ISZERO PUSH2 0x229 JUMPI PUSH1 0x0 DUP1 REVERT JUMPDEST POP PUSH1 0x0 SLOAD PUSH1 0xFF AND PUSH1 0x40 MLOAD SWAP1 ISZERO ISZERO DUP2 MSTORE PUSH1 0x20 ADD PUSH2 0x14E JUMP JUMPDEST CALLVALUE DUP1 ISZERO PUSH2 0x24C JUMPI PUSH1 0x0 DUP1 REVERT JUMPDEST POP PUSH2 0x18D PUSH2 0x59C JUMP JUMPDEST CALLVALUE DUP1 ISZERO PUSH2 0x261 JUMPI PUSH1 0x0 DUP1 REVERT JUMPDEST POP PUSH2 0x144 PUSH1 0x9 SLOAD DUP2 JUMP JUMPDEST CALLVALUE DUP1 ISZERO PUSH2 0x277 JUMPI PUSH1 0x0 DUP1 REVERT JUMPDEST POP PUSH2 0x18D PUSH2 0x5AE JUMP JUMPDEST CALLVALUE DUP1 ISZERO PUSH2 0x28C JUMPI PUSH1 0x0 DUP1 REVERT JUMPDEST POP PUSH1 0x0 SLOAD PUSH2 0x100 SWAP1 DIV PUSH1 0x1 PUSH1 0x1 PUSH1 0xA0 SHL SUB AND PUSH1 0x40 MLOAD PUSH1 0x1 PUSH1 0x1 PUSH1 0xA0 SHL SUB SWAP1 SWAP2 AND DUP2 MSTORE PUSH1 0x20 ADD PUSH2 0x14E JUMP JUMPDEST CALLVALUE DUP1 ISZERO PUSH2 0x2C2 JUMPI PUSH1 0x0 DUP1 REVERT JUMPDEST POP PUSH2 0x144 PUSH1 0x4 SLOAD DUP2 JUMP JUMPDEST CALLVALUE DUP1 ISZERO PUSH2 0x2D8 JUMPI PUSH1 0x0 DUP1 REVERT JUMPDEST POP PUSH2 0x144 PUSH1 0x8 SLOAD DUP2 JUMP JUMPDEST PUSH2 0x18D PUSH2 0x2F0 CALLDATASIZE PUSH1 0x4 PUSH2 0x1539 JUMP JUMPDEST PUSH2 0x5BE JUMP JUMPDEST PUSH2 0x18D PUSH2 0x303 CALLDATASIZE PUSH1 0x4 PUSH2 0x1539 JUMP JUMPDEST PUSH2 0x7BC JUMP JUMPDEST CALLVALUE DUP1 ISZERO PUSH2 0x314 JUMPI PUSH1 0x0 DUP1 REVERT JUMPDEST POP PUSH2 0x18D PUSH2 0x323 CALLDATASIZE PUSH1 0x4 PUSH2 0x1539 JUMP JUMPDEST PUSH2 0x8A9 JUMP JUMPDEST CALLVALUE DUP1 ISZERO PUSH2 0x334 JUMPI PUSH1 0x0 DUP1 REVERT JUMPDEST POP PUSH2 0x33D PUSH2 0xA5A JUMP JUMPDEST PUSH1 0x40 MLOAD PUSH2 0x14E SWAP2 SWAP1 PUSH2 0x1552 JUMP JUMPDEST CALLVALUE DUP1 ISZERO PUSH2 0x356 JUMPI PUSH1 0x0 DUP1 REVERT JUMPDEST POP PUSH2 0x18D PUSH2 0x365 CALLDATASIZE PUSH1 0x4 PUSH2 0x15AB JUMP JUMPDEST PUSH2 0xAE2 JUMP JUMPDEST PUSH1 0x0 DUP1 PUSH1 0x5 SLOAD GT PUSH2 0x3B9 JUMPI PUSH1 0x40 MLOAD PUSH3 0x461BCD PUSH1 0xE5 SHL DUP2 MSTORE PUSH1 0x20 PUSH1 0x4 DUP3 ADD MSTORE PUSH1 0x14 PUSH1 0x24 DUP3 ADD MSTORE PUSH20 0x4E6F7420656E6F756768206C6971756964697479 PUSH1 0x60 SHL PUSH1 0x44 DUP3 ADD MSTORE PUSH1 0x64 ADD JUMPDEST PUSH1 0x40 MLOAD DUP1 SWAP2 SUB SWAP1 REVERT JUMPDEST PUSH1 0x0 DUP1 PUSH1 0x6 SLOAD PUSH1 0x0 SUB PUSH2 0x3E7 JUMPI DUP4 PUSH1 0x1 PUSH1 0x5 SLOAD PUSH2 0x3D6 SWAP2 SWAP1 PUSH2 0x15F1 JUMP JUMPDEST PUSH2 0x3E0 SWAP2 SWAP1 PUSH2 0x1613 JUMP JUMPDEST SWAP1 POP PUSH2 0x405 JUMP JUMPDEST DUP4 PUSH1 0x6 SLOAD PUSH1 0x5 SLOAD PUSH2 0x3F8 SWAP2 SWAP1 PUSH2 0x15F1 JUMP JUMPDEST PUSH2 0x402 SWAP2 SWAP1 PUSH2 0x1613 JUMP JUMPDEST SWAP1 POP JUMPDEST DUP1 PUSH1 0x0 SUB PUSH2 0x423 JUMPI PUSH1 0x1 PUSH1 0x5 SLOAD PUSH2 0x41C SWAP2 SWAP1 PUSH2 0x15F1 JUMP JUMPDEST SWAP2 POP PUSH2 0x434 JUMP JUMPDEST DUP1 PUSH1 0x5 SLOAD PUSH2 0x431 SWAP2 SWAP1 PUSH2 0x15F1 JUMP JUMPDEST SWAP2 POP JUMPDEST PUSH1 0x0 PUSH1 0x6 SLOAD DUP4 PUSH2 0x444 SWAP2 SWAP1 PUSH2 0x1613 JUMP JUMPDEST SWAP1 POP PUSH1 0x0 PUSH1 0x8 SLOAD PUSH1 0x9 SLOAD DUP4 PUSH2 0x459 SWAP2 SWAP1 PUSH2 0x162C JUMP JUMPDEST PUSH2 0x463 SWAP2 SWAP1 PUSH2 0x15F1 JUMP JUMPDEST SWAP1 POP PUSH1 0x0 PUSH2 0x471 DUP3 DUP5 PUSH2 0x1613 JUMP JUMPDEST SWAP8 SWAP7 POP POP POP POP POP POP POP JUMP JUMPDEST PUSH2 0x485 DUP2 PUSH2 0xB58 JUMP JUMPDEST POP JUMP JUMPDEST PUSH2 0x490 PUSH2 0xEB3 JUMP JUMPDEST PUSH2 0x498 PUSH2 0xF13 JUMP JUMPDEST JUMP JUMPDEST PUSH1 0x0 DUP1 PUSH1 0x5 SLOAD GT PUSH2 0x4E4 JUMPI PUSH1 0x40 MLOAD PUSH3 0x461BCD PUSH1 0xE5 SHL DUP2 MSTORE PUSH1 0x20 PUSH1 0x4 DUP3 ADD MSTORE PUSH1 0x14 PUSH1 0x24 DUP3 ADD MSTORE PUSH20 0x4E6F7420656E6F756768206C6971756964697479 PUSH1 0x60 SHL PUSH1 0x44 DUP3 ADD MSTORE PUSH1 0x64 ADD PUSH2 0x3B0 JUMP JUMPDEST PUSH1 0x0 DUP1 PUSH1 0x7 SLOAD PUSH1 0x0 SUB PUSH2 0x512 JUMPI DUP4 PUSH1 0x1 PUSH1 0x5 SLOAD PUSH2 0x501 SWAP2 SWAP1 PUSH2 0x15F1 JUMP JUMPDEST PUSH2 0x50B SWAP2 SWAP1 PUSH2 0x1613 JUMP JUMPDEST SWAP2 POP PUSH2 0x530 JUMP JUMPDEST DUP4 PUSH1 0x7 SLOAD PUSH1 0x5 SLOAD PUSH2 0x523 SWAP2 SWAP1 PUSH2 0x15F1 JUMP JUMPDEST PUSH2 0x52D SWAP2 SWAP1 PUSH2 0x1613 JUMP JUMPDEST SWAP2 POP JUMPDEST DUP2 PUSH1 0x0 SUB PUSH2 0x54E JUMPI PUSH1 0x1 PUSH1 0x5 SLOAD PUSH2 0x547 SWAP2 SWAP1 PUSH2 0x15F1 JUMP JUMPDEST SWAP1 POP PUSH2 0x55F JUMP JUMPDEST DUP2 PUSH1 0x5 SLOAD PUSH2 0x55C SWAP2 SWAP1 PUSH2 0x15F1 JUMP JUMPDEST SWAP1 POP JUMPDEST PUSH1 0x0 PUSH1 0x7 SLOAD DUP3 PUSH2 0x56F SWAP2 SWAP1 PUSH2 0x1613 JUMP JUMPDEST SWAP1 POP PUSH1 0x0 PUSH1 0x8 SLOAD PUSH1 0x9 SLOAD DUP4 PUSH2 0x584 SWAP2 SWAP1 PUSH2 0x162C JUMP JUMPDEST PUSH2 0x58E SWAP2 SWAP1 PUSH2 0x15F1 JUMP JUMPDEST SWAP1 POP PUSH1 0x0 PUSH2 0x471 DUP3 DUP5 PUSH2 0x1643 JUMP JUMPDEST PUSH2 0x5A4 PUSH2 0xEB3 JUMP JUMPDEST PUSH2 0x498 PUSH1 0x0 PUSH2 0xF65 JUMP JUMPDEST PUSH2 0x5B6 PUSH2 0xEB3 JUMP JUMPDEST PUSH2 0x498 PUSH2 0xFBE JUMP JUMPDEST PUSH1 0x0 DUP2 GT PUSH2 0x5FF JUMPI PUSH1 0x40 MLOAD PUSH3 0x461BCD PUSH1 0xE5 SHL DUP2 MSTORE PUSH1 0x20 PUSH1 0x4 DUP3 ADD MSTORE PUSH1 0xE PUSH1 0x24 DUP3 ADD MSTORE PUSH14 0x53656E6420536F6D65204D656D65 PUSH1 0x90 SHL PUSH1 0x44 DUP3 ADD MSTORE PUSH1 0x64 ADD PUSH2 0x3B0 JUMP JUMPDEST PUSH1 0x0 PUSH2 0x60A DUP3 PUSH2 0x49A JUMP JUMPDEST SWAP1 POP CALLVALUE DUP2 GT ISZERO PUSH2 0x64C JUMPI PUSH1 0x40 MLOAD PUSH3 0x461BCD PUSH1 0xE5 SHL DUP2 MSTORE PUSH1 0x20 PUSH1 0x4 DUP3 ADD MSTORE PUSH1 0xD PUSH1 0x24 DUP3 ADD MSTORE PUSH13 0xA6CADCC8409ADEE4CA408AA89 PUSH1 0x9B SHL PUSH1 0x44 DUP3 ADD MSTORE PUSH1 0x64 ADD PUSH2 0x3B0 JUMP JUMPDEST PUSH1 0x1 SLOAD PUSH1 0x40 MLOAD PUSH4 0xA9059CBB PUSH1 0xE0 SHL DUP2 MSTORE CALLER PUSH1 0x4 DUP3 ADD MSTORE PUSH1 0x24 DUP2 ADD DUP5 SWAP1 MSTORE PUSH1 0x1 PUSH1 0x1 PUSH1 0xA0 SHL SUB SWAP1 SWAP2 AND SWAP1 PUSH4 0xA9059CBB SWAP1 PUSH1 0x44 ADD PUSH1 0x20 PUSH1 0x40 MLOAD DUP1 DUP4 SUB DUP2 PUSH1 0x0 DUP8 GAS CALL ISZERO DUP1 ISZERO PUSH2 0x69D JUMPI RETURNDATASIZE PUSH1 0x0 DUP1 RETURNDATACOPY RETURNDATASIZE PUSH1 0x0 REVERT JUMPDEST POP POP POP POP PUSH1 0x40 MLOAD RETURNDATASIZE PUSH1 0x1F NOT PUSH1 0x1F DUP3 ADD AND DUP3 ADD DUP1 PUSH1 0x40 MSTORE POP DUP2 ADD SWAP1 PUSH2 0x6C1 SWAP2 SWAP1 PUSH2 0x1656 JUMP JUMPDEST POP CALLER PUSH2 0x8FC PUSH2 0x6D0 DUP4 CALLVALUE PUSH2 0x1613 JUMP JUMPDEST PUSH1 0x40 MLOAD DUP2 ISZERO SWAP1 SWAP3 MUL SWAP2 PUSH1 0x0 DUP2 DUP2 DUP2 DUP6 DUP9 DUP9 CALL SWAP4 POP POP POP POP ISZERO DUP1 ISZERO PUSH2 0x6F8 JUMPI RETURNDATASIZE PUSH1 0x0 DUP1 RETURNDATACOPY RETURNDATASIZE PUSH1 0x0 REVERT JUMPDEST POP PUSH1 0x8 SLOAD PUSH1 0x9 SLOAD PUSH2 0x709 SWAP1 DUP3 PUSH2 0x1643 JUMP JUMPDEST PUSH2 0x713 SWAP1 DUP5 PUSH2 0x162C JUMP JUMPDEST PUSH2 0x71D SWAP2 SWAP1 PUSH2 0x15F1 JUMP JUMPDEST PUSH1 0x3 PUSH1 0x0 PUSH2 0x72E PUSH3 0x15180 TIMESTAMP PUSH2 0x15F1 JUMP JUMPDEST DUP2 MSTORE PUSH1 0x20 ADD SWAP1 DUP2 MSTORE PUSH1 0x20 ADD PUSH1 0x0 KECCAK256 PUSH1 0x0 DUP3 DUP3 SLOAD PUSH2 0x74B SWAP2 SWAP1 PUSH2 0x1643 JUMP JUMPDEST SWAP3 POP POP DUP2 SWAP1 SSTORE POP DUP2 PUSH1 0x6 PUSH1 0x0 DUP3 DUP3 SLOAD PUSH2 0x764 SWAP2 SWAP1 PUSH2 0x1613 JUMP JUMPDEST SWAP1 SWAP2 SSTORE POP POP PUSH1 0x6 SLOAD PUSH1 0x5 SLOAD PUSH2 0x779 SWAP2 SWAP1 PUSH2 0x15F1 JUMP JUMPDEST PUSH1 0x7 SSTORE PUSH1 0x40 DUP1 MLOAD DUP4 DUP2 MSTORE PUSH1 0x20 DUP2 ADD DUP4 SWAP1 MSTORE CALLER SWAP2 PUSH32 0x1CBC5AB135991BD2B6A4B034A04AA2AA086DAC1371CB9B16B8B5E2ED6B036BED SWAP2 ADD JUMPDEST PUSH1 0x40 MLOAD DUP1 SWAP2 SUB SWAP1 LOG2 POP POP JUMP JUMPDEST PUSH1 0x0 DUP2 GT PUSH2 0x7FD JUMPI PUSH1 0x40 MLOAD PUSH3 0x461BCD PUSH1 0xE5 SHL DUP2 MSTORE PUSH1 0x20 PUSH1 0x4 DUP3 ADD MSTORE PUSH1 0xE PUSH1 0x24 DUP3 ADD MSTORE PUSH14 0x53656E64206D6F7265204D454D45 PUSH1 0x90 SHL PUSH1 0x44 DUP3 ADD MSTORE PUSH1 0x64 ADD PUSH2 0x3B0 JUMP JUMPDEST PUSH1 0x0 CALLVALUE GT PUSH2 0x83D JUMPI PUSH1 0x40 MLOAD PUSH3 0x461BCD PUSH1 0xE5 SHL DUP2 MSTORE PUSH1 0x20 PUSH1 0x4 DUP3 ADD MSTORE PUSH1 0xD PUSH1 0x24 DUP3 ADD MSTORE PUSH13 0xA6CADCC840DADEE4CA408AA89 PUSH1 0x9B SHL PUSH1 0x44 DUP3 ADD MSTORE PUSH1 0x64 ADD PUSH2 0x3B0 JUMP JUMPDEST DUP1 PUSH1 0x8 SLOAD CALLVALUE PUSH2 0x84C SWAP2 SWAP1 PUSH2 0x162C JUMP JUMPDEST PUSH2 0x856 SWAP2 SWAP1 PUSH2 0x15F1 JUMP JUMPDEST PUSH1 0x4 SLOAD GT ISZERO PUSH2 0x89F JUMPI PUSH1 0x40 MLOAD PUSH3 0x461BCD PUSH1 0xE5 SHL DUP2 MSTORE PUSH1 0x20 PUSH1 0x4 DUP3 ADD MSTORE PUSH1 0x15 PUSH1 0x24 DUP3 ADD MSTORE PUSH21 0x14DD1858DADA5B99C814985D19481B9BDD081B595D PUSH1 0x5A SHL PUSH1 0x44 DUP3 ADD MSTORE PUSH1 0x64 ADD PUSH2 0x3B0 JUMP JUMPDEST PUSH2 0x485 DUP2 CALLVALUE PUSH2 0xFFB JUMP JUMPDEST PUSH1 0x0 DUP2 GT PUSH2 0x8E9 JUMPI PUSH1 0x40 MLOAD PUSH3 0x461BCD PUSH1 0xE5 SHL DUP2 MSTORE PUSH1 0x20 PUSH1 0x4 DUP3 ADD MSTORE PUSH1 0xD PUSH1 0x24 DUP3 ADD MSTORE PUSH13 0xA6CADCC840A6DEDACA408AA89 PUSH1 0x9B SHL PUSH1 0x44 DUP3 ADD MSTORE PUSH1 0x64 ADD PUSH2 0x3B0 JUMP JUMPDEST PUSH1 0x0 PUSH2 0x8F4 DUP3 PUSH2 0x36A JUMP JUMPDEST PUSH1 0x1 SLOAD PUSH1 0x40 MLOAD PUSH4 0x23B872DD PUSH1 0xE0 SHL DUP2 MSTORE CALLER PUSH1 0x4 DUP3 ADD MSTORE ADDRESS PUSH1 0x24 DUP3 ADD MSTORE PUSH1 0x44 DUP2 ADD DUP4 SWAP1 MSTORE SWAP2 SWAP3 POP PUSH1 0x1 PUSH1 0x1 PUSH1 0xA0 SHL SUB AND SWAP1 PUSH4 0x23B872DD SWAP1 PUSH1 0x64 ADD PUSH1 0x20 PUSH1 0x40 MLOAD DUP1 DUP4 SUB DUP2 PUSH1 0x0 DUP8 GAS CALL ISZERO DUP1 ISZERO PUSH2 0x94C JUMPI RETURNDATASIZE PUSH1 0x0 DUP1 RETURNDATACOPY RETURNDATASIZE PUSH1 0x0 REVERT JUMPDEST POP POP POP POP PUSH1 0x40 MLOAD RETURNDATASIZE PUSH1 0x1F NOT PUSH1 0x1F DUP3 ADD AND DUP3 ADD DUP1 PUSH1 0x40 MSTORE POP DUP2 ADD SWAP1 PUSH2 0x970 SWAP2 SWAP1 PUSH2 0x1656 JUMP JUMPDEST POP PUSH1 0x40 MLOAD CALLER SWAP1 DUP4 ISZERO PUSH2 0x8FC MUL SWAP1 DUP5 SWAP1 PUSH1 0x0 DUP2 DUP2 DUP2 DUP6 DUP9 DUP9 CALL SWAP4 POP POP POP POP ISZERO DUP1 ISZERO PUSH2 0x99E JUMPI RETURNDATASIZE PUSH1 0x0 DUP1 RETURNDATACOPY RETURNDATASIZE PUSH1 0x0 REVERT JUMPDEST POP PUSH1 0x8 SLOAD PUSH1 0x9 SLOAD PUSH2 0x9AF SWAP1 DUP3 PUSH2 0x1643 JUMP JUMPDEST PUSH2 0x9B9 SWAP1 DUP4 PUSH2 0x162C JUMP JUMPDEST PUSH2 0x9C3 SWAP2 SWAP1 PUSH2 0x15F1 JUMP JUMPDEST PUSH1 0x3 PUSH1 0x0 PUSH2 0x9D4 PUSH3 0x15180 TIMESTAMP PUSH2 0x15F1 JUMP JUMPDEST DUP2 MSTORE PUSH1 0x20 ADD SWAP1 DUP2 MSTORE PUSH1 0x20 ADD PUSH1 0x0 KECCAK256 PUSH1 0x0 DUP3 DUP3 SLOAD PUSH2 0x9F1 SWAP2 SWAP1 PUSH2 0x1643 JUMP JUMPDEST SWAP3 POP POP DUP2 SWAP1 SSTORE POP DUP1 PUSH1 0x6 PUSH1 0x0 DUP3 DUP3 SLOAD PUSH2 0xA0A SWAP2 SWAP1 PUSH2 0x1643 JUMP JUMPDEST SWAP1 SWAP2 SSTORE POP POP PUSH1 0x6 SLOAD PUSH1 0x5 SLOAD PUSH2 0xA1F SWAP2 SWAP1 PUSH2 0x15F1 JUMP JUMPDEST PUSH1 0x7 SSTORE PUSH1 0x40 DUP1 MLOAD DUP3 DUP2 MSTORE PUSH1 0x20 DUP2 ADD DUP5 SWAP1 MSTORE CALLER SWAP2 PUSH32 0xED7A144FAD14804D5C249145E3E0E2B63A9EB455B76AEE5BC92D711E9BBA3E4A SWAP2 ADD PUSH2 0x7B0 JUMP JUMPDEST CALLER PUSH1 0x0 SWAP1 DUP2 MSTORE PUSH1 0x2 PUSH1 0x20 SWAP1 DUP2 MSTORE PUSH1 0x40 DUP1 DUP4 KECCAK256 DUP1 SLOAD DUP3 MLOAD DUP2 DUP6 MUL DUP2 ADD DUP6 ADD SWAP1 SWAP4 MSTORE DUP1 DUP4 MSTORE PUSH1 0x60 SWAP5 SWAP3 SWAP4 SWAP2 SWAP3 SWAP1 SWAP2 DUP5 ADD JUMPDEST DUP3 DUP3 LT ISZERO PUSH2 0xAD9 JUMPI DUP4 DUP3 SWAP1 PUSH1 0x0 MSTORE PUSH1 0x20 PUSH1 0x0 KECCAK256 SWAP1 PUSH1 0x3 MUL ADD PUSH1 0x40 MLOAD DUP1 PUSH1 0x60 ADD PUSH1 0x40 MSTORE SWAP1 DUP2 PUSH1 0x0 DUP3 ADD SLOAD DUP2 MSTORE PUSH1 0x20 ADD PUSH1 0x1 DUP3 ADD SLOAD DUP2 MSTORE PUSH1 0x20 ADD PUSH1 0x2 DUP3 ADD SLOAD DUP2 MSTORE POP POP DUP2 MSTORE PUSH1 0x20 ADD SWAP1 PUSH1 0x1 ADD SWAP1 PUSH2 0xA89 JUMP JUMPDEST POP POP POP POP SWAP1 POP SWAP1 JUMP JUMPDEST PUSH2 0xAEA PUSH2 0xEB3 JUMP JUMPDEST PUSH1 0x1 PUSH1 0x1 PUSH1 0xA0 SHL SUB DUP2 AND PUSH2 0xB4F JUMPI PUSH1 0x40 MLOAD PUSH3 0x461BCD PUSH1 0xE5 SHL DUP2 MSTORE PUSH1 0x20 PUSH1 0x4 DUP3 ADD MSTORE PUSH1 0x26 PUSH1 0x24 DUP3 ADD MSTORE PUSH32 0x4F776E61626C653A206E6577206F776E657220697320746865207A65726F2061 PUSH1 0x44 DUP3 ADD MSTORE PUSH6 0x646472657373 PUSH1 0xD0 SHL PUSH1 0x64 DUP3 ADD MSTORE PUSH1 0x84 ADD PUSH2 0x3B0 JUMP JUMPDEST PUSH2 0x485 DUP2 PUSH2 0xF65 JUMP JUMPDEST CALLER PUSH1 0x0 SWAP1 DUP2 MSTORE PUSH1 0x2 PUSH1 0x20 MSTORE PUSH1 0x40 DUP2 KECCAK256 DUP1 SLOAD DUP4 SWAP1 DUP2 LT PUSH2 0xB79 JUMPI PUSH2 0xB79 PUSH2 0x1678 JUMP JUMPDEST SWAP1 PUSH1 0x0 MSTORE PUSH1 0x20 PUSH1 0x0 KECCAK256 SWAP1 PUSH1 0x3 MUL ADD PUSH1 0x40 MLOAD DUP1 PUSH1 0x60 ADD PUSH1 0x40 MSTORE SWAP1 DUP2 PUSH1 0x0 DUP3 ADD SLOAD DUP2 MSTORE PUSH1 0x20 ADD PUSH1 0x1 DUP3 ADD SLOAD DUP2 MSTORE PUSH1 0x20 ADD PUSH1 0x2 DUP3 ADD SLOAD DUP2 MSTORE POP POP SWAP1 POP PUSH1 0x0 PUSH2 0xBBC PUSH2 0x1163 JUMP JUMPDEST DUP3 MLOAD PUSH1 0x20 DUP5 ADD MLOAD SWAP2 SWAP3 POP SWAP1 PUSH1 0x0 SWAP1 PUSH2 0xBD5 SWAP1 DUP5 SWAP1 PUSH2 0x1643 JUMP JUMPDEST PUSH1 0x1 SLOAD PUSH1 0x40 MLOAD PUSH4 0x70A08231 PUSH1 0xE0 SHL DUP2 MSTORE ADDRESS PUSH1 0x4 DUP3 ADD MSTORE SWAP2 SWAP3 POP DUP4 SWAP2 PUSH1 0x1 PUSH1 0x1 PUSH1 0xA0 SHL SUB SWAP1 SWAP2 AND SWAP1 PUSH4 0x70A08231 SWAP1 PUSH1 0x24 ADD PUSH1 0x20 PUSH1 0x40 MLOAD DUP1 DUP4 SUB DUP2 DUP7 GAS STATICCALL ISZERO DUP1 ISZERO PUSH2 0xC22 JUMPI RETURNDATASIZE PUSH1 0x0 DUP1 RETURNDATACOPY RETURNDATASIZE PUSH1 0x0 REVERT JUMPDEST POP POP POP POP PUSH1 0x40 MLOAD RETURNDATASIZE PUSH1 0x1F NOT PUSH1 0x1F DUP3 ADD AND DUP3 ADD DUP1 PUSH1 0x40 MSTORE POP DUP2 ADD SWAP1 PUSH2 0xC46 SWAP2 SWAP1 PUSH2 0x168E JUMP JUMPDEST LT ISZERO PUSH2 0xCCE JUMPI PUSH1 0x40 MLOAD PUSH3 0x461BCD PUSH1 0xE5 SHL DUP2 MSTORE PUSH1 0x20 PUSH1 0x4 DUP3 ADD MSTORE PUSH1 0x4B PUSH1 0x24 DUP3 ADD MSTORE PUSH32 0x536F7272792043757272656E746C79207468697320636F6E747261637420646F PUSH1 0x44 DUP3 ADD MSTORE PUSH32 0x65736E27742068617665204D656D6520746F2072657475726E2C20436865636B PUSH1 0x64 DUP3 ADD MSTORE PUSH11 0x206261636B20536F6F6E21 PUSH1 0xA8 SHL PUSH1 0x84 DUP3 ADD MSTORE PUSH1 0xA4 ADD PUSH2 0x3B0 JUMP JUMPDEST DUP1 SELFBALANCE LT ISZERO PUSH2 0xD57 JUMPI PUSH1 0x40 MLOAD PUSH3 0x461BCD PUSH1 0xE5 SHL DUP2 MSTORE PUSH1 0x20 PUSH1 0x4 DUP3 ADD MSTORE PUSH1 0x4A PUSH1 0x24 DUP3 ADD MSTORE PUSH32 0x536F7272792043757272656E746C79207468697320636F6E747261637420646F PUSH1 0x44 DUP3 ADD MSTORE PUSH32 0x65736E277420686176652045746820746F2072657475726E2C20436865636B20 PUSH1 0x64 DUP3 ADD MSTORE PUSH10 0x6261636B20536F6F6E21 PUSH1 0xB0 SHL PUSH1 0x84 DUP3 ADD MSTORE PUSH1 0xA4 ADD PUSH2 0x3B0 JUMP JUMPDEST DUP2 PUSH1 0x6 PUSH1 0x0 DUP3 DUP3 SLOAD PUSH2 0xD69 SWAP2 SWAP1 PUSH2 0x1613 JUMP JUMPDEST SWAP3 POP POP DUP2 SWAP1 SSTORE POP DUP1 PUSH1 0x7 PUSH1 0x0 DUP3 DUP3 SLOAD PUSH2 0xD82 SWAP2 SWAP1 PUSH2 0x1613 JUMP JUMPDEST SWAP1 SWAP2 SSTORE POP POP PUSH1 0x1 SLOAD PUSH1 0x40 MLOAD PUSH4 0xA9059CBB PUSH1 0xE0 SHL DUP2 MSTORE CALLER PUSH1 0x4 DUP3 ADD MSTORE PUSH1 0x24 DUP2 ADD DUP5 SWAP1 MSTORE PUSH1 0x1 PUSH1 0x1 PUSH1 0xA0 SHL SUB SWAP1 SWAP2 AND SWAP1 PUSH4 0xA9059CBB SWAP1 PUSH1 0x44 ADD PUSH1 0x20 PUSH1 0x40 MLOAD DUP1 DUP4 SUB DUP2 PUSH1 0x0 DUP8 GAS CALL ISZERO DUP1 ISZERO PUSH2 0xDD8 JUMPI RETURNDATASIZE PUSH1 0x0 DUP1 RETURNDATACOPY RETURNDATASIZE PUSH1 0x0 REVERT JUMPDEST POP POP POP POP PUSH1 0x40 MLOAD RETURNDATASIZE PUSH1 0x1F NOT PUSH1 0x1F DUP3 ADD AND DUP3 ADD DUP1 PUSH1 0x40 MSTORE POP DUP2 ADD SWAP1 PUSH2 0xDFC SWAP2 SWAP1 PUSH2 0x1656 JUMP JUMPDEST POP PUSH1 0x40 MLOAD CALLER SWAP1 DUP3 ISZERO PUSH2 0x8FC MUL SWAP1 DUP4 SWAP1 PUSH1 0x0 DUP2 DUP2 DUP2 DUP6 DUP9 DUP9 CALL SWAP4 POP POP POP POP ISZERO DUP1 ISZERO PUSH2 0xE2A JUMPI RETURNDATASIZE PUSH1 0x0 DUP1 RETURNDATACOPY RETURNDATASIZE PUSH1 0x0 REVERT JUMPDEST POP PUSH1 0x6 SLOAD PUSH1 0x0 SUB PUSH2 0xE3F JUMPI PUSH1 0x0 PUSH1 0x4 SSTORE PUSH2 0xE60 JUMP JUMPDEST PUSH1 0x6 SLOAD PUSH1 0x8 SLOAD PUSH1 0x7 SLOAD PUSH2 0xE52 SWAP2 SWAP1 PUSH2 0x162C JUMP JUMPDEST PUSH2 0xE5C SWAP2 SWAP1 PUSH2 0x15F1 JUMP JUMPDEST PUSH1 0x4 SSTORE JUMPDEST PUSH2 0xE69 DUP6 PUSH2 0x132D JUMP JUMPDEST PUSH2 0xE71 PUSH2 0x1495 JUMP JUMPDEST PUSH1 0x40 DUP1 MLOAD DUP4 DUP2 MSTORE PUSH1 0x20 DUP2 ADD DUP4 SWAP1 MSTORE CALLER SWAP2 PUSH32 0xBB564DF1F5D4EBB97B073ADCAB505C7796A37035AC5D14F51269660939C39CF4 SWAP2 ADD PUSH1 0x40 MLOAD DUP1 SWAP2 SUB SWAP1 LOG2 POP POP POP POP POP JUMP JUMPDEST PUSH1 0x0 SLOAD PUSH1 0x1 PUSH1 0x1 PUSH1 0xA0 SHL SUB PUSH2 0x100 SWAP1 SWAP2 DIV AND CALLER EQ PUSH2 0x498 JUMPI PUSH1 0x40 MLOAD PUSH3 0x461BCD PUSH1 0xE5 SHL DUP2 MSTORE PUSH1 0x20 PUSH1 0x4 DUP3 ADD DUP2 SWAP1 MSTORE PUSH1 0x24 DUP3 ADD MSTORE PUSH32 0x4F776E61626C653A2063616C6C6572206973206E6F7420746865206F776E6572 PUSH1 0x44 DUP3 ADD MSTORE PUSH1 0x64 ADD PUSH2 0x3B0 JUMP JUMPDEST PUSH2 0xF1B PUSH2 0x14AA JUMP JUMPDEST PUSH1 0x0 DUP1 SLOAD PUSH1 0xFF NOT AND SWAP1 SSTORE PUSH32 0x5DB9EE0A495BF2E6FF9C91A7834C1BA4FDD244A5E8AA4E537BD38AEAE4B073AA CALLER JUMPDEST PUSH1 0x40 MLOAD PUSH1 0x1 PUSH1 0x1 PUSH1 0xA0 SHL SUB SWAP1 SWAP2 AND DUP2 MSTORE PUSH1 0x20 ADD PUSH1 0x40 MLOAD DUP1 SWAP2 SUB SWAP1 LOG1 JUMP JUMPDEST PUSH1 0x0 DUP1 SLOAD PUSH1 0x1 PUSH1 0x1 PUSH1 0xA0 SHL SUB DUP4 DUP2 AND PUSH2 0x100 DUP2 DUP2 MUL PUSH2 0x100 PUSH1 0x1 PUSH1 0xA8 SHL SUB NOT DUP6 AND OR DUP6 SSTORE PUSH1 0x40 MLOAD SWAP4 DIV SWAP2 SWAP1 SWAP2 AND SWAP3 SWAP1 SWAP2 DUP4 SWAP2 PUSH32 0x8BE0079C531659141344CD1FD0A4F28419497F9722A3DAAFE3B4186F6B6457E0 SWAP2 LOG3 POP POP JUMP JUMPDEST PUSH2 0xFC6 PUSH2 0x14F3 JUMP JUMPDEST PUSH1 0x0 DUP1 SLOAD PUSH1 0xFF NOT AND PUSH1 0x1 OR SWAP1 SSTORE PUSH32 0x62E78CEA01BEE320CD4E420270B5EA74000D11B0C9F74754EBDBFC544B05A258 PUSH2 0xF48 CALLER SWAP1 JUMP JUMPDEST PUSH1 0x1 SLOAD PUSH1 0x40 MLOAD PUSH4 0x23B872DD PUSH1 0xE0 SHL DUP2 MSTORE CALLER PUSH1 0x4 DUP3 ADD MSTORE ADDRESS PUSH1 0x24 DUP3 ADD MSTORE PUSH1 0x44 DUP2 ADD DUP5 SWAP1 MSTORE PUSH1 0x1 PUSH1 0x1 PUSH1 0xA0 SHL SUB SWAP1 SWAP2 AND SWAP1 PUSH4 0x23B872DD SWAP1 PUSH1 0x64 ADD PUSH1 0x20 PUSH1 0x40 MLOAD DUP1 DUP4 SUB DUP2 PUSH1 0x0 DUP8 GAS CALL ISZERO DUP1 ISZERO PUSH2 0x1052 JUMPI RETURNDATASIZE PUSH1 0x0 DUP1 RETURNDATACOPY RETURNDATASIZE PUSH1 0x0 REVERT JUMPDEST POP POP POP POP PUSH1 0x40 MLOAD RETURNDATASIZE PUSH1 0x1F NOT PUSH1 0x1F DUP3 ADD AND DUP3 ADD DUP1 PUSH1 0x40 MSTORE POP DUP2 ADD SWAP1 PUSH2 0x1076 SWAP2 SWAP1 PUSH2 0x1656 JUMP JUMPDEST POP DUP2 PUSH1 0x6 PUSH1 0x0 DUP3 DUP3 SLOAD PUSH2 0x1089 SWAP2 SWAP1 PUSH2 0x1643 JUMP JUMPDEST SWAP3 POP POP DUP2 SWAP1 SSTORE POP DUP1 PUSH1 0x7 PUSH1 0x0 DUP3 DUP3 SLOAD PUSH2 0x10A2 SWAP2 SWAP1 PUSH2 0x1643 JUMP JUMPDEST SWAP1 SWAP2 SSTORE POP POP PUSH1 0x40 DUP1 MLOAD PUSH1 0x60 DUP2 ADD DUP3 MSTORE DUP4 DUP2 MSTORE PUSH1 0x20 DUP1 DUP3 ADD DUP5 DUP2 MSTORE TIMESTAMP DUP4 DUP6 ADD SWAP1 DUP2 MSTORE CALLER PUSH1 0x0 SWAP1 DUP2 MSTORE PUSH1 0x2 DUP1 DUP6 MSTORE SWAP6 DUP2 KECCAK256 DUP1 SLOAD PUSH1 0x1 DUP2 DUP2 ADD DUP4 SSTORE SWAP2 DUP4 MSTORE SWAP5 SWAP1 SWAP2 KECCAK256 DUP6 MLOAD PUSH1 0x3 SWAP1 SWAP6 MUL ADD SWAP4 DUP5 SSTORE SWAP2 MLOAD SWAP2 DUP4 ADD SWAP2 SWAP1 SWAP2 SSTORE MLOAD SWAP3 ADD SWAP2 SWAP1 SWAP2 SSTORE PUSH1 0x6 SLOAD PUSH1 0x8 SLOAD PUSH1 0x7 SLOAD PUSH2 0x110F SWAP2 SWAP1 PUSH2 0x162C JUMP JUMPDEST PUSH2 0x1119 SWAP2 SWAP1 PUSH2 0x15F1 JUMP JUMPDEST PUSH1 0x4 SSTORE PUSH2 0x1124 PUSH2 0x1495 JUMP JUMPDEST PUSH1 0x40 DUP1 MLOAD DUP5 DUP2 MSTORE CALLVALUE PUSH1 0x20 DUP3 ADD MSTORE CALLER SWAP2 PUSH32 0x5CAAD8F5613B6F1D592FC8C69D8F0999453740F0806C754F20CC92F3D4B2B1B6 SWAP2 ADD PUSH1 0x40 MLOAD DUP1 SWAP2 SUB SWAP1 LOG2 POP POP POP JUMP JUMPDEST PUSH1 0x0 DUP1 DUP1 PUSH1 0x3 DUP2 PUSH2 0x1177 PUSH3 0x15180 TIMESTAMP PUSH2 0x15F1 JUMP JUMPDEST DUP2 MSTORE PUSH1 0x20 ADD SWAP1 DUP2 MSTORE PUSH1 0x20 ADD PUSH1 0x0 KECCAK256 SLOAD GT ISZERO PUSH2 0x1328 JUMPI CALLER PUSH1 0x0 SWAP1 DUP2 MSTORE PUSH1 0x2 PUSH1 0x20 MSTORE PUSH1 0x40 DUP2 KECCAK256 DUP1 SLOAD SWAP1 SWAP2 DUP1 JUMPDEST DUP3 DUP2 LT ISZERO PUSH2 0x1226 JUMPI PUSH1 0x0 DUP5 DUP3 DUP2 SLOAD DUP2 LT PUSH2 0x11BD JUMPI PUSH2 0x11BD PUSH2 0x1678 JUMP JUMPDEST SWAP1 PUSH1 0x0 MSTORE PUSH1 0x20 PUSH1 0x0 KECCAK256 SWAP1 PUSH1 0x3 MUL ADD PUSH1 0x40 MLOAD DUP1 PUSH1 0x60 ADD PUSH1 0x40 MSTORE SWAP1 DUP2 PUSH1 0x0 DUP3 ADD SLOAD DUP2 MSTORE PUSH1 0x20 ADD PUSH1 0x1 DUP3 ADD SLOAD DUP2 MSTORE PUSH1 0x20 ADD PUSH1 0x2 DUP3 ADD SLOAD DUP2 MSTORE POP POP SWAP1 POP DUP1 PUSH1 0x40 ADD MLOAD TIMESTAMP PUSH2 0x1206 SWAP2 SWAP1 PUSH2 0x1613 JUMP JUMPDEST PUSH2 0x1210 SWAP1 DUP5 PUSH2 0x1643 JUMP JUMPDEST SWAP3 POP POP DUP1 DUP1 PUSH2 0x121E SWAP1 PUSH2 0x16A7 JUMP JUMPDEST SWAP2 POP POP PUSH2 0x11A1 JUMP JUMPDEST POP PUSH1 0x0 JUMPDEST DUP3 DUP2 LT ISZERO PUSH2 0x1323 JUMPI PUSH1 0x0 DUP5 DUP3 DUP2 SLOAD DUP2 LT PUSH2 0x1246 JUMPI PUSH2 0x1246 PUSH2 0x1678 JUMP JUMPDEST PUSH1 0x0 SWAP2 DUP3 MSTORE PUSH1 0x20 DUP1 DUP4 KECCAK256 PUSH1 0x40 DUP1 MLOAD PUSH1 0x60 DUP2 ADD DUP3 MSTORE PUSH1 0x3 SWAP1 SWAP5 MUL SWAP1 SWAP2 ADD DUP1 SLOAD DUP1 DUP6 MSTORE PUSH1 0x1 DUP3 ADD SLOAD SWAP4 DUP6 ADD SWAP4 SWAP1 SWAP4 MSTORE PUSH1 0x2 ADD SLOAD SWAP1 DUP4 ADD MSTORE PUSH1 0x6 SLOAD PUSH1 0x8 SLOAD SWAP3 SWAP5 POP SWAP2 PUSH2 0x128E SWAP2 PUSH2 0x162C JUMP JUMPDEST PUSH2 0x1298 SWAP2 SWAP1 PUSH2 0x15F1 JUMP JUMPDEST SWAP1 POP PUSH1 0x0 DUP3 PUSH1 0x40 ADD MLOAD TIMESTAMP PUSH2 0x12AC SWAP2 SWAP1 PUSH2 0x1613 JUMP JUMPDEST SWAP1 POP PUSH1 0x0 PUSH2 0x12BA DUP7 DUP4 PUSH2 0x15F1 JUMP JUMPDEST PUSH1 0x5 SLOAD SWAP1 SWAP2 POP DUP2 PUSH1 0x3 PUSH1 0x0 PUSH2 0x12D2 PUSH3 0x15180 TIMESTAMP PUSH2 0x15F1 JUMP JUMPDEST DUP2 MSTORE PUSH1 0x20 ADD SWAP1 DUP2 MSTORE PUSH1 0x20 ADD PUSH1 0x0 KECCAK256 SLOAD DUP6 PUSH2 0x12EC SWAP2 SWAP1 PUSH2 0x162C JUMP JUMPDEST PUSH2 0x12F6 SWAP2 SWAP1 PUSH2 0x162C JUMP JUMPDEST PUSH2 0x1300 SWAP2 SWAP1 PUSH2 0x15F1 JUMP JUMPDEST PUSH2 0x130A SWAP1 DUP11 PUSH2 0x1643 JUMP JUMPDEST SWAP9 POP POP POP POP POP DUP1 DUP1 PUSH2 0x131B SWAP1 PUSH2 0x16A7 JUMP JUMPDEST SWAP2 POP POP PUSH2 0x122A JUMP JUMPDEST POP POP POP POP JUMPDEST SWAP2 SWAP1 POP JUMP JUMPDEST CALLER PUSH1 0x0 SWAP1 DUP2 MSTORE PUSH1 0x2 PUSH1 0x20 MSTORE PUSH1 0x40 SWAP1 KECCAK256 SLOAD DUP2 LT PUSH2 0x1381 JUMPI PUSH1 0x40 MLOAD PUSH3 0x461BCD PUSH1 0xE5 SHL DUP2 MSTORE PUSH1 0x20 PUSH1 0x4 DUP3 ADD MSTORE PUSH1 0x13 PUSH1 0x24 DUP3 ADD MSTORE PUSH19 0x496E646578206F7574206F6620626F756E6473 PUSH1 0x68 SHL PUSH1 0x44 DUP3 ADD MSTORE PUSH1 0x64 ADD PUSH2 0x3B0 JUMP JUMPDEST DUP1 JUMPDEST CALLER PUSH1 0x0 SWAP1 DUP2 MSTORE PUSH1 0x2 PUSH1 0x20 MSTORE PUSH1 0x40 SWAP1 KECCAK256 SLOAD PUSH2 0x139F SWAP1 PUSH1 0x1 SWAP1 PUSH2 0x1613 JUMP JUMPDEST DUP2 LT ISZERO PUSH2 0x144E JUMPI CALLER PUSH1 0x0 SWAP1 DUP2 MSTORE PUSH1 0x2 PUSH1 0x20 MSTORE PUSH1 0x40 SWAP1 KECCAK256 PUSH2 0x13C0 DUP3 PUSH1 0x1 PUSH2 0x1643 JUMP JUMPDEST DUP2 SLOAD DUP2 LT PUSH2 0x13D0 JUMPI PUSH2 0x13D0 PUSH2 0x1678 JUMP JUMPDEST SWAP1 PUSH1 0x0 MSTORE PUSH1 0x20 PUSH1 0x0 KECCAK256 SWAP1 PUSH1 0x3 MUL ADD PUSH1 0x2 PUSH1 0x0 CALLER PUSH1 0x1 PUSH1 0x1 PUSH1 0xA0 SHL SUB AND PUSH1 0x1 PUSH1 0x1 PUSH1 0xA0 SHL SUB AND DUP2 MSTORE PUSH1 0x20 ADD SWAP1 DUP2 MSTORE PUSH1 0x20 ADD PUSH1 0x0 KECCAK256 DUP3 DUP2 SLOAD DUP2 LT PUSH2 0x1414 JUMPI PUSH2 0x1414 PUSH2 0x1678 JUMP JUMPDEST PUSH1 0x0 SWAP2 DUP3 MSTORE PUSH1 0x20 SWAP1 SWAP2 KECCAK256 DUP3 SLOAD PUSH1 0x3 SWAP1 SWAP3 MUL ADD SWAP1 DUP2 SSTORE PUSH1 0x1 DUP1 DUP4 ADD SLOAD SWAP1 DUP3 ADD SSTORE PUSH1 0x2 SWAP2 DUP3 ADD SLOAD SWAP2 ADD SSTORE DUP1 PUSH2 0x1446 DUP2 PUSH2 0x16A7 JUMP JUMPDEST SWAP2 POP POP PUSH2 0x1383 JUMP JUMPDEST POP CALLER PUSH1 0x0 SWAP1 DUP2 MSTORE PUSH1 0x2 PUSH1 0x20 MSTORE PUSH1 0x40 SWAP1 KECCAK256 DUP1 SLOAD DUP1 PUSH2 0x146D JUMPI PUSH2 0x146D PUSH2 0x16C0 JUMP JUMPDEST PUSH1 0x0 DUP3 DUP2 MSTORE PUSH1 0x20 DUP2 KECCAK256 PUSH1 0x3 PUSH1 0x0 NOT SWAP1 SWAP4 ADD SWAP3 DUP4 MUL ADD DUP2 DUP2 SSTORE PUSH1 0x1 DUP2 ADD DUP3 SWAP1 SSTORE PUSH1 0x2 ADD SSTORE SWAP1 SSTORE POP JUMP JUMPDEST PUSH1 0x7 SLOAD PUSH1 0x6 SLOAD PUSH2 0x14A5 SWAP2 SWAP1 PUSH2 0x162C JUMP JUMPDEST PUSH1 0x5 SSTORE JUMP JUMPDEST PUSH1 0x0 SLOAD PUSH1 0xFF AND PUSH2 0x498 JUMPI PUSH1 0x40 MLOAD PUSH3 0x461BCD PUSH1 0xE5 SHL DUP2 MSTORE PUSH1 0x20 PUSH1 0x4 DUP3 ADD MSTORE PUSH1 0x14 PUSH1 0x24 DUP3 ADD MSTORE PUSH20 0x14185D5CD8589B194E881B9BDD081C185D5CD959 PUSH1 0x62 SHL PUSH1 0x44 DUP3 ADD MSTORE PUSH1 0x64 ADD PUSH2 0x3B0 JUMP JUMPDEST PUSH1 0x0 SLOAD PUSH1 0xFF AND ISZERO PUSH2 0x498 JUMPI PUSH1 0x40 MLOAD PUSH3 0x461BCD PUSH1 0xE5 SHL DUP2 MSTORE PUSH1 0x20 PUSH1 0x4 DUP3 ADD MSTORE PUSH1 0x10 PUSH1 0x24 DUP3 ADD MSTORE PUSH16 0x14185D5CD8589B194E881C185D5CD959 PUSH1 0x82 SHL PUSH1 0x44 DUP3 ADD MSTORE PUSH1 0x64 ADD PUSH2 0x3B0 JUMP JUMPDEST PUSH1 0x0 PUSH1 0x20 DUP3 DUP5 SUB SLT ISZERO PUSH2 0x154B JUMPI PUSH1 0x0 DUP1 REVERT JUMPDEST POP CALLDATALOAD SWAP2 SWAP1 POP JUMP JUMPDEST PUSH1 0x20 DUP1 DUP3 MSTORE DUP3 MLOAD DUP3 DUP3 ADD DUP2 SWAP1 MSTORE PUSH1 0x0 SWAP2 SWAP1 PUSH1 0x40 SWAP1 DUP2 DUP6 ADD SWAP1 DUP7 DUP5 ADD DUP6 JUMPDEST DUP3 DUP2 LT ISZERO PUSH2 0x159E JUMPI DUP2 MLOAD DUP1 MLOAD DUP6 MSTORE DUP7 DUP2 ADD MLOAD DUP8 DUP7 ADD MSTORE DUP6 ADD MLOAD DUP6 DUP6 ADD MSTORE PUSH1 0x60 SWAP1 SWAP4 ADD SWAP3 SWAP1 DUP6 ADD SWAP1 PUSH1 0x1 ADD PUSH2 0x156F JUMP JUMPDEST POP SWAP2 SWAP8 SWAP7 POP POP POP POP POP POP POP JUMP JUMPDEST PUSH1 0x0 PUSH1 0x20 DUP3 DUP5 SUB SLT ISZERO PUSH2 0x15BD JUMPI PUSH1 0x0 DUP1 REVERT JUMPDEST DUP2 CALLDATALOAD PUSH1 0x1 PUSH1 0x1 PUSH1 0xA0 SHL SUB DUP2 AND DUP2 EQ PUSH2 0x15D4 JUMPI PUSH1 0x0 DUP1 REVERT JUMPDEST SWAP4 SWAP3 POP POP POP JUMP JUMPDEST PUSH4 0x4E487B71 PUSH1 0xE0 SHL PUSH1 0x0 MSTORE PUSH1 0x11 PUSH1 0x4 MSTORE PUSH1 0x24 PUSH1 0x0 REVERT JUMPDEST PUSH1 0x0 DUP3 PUSH2 0x160E JUMPI PUSH4 0x4E487B71 PUSH1 0xE0 SHL PUSH1 0x0 MSTORE PUSH1 0x12 PUSH1 0x4 MSTORE PUSH1 0x24 PUSH1 0x0 REVERT JUMPDEST POP DIV SWAP1 JUMP JUMPDEST DUP2 DUP2 SUB DUP2 DUP2 GT ISZERO PUSH2 0x1626 JUMPI PUSH2 0x1626 PUSH2 0x15DB JUMP JUMPDEST SWAP3 SWAP2 POP POP JUMP JUMPDEST DUP1 DUP3 MUL DUP2 ISZERO DUP3 DUP3 DIV DUP5 EQ OR PUSH2 0x1626 JUMPI PUSH2 0x1626 PUSH2 0x15DB JUMP JUMPDEST DUP1 DUP3 ADD DUP1 DUP3 GT ISZERO PUSH2 0x1626 JUMPI PUSH2 0x1626 PUSH2 0x15DB JUMP JUMPDEST PUSH1 0x0 PUSH1 0x20 DUP3 DUP5 SUB SLT ISZERO PUSH2 0x1668 JUMPI PUSH1 0x0 DUP1 REVERT JUMPDEST DUP2 MLOAD DUP1 ISZERO ISZERO DUP2 EQ PUSH2 0x15D4 JUMPI PUSH1 0x0 DUP1 REVERT JUMPDEST PUSH4 0x4E487B71 PUSH1 0xE0 SHL PUSH1 0x0 MSTORE PUSH1 0x32 PUSH1 0x4 MSTORE PUSH1 0x24 PUSH1 0x0 REVERT JUMPDEST PUSH1 0x0 PUSH1 0x20 DUP3 DUP5 SUB SLT ISZERO PUSH2 0x16A0 JUMPI PUSH1 0x0 DUP1 REVERT JUMPDEST POP MLOAD SWAP2 SWAP1 POP JUMP JUMPDEST PUSH1 0x0 PUSH1 0x1 DUP3 ADD PUSH2 0x16B9 JUMPI PUSH2 0x16B9 PUSH2 0x15DB JUMP JUMPDEST POP PUSH1 0x1 ADD SWAP1 JUMP JUMPDEST PUSH4 0x4E487B71 PUSH1 0xE0 SHL PUSH1 0x0 MSTORE PUSH1 0x31 PUSH1 0x4 MSTORE PUSH1 0x24 PUSH1 0x0 REVERT INVALID LOG2 PUSH5 0x6970667358 0x22 SLT KECCAK256 BASEFEE 0xBF 0x4D CREATE2 GASPRICE 0x1E PUSH30 0x74362EE400443D621F5E7E8D9A41AFB5128B90F593115C79E664736F6C63 NUMBER STOP ADDMOD SGT STOP CALLER "
		},
		"gasEstimates": {
			"creation": {
				"codeDepositCost": "1180000",
				"executionCost": "infinite",
				"totalCost": "infinite"
			},
			"external": {
				"_k()": "2330",
				"_x()": "2396",
				"_y()": "2374",
				"buy(uint256)": "infinite",
				"dailyTax(uint256)": "2450",
				"getETHPrice(uint256)": "infinite",
				"getMemePrice(uint256)": "infinite",
				"getStacks()": "infinite",
				"owner()": "2397",
				"pause()": "infinite",
				"paused()": "2381",
				"precision()": "2395",
				"renounceOwnership()": "infinite",
				"sell(uint256)": "infinite",
				"stack(uint256)": "infinite",
				"stackingRate()": "2373",
				"taxRate()": "2307",
				"transferOwnership(address)": "28444",
				"unpause()": "infinite",
				"unstack(uint256)": "infinite"
			},
			"internal": {
				"_distributeTax()": "infinite",
				"_removeArr(uint256)": "infinite",
				"_stack(uint256,uint256)": "infinite",
				"_unstack(uint256)": "infinite",
				"_updateK()": "26409"
			}
		},
		"methodIdentifiers": {
			"_k()": "1b82c27f",
			"_x()": "29809703",
			"_y()": "28726bda",
			"buy(uint256)": "d96a094a",
			"dailyTax(uint256)": "2ad9d559",
			"getETHPrice(uint256)": "1a753fed",
			"getMemePrice(uint256)": "5c572ed0",
			"getStacks()": "e8bca8b8",
			"owner()": "8da5cb5b",
			"pause()": "8456cb59",
			"paused()": "5c975abb",
			"precision()": "d3b5dc3b",
			"renounceOwnership()": "715018a6",
			"sell(uint256)": "e4849b32",
			"stack(uint256)": "dc9031c4",
			"stackingRate()": "9c74f05d",
			"taxRate()": "771a3a1d",
			"transferOwnership(address)": "f2fde38b",
			"unpause()": "3f4ba83a",
			"unstack(uint256)": "200061df"
		}
	},
	"abi": [
		{
			"inputs": [
				{
					"internalType": "address",
					"name": "addr",
					"type": "address"
				}
			],
			"stateMutability": "nonpayable",
			"type": "constructor"
		},
		{
			"anonymous": false,
			"inputs": [
				{
					"indexed": true,
					"internalType": "address",
					"name": "from",
					"type": "address"
				},
				{
					"indexed": false,
					"internalType": "uint256",
					"name": "Meme_amount",
					"type": "uint256"
				},
				{
					"indexed": false,
					"internalType": "uint256",
					"name": "eth_amount",
					"type": "uint256"
				}
			],
			"name": "Buy",
			"type": "event"
		},
		{
			"anonymous": false,
			"inputs": [
				{
					"indexed": true,
					"internalType": "address",
					"name": "previousOwner",
					"type": "address"
				},
				{
					"indexed": true,
					"internalType": "address",
					"name": "newOwner",
					"type": "address"
				}
			],
			"name": "OwnershipTransferred",
			"type": "event"
		},
		{
			"anonymous": false,
			"inputs": [
				{
					"indexed": false,
					"internalType": "address",
					"name": "account",
					"type": "address"
				}
			],
			"name": "Paused",
			"type": "event"
		},
		{
			"anonymous": false,
			"inputs": [
				{
					"indexed": true,
					"internalType": "address",
					"name": "from",
					"type": "address"
				},
				{
					"indexed": false,
					"internalType": "uint256",
					"name": "Meme_amount",
					"type": "uint256"
				},
				{
					"indexed": false,
					"internalType": "uint256",
					"name": "eth_amount",
					"type": "uint256"
				}
			],
			"name": "Sell",
			"type": "event"
		},
		{
			"anonymous": false,
			"inputs": [
				{
					"indexed": true,
					"internalType": "address",
					"name": "from",
					"type": "address"
				},
				{
					"indexed": false,
					"internalType": "uint256",
					"name": "Meme_amount",
					"type": "uint256"
				},
				{
					"indexed": false,
					"internalType": "uint256",
					"name": "eth_amount",
					"type": "uint256"
				}
			],
			"name": "Stack",
			"type": "event"
		},
		{
			"anonymous": false,
			"inputs": [
				{
					"indexed": true,
					"internalType": "address",
					"name": "from",
					"type": "address"
				},
				{
					"indexed": false,
					"internalType": "uint256",
					"name": "Meme_amount",
					"type": "uint256"
				},
				{
					"indexed": false,
					"internalType": "uint256",
					"name": "eth_amount",
					"type": "uint256"
				}
			],
			"name": "UnStack",
			"type": "event"
		},
		{
			"anonymous": false,
			"inputs": [
				{
					"indexed": false,
					"internalType": "address",
					"name": "account",
					"type": "address"
				}
			],
			"name": "Unpaused",
			"type": "event"
		},
		{
			"inputs": [],
			"name": "_k",
			"outputs": [
				{
					"internalType": "uint256",
					"name": "",
					"type": "uint256"
				}
			],
			"stateMutability": "view",
			"type": "function"
		},
		{
			"inputs": [],
			"name": "_x",
			"outputs": [
				{
					"internalType": "uint256",
					"name": "",
					"type": "uint256"
				}
			],
			"stateMutability": "view",
			"type": "function"
		},
		{
			"inputs": [],
			"name": "_y",
			"outputs": [
				{
					"internalType": "uint256",
					"name": "",
					"type": "uint256"
				}
			],
			"stateMutability": "view",
			"type": "function"
		},
		{
			"inputs": [
				{
					"internalType": "uint256",
					"name": "meme_amount",
					"type": "uint256"
				}
			],
			"name": "buy",
			"outputs": [],
			"stateMutability": "payable",
			"type": "function"
		},
		{
			"inputs": [
				{
					"internalType": "uint256",
					"name": "",
					"type": "uint256"
				}
			],
			"name": "dailyTax",
			"outputs": [
				{
					"internalType": "uint256",
					"name": "",
					"type": "uint256"
				}
			],
			"stateMutability": "view",
			"type": "function"
		},
		{
			"inputs": [
				{
					"internalType": "uint256",
					"name": "eth_amount",
					"type": "uint256"
				}
			],
			"name": "getETHPrice",
			"outputs": [
				{
					"internalType": "uint256",
					"name": "",
					"type": "uint256"
				}
			],
			"stateMutability": "view",
			"type": "function"
		},
		{
			"inputs": [
				{
					"internalType": "uint256",
					"name": "meme_amount",
					"type": "uint256"
				}
			],
			"name": "getMemePrice",
			"outputs": [
				{
					"internalType": "uint256",
					"name": "",
					"type": "uint256"
				}
			],
			"stateMutability": "view",
			"type": "function"
		},
		{
			"inputs": [],
			"name": "getStacks",
			"outputs": [
				{
					"components": [
						{
							"internalType": "uint256",
							"name": "meme_amount",
							"type": "uint256"
						},
						{
							"internalType": "uint256",
							"name": "eth_amount",
							"type": "uint256"
						},
						{
							"internalType": "uint256",
							"name": "time",
							"type": "uint256"
						}
					],
					"internalType": "struct DEX.Stack_Struct[]",
					"name": "",
					"type": "tuple[]"
				}
			],
			"stateMutability": "view",
			"type": "function"
		},
		{
			"inputs": [],
			"name": "owner",
			"outputs": [
				{
					"internalType": "address",
					"name": "",
					"type": "address"
				}
			],
			"stateMutability": "view",
			"type": "function"
		},
		{
			"inputs": [],
			"name": "pause",
			"outputs": [],
			"stateMutability": "nonpayable",
			"type": "function"
		},
		{
			"inputs": [],
			"name": "paused",
			"outputs": [
				{
					"internalType": "bool",
					"name": "",
					"type": "bool"
				}
			],
			"stateMutability": "view",
			"type": "function"
		},
		{
			"inputs": [],
			"name": "precision",
			"outputs": [
				{
					"internalType": "uint256",
					"name": "",
					"type": "uint256"
				}
			],
			"stateMutability": "view",
			"type": "function"
		},
		{
			"inputs": [],
			"name": "renounceOwnership",
			"outputs": [],
			"stateMutability": "nonpayable",
			"type": "function"
		},
		{
			"inputs": [
				{
					"internalType": "uint256",
					"name": "eth_amount",
					"type": "uint256"
				}
			],
			"name": "sell",
			"outputs": [],
			"stateMutability": "nonpayable",
			"type": "function"
		},
		{
			"inputs": [
				{
					"internalType": "uint256",
					"name": "meme_amount",
					"type": "uint256"
				}
			],
			"name": "stack",
			"outputs": [],
			"stateMutability": "payable",
			"type": "function"
		},
		{
			"inputs": [],
			"name": "stackingRate",
			"outputs": [
				{
					"internalType": "uint256",
					"name": "",
					"type": "uint256"
				}
			],
			"stateMutability": "view",
			"type": "function"
		},
		{
			"inputs": [],
			"name": "taxRate",
			"outputs": [
				{
					"internalType": "uint256",
					"name": "",
					"type": "uint256"
				}
			],
			"stateMutability": "view",
			"type": "function"
		},
		{
			"inputs": [
				{
					"internalType": "address",
					"name": "newOwner",
					"type": "address"
				}
			],
			"name": "transferOwnership",
			"outputs": [],
			"stateMutability": "nonpayable",
			"type": "function"
		},
		{
			"inputs": [],
			"name": "unpause",
			"outputs": [],
			"stateMutability": "nonpayable",
			"type": "function"
		},
		{
			"inputs": [
				{
					"internalType": "uint256",
					"name": "index",
					"type": "uint256"
				}
			],
			"name": "unstack",
			"outputs": [],
			"stateMutability": "nonpayable",
			"type": "function"
		}
	]
}